:10000000C8C10000F7C10000F5C10000F3C1000045
:10001000F1C10000EFC10000EDC10000EBC1000024
:10002000E9C100000C94E4100C94E4100C94E4106A
:10003000E1C100000C94981ADDC10000DBC1000092
:10004000D9C100000C94020BD5C10000D3C100003F
:10005000D1C10000CFC10000CDC100000C943823F5
:10006000C9C100000C94CC270C940228C3C1000025
:10007000C1C10000BFC10000BDC10000BBC1000084
:100080000C942F0BB7C10000B5C10000B3C1000034
:100090000C9477280C94AD28ADC100000C94C50ECB
:1000A000A9C10000A7C100000C945C0BA3C1000013
:1000B000A1C100009FC100009DC100000C94890BEC
:1000C00099C1000097C1000095C1000093C10000D4
:1000D00091C100008FC100008DC100008BC10000E4
:1000E00089C10000BD08100724073D073D075607DA
:1000F0009B083D074609460946094609460946093F
:100100004609B3076E07C707460946094609F807B7
:100110004609330850087208460946094609460947
:10012000CB08D308460946094609E808FD084609F0
:100130004609460946094609460946094609460947
:1001400046094609460946092E098C24912496241D
:10015000A024AA242325B424BC24C424CE24D82437
:10016000E224F124FB24232505250F251925452507
:10017000482537253B2541257F254C2550255625EB
:100180005A255E25642568256C257F2572257625F0
:100190007A25084AD73B3BCE016E84BCBFFDC12FF8
:1001A0003D6C74319ABD56833DDA3D00C77F11BE68
:1001B000D9E4BB4C3E916BAAAABE000000803F0868
:1001C000000000BE922449123EABAAAA2ABECDCCA2
:1001D000CC4C3E00000080BEABAAAAAA3E000000A4
:1001E00000BF000000803F0000000000084178D3FD
:1001F000BB4387D1133D190E3CC3BD4282AD2B3E9C
:1002000068EC8276BED98FE1A93E4C80EFFFBE013B
:10021000C4FF7F3F000000000007634236B79BD851
:10022000A71A39685618AEBAAB558C1D3CB7CC57D7
:1002300063BD6DEDFD753EF6177231BF00000080A5
:100240003F003F065B4F666D7D077F6F777C395EB1
:100250007971BF86DBCFE6EDFD87FFEFF7FCB9DEF6
:10026000F9F1004000000A0B02090C0D0E0807030B
:100270000401000000000000000000000000000079
:10028000000000000000000000000000000000006E
:10029000121110000000000000000000000000002B
:1002A00000000000000000000000010210202008F3
:1002B00008102040102040800201020108040201C1
:1002C0000102040810204080804020100804020130
:1002D0008004020180402010080402010804020189
:1002E0000102040810204080010204081020408010
:1002F00005050505070508080808020202020A0AA2
:1003000008080404040401010101010101010303BF
:10031000030303030303040707070C0C0C0C0C0C6A
:100320000C0C0202020206060606060606060B0B67
:100330000B0B0B0B0B0B00002000230026002900E9
:100340002C002F003200000100000301060109010A
:1003500000002200250028002B002E003100340070
:1003600002010000050108010B010000210024002A
:1003700027002A002D003000330001010000040195
:1003800007010A012006E40D59153428DF286B0601
:100390005C1511241FBECFEFD1E2DEBFCDBF00E060
:1003A0000CBF12E0A0E0B2E0E4EAF3E600E00BBF2D
:1003B00002C007900D92A83DB107D9F728E0A8ED3B
:1003C000B2E001C01D92AC3FB207E1F713E0CEE806
:1003D000D3E000E006C022970109FE010BBF0E9496
:1003E000752FC438D10780E00807A9F70E94232998
:1003F0000C94C13105CECF92DF92EF92FF920F9312
:100400001F93E82FF92F05C0015011092109310967
:1004100061F1908196239417B9F305C00150110939
:100420002109310911F1908196239413F7CFC12C42
:10043000D12CE12CF12C0AC08FEFC81AD80AE80A97
:10044000F80A0C151D052E053F0579F080818623DD
:10045000841791F36C2D7D2D8E2D9F2D1F910F9163
:10046000FF90EF90DF90CF90089560E070E080E023
:1004700090E01F910F91FF90EF90DF90CF90089543
:1004800061E08DE00E94802561E08DE00E94B92549
:100490006CE271E080E090E00E94B12360E08DE0CA
:1004A0000E94B92526E040E052EC61E070E088EB64
:1004B00097E00E94502764EF71E080E090E00E9496
:1004C000B12361E085E10E94802561E085E10E9421
:1004D000B92564E670E080E090E00E94B12361E01D
:1004E00085E10E94802560E085E10E94B92526E033
:1004F00040E052EC61E070E085E598E00E94502712
:1005000081EF93E00C94DF1820915E03FC0122231D
:1005100019F0EA50FD4F02C0E65DFC4F808108955E
:1005200020915E03FC01222319F0EA50FD4F02C026
:10053000E65DFC4F6083089588EB97E00C946F298B
:10054000CF93DF93EC01E0DF80936603CE01019649
:10055000DBDF809367038091660390916703DF91EF
:10056000CF9108950F931F93CF93DF93EC01CCDFCE
:1005700008E613E0F8018083CE010196C5DF809381
:100580006903CE010296C0DF80936A03CE01039611
:10059000BBDF80936B03F80160817181828193815D
:1005A000DF91CF911F910F910895E1EEF2E020E0ED
:1005B00030E0419151914817590791F0452B41F492
:1005C000F901EE0FFF1FEF51FD4F9183808308C0AB
:1005D0002F5F3F4F2830310561F780E090E00895AC
:1005E000C9010895AF92BF92CF92DF92EF92FF922E
:1005F0000F931F93CF93DF93CDB7DEB7E6970FB678
:10060000F894DEBF0FBECDBF8C0186E090E07CDFAA
:10061000D82EE82EF12C0C30110509F4DFC13CF581
:100620000830110509F4E1C1E4F40330110509F4BF
:1006300052C20530110509F0F2C286E090E080DF79
:100640008C0169E087E694E00E940F1DB80187E6FF
:1006500094E00E94331588E090E072DF8C016AE03C
:1006600029C00A30110509F10CF41DC2F0C1013294
:10067000110509F4A3C26CF40E31110509F468C226
:100680000032110509F46FC20431110509F0C7C227
:1006900038C208321105C1F00233110509F4ADC2A8
:1006A0000232110509F0BBC26AC287E090E048DF60
:1006B0008C016D2D87E694E00E940F1DB80187E63E
:1006C00094E00E943315ABC287E090E039DF8C01E3
:1006D00089E090E035DF5C0181E0E816F10409F083
:1006E000BBC061E0CE0101960E94601F8B819C819E
:1006F000AD81BE818093850390938603A093870389
:10070000B09388038F818093890388859985AA8512
:10071000BB8580938A0390938B03A0938C03B09343
:100720008D038C859D85AE85BF8580938E039093C8
:100730008F03A0939003B093910388899989AA8924
:10074000BB898093920390939303A0939403B093F7
:1007500095038C899D89AE89BF8980939603909378
:100760009703A0939803B0939903888D998DAA8DD0
:10077000BB8D80939A0390939B03A0939C03B093AB
:100780009D038C8D9D8DAE8DBF8D80939E03909328
:100790009F03A093A003B093A10388A199A1AAA14C
:1007A000BBA18093A2039093A303A093A403B0934F
:1007B000A5038CA19DA1AEA1BFA18093A603909398
:1007C000A703A093A803B093A90388A599A5AAA5F8
:1007D000BBA58093AA039093AB03A093AC03B09303
:1007E000AD038CA59DA5AEA5BFA58093AE03909348
:1007F000AF03A093B003B093B10388A999A9AAA9A4
:10080000BBA98093B2039093B303A093B403B093B6
:10081000B5038CA98093B6038DA98093B703A50176
:10082000662757FD6095762F83E893E00E945D214F
:10083000B801882777FD8095982F0E94C92B6B01FE
:100840007C01AB01BC0183E893E00E947321B701F6
:10085000A60183E893E0BFC082E0E816F10409F046
:10086000DEC162E0CE0101960E94601F8B819C81F7
:10087000AD81BE818093BA039093BB03A093BC0368
:10088000B093BD038F818093BE0388859985AA8527
:10089000BB858093BF039093C003A093C103B09323
:1008A000C2038C859D85AE85BF858093C3039093DD
:1008B000C403A093C503B093C60388899989AA8904
:1008C000BB898093C7039093C803A093C903B093D7
:1008D000CA038C899D89AE89BF898093CB0390938D
:1008E000CC03A093CD03B093CE03888D998DAA8DB0
:1008F000BB8D8093CF039093D003A093D103B0938B
:10090000D2038C8D9D8DAE8DBF8D8093D30390933C
:10091000D403A093D503B093D60388A199A1AAA12B
:10092000BBA18093D7039093D803A093D903B0932E
:10093000DA038CA19DA1AEA1BFA18093DB039093AC
:10094000DC03A093DD03B093DE0388A599A5AAA5D7
:10095000BBA58093DF039093E003A093E103B093E2
:10096000E2038CA59DA5AEA5BFA58093E30390935C
:10097000E403A093E503B093E603C8A8D9A8EAA8C6
:10098000FBA8C092E703D092E803E092E903F0925B
:10099000EA038CA98093EB038DA98093EC03A50156
:1009A000662757FD6095762F88EB93E00E945D21C6
:1009B000B801882777FD8095982F0E94C92B6B017D
:1009C0007C01AB01BC0188EB93E00E947321B7016D
:1009D000A60188EB93E00E94CD2121C188E090E040
:1009E000AFDD8AE090E0ACDD1AC187E090E08CDDFD
:1009F000482F88E090E04EAB87DDE82E89E090E05C
:100A000083DD182F8AE090E07FDDF82E8BE090E008
:100A10007BDD082F4EA96D2D87E494E00E94381DE0
:100A2000EE2049F06FEF6E0D2F2D412F87E494E0FB
:100A30000E94B41D07C0202F4F2D612F87E494E042
:100A40000E94031E87E494E00E942F1EE8C087E006
:100A500090E05ADD9701220F331FF901E65DFD4F4B
:100A6000813011F4008101C0018110E088E090E044
:100A70004BDDD82EC80199DDFC01EE0FFF1FE80FFA
:100A8000F91FE359FB4F20813181428129833A8349
:100A90004B8384EB8D1508F4C2C0B801CE010196DA
:100AA00030D76D2DA5C088E394E00E94BE1C282F8E
:100AB00030E02E153F0529F06D2D88E394E00E946B
:100AC0002A1487E090E04EDDAB01BC0188E394E09E
:100AD0000E944B14A4C084E394E00E94BE1C282F03
:100AE00030E02E153F0529F06D2D84E394E00E943F
:100AF0000F1D87E090E008DD61E081111AC060E021
:100B000018C084E394E00E94BE1C282F30E02E150C
:100B10003F0529F06D2D84E394E00E940F1D87E0CE
:100B200090E0F2DC282F30E0223031053CF4682FD1
:100B3000617084E394E00E94E61C71C061E02230A1
:100B4000310509F460E084E394E00E94F61C67C07C
:100B500061E00E94802587E090E0D6DC682F8D2D33
:100B60000E94B9255CC061E00E94802587E090E08A
:100B7000CBDC682F70E08D2D0E94682450C061E0AE
:100B80000E94802587E090E0DBDC6C0189E090E04A
:100B9000D7DC1816190664F48C01222717FD20955E
:100BA000322FA601B7018FE793E00E94BF1437C030
:100BB000B7018FE793E00E94261531C087E090E0EF
:100BC000A3DC182F853B58F5C701EFDCFC01EE0FC5
:100BD000FF1FE80FF91FE359FB4F2081318142814C
:100BE00029833A834B83B701CE0101968AD6612FC0
:100BF00070E0CE010196BDD612C00E9482230E94F1
:100C0000C72B20E030E04AE754E40E942E2B60938B
:100C1000DC027093DD028093DE029093DF02E696A1
:100C20000FB6F894DEBF0FBECDBFDF91CF911F91FD
:100C30000F91FF90EF90DF90CF90BF90AF9008950D
:100C4000CF93DF93CDE6D4E0CE0190D5239684E018
:100C5000C538D807C9F787E694E00E94311584E5C6
:100C600094E00E94682287E494E00E94AB1D82E435
:100C700094E00E94E62288E394E00E94A11284E3BB
:100C800094E00E94A51C81EF93E00E9485158DEEF3
:100C900093E00E94511B83E893E00E94531F88EB6E
:100CA00093E00E94531F8FE793E00E94BA1488E7F5
:100CB00093E00E945B1982E793E00E945F158CE647
:100CC00093E00E94721569E472E080E693E0DF91A0
:100CD000CF910C941E2A80E693E00E94B72987E406
:100CE00094E00C94421E682F88EB97E00C94EC265D
:100CF0008FEFF9DF85E5F7CF8FEFF5DF85E5F3DFE0
:100D00001BCCCF93C82F81E0EEDF8C2FCF91EBCFA0
:100D1000EF92FF920F931F93CF93DF937C01FC011F
:100D2000C4810C2F158184E0DEDF8C2FDCDFC0E076
:100D3000D0E0C017D1073CF4BE01C7010E94612A70
:100D4000D2DF2196F6CFDF91CF911F910F91FF90C7
:100D5000EF900895FF920F931F93CF93DF931F920D
:100D6000CDB7DEB78B01F82E82E09983BCDFA801F6
:100D70006F2D9981792F4093680350936903609395
:100D80006A0370936B03802FAEDF80916903ABDF42
:100D900080916A03A8DF80916B030F90DF91CF9160
:100DA0001F910F91FF909FCFCF92DF92EF92FF9212
:100DB0006B017C0183E097DFC701B6010E94962B8F
:100DC000862F262F372F30936703209366038BDF00
:100DD00080916703FF90EF90DF90CF9084CFCF9208
:100DE000DF92EF92FF920F931F93CF93DF93CDB7D4
:100DF000DEB727970FB6F894DEBF0FBECDBF7C01DC
:100E000086E090E081DBD82E082F10E083E3E8161F
:100E1000F10408F03BC2F701EE58FF4F0C94562F37
:100E200082E494E00E94BE1C90E08017910729F0B4
:100E30006D2D82E494E00E940F1D60E971E082E470
:100E400094E00E94252312C287E090E05DDBF82E3B
:100E500084E594E00E94BE1C282F30E02017310763
:100E600009F006C284E594E00E94C11C8F1100C203
:100E700084E594E00E948222F9C184E394E00E9418
:100E8000BE1C90E08017910761F06D2D84E394E023
:100E90000E940F1D84E394E00E94351D60E00E94D3
:100EA000802584E394E00E94091D8AC187E090E0D8
:100EB0002BDBF82E8DEE93E00E94BE1C282F30E035
:100EC0002017310729F06D2D8DEE93E00E940F1D44
:100ED0006F2D8DEE93E00E94531B72C180913204FE
:100EE000909133040097F1F04F960E94BE1C90E061
:100EF0008017910731F100913204109133040115EC
:100F0000110581F085EA92E0F80191838083C801A0
:100F100082599F4F0E94B729C8010E946211C801DF
:100F20000E9430298BE790E00E942F298C016D2DC3
:100F30000E94361A1093330400933204C8010E94B1
:100F40004A1A80913204909133040E94711A682FDA
:100F50008093F2028FEF860F8E3F08F47EC060E030
:100F600070E0CB0183C184E394E00E94BE1C90E05A
:100F70008017910709F46BC06D2D84E394E00E9403
:100F80000F1D84E394E00E94351D60E05EC084E3A1
:100F900094E00E94BE1C90E08017910799F06D2D9F
:100FA00084E394E00E940F1D84E394E00E94321DCC
:100FB00060E00E94802584E394E00E94351D60E09B
:100FC0000E94802560E084E394E00E94C41C182FF6
:100FD00060E084E394E00E94D51C612F70E0660F0E
:100FE000771F680F711D882777FD8095982FEDC0BA
:100FF00087E090E089DAC82EE82EF12C84E394E0B3
:101000000E94BE1C282F30E02017310709F037C19D
:1010100084E394E00E94C11C282F30E02E153F0588
:1010200009F02DC184E394E0EA94EF2859F40E947A
:10103000321D62E00E94802560E084E394E00E941B
:10104000C41C0AC00E94351D62E00E94802560E039
:1010500084E394E00E94D51C682F70E080E090E06B
:101060000E94C72B03C187E090E04EDAF82E88E794
:1010700093E00E94BE1C282F30E02017310729F092
:101080006D2D88E793E00E940F1D88E793E00E9492
:101090005D196F2D88E793E00E942F1A32DEF6C0AB
:1010A00082E793E00E94BE1C90E080179107A9F0B0
:1010B0006D2D82E793E00E940F1D82E793E00E946E
:1010C000321D482F82E793E04F830E94351D4F81E8
:1010D000682F82E793E00E94611582E793E00E9407
:1010E000711521C08CE693E00E94BE1C90E0801731
:1010F0009107A9F06D2D8CE693E00E940F1D8CE600
:1011000093E00E94321D482F8CE693E04F830E94AB
:10111000351D4F81682F8CE693E00E9474158CE694
:1011200093E00E948415BC01882777FD8095982F55
:101130000E94C92B60C087E090E0E6D9082F10E03C
:1011400081EF93E00E94F2150130110529F481EF3F
:1011500093E00E9491158AC00230110529F481EFB5
:1011600093E00E94971582C00330110509F08EC0EC
:1011700081EF93E00E949D1579C060E673E0CE0197
:1011800001960E94482ACE010196C2DDCE01019649
:101190000E94B7297BC060E08D2D0E9480258D2D97
:1011A0000E94EE250DC0F801EE0FFF1FE65FFD4F18
:1011B000108160E0812F0E948025812F0E944324AE
:1011C000BC01882777FD8095982F0E94C92B4EC0BF
:1011D00087E090E0B5D98C0160E08D2D0E948025DC
:1011E0009801442737FD4095542F61E08D2D0E94D2
:1011F00016260E94C72BD8DD49C087E090E084D92D
:10120000182F61E08D2D0E94802560E08D2D0E94B9
:10121000B92582E090E00E94D62361E08D2D0E94E6
:10122000B9258AE090E00E94D62360E08D2D0E94CF
:10123000B92560E0812F0E94802520E335E740E05A
:1012400050E061E0812F0E9416260E94C72B20E00B
:1012500030E048E652E40E942E2B08C06091D8028C
:101260007091D9028091DA029091DB0273DD0EC099
:101270004F2D6D2D84E594E00E947122F9CD4C2D07
:101280006D2D84E394E00E941F1DCCCE27960FB6EF
:10129000F894DEBF0FBECDBFDF91CF911F910F91AC
:1012A000FF90EF90DF90CF9008950F931F93CF930F
:1012B000DF931092F30283E090E026D9082F84E0B8
:1012C00090E022D9182F85E090E01ED9C82FD0E0F9
:1012D000123099F068F4113009F043C009DD802F15
:1012E00002DDCE017CDDDF91CF911F910F9124C9EA
:1012F000143031F0153081F134C0CE0173D92CC0D7
:1013000069E087E694E00E940F1D60E070E087E6E8
:1013100094E00E9433156AE087E694E00E940F1D76
:1013200060E070E087E694E00E94331561E087E6B4
:1013300094E00E940F1D60E070E087E694E00E9458
:10134000331562E087E694E00E940F1D60E070E0D4
:1013500087E694E00E943315DF91CF911F910F91A2
:10136000CBCCDF91CF911F910F91089510925F0325
:1013700088EB97E00E944226181619065CF481E07B
:1013800080935F0310925E0388EB97E00E945B26D8
:101390008093F10208950E9482230E94C72B20E0CF
:1013A00030E04AE754E40E942E2B2091DC02309179
:1013B000DD024091DE025091DF020E94632A6093B9
:1013C000D8027093D9028093DA029093DB02809165
:1013D000320490913304009711F00E94761AC6DF10
:1013E00083E893E00E94472288EB93E00E94472223
:1013F00080915F03882309F443C06091F1028091DA
:10140000F302653561F481110AC08091E0028F3FDB
:10141000D1F481E08093F5028093F30214C06093CD
:10142000E002882381F08091F502823019F4609304
:10143000F40207C0833028F09091F4029150909309
:10144000F40290E06DD88091F5028F5F843318F438
:101450008093F50204C01092F5021092F30280917D
:10146000F302882369F08091F402811109C0809110
:10147000F502843028F01092F30217DF1092F50283
:101480000895CF92DF92EF92FF920F931F93CF9325
:10149000DF936C018B017A01EC01CA57DB4F888125
:1014A00087FF04C0FB011182108223C02CE02C9D19
:1014B000C0012D9D900D11242881AC01420F511DBA
:1014C00027FD5A952091850430E0421753078CF48C
:1014D0002881AC01420F511D27FD5A959A01FA014E
:1014E000EE0FFF1FE20FF31FE657FB4F208126FD93
:1014F00019C088818F5F88838CE08C9D90018D9DC1
:10150000300D11248881A901480F511D87FD5A957E
:101510008091850490E048175907B4F488818C3095
:101520003CF112C02881820F911D27FD9A95FC0184
:10153000EE0FFF1FE80FF91FE657FB4F808160E0B9
:101540008F730E94B925D5CFF801808191810496CF
:1015500080349C4918F480E49CE904C0F80180813F
:1015600091810496F701918380838FEF888341C036
:10157000F801808191814881B901640F711D47FD97
:101580007A95AB01FB01EE0FFF1FE40FF51FE65745
:10159000FB4F41815281840F951FF7019183808316
:1015A0008881A901480F511D87FD5A95FA01EE0F58
:1015B000FF1FE40FF51FE657FB4F808186FF19C020
:1015C0008881280F311D87FD3A95F901EE0FFF1F25
:1015D000E20FF31FE657FB4F808161E08F73DF91CD
:1015E000CF911F910F91FF90EF90DF90CF900C94CF
:1015F000B925DF91CF911F910F91FF90EF90DF9070
:10160000CF9008951F920F920FB60F9211240BB630
:101610000F922F933F934F935F936F937F938F938B
:101620009F93AF93BF93EF93FF9348E850E064E834
:1016300070E081E090E025DFFF91EF91BF91AF91E5
:101640009F918F917F916F915F914F913F912F91DA
:101650000F900BBE0F900FBE0F901F9018951F920A
:101660000F920FB60F9211240BB60F922F933F9348
:101670004F935F936F937F938F939F93AF93BF939A
:10168000EF93FF9348E950E064E970E082E090E076
:10169000F8DEFF91EF91BF91AF919F918F917F9174
:1016A0006F915F914F913F912F910F900BBE0F90D3
:1016B0000FBE0F901F9018951F920F920FB60F92AA
:1016C00011240BB60F922F933F934F935F936F9319
:1016D0007F938F939F93AF93BF93EF93FF9348EACA
:1016E00050E064EA70E083E090E0CBDEFF91EF91A0
:1016F000BF91AF919F918F917F916F915F914F912A
:101700003F912F910F900BBE0F900FBE0F901F9027
:1017100018951F920F920FB60F9211240BB60F92CD
:101720002F933F934F935F936F937F938F939F93E9
:10173000AF93BF93EF93FF9348E251E064E271E00F
:1017400080E090E09EDEFF91EF91BF91AF919F917D
:101750008F917F916F915F914F913F912F910F905A
:101760000BBE0F900FBE0F901F901895209185040F
:101770002033A0F431E0320F30938504FC01208344
:10178000822F90E0FC01EE0FFF1FE80FF91FE657D4
:10179000FB4F88EB9BE09283818308952FEFFC0140
:1017A00020830895DF92EF92FF920F931F93CF93C0
:1017B000DF93EC01D62E7A0189018881803308F00D
:1017C00068C061E08D2D0E9480258881A82FB0E03F
:1017D000FD01EE0FFF1FEA0FFB1FE657FB4F2D2DFC
:1017E0002F739081907C922B908360E272E06E194F
:1017F0007F0977FF02C06D5F7F4F7595679575957F
:101800006795698340E659E0401B510B57FF02C0C2
:101810004D5F5F4F55954795559547954A836CE0C9
:101820000E94E52E9CE0899FB001112420E030E069
:10183000A901460F571FFA01EE0FFF1FE40FF51F16
:10184000E657FB4F908196FD18C02F5F3F4F2C301D
:10185000310571F790E08130910521F510928000FB
:1018600082E0809381001092850010928400B19AEA
:1018700080916F00826080936F00888190E0FC010E
:10188000EE0FFF1FE80FF91FE657FB4F80818064C2
:1018900080838881DF91CF911F910F91FF90EF900E
:1018A000DF9008958230910569F41092900082E0F3
:1018B00080939100109295001092940088BB8093C1
:1018C0007100DBCF8330910569F41092A00082E0B3
:1018D0008093A1001092A5001092A40089BB809370
:1018E0007200CBCF892B49F61092200182E08093C1
:1018F000210110922501109224018ABB809373006C
:10190000BCCF20E639E040E252E04CCFFC018081C0
:10191000803370F5918128E830E0291B310997FD6B
:101920003395220F331F220F331F621773077CF08A
:10193000928128E532E0291B310997FD3395220F6A
:10194000331F220F331F621773070CF49B012250C1
:101950003109220F331F4FB7F89490E0FC01EE0FCE
:10196000FF1FE80FF91FE657FB4F328321834FBF5C
:1019700008954F925F926F927F92AF92BF92CF92F3
:10198000DF92EF92FF920F931F93CF93DF93EC01BF
:10199000603282E078070CF040C077FD06C0653BFE
:1019A00071052CF064EB70E002C060E070E08981AA
:1019B00028E830E0281B310987FD3395220F331FBB
:1019C000220F331F5901CC24B7FCC094DC2C88278C
:1019D00077FD8095982F2A8148E552E0421B5109F6
:1019E00027FD5395440F551F440F551F2A016624A8
:1019F00057FC6094762C7F926F925F924F9214EB1B
:101A0000E12EF12C00E010E020E030E0A9010E947E
:101A100072290F900F900F900F90CE01DF91CF9110
:101A20001F910F91FF90EF90DF90CF90BF90AF90FC
:101A30007F906F905F904F9069CF80914A0590E0C2
:101A400020914B05821B9109089520914B058091AF
:101A50004A05281750F4E22FF0E0E45BFA4F80814A
:101A600090E02F5F20934B0508958FEF9FEF08952F
:101A7000E0914B0580914A05E81730F4F0E0E45B13
:101A8000FA4F808190E008958FEF9FEF08950895B9
:101A9000CF92DF92EF92FF920F931F93CF93DF933A
:101AA0007C01CB018A0120912605222389F0EB01DC
:101AB0006B01C40ED51ECC15DD0561F06991D7010F
:101AC000ED91FC910190F081E02DC7011995F3CFC4
:101AD000642F32D1C801DF91CF911F910F91FF90F8
:101AE000EF90DF90CF900895CF93DF931F92CDB703
:101AF000DEB76983209126052223D1F020912705A6
:101B0000203240F021E030E0FC013383228380E08A
:101B100090E014C080912805E82FF0E0E75DFA4FCF
:101B2000998190838F5F809328058093270504C057
:101B300061E0CE01019600D181E090E00F90DF914D
:101B4000CF910895FC011382128248EE53E060E0C9
:101B500070E0448355836683778387E592E09183C1
:101B60008083089510924B0510924A051092280523
:101B7000109227052CC0862F413208F040E26CE419
:101B800075E043D010924B0580934A05089581E09B
:101B90008093260560934905109228051092270529
:101BA0000895F5CF0F93062F21E04091270569E2B4
:101BB00075E0809149056DD0109228051092270597
:101BC000109226050F9108958AE195E0BBCF1092FF
:101BD000D90581E08093D7051092D60561E084E1B4
:101BE0000E94B92561E085E10E94B925E9EBF0E0AA
:101BF00080818E7F808380818D7F808388E4809345
:101C0000B80085E48093BC000895413208F03FC0DD
:101C10009091D9059111FCCF91E09093D905209333
:101C2000D7052FEF20936C051092B105240F209358
:101C3000B0059093D8059091D805880F892B809393
:101C4000D8058091D605813041F41092D605809157
:101C5000D8058093BB0085EC01C085EE8093BC0065
:101C60008091D9058130E1F38091B105841710F49A
:101C70004091B10522EB35E0FB01D9018A2F821B8F
:101C8000841718F48D918193F9CF842F089580E003
:101C900008950F93413208F046C09091D9059111F3
:101CA000FCCF92E09093D9050093D7059FEF9093D6
:101CB0006C051092B1054093B005FB0162EB75E035
:101CC000DB019A2F961B941718F491919D93F9CFED
:101CD0001092D8059091D805880F892B8093D8054C
:101CE0008091D605813041F41092D6058091D805B7
:101CF0008093BB0085EC01C085EE8093BC0022235D
:101D000021F08091D9058230E1F380916C058F3FFD
:101D100061F080916C05803251F080916C058033C8
:101D200041F483E007C081E005C080E003C082E0A9
:101D300001C084E00F910895613298F42091D90593
:101D4000243089F460938E05FC0180E995E0DC0184
:101D50002A2F281B261718F421912D93F9CF80E004
:101D6000089581E0089582E0089585ED8093BC0098
:101D70008091BC0084FDFCCF1092D905089585ECBC
:101D80008093BC001092D90508951F920F920FB650
:101D90000F9211240BB60F922F933F934F935F93A3
:101DA0006F937F938F939F93AF93BF93EF93FF9323
:101DB0008091B900887F803609F49CC068F588322C
:101DC00009F45BC090F4803109F454C038F48823DE
:101DD00009F4F3C0883009F44DC0F2C0883109F429
:101DE0004CC0803209F45DC0EBC0803409F468C097
:101DF00048F4803309F455C0883309F0E1C080937A
:101E00006C05A7C0803509F44FC0883509F45DC062
:101E1000883409F0D5C0D3C0883909F4C4C0A8F407
:101E2000883709F467C038F4883609F463C080370E
:101E300009F460C0C5C0883809F4B5C0803909F418
:101E40005FC0803809F0BCC05BC0803B09F483C030
:101E500038F4803A09F466C0883A09F47CC0B0C00E
:101E6000803C09F4A4C0883C09F4A1C0883B09F473
:101E700087C0A6C08091D80510C09091B10580910F
:101E8000B005981770F5E091B10581E08E0F809351
:101E9000B105F0E0EE54FA4F80818093BB0085ECF1
:101EA00083C080936C058BC0E091B10581E08E0FFB
:101EB0008093B1058091BB00F0E0EE54FA4F80832F
:101EC0009091B1058091B0056BC0E091B10581E0C2
:101ED0008E0F8093B1058091BB00F0E0EE54FA4F75
:101EE00080838091D70581116AC081E08093D605F7
:101EF00084EA5EC083E08093D90510926D05CFCF50
:101F000080916D05803208F04EC0E0916D0581E052
:101F10008E0F80936D058091BB00F0E0E259FA4F7F
:101F20008083BDCF80916D05803230F4E0916D05E6
:101F3000F0E0E259FA4F108218DF60916D0570E011
:101F4000E091D205F091D3058EE695E019951092B7
:101F50006D0515DF35C084E08093D90510928F059B
:101F600010928E05E091D405F091D50519958091D8
:101F70008E05811105C081E080938E051092900539
:101F8000E0918F0581E08E0F80938F05F0E0E057A0
:101F9000FA4F80818093BB0090918F0580918E05D0
:101FA000981708F47CCF85E88093BC0009C085ECC5
:101FB0008093BC001092D90503C010926C05D5DE49
:101FC000FF91EF91BF91AF919F918F917F916F9111
:101FD0005F914F913F912F910F900BBE0F900FBECD
:101FE0000F901F90189520911C0630911D06281700
:101FF0003907B9F49091DA058091DB05981789F0DB
:10200000E091DA05F0E0E452FA4F80812091DA05A0
:1020100030E02F5F3F4F2F7333272093DA0590E096
:1020200008958FEF9FEF08951F93CF93DF93DC0107
:102030005C968D919C915D97009749F481E090E0CA
:1020400013969C938E93129780E090E03BC051963C
:10205000ED91FC91529750962C915097322F3095DC
:102060001FB75E964C915E9741FB772770F941FD53
:102070006095F8944081772311F0422B01C04323EF
:102080004083EC012197F1F748E0508160FF02C0E6
:10209000522B01C053235083EC012197F1F7669531
:1020A000415099F78081772311F0832301C0822B5F
:1020B00080831FBF5C968D919C915D970197F1F78E
:1020C00081E090E0DF91CF911F91089520911C064F
:1020D00030911D062817390781F49091DA05809117
:1020E000DB05981751F0E091DA05F0E0E452FA4F81
:1020F0008081992787FD909508958FEF9FEF089530
:1021000020911C0630911D062817390769F480912B
:10211000DB052091DA0590E0805C9F4F821B9109DE
:1021200060E470E00C94052F80E090E00895209129
:102130001C0630911D062817390739F48FB7F8941B
:102140001092DB051092DA058FBF0895E0911C060E
:10215000F0911D06E817F90769F4A389B4899C91E9
:102160008589809589238C9310921D0610921C06F8
:1021700081E0089580E00895CF93DF93EC018A8D8C
:102180009B8D892BE9F080911C0690911D068C1780
:102190009D07B1F0009709F0D9DF8E8D8E7F8E8F6D
:1021A0001092DB051092DA05D0931D06C0931C0631
:1021B000EB89FC8980819D89892B808381E001C026
:1021C00080E0DF91CF9108951F920F920FB60F928A
:1021D00011240BB60F922F933F934F935F936F93FE
:1021E0007F938F939F93AF93BF93EF93FF93E09170
:1021F0001C06F0911D06309709F451C0868DA68506
:10220000B785958581FF04C08C91892329F447C047
:102210008C91892309F043C0A389B4899C91858955
:10222000809589238C93868997890197F1F7208D72
:10223000318DA685B785758558E040E0C9010197C5
:10224000F1F7842F90E095958795482F6C9167233F
:1022500009F04068515091F7868D81FD409580913D
:10226000DB0590E001968F7399272091DA052817F6
:1022700049F0A091DB05B0E0A452BA4F4C93809393
:10228000DB0503C0868D8160868F828D938D0197DB
:10229000F1F7A389B4898C919589892B8C93FF914F
:1022A000EF91BF91AF919F918F917F916F915F91CE
:1022B0004F913F912F910F900BBE0F900FBE0F903B
:1022C0001F90189527E632E0FC01318320833ECF32
:1022D0001F93CF93DF93EC01162F6E8D669561707F
:1022E00081E06827812F0E94B92561E0812F0E943B
:1022F0008025812F90E0FC01E655FD4FE491E88BAD
:10230000FC01E051FD4FE491F0E0EE0FFF1FE05BB8
:10231000FC4F859194919A8B898BDF91CF911F917E
:1023200008951F93CF93DF93EC01162F60E0812F68
:102330000E9480258E8D81FD04C061E0812F0E9466
:10234000B9251C87812F90E0FC01E655FD4FE491F3
:10235000ED87FC01E051FD4FE491F0E0EE0FFF1F2F
:10236000EA5CFC4F859194919F878E87DF91CF9196
:102370001F910895FF920F931F93CF93DF93EC016A
:10238000F62E522F1B821A8208EE13E020E030E076
:102390000C831D832E833F8387E692E09983888395
:1023A0001F8A1E8A198E188E1B8E1A8E1D8E1C8EE9
:1023B0008E8D8E7F50FB81F98E8F642FCE0188DF4A
:1023C0006F2DCE01DF91CF911F910F91FF90A9CF7B
:1023D0000F931F93CF93DF93EC019A01AB011B8EF8
:1023E0001A8E198E188E1F8A1E8A60E079E08DE39E
:1023F00090E00E943A2FC9012430310520F0B90144
:102400006350710902C061E070E07D8F6C8F1C85A4
:1024100006EF010F043048F06EEC610F643028F0D5
:1024200062EC610F683008F07DC0B9017695679560
:102430006431710518F06351710902C061E070E008
:102440007F8B6E8B069718F0C901059702C081E05B
:1024500090E0998F888FC901880F991F820F931F71
:1024600096958795969587958D30910510F00C97E8
:1024700002C081E090E09B8F8A8F043060F08EEC88
:10248000810F843040F082EC810F883008F050C01A
:10249000A8E6B0E04FC0A8E6B0E0E8E6F0E0908142
:1024A000043028F01E53183010F484E001C081E09D
:1024B000892B8C932C8536EF320F343058F08EEC0C
:1024C000820F843038F082EC820F883030F48DE651
:1024D00090E005C08BE690E002C080E090E09C8B2D
:1024E0008B8B343010F426500BC0223379F0233319
:1024F00079F0243379F082EC820F883068F4282F49
:1025000081E001C0880F2A95EAF707C088E005C07E
:1025100084E003C082E001C081E08D8B8C8D9D8DB5
:102520000197F1F7CE01DF91CF911F910F9124CE4A
:10253000A0E0B0E0883008F4B0CFE0E0F0E0AFCF4A
:1025400005CE0C94A51C0F931F93CF93DF93EC0142
:10255000062F18E060E088850E94B92500FF02C0C0
:1025600061E001C060E089850E94B925069561E0BF
:1025700088850E94B925115069F760E088850E941E
:10258000B92561E089850E94B92561E088850E94AE
:10259000B92560E089850E94802518EC89850E9414
:1025A000EE25892B59F01150C9F761E089850E9409
:1025B000802560E089850E94B925EFCF61E089859B
:1025C000DF91CF911F910F910C948025CF93DF93D2
:1025D000EC0161E088850E94B92561E089850E944F
:1025E000B92560E089850E94B92560E08885DF9182
:1025F000CF910C94B925CF93DF93EC0160E08885EF
:102600000E94B92560E089850E94B92561E088852E
:102610000E94B92561E08985DF91CF910C94B9259D
:10262000CF92DF92FF920F931F93CF93DF931F926E
:10263000CDB7DEB76C01F62E7983C8DF60E4C60142
:1026400082DFC601D8DFC601C1DFF6016581C601A0
:102650007ADF0F2D7981172F84E0F82EF801619130
:102660008F01C60170DFFA94C9F7C601C4DFC60145
:10267000ADDFF6016681C60166DFC6010F90DF910E
:10268000CF911F910F91FF90DF90CF90B4CF4F92D9
:102690005F926F927F928F929F92AF92BF92CF92F2
:1026A000DF92EF92FF920F931F93CF93DF9300D0AF
:1026B0001F92CDB7DEB76A017B01890137FD48C0A3
:1026C000B9016F5F7F4F882777FD8095982F0E9413
:1026D000C92B9B01AC0160E070E080E291E40E94B4
:1026E000A42D4B015C019B01AC01C701B6010E9406
:1026F0002E2B0E94042C2B013C01B801882777FD6A
:102700008095982F0E94C92B9B01AC0160E070E07E
:1027100080E291E40E94A42D69837A838B839C8359
:10272000A5019401C301B2010E94412D9B01AC019E
:10273000C701B6010E94632A29813A814B815C81DD
:102740000E942E2B0E94042C0E94962BCB011FC0AE
:1027500088249924821A930AA12CB12C20E030E01D
:1027600040E251E4C701B6010E94412D6B017C019A
:102770008FEFA81AB80AA814B90484F3C701B601E8
:102780000E94962BCB016AE070E00E94052F0F900B
:102790000F900F900F90DF91CF911F910F91FF90AD
:1027A000EF90DF90CF90BF90AF909F908F907F90F1
:1027B0006F905F904F900895DB0180E090E22C9144
:1027C000223208F09C93EC91F0E0EE5BFD4FE49137
:1027D000ED938F5F843099F70895EF92FF920F93F6
:1027E0001F93CF93DF9300D01F92CDB7DEB78C013C
:1027F000DB01FE013196CE0105967F012D912193DB
:10280000E817F907D9F7B701C801D6DFB701C80142
:1028100007DF0F900F900F900F90DF91CF911F91D6
:102820000F91FF90EF900895CF93DF9300D01F9208
:10283000CDB7DEB720E229832A832B832C83BE0108
:102840006F5F7F4FCADF0F900F900F900F90DF9157
:10285000CF910895CF93DF93EC016A83E62FF0E0E8
:10286000EE0FFF1FE65DFD4F818189839081988384
:102870008887998761E00E94802561E089850E94B0
:10288000802580E48C8380EC8D838AE88E83CE0162
:10289000DF91CF91C9CF8F929F92AF92BF92CF928B
:1028A000DF92EF92FF920F931F93CF93DF9300D0AD
:1028B0001F92CDB7DEB75C016A017B0119821A82D3
:1028C0001B821C8220E030E0A901C701B6010E94F2
:1028D0002A2B87FF09C0F7FAF094F7F8F09481E209
:1028E00089839924939401C0912C03E010E0812CFA
:1028F0009801B701A601C501CADE181619062CF009
:10290000002319F08820B9F00CC001110AC0E1E0E1
:10291000F0E0EC0FFD1FE90DF11D20E1280F2083F1
:1029200007C0E1E0F0E0EC0FFD1FE90DF11D808331
:1029300093948824839483E0891530F00150110921
:102940000C3F8FEF1807A1F6BE016F5F7F4FC501E7
:1029500044DF0F900F900F900F90DF91CF911F9158
:102960000F91FF90EF90DF90CF90BF90AF909F902E
:102970008F900895EAD788E080931E0608954F92BD
:102980005F926F927F928F929F92AF92BF92CF92FF
:10299000DF92EF92FF920F931F93CF93DF93762EE8
:1029A0006801790160931E069A0140E050E060E4FE
:1029B00072E48FE090E00E943A2FE901590137FF5D
:1029C00003C08FEFA81AB80A85011595079561E035
:1029D000872D0E948025A8EEB3E0A70196010E94F2
:1029E0006B2F2B013C01C12CD12C76014E01AA2466
:1029F00097FCA094BA2CC414D504E604F704A8F4F8
:102A000061E080911E060E94B925C8010E94D6236C
:102A100060E080911E060E94B925C8010E94D6235D
:102A2000C80CD91CEA1CFB1CE6CFDF91CF911F918B
:102A30000F91FF90EF90DF90CF90BF90AF909F905D
:102A40008F907F906F905F904F900895862F609346
:102A50001E0661E00E94802560E080911E060C94B5
:102A6000B92560E07BC70F931F93CF93DF938C0151
:102A70006F3F710519F014F06FEF70E0EB016130FA
:102A80008FEF780714F4C1E0DFEFD7FD05C061E0F8
:102A9000C801ACD7BE0107C060E0C801A7D7662750
:102AA00077276C1B7D0BC801DF91CF911F910F9190
:102AB000B3C78FE196E0D5C38FE196E0FBC360E03A
:102AC0004DC7CF93DF93EC016C834D838C8160E025
:102AD0000E9480258D8188838C818983DF91CF91AD
:102AE000089594C760E03AC7CF93DF93EC016C83FD
:102AF0004D838C8160E00E9480258D8188838C814C
:102B00008983DF91CF91089581C7CF93DF93EC0143
:102B100060E024D7C05CDF4F88E68883DF91CF91E7
:102B20000895FC0160857185828593850895FC0177
:102B300064857585868597850895FC01608971890E
:102B4000828993890895EF92FF920F931F93CF93F9
:102B5000DF93C62F8A01E22E68E68AE195E017D856
:102B60006C2F8AE195E00E94740D8130F9F460E0E9
:102B70008AE195E017D881112EC081E090E00E9493
:102B8000D62321E04E2D68E68AE195E00E94BB0D38
:102B9000E80100E010E0F12C8AE195E00E941D0DB3
:102BA000892B31F00E151F0574F002C08FEF13C092
:102BB00081E090E00E94D62381E00E151F0509F404
:102BC00080E0819508C00F5F1F4F8AE195E00E9469
:102BD000250D8993E1CFDF91CF911F910F91FF9048
:102BE000EF9008954F925F926F927F928F929F9293
:102BF000AF92BF92CF92DF92EF92FF920F931F930B
:102C0000CF93DF93CDB7DEB72C970FB6F894DEBF26
:102C10000FBECDBF8C01AC014E5C5F4F2EE06BE36D
:102C200092DF8111C5C1F801A2A8B12CBA2CAA2447
:102C300083A9A82AB1A2A0A2E4A8F12CFE2CEE241C
:102C400085A9E82AF3A2E2A286A8912C982C8824D0
:102C500087A9882A95A284A24480558066807780BF
:102C600062AD70E0762F662783AD682B882777FDED
:102C70008095982F0E94C92BF80126A137A140A565
:102C800051A50E94632AA30192010E942E2BF801F4
:102C9000648B758B868B978B64AD70E0762F66277F
:102CA00085AD682B882777FD8095982F0E94C92BCA
:102CB000F80122A533A544A555A50E94632AA301C6
:102CC00092010E942E2BF801608F718F828F938F5B
:102CD00066AD70E0762F662787AD682B882777FD75
:102CE0008095982F0E94C92BF80126A537A540A9E9
:102CF00051A90E94632AA30192010E942E2BF80180
:102D0000648F758F868F978FB701882777FD8095A1
:102D1000982F0E94C92B6B017C01B401882777FD95
:102D20008095982F0E94C92B9B01AC010E94412DD8
:102D30002B013C01A7019601C701B6010E94412D5C
:102D4000A30192010E94642A0E94F42D9B01AC0110
:102D5000B501882777FD8095982F29873A874B877B
:102D60005C870E94C92B4B015C0129853A854B8504
:102D70005C850E94D72A20E030E044E353E40E94BF
:102D8000412D2AED3FE049E450E40E942E2B698357
:102D90007A838B839C83A5019401C501B4010E94B1
:102DA000412DA30192010E94642A0E94F42D9B01EF
:102DB000AC01C701B6010E94D72A20E030E044E30D
:102DC00053E40E94412D2AED3FE049E450E40E9483
:102DD0002E2B6D837E838F8398870E948223C090E1
:102DE0003A07D0903B07E0903C07F0903D076C1904
:102DF0007D098E099F090E94C72B20E030E04AE739
:102E000054E40E942E2B6B017C010E94822360936C
:102E10003A0770933B0780933C0790933D07F80176
:102E200084A195A11816190644F5208D318D428D87
:102E3000538DC701B6010E94412D9B01AC01F801E1
:102E400060857185828593850E94632AF801608779
:102E50007187828793872489358946895789C70175
:102E6000B6010E94412D9B01AC01F8016485758576
:102E7000868597850E94642A28C0F801208D318DAF
:102E8000428D538DC701B6010E94412D9B01AC01BB
:102E9000F80160857185828593850E94642AF80116
:102EA0006087718782879387248935894689578906
:102EB000C701B6010E94412D9B01AC01F801648558
:102EC0007585868597850E94632AF80164877587D2
:102ED00086879787F801248D358D468D578DC701DC
:102EE000B6010E94412D9B01AC01F80160897189F6
:102EF000828993890E94642AF801608B718B828B8E
:102F0000938B20E030E040E05FE3C701B6010E9410
:102F1000642A9B01AC0160E070E080E09FE30E94C6
:102F20002E2B6B017C019B01AC0160E070E080E81E
:102F30009FE30E94632A4B015C01F80120853185E3
:102F400042855385C701B6010E94412D2B013C01EA
:102F5000A501940169817A818B819C810E94412D18
:102F60009B01AC01C301B2010E94642AF801608791
:102F70007187828793872485358546855785C70164
:102F8000B6010E94412D6B017C01A50194016D8168
:102F90007E818F8198850E94412D9B01AC01C701E4
:102FA000B6010E94642AF80164877587868797872F
:102FB0002C960FB6F894DEBF0FBECDBFDF91CF9138
:102FC0001F910F91FF90EF90DF90CF90BF90AF9047
:102FD0009F908F907F906F905F904F9008952F9269
:102FE0003F924F925F926F927F928F929F92AF9299
:102FF000BF92CF92DF92EF92FF920F931F93CF93E6
:10300000DF9300D01F92CDB7DEB71C0104EF11E0B3
:10301000812C912C5401412C512C320119821A829D
:103020001B821C827C0122E3E20EF11C26E0A70138
:1030300063E4C10188DDF10182A990E0982F88271F
:1030400023A9822BAA2797FDA095BA2F29813A811F
:103050004B815C81280F391F4A1F5B1F29833A83EC
:103060004B835C8384A990E0982F882725A9822B25
:10307000AA2797FDA095BA2F480E591E6A1E7B1EDF
:1030800086A990E0982F882727A9822BAA2797FD49
:10309000A095BA2F880E991EAA1EBB1E01501109B9
:1030A00029F664EFC62EDD24D394E12CF12C69813E
:1030B0007A818B819C81A70196010E943A2FCA01D7
:1030C000B9010E94C92BF10166A377A380A791A73C
:1030D000C301B201A70196010E943A2FCA01B901AA
:1030E0000E94C92BF10162A773A784A795A7C50108
:1030F000B401A70196010E943A2FCA01B9010E94AA
:10310000C92BF10166A777A780AB91AB0F900F9009
:103110000F900F90DF91CF911F910F91FF90EF9043
:10312000DF90CF90BF90AF909F908F907F906F90E7
:103130005F904F903F902F900895EF92FF921F93D2
:10314000CF93DF931F92CDB7DEB7162F7A0168E6D3
:1031500070E08AE195E029830E94D10D612F8AE118
:1031600095E00E94740D2981813091F4422F50E046
:10317000B7018AE195E00E94480D61E08AE195E09F
:103180000F90DF91CF911F91FF90EF900C94D20D93
:103190008FEF0F90DF91CF911F91FF90EF900895E7
:1031A000CF93DF931F92CDB7DEB7498321E0AE0105
:1031B0004F5F5F4FC2DF0F90DF91CF910895CF93A4
:1031C000DF93EC0140E050E063E872E44C835D8300
:1031D0006E837F83188619861A861B861C861D8639
:1031E0001E861F86188A198A1A8A1B8A1C8A1D8ABB
:1031F0001E8A1F8A188E198E1A8E1B8E1C8E1D8E8B
:103200001E8E1F8E19A218A21BA21AA21DA21CA2FA
:103210001EA21FA218A619A61AA61BA61CA61DA6AA
:103220001EA61FA618AA19AA8AE195E00E94B20D4F
:1032300060E273E080E090E00E94B12340E06BE642
:1032400070E0CE01ADDF41E06AE170E0CE01A8DFC1
:1032500048E06BE170E0CE01A3DFCE01DF91CF91BA
:10326000BECE21E030E0FC0131832083EE5FFE4FD3
:10327000108211821282138234961082118212827D
:103280001382349610823196108231961082118208
:1032900012821382349611821082329610823196F5
:1032A000108211821282138234961082118212824D
:1032B00013820895089560E051C34F925F926F9218
:1032C0007F928F929F92AF92BF92CF92DF92EF92B6
:1032D000FF920F931F93CF93DF9300D01F921F9203
:1032E000CDB7DEB78C01CE0101966C0185E0F60109
:1032F00011928A95E9F760E0C80178D364E170E043
:1033000080E090E00E94B12361E0C8016FD388E2C1
:1033100090E00E94D62360E0C80168D30E94822317
:103320004B015C0160E0C80140D381110EC00E94D6
:103330008223681979098A099B096330710581051F
:10334000910580F3F801148215820E9482234B01BB
:103350005C0160E0C80129D3882359F00E948223D0
:10336000681979098A099B096330710581059105FE
:1033700080F3E12CF12C0E9482234B015C0160E080
:10338000C80113D381110BC00E94822368197909E7
:103390008A099B09633071058105910580F30E94BC
:1033A0008E234B015C010E9482232B013C0160E0D3
:1033B000C801FBD2882359F00E9482236419750941
:1033C00086099709633071058105910580F30E9494
:1033D0008E23681979098A099B09F70123E0F5957D
:1033E000E7952A95E1F7693271058105910530F07D
:1033F000EC0DFD1D8081880F816004C0EC0DFD1D6A
:103400008081880F8083FFEFEF1AFF0A88E2E816B9
:10341000F10409F0B0CF59814B81842F90E0850FE2
:10342000911D2D8130E08217930719F4F801548320
:1034300045830F900F900F900F900F90DF91CF91D9
:103440001F910F91FF90EF90DF90CF90BF90AF90C2
:103450009F908F907F906F905F904F900895FC01A8
:10346000611102C08481089585810895CF93DF930F
:10347000EC0114D487E792E09983888388A1FE0148
:10348000E858FF4F80838F8DC758DF4F8883DF91C7
:10349000CF910895CF93DF93EC0140E855E260E0CF
:1034A00070E037D460E08F8DDF91CF910C94802550
:1034B0001F93CF93DF93EC018BA1882311F0CE01F2
:1034C00056D460E0CE014F965FD2182F8BA188238F
:1034D00011F0CE01DFDF81E08127DF91CF911F91D5
:1034E000089586589F4FFC0180810895CF93DF9304
:1034F000EC01DEDF882399F0CE019FD4181619065F
:103500008CF4E881F9810680F781E02DCE011995D0
:103510008F3F91053CF4C658DF4F888303C0C658DF
:10352000DF4F1882DF91CF9108956FD499270895C6
:103530001F920F920FB60F9211240BB60F920F939A
:103540001F932F933F934F935F936F937F938F932B
:103550009F93AF93BF93CF93EF93FF9382E00E942B
:10356000EE25C82F20914407309145072F5F3F4F2C
:1035700030934507209344078091AA07843618F0BA
:1035800085E080933F0790913F07933079F018F4DE
:10359000923039F070C0943011F1953009F44AC07E
:1035A0006AC0C11168C01092AA0729C0C13009F0D1
:1035B00062C0E091AA0781E08E0F8093AA07F0E035
:1035C0008091440790914507E25CF84F8087109204
:1035D00045071092440784E080933F074CC0C11117
:1035E00014C0E091AA0781E08E0F8093AA07F0E053
:1035F0008091440790914507E25CF84F80871092D4
:1036000045071092440783E0E7CF809144079091EB
:1036100045078536910578F185E080933F070E9444
:1036200082236093400770934107809342079093F1
:10363000430721C00E948223009140071091410757
:103640002091420730914307601B710B820B930B53
:10365000693C71058105910540F01092AA0710920E
:1036600045071092440782E0B7CFC11104C0109201
:10367000450710924407FF91EF91CF91BF91AF9111
:103680009F918F917F916F915F914F913F912F917A
:103690001F910F910F900BBE0F900FBE0F901F90B8
:1036A000189560E05BC1613041F4B0D18A5E914011
:1036B0002091AD073091AE0709C0623051F4A9D115
:1036C0008A5E91402091AB073091AC07820F931F27
:1036D000089580E090E00895089570E0FB01E655BC
:1036E000FD4FE491DC01EC93FB01E051FD4FE491CF
:1036F000F0E0EE0FFF1FEA5CFC4F25913491FC01D6
:103700003283218308951F93CF93DF93FC011081AF
:10371000C181D2819981812F8095892389838A8172
:10372000812B8A838AE090E00E94D623988191239E
:1037300081E009F480E0DF91CF911F910895FF921D
:103740000F931F93CF93DF93FC011081C181D2812E
:10375000F8948981F12EF0948F2189838A81812BBD
:103760008A8378940DE7015039F182E090E00E945D
:10377000D62388818123B9F3F8948A818F218A83A3
:103780008981812B8983789480EE91E00E94D623F1
:10379000F89489818F2189838A81812B8A8386E4A9
:1037A00090E00E94D6238881812301E009F000E0A7
:1037B00078948AE991E0FAD7802FDF91CF911F9119
:1037C0000F91FF9008951F93CF93DF93FC01108119
:1037D000C181D281912F909560FF11C0F8948A81A8
:1037E00089238A838981812B89838AE090E0DED7CF
:1037F0008A81812B8A83789487E390E010C0F894C3
:103800008A8189238A838981812B898381E490E05D
:10381000CDD78A81812B8A83789485E090E0DF91EF
:10382000CF911F91C3C70F931F93CF93DF93FC01D9
:103830001081C181D281F8948981812B89838A8109
:10384000012F009580238A8383E090E0AFD78981A0
:10385000802389838A81812B8A838AE090E0A6D79E
:10386000C881789485E390E0A1D71C2381E009F416
:1038700080E0DF91CF911F910F910895CF92DF9259
:10388000EF92FF920F931F93CF93DF931F92CDB7C9
:10389000DEB76C01E62E08E010E0FF24F39461E04F
:1038A0009F2D9E2109F460E0C60149838CDFFF0C47
:1038B0000150110949810115110589F741111DC0F8
:1038C000F894D6011196ED91FC91129791818C910B
:1038D0008095892381831196ED91FC9112978281C5
:1038E0009C91892B82831196ED91FC911297928184
:1038F0008C9180958923828378940F90DF91CF916A
:103900001F910F91FF90EF90DF90CF900895EF926D
:10391000FF920F931F93CF93DF938C01C8E0D0E009
:10392000F12CEE24E394C8017EDF8111FE28EE0C19
:103930002197C9F78F2DDF91CF911F910F91FF90A4
:10394000EF90089540E06CEC99CFFC0180912A0241
:10395000808380912B02818312820895DC01E62FFF
:10396000F0E0EE0FFF1FE65DFD4F80818C938181BB
:1039700011968C93119712966C930895FC01828195
:103980000895FC0183810895CF93DF93EC01888132
:103990000E94802588810E94EE2521E0892B09F470
:1039A00020E0822FDF91CF910895CF93DF93EC0138
:1039B00089810E94802589810E94EE2521E0892B42
:1039C00009F420E0822FDF91CF9108951F93CF93C8
:1039D000DF93EC01162F61E088810E948025612F22
:1039E0008881DF91CF911F910C94B9251F93CF93BC
:1039F000DF93EC01162F61E089810E948025612F01
:103A00008981DF91CF911F910C94B925FC018081B0
:103A10003AC7FC01818137C7FC01808159C7DC01AD
:103A2000E62FF0E0EE0FFF1FE65DFD4F80818C93E7
:103A3000818111968C93119712966C930895DC01F5
:103A4000E62FF0E0EE0FFF1FE65DFD4F80818C93C7
:103A5000818111968C93119712966C9312971396FD
:103A60004C930895FC0180810895FC0181810895A3
:103A7000DC0112966C931297E62FF0E0EE0FFF1F19
:103A8000E65DFD4F918111969C93119780818C93F7
:103A90004230D9F4292F30E0F901E655FD4FE49189
:103AA0001C96EC931C97F901E051FD4FE491F0E076
:103AB000EE0FFF1FE05BFC4F2591349119963C936C
:103AC0002E93189761E0892F19C0282F30E0F90153
:103AD000E655FD4FE4911C96EC931C97F901E051DB
:103AE000FD4FE491F0E0EE0FFF1FE05BFC4F2591EE
:103AF000349119963C932E93189761E00C9480258D
:103B0000CF93DF93EC01262F30E03D832C8323E01D
:103B1000629FC00111240E94792F9F838E83892B7D
:103B200021F483E892E00E94943180E090E04C819F
:103B30005D819A01220F331F240F351F82179307CF
:103B400038F4EE81FF81E80FF91F10820196EFCF64
:103B5000DF91CF910895CF93DF93EC01F6DE60E221
:103B6000CE01DF91CF91CCCF0F93FC01A62FB0E017
:103B700084819581A817B907B8F4862F880F860F1E
:103B800090E0A681B781A80FB91F2C93A681B781B9
:103B9000A80FB91F11964C930680F781E02DE80F0E
:103BA000F91F028381E001C080E00F910895CF9258
:103BB000DF92EF92FF920F931F93CF93DF937C01DD
:103BC000142FD22EC02E611112C0C0E0D0E0F70138
:103BD00084819581C817D90740F40C2D2D2D412FD4
:103BE0006C2FC701C1DF2196F2CF81E003C0615085
:103BF000BBDF80E0DF91CF911F910F91FF90EF909D
:103C0000DF90CF9008950F93022F242F462F60E06E
:103C1000CEDF0F9108950F931F93D8013FB7F8940B
:103C20009C91822F80958923292BFB01460F571FDA
:103C3000E417F50781F0919168E02C9300C097FF9D
:103C40008C93990F00C000C000C008F48C9300C092
:103C50006A9599F7EDCF3FBF1F910F9108950F938C
:103C60001F93FC010085118524813581A901440F32
:103C7000551F420F531F668177812485CCDF1F912A
:103C80000F910895CF93DF93EC018E819F810E9465
:103C900011301F821E82DF91CF910895FF920F9302
:103CA0001F93CF93DF93EC01F62E8C01015E1F4F23
:103CB000C80154DEEF2DF0E0EE0FFF1FE65DFD4F73
:103CC00020E040816181CE010E94BA1185EA92E034
:103CD0009983888369EC72E0CE0182599F4F0E94DC
:103CE0001E2A1DA21BA21CA288A1FE01EA58FF4F9A
:103CF00080838F8D31968083C80140DE91E08530CE
:103D000009F090E09BA3DF91CF911F910F91FF905D
:103D10000895CF92DF92EF92FF92CF93DF93EC0161
:103D20006A017B0160E472E48FE090E0A7019601F4
:103D30000E943A2F3FA32EA38BA1882369F026E08F
:103D4000B701A60188EB97E0DF91CF91FF90EF904C
:103D5000DF90CF900C945027B701A601CE01DF91E0
:103D6000CF91FF90EF90DF90CF900C94E811FC0181
:103D700023A1222321F088EB97E00C94B0270C9428
:103D8000A012CF92DF92EF92FF920F931F93CF93E7
:103D9000DF93FC01C6A1D7A123976C01F6E7CF0EF4
:103DA000D11CF60180811AD7892BD9F400E010E0EC
:103DB000E12CF12CCE01FAD4F60180810FD7002E30
:103DC00002C0880F991F0A94E2F7E82AF92A0F5FC8
:103DD0001F4F0830110571F7CE01E8D4C7019927AC
:103DE00002C08FEF9FEFDF91CF911F910F91FF9056
:103DF000EF90DF90CF900895FC0123A1222319F0CA
:103E000088EB97E0E9C70C941410FC0124A122234D
:103E100049F020A531A54FEF5FEF51A740A737FF2D
:103E20000AC0AFCFFC0123A1222319F088EB97E051
:103E300042C70C94F30FC9010895CF93DF93EC01AF
:103E40008CA1882369F0CE019CDF88A799A7892FD0
:103E50008095881F8827881F90E0DF91CF91089573
:103E60008BA1882329F088EB97E0DF91CF910AC7D7
:103E7000CE01DF91CF910C948010CF93DF93EC01B2
:103E80008E81813011F460E001C061E08A8171D6D9
:103E900061E08B816ED681E090E088D460E08B8118
:103EA000DF91CF9166C6CF93DF93EC0160E002967D
:103EB00055DD85EB92E099838883DF91CF9108955A
:103EC000CF93DF93EC01029649DD85EB92E0998375
:103ED00088831F82188619861A861B861C861D8673
:103EE0001E861F8A188E198E1A8E18D46F8F78A38B
:103EF00089A39AA31F86188A198A1A8A81E08E8359
:103F00001F82188619861A861B861C861D861E86A9
:103F10001BA21CA21DA21EA21B8E1C8E1D8E1E8EFD
:103F200061E08A81EDD561E08B81DF91CF91E8C5B9
:103F30000F931F93CF93DF93EC014B8D5C8D6D8DB1
:103F40007E8D452B462B472B11F480E033C0E6D302
:103F50000F8D18A129A13AA1601B710B820B930B45
:103F60000B8D1C8D2D8D3E8D0617170728073907E1
:103F700060F78E814F81588569857A85813029F473
:103F80004F5F5F4F6F4F7F4F04C041505109610930
:103F900071094F83588769877A87E881F981019091
:103FA000F081E02DCE011995B9D36F8F78A389A345
:103FB0009AA381E0DF91CF911F910F9108952F92E5
:103FC0003F924F925F926F927F928F929F92AF92A9
:103FD000BF92CF92DF92EF92FF920F931F93CF93F6
:103FE000DF9300D000D0CDB7DEB79E838D83FC0178
:103FF000C384D484E584F68487819085A185B285C5
:10400000C81AD90AEA0AFB0A6785708981899289E8
:104010009B01AC010E94412D4B015C01ED81FE81B1
:104020006789708D818D928D9B01AC010E94642AFD
:104030009B01AC01C501B4010E942E2B0E94962B5E
:10404000C114D104E104F104A9F4623071058105C1
:1040500091050CF082C0ED81FE81138E148E158EB9
:10406000168E1786108A118A128A13A214A215A21C
:1040700016A20AC1ED81FE8103A114A125A136A1DA
:104080001C141D041E041F040CF510161106120644
:1040900013064CF46C157D058E059F056CF5268185
:1040A00021115BC029C0011511052105310509F455
:1040B00054C06C157D058E059F050CF04EC0ED813A
:1040C000FE818681813009F048C03CC0101611067F
:1040D000120613060CF50027112798010C191D096B
:1040E0002E093F0960177107820793072CF4ED81B1
:1040F000FE812681213089F59B01AC018827992713
:10410000DC01821B930BA40BB50BED81FE8183A315
:1041100094A3A5A3B6A321C001151105210531055E
:10412000E1F08824992454018C189D08AE08BF083A
:10413000681579058A059B0584F4ED81FE818681E9
:1041400081110BC030952095109501951F4F2F4F71
:104150003F4F03A314A325A336A3ED81FE8183A0C3
:1041600094A0A5A0B6A081149104A104B10499F46F
:1041700087A190A5A1A5B2A583A794A7A5A7B6A737
:1041800081E01C141D041E041F040CF080E0ED816E
:10419000FE81868342C0ED81FE81C3A4D4A4E5A440
:1041A000F6A4A7019601C701B6010E94642A2B015B
:1041B0003C01C501B4010E94C92B20E030E040E879
:1041C00050E40E94412D20E030E040E85FE30E948F
:1041D000642A9B01AC01C301B2010E942E2B9B01FA
:1041E000AC01C701B6010E94632A1B012C01ED81BD
:1041F000FE8167A470A801A912A99301A8010E94D9
:10420000F12C181614F431018201A301B801ED81DB
:10421000FE8143A754A765A776A7FFEF8F1A9F0AD1
:10422000AF0ABF0AED81FE8183A294A2A5A2B6A225
:1042300023A534A545A556A5CA01B90129833A830A
:104240004B835C830E949B2BED81FE81638F748F77
:10425000858F968F29813A814B815C8160E074E281
:1042600084E799E40E942E2BED81FE816787708B95
:10427000818B928B2681211107C0DC01CB01B058C4
:104280008787908BA18BB28B26960FB6F894DEBFF2
:104290000FBECDBFDF91CF911F910F91FF90EF9097
:1042A000DF90CF90BF90AF909F908F907F906F9056
:1042B0005F904F903F902F9008950F931F93FC01B4
:1042C00003851485258536850417150726073707C6
:1042D00039F043875487658776871F910F916FCE9A
:1042E0001F910F910895CF92DF92EF92FF92CF939B
:1042F000DF93EC016A017B019A01AB016B897C8938
:104300008D899E890E942A2B882309F43FC0CB8A7D
:10431000DC8AED8AFE8AA701960160E074E284E7F8
:1043200099E40E942E2B6FA778AB89AB9AAB8BA137
:104330009CA1ADA1BEA1181619061A061B0634F5DC
:104340006F85788989899A899B01AC010E94412DEA
:104350006B017C016F89788D898D9A8D9B01AC01F1
:104360000E94642A9B01AC01C701B6010E942E2B5A
:104370000E94962B6BA37CA38DA39EA3CE01DF91FD
:10438000CF91FF90EF90DF90CF9019CEDF91CF913A
:10439000FF90EF90DF90CF9008956F927F928F9271
:1043A0009F92AF92BF92CF92DF92EF92FF920F93C4
:1043B0001F93CF93DF93EC013A018B012F8538894E
:1043C00049895A89B301C8010E942A2B882309F41C
:1043D0004FC0CB88DC88ED88FE8846015701B7FACC
:1043E000B094B7F8B094A5019401B301C8010E943C
:1043F0002A2B87FD0BC0A7019601B301C8010E94BB
:10440000F12C18162CF43601870102C03401850105
:1044100020E030E0A901B301C8010E942A2B8111DC
:1044200005C01B8E1C8E1D8E1E8E1CC09301A80104
:1044300060E074E284E799E40E942E2B9F770E944B
:104440009B2B6B8F7C8F8D8F9E8FFF24F39420E0AE
:1044500030E0A901B301C8010E94F12C18160CF03C
:10446000F12CFE82C301D8018F87988BA98BBA8B60
:10447000DF91CF911F910F91FF90EF90DF90CF9040
:10448000BF90AF909F908F907F906F9008950F9303
:104490001F93FC010385148525853685478150854A
:1044A00061857285041715072607370769F04017DD
:1044B0005107620773071CF421E0268302C0FC0148
:1044C00016821F910F9134CD80E01F910F910895B6
:1044D000CF93DF93EC0139DACE010496DF91CF91CF
:1044E000FBC81F93CF93DF93EC01142FA8DA12308F
:1044F00011F4698101C06881CE010496DF91CF91EA
:104500001F91EBC8CF92DF92EF92FF920F931F9310
:10451000CF93DF93CDB7DEB72C970FB6F894DEBFFD
:104520000FBECDBF8C010C5F1F4FC80108D9C80159
:1045300009DA40E064E4C801A1D9E4D06B017C0150
:10454000C801E1D881110AC0DDD06C197D098E093E
:104550009F096E3E72408105910590F3C801EFD826
:10456000C801F0D940E06EEBC80188D9CE010196B0
:104570007C016E0196E0C90ED11CC801C8D9F701B3
:1045800081937F01EC15FD05C1F76A8170E0762FFC
:1045900066278981682B882777FD8095982F0E9450
:1045A000C92B20E030E040E85DE30E94412D2C96CD
:1045B0000FB6F894DEBF0FBECDBFDF91CF911F9134
:1045C0000F91FF90EF90DF90CF90089560E0C6C903
:1045D000CF92DF92EF92FF92CF93DF9300D01F92A2
:1045E000CDB7DEB77C019A01AB0160E029833A8345
:1045F0004B835C83FBD982E090E0D8D061E0C701B7
:10460000F5D98AE090E0D2D060E0C701EFD960E050
:10461000F701818175D229813A814B815C8161E00A
:10462000F701818103D36B017C0184E690E0BED069
:10463000C701B6010F900F900F900F90DF91CF91AF
:10464000FF90EF90DF90CF90089527E3269FA00181
:10465000279F500D112448535F4F60E070E0B8DF92
:104660000E94C92B20E030E048E652E4F7C70895E5
:104670001F920F920FB60F9211242F933F938F9397
:104680009F93AF93BF938091B0079091B107A09192
:10469000B207B091B3073091AF0723E0230F2D3756
:1046A00020F40196A11DB11D05C026E8230F029636
:1046B000A11DB11D2093AF078093B0079093B10760
:1046C000A093B207B093B3078091B4079091B50758
:1046D000A091B607B091B7070196A11DB11D8093B7
:1046E000B4079093B507A093B607B093B707BF91EF
:1046F000AF919F918F913F912F910F900FBE0F908F
:104700001F9018952FB7F8946091B0077091B1077A
:104710008091B2079091B3072FBF08953FB7F894E7
:104720008091B4079091B507A091B607B091B707F3
:1047300026B5A89B05C02F3F19F00196A11DB11DFC
:104740003FBF6627782F892F9A2F620F711D811D19
:10475000911D42E0660F771F881F991F4A95D1F778
:104760000895CF92DF92EF92FF92CF93DF936B0188
:104770007C01D4DFEB01C114D104E104F10479F030
:10478000A1D6CCDF6C1B7D0B683E7340A0F381E0AB
:10479000C81AD108E108F108C851DC4FECCFDF910D
:1047A000CF91FF90EF90DF90CF90089582309105E8
:1047B00038F0880F991F880F991F05970197F1F717
:1047C0000895789484B5826084BD84B5816084BD89
:1047D00085B5826085BD85B5816085BDEEE6F0E07A
:1047E000808181608083E1E8F0E0108280818260D6
:1047F0008083808181608083E0E8F0E08081816057
:104800008083E1EBF0E0808184608083E0EBF0E086
:10481000808181608083E1E9F0E080818260808333
:10482000808181608083E0E9F0E080818160808325
:10483000E1EAF0E080818260808380818160808312
:10484000E0EAF0E0808181608083E1E2F1E0808154
:1048500082608083808181608083E0E2F1E08081FA
:1048600081608083EAE7F0E08081846080838081DA
:104870008260808380818160808380818068808382
:104880001092C1000895863308F0865320917B0072
:10489000982F9870277F922B90937B0087702091A0
:1048A000480290E4299F90011124822B80937C0080
:1048B00080917A00806480937A0080917A0086FDEE
:1048C000FCCF809178002091790090E0922B0895A0
:1048D0001F93CF93DF93182FEB0161E011D1209745
:1048E00011F460E004C0CF3FD10531F461E0812FC5
:1048F000DF91CF911F913DC1E12FF0E0EC59FD4FC9
:10490000449150E0FA013197E231F10508F09BC083
:10491000EB55FF4F0C94562F84B5806884BDC7BDFE
:1049200097C084B5806284BDC8BD92C0809180006C
:10493000806880938000D0938900C093880088C0ED
:1049400080918000806280938000D0938B00C09320
:104950008A007EC080918000886080938000D09320
:104960008D00C0938C0074C08091B00080688093EB
:10497000B000C093B3006CC08091B000806280939F
:10498000B000C093B40064C08091900080688093B0
:104990009000D0939900C09398005AC080919000E5
:1049A000806280939000D0939B00C0939A0050C087
:1049B00080919000886080939000D0939D00C09378
:1049C0009C0046C08091A00080688093A0008091E8
:1049D000A0008F7B8093A000D093A900C093A80073
:1049E00037C08091A00080628093A000D093AB007C
:1049F000C093AA002DC08091A00088608093A00081
:104A0000D093AD00C093AC0023C08091200180689A
:104A100080932001D0932901C093280119C080916F
:104A20002001806280932001D0932B01C0932A0142
:104A30000FC080912001886080932001D0932D01C8
:104A4000C0932C0105C0C038D1050CF04FCF49CF21
:104A5000DF91CF911F91089590E0FC013197E231F1
:104A6000F10508F04CC0E954FF4F0C94562F80918B
:104A700080008F7703C0809180008F7D80938000BD
:104A8000089580918000877FF9CF84B58F7702C029
:104A900084B58F7D84BD08958091B0008F7703C069
:104AA0008091B0008F7D8093B00008958091900038
:104AB0008F7707C0809190008F7D03C08091900018
:104AC000877F8093900008958091A0008F7707C022
:104AD0008091A0008F7D03C08091A000877F80938C
:104AE000A0000895809120018F7707C08091200158
:104AF0008F7D03C080912001877F809320010895DE
:104B0000CF93DF9390E0FC01E655FD4F2491FC012B
:104B1000E051FD4F8491882349F190E0880F991F5F
:104B2000FC01E659FC4FA591B491805B9C4FFC01C0
:104B3000C591D4919FB7611108C0F8948C912095CC
:104B400082238C93888182230AC0623051F4F894C6
:104B50008C91322F309583238C938881822B88838C
:104B600004C0F8948C91822B8C939FBFDF91CF91DE
:104B700008950F931F93CF93DF931F92CDB7DEB7A6
:104B8000282F30E0F901EC59FD4F8491F901E655E9
:104B9000FD4F1491F901E051FD4F04910023C1F044
:104BA000882319F0698358DF6981E02FF0E0EE0F68
:104BB000FF1FE05BFC4FA591B4919FB7F8948C91D7
:104BC000611103C01095812301C0812B8C939FBF7D
:104BD0000F90DF91CF911F910F910895CF93DF93A5
:104BE000282F30E0F901EC59FD4F8491F901E65589
:104BF000FD4FD491F901E051FD4FC491CC2389F0D0
:104C000081112ADFEC2FF0E0EE0FFF1FEA5CFC4F72
:104C1000A591B4912C912D2381E090E021F480E0C6
:104C200002C080E090E0DF91CF9108950F931F9331
:104C3000762F90E0FC01E655FD4F6491FC01E051B8
:104C4000FD4FE4917111762FF0E0EE0FFF1FEA5C4B
:104C5000FC4F8591949189019A013F70472F0E94E2
:104C6000FB01611571058105910531F06F5F7F4F83
:104C70008F4F9F4F9F7003C060E070E0CB011F918A
:104C80000F910895FC01818D228D90E0805C9F4FF3
:104C9000821B91098F7399270895FC01918D828D54
:104CA000981731F0828DE80FF11D858D90E0089501
:104CB0008FEF9FEF0895FC01918D828D981761F021
:104CC000828DDF01A80FB11D5D968C91928D9F5F43
:104CD0009F73928F90E008958FEF9FEF08958BE27E
:104CE00098E2892B39F080E090E0892B19F0B3D15C
:104CF000811124C086ED98E2892B39F080E090E0A4
:104D0000892B19F053D281111CC080E090E0892BCF
:104D100041F080E090E0892B21F00E940000811199
:104D200013C080E090E0892BA1F080E090E0892B17
:104D300081F00E94000081110AC008950E940000C5
:104D4000D9CF0E940000E1CF0E940000EACF0C946E
:104D500000000895FC01848DDF01A80FB11DA35A46
:104D6000BF4F2C91848D90E001968F739927848F8B
:104D7000A689B7892C93A089B1898C9180648C9382
:104D8000938D848D981306C00288F389E02D80816D
:104D90008F7D80830895CF93DF93EC01888D8823E6
:104DA000C1F0EA89FB89808185FD05C0A889B989A0
:104DB0008C9186FD0EC00FB607FCF5CF808185FF74
:104DC000F2CFA889B9898C9185FFEDCFCE01C2DFE2
:104DD000E8CFDF91CF910895CF92DF92FF920F93AA
:104DE0001F93CF93DF931F92CDB7DEB76C0181E0A5
:104DF000D60158968C9358975B969C915B975C96DE
:104E00008C915C97981307C05096ED91FC91519747
:104E1000808185FD2DC0F601038D10E00F5F1F4FCF
:104E20000F731127F02EF601848DF81210C00FB603
:104E300007FCF9CFD6015096ED91FC9151978081F6
:104E400085FFF1CFC601698385DF6981ECCF838D52
:104E5000E80FF11DE35AFF4F6083D6015B960C9378
:104E60005B975296ED91FC915397808180620CC0C4
:104E7000D6015696ED91FC91579760835096ED912F
:104E8000FC91519780818064808381E090E00F9055
:104E9000DF91CF911F910F91FF90DF90CF900895F8
:104EA000BF92CF92DF92EF92FF92CF93DF93EC010C
:104EB0006A017B01B22EE889F98982E0808341157D
:104EC00081EE58076105710599F060E079E08DE3A6
:104ED00090E0A7019601ACD7215031094109510951
:104EE0005695479537952795211580E1380790F01D
:104EF000E889F989108260E874E88EE190E0A70102
:104F0000960196D721503109410951095695479587
:104F100037952795EC85FD853083EE85FF852083C9
:104F2000188EEC89FD89B082EA89FB8980818061D5
:104F30008083EA89FB89808188608083EA89FB8994
:104F4000808180688083EA89FB8980818F7D80836E
:104F5000DF91CF91FF90EF90DF90CF90BF900895B9
:104F6000FC01938D848D9813FCCFA289B3898C9119
:104F70008F7E8C93A289B3898C91877F8C93A28931
:104F8000B3898C918F778C93A289B3898C918F7D13
:104F90008C93828D818F08951F920F920FB60F927E
:104FA00011240BB60F922F938F939F93EF93FF9340
:104FB000E091C807F091C9078081E091CE07F09198
:104FC000CF0782FD12C090818091D1078F5F8F73D0
:104FD0002091D207821751F0E091D107F0E0E85418
:104FE000F84F958F8093D10701C08081FF91EF9199
:104FF0009F918F912F910F900BBE0F900FBE0F902E
:105000001F9018951F920F920FB60F9211240BB696
:105010000F922F933F934F935F936F937F938F9351
:105020009F93AF93BF93EF93FF9388EB97E092DE4C
:10503000FF91EF91BF91AF919F918F917F916F9170
:105040005F914F913F912F910F900BBE0F900FBE2C
:105050000F901F90189588EB97E014DE21E0892BC4
:1050600009F420E0822F08951092BB071092BA072E
:1050700088EE93E0A0E0B0E08093BC079093BD077A
:10508000A093BE07B093BF078BEB92E09093B90754
:105090008093B80785EC90E09093C5078093C40790
:1050A00084EC90E09093C7078093C60780EC90E073
:1050B0009093C9078093C80781EC90E09093CB0749
:1050C0008093CA0782EC90E09093CD078093CC0741
:1050D00086EC90E09093CF078093CE071092D10793
:1050E0001092D2071092D3071092D40708951F92FE
:1050F0000F920FB60F9211240BB60F922F938F932E
:105100009F93EF93FF93E0916508F091660880818B
:10511000E0916B08F0916C0882FD12C09081809143
:105120006E088F5F8F7320916F08821751F0E091A6
:105130006E08F0E0EB5AF74F958F80936E0801C030
:105140008081FF91EF919F918F912F910F900BBED6
:105150000F900FBE0F901F9018951F920F920FB6D1
:105160000F9211240BB60F922F933F934F935F939F
:105170006F937F938F939F93AF93BF93EF93FF931F
:1051800085E598E0E7DDFF91EF91BF91AF919F91A9
:105190008F917F916F915F914F913F912F910F90E0
:1051A0000BBE0F900FBE0F901F90189585E598E0ED
:1051B00069DD21E0892B09F420E0822F0895109207
:1051C00058081092570888EE93E0A0E0B0E0809372
:1051D000590890935A08A0935B08B0935C088BEB36
:1051E00092E090935608809355088DEC90E0909350
:1051F0006208809361088CEC90E09093640880933F
:10520000630888EC90E0909366088093650889ECC9
:1052100090E090936808809367088AEC90E0909300
:105220006A08809369088EEC90E090936C088093F4
:105230006B0810926E0810926F081092700810920E
:10524000710808950895BDDAFDDF0E944002CFE69F
:10525000D6E20E94CB092097E1F341DDFACF49C69F
:10526000E0C6CF92DF92EF92FF920F931F93CF93FE
:10527000DF936C017A01EB01E60EF71E00E010E00F
:10528000CE15DF0561F06991D601ED91FC91019099
:10529000F081E02DC6011995080F191FF1CFC80143
:1052A000DF91CF911F910F91FF90EF90DF90CF9002
:1052B00008956115710581F0DB010D900020E9F77B
:1052C000AD0141505109461B570BDC01ED91FC919A
:1052D0000280F381E02D199480E090E0089567EC5E
:1052E00072E0E7CF4F925F926F927F92AF92BF9240
:1052F000CF92DF92EF92FF920F931F93CF93DF93A2
:10530000CDB7DEB729013A01621B730B840B950BF5
:105310002A893B894C895D892A193B094C095D0919
:105320002A8B3B8B4C8B5D8B9B01AC016A897B8903
:105330008C899D893BD5E418F50806091709A80151
:10534000970198D52A0D3B1D4C1D5D1DCA01B90161
:10535000DF91CF911F910F91FF90EF90DF90CF9051
:10536000BF90AF907F906F905F904F900895FC0139
:105370008081918156C6CF93DF93EC01888199811A
:10538000009709F04ED6198218821D821C821B825A
:105390001A82DF91CF9108950F931F93CF93DF93DC
:1053A000EC018B016F5F7F4F88819981C9D600978F
:1053B00031F0998388831B830A8381E001C080E0F8
:1053C000DF91CF911F910F910895CF93DF93EC015F
:1053D00088819981892B29F08A819B81861797077B
:1053E00058F4CE01D9DF882341F08C819D81892B2F
:1053F00019F4E881F981108281E0DF91CF9108955D
:10540000EF92FF920F931F93CF93DF93EC017B01F9
:105410008A01BA01DADF811103C0CE01ACDF06C018
:105420001D830C83B7018881998177D7CE01DF91E5
:10543000CF911F910F91FF90EF900895FC01118281
:10544000108213821282158214826115710551F047
:10545000FB0101900020E9F7AF0141505109461BC3
:10546000570BCECF0895CF93DF93EC01FB01861746
:10547000970751F0608171816115710521F04481B8
:105480005581BEDF01C077DFCE01DF91CF91089556
:10549000FC01118210821382128215821482E3CFE2
:1054A000FC01248135816217730748F48081918162
:1054B000009729F0FC01E60FF71F8081089580E036
:1054C0000895EECF08955058BB27AA270ED038C2B2
:1054D00029D230F02ED220F031F49F3F11F41EF487
:1054E000F9C10EF4E095E7FBC6C1E92F3AD280F38B
:1054F000BA17620773078407950718F071F49EF5D1
:1055000069C20EF4E0950B2EBA2FA02D0B01B90144
:1055100090010C01CA01A0011124FF27591B99F029
:10552000593F50F4503E68F11A16F040A22F232F35
:10553000342F4427585FF3CF469537952795A79585
:10554000F0405395C9F77EF41F16BA0B620B730B2C
:10555000840BBAF09150A1F0FF0FBB1F661F771F9D
:10556000881FC2F70EC0BA0F621F731F841F48F452
:10557000879577956795B795F7959E3F08F0B3CFD8
:105580009395880F08F09927EE0F979587950895C2
:10559000C9D158F080E891E009F49EEFCAD128F013
:1055A00040E851E059F45EEF09C094C113C2E92FFD
:1055B000E078D7D168F3092E052AC1F326173707FB
:1055C0004807590738F00E2E07F8E02569F0E02566
:1055D000E0640AC0EF6307F8009407FADB01B90141
:1055E0009D01DC01CA01AD01EF9347D0A9D10AD0DA
:1055F0005F91552331F02BED3FE049E450FD49EC3C
:1056000063CF0895DF93DD27B92FBF7740E85FE3CD
:105610001616170648075B0710F4D92FE6D19F939B
:105620008F937F936F931ED3E2E9F1E056D188D137
:105630002F913F914F915F9130D2DD2349F09058E7
:10564000A2EA2AED3FE049EC5FE3D0785D274DDF29
:10565000DF9176C1ECD008F481E008950CD070C1E0
:1056600068D140F05FD130F021F45F3F19F003C101
:105670005111B1C12FC175D198F39923C9F35523A5
:10568000B1F3951B550BBB27AA2762177307840735
:1056900038F09F5F5F4F220F331F441FAA1FA9F3EB
:1056A00033D00E2E3AF0E0E830D091505040E695DD
:1056B000001CCAF729D0FE2F27D0660F771F881F3E
:1056C000BB1F261737074807AB07B0E809F0BB0B2D
:1056D000802DBF01FF2793585F4F2AF09E3F510551
:1056E00068F0C9C078C15F3FECF3983EDCF3869563
:1056F00077956795B795F7959F5FC9F7880F911DC7
:105700009695879597F90895E1E0660F771F881FB2
:10571000BB1F621773078407BA0720F0621B730B65
:10572000840BBA0BEE1F88F7E095089504D06894B7
:10573000B11151C108951DD188F09F5790F0B92F34
:105740009927B751A0F0D1F0660F771F881F991FD6
:105750001AF0BA95C9F712C0B13081F03BD1B1E06F
:10576000089538C1672F782F8827B85F39F0B93F7F
:10577000CCF3869577956795B395D9F73EF49095D8
:105780008095709561957F4F8F4F9F4F0895E89456
:1057900009C097FB3EF490958095709561957F4F79
:1057A0008F4F9F4F9923A9F0F92F96E9BB27939527
:1057B000F695879577956795B795F111F8CFFAF437
:1057C000BB0F11F460FF1BC06F5F7F4F8F4F9F4F68
:1057D00016C0882311F096E911C0772321F09EE8C6
:1057E000872F762F05C0662371F096E8862F70E02C
:1057F00060E02AF09A95660F771F881FDAF7880F06
:105800009695879597F90895CED080F09F3740F40C
:1058100091110EF0E0C060E070E080E89FEB089529
:1058200026F41B16611D711D811D2BC045C0990FEB
:105830000008550FAA0BE0E8FEEF16161706E8075A
:10584000F907C0F012161306E407F50798F0621B7B
:10585000730B840B950B39F40A2661F0232B242B50
:10586000252B21F408950A2609F4A140A6958FEF6F
:10587000811D811D089597F99F6780E870E060E0C1
:105880000895882371F4772321F09850872B762F81
:1058900007C0662311F499270DC09051862B70E044
:1058A00060E02AF09A95660F771F881FDAF7880F55
:1058B0009695879597F908959F3F31F0915020F480
:1058C000879577956795B795880F911D96958795DC
:1058D00097F908959FEF80EC0895DF93CF931F937E
:1058E0000F93FF92EF92DF927B018C01689405C0C9
:1058F000DA2EEF01D2D0FE01E894A59125913591E1
:1059000045915591AEF3EF01F0DDFE019701A8013D
:10591000DA9479F7DF90EF90FF900F911F91CF917C
:10592000DF91089500240A94161617061806090632
:10593000089500240A941216130614060506089505
:10594000092E0394000C11F4882352F0BB0F40F48D
:10595000BF2B11F460FF04C06F5F7F4F8F4F9F4FCD
:10596000089557FD9058440F551F59F05F3F71F04F
:105970004795880F97FB991F61F09F3F79F08795B6
:105980000895121613061406551FF2CF4695F1DF3F
:1059900008C0161617061806991FF1CF86957105CF
:1059A000610508940895E5DFA0F0BEE7B91788F413
:1059B000BB279F3860F41616B11D672F782F8827F4
:1059C000985FF7CF869577956795B11D9395963932
:1059D000C8F30895E894BB2766277727CB0197F98A
:1059E000089525DF08F48FEF08959B01AC0160E076
:1059F00070E080E89FE332CE0EF05ECF6BCF68940C
:105A00003ACFB7DFC8F39923D1F3C6F3DF93CF932F
:105A10001F930F93FF92C92FDD2788232AF0219728
:105A2000660F771F881FDAF720E030E040E85FEB71
:105A30009FE3883920F0803E30F021968F7744DD57
:105A4000EFEBF1E003C040DDECEEF1E046DF8B016F
:105A5000BE01EC01FB2E6F5771097595771F880BFE
:105A6000990B97DE28E132E741E35FE316D0AF2DD3
:105A70009801AE01FF900F911F91CF91DF9135DD1D
:105A80005FCF0BD05DCF4EDF28F053DF18F09523AA
:105A900009F0F1CE1FCF11249ECF63DFA0F3959FB5
:105AA000D1F3950F50E0551F629FF001729FBB2705
:105AB000F00DB11D639FAA27F00DB11DAA1F649FB1
:105AC0006627B00DA11D661F829F2227B00DA11D64
:105AD000621F739FB00DA11D621F839FA00D611DEA
