:100000000C941D020C9445020C9445020C9445027C
:100010000C9445020C9445020C9445020C94F41C7B
:100020000C9445020C9445020C9445020C94820AEF
:100030000C9445020C9445020C9445020C94450224
:100040000C9469270C9445020C94FE2A0C94302BD6
:100050000C9445020C9445020C9445020C94450204
:100060000C94250E0C944502FE081E073207480723
:1000700048076107F1084807430943094309430951
:10008000430976079207CA074309DE07BF074309FA
:1000900043090F0843098608A208C50862084309F6
:1000A000430943090D091509430943094309480850
:1000B00043094309430943094309430943094309E0
:1000C0004309430943094309430943092A09084AE3
:1000D000D73B3BCE016E84BCBFFDC12F3D6C74315C
:1000E0009ABD56833DDA3D00C77F11BED9E4BB4CB3
:1000F0003E916BAAAABE000000803F08000000BE2F
:10010000922449123EABAAAA2ABECDCCCC4C3E00CA
:10011000000080BEABAAAAAA3E00000000BF0000FB
:1001200000803F0000000000084178D3BB4387D126
:10013000133D190E3CC3BD4282AD2B3E68EC827666
:10014000BED98FE1A93E4C80EFFFBE01C4FF7F3FC7
:10015000000000000007634236B79BD8A71A396831
:100160005618AEBAAB558C1D3CB7CC5763BD6DED80
:10017000FD753EF6177231BF000000803F000E0093
:100180000F001000110012001300140015003F06AC
:100190005B4F666D7D077F6F777C395E7971BF86B7
:1001A000DBCFE6EDFD87FFEFF7FCB9DEF9F10040AC
:1001B0007C447C00007C5C547454547C70107C74CF
:1001C000545C7C545C40407C7C547C74547C2000A7
:1001D000000000000030007C82827C00310042FE82
:1001E0000200003200468A92620033004492926C10
:1001F0000034001C64FE04003500F292928C00363C
:10020000007C92924C003700C08E90E00038006C69
:1002100092926C0039006492927C006100042A2A58
:100220001E006200FE12120C0063000C121212007B
:1002300064000C1212FE0065001C2A2A18006600D9
:10024000103E50500067000815151E006800FE1093
:100250001E00006900002E0000006A0002012E004E
:10026000006B00FE081412006C0000FE0200006D1E
:10027000001E100E100E6E001E10100E006F000CEF
:1002800012120C0070001F12120C0071000C1212DE
:100290001F0072001E0810100073001229251200A2
:1002A0007400103E12000075001C02021E00761839
:1002B00004020418007718061C0618007800120CB7
:1002C0000C120079001805051E007A0012161A1289
:1002D0000041007E88887E004200FE92926C0043BE
:1002E000007C828244004400FE82827C004500FE45
:1002F000929282004600FE9090800047007C82929D
:100300005C004800FE1010FE00490082FE820000E2
:100310004A000C0202FC004B00FE1028C6004C00F4
:10032000FE020202004D00FE403040FE4E00FE4044
:100330003008FE4F007C8282827C5000FE909060EC
:100340000051007C828A847A5200FE9894620053A5
:10035000006492924C00540080FE8080005500FCA6
:100360000202FC005600F00C020CF05700FE0438AC
:1003700004FE5800C63838C60059C0201E20C000F0
:100380005A00869AB2C2002C00010E0C00002E000A
:100390000006060000257254781E2A4E2100007ABD
:1003A0000000003F00204A3000002D001010101007
:1003B000002B08083E0808002F00020C3040002ADD
:1003C0002214081422003A0000140000004000002B
:1003D0000000000000000008000201000003040704
:1003E000000000000000000001020408102040800E
:1003F000010204081020010204081020040404046F
:1004000004040404020202020202030303030303BE
:100410000000000023002600290000000000250045
:1004200028002B0000000000240027002A00C0053F
:10043000430DF617602B1806FA1711241FBECFEFD5
:10044000D8E0DEBFCDBF12E0A0E0B1E0ECE9FDE610
:1004500002C005900D92A63AB107D9F727E0A6EAA7
:10046000B2E001C01D92A439B207E1F714E0C6E37F
:10047000D4E004C02297FE010E942834CE32D10776
:10048000C9F70E94A42B0C94C1360C940000CF92A3
:10049000DF92EF92FF920F931F93E82FF92F05C081
:1004A000015011092109310961F1908196239417B6
:1004B000B9F305C0015011092109310911F19081E9
:1004C00096239413F7CFC12CD12CE12CF12C0AC028
:1004D0008FEFC81AD80AE80AF80A0C151D052E0570
:1004E0003F0579F080818623841791F36C2D7D2D53
:1004F0008E2D9F2D1F910F91FF90EF90DF90CF9049
:10050000089560E070E080E090E01F910F91FF900F
:10051000EF90DF90CF90089585EE93E00C94E41176
:1005200061E08DE00E94F52861E08DE00E942E29B7
:100530006CE271E080E090E00E94E22760E08DE0F4
:100540000E942E2926E040E052EC61E070E08DEE42
:1005500096E00E949C2A64EF71E080E090E00E94A7
:10056000E22722E330E040E050E064EF71E085EE06
:1005700093E00E94811162E370E080E090E00E94CD
:10058000E2270E948C0281EC93E00E94A91D6DE09D
:100590008DE294E00E94682520E040E060E08DE27A
:1005A00094E00E9433268DE294E00E94602680E869
:1005B00093E00E94911B69E271E08DEE96E00E944B
:1005C000FF2B6EE273E08DEE96E00C940C2C8DEE1A
:1005D00096E00C94082CFC01E750FD4F808180933D
:1005E00034038181809335038091340390913503E6
:1005F0000895AEE3B3E0FC01E750FD4F80818C939A
:10060000818180933F038281809340038381809323
:1006100041036D917D918D919C910895E6EBF2E0FF
:1006200020E030E087509D4F2617370744F4DC0167
:10063000A20FB31F4C9141932F5F3F4FF5CFFB01AA
:10064000EA54FD4F108286EB92E00895E6EAF2E06C
:1006500020E030E087509D4F261737075CF42031AB
:10066000310541F0DC01A20FB31F4C9141932F5F84
:100670003F4FF2CF86EA92E00895E5EEF2E020E007
:1006800030E0419151914817590791F0452B41F4C1
:10069000F901EE0FFF1FEB51FD4F9183808308C0DE
:1006A0002F5F3F4F2830310561F780E090E00895DB
:1006B000C9010895BF92CF92DF92EF92FF920F93FC
:1006C0001F93CF93DF93CDB7DEB72E970FB6F89475
:1006D000DEBF0FBECDBFD090FF020D2D10E08D30DC
:1006E000910509F47EC184F58830910509F461C053
:1006F00014F58330910509F45FC1059709F030C204
:1007000086E090E00E94EB028C0169E08DE494E0C9
:100710000E94F724B8018DE494E00E94CD1788E090
:1007200090E00E94EB028C016AE08DE494E00E946C
:10073000F724B80139C08A30910519F10CF484C04E
:100740000B9709F45CC00CC28132910509F4DBC13E
:1007500064F48E31910509F4A4C18032910509F445
:10076000AAC1449709F0FCC178C18932910509F406
:1007700083C08233910509F4E1C1829709F0F0C189
:10078000A6C187E090E00E94EB027C018DE494E03A
:100790000E94A32490E08017910729F06D2D8DE42D
:1007A00094E00E94F724B7018DE494E00E94CD17F5
:1007B000D7C1E090010310910203F0900303009170
:1007C0000403409100036D2D8DE294E00E942025EA
:1007D000EE2049F06FEF6E0D2F2D412F8DE294E04A
:1007E0000E94E22507C0202F4F2D612F8DE294E05B
:1007F0000E9433268DE294E00E946026B1C1809170
:100800000003000F111FF801E65FFE4F813011F465
:10081000E08001C0E180D090010384EB8D1508F4E5
:100820009FC1F12CC7010E943D038C01000F111FD5
:10083000080F191F0D5A1B4FB701C8010E94D80B92
:100840006D2D70E0C80177C18EE194E00E94A32471
:1008500090E08017910729F06D2D8EE194E00E94C1
:10086000E81087E090E00E94F902AB01BC018EE144
:1008700094E00E940A1174C189EE93E00E94A324BF
:10088000282F30E02017310729F06D2D89EE93E0F5
:100890000E9418208091000390E08130910579F545
:1008A000D0900103B09002038AE090E00E94EB0236
:1008B0008C018CE090E00E94EB02C82E609107034F
:1008C00070E08FE090E00E940E037C0189EE93E0DF
:1008D0000E94F71F61E0B11001C060E089EE93E073
:1008E0000E9441206D2D89EE93E00E940D2097011A
:1008F0004C2DB80189EE93E00E943B2231C1823039
:10090000910579F5E0900103209102038AE090E0DF
:100910002D870E94EB02F82E8CE090E00E94EB0203
:10092000482FE09107036E2F70E08FE090E04E8734
:100930000E9426038C0189EE93E00E94F71F61E07C
:1009400089EE93E00E9441206E2D89EE93E00E9493
:100950000D202D854E856F2D89EE93E00E94442059
:10096000FFC0039709F0FCC0F0900103009102035F
:100970008AE090E00E94EB02182F8CE090E00E9449
:10098000EB02482F89EE93E04E870E94F71F61E04B
:1009900089EE93E00E9441206F2D89EE93E00E9442
:1009A0000D2021E04E85011101C020E0612F89EE6C
:1009B00093E00E947622D4C08AE194E00E94A324AE
:1009C000282F30E02017310729F06D2D8AE194E0BF
:1009D0000E94F72461E080910003811154C060E01F
:1009E00052C069E972E0CE0107960E94892E0091FB
:1009F000FB0210E0035011096FEFC62E62E0D62E05
:100A0000E12CF12CE016F1065CF4F60161916F0126
:100A1000CE0107960E94032FFFEFEF1AFF0AF2CFD5
:100A2000BE01695F7F4FCE0101960E94B62EBE01C6
:100A30006F5F7F4F81EC93E00E94091FCE0101960A
:100A40000E941B2E69E972E0CE0107960E94BF2E1C
:100A5000CE0107960E941B2E83C08AE194E00E947B
:100A6000A324282F30E02017310729F06D2D8AE1CB
:100A700094E00E94F72460910003862F90E082307A
:100A8000910534F461708AE194E00E94CB2468C03F
:100A900061E0029709F460E08AE194E00E94DB24BF
:100AA0005FC061E08D2D0E94F528609100038D2DBF
:100AB0000E942E2955C061E08D2D0E94F5282091BD
:100AC0000003622F70E08D2D0E946D2849C086E0E2
:100AD00090E00E94EB028C0188E090E00E94EB0223
:100AE000101611065CF49C01442737FD4095542FE5
:100AF000B80185EE93E00E94811132C085EE93E04B
:100B00000E94E4112DC0D090000384EB8D1540F1BC
:100B1000C8010E943D037C01EE0CFF1CE80EF91E8B
:100B2000F701ED5AFB4F7F01B801CF010E94D80BAE
:100B30006D2D70E0C7010E94110C12C00E94B327F6
:100B40000E948E3020E030E04AE754E40E94F52F06
:100B50006093D4027093D5028093D6029093D7020B
:100B60002E960FB6F894DEBF0FBECDBFDF91CF91AA
:100B70001F910F91FF90EF90DF90CF90BF9008955D
:100B8000CF93DF93C3E5D4E0CE010E943E0B2396C2
:100B900084E0CB36D807C1F78DE494E00E94CA17F1
:100BA0008AE394E00E9480264EE160E08DE294E0CA
:100BB0000E94B02588E294E00E940C278EE194E028
:100BC0000E94520F8AE194E00E948A2489EE93E009
:100BD0000E94C21F85EE93E00E947B1181EC93E09E
:100BE0000E94BC1D80E893E00E9428188CE793E0E7
:100BF0000E94481F85E593E00E94EE118EE493E089
:100C00000E94111C88E493E00E94FE1782E493E0A6
:100C10000E94131863E371E08EE293E00E94892E34
:100C200069E972E088ED92E0DF91CF910C94892E12
:100C300088ED92E00E941B2E8EE293E00E941B2E14
:100C40008BED93E00E941B2E85ED93E00E941B2EFE
:100C50008DE294E00C947426682F8DEE96E00C944F
:100C6000372A8FEF0E942C0685E50C942C068FEF17
:100C70000E942C0685E50E942C060C94E702CF9377
:100C8000C82F81E00E942C068C2FCF910C942C064B
:100C9000EF92FF920F931F93CF93DF937C01FC01A0
:100CA000C4810C2F158184E00E942C068C2F0E9499
:100CB0002C06C0E0D0E0C017D10744F4BE01C70144
:100CC0000E94272F0E942C062196F5CFDF91CF910D
:100CD0001F910F91FF90EF900895FF920F931F9334
:100CE000CF93DF931F92CDB7DEB78B01F82E82E052
:100CF00099830E942C06A8016F2D9981792F40932A
:100D00003E0350933F036093400370934103802F51
:100D10000E942C0680913F030E942C068091400384
:100D20000E942C06809141030F90DF91CF911F917B
:100D30000F91FF900C942C06CF92DF92EF92FF92CE
:100D40006B017C0183E00E942C06C701B6010E9462
:100D50005D30862F262F372F3093350320933403B1
:100D60000E942C06809135030E942C068091360348
:100D70000E942C0680913703FF90EF90DF90CF9078
:100D80000C942C06FF920F931F93CF93DF931F9227
:100D9000CDB7DEB78B01F82E85E099830E942C0633
:100DA000A8016F2D9981792F409336035093370313
:100DB0006093380370933903802F0E942C06809132
:100DC00037030E942C06809138030E942C068091E4
:100DD00039030E942C0680913A030E942C068091D0
:100DE0003B030E942C0680913C030E942C068091BC
:100DF0003D030F90DF91CF911F910F91FF900C94C5
:100E00002C06CF92DF92EF92FF920F931F93CF9316
:100E1000DF93CDB7DEB727970FB6F894DEBF0FBECE
:100E2000CDBFD090FF020D2D10E08333910508F067
:100E30002AC2FC01EC5CFF4F0C94263488E294E05B
:100E40000E94A32490E08017910729F06D2D88E27D
:100E500094E00E94F72460E573EC88E294E00E943D
:100E6000542700C2F09000038AE394E00E94A32478
:100E700090E08017910709F0F8C18AE394E00E949E
:100E8000A6248F11F2C18AE394E00E949E26EAC153
:100E90008AE194E00E94A32490E08017910761F01A
:100EA0006D2D8AE194E00E94F7248AE194E00E948B
:100EB0001D2560E00E94F5288AE194E00E94EF245D
:100EC000C1C1F09000038CE793E00E94A32490E05E
:100ED0008017910729F06D2D8CE793E00E94F7248D
:100EE0006F2D8CE793E00E944B1FACC18091DE0216
:100EF000882309F4C8C168ED72E0CE0101960E9412
:100F0000B62ECE0101960E944806CE0101960E949F
:100F10001B2E1092DE0269E972E088ED92E00E94D9
:100F2000BF2EB1C1109100030E94B3270E948E30E2
:100F300020E030E04AE754E40E94F52F2091CC02F3
:100F40003091CD024091CE025091CF020E942A2FC3
:100F50002DEC3CEC4CE45EE30E94B83118165CF0DA
:100F60004091DF02552747FD5095212F30E081E069
:100F70004217530709F080E00E943F0606C08091A7
:100F8000DF020E943F061092DF021092E1021092EF
:100F9000E00279C18AE194E00E94A32490E08017E6
:100FA000910709F469C06D2D8AE194E00E94F7244D
:100FB0008AE194E00E941D2560E05CC08AE194E033
:100FC0000E94A32490E08017910799F06D2D8AE18B
:100FD00094E00E94F7248AE194E00E941A2560E0E0
:100FE0000E94F5288AE194E00E941D2560E00E949D
:100FF000F52860E08AE194E00E94A924182F60E0BF
:101000008AE194E00E94BA24612F70E0660F771F96
:10101000680F711D882777FD8095982F18C1C090A3
:101020000003EC2CF12C8AE194E00E94A32490E0D0
:101030008017910709F020C18AE194E00E94A6245C
:1010400090E08E159F0509F017C1EA94EF2869F426
:101050008AE194E00E941A2562E00E94F52860E08F
:101060008AE194E00E94A9240CC08AE194E00E94E5
:101070001D2562E00E94F52860E08AE194E00E946C
:10108000BA24682F70E080E090E00E948E30EAC0C1
:10109000F801EE0FFF1FE258FE4F0491F09000039D
:1010A00060E0802F0E94F528802F0E94502811E0D8
:1010B0000B970CF010E0812F8F250E943F061093B4
:1010C000CB02E1C085E593E00E94A32490E0801765
:1010D0009107A9F06D2D85E593E00E94F72485E541
:1010E00093E00E941D25482F85E593E04F830E94E1
:1010F0001A254F81682F85E593E00E94AF1685E59C
:1011000093E00E94B8160E94C206BDC0F090000392
:101110008EE493E00E94A324282F30E020173107AB
:1011200029F06D2D8EE493E00E94F7248EE493E085
:101130000E94141C6F2D8EE493E00E94ED1C0E940F
:101140003F06A1C088E493E00E94A324282F30E04A
:1011500020173107A9F06D2D88E493E00E94F72451
:1011600088E493E00E941A25482F88E493E04F8397
:101170000E941D254F81682F88E493E00E9401188A
:1011800088E493E00E94111822C082E493E00E9458
:10119000A324282F30E020173107A9F06D2D82E419
:1011A00093E00E94F72482E493E00E941A25482FDE
:1011B00082E493E04F830E941D254F81682F82E4D3
:1011C00093E00E94161882E493E00E942618BC0166
:1011D000882777FD8095982F0E9490300E949C066A
:1011E00052C06091000380E893E06F830E94A118D1
:1011F0006F8180E893E00E94351834C06EE273E09E
:10120000CE0101960E94B62ECE0101960E9448069C
:10121000CE0101960E941B2E36C060E08D2D0E94EB
:10122000F5288D2D0E9464290DC0F801EE0FFF1FD7
:10123000E258FE4F049160E0802F0E94F528802F35
:101240000E945028BC01882777FD8095982F0E9426
:10125000903008C06091D0027091D1028091D2028A
:101260009091D3020E946D060EC04F2D6D2D8AE322
:1012700094E00E948B2607CE4C2D6D2D8AE194E0E0
:101280000E940725E2CE27960FB6F894DEBF0FBE68
:10129000CDBFDF91CF911F910F91FF90EF90DF9025
:1012A000CF9008950F931F93CF93DF931F92CDB7E5
:1012B000DEB71092F6028091FC020091FE0210E06F
:1012C0009091FD029230C1F090F49130C1F5898384
:1012D0000E94310689810E942C06C8010E940107E4
:1012E0000F90DF91CF911F910F910C94E7029430F2
:1012F00039F09530E9F023C0C8010E945A0318C0A4
:1013000069E08DE494E00E94F72460E070E08DE4F1
:1013100094E00E94CD176AE08DE494E00E94F724E7
:1013200060E070E08DE494E00E94CD170E948C0292
:101330000F90DF91CF911F910F910C9437060F9072
:10134000DF91CF911F910F91089510922D038DEE93
:1013500096E00E94B929181619064CF481E0809392
:101360002D038DEE96E00E94D2298093F502089518
:101370000E94B3270E948E3020E030E04AE754E418
:101380000E94F52F2091D4023091D5024091D602CF
:101390005091D7020E942A2F6093D0027093D102FD
:1013A0008093D2029093D30281EC93E00E94531E6B
:1013B000892B09F443C08091C4038093DF020E940B
:1013C000B3270E948E3020E030E04AE754E40E94C8
:1013D000F52F6093CC027093CD028093CE02909350
:1013E000CF0281E08093CA026091DF026A3011F07F
:1013F0006D3041F41092E1021092E00281E080939E
:10140000DE022EC088ED92E00E94032F8091E00260
:101410009091E1020196813491052CF49093E102C0
:101420008093E0021DC01092E1021092E00269E98F
:1014300072E088ED92E00E94BF2E12C08091E2021D
:101440009091E30201969093E3028093E20220914F
:10145000DF0212164CF48938934134F01092DF0207
:101460001092E3021092E2020E94A50980912D03DE
:10147000882309F446C08091F5029091F6028535E3
:1014800061F491110AC08091E4028F3FE1F481E0A0
:101490008093F8028093F60216C08093E4029923A9
:1014A00091F0E091F802E23019F48093F70207C05E
:1014B000E33028F09091F70291509093F702F0E01A
:1014C000E750FD4F80838091F8028F5F843318F4DA
:1014D0008093F80204C01092F8021092F6028091F4
:1014E000F602882371F08091F70281110AC0809181
:1014F000F802843030F01092F6020E9452091092E5
:10150000F80208951F920F920FB60F9211242F9395
:101510003F934F935F936F937F938F939F93AF937B
:10152000BF93EF93FF9380916C0487FF05C01092E7
:101530008500109284001AC020916C04332727FD87
:10154000309580916B0490E0281739077CF48091E6
:101550006C04992787FD9095FC01EE0FFF1FE80FA3
:10156000F91FE359FB4F808186FD15C080916C0403
:101570008F5F80936C0420916C04332727FD309596
:1015800080916B0490E028173907BCF480916C04BB
:101590008C305CF112C080916C04992787FD909586
:1015A000FC01EE0FFF1FE80FF91FE359FB4F80818D
:1015B00060E08F730E942E29D9CF80918400909192
:1015C0008500049680349C4918F480E49CE905C0A9
:1015D0008091840090918500049690938900809377
:1015E00088008FEF80936C0438C020918400309184
:1015F000850080916C04992787FD9095FC01EE0F82
:10160000FF1FE80FF91FE359FB4F81819281820F81
:10161000931F909389008093880080916C04992790
:1016200087FD9095FC01EE0FFF1FE80FF91FE359AE
:10163000FB4F808186FF11C080916C04992787FD44
:101640009095FC01EE0FFF1FE80FF91FE359FB4FC8
:10165000808161E08F730E942E29FF91EF91BF91ED
:10166000AF919F918F917F916F915F914F913F913A
:101670002F910F900FBE0F901F90189520916B0423
:101680002C30A0F431E0320F30936B04FC01208346
:10169000822F90E0FC01EE0FFF1FE80FF91FE359C6
:1016A000FB4F88EB9BE09283818308952FEFFC0131
:1016B00020830895DF92EF92FF920F931F93CF93B1
:1016C000DF93EC01D62E7A01890188818C3008F0F5
:1016D00066C061E08D2D0E94F5288881A82FB0E0BA
:1016E000FD01EE0FFF1FEA0FFB1FE359FB4F2D2DEE
:1016F0002F739081907C922B908360E272E06E1940
:101700007F0977FF02C06D5F7F4F7595679575956F
:101710006795698340E659E0401B510B57FF02C0B3
:101720004D5F5F4F55954795559547954A836CE0BA
:101730000E94B1339CE0899FB001112420E030E089
:10174000A901460F571FFA01EE0FFF1FE40FF51F07
:10175000E359FB4F908196FD16C02F5F3F4F2C3011
:10176000310571F781110FC01092800082E08093E3
:1017700081001092850010928400B19A80916F00D0
:10178000826080936F00888190E0FC01EE0FFF1F64
:10179000E80FF91FE359FB4F8081806480838881C3
:1017A000DF91CF911F910F91FF90EF90DF900895FF
:1017B00020E639E040E252E00C945A0BFC018081B3
:1017C0008C3070F5918128E830E0291B310997FDB4
:1017D0003395220F331F220F331F621773077CF0DC
:1017E000928128E532E0291B310997FD3395220FBC
:1017F000331F220F331F621773070CF49B01225013
:101800003109220F331F4FB7F89490E0FC01EE0F1F
:10181000FF1FE80FF91FE359FB4F328321834FBFAE
:1018200008954F925F926F927F92AF92BF92CF9244
:10183000DF92EF92FF920F931F93CF93DF93EC0110
:10184000603282E078070CF040C077FD06C0653B4F
:1018500071052CF064EB70E002C060E070E08981FB
:1018600028E830E0281B310987FD3395220F331F0C
:10187000220F331F5901CC24B7FCC094DC2C8827DD
:1018800077FD8095982F2A8148E552E0421B510947
:1018900027FD5395440F551F440F551F2A016624F9
:1018A00057FC6094762C7F926F925F924F9214EB6C
:1018B000E12EF12C00E010E020E030E0A9010E94D0
:1018C000D42D0F900F900F900F90CE01DF91CF91FC
:1018D0001F910F91FF90EF90DF90CF90BF90AF904E
:1018E0007F906F905F904F900C94DE0B8091C104BD
:1018F00090E02091C204821B910908952091C204B6
:101900008091C104281750F4E22FF0E0ED53FB4F13
:10191000808190E02F5F2093C20408958FEF9FEFA6
:101920000895E091C2048091C104E81730F4F0E01A
:10193000ED53FB4F808190E008958FEF9FEF089566
:101940000895CF92DF92EF92FF920F931F93CF9360
:10195000DF937C01CB018A0120919D04222389F031
:10196000EB016B01C40ED51ECC15DD0569F0699144
:10197000D701ED91FC910190F081E02DC70109950F
:10198000F3CF642F0E94FC0DC801DF91CF911F910E
:101990000F91FF90EF90DF90CF900895CF93DF935A
:1019A0001F92CDB7DEB7698320919D042223D1F029
:1019B00020919E04203240F021E030E0FC0133838E
:1019C000228380E090E015C080919F04E82FF0E032
:1019D000E056FB4F998190838F5F80939F048093A3
:1019E0009E0405C061E0CE0101960E94FC0D81E0DD
:1019F00090E00F90DF91CF910895FC011382128245
:101A000048EE53E060E070E044835583668377835B
:101A100081E491E09183808308951092C204109232
:101A2000C10410929F0410929E040C94470D862FBF
:101A3000413208F040E263EC74E00E94650D1092C0
:101A4000C2048093C104089581E080939D04609353
:101A5000C00410929F0410929E0408950C94240DCB
:101A60000F93062F21E040919E0460EA74E080917C
:101A7000C0040E94A90D10929F0410929E0410921F
:101A80009D040F91089581E994E00C94FD0C10924F
:101A9000500581E080934E0510924D0561E082E192
:101AA0000E942E2961E083E10E942E29E9EBF0E0FB
:101AB00080818E7F808380818D7F808388E4809386
:101AC000B80085E48093BC000895413208F03FC01F
:101AD000909150059111FCCF91E090935005209387
:101AE0004E052FEF2093E30410922805240F209336
:101AF000270590934F0590914F05880F892B809370
:101B00004F0580914D05813041F410924D05809133
:101B10004F058093BB0085EC01C085EE8093BC002F
:101B2000809150058130E1F380912805841710F4ED
:101B30004091280529E235E0FB01D9018A2F821B5B
:101B4000841718F48D918193F9CF842F089580E044
:101B500008950F93413208F046C0909150059111BD
:101B6000FCCF92E09093500500934E059FEF909329
:101B7000E3041092280540932705FB0169E275E014
:101B8000DB019A2F961B941718F491919D93F9CF2E
:101B900010924F0590914F05880F892B80934F0528
:101BA00080914D05813041F410924D0580914F0593
:101BB0008093BB0085EC01C085EE8093BC0022239E
:101BC00021F0809150058230E1F38091E3048F3F52
:101BD00061F08091E304803251F08091E30480331E
:101BE00041F483E007C081E005C080E003C082E0EB
:101BF00001C084E00F910895613298F4209150055E
:101C0000243089F460930505FC0187E095E0DC0150
:101C10002A2F281B261718F421912D93F9CF80E045
:101C2000089581E0089582E0089585ED8093BC00D9
:101C30008091BC0084FDFCCF10925005089585EC86
:101C40008093BC001092500508951F920F920FB61A
:101C50000F9211242F933F934F935F936F937F9332
:101C60008F939F93AF93BF93EF93FF938091B900AE
:101C7000887F803609F49CC068F5883209F45BC01F
:101C800090F4803109F454C038F4882309F4F5C085
:101C9000883009F44DC0F5C0883109F44CC0803259
:101CA00009F45DC0EEC0803409F468C048F48033A4
:101CB00009F455C0883309F0E4C08093E304A8C058
:101CC000803509F44FC0883509F45DC0883409F0C7
:101CD000D8C0D5C0883909F4C6C0A8F4883709F43B
:101CE00067C038F4883609F463C0803709F460C0EF
:101CF000C8C0883809F4B7C0803909F45FC080389B
:101D000009F0BFC05BC0803B09F485C038F4803A5D
:101D100009F466C0883A09F47EC0B3C0803C09F477
:101D2000A6C0883C09F4A3C0883B09F489C0A9C0B7
:101D300080914F0510C09091280580912705981734
:101D400070F5E091280581E08E0F80932805F0E082
:101D5000E75DFA4F80818093BB0085EC85C080935E
:101D6000E3048DC0E091280581E08E0F8093280563
:101D70008091BB00F0E0E75DFA4F808390912805E9
:101D8000809127056DC0E091280581E08E0F80933A
:101D900028058091BB00F0E0E75DFA4F80838091D9
:101DA0004E0581116CC081E080934D0584EA60C0CE
:101DB00083E0809350051092E404CFCF8091E40437
:101DC000803208F050C0E091E40481E08E0F8093EF
:101DD000E4048091BB00F0E0EB51FB4F8083BDCF6A
:101DE0008091E404803230F4E091E404F0E0EB51BF
:101DF000FB4F10820E94150E6091E40470E0E091A8
:101E00004905F0914A0585EE94E009951092E404A5
:101E10000E941F0E36C084E0809350051092060584
:101E200010920505E0914B05F0914C0509958091C4
:101E30000505811105C081E0809305051092070515
:101E4000E091060581E08E0F80930605F0E0E95FE2
:101E5000FA4F80818093BB00909106058091050523
:101E6000981708F47ACF85E88093BC000AC085EC07
:101E70008093BC001092500504C01092E3040E94AD
:101E8000150EFF91EF91BF91AF919F918F917F912F
:101E90006F915F914F913F912F910F900FBE0F90D7
:101EA0001F9018950C948A240F931F93CF93DF9360
:101EB000EC01062F18E060E088850E942E2900FFC3
:101EC00002C061E001C060E089850E942E2906956C
:101ED00061E088850E942E29115069F760E08885AD
:101EE0000E942E2961E089850E942E2961E0888563
:101EF0000E942E2960E089850E94F52818EC8985CA
:101F00000E946429892B59F01150C9F761E0898535
:101F10000E94F52860E089850E942E29EFCF61E0BC
:101F20008985DF91CF911F910F910C94F528CF9364
:101F3000DF93EC0161E088850E942E2961E08985AC
:101F40000E942E2960E089850E942E2960E0888504
:101F5000DF91CF910C942E29CF93DF93EC0160E0B9
:101F600088850E942E2960E089850E942E2961E0E3
:101F700088850E942E2961E08985DF91CF910C949C
:101F80002E29CF92DF92FF920F931F93CF93DF936F
:101F90001F92CDB7DEB76C01F62E79830E94970FA2
:101FA00060E4C6010E94540FC6010E94AC0FC60136
:101FB0000E94970FF6016581C6010E94540F0F2DF4
:101FC0007981172F84E0F82EF80161918F01C60105
:101FD0000E94540FFA94C1F7C6010E94AC0FC601CB
:101FE0000E94970FF6016681C6010E94540FC60138
:101FF0000F90DF91CF911F910F91FF90DF90CF90C5
:102000000C94AC0F4F925F926F927F928F929F923F
:10201000AF92BF92CF92DF92EF92FF920F931F93F6
:10202000CF93DF9300D000D0CDB7DEB76A017B013C
:10203000890137FD48C0B9016F5F7F4F882777FD61
:102040008095982F0E9490309B01AC0160E070E079
:1020500080E291E40E946B324B015C019B01AC0178
:10206000C701B6010E94F52F0E94CB302B013C0125
:10207000B801882777FD8095982F0E9490309B01AA
:10208000AC0160E070E080E291E40E946B32698311
:102090007A838B839C83A5019401C301B2010E94C2
:1020A00008329B01AC01C701B6010E942A2F298189
:1020B0003A814B815C810E94F52F0E94CB300E94B7
:1020C0005D30CB011FC088249924821A930AA12C69
:1020D000B12C20E030E040E251E4C701B6010E949B
:1020E00008326B017C018FEFA81AB80AA814B90452
:1020F00084F3C701B6010E945D30CB016AE070E055
:102100000E94D1330F900F900F900F90DF91CF91DD
:102110001F910F91FF90EF90DF90CF90BF90AF9005
:102120009F908F907F906F905F904F900895DB010C
:1021300080E090E22C91223208F09C93EC91F0E048
:10214000E257FE4FE491ED938F5F843099F7089545
:10215000EF92FF920F931F93CF93DF9300D000D0A5
:10216000CDB7DEB78C01DB01FE013196CE010596BD
:102170007F012D912193E817F907D9F7B701C8011D
:102180000E949710B701C8010E94C10F0F900F90D5
:102190000F900F90DF91CF911F910F91FF90EF90D3
:1021A0000895CF93DF9300D000D0CDB7DEB720E203
:1021B00029832A832B832C83BE016F5F7F4F0E946C
:1021C000A8100F900F900F900F90DF91CF9108956E
:1021D000CF93DF93EC016A83E62FF0E0EE0FFF1F51
:1021E000E65FFE4F818189839081988388879987F4
:1021F00061E00E94F52861E089850E94F52880E46D
:102200008C8380EC8D838AE88E83CE01DF91CF9121
:102210000C94D1108F929F92AF92BF92CF92DF9287
:10222000EF92FF920F931F93CF93DF9300D000D0D4
:10223000CDB7DEB75C016A017B0119821A821B826D
:102240001C8220E030E0A901C701B6010E94F12FF5
:1022500087FF09C0F7FAF094F7F8F09481E28983D8
:102260009924939401C0912C03E010E0812C9801F3
:10227000B701A601C5010E940210181619062CF01C
:10228000002319F08820B9F00CC001110AC0E1E068
:10229000F0E0EC0FFD1FE90DF11D20E1280F208378
:1022A00007C0E1E0F0E0EC0FFD1FE90DF11D8083B8
:1022B00093948824839483E0891530F001501109A8
:1022C0000C3F8FEF180799F6BE016F5F7F4FC50176
:1022D0000E94A8100F900F900F900F90DF91CF9158
:1022E0001F910F91FF90EF90DF90CF90BF90AF9034
:1022F0009F908F9008950E948A2488E080935105D2
:1023000008954F925F926F927F928F929F92AF92B9
:10231000BF92CF92DF92EF92FF920F931F93CF93D2
:10232000DF9369017A019B0140E050E060E472E4D0
:102330008FE090E00E940734E901890137FF02C075
:102340000F5F1F4F1595079561E0809151050E9421
:10235000F528A8EEB3E0A70196010E943B344B019B
:102360005C01C12CD12C76012E01662457FC6094AF
:10237000762CC814D904EA04FB04A8F461E0809127
:1023800051050E942E29C8010E940A2860E0809110
:1023900051050E942E29C8010E940A28C40CD51C90
:1023A000E61CF71CE6CFDF91CF911F910F91FF90B4
:1023B000EF90DF90CF90BF90AF909F908F907F90E5
:1023C0006F905F904F90089561E0809151050E9459
:1023D000F52860E0809151050C942E29CF93DF936E
:1023E000EC0160E00E9493248EE18B871C82DF91D8
:1023F000CF910895AF92BF92CF92DF92EF92FF926A
:102400000F931F93CF93DF93CDB7DEB76A970FB6C5
:10241000F894DEBF0FBECDBF8C01CE0101967C01CA
:10242000C12CD12C5C01C6010E947436F701819346
:102430007F01FFEFCF1ADF0A8AE1C816D10499F7AE
:102440002D813E814F81588569817A818B819C8164
:102450000E942B2F29853A854B855C850E942B2F66
:102460002D853E854F8558890E942B2F29893A89D1
:102470004B895C890E942B2F2D893E894F89588D6D
:102480000E942B2F6B017C01698D70E080E090E051
:102490000E9490309B01AC01C701B6010E942B2F16
:1024A00020E030E04AE253E40E942B2F0E94623089
:1024B0008A8D681312C06DE471E08DEE96E00E9483
:1024C0001E2C8AE1F501D8011D9601900D928A9586
:1024D000E1F781E0F801848308C066E671E08DEEE3
:1024E00096E00E941E2CF80114826A960FB6F894AA
:1024F000DEBF0FBECDBFDF91CF911F910F91FF9037
:10250000EF90DF90CF90BF90AF900895CF92DF9281
:10251000EF92FF920F931F93CF93DF938C01EB0108
:102520002C813D814E815F81688179818A819B8187
:102530000E942B2F288539854A855B850E942B2F89
:102540002C853D854E855F850E942B2F28893989F2
:102550004A895B890E942B2F2C893D894E895F898E
:102560000E942B2F6B017C01688D70E080E090E071
:102570000E9490309B01AC01C701B6010E942B2F35
:1025800020E030E04AE253E40E942B2F0E946230A8
:10259000698FE12CF12C6991C7010E947C368FEF85
:1025A000E81AF80AEAE1EE16F104A9F781E0F80169
:1025B000848360E871E08DEE96E0DF91CF911F910A
:1025C0000F91FF90EF90DF90CF900C941E2CEF9224
:1025D000FF921F93CF93DF931F92CDB7DEB7162FD5
:1025E0007A01FC01638581E994E029830E94240D2E
:1025F000612F81E994E00E94CE0C2981813091F411
:10260000422F50E0B70181E994E00E94A10C61E003
:1026100081E994E00F90DF91CF911F91FF90EF90AF
:102620000C94300D8FEF0F90DF91CF911F91FF90A1
:10263000EF900895CF93DF931F92CDB7DEB7498314
:1026400021E0AE014F5F5F4F0E94E7120F90DF91D4
:10265000CF910895EF92FF920F931F93CF93DF9343
:10266000EC01F62E8A01E22E6B8581E994E00E944E
:10267000240D6F2D81E994E00E94CE0C813001F58C
:1026800060E081E994E00E94300D81112EC081E06C
:1026900090E00E940A2821E04E2D6B8581E994E0AC
:1026A0000E94170DE80100E010E0F12C81E994E0B0
:1026B0000E94760C892B31F00E151F0574F002C0B4
:1026C0008FEF13C081E090E00E940A2881E00E1590
:1026D0001F0509F480E0819508C00F5F1F4F81E955
:1026E00094E00E947E0C8993E1CFDF91CF911F91FE
:1026F0000F91FF90EF900895CF93DF93EC01AC0121
:102700004B5F5F4F23E06AE00E942A1381110AC0E9
:102710008D81883439F48E81843321F481E09F8166
:10272000933309F080E0DF91CF910895CF92DF924B
:10273000EF92FF920F931F93CF93DF93EC016B0106
:102740008A0179010E94E113AE014B5F5F4F26E0E1
:1027500063E0CE010E942A13882321F0992787FD88
:10276000909526C08C85813031F441E062E070E0C4
:10277000CE010E941A138D8190E0982F88272E8118
:10278000822BF60191838083898590E0982F88279A
:102790002A85822BF801918380838F8190E0982F86
:1027A00088272885822BF7019183808380E090E041
:1027B000DF91CF911F910F91FF90EF90DF90CF901D
:1027C00008952F923F924F925F926F927F928F92D5
:1027D0009F92AF92BF92CF92DF92EF92FF920F93B0
:1027E0001F93CF93DF93CDB7DEB76C970FB6F894F6
:1027F000DEBF0FBECDBF8C0162E00E94A924811113
:102800006EC26AE070E080E090E00E94E22762E041
:10281000C8010E94A924811162C2C8010E947C13D0
:10282000811107C06FE971E08DEE96E00E941E2CC9
:1028300056C269EB71E08DEE96E00E941E2C0E945C
:10284000B3276B017C01712CBB24B39462E0C801F7
:102850000E94A92481111BC00E94B3276C197D0915
:102860008E099F09693C71058105910578F30E94E5
:10287000B3276B017C017B24672DC8010E94DB24F8
:1028800061ED71E08DEE96E00E941E2CDFCF6BEEC5
:1028900071E08DEE96E00E941E2C64E670E080E010
:1028A00090E00E94E2270E94B3274B015C012FEFCA
:1028B0003FE7388B2F8740E050E85E874D878FEFEA
:1028C0009FE79C878B87E0E0F0E8FA87E987388705
:1028D0002F83212C50E8352E662463940E94B32761
:1028E0006C197D098E099F09693C71058105910567
:1028F00048F00E94B3276B017C017624672DC80144
:102900000E94DB240E94B327681979098A099B0970
:102910006B30710581059105E0F19E012F5F3F4FFE
:10292000AE014D5F5F4FBE016B5F7F4FC8010E94DC
:1029300096138D819E814F815885841795072CF0C1
:102940002816390624F41C0102C098878F838B81D6
:102950009C81EB85FC858E179F0744F029853A857D
:10296000281739072CF49A87898702C09C878B87A0
:1029700089819A814F8558898417950744F0ED85A0
:10298000FE85E817F9072CF49E878D8702C0988B87
:102990008F8762E0C8010E94A92481119FCF60E067
:1029A000C8010E94DB24B101882777FD8095982F0C
:1029B0000E9490306B017C012F813885B9018827F6
:1029C00077FD8095982F0E949030698B7A8B8B8B46
:1029D0009C8B9B01AC01C701B6010E942B2F905824
:1029E00020E030E040E05FE30E940832F8016587B4
:1029F00076878787908B29853A85B901882777FD67
:102A00008095982F0E9490302B013C014B855C856E
:102A1000BA01882777FD8095982F0E9490306D8BA2
:102A20007E8B8F8B988F9B01AC01C301B2010E94FA
:102A30002B2F905820E030E040E05FE30E94083206
:102A4000F801618B728B838B948B2D853E85B90148
:102A5000882777FD8095982F0E9490304B015C016C
:102A60004F855889BA01882777FD8095982F0E9455
:102A70009030698F7A8F8B8F9C8F9B01AC01C50141
:102A8000B4010E942B2F905820E030E040E05FE33B
:102A90000E940832F801658B768B878B908F80E0DF
:102AA00090E0A0E8BFE3818F928FA38FB48F298934
:102AB0003A894B895C89C701B6010E942A2F6B01B4
:102AC0007C012D893E894F89588DC301B2010E9436
:102AD0002A2FA70196010E94F52FF801658F768FA6
:102AE000878F90A3298D3A8D4B8D5C8DC501B401E4
:102AF0000E942A2FA70196010E94F52FF80161A3D9
:102B000072A383A394A32F813885221A330A37FE38
:102B100003C031942194310889859A854B855C8561
:102B2000841B950B97FF03C09195819591092D8585
:102B30003E85EF85F8892E1B3F0B37FF03C031958B
:102B400021953109821593052CF02215330514F0D7
:102B500081E009C0281639062CF02817390714F02F
:102B600082E001C083E0F80185A361E072E08DEEB0
:102B700096E00E941E2C6EE172E08DEE96E00E94BF
:102B8000FF2BF801458556856785708921E030E087
:102B90008DEE96E00E94D22D6FE472E08DEE96E00D
:102BA0000E941E2C6CE272E08DEE96E00E94FF2BDC
:102BB000F801418952896389748921E030E08DEE02
:102BC00096E00E94D22D6FE472E08DEE96E00E94B6
:102BD0001E2C6AE372E08DEE96E00E94FF2BF80156
:102BE000458956896789708D21E030E08DEE96E049
:102BF0000E94D22D6FE472E08DEE96E00E941E2CB2
:102C000068E472E08DEE96E00E94FF2BF801418DA2
:102C1000528D638D748D21E030E08DEE96E00E9440
:102C2000D22D6FE472E08DEE96E00E941E2C61E5DD
:102C300072E08DEE96E00E94FF2BF801458D568DD7
:102C4000678D70A121E030E08DEE96E00E94D22DDC
:102C50006FE472E08DEE96E00E941E2C6AE572E051
:102C60008DEE96E00E94FF2BF80141A152A163A1D5
:102C700074A121E030E08DEE96E00E94D22D6FE449
:102C800072E08DEE96E00E941E2C63E672E08DEEFF
:102C900096E00E94FF2B4AE050E0F80165A18DEE1E
:102CA00096E00E94E02C6FE472E08DEE96E00E94C8
:102CB0001E2CB801635F7F4FC8010E94861261E03D
:102CC000C8010E94DB2462E0C8010E94A924882375
:102CD000D1F364E670E080E090E00E94E2276C9619
:102CE0000FB6F894DEBF0FBECDBFDF91CF911F911D
:102CF0000F91FF90EF90DF90CF90BF90AF909F909B
:102D00008F907F906F905F904F903F902F9008959D
:102D1000CF93DF93EC0181E994E00E940D0D61E017
:102D2000CE010E94DB2440E760E070E0CE010E940B
:102D30001A1340E261E070E0CE010E941A1381E0B4
:102D40008C8741E062E070E0CE010E941A13CE0150
:102D50000E94FA11CE01DF91CF910C94E1136093A0
:102D6000530540935205FC01608341830C948816FF
:102D70002F923F924F925F926F927F928F929F928B
:102D8000AF92BF92CF92DF92EF92FF920F931F9379
:102D9000CF93DF93CDB7DEB762970FB6F894DEBF5F
:102DA0000FBECDBF8C010E94E1139E012F5F3F4FEC
:102DB000AE014D5F5F4FBE016B5F7F4FC8010E9448
:102DC0009613882349F0682F772767FD7095872F22
:102DD000972F0E949030C5C0F80184812D803E80DD
:102DE0002B813C8138872F83882309F478C0458460
:102DF000568467847088818C928CA38CB48CB901C2
:102E0000882777FD8095982F0E949030F8012189BE
:102E10003289438954890E942B2FF801258D368DE4
:102E2000478D50A10E9408320E945D306F837887E1
:102E300089879A8769817A81882777FD8095982F7D
:102E40000E949030F801258936894789508D0E946B
:102E50002B2FF80121A132A143A154A10E940832D5
:102E60000E945D306B877C878D879E87F80115A156
:102E7000113041F42B853C85B901882777FD809579
:102E8000982F32C0B101882777FD8095982F0E9436
:102E90009030A30192010E942B2FA50194010E9462
:102EA00008320E945D304B015C01123089F42B85A1
:102EB0003C85B901882777FD8095982F0E94903036
:102EC0009B01AC01B401882777FD8095982F17C02E
:102ED000133019F5882777FD8095982F05C0B1012B
:102EE000882777FD8095982F0E9490309B01AC0138
:102EF000EF81F885BF01882777FD8095982F2F8770
:102F0000388B498B5A8B0E9490302F85388949899C
:102F10005A890E949E2F6B017C0120E030E0A901BC
:102F2000C701B6010E94F12F87FF0DC02BED3FE0D6
:102F300049EC50E4C701B6010E942B2F20E030E09D
:102F400044E353E406C020E030E044E353E4C70127
:102F5000B6010E9408322BED3FE049E450E40E94A4
:102F6000F52F62960FB6F894DEBF0FBECDBFDF918E
:102F7000CF911F910F91FF90EF90DF90CF90BF9076
:102F8000AF909F908F907F906F905F904F903F9009
:102F90002F90089560E00C9493240F931F93CF9388
:102FA000DF938C016F3F710519F014F06FEF70E043
:102FB000EB0161308FEF780714F4C1E0DFEFD7FD4C
:102FC00006C061E0C8010E94DB24BE0108C060E0C9
:102FD000C8010E94DB24662777276C1B7D0BC80184
:102FE000DF91CF911F910F910C94F32484E595E02C
:102FF0000C94E71B84E595E00C94101C60E00C94A5
:103000009324CF93DF93EC016C834D838C8160E03C
:103010000E94F5288D8188838C818983DF91CF91EF
:1030200008950C94EB2460E00C949324CF93DF93E9
:10303000EC016C834D838C8160E00E94F5288D81CA
:1030400088838C818983DF91CF9108950C94EB2440
:10305000CF93DF93EC0160E00E949324C05CDF4FCC
:1030600088E68883DF91CF910895FC01613029F4CF
:1030700030852185928583850DC0623029F43485A1
:1030800025859685878506C0633029F43089218996
:1030900092898389AC01632F722F852F942F089515
:1030A000EF92FF920F931F93CF93DF93C62F8A0166
:1030B000E22E68E681E994E00E94240D6C2F81E9FC
:1030C00094E00E94CE0C813001F560E081E994E04B
:1030D0000E94300D81112EC081E090E00E940A28EC
:1030E00021E04E2D68E681E994E00E94170DE80189
:1030F00000E010E0F12C81E994E00E94760C892B2D
:1031000031F00E151F0574F002C08FEF13C081E07F
:1031100090E00E940A2881E00E151F0509F480E066
:10312000819508C00F5F1F4F81E994E00E947E0CDB
:103130008993E1CFDF91CF911F910F91FF90EF9095
:1031400008954F925F926F927F928F929F92AF926B
:10315000BF92CF92DF92EF92FF920F931F93CF9384
:10316000DF93CDB7DEB72C970FB6F894DEBF0FBE56
:10317000CDBF8C01AC014E5C5F4F2EE06BE30E9433
:1031800050188111C5C1F801A2A8B12CBA2CAA24EB
:1031900083A9A82AB1A2A0A2E4A8F12CFE2CEE24B7
:1031A00085A9E82AF3A2E2A286A8912C982C88246B
:1031B00087A9882A95A284A244805580668077805A
:1031C00062AD70E0762F662783AD682B882777FD88
:1031D0008095982F0E949030F80126A137A140A534
:1031E00051A50E942A2FA30192010E94F52FF801F8
:1031F000648B758B868B978B64AD70E0762F66271A
:1032000085AD682B882777FD8095982F0E94903098
:10321000F80122A533A544A555A50E942A2FA30194
:1032200092010E94F52FF801608F718F828F938F2A
:1032300066AD70E0762F662787AD682B882777FD0F
:103240008095982F0E949030F80126A537A540A9B7
:1032500051A90E942A2FA30192010E94F52FF80183
:10326000648F758F868F978FB701882777FD80953C
:10327000982F0E9490306B017C01B401882777FD64
:103280008095982F0E9490309B01AC010E940832DB
:103290002B013C01A7019601C701B6010E9408322B
:1032A000A30192010E942B2F0E94BB329B01AC0113
:1032B000B501882777FD8095982F29873A874B8716
:1032C0005C870E9490304B015C0129853A854B85D3
:1032D0005C850E949E2F20E030E044E353E40E948E
:1032E00008322AED3FE049E450E40E94F52F69835B
:1032F0007A838B839C83A5019401C501B4010E944C
:103300000832A30192010E942B2F0E94BB329B0125
:10331000AC01C701B6010E949E2F20E030E044E3DB
:1033200053E40E9408322AED3FE049E450E40E9451
:10333000F52F6D837E838F8398870E94B327C0907B
:103340006F06D0907006E0907106F09072066C19CE
:103350007D098E099F090E948E3020E030E04AE707
:1033600054E40E94F52F6B017C010E94B327609307
:103370006F06709370068093710690937206F80141
:1033800084A195A11816190644F5208D318D428D22
:10339000538DC701B6010E9408329B01AC01F801B0
:1033A00060857185828593850E942A2FF801608748
:1033B0007187828793872489358946895789C70110
:1033C000B6010E9408329B01AC01F8016485758545
:1033D000868597850E942B2F28C0F801208D318D7E
:1033E000428D538DC701B6010E9408329B01AC018A
:1033F000F80160857185828593850E942B2FF801E5
:1034000060877187828793872489358946895789A0
:10341000C701B6010E9408329B01AC01F801648526
:103420007585868597850E942A2FF80164877587A0
:1034300086879787F801248D358D468D578DC70176
:10344000B6010E9408329B01AC01F80160897189C4
:10345000828993890E942B2FF801608B718B828B5C
:10346000938B20E030E040E05FE3C701B6010E94AB
:103470002B2F9B01AC0160E070E080E09FE30E9495
:10348000F52F6B017C019B01AC0160E070E080E8EE
:103490009FE30E942A2F4B015C01F80120853185B2
:1034A00042855385C701B6010E9408322B013C01B9
:1034B000A501940169817A818B819C810E940832E7
:1034C0009B01AC01C301B2010E942B2FF801608760
:1034D0007187828793872485358546855785C701FF
:1034E000B6010E9408326B017C01A50194016D8137
:1034F0007E818F8198850E9408329B01AC01C701B3
:10350000B6010E942B2FF8016487758786879787FD
:103510002C960FB6F894DEBF0FBECDBFDF91CF91D2
:103520001F910F91FF90EF90DF90CF90BF90AF90E1
:103530009F908F907F906F905F904F9008952F9203
:103540003F924F925F926F927F928F929F92AF9233
:10355000BF92CF92DF92EF92FF920F931F93CF9380
:10356000DF9300D000D0CDB7DEB71C0104EF11E02F
:10357000812C912C5401412C512C320119821A8238
:103580001B821C827C0122E3E20EF11C26E0A701D3
:1035900063E4C1010E945018F10182A990E0982FC4
:1035A000882723A9822BAA2797FDA095BA2F2981C6
:1035B0003A814B815C81280F391F4A1F5B1F298389
:1035C0003A834B835C8384A990E0982F882725A9B0
:1035D000822BAA2797FDA095BA2F480E591E6A1E66
:1035E0007B1E86A990E0982F882727A9822BAA27DF
:1035F00097FDA095BA2F880E991EAA1EBB1E0150DA
:10360000110921F664EFC62EDD24D394E12CF12CB0
:1036100069817A818B819C81A70196010E94073480
:10362000CA01B9010E949030F10166A377A380A777
:1036300091A7C301B201A70196010E940734CA01F4
:10364000B9010E949030F10162A773A784A795A7E2
:10365000C501B401A70196010E940734CA01B9014E
:103660000E949030F10166A777A780AB91AB0F90D5
:103670000F900F900F90DF91CF911F910F91FF90BE
:10368000EF90DF90CF90BF90AF909F908F907F9002
:103690006F905F904F903F902F900895EF92FF9220
:1036A0001F93CF93DF931F92CDB7DEB7162F7A010A
:1036B00068E670E081E994E029830E942E0D612F75
:1036C00081E994E00E94CE0C2981813091F4422F4F
:1036D00050E0B70181E994E00E94A10C61E081E92A
:1036E00094E00F90DF91CF911F91FF90EF900C9499
:1036F000300D8FEF0F90DF91CF911F91FF90EF90E2
:103700000895CF93DF931F92CDB7DEB7498321E0B1
:10371000AE014F5F5F4F0E944E1B0F90DF91CF9124
:103720000895CF93DF93EC0140E050E063E872E44A
:103730004C835D836E837F83188619861A861B8669
:103740001C861D861E861F86188A198A1A8A1B8A5D
:103750001C8A1D8A1E8A1F8A188E198E1A8E1B8E2D
:103760001C8E1D8E1E8E1F8E19A218A21BA21AA2BD
:103770001DA21CA21EA21FA218A619A61AA61BA64D
:103780001CA61DA61EA61FA618AA19AA81E994E0C8
:103790000E940D0D60E273E080E090E00E94E2275D
:1037A00040E06BE670E0CE010E94811B41E06AE1DF
:1037B00070E0CE010E94811B48E06BE170E0CE0119
:1037C0000E94811BCE01DF91CF910C949F1A21E0C2
:1037D00030E0FC0131832083EE5FFE4F10821182C6
:1037E00012821382349610821182128213823496CE
:1037F00010823196108231961082118212821382C9
:103800003496118210823296108231961082118283
:1038100012821382349610821182128213820895CA
:10382000089560E00C9493244F925F926F927F9280
:103830008F929F92AF92BF92CF92DF92EF92FF92C0
:103840000F931F93CF93DF9300D000D01F92CDB77B
:10385000DEB78C01CE0101966C0185E0F601119274
:103860008A95E9F760E0C8010E94DB2464E170E01A
:1038700080E090E00E94E22761E0C8010E94DB2422
:1038800088E290E00E940A2860E0C8010E94DB24E0
:103890000E94B3274B015C0160E0C8010E94BA247A
:1038A00081110EC00E94B327681979098A099B0902
:1038B000633071058105910578F3F8011482158252
:1038C0000E94B3274B015C0160E0C8010E94BA244A
:1038D000882359F00E94B327681979098A099B093E
:1038E000633071058105910578F3E12CF12C0E947C
:1038F000B3274B015C0160E0C8010E94BA2481112A
:103900000BC00E94B327681979098A099B096330A3
:1039100071058105910578F30E94BF274B015C0179
:103920000E94B3272B013C0160E0C8010E94BA2429
:10393000882359F00E94B3276419750986099709ED
:10394000633071058105910578F30E94BF276819DE
:1039500079098A099B09F70123E0F595E7952A95EE
:10396000E1F7693271058105910530F0EC0DFD1D1F
:103970008081880F816004C0EC0DFD1D8081880F5F
:103980008083FFEFEF1AFF0A88E2E816F10409F0DE
:10399000AECF59814B81842F90E0850F911D2D81F1
:1039A00030E08217930719F4F801548345830F9090
:1039B0000F900F900F900F90DF91CF911F910F916B
:1039C000FF90EF90DF90CF90BF90AF909F908F903F
:1039D0007F906F905F904F900895FC01611102C03D
:1039E00084810895858108951F920F920FB60F92DA
:1039F00011240F931F932F933F934F935F936F93D4
:103A00007F938F939F93AF93BF93CF93EF93FF9346
:103A100082E00E946429C82F2091790630917A06AD
:103A20002F5F3F4F30937A06209379068091DF060F
:103A3000843618F085E08093740690917406933074
:103A400079F018F4923039F070C0943011F195305B
:103A500009F44AC06AC0C11168C01092DF0629C0CB
:103A6000C13009F062C0E091DF0681E08E0F8093E3
:103A7000DF06F0E08091790690917A06ED58F94FD3
:103A8000808710927A061092790684E080937406FB
:103A90004CC0C11114C0E091DF0681E08E0F80930D
:103AA000DF06F0E08091790690917A06ED58F94FA3
:103AB000808710927A061092790683E0E7CF809192
:103AC000790690917A068536910578F185E08093A4
:103AD00074060E94B32760937506709376068093F0
:103AE00077069093780621C00E94B327009175064F
:103AF000109176062091770630917806601B710B45
:103B0000820B930B693C71058105910540F0109281
:103B1000DF0610927A061092790682E0B7CFC111C3
:103B200004C010927A0610927906FF91EF91CF911E
:103B3000BF91AF919F918F917F916F915F914F91C5
:103B40003F912F911F910F910F900FBE0F901F90DB
:103B50001895F89482E08093B0008093B10094E6C9
:103B60009093B3001092B2008093700078941092FA
:103B7000DF068093740608950F931F93CF93DF930E
:103B8000EC018C010C5E1F4F69E972E0C8010E94D4
:103B9000892E69E972E0CE014A960E94892E60E082
:103BA00082E00E94F52882E08093730618A219A291
:103BB0001AA21BA21B861A861C861A8A69E972E061
:103BC000C8010E94BF2E1B8ACE010E94A91D61E080
:103BD00083E00E94F52860E083E0DF91CF911F91A0
:103BE0000F910C942E291F93CF93DF93FC01A68194
:103BF000B7818C9186588D3558F4808591858330B6
:103C00009105A1F411968C9111978152893118F088
:103C100080E090E044C012968C9188508730C0F7C5
:103C2000158281E0808381E090E039C08334910582
:103C30007CF311968C91119783548F3248F782E070
:103C400090E040E050E0BA019D012F5F3F4FEC0152
:103C5000CA0FDB1FC881C850C730D0F6E901C80FB2
:103C6000D91F18811751133180F4769567955795B0
:103C70004795706802968234910549F780E2858302
:103C80004183528363837483CCCFC881C850C730CB
:103C900008F0BECF7695679557954795EBCFDF91A6
:103CA000CF911F9108950F931F93CF93DF93EC0152
:103CB0008BE796E09F838E838091DF0690E0998763
:103CC000888780917406853081F4CE010E94F31DAF
:103CD0008C01CE010115110529F00E94A91D01E0FA
:103CE00010E005C00E94A91D02C000E010E0C8015C
:103CF000DF91CF911F910F910895CB01E0EBF0E0A0
:103D00002081206220830C940A28CB01E0EBF0E0B4
:103D100020812F7D20830C940A2810927000262F7A
:103D200030E040E050E060E47FE180E090E00E941D
:103D3000073481E08093B00089E08093B100209344
:103D4000B3008BEA289F212D112426952093B400DF
:103D50000895F89482E08093B0008093B10094E6D7
:103D60009093B3001092B200809370007894809387
:103D700074061092DF068091730660E00C94F528BB
:103D8000AF92BF92CF92DF92EF92FF920F931F9369
:103D9000CF93DF93EC016A017B01590166E20E9437
:103DA0008D1E68E273E2CE010E947D1E64E971E11E
:103DB000CE010E94851E00E010E060E372E0CE01BB
:103DC0000A151B05ACF4C0FE05C00E947D1E60E410
:103DD00076E004C00E947D1E60E372E0CE010E9486
:103DE000851EF694E794D794C7940F5F1F4FE5CFD5
:103DF0000E947D1E60E070E0CE01DF91CF911F91A7
:103E00000F91FF90EF90DF90CF90BF90AF900C9408
:103E1000851EEF92FF920F931F93CF93DF937C0148
:103E20008B016AE0C8010E94032FC0E0D0E0F801D6
:103E300084819581C817D90710F5BE01C8010E9479
:103E4000272F482F409550E060E070E0762F652FD7
:103E5000542F4427480F511D611D711DBA0155276C
:103E600044274F6F20E230E0C7010E94C01E64E18A
:103E700070E080E090E00E94E2272196D8CFC70151
:103E8000DF91CF911F910F91FF90EF900C94A91E9D
:103E900060E00C949324613049F40E94EB248A5E24
:103EA00091402091E2063091E3060AC0623059F455
:103EB0000E94EF248A5E91402091E0063091E10655
:103EC000820F931F089580E090E00895CF92DF92D3
:103ED000EF92FF920F931F93CF93DF93EC01162F76
:103EE000F42EE52ED22E106C61E08C810E942E29DA
:103EF00060E08D810E942E2908E060E08C810E94A4
:103F00002E29612F61708D810E942E2961E08C81A4
:103F10000E942E291695015081F7CF2C0F2D1E2DB2
:103F2000802F8C198D15B0F4F801E1908F0188E095
:103F3000F82E60E08C810E942E296E2D60788D8194
:103F40000E942E2961E08C810E942E29EE0CFA94A9
:103F500081F7E6CF60E08C810E942E2960E08D81A0
:103F60000E942E2961E08C810E942E2961E08D81C2
:103F7000DF91CF911F910F91FF90EF90DF90CF9045
:103F80000C942E290C948A240F931F93CF93DF93C4
:103F9000EC01162F61E08C810E942E2960E08D815A
:103FA0000E942E2908E060E08C810E942E29612F5A
:103FB00061708D810E942E2961E08C810E942E29E2
:103FC0001695015081F760E08C810E942E2960E0F7
:103FD0008D810E942E2961E08C810E942E2961E052
:103FE0008D81DF91CF911F910F910C942E2920E0AC
:103FF00030E0FC01E20FF31F10862F5F3F4F2031AE
:104000003105B9F721E0FC0126831782AC01485F36
:104010005F4F20E160E00C94661F693018F466235E
:1040200021F001C068E06150686060680C94C41FB2
:10403000CF93DF93EC01E62FF0E0EE0FFF1FE65F7A
:10404000FE4F80818C8391819D8361E00E94F528E1
:1040500061E08D810E94F52861E08C810E942E290B
:1040600061E08D810E942E2960E4CE010E94C41F70
:1040700065E0CE010E940D20CE01DF91CF910C941E
:10408000F71FFC01668308958F929F92AF92BF92B3
:10409000CF92DF92EF92FF920F931F93CF93DF9314
:1040A00060310CF085C048300CF082C0222309F446
:1040B0007FC0FC013681A42FBB27A7FDB095E8E0A7
:1040C000F0E0EA1BFB0B5FEF01C0550FEA95EAF742
:1040D0004801C0E0D0E0772767FD70956C01C60EFF
:1040E000D71EAA24BB24AA1ABB0A332379F1C2170C
:1040F00078F58E01060F171F17FD1AC07601EC0E1A
:10410000FD1EF70130853523F4010081141644F4B7
:1041100010E00A2E02C0159507950A94E2F705C033
:104120000A2C01C0000F0A94EAF7032BF70100875D
:104130002196FFEF8F1A9F0ADACF8E01060F171F05
:1041400017FF19C02196FFEF8F1A9F0AC217A8F315
:10415000AC01485F5F4F20E160E0DF91CF911F919C
:104160000F91FF90EF90DF90CF90BF90AF909F9016
:104170008F900C94661F7601EC0EFD1EF7013085C2
:104180003523F401008110E00095109514163CF4DD
:104190000A2E02C0159507950A94E2F705C00A2C6D
:1041A00001C0000F0A94EAF7032BF7010087CACF7A
:1041B000DF91CF911F910F91FF90EF90DF90CF9003
:1041C000BF90AF909F908F9008958F929F92AF92E3
:1041D000BF92CF92DF92EF92FF920F931F93CF93F4
:1041E000DF93EC01088D198D101611060CF073C0C9
:1041F00080E090E0F82E8017910751F00196813110
:10420000910509F4E7C0FE01E80FF91F1782F2CF0C
:1042100040E1841709F4DEC00B8D1C8DE12C67E0B2
:10422000D62E70E2C72E4E2D50E0401751070CF0ED
:1042300049C0B12CDE01A40FB51F5D962B2D30E0D7
:10424000D29EC001D39E900D112482539E4FFC013B
:104250006491603441F1FC016491EC91FF27E7FD2A
:10426000F09570E0E617F707E1F4D29EB001D39E17
:10427000700D112420E030E061537E4FFB01E20F0E
:10428000F31FE491DE01AF0DB11D1896EC93F3948A
:10429000FFE0FF1540F02F5F3F4F2630310571F7EB
:1042A00002C0B394CBCFFC018491803429F4FE0189
:1042B000E40FF51FC58EEA94E394FFE0FF1508F0C4
:1042C000B2CF88C0FE01EF0DF11D1086F39440E1DE
:1042D000F412F8CF7FC0EB8CFC8C2AEFA7012403EB
:1042E000C001259F900D11240817190759F480E08B
:1042F00090E0FE01E80FF91F1086019680319105CC
:10430000C1F768C022273327201B310BC90166E0A3
:1043100070E00E94D133398F288F9B0190E047E0F5
:10432000B42E50E2A52E2E153F050CF04BC0912C5B
:10433000DE01A20FB31F5D96692D70E0B69EA0014D
:10434000B79E500D112442535E4FFA01D490F0E411
:10435000DF1631F1FA018490CC90DD24C7FCD094B3
:10436000E82DF0E0CE16DF06C1F4B69ED001B79E70
:10437000B00D1124FD01E80FF11D87FDFA95E15301
:10438000FE4F6491FE01E90FF11D60879F5F903140
:1043900030F48F5F863071F702C09394CDCF80E008
:1043A000FA014491403431F4FE01E20FF31FA58E6F
:1043B000215031092F5F3F4F903108F4B4CF198F4E
:1043C000088F08C0FE01E90FF11D10869F5F903134
:1043D000C9F7F5CF4A8D552747FD509527E030E0C6
:1043E000241B350B80E090E037FD12C0FE01E80F82
:1043F000F91F4085022E01C0440F0A94EAF7408756
:1044000001968031910591F78E818823A1F01FC01C
:1044100047505109FE01E80FF91F208530E0042EB6
:1044200002C0359527950A94E2F7208701968031DE
:10443000910581F7E9CF80E090E0FE01E80FF91FD8
:10444000208520952087019680319105B1F7AE0136
:10445000485F5F4F20E160E0CE01DF91CF911F9177
:104460000F91FF90EF90DF90CF90BF90AF909F9013
:104470008F900C94661F0F931F93FC0181E087833C
:10448000148E138E038D148DD901A00FB11F8C9142
:10449000DF01A00FB11F882319F00331110564F06B
:1044A0005D961C922AEF2003C001219F900D1124DC
:1044B0006817790774F007C05D968C930F5F1F4FE4
:1044C000148F038FDFCFCB016131710514F080E1D0
:1044D00090E0918F808F40310CF04FE047FD4FEF1F
:1044E000428FCF011F910F910C94E520CF93DF9362
:1044F000DC01362F862F6AE00E94B133C82FD0E04E
:10450000FE01EE0FFF1FEC0FFD1FE055FE4FE49183
:104510001896EC931897FE01EE0FFF1FEC0FFD1F8E
:10452000EF54FE4FE4911996EC931997FE01EE0FAC
:10453000FF1FEC0FFD1FEE54FE4FE4911A96EC9313
:104540001A971B961C921B97832F0E94B133692FD9
:1045500070E0FB01EE0FFF1FE60FF71FE055FE4F67
:10456000E4911C96EC931C97FB01EE0FFF1FE60FE6
:10457000F71FEF54FE4FE4911D96EC931D97FB013E
:10458000EE0FFF1FE60FF71FEE54FE4FE4911E964D
:10459000EC931E97842F6AE00E94B133682F70E07D
:1045A000FB01EE0FFF1FE60FF71FE055FE4FE491F2
:1045B0005196EC935197FB01EE0FFF1FE60FF71F8B
:1045C000EF54FE4FE4915296EC935297FB01EE0F9D
:1045D000FF1FE60FF71FEE54FE4FE4915396EC9346
:1045E000539754961C925497842F6AE00E94B133DB
:1045F000892F90E0FC01EE0FFF1FE80FF91FE05537
:10460000FE4FE4915596EC935597FC01EE0FFF1F7A
:10461000E80FF91FEF54FE4FE4915696EC9356972E
:10462000FC01EE0FFF1FE80FF91FEE54FE4FE4915F
:104630005796EC935797222341F088E21F968C936C
:104640001F9750968C93509706C01F961C921F97E9
:1046500050961C92509716968C911697882351F07D
:10466000AD01485F5F4F20E160E0CD01DF91CF9168
:104670000C94661F80E090E0FD01E80FF91F208593
:1046800020952087019680319105B1F7E9CF0895F3
:1046900070E0FB01E851FC4FE491DC01EC93FB017D
:1046A000E450FC4FE491F0E0EE0FFF1FE05FFB4FA2
:1046B00025913491FC013283218308951F93CF9378
:1046C000DF93FC011081C181D2819981812F809576
:1046D000892389838A81812B8A838AE090E00E94E2
:1046E0000A289881912381E009F480E0DF91CF913D
:1046F0001F910895FF920F931F93CF93DF93FC01B7
:104700001081C181D281F8948981F12EF0948F219A
:1047100089838A81812B8A8378940DE7015041F146
:1047200082E090E00E940A2888818123B9F3F894FE
:104730008A818F218A838981812B8983789480EE75
:1047400091E00E940A28F89489818F2189838A81C7
:10475000812B8A8386E490E00E940A288881812345
:1047600001E009F000E078948AE991E00E940A28CB
:10477000802FDF91CF911F910F91FF9008951F938C
:10478000CF93DF93FC011081C181D281912F90954D
:1047900060FF12C0F8948A8189238A838981812BE2
:1047A00089838AE090E00E940A288A81812B8A838B
:1047B000789487E390E011C0F8948A8189238A83F2
:1047C0008981812B898381E490E00E940A288A8173
:1047D000812B8A83789485E090E0DF91CF911F91BF
:1047E0000C940A280F931F93CF93DF93FC01108141
:1047F000C181D281F8948981812B89838A81012F9B
:10480000009580238A8383E090E00E940A288981B2
:10481000802389838A81812B8A838AE090E00E94A9
:104820000A28C881789485E390E00E940A281C2316
:1048300081E009F480E0DF91CF911F910F910895FD
:10484000CF92DF92EF92FF920F931F93CF93DF935C
:104850001F92CDB7DEB76C01E62E08E010E0FF2412
:10486000F39461E09F2D9E2109F460E0C601498325
:104870000E94BF23FF0C0150110949810115110548
:1048800081F741111DC0F894D6011196ED91FC916C
:10489000129791818C918095892381831196ED9156
:1048A000FC91129782819C91892B82831196ED91C4
:1048B000FC91129792818C918095892382837894C0
:1048C0000F90DF91CF911F910F91FF90EF90DF90AC
:1048D000CF900895EF92FF920F931F93CF93DF93A2
:1048E0008C01C8E0D0E0F12CEE24E394C8010E94D2
:1048F000F2238111FE28EE0C2197C1F78F2DDF9155
:10490000CF911F910F91FF90EF90089540E06CECD4
:104910000C942024FC0180910A01808380910B017A
:10492000818312820895DC01E62FF0E0EE0FFF1F75
:10493000E65FFE4F80818C93818111968C93119755
:1049400012966C930895FC0182810895FC01838185
:104950000895CF93DF93EC0188810E94F528888128
:104960000E94642921E0892B09F420E0822FDF9145
:10497000CF910895CF93DF93EC0189810E94F528B0
:1049800089810E94642921E0892B09F420E0822F8B
:10499000DF91CF9108951F93CF93DF93EC01162FF2
:1049A00061E088810E94F528612F8881DF91CF9195
:1049B0001F910C942E291F93CF93DF93EC01162F98
:1049C00061E089810E94F528612F8981DF91CF9173
:1049D0001F910C942E29FC0180810C945028FC011D
:1049E00081810C945028FC0180810C946D28DC019D
:1049F000E62FF0E0EE0FFF1FE65FFE4F80818C9305
:104A0000818111968C93119712966C930895DC0115
:104A1000E62FF0E0EE0FFF1FE65FFE4F80818C93E4
:104A2000818111968C93119712966C93129713961D
:104A30004C930895FC0180810895FC0181810895C3
:104A4000DC0112966C931297E62FF0E0EE0FFF1F39
:104A5000E65FFE4F918111969C93119780818C9314
:104A60004230D9F4292F30E0F901E851FC4FE491AC
:104A70001C96EC931C97F901E450FC4FE491F0E094
:104A8000EE0FFF1FE65EFB4F2591349119963C9384
:104A90002E93189761E0892F19C0282F30E0F90173
:104AA000E851FC4FE4911C96EC931C97F901E450FB
:104AB000FC4FE491F0E0EE0FFF1FE65EFB4F259107
:104AC000349119963C932E93189761E00C94F52835
:104AD000DC01862F262F30E0F901E851FC4FE491EC
:104AE0001C96EC931C97F901E450FC4FE491F0E024
:104AF000EE0FFF1FE65EFB4F2591349119963C9314
:104B00002E93189761E00C94F528CF93DF93EC0176
:104B1000262F30E03D832C8323E0629FC0011124C7
:104B20000E9446349F838E83892B21F48BE692E08A
:104B30000E94473680E090E04C815D819A01220F0F
:104B4000331F240F351F8217930738F4EE81FF813E
:104B5000E80FF91F10820196EFCFDF91CF910895F2
:104B60000F931F93CF93DF931F92CDB7DEB78C01C6
:104B700049830E949324D80111968C91282F30E00C
:104B8000F901E851FC4FE491D8011C96EC93F9012E
:104B9000E450FC4FE491F0E0EE0FFF1FE65EFB4FA8
:104BA00025913491F8013187208761E00E94F52832
:104BB0004981642FC8010F90DF91CF911F910F9110
:104BC0000C9485250F93FC01A62FB0E0848195817C
:104BD000A817B907B8F4862F880F860F90E0A68132
:104BE000B781A80FB91F2C93A681B781A80FB91F51
:104BF00011964C930680F781E02DE80FF91F028390
:104C000081E001C080E00F910895CF92DF92EF9292
:104C1000FF920F931F93CF93DF937C01142FD22E1B
:104C2000C02E611113C0C0E0D0E0F70184819581EE
:104C3000C817D90748F40C2D2D2D412F6C2FC70113
:104C40000E94E2252196F1CF81E004C061500E94CC
:104C5000E22580E0DF91CF911F910F91FF90EF90BF
:104C6000DF90CF9008950F93022F242F462F60E0FE
:104C70000E9405260F9108950F931F93D8013FB707
:104C8000F8949C91822F80958923292BFB01460F54
:104C9000571FE417F50781F0919168E02C9300C04D
:104CA00097FF8C93990F00C000C000C008F48C934C
:104CB00000C06A9599F7EDCF3FBF1F910F910895FE
:104CC0000F931F93FC010085118524813581A90173
:104CD000440F551F420F531F6681778124850E9420
:104CE0003C261F910F910895CF93DF93EC018E81A5
:104CF0009F810E94DE341F821E82DF91CF91089532
:104D0000CF93DF93EC010E948A24CE010496DF91B9
:104D1000CF910C9447231F93CF93DF93EC01142F73
:104D20000E940725123011F4698101C06881CE010B
:104D30000496DF91CF911F910C944823CF92DF927C
:104D4000EF92FF920F931F93CF93DF93CDB7DEB710
:104D50002C970FB6F894DEBF0FBECDBF8C010C5F51
:104D60001F4FC8010E947A23C8010E94862440E098
:104D700064E4C8010E9420240E94B3276B017C01D7
:104D8000C8010E945E2381110BC00E94B3276C19D9
:104D90007D098E099F096E3E72408105910580F361
:104DA000C8010E947A23C8010E94862440E06EEB6D
:104DB000C8010E942024CE0101967C016E0196E07C
:104DC000C90ED11CC8010E946A24F70181937F019A
:104DD000EC15FD05B9F76A8170E0762F66278981A9
:104DE000682B882777FD8095982F0E94903020E0CF
:104DF00030E040E85DE30E9408322C960FB6F8944C
:104E0000DEBF0FBECDBFDF91CF911F910F91FF90FD
:104E1000EF90DF90CF90089560E00C949324CF92B0
:104E2000DF92EF92FF92CF93DF9300D000D0CDB707
:104E3000DEB77C019A01AB0160E029833A834B83A2
:104E40005C830E94DB2482E090E00E940A2861E0FB
:104E5000C7010E94DB248AE090E00E940A2860E0FB
:104E6000C7010E94DB2460E0F70181810E94F528E0
:104E700029813A814B815C8161E0F70181810E9447
:104E80008D296B017C0184E690E00E940A28C7010D
:104E9000B6010F900F900F900F90DF91CF91FF9080
:104EA000EF90DF90CF90089527E3269FA001279FE2
:104EB000500D112448535F4F60E070E00E940F27AF
:104EC0000E94903020E030E048E652E40E94F52F46
:104ED00008951F920F920FB60F9211242F933F93B4
:104EE0008F939F93AF93BF938091E5069091E606D1
:104EF000A091E706B091E8063091E40623E0230F85
:104F00002D3720F40196A11DB11D05C026E8230F01
:104F10000296A11DB11D2093E4068093E5069093AF
:104F2000E606A093E706B093E8068091E906909123
:104F3000EA06A091EB06B091EC060196A11DB11D09
:104F40008093E9069093EA06A093EB06B093EC06F3
:104F5000BF91AF919F918F913F912F910F900FBE75
:104F60000F901F9018952FB7F8946091E5067091F7
:104F7000E6068091E7069091E8062FBF08953FB7B7
:104F8000F8948091E9069091EA06A091EB06B09121
:104F9000EC0626B5A89B05C02F3F19F00196A11D70
:104FA000B11D3FBF6627782F892F9A2F620F711D81
:104FB000811D911D42E0660F771F881F991F4A953A
:104FC000D1F70895CF92DF92EF92FF92CF93DF93C4
:104FD0006B017C010E94BF27EB01C114D104E104E5
:104FE000F10489F00E94292F0E94BF276C1B7D0BC2
:104FF000683E734090F381E0C81AD108E108F108D7
:10500000C851DC4FEACFDF91CF91FF90EF90DF9056
:10501000CF9008958230910538F0880F991F880F3E
:10502000991F05970197F1F70895789484B58260E8
:1050300084BD84B5816084BD85B5826085BD85B53C
:10504000816085BDEEE6F0E0808181608083E1E8EB
:10505000F0E0108280818260808380818160808323
:10506000E0E8F0E0808181608083E1EBF0E0808126
:1050700084608083E0EBF0E0808181608083EAE7F8
:10508000F0E0808184608083808182608083808181
:10509000816080838081806880831092C100089540
:1050A0008E3008F08E5087702091280190E4299F5F
:1050B00090011124822B80937C0080917A0080647F
:1050C00080937A0080917A0086FDFCCF80917800F1
:1050D0002091790090E0922B08951F93CF93DF9356
:1050E000182FEB0161E00E94F528209711F460E091
:1050F00004C0CF3FD10539F461E0812FDF91CF911A
:105100001F910C942E29E12FF0E0EC52FC4FE4911A
:10511000E330F9F048F4E130B9F0E230A1F584B5BC
:10512000806284BDC8BD34C0E730E9F0E83019F1D1
:10513000E43049F580918000806280938000D093B4
:105140008B00C0938A0024C084B5806884BDC7BD2D
:105150001FC080918000806880938000D093890078
:10516000C093880015C08091B00080688093B00023
:10517000C093B3000DC08091B00080628093B000F6
:10518000C093B40005C0C038D1050CF0B5CFAFCF87
:10519000DF91CF911F910895833081F028F4813001
:1051A00099F08230A1F008958730A9F08830B9F0E5
:1051B0008430D1F4809180008F7D03C08091800085
:1051C0008F7780938000089584B58F7702C084B56F
:1051D0008F7D84BD08958091B0008F7703C080914A
:1051E000B0008F7D8093B0000895CF93DF9390E05F
:1051F000FC01E851FC4F2491FC01E450FC4F8491E8
:10520000882349F190E0880F991FFC01EC5DFB4F6A
:10521000A591B491865E9B4FFC01C591D4919FB737
:10522000611108C0F8948C91209582238C93888119
:1052300082230AC0623051F4F8948C91322F309559
:1052400083238C938881822B888304C0F8948C916B
:10525000822B8C939FBFDF91CF9108950F931F9363
:10526000CF93DF931F92CDB7DEB7282F30E0F9013F
:10527000EC52FC4F8491F901E851FC4F1491F90173
:10528000E450FC4F04910023C9F0882321F0698386
:105290000E94CC286981E02FF0E0EE0FFF1FE65E50
:1052A000FB4FA591B4919FB7F8948C91611103C005
:1052B0001095812301C0812B8C939FBF0F90DF91AC
:1052C000CF911F910F910895CF93DF93282F30E056
:1052D000F901EC52FC4F8491F901E851FC4FD49153
:1052E000F901E450FC4FC491CC2391F081110E944C
:1052F000CC28EC2FF0E0EE0FFF1FE05FFB4FA591F5
:10530000B4912C912D2381E090E021F480E002C043
:1053100080E090E0DF91CF9108950F931F93762F57
:1053200090E0FC01E851FC4F6491FC01E450FC4F1B
:10533000E4917111762FF0E0EE0FFF1FE05FFB4F5D
:105340008591949189019A013F70472F0E944702ED
:10535000611571058105910531F06F5F7F4F8F4FAA
:105360009F4F9F7003C060E070E0CB011F910F91D1
:105370000895FC01818D228D90E0805C9F4F821BFF
:1053800091098F7399270895FC01918D828D98174B
:1053900031F0828DE80FF11D858D90E008958FEF3B
:1053A0009FEF0895FC01918D828D981761F0828D99
:1053B000DF01A80FB11D5D968C91928D9F5F9F7349
:1053C000928F90E008958FEF9FEF089586E59BE21E
:1053D000892B49F080E090E0892B29F00E94562B20
:1053E00081110C9400000895FC01848DDF01A80F49
:1053F000B11DA35ABF4F2C91848D90E001968F73FD
:105400009927848FA689B7892C93A089B1898C911B
:1054100080648C93938D848D981306C00288F389E1
:10542000E02D80818F7D80830895CF93DF93EC0101
:10543000888D8823C9F0EA89FB89808185FD05C0B4
:10544000A889B9898C9186FD0FC00FB607FCF5CFEE
:10545000808185FFF2CFA889B9898C9185FFEDCF36
:10546000CE010E94F429E7CFDF91CF910895CF922A
:10547000DF92FF920F931F93CF93DF931F92CDB7CD
:10548000DEB76C0181E0D60158968C9358975B96F5
:105490009C915B975C968C915C97981307C0509693
:1054A000ED91FC915197808185FD2EC0F601038D11
:1054B00010E00F5F1F4F0F731127F02EF601848D40
:1054C000F81211C00FB607FCF9CFD6015096ED9136
:1054D000FC915197808185FFF1CFC60169830E94BD
:1054E000F4296981EBCF838DE80FF11DE35AFF4F5B
:1054F0006083D6015B960C935B975296ED91FC917D
:105500005397808180620CC0D6015696ED91FC9134
:10551000579760835096ED91FC91519780818064FC
:10552000808381E090E00F90DF91CF911F910F91E8
:10553000FF90DF90CF900895BF92CF92DF92EF92CD
:10554000FF92CF93DF93EC016A017B01B22EE889D1
:10555000F98982E08083411581EE58076105710564
:10556000A1F060E079E08DE390E0A70196010E9450
:10557000E533215031094109510956954795379531
:105580002795211580E1380798F0E889F98910827C
:1055900060E874E88EE190E0A70196010E94E5338F
:1055A000215031094109510956954795379527955D
:1055B000EC85FD853083EE85FF852083188EEC8990
:1055C000FD89B082EA89FB89808180618083EA89D4
:1055D000FB89808188608083EA89FB89808180687B
:1055E0008083EA89FB8980818F7D8083DF91CF91E1
:1055F000FF90EF90DF90CF90BF9008951F920F9291
:105600000FB60F9211242F938F939F93EF93FF93D5
:10561000E091FD06F091FE068081E0910307F09194
:10562000040782FD12C09081809106078F5F8F73FF
:1056300020910707821751F0E0910607F0E0E3514F
:10564000F94F958F8093060701C08081FF91EF91FC
:105650009F918F912F910F900FBE0F901F901895D3
:105660001F920F920FB60F9211242F933F934F93D7
:105670005F936F937F938F939F93AF93BF93EF93BA
:10568000FF938DEE96E00E94F429FF91EF91BF9178
:10569000AF919F918F917F916F915F914F913F91CA
:1056A0002F910F900FBE0F901F9018958DEE96E0E2
:1056B0000E94B92921E0892B09F420E0822F089566
:1056C0001092F0061092EF0688EE93E0A0E0B0E0B2
:1056D0008093F1069093F206A093F306B093F4063C
:1056E0008BE892E09093EE068093ED0685EC90E0D7
:1056F0009093FA068093F90684EC90E09093FC0670
:105700008093FB0680EC90E09093FE068093FD066C
:1057100081EC90E0909300078093FF0682EC90E08C
:10572000909302078093010786EC90E09093040722
:10573000809303071092060710920707109208073C
:1057400010920907089508950E9415280E94A32B1E
:105750000E949002C6EED9E20E94B8092097E1F3B8
:105760000E94E629F9CFCF92DF92EF92FF920F933A
:105770001F93CF93DF936C017A01EB01E60EF71EC6
:1057800000E010E0CE15DF0561F06991D601ED91E2
:10579000FC910190F081E02DC6010995080F191FB9
:1057A000F1CFC801DF91CF911F910F91FF90EF9042
:1057B000DF90CF9008956115710581F0DB010D90A8
:1057C0000020E9F7AD0141505109461B570BDC01A0
:1057D000ED91FC910280F381E02D099480E090E04E
:1057E0000895DC01ED91FC91DB0114964D915C91E3
:1057F00015976D917C910280F381E02D09940C94B2
:10580000DB2BDC01ED91FC910190F081E02D0994FE
:1058100067E972E00C94DB2B0F931F93CF93DF9318
:10582000EC010E94F12B8C01CE010E94082C800F0C
:10583000911FDF91CF911F910F9108950F931F93A7
:10584000CF93DF93EC010E94DB2B8C01CE010E94F1
:10585000082C800F911FDF91CF911F910F91089518
:105860008F929F92AF92BF92CF92DF92EF92FF9270
:105870000F931F93CF93DF93CDB7DEB7A1970FB6EA
:10588000F894DEBF0FBECDBF7C01C42EE52FCB0147
:10589000D22E19A221E02D1510F02AE0D22E8E0171
:1058A0000F5D1F4F8D2C912CA12CB12C6C2D7E2FB8
:1058B000A50194010E94E5338C2DD29E80191124FC
:1058C000015011098A3014F4805D01C0895CF8012F
:1058D0008083211531054105510521F0C22EE32FAA
:1058E000CA01E4CFB801C7010E94DB2BA1960FB615
:1058F000F894DEBF0FBECDBFDF91CF911F910F9106
:10590000FF90EF90DF90CF90BF90AF909F908F90DF
:105910000895CF92DF92EF92FF920F931F93CF9350
:10592000DF93EC016A017B012115310579F4E881EF
:10593000F9810190F081E02D642FDF91CF911F91CB
:105940000F91FF90EF90DF90CF9009942A303105AE
:10595000E9F477FF1AC06DE20E94012C8C01442704
:105960005527BA014C195D096E097F092AE0CE015D
:105970000E94302C800F911FDF91CF911F910F91CA
:10598000FF90EF90DF90CF9008952AE0B701A60135
:10599000CE01DF91CF911F910F91FF90EF90DF909B
:1059A000CF900C94302C2115310541F4DC01ED91A0
:1059B000FC910190F081E02D642F09940C94302C1F
:1059C0009A01462F50E060E070E00C94D32C4F9287
:1059D0005F926F927F928F929F92AF92BF92CF927F
:1059E000DF92EF92FF920F931F93CF93DF93EC011F
:1059F0006A017B01B22E9A01AB01C701B6010E9478
:105A0000FC32882319F06AE972E027C026013701C9
:105A1000E89477F82FEF3FEF4FE75FE7C301B2015C
:105A20000E94FC3281110DC02FEF3FEF4FE75FE77F
:105A3000C301B2010E94F12F18161CF46EE972E046
:105A40000CC02FEF3FEF4FE75FE4C701B6010E94A4
:105A5000B8311816ACF462EA72E0CE01DF91CF9152
:105A60001F910F91FF90EF90DF90CF90BF90AF907C
:105A70009F908F907F906F905F904F900C94DB2B56
:105A80002FEF3FEF4FE75FECC701B6010E94F12F08
:105A900087FDE1CF20E030E0A901C701B6010E94F7
:105AA000F12F87FF0AC06DE2CE010E94012C8C010C
:105AB000F7FAF094F7F8F09402C000E010E0A12C9F
:105AC00060E070E080E09FE3AB1441F020E030E064
:105AD00040E251E40E94F52FA394F6CF9B01AC0164
