:100000000C941D020C9445020C9445020C9445027C
:100010000C9445020C9445020C9445020C94F01C7F
:100020000C9445020C9445020C9445020C94820AEF
:100030000C9445020C9445020C9445020C94450224
:100040000C9458270C9445020C94ED2A0C941F2B09
:100050000C9445020C9445020C9445020C94450204
:100060000C94250E0C944502FE081E073207480723
:1000700048076107F1084807430943094309430951
:10008000430976079207CA074309DE07BF074309FA
:1000900043090F0843098608A208C50862084309F6
:1000A000430943090D091509430943094309480850
:1000B00043094309430943094309430943094309E0
:1000C0004309430943094309430943092A09084AE3
:1000D000D73B3BCE016E84BCBFFDC12F3D6C74315C
:1000E0009ABD56833DDA3D00C77F11BED9E4BB4CB3
:1000F0003E916BAAAABE000000803F07634236B75C
:100100009BD8A71A39685618AEBAAB558C1D3CB7A8
:10011000CC5763BD6DEDFD753EF6177231BF000023
:1001200000803F08000000BE922449123EABAAAAFC
:100130002ABECDCCCC4C3E00000080BEABAAAAAA01
:100140003E00000000BF000000803F0000000000F3
:10015000084178D3BB4387D1133D190E3CC3BD4240
:1001600082AD2B3E68EC8276BED98FE1A93E4C80F1
:10017000EFFFBE01C4FF7F3F0000000000000E0043
:100180000F001000110012001300140015003F06AC
:100190005B4F666D7D077F6F777C395E7971BF86B7
:1001A000DBCFE6EDFD87FFEFF7FCB9DEF9F10040AC
:1001B0007C447C00007C5C547454547C70107C74CF
:1001C000545C7C545C40407C7C547C74547C2000A7
:1001D000000000000030007C82827C00310042FE82
:1001E0000200003200468A92620033004492926C10
:1001F0000034001C64FE04003500F292928C00363C
:10020000007C92924C003700C08E90E00038006C69
:1002100092926C0039006492927C006100042A2A58
:100220001E006200FE12120C0063000C121212007B
:1002300064000C1212FE0065001C2A2A18006600D9
:10024000103E50500067000815151E006800FE1093
:100250001E00006900002E0000006A0002012E004E
:10026000006B00FE081412006C0000FE0200006D1E
:10027000001E100E100E6E001E10100E006F000CEF
:1002800012120C0070001F12120C0071000C1212DE
:100290001F0072001E0810100073001229251200A2
:1002A0007400103E12000075001C02021E00761839
:1002B00004020418007718061C0618007800120CB7
:1002C0000C120079001805051E007A0012161A1289
:1002D0000041007E88887E004200FE92926C0043BE
:1002E000007C828244004400FE82827C004500FE45
:1002F000929282004600FE9090800047007C82929D
:100300005C004800FE1010FE00490082FE820000E2
:100310004A000C0202FC004B00FE1028C6004C00F4
:10032000FE020202004D00FE403040FE4E00FE4044
:100330003008FE4F007C8282827C5000FE909060EC
:100340000051007C828A847A5200FE9894620053A5
:10035000006492924C00540080FE8080005500FCA6
:100360000202FC005600F00C020CF05700FE0438AC
:1003700004FE5800C63838C60059C0201E20C000F0
:100380005A00869AB2C2002C00010E0C00002E000A
:100390000006060000257254781E2A4E2100007ABD
:1003A0000000003F00204A3000002D001010101007
:1003B000002B08083E0808002F00020C3040002ADD
:1003C0002214081422003A0000140000004000002B
:1003D0000000000000000008000201000003040704
:1003E000000000000000000001020408102040800E
:1003F000010204081020010204081020040404046F
:1004000004040404020202020202030303030303BE
:100410000000000023002600290000000000250045
:1004200028002B0000000000240027002A00C0053F
:10043000430DE8174F2B1806EC1711241FBECFEF02
:10044000D8E0DEBFCDBF12E0A0E0B1E0EAE7FDE614
:1004500002C005900D92AE39B107D9F727E0AEE999
:10046000B2E001C01D92A738B207E1F714E0C6E37D
:10047000D4E004C02297FE010E941734CE32D10787
:10048000C9F70E94932B0C94B0360C940000CF92C5
:10049000DF92EF92FF920F931F93E82FF92F05C081
:1004A000015011092109310961F1908196239417B6
:1004B000B9F305C0015011092109310911F19081E9
:1004C00096239413F7CFC12CD12CE12CF12C0AC028
:1004D0008FEFC81AD80AE80AF80A0C151D052E0570
:1004E0003F0579F080818623841791F36C2D7D2D53
:1004F0008E2D9F2D1F910F91FF90EF90DF90CF9049
:10050000089560E070E080E090E01F910F91FF900F
:10051000EF90DF90CF90089588ED93E00C94DB117D
:1005200061E08DE00E94E42861E08DE00E941D29D9
:100530006CE271E080E090E00E94D12760E08DE005
:100540000E941D2926E040E052EC61E070E080EE60
:1005500096E00E948B2A64EF71E080E090E00E94B8
:10056000D12722E330E040E050E064EF71E088ED15
:1005700093E00E94831162E370E080E090E00E94CB
:10058000D1270E948C0284EB93E00E94A51D6DE0B0
:100590008FE194E00E94642520E040E060E08FE17C
:1005A00094E00E942F268FE194E00E945C2683E76E
:1005B00093E00E948D1B61E271E080EE96E00E9464
:1005C000EE2B66E273E080EE96E00C94FB2B80EE5F
:1005D00096E00C94F72BFC01EF50FD4F8081809347
:1005E0002C03818180932D0380912C0390912D0306
:1005F0000895A6E3B3E0FC01EF50FD4F80818C939A
:100600008181809337038281809338038381809333
:1006100039036D917D918D919C910895EEEAF2E000
:1006200020E030E08F509D4F2617370744F4DC015F
:10063000A20FB31F4C9141932F5F3F4FF5CFFB01AA
:10064000E255FD4F10828EEA92E00895EEE9F2E065
:1006500020E030E08F509D4F261737075CF42031A3
:10066000310541F0DC01A20FB31F4C9141932F5F84
:100670003F4FF2CF8EE992E00895EDEDF2E020E0F9
:1006800030E0419151914817590791F0452B41F4C1
:10069000F901EE0FFF1FE352FD4F9183808308C0E5
:1006A0002F5F3F4F2830310561F780E090E00895DB
:1006B000C9010895BF92CF92DF92EF92FF920F93FC
:1006C0001F93CF93DF93CDB7DEB72E970FB6F89475
:1006D000DEBF0FBECDBFD090F7020D2D10E08D30E4
:1006E000910509F47EC184F58830910509F461C053
:1006F00014F58330910509F45FC1059709F030C204
:1007000086E090E00E94EB028C0169E08EE394E0C9
:100710000E94F324B8018EE394E00E94BF1788E0A2
:1007200090E00E94EB028C016AE08EE394E00E946C
:10073000F324B80139C08A30910519F10CF484C052
:100740000B9709F45CC00CC28132910509F4DBC13E
:1007500064F48E31910509F4A4C18032910509F445
:10076000AAC1449709F0FCC178C18932910509F406
:1007700083C08233910509F4E1C1829709F0F0C189
:10078000A6C187E090E00E94EB027C018EE394E03A
:100790000E949F2490E08017910729F06D2D8EE331
:1007A00094E00E94F324B7018EE394E00E94BF1707
:1007B000D7C1E090F9021091FA02F090FB0200918B
:1007C000FC024091F8026D2D8FE194E00E941C25FF
:1007D000EE2049F06FEF6E0D2F2D412F8FE194E049
:1007E0000E94DE2507C0202F4F2D612F8FE194E05E
:1007F0000E942F268FE194E00E945C26B1C1809177
:10080000F802000F111FF801E65FFE4F813011F46E
:10081000E08001C0E180D090F90284EB8D1508F4EE
:100820009FC1F12CC7010E943D038C01000F111FD5
:10083000080F191F0E5B1B4FB701C8010E94D80B90
:100840006D2D70E0C80177C181E194E00E949F2482
:1008500090E08017910729F06D2D81E194E00E94CE
:10086000E81087E090E00E94F902AB01BC0181E151
:1008700094E00E940A1174C18CED93E00E949F24C1
:10088000282F30E02017310729F06D2D8CED93E0F3
:100890000E9414208091F80290E08130910579F552
:1008A000D090F902B090FA028AE090E00E94EB0248
:1008B0008C018CE090E00E94EB02C82E6091FF0258
:1008C00070E08FE090E00E940E037C018CED93E0DD
:1008D0000E94F31F61E0B11001C060E08CED93E075
:1008E0000E943D206D2D8CED93E00E940920970120
:1008F0004C2DB8018CED93E00E94372231C182303B
:10090000910579F5E090F9022091FA028AE090E0F1
:100910002D870E94EB02F82E8CE090E00E94EB0203
:10092000482FE091FF026E2F70E08FE090E04E873D
:100930000E9426038C018CED93E00E94F31F61E07E
:100940008CED93E00E943D206E2D8CED93E00E9493
:1009500009202D854E856F2D8CED93E00E9440205F
:10096000FFC0039709F0FCC0F090F9020091FA0271
:100970008AE090E00E94EB02182F8CE090E00E9449
:10098000EB02482F8CED93E04E870E94F31F61E04D
:100990008CED93E00E943D206F2D8CED93E00E9442
:1009A000092021E04E85011101C020E0612F8CED6E
:1009B00093E00E947222D4C08DE094E00E949F24B4
:1009C000282F30E02017310729F06D2D8DE094E0BD
:1009D0000E94F32461E08091F802811154C060E02C
:1009E00052C061E972E0CE0107960E94782E009114
:1009F000F30210E00350110967EFC62E62E0D62E15
:100A0000E12CF12CE016F1065CF4F60161916F0126
:100A1000CE0107960E94F22EFFEFEF1AFF0AF2CFE7
:100A2000BE01695F7F4FCE0101960E94A52EBE01D7
:100A30006F5F7F4F84EB93E00E94051FCE0101960C
:100A40000E940A2E61E972E0CE0107960E94AE2E46
:100A5000CE0107960E940A2E83C08DE094E00E948A
:100A60009F24282F30E02017310729F06D2D8DE0CD
:100A700094E00E94F3246091F802862F90E0823087
:100A8000910534F461708DE094E00E94C72468C041
:100A900061E0029709F460E08DE094E00E94D724C1
:100AA0005FC061E08D2D0E94E4286091F8028D2DD9
:100AB0000E941D2955C061E08D2D0E94E4282091DF
:100AC000F802622F70E08D2D0E945C2849C086E0FC
:100AD00090E00E94EB028C0188E090E00E94EB0223
:100AE000101611065CF49C01442737FD4095542FE5
:100AF000B80188ED93E00E94831132C088ED93E045
:100B00000E94DB112DC0D090F80284EB8D1540F1CE
:100B1000C8010E943D037C01EE0CFF1CE80EF91E8B
:100B2000F701EE5BFB4F7F01B801CF010E94D80BAC
:100B30006D2D70E0C7010E94110C12C00E94A22707
:100B40000E947D3020E030E04AE754E40E94E42F28
:100B50006093CC027093CD028093CE029093CF022B
:100B60002E960FB6F894DEBF0FBECDBFDF91CF91AA
:100B70001F910F91FF90EF90DF90CF90BF9008955D
:100B8000CF93DF93C2E4D4E0CE010E943E0B2396C4
:100B900084E0CA35D807C1F78EE394E00E94BC1701
:100BA0008CE294E00E947C264EE160E08FE194E0CC
:100BB0000E94AC258BE194E00E94082781E194E03B
:100BC0000E94520F8DE094E00E9486248CED93E009
:100BD0000E94BE1F88ED93E00E947B1184EB93E09E
:100BE0000E94B81D83E793E00E9424188FE693E0EB
:100BF0000E94441F88E493E00E94E01182E493E0A5
:100C00000E940D1C8EE393E00E94F0178AE393E0AC
:100C10000E940A186BE271E086E293E00E94782E4F
:100C200061E972E080ED92E0DF91CF910C94782E33
:100C300080ED92E00E940A2E86E293E00E940A2E46
:100C40008EEC93E00E940A2E88EC93E00E940A2E1C
:100C50008FE194E00C947026682F80EE96E00C945F
:100C6000262A8FEF0E942C0685E50C942C068FEF28
:100C70000E942C0685E50E942C060C94E702CF9377
:100C8000C82F81E00E942C068C2FCF910C942C064B
:100C9000EF92FF920F931F93CF93DF937C01FC01A0
:100CA000C4810C2F158184E00E942C068C2F0E9499
:100CB0002C06C0E0D0E0C017D10744F4BE01C70144
:100CC0000E94162F0E942C062196F5CFDF91CF911E
:100CD0001F910F91FF90EF900895FF920F931F9334
:100CE000CF93DF931F92CDB7DEB78B01F82E82E052
:100CF00099830E942C06A8016F2D9981792F40932A
:100D00003603509337036093380370933903802F71
:100D10000E942C06809137030E942C068091380394
:100D20000E942C06809139030F90DF91CF911F9183
:100D30000F91FF900C942C06CF92DF92EF92FF92CE
:100D40006B017C0183E00E942C06C701B6010E9462
:100D50004C30862F262F372F30932D0320932C03D2
:100D60000E942C0680912D030E942C0680912E0358
:100D70000E942C0680912F03FF90EF90DF90CF9080
:100D80000C942C06FF920F931F93CF93DF931F9227
:100D9000CDB7DEB78B01F82E85E099830E942C0633
:100DA000A8016F2D9981792F40932E0350932F0323
:100DB0006093300370933103802F0E942C06809142
:100DC0002F030E942C06809130030E942C068091F4
:100DD00031030E942C06809132030E942C068091E0
:100DE00033030E942C06809134030E942C068091CC
:100DF00035030F90DF91CF911F910F91FF900C94CD
:100E00002C06CF92DF92EF92FF920F931F93CF9316
:100E1000DF93CDB7DEB727970FB6F894DEBF0FBECE
:100E2000CDBFD090F7020D2D10E08333910508F06F
:100E30002AC2FC01EC5CFF4F0C9415348BE194E06A
:100E40000E949F2490E08017910729F06D2D8BE17F
:100E500094E00E94F32460E573EC8BE194E00E943F
:100E6000432700C2F090F8028CE294E00E949F2495
:100E700090E08017910709F0F8C18CE294E00E949D
:100E8000A2248F11F2C18CE294E00E949A26EAC15A
:100E90008DE094E00E949F2490E08017910761F01C
:100EA0006D2D8DE094E00E94F3248DE094E00E948B
:100EB000192560E00E94E4288DE094E00E94EB2474
:100EC000C1C1F090F8028FE693E00E949F2490E069
:100ED0008017910729F06D2D8FE693E00E94F3248F
:100EE0006F2D8FE693E00E94471FACC18091D60220
:100EF000882309F4C8C160ED72E0CE0101960E941A
:100F0000A52ECE0101960E944806CE0101960E94B0
:100F10000A2E1092D60261E972E080ED92E00E9402
:100F2000AE2EB1C11091F8020E94A2270E947D301E
:100F300020E030E04AE754E40E94E42F2091C4020C
:100F40003091C5024091C6025091C7020E94192FEC
:100F50002DEC3CEC4CE45EE30E94A73118165CF0EB
:100F60004091D702552747FD5095212F30E081E071
:100F70004217530709F080E00E943F0606C08091A7
:100F8000D7020E943F061092D7021092D902109207
:100F9000D80279C18DE094E00E949F2490E08017F0
:100FA000910709F469C06D2D8DE094E00E94F3244F
:100FB0008DE094E00E94192560E05CC08DE094E033
:100FC0000E949F2490E08017910799F06D2D8DE08D
:100FD00094E00E94F3248DE094E00E94162560E0E6
:100FE0000E94E4288DE094E00E94192560E00E94B0
:100FF000E42860E08DE094E00E94A524182F60E0D2
:101000008DE094E00E94B624612F70E0660F771F98
:10101000680F711D882777FD8095982F18C1C090A3
:10102000F802EC2CF12C8DE094E00E949F2490E0DB
:101030008017910709F020C18DE094E00E94A2245E
:1010400090E08E159F0509F017C1EA94EF2869F426
:101050008DE094E00E94162562E00E94E42860E0A2
:101060008DE094E00E94A5240CC08DE094E00E94E5
:10107000192562E00E94E42860E08DE094E00E947F
:10108000B624682F70E080E090E00E947D30EAC0D6
:10109000F801EE0FFF1FE258FE4F0491F090F802A6
:1010A00060E0802F0E94E428802F0E943F2811E0FA
:1010B0000B970CF010E0812F8F250E943F061093B4
:1010C000C302E1C088E493E00E949F2490E080176F
:1010D0009107A9F06D2D88E493E00E94F32488E441
:1010E00093E00E941925482F88E493E04F830E94E3
:1010F00016254F81682F88E493E00E94A11688E4AA
:1011000093E00E94AA160E94C206BDC0F090F802A9
:1011100082E493E00E949F24282F30E020173107BB
:1011200029F06D2D82E493E00E94F32482E493E0A1
:101130000E94101C6F2D82E493E00E94E91C0E9423
:101140003F06A1C08EE393E00E949F24282F30E049
:1011500020173107A9F06D2D8EE393E00E94F32450
:101160008EE393E00E941625482F8EE393E04F8391
:101170000E9419254F81682F8EE393E00E94F31798
:101180008EE393E00E94081822C08AE393E00E9455
:101190009F24282F30E020173107A9F06D2D8AE316
:1011A00093E00E94F3248AE393E00E941625482FDF
:1011B0008AE393E04F830E9419254F81682F8AE3C9
:1011C00093E00E940D188AE393E00E942218BC016C
:1011D000882777FD8095982F0E947F300E949C067B
:1011E00052C06091F80283E793E06F830E949D18DC
:1011F0006F8183E793E00E94311834C066E273E0A8
:10120000CE0101960E94A52ECE0101960E944806AD
:10121000CE0101960E940A2E36C060E08D2D0E94FC
:10122000E4288D2D0E9453290DC0F801EE0FFF1FF9
:10123000E258FE4F049160E0802F0E94E428802F46
:101240000E943F28BC01882777FD8095982F0E9437
:101250007F3008C06091C8027091C9028091CA02B3
:101260009091CB020E946D060EC04F2D6D2D8CE229
:1012700094E00E94872607CE4C2D6D2D8DE094E0E2
:101280000E940325E2CE27960FB6F894DEBF0FBE6C
:10129000CDBFDF91CF911F910F91FF90EF90DF9025
:1012A000CF9008950F931F93CF93DF931F92CDB7E5
:1012B000DEB71092EE028091F4020091F60210E087
:1012C0009091F5029230C1F090F49130C1F589838C
:1012D0000E94310689810E942C06C8010E940107E4
:1012E0000F90DF91CF911F910F910C94E7029430F2
:1012F00039F09530E9F023C0C8010E945A0318C0A4
:1013000069E08EE394E00E94F32460E070E08EE3F5
:1013100094E00E94BF176AE08EE394E00E94F324F9
:1013200060E070E08EE394E00E94BF170E948C02A0
:101330000F90DF91CF911F910F910C9437060F9072
:10134000DF91CF911F910F9108951092250380EEA8
:1013500096E00E94A829181619064CF481E08093A3
:10136000250380EE96E00E94C1298093ED02089546
:101370000E94A2270E947D3020E030E04AE754E43A
:101380000E94E42F2091CC023091CD024091CE02F8
:101390005091CF020E94192F6093C8027093C90226
:1013A0008093CA029093CB0284EB93E00E944F1E7D
:1013B000892B09F443C08091B7038093D7020E9420
:1013C000A2270E947D3020E030E04AE754E40E94EA
:1013D000E42F6093C4027093C5028093C602909379
:1013E000C70281E08093C2026091D7026A3011F097
:1013F0006D3041F41092D9021092D80281E08093AE
:10140000D6022EC080ED92E00E94F22E8091D8028A
:101410009091D9020196813491052CF49093D902D0
:101420008093D8021DC01092D9021092D80261E9AF
:1014300072E080ED92E00E94AE2E12C08091DA023E
:101440009091DB0201969093DB028093DA02209167
:10145000D70212164CF48938934134F01092D70217
:101460001092DB021092DA020E94A50980912503F6
:10147000882309F446C08091ED029091EE028535F3
:1014800061F491110AC08091DC028F3FE1F481E0A8
:101490008093F0028093EE0216C08093DC029923C1
:1014A00091F0E091F002E23019F48093EF0207C06E
:1014B000E33028F09091EF0291509093EF02F0E02A
:1014C000EF50FD4F80838091F0028F5F843318F4DA
:1014D0008093F00204C01092F0021092EE0280910C
:1014E000EE02882371F08091EF0281110AC0809191
:1014F000F002843030F01092EE020E9452091092F5
:10150000F00208951F920F920FB60F9211242F939D
:101510003F934F935F936F937F938F939F93AF937B
:10152000BF93EF93FF9380915B0487FF05C01092F8
:101530008500109284001AC020915B04332727FD98
:10154000309580915A0490E0281739077CF48091F7
:101550005B04992787FD9095FC01EE0FFF1FE80FB4
:10156000F91FE45AFB4F808186FD15C080915B0412
:101570008F5F80935B0420915B04332727FD3095B8
:1015800080915A0490E028173907BCF480915B04DD
:101590008C305CF112C080915B04992787FD909597
:1015A000FC01EE0FFF1FE80FF91FE45AFB4F80818B
:1015B00060E08F730E941D29D9CF809184009091A3
:1015C0008500049680349C4918F480E49CE905C0A9
:1015D0008091840090918500049690938900809377
:1015E00088008FEF80935B0438C020918400309195
:1015F000850080915B04992787FD9095FC01EE0F93
:10160000FF1FE80FF91FE45AFB4F81819281820F7F
:10161000931F909389008093880080915B049927A1
:1016200087FD9095FC01EE0FFF1FE80FF91FE45AAC
:10163000FB4F808186FF11C080915B04992787FD55
:101640009095FC01EE0FFF1FE80FF91FE45AFB4FC6
:10165000808161E08F730E941D29FF91EF91BF91FE
:10166000AF919F918F917F916F915F914F913F913A
:101670002F910F900FBE0F901F90189520915A0434
:101680002C30A0F431E0320F30935A04FC01208357
:10169000822F90E0FC01EE0FFF1FE80FF91FE45AC4
:1016A000FB4F88EB9BE09283818308952FEFFC0131
:1016B00020830895DF92EF92FF920F931F93CF93B1
:1016C000DF93EC01D62E7A01890188818C3008F0F5
:1016D00066C061E08D2D0E94E4288881A82FB0E0CB
:1016E000FD01EE0FFF1FEA0FFB1FE45AFB4F2D2DEC
:1016F0002F739081907C922B908360E272E06E1940
:101700007F0977FF02C06D5F7F4F7595679575956F
:101710006795698340E659E0401B510B57FF02C0B3
:101720004D5F5F4F55954795559547954A836CE0BA
:101730000E94A0339CE0899FB001112420E030E09A
:10174000A901460F571FFA01EE0FFF1FE40FF51F07
:10175000E45AFB4F908196FD16C02F5F3F4F2C300F
:10176000310571F781110FC01092800082E08093E3
:1017700081001092850010928400B19A80916F00D0
:10178000826080936F00888190E0FC01EE0FFF1F64
:10179000E80FF91FE45AFB4F8081806480838881C1
:1017A000DF91CF911F910F91FF90EF90DF900895FF
:1017B00020E639E040E252E00C945A0BFC018081B3
:1017C0008C3070F5918128E830E0291B310997FDB4
:1017D0003395220F331F220F331F621773077CF0DC
:1017E000928128E532E0291B310997FD3395220FBC
:1017F000331F220F331F621773070CF49B01225013
:101800003109220F331F4FB7F89490E0FC01EE0F1F
:10181000FF1FE80FF91FE45AFB4F328321834FBFAC
:1018200008954F925F926F927F92AF92BF92CF9244
:10183000DF92EF92FF920F931F93CF93DF93EC0110
:10184000603282E078070CF040C077FD06C0653B4F
:1018500071052CF064EB70E002C060E070E08981FB
:1018600028E830E0281B310987FD3395220F331F0C
:10187000220F331F5901CC24B7FCC094DC2C8827DD
:1018800077FD8095982F2A8148E552E0421B510947
:1018900027FD5395440F551F440F551F2A016624F9
:1018A00057FC6094762C7F926F925F924F9214EB6C
:1018B000E12EF12C00E010E020E030E0A9010E94D0
:1018C000C32D0F900F900F900F90CE01DF91CF910D
:1018D0001F910F91FF90EF90DF90CF90BF90AF904E
:1018E0007F906F905F904F900C94DE0B8091B004CE
:1018F00090E02091B104821B910908952091B104D8
:101900008091B004281750F4E22FF0E0EE54FB4F22
:10191000808190E02F5F2093B10408958FEF9FEFB7
:101920000895E091B1048091B004E81730F4F0E03C
:10193000EE54FB4F808190E008958FEF9FEF089564
:101940000895CF92DF92EF92FF920F931F93CF9360
:10195000DF937C01CB018A0120918C04222389F042
:10196000EB016B01C40ED51ECC15DD0569F0699144
:10197000D701ED91FC910190F081E02DC70109950F
:10198000F3CF642F0E94FC0DC801DF91CF911F910E
:101990000F91FF90EF90DF90CF900895CF93DF935A
:1019A0001F92CDB7DEB7698320918C042223D1F03A
:1019B00020918D04203240F021E030E0FC0133839F
:1019C000228380E090E015C080918E04E82FF0E043
:1019D000E157FB4F998190838F5F80938E048093B2
:1019E0008D0405C061E0CE0101960E94FC0D81E0EE
:1019F00090E00F90DF91CF910895FC011382128245
:101A000048EE53E060E070E044835583668377835B
:101A100089E391E09183808308951092B10410923C
:101A2000B00410928E0410928D040C94470D862FF2
:101A3000413208F040E262EB74E00E94650D1092C2
:101A4000B1048093B004089581E080938C04609386
:101A5000AF0410928E0410928D0408950C94240DFE
:101A60000F93062F21E040918D046FE874E0809180
:101A7000AF040E94A90D10928E0410928D04109252
:101A80008C040F91089580E894E00C94FD0C109262
:101A90003F0581E080933D0510923C0561E082E1C5
:101AA0000E941D2961E083E10E941D29E9EBF0E01D
:101AB00080818E7F808380818D7F808388E4809386
:101AC000B80085E48093BC000895413208F03FC01F
:101AD00090913F059111FCCF91E090933F052093A9
:101AE0003D052FEF2093D20410921705240F209369
:101AF000160590933E0590913E05880F892B8093A3
:101B00003E0580913C05813041F410923C05809166
:101B10003E058093BB0085EC01C085EE8093BC0040
:101B200080913F058130E1F380911705841710F40F
:101B30004091170528E135E0FB01D9018A2F821B6E
:101B4000841718F48D918193F9CF842F089580E044
:101B500008950F93413208F046C090913F059111CE
:101B6000FCCF92E090933F0500933D059FEF90934B
:101B7000D2041092170540931605FB0168E175E049
:101B8000DB019A2F961B941718F491919D93F9CF2E
:101B900010923E0590913E05880F892B80933E055B
:101BA00080913C05813041F410923C0580913E05C6
:101BB0008093BB0085EC01C085EE8093BC0022239E
:101BC00021F080913F058230E1F38091D2048F3F74
:101BD00061F08091D204803251F08091D204803340
:101BE00041F483E007C081E005C080E003C082E0EB
:101BF00001C084E00F910895613298F420913F056F
:101C0000243089F46093F404FC0186EF94E0DC0155
:101C10002A2F281B261718F421912D93F9CF80E045
:101C2000089581E0089582E0089585ED8093BC00D9
:101C30008091BC0084FDFCCF10923F05089585EC97
:101C40008093BC0010923F0508951F920F920FB62B
:101C50000F9211242F933F934F935F936F937F9332
:101C60008F939F93AF93BF93EF93FF938091B900AE
:101C7000887F803609F49CC068F5883209F45BC01F
:101C800090F4803109F454C038F4882309F4F5C085
:101C9000883009F44DC0F5C0883109F44CC0803259
:101CA00009F45DC0EEC0803409F468C048F48033A4
:101CB00009F455C0883309F0E4C08093D204A8C069
:101CC000803509F44FC0883509F45DC0883409F0C7
:101CD000D8C0D5C0883909F4C6C0A8F4883709F43B
:101CE00067C038F4883609F463C0803709F460C0EF
:101CF000C8C0883809F4B7C0803909F45FC080389B
:101D000009F0BFC05BC0803B09F485C038F4803A5D
:101D100009F466C0883A09F47EC0B3C0803C09F477
:101D2000A6C0883C09F4A3C0883B09F489C0A9C0B7
:101D300080913E0510C09091170580911605981767
:101D400070F5E091170581E08E0F80931705F0E0A4
:101D5000E85EFA4F80818093BB0085EC85C080935C
:101D6000D2048DC0E091170581E08E0F8093170596
:101D70008091BB00F0E0E85EFA4F808390911705F8
:101D8000809116056DC0E091170581E08E0F80935C
:101D900017058091BB00F0E0E85EFA4F80838091E8
:101DA0003D0581116CC081E080933C0584EA60C0F0
:101DB00083E080933F051092D304CFCF8091D3046A
:101DC000803208F050C0E091D30481E08E0F809300
:101DD000D3048091BB00F0E0EC52FB4F8083BDCF79
:101DE0008091D304803230F4E091D304F0E0EC52DF
:101DF000FB4F10820E94150E6091D30470E0E091B9
:101E00003805F091390584ED94E009951092D304DA
:101E10000E941F0E36C084E080933F051092F504A7
:101E20001092F404E0913A05F0913B0509958091F8
:101E3000F404811105C081E08093F4041092F6044B
:101E4000E091F50481E08E0F8093F504F0E0EA5014
:101E5000FB4F80818093BB009091F5048091F40446
:101E6000981708F47ACF85E88093BC000AC085EC07
:101E70008093BC0010923F0504C01092D2040E94CF
:101E8000150EFF91EF91BF91AF919F918F917F912F
:101E90006F915F914F913F912F910F900FBE0F90D7
:101EA0001F9018950C9486240F931F93CF93DF9364
:101EB000EC01062F18E060E088850E941D2900FFD4
:101EC00002C061E001C060E089850E941D2906957D
:101ED00061E088850E941D29115069F760E08885BE
:101EE0000E941D2961E089850E941D2961E0888585
:101EF0000E941D2960E089850E94E42818EC8985EC
:101F00000E945329892B59F01150C9F761E0898546
:101F10000E94E42860E089850E941D29EFCF61E0DE
:101F20008985DF91CF911F910F910C94E428CF9375
:101F3000DF93EC0161E088850E941D2961E08985BD
:101F40000E941D2960E089850E941D2960E0888526
:101F5000DF91CF910C941D29CF93DF93EC0160E0CA
:101F600088850E941D2960E089850E941D2961E005
:101F700088850E941D2961E08985DF91CF910C94AD
:101F80001D29CF92DF92FF920F931F93CF93DF9380
:101F90001F92CDB7DEB76C01F62E79830E94970FA2
:101FA00060E4C6010E94540FC6010E94AC0FC60136
:101FB0000E94970FF6016581C6010E94540F0F2DF4
:101FC0007981172F84E0F82EF80161918F01C60105
:101FD0000E94540FFA94C1F7C6010E94AC0FC601CB
:101FE0000E94970FF6016681C6010E94540FC60138
:101FF0000F90DF91CF911F910F91FF90DF90CF90C5
:102000000C94AC0F4F925F926F927F928F929F923F
:10201000AF92BF92CF92DF92EF92FF920F931F93F6
:10202000CF93DF9300D000D0CDB7DEB76A017B013C
:10203000890137FD48C0B9016F5F7F4F882777FD61
:102040008095982F0E947F309B01AC0160E070E08A
:1020500080E291E40E9415324B015C019B01AC01CE
:10206000C701B6010E94E42F0E94BA302B013C0147
:10207000B801882777FD8095982F0E947F309B01BB
:10208000AC0160E070E080E291E40E941532698367
:102090007A838B839C83A5019401C301B2010E94C2
:1020A000B2319B01AC01C701B6010E94192F2981F1
:1020B0003A814B815C810E94E42F0E94BA300E94D9
:1020C0004C30CB011FC088249924821A930AA12C7A
:1020D000B12C20E030E040E251E4C701B6010E949B
:1020E000B2316B017C018FEFA81AB80AA814B904A9
:1020F00084F3C701B6010E944C30CB016AE070E066
:102100000E94C0330F900F900F900F90DF91CF91EE
:102110001F910F91FF90EF90DF90CF90BF90AF9005
:102120009F908F907F906F905F904F900895DB010C
:1021300080E090E22C91223208F09C93EC91F0E048
:10214000E257FE4FE491ED938F5F843099F7089545
:10215000EF92FF920F931F93CF93DF9300D000D0A5
:10216000CDB7DEB78C01DB01FE013196CE010596BD
:102170007F012D912193E817F907D9F7B701C8011D
:102180000E949710B701C8010E94C10F0F900F90D5
:102190000F900F90DF91CF911F910F91FF90EF90D3
:1021A0000895CF93DF9300D000D0CDB7DEB720E203
:1021B00029832A832B832C83BE016F5F7F4F0E946C
:1021C000A8100F900F900F900F90DF91CF9108956E
:1021D000CF93DF93EC016A83E62FF0E0EE0FFF1F51
:1021E000E65FFE4F818189839081988388879987F4
:1021F00061E00E94E42861E089850E94E42880E48F
:102200008C8380EC8D838AE88E83CE01DF91CF9121
:102210000C94D1108F929F92AF92BF92CF92DF9287
:10222000EF92FF920F931F93CF93DF9300D000D0D4
:10223000CDB7DEB75C016A017B0119821A821B826D
:102240001C8220E030E0A901C701B6010E94E02F06
:1022500087FF09C0F7FAF094F7F8F09481E28983D8
:102260009924939401C0912C03E010E0812C9801F3
:10227000B701A601C5010E940210181619062CF01C
:10228000002319F08820B9F00CC001110AC0E1E068
:10229000F0E0EC0FFD1FE90DF11D20E1280F208378
:1022A00007C0E1E0F0E0EC0FFD1FE90DF11D8083B8
:1022B00093948824839483E0891530F001501109A8
:1022C0000C3F8FEF180799F6BE016F5F7F4FC50176
:1022D0000E94A8100F900F900F900F90DF91CF9158
:1022E0001F910F91FF90EF90DF90CF90BF90AF9034
:1022F0009F908F9008950E94862488E080934005E7
:1023000061E00C94E4284F925F926F927F928F92DB
:102310009F92AF92BF92CF92DF92EF92FF92CF93B4
:10232000DF9369017A019B0140E050E060E472E4D0
:102330008FE090E00E94F633F901E90137FD219624
:10234000D595C795A8EEB3E0A70196010E942A345F
:102350004B015C01C12CD12C76012F01662457FC66
:102360006094762CC814D904EA04FB04A8F461E054
:10237000809140050E941D29CE010E94F92760E04E
:10238000809140050E941D29CE010E94F927C40CAE
:10239000D51CE61CF71CE6CFDF91CF91FF90EF90A4
:1023A000DF90CF90BF90AF909F908F907F906F9075
:1023B0005F904F90089560E0809140050C941D2936
:1023C000CF93DF93EC0160E00E948F248EE18B8736
:1023D0001C82DF91CF910895AF92BF92CF92DF928E
:1023E000EF92FF920F931F93CF93DF93CDB7DEB79A
:1023F0006A970FB6F894DEBF0FBECDBF8C01CE0139
:1024000001967C01C12CD12C5C01C6010E9463366F
:10241000F70181937F01FFEFCF1ADF0A8AE1C81627
:10242000D10499F72D813E814F81588569817A8148
:102430008B819C810E941A2F29853A854B855C856A
:102440000E941A2F2D853E854F8558890E941A2F8C
:1024500029893A894B895C890E941A2F2D893E89E6
:102460004F89588D0E941A2F6B017C01698D70E095
:1024700080E090E00E947F309B01AC01C701B60173
:102480000E941A2F20E030E04AE253E40E941A2F03
:102490000E9451308A8D681312C065E471E080EEAD
:1024A00096E00E940D2C8AE1F501D8011D9601905D
:1024B0000D928A95E1F781E0F801848308C06EE50A
:1024C00071E080EE96E00E940D2CF80114826A966D
:1024D0000FB6F894DEBF0FBECDBFDF91CF911F9135
:1024E0000F91FF90EF90DF90CF90BF90AF90089545
:1024F000CF92DF92EF92FF920F931F93CF93DF93D0
:102500008C01EB012C813D814E815F816881798155
:102510008A819B810E941A2F288539854A855B858F
:102520000E941A2F2C853D854E855F850E941A2FAB
:10253000288939894A895B890E941A2F2C893D890B
:102540004E895F890E941A2F6B017C01688D70E0B3
:1025500080E090E00E947F309B01AC01C701B60192
:102560000E941A2F20E030E04AE253E40E941A2F22
:102570000E945130698FE12CF12C6991C7010E94B2
:102580006B368FEFE81AF80AEAE1EE16F104A9F7C4
:1025900081E0F801848368E771E080EE96E0DF91E6
:1025A000CF911F910F91FF90EF90DF90CF900C94FF
:1025B0000D2CEF92FF921F93CF93DF931F92CDB715
:1025C000DEB7162F7A01FC01638580E894E0298349
:1025D0000E94240D612F80E894E00E94CE0C298196
:1025E000813091F4422F50E0B70180E894E00E94DE
:1025F000A10C61E080E894E00F90DF91CF911F91F2
:10260000FF90EF900C94300D8FEF0F90DF91CF91F2
:102610001F91FF90EF900895CF93DF931F92CDB756
:10262000DEB7498321E0AE014F5F5F4F0E94D912B0
:102630000F90DF91CF910895EF92FF920F931F9328
:10264000CF93DF93EC01F62E8A01E22E6B8580E8B2
:1026500094E00E94240D6F2D80E894E00E94CE0C3F
:10266000813001F560E080E894E00E94300D811136
:102670002EC081E090E00E94F92721E04E2D6B856D
:1026800080E894E00E94170DE80100E010E0F12CD2
:1026900080E894E00E94760C892B31F00E151F051E
:1026A00074F002C08FEF13C081E090E00E94F92720
:1026B00081E00E151F0509F480E0819508C00F5FC9
:1026C0001F4F80E894E00E947E0C8993E1CFDF9158
:1026D000CF911F910F91FF90EF900895CF93DF93CB
:1026E000EC01AC014B5F5F4F23E06AE00E941C13DA
:1026F00081110AC08D81883439F48E81843321F4AC
:1027000081E09F81933309F080E0DF91CF910895BC
:10271000CF92DF92EF92FF920F931F93CF93DF93AD
:10272000EC016B018A0179010E94D313AE014B5F6A
:102730005F4F26E063E0CE010E941C13882321F046
:10274000992787FD909526C08C85813031F441E032
:1027500062E070E0CE010E940C138D8190E0982F12
:1027600088272E81822BF60191838083898590E0D2
:10277000982F88272A85822BF801918380838F8167
:1027800090E0982F88272885822BF70191838083FA
:1027900080E090E0DF91CF911F910F91FF90EF903B
:1027A000DF90CF9008952F923F924F925F926F9259
:1027B0007F928F929F92AF92BF92CF92DF92EF92D1
:1027C000FF920F931F93CF93DF93CDB7DEB76C9734
:1027D0000FB6F894DEBF0FBECDBF8C0162E00E9441
:1027E000A52481116EC26AE070E080E090E00E9452
:1027F000D12762E0C8010E94A524811162C2C801EC
:102800000E946E13811107C067E971E080EE96E0C7
:102810000E940D2C56C261EB71E080EE96E00E94A2
:102820000D2C0E94A2276B017C01712CBB24B39458
:1028300062E0C8010E94A52481111BC00E94A2274A
:102840006C197D098E099F09693C71058105910507
:1028500078F30E94A2276B017C017B24672DC801BD
:102860000E94D72469EC71E080EE96E00E940D2C66
:10287000DFCF63EE71E080EE96E00E940D2C64E6FF
:1028800070E080E090E00E94D1270E94A2274B01D7
:102890005C012FEF3FE7388B2F8740E050E85E87E1
:1028A0004D878FEF9FE79C878B87E0E0F0E8FA8702
:1028B000E98738872F83212C50E8352E66246394CE
:1028C0000E94A2276C197D098E099F09693C710538
:1028D0008105910548F00E94A2276B017C017624B6
:1028E000672DC8010E94D7240E94A2276819790980
:1028F0008A099B096B30710581059105E0F19E0104
:102900002F5F3F4FAE014D5F5F4FBE016B5F7F4F4B
:10291000C8010E9488138D819E814F81588584173C
:1029200095072CF02816390624F41C0102C098875C
:102930008F838B819C81EB85FC858E179F0744F0EC
:1029400029853A85281739072CF49A87898702C088
:102950009C878B8789819A814F8558898417950731
:1029600044F0ED85FE85E817F9072CF49E878D87E6
:1029700002C0988B8F8762E0C8010E94A524811154
:102980009FCF60E0C8010E94D724B101882777FD5E
:102990008095982F0E947F306B017C012F813885B4
:1029A000B901882777FD8095982F0E947F30698B29
:1029B0007A8B8B8B9C8B9B01AC01C701B6010E946B
:1029C0001A2F905820E030E040E05FE30E94B231DF
:1029D000F801658776878787908B29853A85B901C5
:1029E000882777FD8095982F0E947F302B013C012E
:1029F0004B855C85BA01882777FD8095982F0E94CA
:102A00007F306D8B7E8B8F8B988F9B01AC01C301C8
:102A1000B2010E941A2F905820E030E040E05FE3BE
:102A20000E94B231F801618B728B838B948B2D8560
:102A30003E85B901882777FD8095982F0E947F30C9
:102A40004B015C014F855889BA01882777FD809535
:102A5000982F0E947F30698F7A8F8B8F9C8F9B017C
:102A6000AC01C501B4010E941A2F905820E030E05B
:102A700040E05FE30E94B231F801658B768B878B73
:102A8000908F80E090E0A0E8BFE3818F928FA38FCA
:102A9000B48F29893A894B895C89C701B6010E94A4
:102AA000192F6B017C012D893E894F89588DC301F7
:102AB000B2010E94192FA70196010E94E42FF8018C
:102AC000658F768F878F90A3298D3A8D4B8D5C8D86
:102AD000C501B4010E94192FA70196010E94E42F9D
:102AE000F80161A372A383A394A32F813885221ACE
:102AF000330A37FE03C031942194310889859A85C1
:102B00004B855C85841B950B97FF03C09195819540
:102B100091092D853E85EF85F8892E1B3F0B37FFE8
:102B200003C0319521953109821593052CF02215AA
:102B3000330514F081E009C0281639062CF0281757
:102B4000390714F082E001C083E0F80185A369EF42
:102B500071E080EE96E00E940D2C66E172E080EE5E
:102B600096E00E94EE2BF8014585568567857089B1
:102B700021E030E080EE96E00E94C12D67E472E033
:102B800080EE96E00E940D2C64E272E080EE96E00A
:102B90000E94EE2BF801418952896389748921E0F2
:102BA00030E080EE96E00E94C12D67E472E080EE96
:102BB00096E00E940D2C62E372E080EE96E00E94A7
:102BC000EE2BF801458956896789708D21E030E048
:102BD00080EE96E00E94C12D67E472E080EE96E000
:102BE0000E940D2C60E472E080EE96E00E94EE2BD5
:102BF000F801418D528D638D748D21E030E080EEBF
:102C000096E00E94C12D67E472E080EE96E00E949B
:102C10000D2C69E472E080EE96E00E94EE2BF80144
:102C2000458D568D678D70A121E030E080EE96E0F5
:102C30000E94C12D67E472E080EE96E00E940D2CA8
:102C400062E572E080EE96E00E94EE2BF80141A171
:102C500052A163A174A121E030E080EE96E00E94D1
:102C6000C12D67E472E080EE96E00E940D2C6BE5CA
:102C700072E080EE96E00E94EE2B4AE050E0F80110
:102C800065A180EE96E00E94CF2C67E472E080EEB2
:102C900096E00E940D2CB801635F7F4FC8010E942F
:102CA000781261E0C8010E94D72462E0C8010E9446
:102CB000A5248823D1F364E670E080E090E00E94D0
:102CC000D1276C960FB6F894DEBF0FBECDBFDF9153
:102CD000CF911F910F91FF90EF90DF90CF90BF9019
:102CE000AF909F908F907F906F905F904F903F90AC
:102CF0002F900895CF93DF93EC0180E894E00E9439
:102D00000D0D61E0CE010E94D72440E760E070E045
:102D1000CE010E940C1340E261E070E0CE010E94FF
:102D20000C1381E08C8741E062E070E0CE010E94EC
:102D30000C13CE010E94EC11CE01DF91CF910C94C7
:102D4000D3136093420540934105FC0160834183A6
:102D50000C947A162F923F924F925F926F927F92CD
:102D60008F929F92AF92BF92CF92DF92EF92FF929B
:102D70000F931F93CF93DF93CDB7DEB762970FB654
:102D8000F894DEBF0FBECDBF8C010E94D3139E010D
:102D90002F5F3F4FAE014D5F5F4FBE016B5F7F4FB7
:102DA000C8010E948813882349F0682F772767FDA0
:102DB0007095872F972F0E947F30C5C0F8018481BE
:102DC0002D803E802B813C8138872F83882309F416
:102DD00078C04584568467847088818C928CA38CDB
:102DE000B48CB901882777FD8095982F0E947F3099
:102DF000F80121893289438954890E941A2FF801E8
:102E0000258D368D478D50A10E94B2310E944C30E5
:102E10006F83788789879A8769817A81882777FD88
:102E20008095982F0E947F30F8012589368947893F
:102E3000508D0E941A2FF80121A132A143A154A163
:102E40000E94B2310E944C306B877C878D879E87B1
:102E5000F80115A1113041F42B853C85B901882773
:102E600077FD8095982F32C0B101882777FD809536
:102E7000982F0E947F30A30192010E941A2FA50172
:102E800094010E94B2310E944C304B015C0112301F
:102E900089F42B853C85B901882777FD8095982F8B
:102EA0000E947F309B01AC01B401882777FD80959B
:102EB000982F17C0133019F5882777FD8095982F24
:102EC00005C0B101882777FD8095982F0E947F303B
:102ED0009B01AC01EF81F885BF01882777FD8095C4
:102EE000982F2F87388B498B5A8B0E947F302F85E4
:102EF000388949895A890E948D2F6B017C0120E015
:102F000030E0A901C701B6010E94E02F87FF0DC084
:102F10002BED3FE049EC50E4C701B6010E941A2FA7
:102F200020E030E044E353E406C020E030E044E336
:102F300053E4C701B6010E94B2312BED3FE049E4F2
:102F400050E40E94E42F62960FB6F894DEBF0FBEE5
:102F5000CDBFDF91CF911F910F91FF90EF90DF9048
:102F6000CF90BF90AF909F908F907F906F905F9029
:102F70004F903F902F90089560E00C948F240F9312
:102F80001F93CF93DF938C016F3F710519F014F0FD
:102F90006FEF70E0EB0161308FEF780714F4C1E060
:102FA000DFEFD7FD06C061E0C8010E94D724BE0153
:102FB00008C060E0C8010E94D724662777276C1BF1
:102FC0007D0BC801DF91CF911F910F910C94EF24DD
:102FD00083E495E00C94E31B83E495E00C940C1CD3
:102FE00060E00C948F24CF93DF93EC0160935F0635
:102FF00040935E0680915F0660E00E94E428809125
:103000005E06888380915F068983DF91CF91089562
:103010000C94E72460E00C948F24CF93DF93EC01B1
:1030200060936106409360068091610660E00E94B3
:10303000E428809160068883809161068983DF910E
:10304000CF9108950C94E724CF93DF93EC0160E0D7
:103050000E948F24C05CDF4F88E68883DF91CF9188
:103060000895FC01613029F430852185928583859E
:103070000DC0623029F4348525859685878506C084
:10308000633029F43089218992898389AC01632FC7
:10309000722F852F942F0895EF92FF920F931F9315
:1030A000CF93DF93C62F8A01E22E68E680E894E092
:1030B0000E94240D6C2F80E894E00E94CE0C813099
:1030C00001F560E080E894E00E94300D81112EC08F
:1030D00081E090E00E94F92721E04E2D68E680E82B
:1030E00094E00E94170DE80100E010E0F12C80E868
:1030F00094E00E94760C892B31F00E151F0574F0B8
:1031000002C08FEF13C081E090E00E94F92781E0B8
:103110000E151F0509F480E0819508C00F5F1F4F51
:1031200080E894E00E947E0C8993E1CFDF91CF91FB
:103130001F910F91FF90EF9008954F925F926F92C1
:103140007F928F929F92AF92BF92CF92DF92EF9237
:10315000FF920F931F93CF93DF93CDB7DEB72C97DA
:103160000FB6F894DEBF0FBECDBF8C01AC014E5C34
:103170005F4F2EE06BE30E944C188111C5C1F8012E
:10318000A2A8B12CBA2CAA2483A9A82AB1A2A0A2D1
:10319000E4A8F12CFE2CEE2485A9E82AF3A2E2A2F1
:1031A00086A8912C982C882487A9882A95A284A285
:1031B000448055806680778062AD70E0762F662708
:1031C00083AD682B882777FD8095982F0E947F30EC
:1031D000F80126A137A140A551A50E94192FA301EE
:1031E00092010E94E42FF801648B758B868B978B7C
:1031F00064AD70E0762F662785AD682B882777FD54
:103200008095982F0E947F30F80122A533A544A510
:1032100055A50E94192FA30192010E94E42FF801E5
:10322000608F718F828F938F66AD70E0762F6627E7
:1032300087AD682B882777FD8095982F0E947F3077
:10324000F80126A537A540A951A90E94192FA3016D
:1032500092010E94E42FF801648F758F868F978FFB
:10326000B701882777FD8095982F0E947F306B01EA
:103270007C01B401882777FD8095982F0E947F30CC
:103280009B01AC010E94B2312B013C01A7019601C8
:10329000C701B6010E94B231A30192010E941A2F08
:1032A0000E9465329B01AC01B501882777FD8095AE
:1032B000982F29873A874B875C870E947F304B0184
:1032C0005C0129853A854B855C850E948D2F20E025
:1032D00030E044E353E40E94B2312AED3FE049E498
:1032E00050E40E94E42F69837A838B839C83A50139
:1032F0009401C501B4010E94B231A30192010E9460
:103300001A2F0E9465329B01AC01C701B6010E94D1
:103310008D2F20E030E044E353E40E94B2312AEDE7
:103320003FE049E450E40E94E42F6D837E838F8365
:1033300098870E94A227C0906206D0906306E09012
:103340006406F09065066C197D098E099F090E943C
:103350007D3020E030E04AE754E40E94E42F6B0126
:103360007C010E94A227609362067093630680939B
:10337000640690936506F80184A195A118161906B4
:1033800044F5208D318D428D538DC701B6010E94C9
:10339000B2319B01AC01F80160857185828593850E
:1033A0000E94192FF801608771878287938724898B
:1033B000358946895789C701B6010E94B2319B0100
:1033C000AC01F80164857585868597850E941A2F62
:1033D00028C0F801208D318D428D538DC701B60173
:1033E0000E94B2319B01AC01F80160857185828534
:1033F00093850E941A2FF8016087718782879387CF
:103400002489358946895789C701B6010E94B2319E
:103410009B01AC01F80164857585868597850E94BE
:10342000192FF8016487758786879787F801248D9F
:10343000358D468D578DC701B6010E94B2319B0173
:10344000AC01F80160897189828993890E941A2FE1
:10345000F801608B718B828B938B20E030E040E031
:103460005FE3C701B6010E941A2F9B01AC0160E027
:1034700070E080E09FE30E94E42F6B017C019B01E0
:10348000AC0160E070E080E89FE30E94192F4B01DF
:103490005C01F8012085318542855385C701B6015D
:1034A0000E94B2312B013C01A501940169817A810E
:1034B0008B819C810E94B2319B01AC01C301B2019E
:1034C0000E941A2FF801608771878287938724856D
:1034D000358546855785C701B6010E94B2316B011B
:1034E0007C01A50194016D817E818F8198850E9468
:1034F000B2319B01AC01C701B6010E941A2FF8013D
:1035000064877587868797872C960FB6F894DEBFF9
:103510000FBECDBFDF91CF911F910F91FF90EF9024
:10352000DF90CF90BF90AF909F908F907F906F90E3
:103530005F904F9008952F923F924F925F926F92BB
:103540007F928F929F92AF92BF92CF92DF92EF9233
:10355000FF920F931F93CF93DF9300D000D0CDB78E
:10356000DEB71C0104EF11E0812C912C5401412C99
:10357000512C320119821A821B821C827C0122E3A7
:10358000E20EF11C26E0A70163E4C1010E944C1881
:10359000F10182A990E0982F882723A9822BAA27DE
:1035A00097FDA095BA2F29813A814B815C81280F24
:1035B000391F4A1F5B1F29833A834B835C8384A98D
:1035C00090E0982F882725A9822BAA2797FDA09500
:1035D000BA2F480E591E6A1E7B1E86A990E0982FAE
:1035E000882727A9822BAA2797FDA095BA2F880E96
:1035F000991EAA1EBB1E0150110921F664EFC62EAA
:10360000DD24D394E12CF12C69817A818B819C811A
:10361000A70196010E94F633CA01B9010E947F30CA
:10362000F10166A377A380A791A7C301B201A70107
:1036300096010E94F633CA01B9010E947F30F10160
:1036400062A773A784A795A7C501B401A701960136
:103650000E94F633CA01B9010E947F30F10166A7CA
:1036600077A780AB91AB0F900F900F900F90DF91E9
:10367000CF911F910F91FF90EF90DF90CF90BF906F
:10368000AF909F908F907F906F905F904F903F9002
:103690002F900895EF92FF921F93CF93DF931F9285
:1036A000CDB7DEB7162F7A0168E670E080E894E0C7
:1036B00029830E942E0D612F80E894E00E94CE0C99
:1036C0002981813091F4422F50E0B70180E894E0E5
:1036D0000E94A10C61E080E894E00F90DF91CF910F
:1036E0001F91FF90EF900C94300D8FEF0F90DF91B2
:1036F000CF911F91FF90EF900895CF93DF931F928A
:10370000CDB7DEB7498321E0AE014F5F5F4F0E9426
:103710004A1B0F90DF91CF910895CF93DF93EC0177
:1037200040E050E063E872E44C835D836E837F8306
:10373000188619861A861B861C861D861E861F867D
:10374000188A198A1A8A1B8A1C8A1D8A1E8A1F8A4D
:10375000188E198E1A8E1B8E1C8E1D8E1E8E1F8E1D
:1037600019A218A21BA21AA21DA21CA21EA21FA26D
:1037700018A619A61AA61BA61CA61DA61EA61FA63D
:1037800018AA19AA80E894E00E940D0D60E273E087
:1037900080E090E00E94D12740E06BE670E0CE012F
:1037A0000E947D1B41E06AE170E0CE010E947D1B1A
:1037B00048E06BE170E0CE010E947D1BCE01DF91FD
:1037C000CF910C949B1A21E030E0FC0131832083DF
:1037D000EE5FFE4F108211821282138234961082A5
:1037E00011821282138234961082319610823196A1
:1037F00010821182128213823496118210823296C4
:1038000010823196108211821282138234961082B5
:103810001182128213820895089560E00C948F241F
:103820004F925F926F927F928F929F92AF92BF92D0
:10383000CF92DF92EF92FF920F931F93CF93DF937C
:1038400000D000D01F92CDB7DEB78C01CE0101961B
:103850006C0185E0F60111928A95E9F760E0C801F4
:103860000E94D72464E170E080E090E00E94D127BC
:1038700061E0C8010E94D72488E290E00E94F92705
:1038800060E0C8010E94D7240E94A2274B015C017E
:1038900060E0C8010E94B62481110EC00E94A227D8
:1038A000681979098A099B096330710581059105B9
:1038B00078F3F801148215820E94A2274B015C0163
:1038C00060E0C8010E94B624882359F00E94A22714
:1038D000681979098A099B09633071058105910589
:1038E00078F3E12CF12C0E94A2274B015C0160E0EF
:1038F000C8010E94B62481110BC00E94A22768193A
:1039000079098A099B09633071058105910578F36E
:103910000E94AE274B015C010E94A2272B013C01B3
:1039200060E0C8010E94B624882359F00E94A227B3
:103930006419750986099709633071058105910538
:1039400078F30E94AE27681979098A099B09F70163
:1039500023E0F595E7952A95E1F769327105810530
:10396000910530F0EC0DFD1D8081880F816004C051
:10397000EC0DFD1D8081880F8083FFEFEF1AFF0A99
:1039800088E2E816F10409F0AECF59814B81842F0B
:1039900090E0850F911D2D8130E08217930719F477
:1039A000F801548345830F900F900F900F900F9064
:1039B000DF91CF911F910F91FF90EF90DF90CF900B
:1039C000BF90AF909F908F907F906F905F904F903F
:1039D0000895FC01611102C08481089585810895D4
:1039E0001F920F920FB60F9211240F931F932F93D4
:1039F0003F934F935F936F937F938F939F93AF9377
:103A0000BF93CF93EF93FF9382E00E945329C82F77
:103A100020916C0630916D062F5F3F4F30936D06FD
:103A200020936C068091D206843618F085E080934E
:103A3000670690916706933079F018F4923039F068
:103A400070C0943011F1953009F44AC06AC0C111B8
:103A500068C01092D20629C0C13009F062C0E0915E
:103A6000D20681E08E0F8093D206F0E080916C0642
:103A700090916D06EA59F94F808710926D06109269
:103A80006C0684E0809367064CC0C11114C0E091BD
:103A9000D20681E08E0F8093D206F0E080916C0612
:103AA00090916D06EA59F94F808710926D06109239
:103AB0006C0683E0E7CF80916C0690916D068536A9
:103AC000910578F185E0809367060E94A2276093B4
:103AD00068067093690680936A0690936B0621C00E
:103AE0000E94A227009168061091690620916A063B
:103AF00030916B06601B710B820B930B693C710557
:103B00008105910540F01092D20610926D06109238
:103B10006C0682E0B7CFC11104C010926D061092FE
:103B20006C06FF91EF91CF91BF91AF919F918F91D3
:103B30007F916F915F914F913F912F911F910F91C5
:103B40000F900FBE0F901F901895F89482E080930D
:103B5000B0008093B10094E69093B3001092B2004D
:103B60008093700078941092D2068093670608952F
:103B70000F931F93CF93DF93EC018C010C5E1F4FCB
:103B800061E972E0C8010E94782E61E972E0CE011D
:103B90004A960E94782E60E082E00E94E42882E04B
:103BA0008093660618A219A21AA21BA21B861A8667
:103BB0001C861A8A61E972E0C8010E94AE2E1B8A37
:103BC000CE010E94A51D61E083E00E94E42860E030
:103BD00083E0DF91CF911F910F910C941D291F93CA
:103BE000CF93DF93FC01A681B7818C9186588D35E8
:103BF00058F48085918583309105A1F411968C91BC
:103C000011978152893118F080E090E044C01296FB
:103C10008C9188508730C0F7158281E0808381E0E5
:103C200090E039C0833491057CF311968C91119703
:103C300083548F3248F782E090E040E050E0BA01D0
:103C40009D012F5F3F4FEC01CA0FDB1FC881C85099
:103C5000C730D0F6E901C80FD91F188117511331A9
:103C600080F47695679557954795706802968234EB
:103C7000910549F780E2858341835283638374838E
:103C8000CCCFC881C850C73008F0BECF76956795B5
:103C900057954795EBCFDF91CF911F9108950F93E3
:103CA0001F93CF93DF93EC018EE696E09F838E8384
:103CB0008091D20690E09987888780916706853049
:103CC00081F4CE010E94EF1D8C01CE01011511057A
:103CD00029F00E94A51D01E010E005C00E94A51D6D
:103CE00002C000E010E0C801DF91CF911F910F9159
:103CF0000895CB01E0EBF0E02081206220830C945A
:103D0000F927CB01E0EBF0E020812F7D20830C949C
:103D1000F92710927000262F30E040E050E060E478
:103D20007FE180E090E00E94F63381E08093B00074
:103D300089E08093B1002093B3008BEA289F212D66
:103D4000112426952093B4000895F89482E080937E
:103D5000B0008093B10094E69093B3001092B2004B
:103D6000809370007894809367061092D2068091B9
:103D7000660660E00C94E428AF92BF92CF92DF9287
:103D8000EF92FF920F931F93CF93DF93EC016A01A1
:103D90007B01590166E20E94891E68E273E2CE014E
:103DA0000E94791E64E971E1CE010E94811E00E04B
:103DB00010E060E372E0CE010A151B05ACF4C0FE12
:103DC00005C00E94791E60E476E004C00E94791E5E
:103DD00060E372E0CE010E94811EF694E794D794CE
:103DE000C7940F5F1F4FE5CF0E94791E60E070E01F
:103DF000CE01DF91CF911F910F91FF90EF90DF9057
:103E0000CF90BF90AF900C94811EEF92FF920F93D2
:103E10001F93CF93DF937C018B016AE0C8010E945E
:103E2000F22EC0E0D0E0F80184819581C817D9074F
:103E300010F5BE01C8010E94162F482F409550E092
:103E400060E070E0762F652F542F4427480F511DF6
:103E5000611D711DBA01552744274F6F20E230E0E4
:103E6000C7010E94BC1E64E170E080E090E00E9407
:103E7000D1272196D8CFC701DF91CF911F910F9104
:103E8000FF90EF900C94A51E60E00C948F2461309D
:103E900049F40E94E7248A5E91402091D506309132
:103EA000D6060AC0623059F40E94EB248A5E914023
:103EB0002091D3063091D406820F931F089580E09D
:103EC00090E00895CF92DF92EF92FF920F931F93AD
:103ED000CF93DF93EC01162FF42EE52ED22E106C2B
:103EE00061E08C810E941D2960E08D810E941D2966
:103EF00008E060E08C810E941D29612F61708D8136
:103F00000E941D2961E08C810E941D291695015097
:103F100081F7CF2C0F2D1E2D802F8C198D15B0F40D
:103F2000F801E1908F0188E0F82E60E08C810E941A
:103F30001D296E2D60788D810E941D2961E08C8184
:103F40000E941D29EE0CFA9481F7E6CF60E08C8187
:103F50000E941D2960E08D810E941D2961E08C81F5
:103F60000E941D2961E08D81DF91CF911F910F91FA
:103F7000FF90EF90DF90CF900C941D290C94862435
:103F80000F931F93CF93DF93EC01162F61E08C8189
:103F90000E941D2960E08D810E941D2908E060E0DB
:103FA0008C810E941D29612F61708D810E941D29C5
:103FB00061E08C810E941D291695015081F760E017
:103FC0008C810E941D2960E08D810E941D2961E085
:103FD0008C810E941D2961E08D81DF91CF911F911D
:103FE0000F910C941D2920E030E0FC01E20FF31F3B
:103FF00010862F5F3F4F20313105B9F721E0FC01DA
:1040000026831782AC01485F5F4F20E160E00C948B
:10401000621F693018F4662321F001C068E0615026
:10402000686060680C94C01FCF93DF93EC01E62FAB
:10403000F0E0EE0FFF1FE65FFE4F80818C839181E1
:104040009D8361E00E94E42861E08D810E94E42864
:1040500061E08C810E941D2961E08D810E941D29F3
:1040600060E4CE010E94C01F65E0CE010E940920DD
:10407000CE01DF91CF910C94F31FFC01668308956C
:104080008F929F92AF92BF92CF92DF92EF92FF9268
:104090000F931F93CF93DF9360310CF085C04830AE
:1040A0000CF082C0222309F47FC0FC013681A42FCA
:1040B000BB27A7FDB095E8E0F0E0EA1BFB0B5FEF44
:1040C00001C0550FEA95EAF74801C0E0D0E0772734
:1040D00067FD70956C01C60ED71EAA24BB24AA1AD0
:1040E000BB0A332379F1C21778F58E01060F171F2B
:1040F00017FD1AC07601EC0EFD1EF7013085352341
:10410000F4010081141644F410E00A2E02C0159543
:1041100007950A94E2F705C00A2C01C0000F0A9423
:10412000EAF7032BF70100872196FFEF8F1A9F0A0A
:10413000DACF8E01060F171F17FF19C02196FFEF68
:104140008F1A9F0AC217A8F3AC01485F5F4F20E1A6
:1041500060E0DF91CF911F910F91FF90EF90DF9082
:10416000CF90BF90AF909F908F900C94621F76017C
:10417000EC0EFD1EF70130853523F401008110E0BF
:104180000095109514163CF40A2E02C0159507955B
:104190000A94E2F705C00A2C01C0000F0A94EAF75E
:1041A000032BF7010087CACFDF91CF911F910F91A9
:1041B000FF90EF90DF90CF90BF90AF909F908F9047
:1041C00008958F929F92AF92BF92CF92DF92EF921B
:1041D000FF920F931F93CF93DF93EC01088D198DFE
:1041E000101611060CF073C080E090E0F82E8017D6
:1041F000910751F001968131910509F4E7C0FE0164
:10420000E80FF91F1782F2CF40E1841709F4DEC0EE
:104210000B8D1C8DE12C67E0D62E70E2C72E4E2D43
:1042200050E0401751070CF049C0B12CDE01A40F3B
:10423000B51F5D962B2D30E0D29EC001D39E900D10
:10424000112482539E4FFC016491603441F1FC01C2
:104250006491EC91FF27E7FDF09570E0E617F70712
:10426000E1F4D29EB001D39E700D112420E030E025
:1042700061537E4FFB01E20FF31FE491DE01AF0DAE
:10428000B11D1896EC93F394FFE0FF1540F02F5FFB
:104290003F4F2630310571F702C0B394CBCFFC01FC
:1042A0008491803429F4FE01E40FF51FC58EEA9451
:1042B000E394FFE0FF1508F0B2CF88C0FE01EF0DD8
:1042C000F11D1086F39440E1F412F8CF7FC0EB8C1F
:1042D000FC8C2AEFA7012403C001259F900D112417
:1042E0000817190759F480E090E0FE01E80FF91F64
:1042F0001086019680319105C1F768C022273327C7
:10430000201B310BC90166E070E00E94C033398F79
:10431000288F9B0190E047E0B42E50E2A52E2E1589
:104320003F050CF04BC0912CDE01A20FB31F5D9630
:10433000692D70E0B69EA001B79E500D1124425326
:104340005E4FFA01D490F0E4DF1631F1FA01849067
:10435000CC90DD24C7FCD094E82DF0E0CE16DF062B
:10436000C1F4B69ED001B79EB00D1124FD01E80F37
:10437000F11D87FDFA95E153FE4F6491FE01E90FAF
:10438000F11D60879F5F903130F48F5F863071F749
:1043900002C09394CDCF80E0FA014491403431F4CF
:1043A000FE01E20FF31FA58E215031092F5F3F4F11
:1043B000903108F4B4CF198F088F08C0FE01E90FBF
:1043C000F11D10869F5F9031C9F7F5CF4A8D5527B3
:1043D00047FD509527E030E0241B350B80E090E04E
:1043E00037FD12C0FE01E80FF91F4085022E01C003
:1043F000440F0A94EAF7408701968031910591F7BE
:104400008E818823A1F01FC047505109FE01E80F9B
:10441000F91F208530E0042E02C0359527950A94B7
:10442000E2F7208701968031910581F7E9CF80E09E
:1044300090E0FE01E80FF91F208520952087019666
:1044400080319105B1F7AE01485F5F4F20E160E038
:10445000CE01DF91CF911F910F91FF90EF90DF90F0
:10446000CF90BF90AF909F908F900C94621F0F934E
:104470001F93FC0181E08783148E138E038D148DAE
:10448000D901A00FB11F8C91DF01A00FB11F8823AC
:1044900019F00331110564F05D961C922AEF200398
:1044A000C001219F900D11246817790774F007C08F
:1044B0005D968C930F5F1F4F148F038FDFCFCB015F
:1044C0006131710514F080E190E0918F808F40316F
:1044D0000CF04FE047FD4FEF428FCF011F910F913E
:1044E0000C94E120CF93DF93DC01362F862F6AE016
:1044F0000E94A033C82FD0E0FE01EE0FFF1FEC0F8B
:10450000FD1FE055FE4FE4911896EC931897FE01BD
:10451000EE0FFF1FEC0FFD1FEF54FE4FE4911996B5
:10452000EC931997FE01EE0FFF1FEC0FFD1FEE54E9
:10453000FE4FE4911A96EC931A971B961C921B97C8
:10454000832F0E94A033692F70E0FB01EE0FFF1F45
:10455000E60FF71FE055FE4FE4911C96EC931C9775
:10456000FB01EE0FFF1FE60FF71FEF54FE4FE49124
:104570001D96EC931D97FB01EE0FFF1FE60FF71F33
:10458000EE54FE4FE4911E96EC931E97842F6AE042
:104590000E94A033682F70E0FB01EE0FFF1FE60FB3
:1045A000F71FE055FE4FE4915196EC935197FB01B4
:1045B000EE0FFF1FE60FF71FEF54FE4FE4915296E8
:1045C000EC935297FB01EE0FFF1FE60FF71FEE541F
:1045D000FE4FE4915396EC93539754961C92549744
:1045E000842F6AE00E94A033892F90E0FC01EE0F37
:1045F000FF1FE80FF91FE055FE4FE4915596EC932D
:104600005597FC01EE0FFF1FE80FF91FEF54FE4F07
:10461000E4915696EC935697FC01EE0FFF1FE80FBE
:10462000F91FEE54FE4FE4915796EC9357972223CF
:1046300041F088E21F968C931F9750968C93509769
:1046400006C01F961C921F9750961C925097169664
:104650008C911697882351F0AD01485F5F4F20E1A0
:1046600060E0CD01DF91CF910C94621F80E090E07B
:10467000FD01E80FF91F20852095208701968031E4
:104680009105B1F7E9CF089570E0FB01E851FC4FC7
:10469000E491DC01EC93FB01E450FC4FE491F0E089
:1046A000EE0FFF1FE05FFB4F25913491FC01328339
:1046B000218308951F93CF93DF93FC011081C18163
:1046C000D2819981812F8095892389838A81812B49
:1046D0008A838AE090E00E94F9279881912381E003
:1046E00009F480E0DF91CF911F910895FF920F931D
:1046F0001F93CF93DF93FC011081C181D281F89485
:104700008981F12EF0948F2189838A81812B8A837C
:1047100078940DE7015041F182E090E00E94F92782
:1047200088818123B9F3F8948A818F218A838981D2
:10473000812B8983789480EE91E00E94F927F89488
:1047400089818F2189838A81812B8A8386E490E005
:104750000E94F9278881812301E009F000E0789424
:104760008AE991E00E94F927802FDF91CF911F9174
:104770000F91FF9008951F93CF93DF93FC01108159
:10478000C181D281912F909560FF12C0F8948A81E7
:1047900089238A838981812B89838AE090E00E9422
:1047A000F9278A81812B8A83789487E390E011C06E
:1047B000F8948A8189238A838981812B898381E482
:1047C00090E00E94F9278A81812B8A83789485E082
:1047D00090E0DF91CF911F910C94F9270F931F93D5
:1047E000CF93DF93FC011081C181D281F89489813C
:1047F000812B89838A81012F009580238A8383E01E
:1048000090E00E94F9278981802389838A81812B06
:104810008A838AE090E00E94F927C881789485E332
:1048200090E00E94F9271C2381E009F480E0DF91E9
:10483000CF911F910F910895CF92DF92EF92FF9247
:104840000F931F93CF93DF931F92CDB7DEB76C0109
:10485000E62E08E010E0FF24F39461E09F2D9E21F6
:1048600009F460E0C60149830E94BB23FF0C01509C
:10487000110949810115110581F741111DC0F894F5
:10488000D6011196ED91FC91129791818C918095B2
:10489000892381831196ED91FC91129782819C91DD
:1048A000892B82831196ED91FC91129792818C91C4
:1048B00080958923828378940F90DF91CF911F9107
:1048C0000F91FF90EF90DF90CF900895EF92FF92BD
:1048D0000F931F93CF93DF938C01C8E0D0E0F12CAE
:1048E000EE24E394C8010E94EE238111FE28EE0C11
:1048F0002197C1F78F2DDF91CF911F910F91FF90DD
:10490000EF90089540E06CEC0C941C24FC01809125
:104910000A01808380910B01818312820895DC015A
:10492000E62FF0E0EE0FFF1FE65FFE4F80818C93D5
:10493000818111968C93119712966C930895FC01C6
:1049400082810895FC0183810895CF93DF93EC0168
:1049500088810E94E42888810E94532921E0892BC4
:1049600009F420E0822FDF91CF910895CF93DF9358
:10497000EC0189810E94E42889810E94532921E069
:10498000892B09F420E0822FDF91CF9108951F93A6
:10499000CF93DF93EC01162F61E088810E94E42819
:1049A000612F8881DF91CF911F910C941D291F9356
:1049B000CF93DF93EC01162F61E089810E94E428F8
:1049C000612F8981DF91CF911F910C941D29FC01EA
:1049D00080810C943F28FC0181810C943F28FC01CC
:1049E00080810C945C28DC01E62FF0E0EE0FFF1FC5
:1049F000E65FFE4F80818C93818111968C93119795
:104A000012966C930895DC01E62FF0E0EE0FFF1F85
:104A1000E65FFE4F80818C93818111968C93119774
:104A200012966C93129713964C930895FC01808113
:104A30000895FC0181810895DC0112966C93129710
:104A4000E62FF0E0EE0FFF1FE65FFE4F918111961B
:104A50009C93119780818C934230D9F4292F30E0B8
:104A6000F901E851FC4FE4911C96EC931C97F90175
:104A7000E450FC4FE491F0E0EE0FFF1FE65EFB4FC9
:104A80002591349119963C932E93189761E0892FC4
:104A900019C0282F30E0F901E851FC4FE4911C9631
:104AA000EC931C97F901E450FC4FE491F0E0EE0F19
:104AB000FF1FE65EFB4F2591349119963C932E9390
:104AC000189761E00C94E428DC01862F262F30E053
:104AD000F901E851FC4FE4911C96EC931C97F90105
:104AE000E450FC4FE491F0E0EE0FFF1FE65EFB4F59
:104AF0002591349119963C932E93189761E00C946C
:104B0000E428CF93DF93EC01262F30E03D832C8304
:104B100023E0629FC00111240E9435349F838E835D
:104B2000892B21F483E692E00E94363680E090E003
:104B30004C815D819A01220F331F240F351F82178C
:104B4000930738F4EE81FF81E80FF91F1082019678
:104B5000EFCFDF91CF9108950F931F93CF93DF9302
:104B60001F92CDB7DEB78C0149830E948F24D801F4
:104B700011968C91282F30E0F901E851FC4FE49117
:104B8000D8011C96EC93F901E450FC4FE491F0E05D
:104B9000EE0FFF1FE65EFB4F25913491F801318740
:104BA000208761E00E94E4284981642FC8010F90AA
:104BB000DF91CF911F910F910C9481250F93FC01F0
:104BC000A62FB0E084819581A817B907B8F4862F85
:104BD000880F860F90E0A681B781A80FB91F2C938C
:104BE000A681B781A80FB91F11964C930680F78153
:104BF000E02DE80FF91F028381E001C080E00F91F2
:104C00000895CF92DF92EF92FF920F931F93CF936D
:104C1000DF937C01142FD22EC02E611113C0C0E08F
:104C2000D0E0F70184819581C817D90748F40C2D8D
:104C30002D2D412F6C2FC7010E94DE252196F1CF2B
:104C400081E004C061500E94DE2580E0DF91CF91B9
:104C50001F910F91FF90EF90DF90CF9008950F93E9
:104C6000022F242F462F60E00E9401260F91089505
:104C70000F931F93D8013FB7F8949C91822F809592
:104C80008923292BFB01460F571FE417F50781F0F5
:104C9000919168E02C9300C097FF8C93990F00C00E
:104CA00000C000C008F48C9300C06A9599F7EDCF5E
:104CB0003FBF1F910F9108950F931F93FC01008533
:104CC000118524813581A901440F551F420F531FBF
:104CD0006681778124850E9438261F910F9108955F
:104CE000CF93DF93EC018E819F810E94CD341F8290
:104CF0001E82DF91CF910895CF93DF93EC010E9444
:104D00008624CE010496DF91CF910C9443231F9308
:104D1000CF93DF93EC01142F0E940325123011F47E
:104D2000698101C06881CE010496DF91CF911F9106
:104D30000C944423CF92DF92EF92FF920F931F9334
:104D4000CF93DF93CDB7DEB72C970FB6F894DEBFC5
:104D50000FBECDBF8C010C5F1F4FC8010E94762390
:104D6000C8010E94822440E064E4C8010E941C241F
:104D70000E94A2276B017C01C8010E945A23811165
:104D80000BC00E94A2276C197D098E099F096E3EF7
:104D900072408105910580F3C8010E947623C80105
:104DA0000E94822440E06EEBC8010E941C24CE01C8
:104DB00001967C016E0196E0C90ED11CC8010E94CB
:104DC0006624F70181937F01EC15FD05B9F76A812F
:104DD00070E0762F66278981682B882777FD80957C
:104DE000982F0E947F3020E030E040E85DE30E9491
:104DF000B2312C960FB6F894DEBF0FBECDBFDF9157
:104E0000CF911F910F91FF90EF90DF90CF90089579
:104E100060E00C948F240F931F93CF93DF9300D007
:104E200000D0CDB7DEB78C019A01AB0160E02983D9
:104E30003A834B835C830E94D72482E090E00E94F7
:104E4000F92761E0C8010E94D7248AE090E00E941F
:104E5000F92760E0C8010E94D72460E0F801818151
:104E60000E94E42829813A814B815C8161E0F8014C
:104E700081810F900F900F900F90DF91CF911F9134
:104E80000F910C947C2927E3269FA001279F500DAA
:104E9000112448535F4F60E070E00E940B270E948E
:104EA0007F3020E030E048E652E40E94E42F08958D
:104EB0001F920F920FB60F9211242F933F938F934F
:104EC0009F93AF93BF938091D8069091D906A091FC
:104ED000DA06B091DB063091D70623E0230F2D3799
:104EE00020F40196A11DB11D05C026E8230F0296EE
:104EF000A11DB11D2093D7068093D8069093D906A3
:104F0000A093DA06B093DB068091DC069091DD0673
:104F1000A091DE06B091DF060196A11DB11D809320
:104F2000DC069093DD06A093DE06B093DF06BF910A
:104F3000AF919F918F913F912F910F900FBE0F9046
:104F40001F9018952FB7F8946091D8067091D906E4
:104F50008091DA069091DB062FBF08953FB7F89451
:104F60008091DC069091DD06A091DE06B091DF060F
:104F700026B5A89B05C02F3F19F00196A11DB11DB4
:104F80003FBF6627782F892F9A2F620F711D811DD1
:104F9000911D42E0660F771F881F991F4A95D1F730
:104FA0000895CF92DF92EF92FF92CF93DF936B0140
:104FB0007C010E94AE27EB01C114D104E104F1048D
:104FC00089F00E94182F0E94AE276C1B7D0B683E53
:104FD000734090F381E0C81AD108E108F108C85184
:104FE000DC4FEACFDF91CF91FF90EF90DF90CF9031
:104FF00008958230910538F0880F991F880F991F06
:1050000005970197F1F70895789484B5826084BD7F
:1050100084B5816084BD85B5826085BD85B58160BC
:1050200085BDEEE6F0E0808181608083E1E8F0E01C
:105030001082808182608083808181608083E0E84B
:10504000F0E0808181608083E1EBF0E0808184602A
:105050008083E0EBF0E0808181608083EAE7F0E02C
:105060008081846080838081826080838081816090
:1050700080838081806880831092C10008958E3083
:1050800008F08E5087702091200190E4299F9001B4
:105090001124822B80937C0080917A00806480931D
:1050A0007A0080917A0086FDFCCF80917800209173
:1050B000790090E0922B08951F93CF93DF93182FE0
:1050C000EB0161E00E94E428209711F460E004C045
:1050D000CF3FD10539F461E0812FDF91CF911F914E
:1050E0000C941D29E12FF0E0EC52FC4FE491E330E9
:1050F000F9F048F4E130B9F0E230A1F584B580620E
:1051000084BDC8BD34C0E730E9F0E83019F1E430BF
:1051100049F580918000806280938000D0938B005D
:10512000C0938A0024C084B5806884BDC7BD1FC0F9
:1051300080918000806880938000D0938900C09324
:10514000880015C08091B00080688093B000C09343
:10515000B3000DC08091B00080628093B000C09316
:10516000B40005C0C038D1050CF0B5CFAFCFDF918A
:10517000CF911F910895833081F028F4813099F008
:105180008230A1F008958730A9F08830B9F08430DA
:10519000D1F4809180008F7D03C0809180008F7753
:1051A00080938000089584B58F7702C084B58F7D89
:1051B00084BD08958091B0008F7703C08091B000C6
:1051C0008F7D8093B0000895CF93DF9390E0FC0132
:1051D000E851FC4F2491FC01E450FC4F849188235A
:1051E00049F190E0880F991FFC01EC5DFB4FA59100
:1051F000B491865E9B4FFC01C591D4919FB761111C
:1052000008C0F8948C91209582238C938881822306
:105210000AC0623051F4F8948C91322F3095832378
:105220008C938881822B888304C0F8948C91822B84
:105230008C939FBFDF91CF9108950F931F93CF93CE
:10524000DF931F92CDB7DEB7282F30E0F901EC5283
:10525000FC4F8491F901E851FC4F1491F901E4509D
:10526000FC4F04910023C9F0882321F069830E9438
:10527000BB286981E02FF0E0EE0FFF1FE65EFB4FD9
:10528000A591B4919FB7F8948C91611103C01095CA
:10529000812301C0812B8C939FBF0F90DF91CF9111
:1052A0001F910F910895CF93DF93282F30E0F901DC
:1052B000EC52FC4F8491F901E851FC4FD491F90173
:1052C000E450FC4FC491CC2391F081110E94BB2883
:1052D000EC2FF0E0EE0FFF1FE05FFB4FA591B491C4
:1052E0002C912D2381E090E021F480E002C080E049
:1052F00090E0DF91CF9108950F931F93762F90E068
:10530000FC01E851FC4F6491FC01E450FC4FE49136
:105310007111762FF0E0EE0FFF1FE05FFB4F8591DC
:10532000949189019A013F70472F0E9447026115AD
:1053300071058105910531F06F5F7F4F8F4F9F4F52
:105340009F7003C060E070E0CB011F910F91089542
:10535000FC01818D228D90E0805C9F4F821B910922
:105360008F7399270895FC01918D828D981731F0E4
:10537000828DE80FF11D858D90E008958FEF9FEFEE
:105380000895FC01918D828D981761F0828DDF0167
:10539000A80FB11D5D968C91928D9F5F9F73928F28
:1053A00090E008958FEF9FEF089585E49BE2892BAD
:1053B00049F080E090E0892B29F00E94452B811173
:1053C0000C9400000895FC01848DDF01A80FB11D2D
:1053D000A35ABF4F2C91848D90E001968F7399272B
:1053E000848FA689B7892C93A089B1898C91806418
:1053F0008C93938D848D981306C00288F389E02DD9
:1054000080818F7D80830895CF93DF93EC01888D19
:105410008823C9F0EA89FB89808185FD05C0A889B8
:10542000B9898C9186FD0FC00FB607FCF5CF80813E
:1054300085FFF2CFA889B9898C9185FFEDCFCE0188
:105440000E94E329E7CFDF91CF910895CF92DF92B9
:10545000FF920F931F93CF93DF931F92CDB7DEB7C9
:105460006C0181E0D60158968C9358975B969C917D
:105470005B975C968C915C97981307C05096ED9162
:10548000FC915197808185FD2EC0F601038D10E0BF
:105490000F5F1F4F0F731127F02EF601848DF81246
:1054A00011C00FB607FCF9CFD6015096ED91FC91D3
:1054B0005197808185FFF1CFC60169830E94E3295E
:1054C0006981EBCF838DE80FF11DE35AFF4F6083B5
:1054D000D6015B960C935B975296ED91FC91539796
:1054E000808180620CC0D6015696ED91FC91579751
:1054F00060835096ED91FC91519780818064808308
:1055000081E090E00F90DF91CF911F910F91FF907C
:10551000DF90CF900895BF92CF92DF92EF92FF92EB
:10552000CF93DF93EC016A017B01B22EE889F98900
:1055300082E08083411581EE580761057105A1F075
:1055400060E079E08DE390E0A70196010E94D433FA
:1055500021503109410951095695479537952795AD
:10556000211580E1380798F0E889F989108260E810
:1055700074E88EE190E0A70196010E94D433215097
:105580003109410951095695479537952795EC857D
:10559000FD853083EE85FF852083188EEC89FD899B
:1055A000B082EA89FB89808180618083EA89FB89F6
:1055B000808188608083EA89FB898081806880831C
:1055C000EA89FB8980818F7D8083DF91CF91FF9075
:1055D000EF90DF90CF90BF9008951F920F920FB67B
:1055E0000F9211242F938F939F93EF93FF93E0914A
:1055F000F006F091F1068081E091F606F091F70651
:1056000082FD12C090818091F9068F5F8F73209187
:10561000FA06821751F0E091F906F0E0E052F94FF6
:10562000958F8093F90601C08081FF91EF919F9142
:105630008F912F910F900FBE0F901F9018951F9272
:105640000F920FB60F9211242F933F934F935F93B6
:105650006F937F938F939F93AF93BF93EF93FF933A
:1056600080EE96E00E94E329FF91EF91BF91AF9108
:105670009F918F917F916F915F914F913F912F916A
:105680000F900FBE0F901F90189580EE96E00E942D
:10569000A82921E0892B09F420E0822F0895109297
:1056A000E3061092E20688EE93E0A0E0B0E080937B
:1056B000E4069093E506A093E606B093E70683E838
:1056C00092E09093E1068093E00685EC90E0909361
:1056D000ED068093EC0684EC90E09093EF068093C7
:1056E000EE0680EC90E09093F1068093F00681EC5A
:1056F00090E09093F3068093F20682EC90E0909312
:10570000F5068093F40686EC90E09093F70680937C
:10571000F6061092F9061092FA061092FB06109205
:10572000FC06089508950E9404280E94922B0E946E
:105730009002C5EDD9E20E94B8092097E1F30E94DA
:10574000D529F9CFCF92DF92EF92FF920F931F935B
:10575000CF93DF936C017A01EB01E60EF71E00E0B8
:1057600010E0CE15DF0561F06991D601ED91FC9155
:105770000190F081E02DC6010995080F191FF1CFA6
:10578000C801DF91CF911F910F91FF90EF90DF90B3
:10579000CF9008956115710581F0DB010D90002017
:1057A000E9F7AD0141505109461B570BDC01ED9162
:1057B000FC910280F381E02D099480E090E008954F
:1057C000DC01ED91FC91DB0114964D915C911597F4
:1057D0006D917C910280F381E02D09940C94CA2B89
:1057E000DC01ED91FC910190F081E02D09946FE8CE
:1057F00072E00C94CA2B0F931F93CF93DF93EC01AD
:105800000E94E02B8C01CE010E94F72B800F911F8C
:10581000DF91CF911F910F9108950F931F93CF9315
:10582000DF93EC010E94CA2B8C01CE010E94F72B62
:10583000800F911FDF91CF911F910F9108958F924B
:105840009F92AF92BF92CF92DF92EF92FF920F930F
:105850001F93CF93DF93CDB7DEB7A1970FB6F89420
:10586000DEBF0FBECDBF7C01C42EE52FCB01D22EF3
:1058700019A221E02D1510F02AE0D22E8E010F5D25
:105880001F4F8D2C912CA12CB12C6C2D7E2FA5019E
:1058900094010E94D4338C2DD29E80191124015082
:1058A00011098A3014F4805D01C0895CF80180839D
:1058B000211531054105510521F0C22EE32FCA0102
:1058C000E4CFB801C7010E94CA2BA1960FB6F89485
:1058D000DEBF0FBECDBFDF91CF911F910F91FF9023
:1058E000EF90DF90CF90BF90AF909F908F900895F2
:1058F000CF92DF92EF92FF920F931F93CF93DF939C
:10590000EC016A017B012115310579F4E881F98107
:105910000190F081E02D642FDF91CF911F910F91C5
:10592000FF90EF90DF90CF9009942A303105E9F491
:1059300077FF1AC06DE20E94F02B8C014427552797
:10594000BA014C195D096E097F092AE0CE010E9457
:105950001F2C800F911FDF91CF911F910F91FF900E
:10596000EF90DF90CF9008952AE0B701A601CE0115
:10597000DF91CF911F910F91FF90EF90DF90CF902B
:105980000C941F2C2115310541F4DC01ED91FC91A3
:105990000190F081E02D642F09940C941F2C9A0142
:1059A000462F50E060E070E00C94C22C4F925F9262
:1059B0006F927F928F929F92AF92BF92CF92DF921F
:1059C000EF92FF920F931F93CF93DF93EC016A0145
:1059D0007B01B22E9A01AB01C701B6010E94A6322B
:1059E000882319F062E972E027C026013701E894A4
:1059F00077F82FEF3FEF4FE75FE7C301B2010E9457
:105A0000A63281110DC02FEF3FEF4FE75FE7C301D3
:105A1000B2010E94E02F18161CF466E972E00CC077
:105A20002FEF3FEF4FE75FE4C701B6010E94A731B8
:105A30001816ACF46AE972E0CE01DF91CF911F91A4
:105A40000F91FF90EF90DF90CF90BF90AF909F901D
:105A50008F907F906F905F904F900C94CA2B2FEF98
:105A60003FEF4FE75FECC701B6010E94E02F87FDD3
:105A7000E1CF20E030E0A901C701B6010E94E02F8C
:105A800087FF0AC06DE2CE010E94F02B8C01F7FA6D
:105A9000F094F7F8F09402C000E010E0A12C60E070
:105AA00070E080E09FE3AB1441F020E030E040E2A2
:105AB00051E40E94E42FA394F6CF9B01AC01C701EF
:105AC000B6010E941A2F6B017C010E9451302B01FC
:105AD0003C010E947D309B01AC01C701B6010E94D0
