:100000000C9403010C942B010C942B010C942010E4
:100010000C9420100C9420100C942B010C943A1F7B
:100020000C942B010C942B010C942B010C94570A6B
:100030000C942B010C942B010C942B010C942B0190
:100040000C941F280C942B010C94D02B0C94022C94
:100050000C942B010C942B010C942B010C942B0170
:100060000C94000E0C942B01B308000714072E0704
:100070002E07470790082E07410941094109410908
:10008000410941094109A5076007B907410941092B
:100090004109EA074109260845086708410941095D
:1000A00041094109C208CA08410941094109DF085B
:1000B000F60841094109410941094109410941093C
:1000C0004109410941094109410941092809084AF1
:1000D000D73B3BCE016E84BCBFFDC12F3D6C74315C
:1000E0009ABD56833DDA3D00C77F11BED9E4BB4CB3
:1000F0003E916BAAAABE000000803F08000000BE2F
:10010000922449123EABAAAA2ABECDCCCC4C3E00CA
:10011000000080BEABAAAAAA3E00000000BF0000FB
:1001200000803F0000000000084178D3BB4387D126
:10013000133D190E3CC3BD4282AD2B3E68EC827666
:10014000BED98FE1A93E4C80EFFFBE01C4FF7F3FC7
:10015000000000000007634236B79BD8A71A396831
:100160005618AEBAAB558C1D3CB7CC5763BD6DED80
:10017000FD753EF6177231BF000000803F003F065C
:100180005B4F666D7D077F6F777C395E7971BF86C7
:10019000DBCFE6EDFD87FFEFF7FCB9DEF9F10040BC
:1001A0000000000800020100000304070000000036
:1001B0000000000001020408102040800102040831
:1001C00010200102040810200404040404040404A0
:1001D0000202020202020303030303030000000001
:1001E00023002600290000000000250028002B0025
:1001F00000000000240027002A00F4051E0D25152C
:10020000322C4806291511241FBECFEFD8E0DEBFDF
:10021000CDBF11E0A0E0B1E0E8EAFAE602C0059047
:100220000D92A83CB107D9F726E0A8ECB1E001C0D7
:100230001D92A43FB207E1F711E0C2E0D2E004C092
:100240002297FE010E94C432CA3FD107C9F70E941B
:10025000762C0C9447350C940000CF92DF92EF92ED
:10026000FF920F931F93E82FF92F05C0015011093A
:100270002109310961F1908196239417B9F305C0E2
:10028000015011092109310911F19081962394132C
:10029000F7CFC12CD12CE12CF12C0AC08FEFC81A5A
:1002A000D80AE80AF80A0C151D052E053F0579F055
:1002B00080818623841791F36C2D7D2D8E2D9F2DAB
:1002C0001F910F91FF90EF90DF90CF90089560E025
:1002D00070E080E090E01F910F91FF90EF90DF9031
:1002E000CF900895CF93DF93CDB7DEB72A970FB69F
:1002F000F894DEBF0FBECDBF61E08DE00E94AB2958
:1003000061E08DE00E94E4296CE271E080E090E021
:100310000E94982860E08DE00E94E42926E040E0F9
:1003200052EC61E070E08DE496E00E94522B64EFA5
:1003300071E080E090E00E94982861E083E10E94F3
:10034000AB2961E083E10E94E42964E670E080E08B
:1003500090E00E94982861E083E10E94AB2960E070
:1003600083E10E94E42961E0CE0101960E94091513
:100370008AE0FE013196A6E5B2E001900D928A95E1
:10038000E1F762E0CE0101960E9409158AE0FE01C4
:100390003196A0E6B2E001900D928A95E1F786E5EC
:1003A00092E00E94EA1580E692E00E94EA1564EF6E
:1003B00071E080E090E00E94982840E050E0BA01AF
:1003C00086E592E00E94F61540E050E0BA0180E632
:1003D00092E00E94F61585EF92E00E94D81A2A96C4
:1003E0000FB6F894DEBF0FBECDBFDF91CF91089559
:1003F00020914E02FC01222319F0EA51FE4F02C067
:10040000E65EFD4F8081089520914E02FC0122237B
:1004100019F0EA51FE4F02C0E65EFD4F6083089579
:100420008DE496E00C94C72CCF93DF93EC010E94EF
:10043000F80180936A02CE0101960E94F801809330
:100440006B0280916A0290916B02DF91CF910895C7
:100450000F931F93CF93DF93EC010E94F8010CE6FA
:1004600012E0F8018083CE0101960E94F80180938A
:100470006D02CE0102960E94F80180936E02CE01B9
:1004800003960E94F80180936F02F80160817181E8
:1004900082819381DF91CF911F910F910895E1EDBA
:1004A000F1E020E030E0419151914817590791F077
:1004B000452B41F4F901EE0FFF1FEF52FE4F9183E0
:1004C000808308C02F5F3F4F2830310561F780E0FF
:1004D00090E00895C9010895AF92BF92CF92DF9244
:1004E000EF92FF920F931F93CF93DF93CDB7DEB7B9
:1004F000E6970FB6F894DEBF0FBECDBF8C0186E045
:1005000090E00E94F801D82EE82EF12C0C30110555
:1005100009F4E4C14CF50830110509F426C2F4F4DD
:100520000330110509F4A1C20530110509F04BC3D0
:1005300086E090E00E9414028C0169E08BE693E073
:100540000E94BD21B8018BE693E00E94571488E019
:1005500090E00E9414028C016AE02AC00A30110562
:1005600009F10CF469C238C20132110509F4F6C26E
:100570006CF40E31110509F4B7C20032110509F40B
:10058000BFC20431110509F01EC386C2083211052D
:10059000C9F00233110509F404C30232110509F050
:1005A00012C3BBC287E090E00E9414028C016D2D43
:1005B0008BE693E00E94BD21B8018BE693E00E9498
:1005C000571401C387E090E00E9414028C0189E077
:1005D00090E00E9414025C0181E0E816F10409F049
:1005E000BBC061E0CE0101960E9424248B819C81D6
:1005F000AD81BE818093890290938A02A0938B0281
:10060000B0938C028F8180938D0288859985AA850D
:10061000BB8580938E0290938F02A0939002B0933B
:1006200091028C859D85AE85BF85809392029093C3
:100630009302A0939402B093950288899989AA891C
:10064000BB898093960290939702A0939802B093EF
:1006500099028C899D89AE89BF8980939A02909373
:100660009B02A0939C02B0939D02888D998DAA8DC8
:10067000BB8D80939E0290939F02A093A002B093A3
:10068000A1028C8D9D8DAE8DBF8D8093A202909323
:10069000A302A093A402B093A50288A199A1AAA144
:1006A000BBA18093A6029093A702A093A802B09347
:1006B000A9028CA19DA1AEA1BFA18093AA02909393
:1006C000AB02A093AC02B093AD0288A599A5AAA5F0
:1006D000BBA58093AE029093AF02A093B002B093FB
:1006E000B1028CA59DA5AEA5BFA58093B202909343
:1006F000B302A093B402B093B50288A999A9AAA99C
:10070000BBA98093B6029093B702A093B802B093AE
:10071000B9028CA98093BA028DA98093BB02A5016E
:10072000662757FD6095762F87E892E00E9428267D
:10073000B801882777FD8095982F0E94302F6B0194
:100740007C01AB01BC0187E892E00E943F26B70123
:10075000A60187E892E0BFC082E0E816F10409F044
:1007600032C262E0CE0101960E9424248B819C81DA
:10077000AD81BE818093BE029093BF02A093C00260
:10078000B093C1028F818093C20288859985AA8522
:10079000BB858093C3029093C402A093C502B0931B
:1007A000C6028C859D85AE85BF858093C7029093D8
:1007B000C802A093C902B093CA0288899989AA89FC
:1007C000BB898093CB029093CC02A093CD02B093CF
:1007D000CE028C899D89AE89BF898093CF02909388
:1007E000D002A093D102B093D202888D998DAA8DA8
:1007F000BB8D8093D3029093D402A093D502B09383
:10080000D6028C8D9D8DAE8DBF8D8093D702909337
:10081000D802A093D902B093DA0288A199A1AAA123
:10082000BBA18093DB029093DC02A093DD02B09326
:10083000DE028CA19DA1AEA1BFA18093DF029093A7
:10084000E002A093E102B093E20288A599A5AAA5CF
:10085000BBA58093E3029093E402A093E502B093DA
:10086000E6028CA59DA5AEA5BFA58093E702909357
:10087000E802A093E902B093EA02C8A8D9A8EAA8BE
:10088000FBA8C092EB02D092EC02E092ED02F09253
:10089000EE028CA98093EF028DA98093F002A5014E
:1008A000662757FD6095762F8CEB92E00E942826F4
:1008B000B801882777FD8095982F0E94302F6B0113
:1008C0007C01AB01BC018CEB92E00E943F26B7019A
:1008D000A6018CEB92E00E949A2675C187E090E019
:1008E0000E94F801082F10E088E090E00E941402B6
:1008F0007C018AE090E00E9414025C010130110545
:10090000B9F4B701882777FD8095982F0E94302F82
:100910006B017C01B501882777FD8095982F0E9497
:10092000302FAB01BC019701860186E592E01AC029
:100930000230110509F047C1B701882777FD80957E
:10094000982F0E94302F6B017C01B501882777FD1D
:100950008095982F0E94302FAB01BC019701860132
:1009600080E692E00E948B162EC187E090E00E9404
:10097000F801482F88E090E04EAB0E94F801E82E85
:1009800089E090E00E94F801182F8AE090E00E9430
:10099000F801F82E8BE090E00E94F801082F4EA994
:1009A0006D2D8BE493E00E94E621EE2049F06FEF7D
:1009B0006E0D2F2D412F8BE493E00E94642207C01F
:1009C000202F4F2D612F8BE493E00E94B5228BE402
:1009D00093E00E94E222F7C087E090E00E94F801D5
:1009E0009701220F331FF901E65EFE4F813011F4AB
:1009F000008101C0018110E088E090E00E94F801D0
:100A0000D82EC8010E944F02FC01EE0FFF1FE80F15
:100A1000F91FEF58FC4F20813181428129833A83AD
:100A20004B8384EB8D1508F4CEC0B801CE0101963E
:100A30000E94AD0B6D2DAFC08CE393E00E94692145
:100A4000282F30E02E153F0529F06D2D8CE393E023
:100A50000E94491387E090E00E942802AB01BC018C
:100A60008CE393E00E946B13AEC088E393E00E9496
:100A70006921282F30E02E153F0529F06D2D88E3E0
:100A800093E00E94BD2187E090E00E94F80161E0C0
:100A900081111BC060E019C088E393E00E946921C6
:100AA000282F30E02E153F0529F06D2D88E393E0C7
:100AB0000E94BD2187E090E00E94F801282F30E0DD
:100AC000223031053CF4682F617088E393E00E9486
:100AD000912179C061E02230310509F460E088E3BA
:100AE00093E00E94A1216FC061E00E94AB2987E0E2
:100AF00090E00E94F801682F8D2D0E94E42963C0C8
:100B000061E00E94AB2987E090E00E94F801682F25
:100B100070E08D2D0E94232956C061E00E94AB2910
:100B200087E090E00E9414026C0189E090E00E944E
:100B300014021816190664F48C01222717FD20955B
:100B4000322FA601B70183E892E00E94E2133BC076
:100B5000B70183E892E00E94491435C087E090E035
:100B60000E94F801182F853B70F5C7010E944F02C3
:100B7000FC01EE0FFF1FE80FF91FEF58FC4F20811B
:100B80003181428129833A834B83B701CE0101969B
:100B90000E94AD0B612F70E0CE0101960E94E60B22
:100BA00012C00E9469280E942E2F20E030E04AE700
:100BB00054E40E94952E6093CC017093CD018093F4
:100BC000CE019093CF01E6960FB6F894DEBF0FBE2C
:100BD000CDBFDF91CF911F910F91FF90EF90DF90EC
:100BE000CF90BF90AF900895CF93DF93C1E7D3E04C
:100BF000CE010E94130B239683E0C938D807C1F7B2
:100C00008BE693E00E94541488E593E00E94362717
:100C10008BE493E00E94592286E493E00E94C2276D
:100C20008CE393E00E94B31188E393E00E9450218B
:100C300085EF92E00E94781781EF92E00E94EF1F0B
:100C400087E892E00E9416248CEB92E00E94162422
:100C500083E892E00E94DC138CE792E00E94ED1D95
:100C600086E792E00E944E1780E792E00E946317A9
:100C700086E592E00E94191580E692E00E9419151F
:100C800069E371E080E592E0DF91CF910C94802DD3
:100C900080E592E00E94122D8BE493E00C94F62202
:100CA000682F8DE496E00C94ED2A8FEF0E94500699
:100CB00085E50C9450068FEF0E94500685E50E9452
:100CC00050060C941002CF93C82F81E00E9450066A
:100CD0008C2FCF910C945006EF92FF920F931F939D
:100CE000CF93DF937C01FC01C4810C2F158184E03C
:100CF0000E9450068C2F0E945006C0E0D0E0C01722
:100D0000D10744F4BE01C7010E94C72D0E945006BE
:100D10002196F5CFDF91CF911F910F91FF90EF902A
:100D20000895FF920F931F93CF93DF931F92CDB738
:100D3000DEB78B01F82E82E099830E945006A8014D
:100D40006F2D9981792F40936C0250936D026093BF
:100D50006E0270936F02802F0E94500680916D0288
:100D60000E94500680916E020E94500680916F0290
:100D70000F90DF91CF911F910F91FF900C9450062F
:100D8000CF92DF92EF92FF926B017C0183E00E9491
:100D90005006C701B6010E94FD2E862F262F372F41
:100DA00030936B0220936A020E94500680916B027E
:100DB000FF90EF90DF90CF900C945006CF92DF928F
:100DC000EF92FF920F931F93CF93DF93CDB7DEB7D0
:100DD00027970FB6F894DEBF0FBECDBF7C0186E02B
:100DE00090E00E94F801D82E082F10E083E3E81667
:100DF000F10408F046C2F701EC5CFF4F0C94C232DC
:100E000086E493E00E94692190E08017910729F021
:100E10006D2D86E493E00E94BD2160E971E086E4D7
:100E200093E00E940A281CC287E090E00E94F8012B
:100E3000F82E88E593E00E946921282F30E02017E2
:100E4000310709F010C288E593E00E946C218F11F0
:100E50000AC288E593E00E94542702C288E393E027
:100E60000E94692190E08017910761F06D2D88E361
:100E700093E00E94BD2188E393E00E94E32160E0BB
:100E80000E94AB2988E393E00E94B52190C187E0DE
:100E900090E00E94F801F82E81EF92E00E94692113
:100EA000282F30E02017310729F06D2D81EF92E0D7
:100EB0000E94BD216F2D81EF92E00E94F21F77C149
:100EC00080913603909137030097F1F04F960E947E
:100ED000692190E08017910731F10091360310915C
:100EE00037030115110581F085E991E0F80191833F
:100EF0008083C80182599F4F0E94122DC8010E9411
:100F00009A10C8010E94872C8BE790E00E94852CE4
:100F10008C016D2D0E94D01E109337030093360371
:100F2000C8010E94E51E80913603909137030E940C
:100F3000101F682F8093E2018FEF860F8E3F08F419
:100F40007FC060E070E0CB018BC188E393E00E943A
:100F5000692190E08017910709F46CC06D2D88E33A
:100F600093E00E94BD2188E393E00E94E32160E0CA
:100F70005FC088E393E00E94692190E080179107A9
:100F800099F06D2D88E393E00E94BD2188E393E002
:100F90000E94E02160E00E94AB2988E393E00E9478
:100FA000E32160E00E94AB2960E088E393E00E94C7
:100FB0006F21182F60E088E393E00E948021612F69
:100FC00070E0660F771F680F711D882777FD809589
:100FD000982FF2C087E090E00E94F801C82EE82E1A
:100FE000F12C88E393E00E946921282F30E020173C
:100FF000310709F03FC188E393E00E946C21282F5C
:1010000030E02E153F0509F035C188E393E0EA94FE
:10101000EF2859F40E94E02162E00E94AB2960E0D1
:1010200088E393E00E946F210AC00E94E32162E0FE
:101030000E94AB2960E088E393E00E948021682F42
:1010400070E080E090E00E942E2F0AC187E090E0DF
:101050000E94F801F82E8CE792E00E946921282F67
:1010600030E02017310729F06D2D8CE792E00E94C7
:10107000BD218CE792E00E94F01D6F2D8CE792E07D
:101080000E94C91E0E946306FCC086E792E00E948F
:10109000692190E080179107A9F06D2D86E792E015
:1010A0000E94BD2186E792E00E94E021482F86E75A
:1010B00092E04F830E94E3214F81682F86E792E000
:1010C0000E94511786E792E00E94611721C080E7D5
:1010D00092E00E94692190E080179107A9F06D2DA0
:1010E00080E792E00E94BD2180E792E00E94E0212B
:1010F000482F80E792E04F830E94E3214F81682FC1
:1011000080E792E00E94661780E792E00E947617DF
:10111000BC01882777FD8095982F0E94302F63C0EF
:1011200087E090E00E94F801082F10E085EF92E040
:101130000E94E8170130110529F485EF92E00E9422
:1011400085178EC00230110529F485EF92E00E94C8
:101150008B1786C00330110509F093C085EF92E02C
:101160000E9491177DC060E572E0CE0101960E9459
:10117000AD2DCE0101960E946C06CE0101960E9413
:10118000122D7FC060E08D2D0E94AB298D2D0E9415
:101190001A2A0DC0F801EE0FFF1FE65FFE4F108107
:1011A00060E0812F0E94AB29812F0E940629BC019B
:1011B000882777FD8095982F0E94302F51C087E0B7
:1011C00090E00E9414028C0160E08D2D0E94AB29FA
:1011D0009801442737FD4095542F61E08D2D0E94E2
:1011E000432A0E942E2F0E94C0064BC087E090E049
:1011F0000E94F801182F61E08D2D0E94AB2960E05C
:101200008D2D0E94E42982E090E00E94C02861E0D8
:101210008D2D0E94E4298AE090E00E94C02860E0C1
:101220008D2D0E94E42960E0812F0E94AB2920E3EC
:1012300035E740E050E061E0812F0E94432A0E94A0
:101240002E2F20E030E048E652E40E94952E08C0A0
:101250006091C8017091C9018091CA019091CB0140
:101260000E9491060EC04F2D6D2D88E593E00E94DF
:101270004127EFCD4C2D6D2D88E393E00E94CD21C9
:10128000C4CE27960FB6F894DEBF0FBECDBFDF9158
:10129000CF911F910F91FF90EF90DF90CF90089525
:1012A0000F931F93CF93DF931092E30183E090E0BD
:1012B0000E94F801082F84E090E00E94F801182FA6
:1012C00085E090E00E94F801C82FD0E01230C1F014
:1012D00088F4113009F058C00E945506802F0E94F2
:1012E0005006CE010E94DE06DF91CF911F910F9133
:1012F0000C941002143041F0153009F43FC044C082
:10130000CE010E946C023AC069E08BE693E00E9435
:10131000BD2160E070E08BE693E00E9457146AE024
:101320008BE693E00E94BD2160E070E08BE693E0E5
:101330000E94571461E08BE693E00E94BD2160E0BB
:1013400070E08BE693E00E94571462E08BE693E036
:101350000E94BD2160E070E08BE693E00E9457148C
:1013600040E050E0BA0186E592E00E94F61540E0C8
:1013700050E0BA0180E692E00E94F615DF91CF912D
:101380001F910F910C945B06DF91CF911F910F91EC
:10139000089510924F028DE496E00E946F2A18166D
:1013A00019065CF481E080934F0210924E028DE4A6
:1013B00096E00E94882A8093E10108950E9469289E
:1013C0000E942E2F20E030E04AE754E40E94952E40
:1013D0002091CC013091CD014091CE015091CF01AF
:1013E0000E94CA2D6093C8017093C9018093CA01FD
:1013F0009093CB018091360390913703009711F0C1
:101400000E94151F0E94C90987E892E00E941427D4
:101410008CEB92E00E94142780914F02882309F4FC
:1014200045C06091E1018091E301653561F481116E
:101430000AC08091D0018F3FD9F481E08093E5010B
:101440008093E30115C06093D001882389F08091D7
:10145000E501823019F46093E40107C0833028F07D
:101460009091E40191509093E40190E00E94040275
:101470008091E5018F5F843318F48093E50104C007
:101480001092E5011092E3018091E301882371F04D
:101490008091E40181110AC08091E501843030F02F
:1014A0001092E3010E9450091092E50108951F92E5
:1014B0000F920FB60F9211242F933F934F935F9388
:1014C0006F937F938F939F93AF93BF93EF93FF930C
:1014D00080918A0387FF05C01092850010928400D6
:1014E0001AC020918A03332727FD30958091890304
:1014F00090E0281739077CF480918A03992787FDAB
:101500009095FC01EE0FFF1FE80FF91FE557FC4F08
:10151000808186FD15C080918A038F5F80938A0346
:1015200020918A03332727FD30958091890390E02D
:1015300028173907BCF480918A038C305CF112C003
:1015400080918A03992787FD9095FC01EE0FFF1F7C
:10155000E80FF91FE557FC4F808160E08F730E9410
:10156000E429D9CF8091840090918500049680343D
:101570009C4918F480E49CE905C080918400909116
:101580008500049690938900809388008FEF809364
:101590008A0338C0209184003091850080918A03AD
:1015A000992787FD9095FC01EE0FFF1FE80FF91FAB
:1015B000E557FC4F81819281820F931F90938900A0
:1015C0008093880080918A03992787FD9095FC017C
:1015D000EE0FFF1FE80FF91FE557FC4F808186FFD4
:1015E00011C080918A03992787FD9095FC01EE0F29
:1015F000FF1FE80FF91FE557FC4F808161E08F73F3
:101600000E94E429FF91EF91BF91AF919F918F913B
:101610007F916F915F914F913F912F910F900FBEEE
:101620000F901F901895209189032C30A0F431E081
:10163000320F30938903FC012083822F90E0FC015C
:10164000EE0FFF1FE80FF91FE557FC4F88EB9BE0FB
:101650009283818308952FEFFC0120830895DF9208
:10166000EF92FF920F931F93CF93DF93EC01D62E4F
:101670007A01890188818C3008F066C061E08D2D87
:101680000E94AB298881A82FB0E0FD01EE0FFF1F5B
:10169000EA0FFB1FE557FC4F2D2D2F739081907C97
:1016A000922B908360E272E06E197F0977FF02C08F
:1016B0006D5F7F4F7595679575956795698340E672
:1016C00059E0401B510B57FF02C04D5F5F4F5595CE
:1016D0004795559547954A836CE00E944D329CE0B2
:1016E000899FB001112420E030E0A901460F571F67
:1016F000FA01EE0FFF1FE40FF51FE557FC4F908135
:1017000096FD16C02F5F3F4F2C30310571F78111C8
:101710000FC01092800082E08093810010928500BB
:1017200010928400B19A80916F00826080936F0064
:10173000888190E0FC01EE0FFF1FE80FF91FE557CD
:10174000FC4F8081806480838881DF91CF911F91DD
:101750000F91FF90EF90DF90089520E639E040E28E
:1017600052E00C942F0BFC0180818C3070F591813C
:1017700028E830E0291B310997FD3395220F331FEC
:10178000220F331F621773077CF0928128E532E045
:10179000291B310997FD3395220F331F220F331F69
:1017A000621773070CF49B0122503109220F331F7B
:1017B0004FB7F89490E0FC01EE0FFF1FE80FF91F00
:1017C000E557FC4F328321834FBF08954F925F92BC
:1017D0006F927F92AF92BF92CF92DF92EF92FF9281
:1017E0000F931F93CF93DF93EC01603282E0780771
:1017F0000CF040C077FD06C0653B71052CF064EB32
:1018000070E002C060E070E0898128E830E0281BC9
:10181000310987FD3395220F331F220F331F5901E2
:10182000CC24B7FCC094DC2C882777FD8095982FBA
:101830002A8148E552E0421B510927FD5395440F88
:10184000551F440F551F2A01662457FC6094762CBF
:101850007F926F925F924F9214EBE12EF12C00E099
:1018600010E020E030E0A9010E94CB2C0F900F90F7
:101870000F900F90CE01DF91CF911F910F91FF90AC
:10188000EF90DF90CF90BF90AF907F906F905F9080
:101890004F900C94B30B8091DF0390E02091E00314
:1018A000821B910908952091E0038091DF0328179E
:1018B00050F4E22FF0E0EF51FC4F808190E02F5F79
:1018C0002093E00308958FEF9FEF0895E091E003E8
:1018D0008091DF03E81730F4F0E0EF51FC4F808196
:1018E00090E008958FEF9FEF08950895CF92DF92D3
:1018F000EF92FF920F931F93CF93DF937C01CB0165
:101900008A012091BB03222389F0EB016B01C40EF5
:10191000D51ECC15DD0569F06991D701ED91FC91DB
:101920000190F081E02DC7010995F3CF642F0E944B
:10193000D70DC801DF91CF911F910F91FF90EF90CC
:10194000DF90CF900895CF93DF931F92CDB7DEB78E
:1019500069832091BB032223D1F02091BC03203264
:1019600040F021E030E0FC013383228380E090E00E
:1019700015C08091BD03E82FF0E0E254FC4F99813F
:1019800090838F5F8093BD038093BC0305C061E0AB
:10199000CE0101960E94D70D81E090E00F90DF917B
:1019A000CF910895FC011382128248EE53E060E06B
:1019B00070E0448355836683778387E491E0918365
:1019C000808308951092E0031092DF031092BD030C
:1019D0001092BC030C94220D862F413208F040E295
:1019E00061EE73E00E94400D1092E0038093DF03EC
:1019F000089521E00C94EC0C81E08093BB0360938C
:101A0000DE031092BD031092BC0308950C94FC0CED
:101A10000F93062F21E04091BC036EEB73E08091A1
:101A2000DE030E94840D1092BD031092BC0310923D
:101A3000BB030F91089561E00C94080D8FEA93E0C9
:101A40000C94D20C10926E0481E080936C0410927E
:101A50006B0461E082E10E94E42961E083E10E947D
:101A6000E429E9EBF0E080818E7F808380818D7FA7
:101A7000808388E48093B80085E48093BC00089557
:101A8000413208F03FC090916E049111FCCF91E07B
:101A900090936E0420936C042FEF20930104109216
:101AA0004604240F2093450490936D0490916D0497
:101AB000880F892B80936D0480916B04813041F4F1
:101AC00010926B0480916D048093BB0085EC01C083
:101AD00085EE8093BC0080916E048130E1F38091AB
:101AE0004604841710F44091460427E434E0FB01D7
:101AF000D9018A2F821B841718F48D918193F9CF15
:101B0000842F089580E008950F93413208F046C075
:101B100090916E049111FCCF92E090936E0400932B
:101B20006C049FEF90930104109246044093450487
:101B3000FB0167E474E0DB019A2F961B941718F4FD
:101B400091919D93F9CF10926D0490916D04880F3F
:101B5000892B80936D0480916B04813041F4109245
:101B60006B0480916D048093BB0085EC01C085EE11
:101B70008093BC00222321F080916E048230E1F337
:101B8000809101048F3F61F080910104803251F017
:101B900080910104803341F483E007C081E005C0F7
:101BA00080E003C082E001C084E00F9108956132BB
:101BB00098F420916E04243089F460932304FC018E
:101BC00085E294E0DC012A2F281B261718F42191C6
:101BD0002D93F9CF80E0089581E0089582E0089583
:101BE00085ED8093BC008091BC0084FDFCCF1092F9
:101BF0006E04089585EC8093BC0010926E040895E5
:101C00001F920F920FB60F9211242F933F934F9371
:101C10005F936F937F938F939F93AF93BF93EF9354
:101C2000FF938091B900887F803609F49CC068F5E5
:101C3000883209F45BC090F4803109F454C038F460
:101C4000882309F4F5C0883009F44DC0F5C0883107
:101C500009F44CC0803209F45DC0EEC0803409F450
:101C600068C048F4803309F455C0883309F0E4C0F3
:101C700080930104A8C0803509F44FC0883509F469
:101C80005DC0883409F0D8C0D5C0883909F4C6C011
:101C9000A8F4883709F467C038F4883609F463C0BB
:101CA000803709F460C0C8C0883809F4B7C08039EB
:101CB00009F45FC0803809F0BFC05BC0803B09F405
:101CC00085C038F4803A09F466C0883A09F47EC0C9
:101CD000B3C0803C09F4A6C0883C09F4A3C0883B8B
:101CE00009F489C0A9C080916D0410C09091460488
:101CF00080914504981770F5E091460481E08E0FBD
:101D000080934604F0E0E95BFB4F80818093BB0049
:101D100085EC85C0809301048DC0E091460481E08C
:101D20008E0F809346048091BB00F0E0E95BFB4F8F
:101D3000808390914604809145046DC0E0914604F3
:101D400081E08E0F809346048091BB00F0E0E95B58
:101D5000FB4F808380916C0481116CC081E0809383
:101D60006B0484EA60C083E080936E0410920204E6
:101D7000CFCF80910204803208F050C0E09102047D
:101D800081E08E0F809302048091BB00F0E0ED5F54
:101D9000FB4F8083BDCF80910204803230F4E0910C
:101DA0000204F0E0ED5FFB4F10820E94F00D6091A5
:101DB000020470E0E0916704F091680483E094E02D
:101DC0000995109202040E94FA0D36C084E08093B7
:101DD0006E041092240410922304E0916904F0919F
:101DE0006A04099580912304811105C081E08093E4
:101DF000230410922504E091240481E08E0F809347
:101E00002404F0E0EB5DFB4F80818093BB00909158
:101E1000240480912304981708F47ACF85E88093EE
:101E2000BC000AC085EC8093BC0010926E0404C014
:101E3000109201040E94F00DFF91EF91BF91AF91BC
:101E40009F918F917F916F915F914F913F912F91D2
:101E50000F900FBE0F901F9018952091B1043091F4
:101E6000B20428173907B9F490916F048091700477
:101E7000981789F0E0916F04F0E0EF58FB4F8081F4
:101E800020916F0430E02F5F3F4F2F733327209353
:101E90006F0490E008958FEF9FEF08951F93CF9305
:101EA000DF93DC015C968D919C915D97009749F4DE
:101EB00081E090E013969C938E93129780E090E0DF
:101EC0003BC05196ED91FC91529750962C915097B2
:101ED000322F30951FB75E964C915E9741FB772766
:101EE00070F941FD6095F8944081772311F0422B01
:101EF00001C043234083EC012197F1F748E0508172
:101F000060FF02C0522B01C053235083EC01219784
:101F1000F1F76695415099F78081772311F083237B
:101F200001C0822B80831FBF5C968D919C915D9731
:101F30000197F1F781E090E0DF91CF911F91089533
:101F40002091B1043091B2042817390781F490919F
:101F50006F0480917004981751F0E0916F04F0E0E5
:101F6000EF58FB4F8081992787FD909508958FEF5B
:101F70009FEF08952091B1043091B20428173907DA
:101F800071F48091700420916F0490E0805C9F4F09
:101F9000821B910960E470E00E946D32089580E038
:101FA00090E008952091B1043091B20428173907C8
:101FB00039F48FB7F8941092700410926F048FBFA9
:101FC0000895E091B104F091B204E817F90769F4BB
:101FD000A389B4899C918589809589238C931092DB
:101FE000B2041092B10481E0089580E00895CF9387
:101FF000DF93EC018A8D9B8D892BF1F08091B104E8
:102000009091B2048C179D07B9F0009711F00E94CF
:10201000E10F8E8D8E7F8E8F1092700410926F0460
:10202000D093B204C093B104EB89FC8980819D896F
:10203000892B808381E001C080E0DF91CF910895FA
:102040001F920F920FB60F9211242F933F934F932D
:102050005F936F937F938F939F93AF93BF93EF9310
:10206000FF93E091B104F091B204309709F451C0AC
:10207000868DA685B785958581FF04C08C918923BF
:1020800029F447C08C91892309F043C0A389B489FE
:102090009C918589809589238C938689978901975E
:1020A000F1F7208D318DA685B785758558E040E024
:1020B000C9010197F1F7842F90E095958795482FF6
:1020C0006C91672309F04068515091F7868D81FD2E
:1020D00040958091700490E001968F73992720912C
:1020E0006F04281749F0A0917004B0E0AF58BB4FBF
:1020F0004C938093700403C0868D8160868F828D9F
:10210000938D0197F1F7A389B4898C919589892BD7
:102110008C93FF91EF91BF91AF919F918F917F91A0
:102120006F915F914F913F912F910F900FBE0F9044
:102130001F90189527E531E0FC01318320830C9432
:10214000E10F1F93CF93DF93EC01162F6E8D6695F1
:10215000617081E06827812F0E94E42961E0812F6E
:102160000E94AB29812F90E0FC01EC54FE4FE491DA
:10217000E88BFC01E853FE4FE491F0E0EE0FFF1F07
:10218000EA51FE4F859194919A8B898BDF91CF9183
:102190001F9108951F93CF93DF93EC01162F60E0FA
:1021A000812F0E94AB298E8D81FD04C061E0812FBB
:1021B0000E94E4291C87812F90E0FC01EC54FE4F23
:1021C000E491ED87FC01E853FE4FE491F0E0EE0F5F
:1021D000FF1FE452FE4F859194919F878E87DF9178
:1021E000CF911F910895FF920F931F93CF93DF9389
:1021F000EC01F62E522F1B821A8208EE13E020E02B
:1022000030E00C831D832E833F8387E591E0998323
:1022100088831F8A1E8A198E188E1B8E1A8E1D8E19
:102220001C8E8E8D8E7F50FB81F98E8F642FCE0198
:102230000E94A1106F2DCE01DF91CF911F910F91C0
:10224000FF900C94CA10CF93DF93EC019A01AB017D
:102250001B8E1A8E198E188E1F8A1E8A60E079E0F6
:102260008DE390E00E94A332C9012430310520F0B3
:10227000B9016350710902C061E070E07D8F6C8F1D
:10228000EC85E63108F068C0B90176956795643150
:10229000710518F06351710902C061E070E07F8B35
:1022A0006E8B069718F0C901059702C081E090E097
:1022B000998F888FC901880F991F820F931F969558
:1022C0008795969587958D30910510F00C9702C0F3
:1022D00081E090E09B8F8A8F20916800E83050F079
:1022E00091E0EE3008F490E081E001C0880F9A950B
:1022F000EAF701C084E0822B809368002C852830A7
:1023000038F02E3040F0263148F48CE690E008C0DA
:102310008DE690E005C08BE690E002C080E090E0A2
:102320009C8B8B8B283030F481E001C0880F2A957C
:10233000EAF70DC0822F90E02E3010F4089701C00C
:102340000E9791E001C0990F8A95EAF7892F8D8B3E
:102350008C8D9D8D0197F1F7CE01DF91CF910C947B
:10236000F70F0C94E10F0C9450210F931F93CF9310
:10237000DF93EC01062F18E060E088850E94E429D5
:1023800000FF02C061E001C060E089850E94E4298D
:10239000069561E088850E94E429115069F760E0A4
:1023A00088850E94E42961E089850E94E42961E032
:1023B00088850E94E42960E089850E94AB2918EC99
:1023C00089850E941A2A892B59F01150C9F761E0BA
:1023D00089850E94AB2960E089850E94E429EFCFBE
:1023E00061E08985DF91CF911F910F910C94AB290A
:1023F000CF93DF93EC0161E088850E94E42961E0DE
:1024000089850E94E42960E089850E94E42960E0D2
:102410008885DF91CF910C94E429CF93DF93EC0171
:1024200060E088850E94E42960E089850E94E429B3
:1024300061E088850E94E42961E08985DF91CF9180
:102440000C94E429CF92DF92FF920F931F93CF93C6
:10245000DF931F92CDB7DEB76C01F62E79830E9411
:10246000F81160E4C6010E94B511C6010E940D1268
:10247000C6010E94F811F6016581C6010E94B511DE
:102480000F2D7981172F84E0F82EF80161918F01CB
:10249000C6010E94B511FA94C1F7C6010E940D123F
:1024A000C6010E94F811F6016681C6010E94B511AD
:1024B000C6010F90DF91CF911F910F91FF90DF9098
:1024C000CF900C940D124F925F926F927F928F92E9
:1024D0009F92AF92BF92CF92DF92EF92FF920F93B3
:1024E0001F93CF93DF9300D000D0CDB7DEB76A0142
:1024F0007B01890137FD48C0B9016F5F7F4F882795
:1025000077FD8095982F0E94302F9B01AC0160E0F1
:1025100070E080E291E40E940B314B015C019B0171
:10252000AC01C701B6010E94952E0E946B2F2B01B2
:102530003C01B801882777FD8095982F0E94302FA5
:102540009B01AC0160E070E080E291E40E940B31FD
:1025500069837A838B839C83A5019401C301B201B3
:102560000E94A8309B01AC01C701B6010E94CA2D90
:1025700029813A814B815C810E94952E0E946B2FAC
:102580000E94FD2ECB011FC088249924821A930A31
:10259000A12CB12C20E030E040E251E4C701B601AB
:1025A0000E94A8306B017C018FEFA81AB80AA8140A
:1025B000B90484F3C701B6010E94FD2ECB016AE085
:1025C00070E00E946D320F900F900F900F90DF918E
:1025D000CF911F910F91FF90EF90DF90CF90BF9020
:1025E000AF909F908F907F906F905F904F900895E5
:1025F000DB0180E090E22C91223208F09C93EC9178
:10260000F0E0E258FE4FE491ED938F5F843099F74C
:102610000895EF92FF920F931F93CF93DF9300D013
:1026200000D0CDB7DEB78C01DB01FE013196CE01C3
:1026300005967F012D912193E817F907D9F7B70186
:10264000C8010E94F812B701C8010E9422120F901F
:102650000F900F900F90DF91CF911F910F91FF90EE
:10266000EF900895CF93DF9300D000D0CDB7DEB7C1
:1026700020E229832A832B832C83BE016F5F7F4F47
:102680000E9409130F900F900F900F90DF91CF9140
:102690000895CF93DF93EC016A83E62FF0E0EE0F0D
:1026A000FF1FE65EFE4F8181898390819883888732
:1026B000998761E00E94AB2961E089850E94AB297E
:1026C00080E48C8380EC8D838AE88E83CE01DF9159
:1026D000CF910C9432138F929F92AF92BF92CF9270
:1026E000DF92EF92FF920F931F93CF93DF9300D06F
:1026F00000D0CDB7DEB75C016A017B0119821A8276
:102700001B821C8220E030E0A901C701B6010E94B3
:10271000912E87FF09C0F7FAF094F7F8F09481E260
:1027200089839924939401C0912C03E010E0812CBB
:102730009801B701A601C5010E9463121816190677
:102740002CF0002319F08820B9F00CC001110AC048
:10275000E1E0F0E0EC0FFD1FE90DF11D20E1280F95
:10276000208307C0E1E0F0E0EC0FFD1FE90DF11D53
:10277000808393948824839483E0891530F00150FA
:1027800011090C3F8FEF180799F6BE016F5F7F4F5D
:10279000C5010E9409130F900F900F900F90DF91C9
:1027A000CF911F910F91FF90EF90DF90CF90BF904E
:1027B000AF909F908F9008950E94502188E0809361
:1027C000B30408954F925F926F927F928F929F927F
:1027D000AF92BF92CF92DF92EF92FF920F931F932F
:1027E000CF93DF93762E680179016093B3049A0149
:1027F00040E050E060E472E48FE090E00E94A33299
:10280000E901590137FF03C08FEFA81AB80A850103
:102810001595079561E0872D0E94AB29A8EEB3E0DE
:10282000A70196010E94D7322B013C01C12CD12C6B
:1028300076014E01AA2497FCA094BA2CC414D504A6
:10284000E604F704A8F461E08091B3040E94E4294F
:10285000C8010E94C02860E08091B3040E94E4296E
:10286000C8010E94C028C80CD91CEA1CFB1CE6CF7A
:10287000DF91CF911F910F91FF90EF90DF90CF905C
:10288000BF90AF909F908F907F906F905F904F9090
:102890000895862F6093B30461E00E94AB2960E045
:1028A0008091B3040C94E42960E00C9459210F93B7
:1028B0001F93CF93DF938C016F3F710519F014F0D4
:1028C0006FEF70E0EB0161308FEF780714F4C1E037
:1028D000DFEFD7FD06C061E0C8010E94A121BE0163
:1028E00008C060E0C8010E94A121662777276C1B01
:1028F0007D0BC801DF91CF911F910F910C94B921ED
:102900004F925F926F927F928F929F92AF92BF92FF
:10291000CF92DF92EF92FF920F931F93CF93DF93AB
:1029200000D000D0CDB7DEB7FC01C982DA82EB82DD
:10293000FC8295EA90832183C2828A8183838B8182
:1029400084838C81858346015701CF010696380127
:10295000C12CD12C7601C814D904EA04FB0461F01F
:10296000D3012D913D01DC012D93CD01BFEFCB1A99
:10297000DB0AEB0AFB0AEFCF2401350126E0420E09
:10298000511C611C711CD801C12CD12C760180E036
:10299000C814D904EA04FB0441F09D9189279FEFF4
:1029A000C91AD90AE90AF90AF3CFDF01A40DB51D46
:1029B0008C9397018601085F1F4F2F4F3F4FA7E071
:1029C000CA0ED11CE11CF11CEC0DFD1D8AE58083B3
:1029D000401751076207730728F460E070E080E059
:1029E00090E002C0B801C9010F900F900F900F90B6
:1029F000DF91CF911F910F91FF90EF90DF90CF90DB
:102A0000BF90AF909F908F907F906F905F904F900E
:102A100008951F93CF93DF93EC01162F60E00E947F
:102A2000592111501C8389E08D83DF91CF911F9133
:102A30000895CF93DF93EC0160E00E9459211C823E
:102A400089E08D83DF91CF91089584EB94E00C941D
:102A50002E1B84EB94E00C94571BAF92BF92CF9245
:102A6000DF92EF92FF920F931F93CF93DF93EC01CE
:102A70006B017A0159016D818FEA93E00E94FC0C91
:102A8000A501B6018FEA93E00E94760C8FEA93E0ED
:102A90000E941B0D82E090E00E94C0286D8170E0D2
:102AA000A8018FEA93E00E94F90C82E090E00E9476
:102AB000C028C0E08FEA93E00E944B0C892B51F0B4
:102AC0008FEA93E00E94530CF701EC0FF11D808315
:102AD000CF5FF0CFDF91CF911F910F91FF90EF90DB
:102AE000DF90CF90BF90AF9008956F927F928F92BA
:102AF0009F92AF92BF92CF92DF92EF92FF920F938D
:102B00001F93CF93DF93CDB7DEB768970FB6F894D6
:102B1000DEBF0FBECDBF3C018AE04E012BE0820E2E
:102B2000911CF401282F11922A95E9F7FE013196A4
:102B30005F0111928A95E9F7F30184818F8B87E019
:102B4000888F82E0C82ED12CE12CF12C8E01095EF9
:102B50001F4F21E04AE050E060E070E0C4010E94B5
:102B600080140AE010E02AE030E0A501B401C301BE
:102B70000E942D152AE030E040E050E0B50184EBE2
:102B800094E00E94901B1E8A1D8A22E030E040E003
:102B900050E0BE016B5E7F4F84EB94E00E94A31D6A
:102BA00081E09E89911101C080E068960FB6F8948B
:102BB000DEBF0FBECDBFDF91CF911F910F91FF9070
:102BC000EF90DF90CF90BF90AF909F908F907F90CD
:102BD0006F900895CF93DF93EC018FEA93E00E940A
:102BE000E20CCE01DF91CF910C9475156F927F921C
:102BF0008F929F92AF92BF92CF92DF92EF92FF920D
:102C00000F931F93CF93DF93CDB7DEB76E970FB6B9
:102C1000F894DEBF0FBECDBF3C016A017B0120E00E
:102C200030E048E453E4C701B6010E94583018165A
:102C30008CF020E030E048E453ECC701B6010E947C
:102C4000912E87FF0DC0C12CD12C58E4E52E53ECFA
:102C5000F52E06C0C12CD12C68E4E62E63E4F62ED6
:102C6000CE0101964C018EE0F40111928A95E9F7AC
:102C70005E01FFE0AF0EB11C8AE0F50111928A956A
:102C8000E9F78E01075E1F4F86E0F80111928A95E1
:102C9000E9F7F3018481898F85E08A8FCB8EDC8E02
:102CA000ED8EFE8E46E0C42ED12CE12CF12C21E0DD
:102CB0004EE050E060E070E0C4010E9480140AE041
:102CC00010E02EE030E0A501B401C3010E942D15F3
:102CD0002AE030E040E050E0B50184EB94E00E944F
:102CE000901B84EB94E00E94341C80E06E960FB63B
:102CF000F894DEBF0FBECDBFDF91CF911F910F9132
:102D0000FF90EF90DF90CF90BF90AF909F908F900B
:102D10007F906F9008952F923F924F925F926F92A3
:102D20007F928F929F92AF92BF92CF92DF92EF925B
:102D3000FF920F931F93CF93DF93CDB7DEB7A89782
:102D40000FB6F894DEBF0FBECDBF4C011A012B01A8
:102D50006801790120E030E048E453E4C701B6019E
:102D60000E94583018168CF020E030E048E453EC14
:102D7000C701B6010E94912E87FF0DC0C12CD12C36
:102D8000E8E4EE2EE3ECFE2E06C0C12CD12CF8E4D4
:102D9000EF2EF3E4FF2E20E030E0A901C201B101E3
:102DA0000E94912E811106C0B701A601C4010E94A4
:102DB000F6155BC0CE0101963C0182E1F301119250
:102DC0008A95E9F78AE05E01FDE1AF0EB11CF501DD
:102DD000982F11929A95E9F78E010D5E1F4FF80119
:102DE00011928A95E9F7F40184818B8B81E18C8BB8
:102DF0002D8A3E8A4F8A588EC98EDA8EEB8EFC8ED3
:102E00007AE0C72ED12CE12CF12C21E042E150E0F8
:102E100060E070E0C3010E9480140AE010E022E14B
:102E200030E0A501B301C4010E942D152AE030E075
:102E300040E050E0B50184EB94E00E94901B84EBED
:102E400094E00E94341C18A61FA222E030E040E06B
:102E500050E0BE01695D7F4F84EB94E00E94A31DAA
:102E600081E098A5911101C080E0A8960FB6F89472
:102E7000DEBF0FBECDBFDF91CF911F910F91FF90AD
:102E8000EF90DF90CF90BF90AF909F908F907F900A
:102E90006F905F904F903F902F90089560E00C945A
:102EA0005921CF93DF93EC016C834D838C8160E0DB
:102EB0000E94AB298D8188838C818983DF91CF919A
:102EC00008950C94B12160E00C945921CF93DF93C5
:102ED000EC016C834D838C8160E00E94AB298D8175
:102EE00088838C818983DF91CF9108950C94B121DF
:102EF000CF93DF93EC0160E00E945921C05CDF4F6B
:102F000088E68883DF91CF910895FC016085718503
:102F1000828593850895FC016485758586859785EE
:102F20000895FC0160897189828993890895EF92DF
:102F3000FF920F931F93CF93DF93C62F8A01E22E48
:102F400068E68FEA93E00E94FC0C6C2F8FEA93E016
:102F50000E94A30C813001F560E08FEA93E00E94AB
:102F6000080D81112EC081E090E00E94C02821E070
:102F70004E2D68E68FEA93E00E94EC0CE80100E039
:102F800010E0F12C8FEA93E00E944B0C892B31F07A
:102F90000E151F0574F002C08FEF13C081E090E0A2
:102FA0000E94C02881E00E151F0509F480E081957C
:102FB00008C00F5F1F4F8FEA93E00E94530C899364
:102FC000E1CFDF91CF911F910F91FF90EF90089586
:102FD0004F925F926F927F928F929F92AF92BF9229
:102FE000CF92DF92EF92FF920F931F93CF93DF93D5
:102FF000CDB7DEB72C970FB6F894DEBF0FBECDBFAE
:103000008C01AC014E5C5F4F2EE06BE30E94971782
:103010008111C5C1F801A2A8B12CBA2CAA2483A998
:10302000A82AB1A2A0A2E4A8F12CFE2CEE2485A926
:10303000E82AF3A2E2A286A8912C982C882487A9DA
:10304000882A95A284A2448055806680778062ADEC
:1030500070E0762F662783AD682B882777FD8095F3
:10306000982F0E94302FF80126A137A140A551A525
:103070000E94CA2DA30192010E94952EF801648B33
:10308000758B868B978B64AD70E0762F662785AD48
:10309000682B882777FD8095982F0E94302FF801A4
:1030A00022A533A544A555A50E94CA2DA3019201CE
:1030B0000E94952EF801608F718F828F938F66AD7D
:1030C00070E0762F662787AD682B882777FD80957F
:1030D000982F0E94302FF80126A537A540A951A9A5
:1030E0000E94CA2DA30192010E94952EF801648FBF
:1030F000758F868F978FB701882777FD8095982FDA
:103100000E94302F6B017C01B401882777FD8095E8
:10311000982F0E94302F9B01AC010E94A8302B01F8
:103120003C01A7019601C701B6010E94A830A30186
:1031300092010E94CB2D0E945B319B01AC01B50135
:10314000882777FD8095982F29873A874B875C875A
:103150000E94302F4B015C0129853A854B855C85A7
:103160000E943E2E20E030E044E353E40E94A83069
:103170002AED3FE049E450E40E94952E69837A836A
:103180008B839C83A5019401C501B4010E94A830E2
:10319000A30192010E94CB2D0E945B319B01AC01E7
:1031A000C701B6010E943E2E20E030E044E353E424
:1031B0000E94A8302AED3FE049E450E40E94952E99
:1031C0006D837E838F8398870E946928C090CF0586
:1031D000D090D005E090D105F090D2056C197D0912
:1031E0008E099F090E942E2F20E030E04AE754E428
:1031F0000E94952E6B017C010E9469286093CF0587
:103200007093D0058093D1059093D205F80184A1E5
:1032100095A11816190644F5208D318D428D538DD8
:10322000C701B6010E94A8309B01AC01F80160857E
:103230007185828593850E94CA2DF8016087718708
:10324000828793872489358946895789C701B601C2
:103250000E94A8309B01AC01F801648575858685C4
:1032600097850E94CB2D28C0F801208D318D428D8D
:10327000538DC701B6010E94A8309B01AC01F80133
:1032800060857185828593850E94CB2DF8016087CA
:103290007187828793872489358946895789C70131
:1032A000B6010E94A8309B01AC01F80164857585C8
:1032B000868597850E94CA2DF80164877587868761
:1032C0009787F801248D358D468D578DC701B6013E
:1032D0000E94A8309B01AC01F80160897189828944
:1032E00093890E94CB2DF801608B718B828B938B1D
:1032F00020E030E040E05FE3C701B6010E94CB2D43
:103300009B01AC0160E070E080E09FE30E94952E9D
:103310006B017C019B01AC0160E070E080E89FE301
:103320000E94CA2D4B015C01F80120853185428540
:103330005385C701B6010E94A8302B013C01A501AD
:10334000940169817A818B819C810E94A8309B01C4
:10335000AC01C301B2010E94CB2DF80160877187D7
:10336000828793872485358546855785C701B601B1
:103370000E94A8306B017C01A50194016D817E81C2
:103380008F8198850E94A8309B01AC01C701B601CE
:103390000E94CB2DF80164877587868797872C96C6
:1033A0000FB6F894DEBF0FBECDBFDF91CF911F9156
:1033B0000F91FF90EF90DF90CF90BF90AF909F90D4
:1033C0008F907F906F905F904F9008952F923F92D3
:1033D0004F925F926F927F928F929F92AF92BF9225
:1033E000CF92DF92EF92FF920F931F93CF93DF93D1
:1033F00000D000D0CDB7DEB71C0104EF11E0812C66
:10340000912C5401412C512C320119821A821B82B9
:103410001C827C0122E3E20EF11C26E0A70163E49A
:10342000C1010E949717F10182A990E0982F882787
:1034300023A9822BAA2797FDA095BA2F29813A812B
:103440004B815C81280F391F4A1F5B1F29833A83F8
:103450004B835C8384A990E0982F882725A9822B31
:10346000AA2797FDA095BA2F480E591E6A1E7B1EEB
:1034700086A990E0982F882727A9822BAA2797FD55
:10348000A095BA2F880E991EAA1EBB1E01501109C5
:1034900021F664EFC62EDD24D394E12CF12C698152
:1034A0007A818B819C81A70196010E94A332CA0177
:1034B000B9010E94302FF10166A377A380A791A7DD
:1034C000C301B201A70196010E94A332CA01B9014A
:1034D0000E94302FF10162A773A784A795A7C501A9
:1034E000B401A70196010E94A332CA01B9010E944A
:1034F000302FF10166A777A780AB91AB0F900F90AB
:103500000F900F90DF91CF911F910F91FF90EF904F
:10351000DF90CF90BF90AF909F908F907F906F90F3
:103520005F904F903F902F900895EF92FF921F93DE
:10353000CF93DF931F92CDB7DEB7162F7A0168E6DF
:1035400070E08FEA93E029830E94060D612F8FEAD5
:1035500093E00E94A30C2981813091F4422F50E026
:10356000B7018FEA93E00E94760C61E08FEA93E066
:103570000F90DF91CF911F91FF90EF900C94080D69
:103580008FEF0F90DF91CF911F91FF90EF900895F3
:10359000CF93DF931F92CDB7DEB7498321E0AE0111
:1035A0004F5F5F4F0E94951A0F90DF91CF91089562
:1035B000CF93DF93EC0140E050E063E872E44C838A
:1035C0005D836E837F83188619861A861B861C8608
:1035D0001D861E861F86188A198A1A8A1B8A1C8ACB
:1035E0001D8A1E8A1F8A188E198E1A8E1B8E1C8E9B
:1035F0001D8E1E8E1F8E19A218A21BA21AA21DA21A
:103600001CA21EA21FA218A619A61AA61BA61CA6BB
:103610001DA61EA61FA618AA19AA8FEA93E00E944B
:10362000E20C60E273E080E090E00E94982840E0C5
:103630006BE670E0CE010E94C81A41E06AE170E0DA
:10364000CE010E94C81A48E06BE170E0CE010E94F2
:10365000C81ACE01DF91CF910C94E61921E030E039
:10366000FC0131832083EE5FFE4F108211821282B3
:103670001382349610821182128213823496108241
:103680003196108231961082118212821382349602
:10369000118210823296108231961082118212822B
:1036A0001382349610821182128213820895089533
:1036B000CF92DF92EF92FF920F931F93CF93C62F7B
:1036C000FC01EE5FFE4F0081118122813381B9013F
:1036D000A8014F5F5F4F6F4F7F4F552766277727B2
:1036E000DC01AA5FBE4FCD90DD90ED90FC904C15B3
:1036F0005D056E057F0559F0DC01A00FB11F129624
:10370000CC93408351836283738381E001C080E066
:10371000CF911F910F91FF90EF90DF90CF90089580
:10372000AF92BF92CF92DF92EF92FF920F931F93CF
:10373000CF93DF9300D000D0CDB7DEB75C01FC01A2
:10374000EE5FFE4FC080D180E280F3808FEFC80E25
:10375000D11CE11CF11C349680819181A281B3813E
:10376000C81AD90AEA0AFB0ADD24EE24FF24C2168D
:10377000D306E406F50628F08B01C12CD12C760186
:1037800002C080E019C0C216D306E406F506A1F017
:10379000F80161918F01C50129833A834B835C83D2
:1037A0000E94581BFFEFCF1ADF0AEF0AFF0A5C8165
:1037B0004B813A812981E7CF0F900F900F900F90A6
:1037C000DF91CF911F910F91FF90EF90DF90CF90FD
:1037D000BF90AF9008950F931F93CF93DF93DB01BA
:1037E000FC01EA5FFE4F4081518162817381EC01EF
:1037F000CE5FDE4F088119812A813B8104171507AE
:1038000026073707A9F0EC01C40FD51F8A818C93D6
:1038100080819181A281B3810196A11DB11D99275B
:10382000AA27BB2780839183A283B38381E001C051
:1038300080E0DF91CF911F910F9108950F931F9317
:10384000FC0100E010E0980180E00417150726074E
:10385000370739F0919189270F5F1F4F2F4F3F4F47
:10386000F4CF1F910F9108952F923F924F925F9244
:103870006F927F928F929F92AF92BF92CF92DF9280
:10388000EF92FF920F931F93CF93DF9300D000D05E
:1038900000D0CDB7DEB78C0119827C018DEEE81A1D
:1038A0008EEFF80A18019EEE291A9EEF390A480198
:1038B000A0EF8A1AAEEF9A0A5801B4EFAB1ABEEF26
:1038C000BB0A6801E9EECE1AEEEFDE0AC801855F99
:1038D0009E4F9B838A83D801A65FBE4FBD83AC8376
:1038E000BE016F5F7F4FC8010E94EB1BF801882368
:1038F00009F40FC18081918183309105F9F064F45E
:103900008130910591F0029759F78981EA81FB8115
:10391000808383E090E00EC08530910509F48FC06C
:103920007CF1069709F4C7C0DBCF8981853AC1F6DF
:1039300082E090E0D8018D939C93D2CFF7018081F3
:103940009181800F911FFC01E45FFE4F298120834C
:10395000F70180819181A281B3810196A11DB11DE2
:1039600080839183A283B3830497A105B10509F0F5
:10397000B7CF108211821282138284E090E05BC084
:10398000D6014D905D906D907C904114510461047E
:10399000710459F5F50180819181A281B3818F3F36
:1039A0009105A105B10539F030F081E090E0D80132
:1039B0008D939C9364C001960E94E232D4018D9352
:1039C0009C93892B91F481E090E0F80191838083AE
:1039D000D6011D921D921D921C921397F701108221
:1039E000118212821382D50189C08981D401ED919F
:1039F000FC91E40DF51D8083F60180819181A28107
:103A0000B3810196A11DB11D80839183A283B383ED
:103A1000F501408151816281738184179507A60762
:103A2000B70709F05DCFD6011D921D921D921C9221
:103A3000139785E090E0F8019183808351CF29812D
:103A4000D1012C93F40160807180D5014D915D917D
:103A50006D917C91C3012E830E941E1C2E8128171C
:103A600021F181E090E0F801918380836114710479
:103A700031F0C3010E947A33D4011D921C92F601E9
:103A80001082118212821382D7011D921D921D9203
:103A90001C921397F5011082118212821382AA815F
:103AA000BB811C92F10110821BCFE6E0F0E0D8014F
:103AB000ED93FC9315CF89818A3589F0D4018D91DE
:103AC0009C91009729F00E947A33F40111821082B0
:103AD000D5011D921D921D921C92139704C081E086
:103AE000EC81FD81808381E090E0D8018D939C93EF
:103AF000F6011082118212821382D7011D921D924B
:103B00001D921C921397EA81FB811082D1011C92B5
:103B1000E7CE808126960FB6F894DEBF0FBECDBFEC
:103B2000DF91CF911F910F91FF90EF90DF90CF9099
:103B3000BF90AF909F908F907F906F905F904F90CD
:103B40003F902F900895BF92CF92DF92EF92FF9215
:103B50000F931F93CF93DF93EC01CB018E01045F92
:103B60001E4FF801C080D180E280F380C216D306D8
:103B7000E406F50618F4BC2C5D2D02C0B22E532FBE
:103B80007E01F0EFEF1AFEEFFF0AF701608171810D
:103B900061157105B9F00097A9F04B2D0E94D3343F
:103BA000F701808191810E947A33F701118210829E
:103BB000F8011082118212821382C65FDE4F1882D2
:103BC0008B2D01C080E0DF91CF911F910F91FF906D
:103BD000EF90DF90CF90BF90089560E00C94592152
:103BE0004F925F926F927F928F929F92AF92BF920D
:103BF000CF92DF92EF92FF920F931F93CF93DF93B9
:103C000000D000D01F92CDB7DEB78C01CE01019657
:103C10006C0185E0F60111928A95E9F760E0C80130
:103C20000E94A12164E170E080E090E00E94982869
:103C300061E0C8010E94A12188E290E00E94C028B2
:103C400060E0C8010E94A1210E9469284B015C012B
:103C500060E0C8010E94802181110EC00E94692885
:103C6000681979098A099B096330710581059105F5
:103C700078F3F801148215820E9469284B015C01D7
:103C800060E0C8010E948021882359F00E946928C1
:103C9000681979098A099B096330710581059105C5
:103CA00078F3E12CF12C0E9469284B015C0160E063
:103CB000C8010E94802181110BC00E9469286819E7
:103CC00079098A099B09633071058105910578F3AB
:103CD0000E9475284B015C010E9469282B013C0160
:103CE00060E0C8010E948021882359F00E94692861
:103CF0006419750986099709633071058105910575
:103D000078F30E947528681979098A099B09F701D7
:103D100023E0F595E7952A95E1F76932710581056C
:103D2000910530F0EC0DFD1D8081880F816004C08D
:103D3000EC0DFD1D8081880F8083FFEFEF1AFF0AD5
:103D400088E2E816F10409F0AECF59814B81842F47
:103D500090E0850F911D2D8130E08217930719F4B3
:103D6000F801548345830F900F900F900F900F90A0
:103D7000DF91CF911F910F91FF90EF90DF90CF9047
:103D8000BF90AF909F908F907F906F905F904F907B
:103D90000895FC01611102C0848108958581089510
:103DA000CF93DF93EC010E94022387E691E0998391
:103DB000888388A1FE01E858FF4F80838F8DC75804
:103DC000DF4F8883DF91CF910895CF93DF93EC018C
:103DD00040E855E260E070E00E943F2360E08F8D94
:103DE000DF91CF910C94AB291F93CF93DF93EC011C
:103DF0008BA1882319F0CE010E946D2360E0CE01D3
:103E00004F960E946F21182F8BA1882319F0CE01A5
:103E10000E94E51E81E08127DF91CF911F910895D7
:103E200086589F4FFC0180810895CF93DF93EC016A
:103E30000E94F41E8823A1F0CE010E94DA231816F6
:103E400019068CF4E881F9810680F781E02DCE0116
:103E500009958F3F91053CF4C658DF4F888303C016
:103E6000C658DF4F1882DF91CF9108950E94C0237A
:103E7000992708951F920F920FB60F9211240F9356
:103E80001F932F933F934F935F936F937F938F93E2
:103E90009F93AF93BF93CF93EF93FF9382E00E94E2
:103EA0001A2AC82F2091D9053091DA052F5F3F4F8C
:103EB0003093DA052093D90580913F06843618F0B7
:103EC00085E08093D4059091D405933079F018F46F
:103ED000923039F070C0943011F1953009F44AC035
:103EE0006AC0C11168C010923F0629C0C13009F0F4
:103EF00062C0E0913F0681E08E0F80933F06F0E0C4
:103F00008091D9059091DA05ED52FA4F8087109291
:103F1000DA051092D90584E08093D4054CC0C11114
:103F200014C0E0913F0681E08E0F80933F06F0E0E1
:103F30008091D9059091DA05ED52FA4F8087109261
:103F4000DA051092D90583E0E7CF8091D9059091E9
:103F5000DA058536910578F185E08093D4050E94D5
:103F600069286093D5057093D6058093D705909303
:103F7000D80521C00E9469280091D5051091D60569
:103F80002091D7053091D805601B710B820B930BE4
:103F9000693C71058105910540F010923F06109231
:103FA000DA051092D90582E0B7CFC11104C0109292
:103FB000DA051092D905FF91EF91CF91BF91AF91A2
:103FC0009F918F917F916F915F914F913F912F9131
:103FD0001F910F910F900FBE0F901F90189560E0EA
:103FE0000C945921613049F40E94B1218A5E9140BC
:103FF00020914206309143060AC0623059F40E9473
:10400000B5218A5E91402091400630914106820F91
:10401000931F089580E090E00895089570E0FB01FB
:10402000EC54FE4FE491DC01EC93FB01E853FE4FAE
:10403000E491F0E0EE0FFF1FE452FE4F2591349122
:10404000FC013283218308951F93CF93DF93FC01FA
:104050001081C181D2819981812F809589238983A3
:104060008A81812B8A838AE090E00E94C02898810F
:10407000912381E009F480E0DF91CF911F910895B1
:10408000FF920F931F93CF93DF93FC011081C181A7
:10409000D281F8948981F12EF0948F2189838A81CD
:1040A000812B8A8378940DE7015041F182E090E002
:1040B0000E94C02888818123B9F3F8948A818F21D6
:1040C0008A838981812B8983789480EE91E00E9494
:1040D000C028F89489818F2189838A81812B8A83E2
:1040E00086E490E00E94C0288881812301E009F0E5
:1040F00000E078948AE991E00E94C028802FDF9147
:10410000CF911F910F91FF9008951F93CF93DF934D
:10411000FC011081C181D281912F909560FF12C066
:10412000F8948A8189238A838981812B89838AE013
:1041300090E00E94C0288A81812B8A83789487E34B
:1041400090E011C0F8948A8189238A838981812B28
:10415000898381E490E00E94C0288A81812B8A8330
:10416000789485E090E0DF91CF911F910C94C02866
:104170000F931F93CF93DF93FC011081C181D281F4
:10418000F8948981812B89838A81012F009580236E
:104190008A8383E090E00E94C028898180238983FC
:1041A0008A81812B8A838AE090E00E94C028C8819E
:1041B000789485E390E00E94C0281C2381E009F4F4
:1041C00080E0DF91CF911F910F910895CF92DF9200
:1041D000EF92FF920F931F93CF93DF931F92CDB770
:1041E000DEB76C01E62E08E010E0FF24F39461E0F6
:1041F0009F2D9E2109F460E0C60149830E9485201D
:10420000FF0C0150110949810115110581F7411178
:104210001DC0F894D6011196ED91FC9112979181F1
:104220008C918095892381831196ED91FC91129751
:1042300082819C91892B82831196ED91FC9112973A
:1042400092818C9180958923828378940F90DF915D
:10425000CF911F910F91FF90EF90DF90CF90089535
:10426000EF92FF920F931F93CF93DF938C01C8E0DF
:10427000D0E0F12CEE24E394C8010E94B820811113
:10428000FE28EE0C2197C1F78F2DDF91CF911F9162
:104290000F91FF90EF90089540E06CEC0C94E620B5
:1042A000FC0180911A01808380911B01818312821D
:1042B0000895DC01E62FF0E0EE0FFF1FE65EFE4FF3
:1042C00080818C93818111968C93119712966C93B7
:1042D0000895FC0182810895FC0183810895CF93A4
:1042E000DF93EC0188810E94AB2988810E941A2A01
:1042F00021E0892B09F420E0822FDF91CF910895EE
:10430000CF93DF93EC0189810E94AB2989810E94C0
:104310001A2A21E0892B09F420E0822FDF91CF9126
:1043200008951F93CF93DF93EC01162F61E08881EE
:104330000E94AB29612F8881DF91CF911F910C944E
:10434000E4291F93CF93DF93EC01162F61E089815D
:104350000E94AB29612F8981DF91CF911F910C942D
:10436000E429FC0180810C940629FC0181810C94D4
:104370000629FC0180810C942329DC01E62FF0E062
:10438000EE0FFF1FE65EFE4F80818C9381811196B8
:104390008C93119712966C930895DC01E62FF0E050
:1043A000EE0FFF1FE65EFE4F80818C938181119698
:1043B0008C93119712966C93129713964C930895C1
:1043C000FC0180810895FC0181810895DC01129631
:1043D0006C931297E62FF0E0EE0FFF1FE65EFE4FA4
:1043E000918111969C93119780818C934230D9F4DE
:1043F000292F30E0F901EC54FE4FE4911C96EC9328
:104400001C97F901E853FE4FE491F0E0EE0FFF1F17
:10441000EA51FE4F2591349119963C932E931897AB
:1044200061E0892F19C0282F30E0F901EC54FE4FCC
:10443000E4911C96EC931C97F901E853FE4FE4912C
:10444000F0E0EE0FFF1FEA51FE4F259134911996CF
:104450003C932E93189761E00C94AB29CF93DF9394
:10446000EC01262F30E03D832C8323E0629FC001C6
:1044700011240E94E2329F838E83892B21F483E7EB
:1044800091E00E94E33480E090E04C815D819A01EC
:10449000220F331F240F351F8217930738F4EE8144
:1044A000FF81E80FF91F10820196EFCFDF91CF91C6
:1044B0000895CF93DF93EC010E94502160E2CE017A
:1044C000DF91CF910C942E220F93FC01A62FB0E028
:1044D00084819581A817B907B8F4862F880F860FB5
:1044E00090E0A681B781A80FB91F2C93A681B78150
:1044F000A80FB91F11964C930680F781E02DE80FA5
:10450000F91F028381E001C080E00F910895CF92EE
:10451000DF92EF92FF920F931F93CF93DF937C0173
:10452000142FD22EC02E611113C0C0E0D0E0F701CD
:1045300084819581C817D90748F40C2D2D2D412F62
:104540006C2FC7010E9464222196F1CF81E004C044
:1045500061500E94642280E0DF91CF911F910F9102
:10456000FF90EF90DF90CF9008950F93022F242FAC
:10457000462F60E00E9487220F9108950F931F93AA
:10458000D8013FB7F8949C91822F80958923292BDD
:10459000FB01460F571FE417F50781F0919168E082
:1045A0002C9300C097FF8C93990F00C000C000C0EF
:1045B00008F48C9300C06A9599F7EDCF3FBF1F9127
:1045C0000F9108950F931F93FC010085118524819D
:1045D0003581A901440F551F420F531F6681778112
:1045E00024850E94BE221F910F910895CF93DF93DF
:1045F000EC018E819F810E947A331F821E82DF919F
:10460000CF910895FF920F931F93CF93DF93EC0107
:10461000F62E8C01015E1F4FC8010E945921EF2D1B
:10462000F0E0EE0FFF1FE65EFE4F20E0408161816B
:10463000CE010E94F31085E991E09983888369EBAC
:1046400071E0CE0182599F4F0E94802D1DA21BA2B6
:104650001CA288A1FE01EA58FF4F80838F8D3196FE
:104660008083C8010E94692191E0853009F090E0C3
:104670009BA3DF91CF911F910F91FF900895CF924F
:10468000DF92EF92FF92CF93DF93EC016A017B01FF
:1046900060E472E48FE090E0A70196010E94A332EB
:1046A0003FA32EA38BA1882369F026E0B701A601C2
:1046B0008DE496E0DF91CF91FF90EF90DF90CF9067
:1046C0000C94522BB701A601CE01DF91CF91FF9040
:1046D000EF90DF90CF900C942311FC0123A12223B3
:1046E00021F08DE496E00C94B42B0C94B111CF9290
:1046F000DF92EF92FF920F931F93CF93DF93FC0112
:10470000C6A1D7A123976C01F6E7CF0ED11CF60105
:1047100080810E941A2A892BF1F400E010E0E12C3C
:10472000F12CCE010E94C028F60180810E941A2A35
:10473000002E02C0880F991F0A94E2F7E82AF92A8E
:104740000F5F1F4F0830110561F7CE010E94C0288E
:10475000C701992702C08FEF9FEFDF91CF911F9183
:104760000F91FF90EF90DF90CF900895FC0123A16F
:10477000222321F08DE496E00C94ED2A0C944E0F48
:10478000FC0124A1222351F020A531A54FEF5FEFBA
:1047900051A740A737FF0CC00C947723FC0123A13D
:1047A000222321F08DE496E00C94882A0C942D0F9E
:1047B000C9010895CF93DF93EC018CA1882371F098
:1047C000CE010E94772388A799A7892F8095881FFB
:1047D0008827881F90E0DF91CF9108958BA18823CF
:1047E00031F08DE496E0DF91CF910C946F2ACE01E9
:1047F000DF91CF910C94BA0FCF93DF93EC018E81B0
:10480000813011F460E001C061E08A810E94E429F6
:1048100061E08B810E94E42981E090E00E94C02841
:1048200060E08B81DF91CF910C94E429CF93DF93EB
:10483000EC0160E002960E94592185EA91E099839B
:104840008883DF91CF910895CF93DF93EC01029697
:104850000E94592185EA91E0998388831F821886F6
:1048600019861A861B861C861D861E861F8A188E30
:10487000198E1A8E0E9475286F8F78A389A39AA328
:104880001F86188A198A1A8A81E08E831F821886E9
:1048900019861A861B861C861D861E861BA21CA2D4
:1048A0001DA21EA21B8E1C8E1D8E1E8E61E08A8193
:1048B0000E94AB2961E08B81DF91CF910C94AB29F1
:1048C0000F931F93CF93DF93EC014B8D5C8D6D8D18
:1048D0007E8D452B462B472B11F480E035C00E947E
:1048E00075280F8D18A129A13AA1601B710B820BAD
:1048F000930B0B8D1C8D2D8D3E8D061717072807EA
:10490000390758F78E814F81588569857A858130BE
:1049100029F44F5F5F4F6F4F7F4F04C041505109E3
:10492000610971094F83588769877A87E881F9811E
:104930000190F081E02DCE0109950E9475286F8FBE
:1049400078A389A39AA381E0DF91CF911F910F9162
:1049500008952F923F924F925F926F927F928F9223
:104960009F92AF92BF92CF92DF92EF92FF920F93FE
:104970001F93CF93DF9300D000D000D0CDB7DEB728
:104980009E838D83FC01C384D484E584F68487816F
:104990009085A185B285C81AD90AEA0AFB0A6785FB
:1049A0007089818992899B01AC010E94A8304B01DA
:1049B0005C01ED81FE816789708D818D928D9B01F7
:1049C000AC010E94CB2D9B01AC01C501B4010E943A
:1049D000952E0E94FD2EC114D104E104F104A9F426
:1049E00062307105810591050CF082C0ED81FE8178
:1049F000138E148E158E168E1786108A118A128ABF
:104A000013A214A215A216A20AC1ED81FE8103A170
:104A100014A125A136A11C141D041E041F040CF5AD
:104A200010161106120613064CF46C157D058E0542
:104A30009F056CF5268121115BC029C00115110568
:104A40002105310509F454C06C157D058E059F05BF
:104A50000CF04EC0ED81FE818681813009F048C0A6
:104A60003CC010161106120613060CF5002711277C
:104A700098010C191D092E093F096017710782075B
:104A800093072CF4ED81FE812681213089F59B016D
:104A9000AC0188279927DC01821B930BA40BB50B73
:104AA000ED81FE8183A394A3A5A3B6A321C0011524
:104AB000110521053105E1F08824992454018C1851
:104AC0009D08AE08BF08681579058A059B0584F422
:104AD000ED81FE81868181110BC030952095109566
:104AE00001951F4F2F4F3F4F03A314A325A336A3B8
:104AF000ED81FE8183A094A0A5A0B6A081149104AD
:104B0000A104B10499F487A190A5A1A5B2A583A79A
:104B100094A7A5A7B6A781E01C141D041E041F04BA
:104B20000CF080E0ED81FE81868342C0ED81FE8144
:104B3000C3A4D4A4E5A4F6A4A7019601C701B601B5
:104B40000E94CB2D2B013C01C501B4010E94302FE6
:104B500020E030E040E850E40E94A83020E030E05F
:104B600040E85FE30E94CB2D9B01AC01C301B20181
:104B70000E94952E9B01AC01C701B6010E94CA2D6F
:104B80001B012C01ED81FE8167A470A801A912A967
:104B90009301A8010E945830181614F431018201C3
:104BA000A301B801ED81FE8143A754A765A776A7AD
:104BB000FFEF8F1A9F0AAF0ABF0AED81FE8183A221
:104BC00094A2A5A2B6A223A534A545A556A5CA01BF
:104BD000B90129833A834B835C830E94022FED81C4
:104BE000FE81638F748F858F968F29813A814B81E7
:104BF0005C8160E074E284E799E40E94952EED8187
:104C0000FE816787708B818B928B2681211107C073
:104C1000DC01CB01B0588787908BA18BB28B269695
:104C20000FB6F894DEBF0FBECDBFDF91CF911F91BD
:104C30000F91FF90EF90DF90CF90BF90AF909F903B
:104C40008F907F906F905F904F903F902F9008953E
:104C50000F931F93FC010385148525853685041762
:104C600015072607370741F04387548765877687FE
:104C70001F910F910C94A9241F910F910895CF9229
:104C8000DF92EF92FF92CF93DF93EC016A017B01F9
:104C90009A01AB016B897C898D899E890E94912E36
:104CA000882309F440C0CB8ADC8AED8AFE8AA701FA
:104CB000960160E074E284E799E40E94952E6FA764
:104CC00078AB89AB9AAB8BA19CA1ADA1BEA1181604
:104CD00019061A061B063CF56F85788989899A8919
:104CE0009B01AC010E94A8306B017C016F89788D1B
:104CF000898D9A8D9B01AC010E94CB2D9B01AC014B
:104D0000C701B6010E94952E0E94FD2E6BA37CA3C5
:104D10008DA39EA3CE01DF91CF91FF90EF90DF9006
:104D2000CF900C94A924DF91CF91FF90EF90DF906A
:104D3000CF9008956F927F928F929F92AF92BF9281
:104D4000CF92DF92EF92FF920F931F93CF93DF9357
:104D5000EC013A018B012F85388949895A89B301C1
:104D6000C8010E94912E882309F44FC0CB88DC88AB
:104D7000ED88FE8846015701B7FAB094B7F8B094B1
:104D8000A5019401B301C8010E94912E87FD0BC0BB
:104D9000A7019601B301C8010E94583018162CF4DF
:104DA0003601870102C03401850120E030E0A9010D
:104DB000B301C8010E94912E811105C01B8E1C8E6B
:104DC0001D8E1E8E1CC09301A80160E074E284E772
:104DD00099E40E94952E9F770E94022F6B8F7C8F03
:104DE0008D8F9E8FFF24F39420E030E0A901B30162
:104DF000C8010E94583018160CF0F12CFE82C30135
:104E0000D8018F87988BA98BBA8BDF91CF911F9197
:104E10000F91FF90EF90DF90CF90BF90AF909F9059
:104E20008F907F906F9008950F931F93FC010385DF
:104E300014852585368547815085618572850417DF
:104E400015072607370771F04017510762077307E8
:104E50001CF421E0268302C0FC0116821F910F91F1
:104E60000C94602480E01F910F910895CF93DF93FD
:104E7000EC010E945021CE010496DF91CF910C9459
:104E80000D201F93CF93DF93EC01142F0E94CD21AF
:104E9000123011F4698101C06881CE010496DF915E
:104EA000CF911F910C940E20CF92DF92EF92FF9240
:104EB0000F931F93CF93DF93CDB7DEB72C970FB629
:104EC000F894DEBF0FBECDBF8C010C5F1F4FC80131
:104ED0000E944020C8010E944C2140E064E4C801C7
:104EE0000E94E6200E9469286B017C01C8010E9493
:104EF000242081110BC00E9469286C197D098E093C
:104F00009F096E3E72408105910580F3C8010E94A1
:104F10004020C8010E944C2140E06EEBC8010E9475
:104F2000E620CE0101967C016E0196E0C90ED11CEF
:104F3000C8010E943021F70181937F01EC15FD0526
:104F4000B9F76A8170E0762F66278981682B8827F8
:104F500077FD8095982F0E94302F20E030E040E8C8
:104F60005DE30E94A8302C960FB6F894DEBF0FBE0A
:104F7000CDBFDF91CF911F910F91FF90EF90DF9008
:104F8000CF90089560E00C945921CF92DF92EF9278
:104F9000FF92CF93DF9300D000D0CDB7DEB77C0176
:104FA0009A01AB0160E029833A834B835C830E94C2
:104FB000A12182E090E00E94C02861E0C7010E9428
:104FC000A1218AE090E00E94C02860E0C7010E9411
:104FD000A12160E0F70181810E94AB2929813A81FA
:104FE0004B815C8161E0F70181810E94432A6B0162
:104FF0007C0184E690E00E94C028C701B6010F90B2
:105000000F900F900F90DF91CF91FF90EF90DF9076
:10501000CF90089527E3269FA001279F500D1124CC
:1050200048535F4F60E070E00E94C5270E94302F18
:1050300020E030E048E652E40E94952E08951F9249
:105040000F920FB60F9211242F933F938F939F933C
:10505000AF93BF938091450690914606A091470675
:10506000B09148063091440623E0230F2D3720F4F9
:105070000196A11DB11D05C026E8230F0296A11DB2
:10508000B11D209344068093450690934606A09355
:105090004706B09348068091490690914A06A09130
:1050A0004B06B0914C060196A11DB11D8093490697
:1050B00090934A06A0934B06B0934C06BF91AF91D4
:1050C0009F918F913F912F910F900FBE0F901F9046
:1050D00018952FB7F8946091450670914606809117
:1050E0004706909148062FBF08953FB7F8948091E6
:1050F000490690914A06A0914B06B0914C0626B500
:10510000A89B05C02F3F19F00196A11DB11D3FBFFF
:105110006627782F892F9A2F620F711D811D911D8F
:1051200042E0660F771F881F991F4A95D1F70895AF
:10513000CF92DF92EF92FF92CF93DF936B017C01CE
:105140000E947528EB01C114D104E104F10489F037
:105150000E94C92D0E9475286C1B7D0B683E734010
:1051600090F381E0C81AD108E108F108C851DC4F7A
:10517000EACFDF91CF91FF90EF90DF90CF9008952D
:105180008230910538F0880F991F880F991F059775
:105190000197F1F70895789484B5826084BD84B551
:1051A000816084BD85B5826085BD85B5816085BD22
:1051B000EEE6F0E0808181608083E1E8F0E010823B
:1051C000808182608083808181608083E0E8F0E07C
:1051D000808181608083E1EBF0E080818460808366
:1051E000E0EBF0E0808181608083EAE7F0E080819D
:1051F00084608083808182608083808181608083FD
:105200008081806880831092C10008958E3008F0FC
:105210008E5087702091380190E4299F90011124CD
:10522000822B80937C0080917A00806480937A0046
:1052300080917A0086FDFCCF8091780020917900E2
:1052400090E0922B08951F93CF93DF93182FEB01DB
:1052500061E00E94AB29209711F460E004C0CF3FC9
:10526000D10539F461E0812FDF91CF911F910C942A
:10527000E429E12FF0E0E056FE4FE491E330F9F04D
:1052800048F4E130B9F0E230A1F584B5806284BD24
:10529000C8BD34C0E730E9F0E83019F1E43049F531
:1052A00080918000806280938000D0938B00C093B7
:1052B0008A0024C084B5806884BDC7BD1FC08091AA
:1052C0008000806880938000D0938900C09388001C
:1052D00015C08091B00080688093B000C093B30087
:1052E0000DC08091B00080628093B000C093B40084
:1052F00005C0C038D1050CF0B5CFAFCFDF91CF914D
:105300001F910895833081F028F4813099F0823024
:10531000A1F008958730A9F08830B9F08430D1F435
:10532000809180008F7D03C0809180008F77809373
:105330008000089584B58F7702C084B58F7D84BDC9
:1053400008958091B0008F7703C08091B0008F7D69
:105350008093B0000895CF93DF9390E0FC01EC546C
:10536000FE4F2491FC01E853FE4F8491882349F1BC
:1053700090E0880F991FFC01E051FE4FA591B49178
:105380008A519E4FFC01C591D4919FB7611108C00D
:10539000F8948C91209582238C93888182230AC073
:1053A000623051F4F8948C91322F309583238C9392
:1053B0008881822B888304C0F8948C91822B8C93F3
:1053C0009FBFDF91CF9108950F931F93CF93DF93EA
:1053D0001F92CDB7DEB7282F30E0F901E056FE4F1F
:1053E0008491F901EC54FE4F1491F901E853FE4FFA
:1053F00004910023C9F0882321F069830E94822947
:105400006981E02FF0E0EE0FFF1FEA51FE4FA591FA
:10541000B4919FB7F8948C91611103C010958123CA
:1054200001C0812B8C939FBF0F90DF91CF911F9173
:105430000F910895CF93DF93282F30E0F901E056C4
:10544000FE4F8491F901EC54FE4FD491F901E853D9
:10545000FE4FC491CC2391F081110E948229EC2F40
:10546000F0E0EE0FFF1FE452FE4FA591B4912C9196
:105470002D2381E090E021F480E002C080E090E004
:10548000DF91CF9108950F931F93762F90E0FC0149
:10549000EC54FE4F6491FC01E853FE4FE49171110E
:1054A000762FF0E0EE0FFF1FE452FE4F85919491AE
:1054B00089019A013F70472F0E942D0161157105E6
:1054C0008105910531F06F5F7F4F8F4F9F4F9F7028
:1054D00003C060E070E0CB011F910F910895FC01C3
:1054E000818D228D90E0805C9F4F821B91098F738C
:1054F00099270895FC01918D828D981731F0828D46
:10550000E80FF11D858D90E008958FEF9FEF0895CE
:10551000FC01918D828D981761F0828DDF01A80FBB
:10552000B11D5D968C91928D9F5F9F73928F90E0DD
:1055300008958FEF9FEF089588E29CE2892B49F050
:1055400080E090E0892B29F00E94282C81110C9496
:1055500000000895FC01848DDF01A80FB11DA35A3E
:10556000BF4F2C91848D90E001968F739927848F83
:10557000A689B7892C93A089B1898C9180648C937A
:10558000938D848D981306C00288F389E02D808165
:105590008F7D80830895CF93DF93EC01888D8823DE
:1055A000C9F0EA89FB89808185FD05C0A889B98990
:1055B0008C9186FD0FC00FB607FCF5CF808185FF6B
:1055C000F2CFA889B9898C9185FFEDCFCE010E94D9
:1055D000AA2AE7CFDF91CF910895CF92DF92FF9271
:1055E0000F931F93CF93DF931F92CDB7DEB76C015C
:1055F00081E0D60158968C9358975B969C915B9767
:105600005C968C915C97981307C05096ED91FC9135
:105610005197808185FD2EC0F601038D10E00F5F4C
:105620001F4F0F731127F02EF601848DF81211C051
:105630000FB607FCF9CFD6015096ED91FC9151972A
:10564000808185FFF1CFC60169830E94AA2A698102
:10565000EBCF838DE80FF11DE35AFF4F6083D60136
:105660005B960C935B975296ED91FC9153978081DA
:1056700080620CC0D6015696ED91FC9157976083DD
:105680005096ED91FC91519780818064808381E0F8
:1056900090E00F90DF91CF911F910F91FF90DF90DD
:1056A000CF900895BF92CF92DF92EF92FF92CF9367
:1056B000DF93EC016A017B01B22EE889F98982E06F
:1056C0008083411581EE580761057105A1F060E006
:1056D00079E08DE390E0A70196010E94813221508C
:1056E0003109410951095695479537952795211557
:1056F00080E1380798F0E889F989108260E874E859
:105700008EE190E0A70196010E948132215031097B
:10571000410951095695479537952795EC85FD85A3
:105720003083EE85FF852083188EEC89FD89B08259
:10573000EA89FB89808180618083EA89FB89808195
:1057400088608083EA89FB89808180688083EA8918
:10575000FB8980818F7D8083DF91CF91FF90EF90D7
:10576000DF90CF90BF900895FC01938D848D9813A6
:10577000FCCFA289B3898C918F7E8C93A289B38947
:105780008C91877F8C93A289B3898C918F778C932E
:10579000A289B3898C918F7D8C93828D818F08959E
:1057A0001F920F920FB60F9211242F938F939F93F6
:1057B000EF93FF93E0915D06F0915E068081E091AA
:1057C0006306F091640682FD12C0908180916606A6
:1057D0008F5F8F7320916706821751F0E091660604
:1057E000F0E0E35BF94F958F8093660601C08081FE
:1057F000FF91EF919F918F912F910F900FBE0F907E
:105800001F9018951F920F920FB60F9211242F938D
:105810003F934F935F936F937F938F939F93AF9338
:10582000BF93EF93FF938DE496E00E94AA2AFF9125
:10583000EF91BF91AF919F918F917F916F915F9108
:105840004F913F912F910F900FBE0F901F90189581
:105850008DE496E00E946F2A21E0892B09F420E074
:10586000822F08951092500610924F0688EE93E012
:10587000A0E0B0E08093510690935206A0935306A7
:10588000B09354068BEA91E090934E0680934D06B8
:1058900085EC90E090935A068093590684EC90E052
:1058A00090935C0680935B0680EC90E090935E069C
:1058B00080935D0681EC90E09093600680935F0694
:1058C00082EC90E0909362068093610686EC90E013
:1058D00090936406809363061092660610926706A2
:1058E0001092680610926906089508950E94CB28C8
:1058F0000E94752C0E947201CCE9DAE20E94DE0956
:105900002097E1F30E949C2AF9CF0C94E2320C9488
:105910007A33CF92DF92EF92FF920F931F93CF9340
:10592000DF936C017A01EB01E60EF71E00E010E058
:10593000CE15DF0561F06991D601ED91FC910190E2
:10594000F081E02DC6010995080F191FF1CFC8019C
:10595000DF91CF911F910F91FF90EF90DF90CF904B
:1059600008956115710581F0DB010D900020E9F7C4
:10597000AD0141505109461B570BDC01ED91FC91E3
:105980000280F381E02D099480E090E0089567EBB8
:1059900071E00C94B12C4F925F926F927F92AF9214
:1059A000BF92CF92DF92EF92FF920F931F93CF930C
:1059B000DF93CDB7DEB729013A01621B730B840B6D
:1059C000950B29893A894B895C892A193B094C092D
:1059D0005D09298B3A8B4B8B5C8B9B01AC016989F0
:1059E0007A898B899C890E943D32E418F508060962
:1059F0001709A80197010E94A3322A0D3B1D4C1DD7
:105A00005D1DCA01B901DF91CF911F910F91FF90E8
:105A1000EF90DF90CF90BF90AF907F906F905F90AE
:105A20004F900895FC01808191810C947A33CF933B
:105A3000DF93EC0188819981009711F00E947A33FD
:105A4000198218821D821C821B821A82DF91CF91DB
:105A500008950F931F93CF93DF93EC018B016F5F3A
:105A60007F4F888199810E940934009731F0998392
:105A700088831B830A8381E001C080E0DF91CF919E
:105A80001F910F910895CF93DF93EC018881998145
:105A9000892B29F08A819B818617970760F4CE01B4
:105AA0000E94292D882341F08C819D81892B19F436
:105AB000E881F981108281E0DF91CF910895EF9222
:105AC000FF920F931F93CF93DF93EC017B018A0129
:105AD000BA010E94432D811104C0CE010E94172DEE
