:100000001AC1000049C1000047C1000045C10000FD
:1000100043C1000041C100003FC100003DC10000DC
:100020003BC10000B9C70000B7C70000B5C700005A
:1000300033C100004FC200002FC100002DC10000DD
:100040002BC1000014C6000027C1000025C100001C
:1000500023C1000021C100001FC100000C948309CE
:100060001BC100000C94F60C0C942C0D15C1000063
:1000700013C1000011C100000FC100000DC100003C
:1000800023C6000009C1000007C1000005C100002F
:1000900003C1000001C10000FFC00000FDC000005E
:1000A000FBC00000F9C000003CC60000F5C0000025
:1000B000F3C00000F1C00000EFC000005FC6000008
:1000C000EBC00000E9C00000E7C000000C94A10DE7
:1000D0000C94D70DE1C000000C944C0E0C94820ED1
:1000E000DBC00000B80ABB0AAA0AAE0AB40AF20AC8
:1000F000BF0AC30AC90ACD0AD10AD70ADB0ADF0A36
:10010000F20AE50AE90AED0A00000A0B02090C0DE1
:100110000E080703040100000000000000000000BA
:1001200000000000000000000000000000000000CF
:10013000000000001211100000000000000000008C
:1001400000000000000000000000000000000102AC
:1001500010202008081020401020408002010201D9
:100160000804020101020408102040808040201091
:1001700008040201800402018040201008040201EA
:100180000804020101020408102040800102040852
:10019000102040800505050507050808080802022B
:1001A00002020A0A08080404040401010101010111
:1001B00001010303030303030303040707070C0CF4
:1001C0000C0C0C0C0C0C02020202060606060606BB
:1001D00006060B0B0B0B0B0B0B0B00002000230078
:1001E000260029002C002F0032000001000003012E
:1001F0000601090100002200250028002B002E0026
:100200003100340002010000050108010B0100006B
:100210002100240027002A002D00300033000101B6
:100220000000040107010A0129023A025E0D090ECD
:10023000B40E2D023D0211241FBECFEFD1E2DEBF6E
:10024000CDBF00E00CBF12E0A0E0B2E0E8E9F5E2CB
:1002500000E00BBF02C007900D92A63BB107D9F793
:1002600027E0A6EBB2E001C01D92A03CB207E1F787
:1002700012E0C2E3D2E000E006C022970109FE01CD
:100280000BBF0E949C10C832D10780E00807A9F775
:100290000E9424100C94BB12B3CE26E040E855E235
:1002A00060E070E085EE95E00E94960C40E855E233
:1002B00060E070E082EC92E015D362E370E080E0F1
:1002C00090E00E94FC096CE272E085EE95E00E94ED
:1002D000390F0E94CD097093B7026093B60208955A
:1002E0000F931F9382EC92E0F3D182EC92E0C9D19C
:1002F0009093C1028093C00282EC92E0CFD19093A0
:10030000BF028093BE0282EC92E0D5D19093BD02F1
:100310008093BC0282EC92E06ED29093BB028093F9
:10032000BA0282EC92E074D29093B9028093B80240
:100330000E94CD090091B6021091B702222717FD45
:100340002095322F601B710B820B930B653F714020
:100350008105910508F47AC00E94CD097093B70217
:100360006093B60266E372E085EE95E00E94350F79
:100370006091BA027091BB024AE050E085EE95E0D0
:100380000E94A20F68E472E085EE95E00E94350FAE
:100390006BE372E085EE95E00E94350F6091C0023C
:1003A0007091C1024AE050E085EE95E00E94A20FF4
:1003B00062E472E085EE95E00E94350F6AE472E037
:1003C00085EE95E00E94350F6091BE027091BF02EC
:1003D0004AE050E085EE95E00E94A20F62E472E0F0
:1003E00085EE95E00E94350F61E572E085EE95E0BF
:1003F0000E94350F6091BC027091BD024AE050E04E
:1004000085EE95E00E94A20F67E572E085EE95E02B
:100410000E94350F68E472E085EE95E00E94350F8A
:100420006EE572E085EE95E00E94350F6091B802AE
:100430007091B9024AE050E085EE95E00E94A20F6B
:1004400085EE95E01F910F910C94360F1F910F913F
:10045000089563E082EC92E0F4C089E792E0909323
:10046000C3028093C20280E393E00E94A70F82EC54
:1004700092E010C68BE793E003C08BE793E029C0BE
:1004800021E030E0FC0131832083EE5FFE4F1082DB
:100490001182128213823496108211821282138288
:1004A0003496108231961082319610821182128217
:1004B0001382349611821082329610823196108205
:1004C0001182128213823496108211821282138258
:1004D000089508951F920F920FB60F9211240BB634
:1004E0000F920F931F932F933F934F935F936F93AD
:1004F0007F938F939F93AF93BF93CF93EF93FF938C
:1005000082E00E94610BC82F20919C0430919D04D1
:100510002F5F3F4F30939D0420939C0480910205F0
:10052000843618F085E08093970490919704933077
:1005300079F018F4923039F06EC0943011F19530A2
:1005400009F449C068C0C11166C01092020529C0F3
:10055000C13009F060C0E091020581E08E0F809308
:100560000205F0E080919C0490919D04EA56FB4FB7
:10057000808710929D0410929C0484E080939704DD
:100580004AC0C11114C0E091020581E08E0F809332
:100590000205F0E080919C0490919D04EA56FB4F87
:1005A000808710929D0410929C0483E0E7CF809195
:1005B0009C0490919D048536910568F185E08093B7
:1005C0009704EBD6609398047093990480939A04EF
:1005D00090939B0420C0E1D6009198041091990457
:1005E00020919A0430919B04601B710B820B930B3A
:1005F000693C71058105910540F010920205109249
:100600009D0410929C0482E0B9CFC11104C01092E5
:100610009D0410929C04FF91EF91CF91BF91AF91F7
:100620009F918F917F916F915F914F913F912F910A
:100630001F910F910F900BBE0F900FBE0F901F9048
:100640001895CF93DF93EC0103D189E692E099836B
:100650008883FE01E854FF4F1082E054F1098FE1D6
:10066000DF01982F1D929A95E9F77F96DF011D9281
:100670008A95E9F7CA54DF4F19821882DF91CF912A
:100680000895FC01E558FF4F208130E0322F2227EA
:1006900031968081A901482BCA010895FC01E358D5
:1006A000FF4F208130E0322F222731968081A9012F
:1006B000482BCA010895FC01E158FF4F208130E02A
:1006C000322F222731968081A901482BCA01089533
:1006D0007F928F929F92AF92BF92CF92DF92EF92D2
:1006E000FF920F931F93CF93DF93EC013FE6832E8E
:1006F000912C8C0108541F4F772473948A549F4F78
:100700007C016E0194EBC90ED11C5E01E5EBAE0ECF
:10071000B11CE881F9810480F581E02DCE011995A5
:10072000892B09F45AC0E881F9810680F781E02D10
:10073000CE011995F80190819923C9F1F701208123
:1007400031812C0F3D1FF901E956FF4F8083F701DE
:1007500080819181019691838083808191814F97DF
:10076000C4F280E090E0FE01E80FF91FE856FF4F69
:100770002081820E911C01968C319105A1F7F60122
:10078000808190E0982F8827F5012081822B8816A0
:100790009906C9F4CE012FE1FC01E956FF4F3081E3
:1007A0007F973083215001962111F6CF0CC08D33F5
:1007B00069F4F8018081882331F080817082F7012B
:1007C00011821082A6CFF8011082F9CF823309F08E
:1007D000A0CFF801808170829CCFDF91CF911F91D3
:1007E0000F91FF90EF90DF90CF90BF90AF909F90D0
:1007F0008F907F900895FC01E758FF4F208130E0F3
:10080000322F222731968081A901482BCA010895F1
:10081000FC01EB56FF4F208130E0322F222731962A
:100820008081A901482BCA010895DC01E62FF0E080
:10083000EE0FFF1FE65FFD4F80818C938181119643
:100840008C93119712966C930895FC018281089500
:10085000FF920F931F93CF93DF93EC01F62E8C0141
:10086000015E1F4FC801E1DFEF2DF0E0EE0FFF1F2B
:10087000E65FFD4F20E040816181CE015FD489E7D2
:1008800092E09983888369E472E0CE0182599F4F98
:100890000E940E101DA21BA21CA288A1FE01EA58F4
:1008A000FF4F80838F8D31968083C801CEDFF82E75
:1008B000C801CBDF91E08F3009F090E021E085E0C6
:1008C000F81220E0F92EF22AC801BFDF91E0803152
:1008D00009F090E09F299BA3DF91CF911F910F9189
:1008E000FF900895CF92DF92EF92FF92CF93DF9324
:1008F000EC016A017B0160E472E48FE090E0A70103
:1009000096010E947A103FA32EA38BA18823F1F0B9
:100910006F96CE019ADF8F3031F426E0B701A60141
:100920008FE197E009C0CE0190DF26E0B701A60174
:10093000803149F485EE95E0DF91CF91FF90EF9003
:10094000DF90CF90F3C782E896E0F6CFB701A6011B
:10095000CE01DF91CF91FF90EF90DF90CF901CC43C
:10096000CF92DF92EF92FF920F931F93CF93DF937B
:10097000FC01C6A1D7A123976C01F6E7CF0ED11CCD
:10098000F60180819ED6892BD9F400E010E0E12C9D
:10099000F12CCE0168D5F601808193D6002E02C0DD
:1009A000880F991F0A94E2F7E82AF92A0F5F1F4F70
:1009B0000830110571F7CE0156D5C701992702C03D
:1009C0008FEF9FEFDF91CF911F910F91FF90EF90ED
:1009D000DF90CF9008950F931F93CF93DF931F92D3
:1009E000CDB7DEB7FC0123A12223E9F08C01015E23
:1009F0001F4FC801698329DF69818F3019F48FE1A6
:100A000097E008C0C801698320DF6981803141F423
:100A100085EE95E00F90DF91CF911F910F9122C746
:100A200082E896E0F7CF0F90DF91CF911F910F9161
:100A3000F3C1CF93DF93FC0124A1222359F020A519
:100A400031A54FEF5FEF51A740A737FF1FC0DF91E0
:100A5000CF9186CFFC0123A12223A9F0EC016F9650
:100A6000CE01F3DE8F3019F48FE197E006C0CE019E
:100A7000ECDE803129F485EE95E0DF91CF9162C6FE
:100A800082E896E0FACFDF91CF91A5C1C901DF914D
:100A9000CF910895CF93DF93EC018CA1882369F067
:100AA000CE015EDF88A799A7892F8095881F8827A8
:100AB000881F90E0DF91CF9108958BA18823A1F04A
:100AC0006F96CE01C2DE8F3019F48FE197E006C039
:100AD000CE01BBDE803129F485EE95E0DF91CF9128
:100AE00018C682E896E0FACFCE01DF91CF91FFC120
:100AF000CF92DF92EF92FF920F931F93CF93DF93EA
:100B00006C018B017A01EC01CC5FDA4F888187FFA1
:100B100004C0FB011182108223C02CE02C9DC00177
:100B20002D9D900D11242881AC01420F511D27FDF0
:100B30005A952091030530E0421753078CF4288121
:100B4000AC01420F511D27FD5A959A01FA01EE0F93
:100B5000FF1FE20FF31FE85FFA4F208127FD19C046
:100B600088818F5F88838CE08C9D90018D9D300DF6
:100B700011248881A901480F511D87FD5A95809144
:100B8000030590E048175907ACF488818C3034F1A4
:100B900011C02881820F911D27FD9A95FC01EE0F4F
:100BA000FF1FE80FF91FE85FFA4F808160E08F7741
:100BB00053D5D6CFF80180819181049680349C4929
:100BC00018F480E49CE904C0F801808191810496C6
:100BD000F701918380838FEF888340C0F801808183
:100BE00091814881B901640F711D47FD7A95AB0170
:100BF000FB01EE0FFF1FE40FF51FE85FFA4F418185
:100C00005281840F951FF701918380838881A90108
:100C1000480F511D87FD5A95FA01EE0FFF1FE40F93
:100C2000F51FE85FFA4F808187FF18C08881280F81
:100C3000311D87FD3A95F901EE0FFF1FE20FF31FFB
:100C4000E85FFA4F808161E08F77DF91CF911F914C
:100C50000F91FF90EF90DF90CF90FEC4DF91CF9186
:100C60001F910F91FF90EF90DF90CF9008951F920A
:100C70000F920FB60F9211240BB60F922F933F9342
:100C80004F935F936F937F938F939F93AF93BF9394
:100C9000EF93FF9348E850E064E870E081E090E073
:100CA00027DFFF91EF91BF91AF919F918F917F913E
:100CB0006F915F914F913F912F910F900BBE0F90CD
:100CC0000FBE0F901F9018951F920F920FB60F92A4
:100CD00011240BB60F922F933F934F935F936F9313
:100CE0007F938F939F93AF93BF93EF93FF9348E9C5
:100CF00050E064E970E082E090E0FADEFF91EF916D
:100D0000BF91AF919F918F917F916F915F914F9123
:100D10003F912F910F900BBE0F900FBE0F901F9021
:100D200018951F920F920FB60F9211240BB60F92C7
:100D30002F933F934F935F936F937F938F939F93E3
:100D4000AF93BF93EF93FF9348EA50E064EA70E0FB
:100D500083E090E0CDDEFF91EF91BF91AF919F9145
:100D60008F917F916F915F914F913F912F910F9054
:100D70000BBE0F900FBE0F901F9018951F920F92F1
:100D80000FB60F9211240BB60F922F933F934F93F0
:100D90005F936F937F938F939F93AF93BF93EF93E3
:100DA000FF9348E251E064E271E080E090E0A0DE71
:100DB000FF91EF91BF91AF919F918F917F916F9133
:100DC0005F914F913F912F910F900BBE0F900FBEEF
:100DD0000F901F9018952091DA053091DB052817A8
:100DE0003907B9F49091980580919905981789F081
:100DF000E0919805F0E0E656FA4F80812091980541
:100E000030E02F5F3F4F2F7333272093980590E0FA
:100E100008958FEF9FEF08951F93CF93DF93DC0129
:100E20005C968D919C915D97009749F481E090E0EC
:100E300013969C938E93129780E090E03BC051965E
:100E4000ED91FC91529750962C915097322F3095FE
:100E50001FB75E964C915E9741FB772770F941FD75
:100E60006095F8944081772311F0422B01C0432311
:100E70004083EC012197F1F748E0508160FF02C008
:100E8000522B01C053235083EC012197F1F7669553
:100E9000415099F78081772311F0832301C0822B81
:100EA00080831FBF5C968D919C915D970197F1F7B0
:100EB00081E090E0DF91CF911F91089508952091F6
:100EC000DA053091DB052817390771F49091980500
:100ED00080919905981741F0E0919805F0E0E65669
:100EE000FA4F808190E008958FEF9FEF0895209151
:100EF000DA053091DB052817390769F480919905E7
:100F00002091980590E0805C9F4F821B910960E4DE
:100F100070E00C94451080E090E00895E091DA05CF
:100F2000F091DB05E817F90769F4A389B4899C916E
:100F30008589809589238C931092DB051092DA05C0
:100F400081E0089580E00895CF93DF93EC018A8DCE
:100F50009B8D892BE9F08091DA059091DB058C1748
:100F60009D07B1F0009709F0D9DF8E8D8E7F8E8FAF
:100F70001092990510929805D093DB05C093DA057D
:100F8000EB89FC8980819D89892B808381E001C068
:100F900080E0DF91CF9108951F920F920FB60F92CC
:100FA00011240BB60F922F933F934F935F936F9340
:100FB0007F938F939F93AF93BF93EF93FF93E091B2
:100FC000DA05F091DB05309709F451C0868DA685CE
:100FD000B785958581FF04C08C91892329F447C08A
:100FE0008C91892309F043C0A389B4899C91858998
:100FF000809589238C93868997890197F1F7208DB5
:10100000318DA685B785758558E040E0C901019707
:10101000F1F7842F90E095958795482F6C91672381
:1010200009F04068515091F7868D81FD409580917F
:10103000990590E001968F739927209198052817BC
:1010400049F0A0919905B0E0A656BA4F4C93809311
:10105000990503C0868D8160868F828D938D01975F
:10106000F1F7A389B4898C919589892B8C93FF9191
:10107000EF91BF91AF919F918F917F916F915F9110
:101080004F913F912F910F900BBE0F900FBE0F907D
:101090001F90189529E832E0FC01318320833ECF70
:1010A0001F93CF93DF93EC01162F6E8D66956170C1
:1010B00081E06827812FD0D261E0812F94D2812FE7
:1010C00090E0FC01E25BFE4FE491E88BFC01EC5602
:1010D000FE4FE491F0E0EE0FFF1FEC50FE4F8591C4
:1010E00094919A8B898BDF91CF911F9108951F93D3
:1010F000CF93DF93EC01162F60E0812F74D28E8D99
:1011000081FD03C061E0812FA7D21C87812F90E071
:10111000FC01E25BFE4FE491ED87FC01EC56FE4FD3
:10112000E491F0E0EE0FFF1FE652FE4F859194919F
:101130009F878E87DF91CF911F910895FF920F9324
:101140001F93CF93DF93EC01F62E522F1B821A824E
:1011500008EE13E020E030E00C831D832E833F83F4
:1011600089E892E0998388831F8A1E8A198E188ED7
:101170001B8E1A8E1D8E1C8E8E8D8E7F50FB81F9DC
:101180008E8F642FCE018CDF6F2DCE01DF91CF913A
:101190001F910F91FF90ABCF0F931F93CF93DF93CE
:1011A000EC019A01AB011B8E1A8E198E188E1F8AC4
:1011B0001E8A60E079E08DE390E09CD7C90124307D
:1011C000310520F0B9016350710902C061E070E09F
:1011D0007D8F6C8F1C8506EF010F043048F06EEC9C
:1011E000610F643028F062EC610F683008F07DC058
:1011F000B901769567956431710518F063517109ED
:1012000002C061E070E07F8B6E8B069718F0C90119
:10121000059702C081E090E0998F888FC901880FFF
:10122000991F820F931F96958795969587958D3078
:10123000910510F00C9702C081E090E09B8F8A8F9F
:10124000043060F08EEC810F843040F082EC810F2E
:10125000883008F050C0A8E6B0E04FC0A8E6B0E083
:10126000E8E6F0E09081043028F01E53183010F4C6
:1012700084E001C081E0892B8C932C8536EF320FFE
:10128000343058F08EEC820F843038F082EC820FCC
:10129000883030F48DE690E005C08BE690E002C027
:1012A00080E090E09C8B8B8B343010F426500BC088
:1012B000223379F0233379F0243379F082EC820FF2
:1012C000883068F4282F81E001C0880F2A95EAF75A
:1012D00007C088E005C084E003C082E001C081E06F
:1012E0008D8B8C8D9D8D0197F1F7CE01DF91CF9184
:1012F0001F910F9129CEA0E0B0E0883008F4B0CF64
:10130000E0E0F0E0AFCF1F920F920FB60F921124E2
:101310002F933F938F939F93AF93BF938091DD055E
:101320009091DE05A091DF05B091E0053091DC05DC
:1013300023E0230F2D3720F40196A11DB11D05C018
:1013400026E8230F0296A11DB11D2093DC05809392
:10135000DD059093DE05A093DF05B093E005809155
:10136000E1059091E205A091E305B091E4050196B5
:10137000A11DB11D8093E1059093E205A093E305C3
:10138000B093E405BF91AF919F918F913F912F91C1
:101390000F900FBE0F901F9018952FB7F894609183
:1013A000DD057091DE058091DF059091E0052FBF8E
:1013B00008953FB7F8948091E1059091E205A091DE
:1013C000E305B091E40526B5A89B05C02F3F19F0B1
:1013D0000196A11DB11D3FBF6627782F892F9A2F37
:1013E000620F711D811D911D42E0660F771F881FDE
:1013F000991F4A95D1F708958F929F92AF92BF920D
:10140000CF92DF92EF92FF926B017C01D2DF4B0112
:101410005C01C114D104E104F104E1F021D6C9DF7B
:10142000681979098A099B09683E7340810591050D
:1014300080F321E0C21AD108E108F10888EE880E95
:1014400083E0981EA11CB11CC114D104E104F10475
:1014500031F7DFCFFF90EF90DF90CF90BF90AF904C
:101460009F908F9008958230910538F0880F991FD2
:10147000880F991F05970197F1F70895789484B51F
:10148000826084BD84B5816084BD85B5826085BD80
:1014900085B5816085BDEEE6F0E080818160808366
:1014A000E1E8F0E010828081826080838081816049
:1014B0008083E0E8F0E0808181608083E1EBF0E010
:1014C000808184608083E0EBF0E0808181608083B4
:1014D000E1E9F0E0808182608083808181608083A7
:1014E000E0E9F0E0808181608083E1EAF0E08081E2
:1014F00082608083808181608083E0EAF0E0808187
:1015000081608083E1E2F1E080818260808380817C
:1015100081608083E0E2F1E0808181608083EAE79E
:10152000F0E080818460808380818260808380811C
:10153000816080838081806880831092C1000895DB
:1015400090E0FC013197E231F10508F04BC0EE5814
:10155000FF4FECC5809180008F7703C080918000A1
:101560008F7D80938000089580918000877FF9CFE0
:1015700084B58F7702C084B58F7D84BD0895809136
:10158000B0008F7703C08091B0008F7D8093B00052
:101590000895809190008F7707C0809190008F7D93
:1015A00003C080919000877F809390000895809180
:1015B000A0008F7707C08091A0008F7D03C080912D
:1015C000A000877F8093A0000895809120018F77ED
:1015D00007C0809120018F7D03C080912001877F0B
:1015E000809320010895CF93DF9390E0FC01E25BAC
:1015F000FE4F2491FC01EC56FE4F8491882349F163
:1016000090E0880F991FFC01E25FFD4FA591B49116
:101610008C509E4FFC01C591D4919FB7611108C0B9
:10162000F8948C91209582238C93888182230AC020
:10163000623051F4F8948C91322F309583238C933F
:101640008881822B888304C0F8948C91822B8C93A0
:101650009FBFDF91CF9108950F931F93CF93DF9397
:101660001F92CDB7DEB7282F30E0F901E85FFE4FBB
:101670008491F901E25BFE4F1491F901EC56FE4FA3
:1016800004910023C1F0882319F0698359DF69812F
:10169000E02FF0E0EE0FFF1FEC50FE4FA591B4914C
:1016A0009FB7F8948C91611103C01095812301C0FC
:1016B000812B8C939FBF0F90DF91CF911F910F9142
:1016C0000895CF93DF93282F30E0F901E85FFE4FB4
:1016D0008491F901E25BFE4FD491F901EC56FE4F83
:1016E000C491CC2389F081112BDFEC2FF0E0EE0FB9
:1016F000FF1FE652FE4FA591B4912C912D2381E05E
:1017000090E021F480E002C080E090E0DF91CF9192
:101710000895FC01818D228D90E0805C9F4F821B9B
:1017200091098F7399270895FC01918D828D9817E7
:1017300031F0828DE80FF11D858D90E008958FEFD7
:101740009FEF0895FC01918D828D981761F0828D35
:10175000DF01A80FB11D5D968C91928D9F5F9F73E5
:10176000928F90E008958FEF9FEF089585E59DE0BB
:10177000892B39F080E090E0892B19F096D1811106
:1017800023C080E090E0892B41F080E090E0892B3D
:1017900021F00E94000081111AC080E09EE0892B98
:1017A00039F080E090E0892B19F02AD2811112C023
:1017B0008BEA9EE0892B99F080E090E0892B79F00C
:1017C000CAD281110AC008950E940000DACF0E9497
:1017D0000000E3CF0E940000EBCF0C9400000895BE
:1017E000FC01848DDF01A80FB11DA35ABF4F2C91BE
:1017F000848D90E001968F739927848FA689B7898D
:101800002C93A089B1898C9180648C93938D848D65
:10181000981306C00288F389E02D80818F7D808334
:101820000895CF93DF93EC01888D8823C1F0EA8976
:10183000FB89808185FD05C0A889B9898C9186FDC9
:101840000EC00FB607FCF5CF808185FFF2CFA889C7
:10185000B9898C9185FFEDCFCE01C2DFE8CFDF9152
:10186000CF910895CF92DF92FF920F931F93CF9362
:10187000DF931F92CDB7DEB76C0181E0D601589699
:101880008C9358975B969C915B975C968C915C9738
:10189000981307C05096ED91FC915197808185FD7A
:1018A0002DC0F601038D10E00F5F1F4F0F7311273E
:1018B000F02EF601848DF81210C00FB607FCF9CF98
:1018C000D6015096ED91FC915197808185FFF1CF23
:1018D000C601698385DF6981ECCF838DE80FF11D37
:1018E000E35AFF4F6083D6015B960C935B97529649
:1018F000ED91FC915397808180620CC0D601569681
:10190000ED91FC91579760835096ED91FC91519722
:1019100080818064808381E090E00F90DF91CF919F
:101920001F910F91FF90DF90CF900895BF92CF92BB
:10193000DF92EF92FF92CF93DF93EC016A017B017C
:10194000B22EE889F98982E08083411581EE58073B
:101950006105710599F060E079E08DE390E0A70101
:101960009601A6D321503109410951095695479551
:1019700037952795211580E1380790F0E889F98996
:10198000108260E874E88EE190E0A701960190D3A0
:1019900021503109410951095695479537952795A9
:1019A000EC85FD853083EE85FF852083188EEC89DC
:1019B000FD89B082EA89FB89808180618083EA8920
:1019C000FB89808188608083EA89FB8980818068C7
:1019D0008083EA89FB8980818F7D8083DF91CF912D
:1019E000FF90EF90DF90CF90BF9008951F920F92DD
:1019F0000FB60F9211240BB60F922F938F939F93D4
:101A0000EF93FF93E091F505F091F6058081E09169
:101A1000FB05F091FC0582FD12C090818091FE05CE
:101A20008F5F8F732091FF05821751F0E091FE05C3
:101A3000F0E0EB51FA4F958F8093FE0501C0808155
:101A4000FF91EF919F918F912F910F900BBE0F906F
:101A50000FBE0F901F9018951F920F920FB60F9206
:101A600011240BB60F922F933F934F935F936F9375
:101A70007F938F939F93AF93BF93EF93FF9385EEE5
:101A800095E0AEDEFF91EF91BF91AF919F918F9165
:101A90007F916F915F914F913F912F910F900BBE6E
:101AA0000F900FBE0F901F90189585EE95E031DED8
:101AB00021E0892B09F420E0822F08951092E80597
:101AC0001092E70588EE93E0A0E0B0E08093E9058E
:101AD0009093EA05A093EB05B093EC0589E992E0B9
:101AE0009093E6058093E50585EC90E09093F205F0
:101AF0008093F10584EC90E09093F4058093F305D6
:101B000080EC90E09093F6058093F50581EC90E0F1
:101B10009093F8058093F70582EC90E09093FA0596
:101B20008093F90586EC90E09093FC058093FB058B
:101B30001092FE051092FF05109200061092010609
:101B400008951F920F920FB60F9211240BB60F92A9
:101B50002F938F939F93EF93FF93E0919206F091D1
:101B600093068081E0919806F091990682FD12C05B
:101B7000908180919B068F5F8F7320919C068217C6
:101B800051F0E0919B06F0E0EE57F94F958F80936E
:101B90009B0601C08081FF91EF919F918F912F91C2
:101BA0000F900BBE0F900FBE0F901F9018951F92B5
:101BB0000F920FB60F9211240BB60F922F933F93F3
:101BC0004F935F936F937F938F939F93AF93BF9345
:101BD000EF93FF9382E896E003DEFF91EF91BF91D0
:101BE000AF919F918F917F916F915F914F913F91B5
:101BF0002F910F900BBE0F900FBE0F901F90189556
:101C000082E896E086DD21E0892B09F420E0822F2E
:101C10000895109285061092840688EE93E0A0E065
:101C2000B0E08093860690938706A0938806B093D1
:101C3000890689E992E0909383068093820685ED78
:101C400090E090938F0680938E0684ED90E09093C1
:101C500091068093900680ED90E090939306809398
:101C6000920681ED90E0909395068093940682ED24
:101C700090E0909397068093960686ED90E090937F
:101C800099068093980610929B0610929C061092DB
:101C90009D0610929E0608951F920F920FB60F9206
:101CA00011240BB60F922F938F939F93EF93FF9373
:101CB000E0912F07F09130078081E0913507F09196
:101CC000360782FD12C09081809138078F5F8F7335
:101CD00020913907821751F0E0913807F0E0E15E7A
:101CE000F84F958F8093380701C08081FF91EF9165
:101CF0009F918F912F910F900BBE0F900FBE0F9061
:101D00001F9018951F920F920FB60F9211240BB6C9
:101D10000F922F933F934F935F936F937F938F9384
:101D20009F93AF93BF93EF93FF938FE197E058DDBD
:101D3000FF91EF91BF91AF919F918F917F916F91A3
:101D40005F914F913F912F910F900BBE0F900FBE5F
:101D50000F901F9018958FE197E0DBDC21E0892B35
:101D600009F420E0822F0895109222071092210793
:101D700088EE93E0A0E0B0E08093230790932407DF
:101D8000A0932507B093260789E992E09093200756
:101D900080931F0785E391E090932C0780932B0796
:101DA00084E391E090932E0780932D0780E391E0E8
:101DB0009093300780932F0781E391E0909332074F
:101DC0008093310782E391E0909334078093330747
:101DD00086E391E090933607809335071092380799
:101DE0001092390710923A0710923B070895CF924C
:101DF000DF92EF92FF920F931F93CF93DF937C01BB
:101E00006A01EB0100E010E00C151D0571F069910D
:101E1000D701ED91FC910190F081E02DC70119955A
:101E2000892B19F00F5F1F4FEFCFC801DF91CF91C2
:101E30001F910F91FF90EF90DF90CF900895611563
:101E4000710581F0DB010D900020E9F7AD014150F3
:101E50005109461B570BDC01ED91FC910280F38187
:101E6000E02D199480E090E00895E9CF65EA72E0F2
:101E7000E6CF0F931F93CF93DF93EC01E0DF8C014C
:101E8000CE01F4DF800F911FDF91CF911F910F9151
:101E900008958F929F92AF92BF92DF92EF92FF923E
:101EA0000F931F93CF93DF93CDB7DEB7A1970FB6F4
:101EB000F894DEBF0FBECDBF7C01F42FD52ECB0131
:101EC00019A2223008F42AE08E010F5D1F4F822EE6
:101ED000912CA12CB12C6F2F7D2DA5019401E8D060
:101EE000F22FD32ECA01015011096A3014F4E0E335
:101EF00001C0E7E3E60FD801EC93232B242B252B1D
:101F000051F7B801C7019BDFA1960FB6F894DEBF69
:101F10000FBECDBFDF91CF911F910F91FF90EF903A
:101F2000DF90BF90AF909F908F900895211531055D
:101F300041F4DC01ED91FC910190F081E02D642FE2
:101F40001994A7CF9A01AB0160E070E0EFCFFC01DC
:101F5000808191818DC1CF93DF93EC01888199813C
:101F6000009709F085D1198218821D821C821B827C
:101F70001A82DF91CF9108950F931F93CF93DF9330
:101F8000EC018B016F5F7F4F8881998100D20097B0
:101F900031F0998388831B830A8381E001C080E04C
:101FA000DF91CF911F910F910895CF93DF93EC01B3
:101FB00088819981892B29F08A819B8186179707CF
:101FC00058F4CE01D9DF882341F08C819D81892B83
:101FD00019F4E881F981108281E0DF91CF910895B1
:101FE000EF92FF920F931F93CF93DF93EC017B014E
:101FF0008A01BA01DADF811103C0CE01ACDF06C06D
:102000001D830C83B70188819981AED2CE01DF9107
:10201000CF911F910F91FF90EF900895FC011182D5
:10202000108213821282158214826115710551F09B
:10203000FB0101900020E9F7AF0141505109461B17
:10204000570BCECF0895089519DAFDDF0E944D0198
:10205000C6EBDBE00E9470012097E1F387DBFACF4B
:102060000895AA1BBB1B51E107C0AA1FBB1FA617DF
:10207000B70710F0A61BB70B881F991F5A95A9F731
:1020800080959095BC01CD01089597FB072E16F41D
:10209000009406D077FD08D0E4DF07FC05D03EF4BD
:1020A000909581959F4F0895709561957F4F089504
:1020B000A1E21A2EAA1BBB1BFD010DC0AA1FBB1F4C
:1020C000EE1FFF1FA217B307E407F50720F0A21BBE
:1020D000B30BE40BF50B661F771F881F991F1A942B
:1020E00069F760957095809590959B01AC01BD0155
:1020F000CF010895052E97FB16F400940FD057FDDD
:1021000005D0D6DF07FC02D046F408C050954095B4
:10211000309521953F4F4F4F5F4F08959095809593
:10212000709561957F4F8F4F9F4F0895EE0FFF1F62
:102130000590F491E02D19940790F691E02D1994F3
:10214000CF93DF938230910510F482E090E0E0912C
:10215000BE07F091BF0720E030E0A0E0B0E030978C
:1021600039F14081518148175907B8F0481759078C
:1021700071F482819381109729F013969C938E932A
:1021800012972CC09093BF078093BE0727C02115DC
:10219000310531F04217530718F0A901DB0101C0E6
:1021A000EF019A01BD01DF010280F381E02DD7CF5D
:1021B00021153105F9F0281B390B2430310580F445
:1021C0008A819B816115710521F0FB0193838283D4
:1021D00004C09093BF078093BE07FE01329644C0AF
:1021E000FE01E20FF31F819391932250310939834D
:1021F00028833AC02091BC073091BD07232B41F4BE
:1022000020910202309103023093BD072093BC0756
:1022100020910002309101022115310541F42DB7C2
:102220003EB74091040250910502241B350BE0910A
:10223000BC07F091BD07E217F307A0F42E1B3F0B7C
:102240002817390778F0AC014E5F5F4F2417350728
:1022500048F04E0F5F1F5093BD074093BC0781931A
:10226000919302C0E0E0F0E0CF01DF91CF910895BB
:10227000CF93DF93009709F487C0FC013297138254
:102280001282C091BE07D091BF07209781F42081B0
:102290003181280F391F8091BC079091BD078217AB
:1022A000930779F5F093BD07E093BC076DC0DE019D
:1022B00020E030E0AE17BF0750F412964D915C91CC
:1022C00013979D014115510509F1DA01F3CFB3834D
:1022D000A28340815181840F951F8A179B0771F457
:1022E0008D919C911197840F951F02969183808305
:1022F00012968D919C9113979383828321153105BA
:1023000029F4F093BF07E093BE073EC0D9011396AE
:10231000FC93EE9312974D915D91A40FB51FEA17B0
:10232000FB0779F480819181840F951F0296D90172
:1023300011969C938E938281938113969C938E9396
:102340001297E0E0F0E08A819B81009719F0FE018E
:10235000EC01F9CFCE01029628813981820F931FBB
:102360002091BC073091BD072817390769F43097D1
:1023700029F41092BF071092BE0702C01382128286
:10238000D093BD07C093BC07DF91CF9108956F92A2
:102390007F928F929F92AF92BF92CF92DF92EF92F5
:1023A000FF920F931F93CF93DF93EC01CB01209704
:1023B00079F4DF91CF911F910F91FF90EF90DF9013
:1023C000CF90BF90AF909F908F907F906F90B8CE3E
:1023D000FE01E60FF71F9E0122503109E217F307B5
:1023E00008F4A8C0D9010D911C9111970617170781
:1023F000B0F00530110508F49BC0A8014450510904
:102400004617570708F494C002501109061B170B12
:10241000019311936D937C93CF012ADF89C05B01F7
:10242000A01AB10A4E01800E911EA091BE07B09174
:10243000BF07612C712C60E070E0109709F449C06F
:10244000A815B905C9F5ED90FC901197670142E018
:10245000C40ED11CCA14DB0478F147018A189B080A
:10246000640142E0C40ED11C1296BC9012971396E0
:10247000AC91B5E0CB16D10440F0B282A383918237
:102480008082D9018D939C9309C00E5F1F4F0E0D62
:102490001F1DF90111830083EB2DFA2F61157105C2
:1024A00031F0DB011396FC93EE93129741C0F09349
:1024B000BF07E093BE073CC06D917C9111976616F3
:1024C000770608F43B01BD0112960D90BC91A02D3A
:1024D000B4CF6091BC077091BD0768157905E9F428
:1024E00068167906D0F4409100025091010241151E
:1024F000510541F44DB75EB7609104027091050239
:10250000461B570BE417F507A8F4F093BD07E093BB
:10251000BC07F901918380830BC012DE7C01009718
:1025200049F0A801BE0117D0CE01A2DEC70104C048
:10253000CE0102C080E090E0DF91CF911F910F911A
:10254000FF90EF90DF90CF90BF90AF909F908F90D3
:102550007F906F900895FB01DC0102C001900D9205
:1025600041505040D8F70895FB01DC0101900D92D5
:102570000020E1F7089512E0C2E3D2E000E005C0D8
:1025800022970109FE010BBFD7DDC633D10780E0DA
:082590000807B1F7F894FFCF32
:102598000000C007800001000000000005040302DD
:1025A80007060908101140453F443E433D423C415F
:1025B8000038003900360037000000007365747574
:1025C800702E2E2E21006C656E3D00506D312E3020
:1025D8003D0075672F6D5E330900506D322E353D15
:1025E80000506D31303D0075672F6D5E33006368B4
:1025F80065636B3D0000000000EB04F70E4A051907
:10260800055F075E0700000000EB04F70E4A051996
:10261800055F075E07000000000C07F70E7707EB61
:10262800065F075E0700000000320CF70E890BA258
:102638000B940B110C0D0A006E616E00696E66003A
:062648006F7666002E0013
:00000001FF
