:100000000C9425020C944D020C944D020C944D025C
:100010000C944D020C944D020C944D020C944D0224
:100020000C944D020C94B6100C941F2C0C94EB2ADB
:100030000C944D020C944D020C944D020C944D0204
:100040000C944D020C94F30A0C944D020C944D0246
:100050000C944D020C944D020C944D020C94E4222D
:100060000C944D020C94F0270C9422280C944D0211
:100070000C944D020C944D020C944D020C944D02C4
:100080000C944D020C944D020C944D020C944D02B4
:100090000C94960E0C944D020C944D020C944D024F
:1000A0000C944D020C944D020C944D024C0999078E
:1000B000AD07C707C707E0072909C707DA09DA0943
:1000C000DA09DA09DA09DA09DA093E08F907520821
:1000D000DA09DA09DA098308DA09BF08DE08000953
:1000E000DA09DA09DA09DA095B096309DA09DA09EE
:1000F000DA0978098F09DA09DA09DA09DA09DA0995
:10010000DA09DA09DA09DA09DA09DA09DA09DA09D7
:10011000C1093D244224472451245B24A524A5245D
:10012000A52465246F24792483249024A52498246D
:10013000C624C924B824BC24C224EA24EA24EA241C
:10014000CD24D124D524DB24DF24EA24E524084A65
:10015000D73B3BCE016E84BCBFFDC12F3D6C7431DB
:100160009ABD56833DDA3D00C77F11BED9E4BB4C32
:100170003E916BAAAABE000000803F08000000BEAE
:10018000922449123EABAAAA2ABECDCCCC4C3E004A
:10019000000080BEABAAAAAA3E00000000BF00007B
:1001A00000803F0000000000084178D3BB4387D1A6
:1001B000133D190E3CC3BD4282AD2B3E68EC8276E6
:1001C000BED98FE1A93E4C80EFFFBE01C4FF7F3F47
:1001D000000000000007634236B79BD8A71A3968B1
:1001E0005618AEBAAB558C1D3CB7CC5763BD6DED00
:1001F000FD753EF6177231BF000000803F003F06DC
:100200005B4F666D7D077F6F777C395E7971BF8646
:10021000DBCFE6EDFD87FFEFF7FCB9DEF9F100403B
:10022000070605040100080A0B0C0D090000000276
:1002300000090F0000030401000C00000000000092
:10024000000000000000000000000408020110404F
:10025000804010204080408008020401804020102F
:10026000020110801020404004040404040304052B
:100270000202020204030202020206060606060643
:1002800004040202020400000000230026002900EA
:100290002C002F0000000000250028002B002E005D
:1002A000310000000000240027002A002D0030004B
:1002B000080B000202020100090400000102020012
:1002C0000005240010010524010101042402060593
:1002D0002406000107058103100040090401000203
:1002E0000A000000070502024000000705830240E3
:1002F000000000C18081C1120100020200004041E3
:1003000023368000010102000112010002000000FA
:100310004041233680000101020001417264756989
:100320006E6F204C4C430041726475696E6F204CB7
:10033000656F6E6172646F000403090400000000C1
:10034000000000002A2B2800000000000000000030
:100350000000000000000000000000002C9EB4A07F
:10036000A1A2A434A6A7A5AE362D3738271E1F207C
:10037000212223242526B333B62EB7B89F84858641
:100380008788898A8B8C8D8E8F9091929394959685
:100390009798999A9B9C9D2F3130A3AD3504050603
:1003A0000708090A0B0C0D0E0F1011121314151665
:1003B0001718191A1B1C1DAFB1B0B50009040200B3
:1003C0000103000000092101010001226500070569
:1003D000840340000105010902A1010901A1008572
:1003E00001050919012903150025019503750181EE
:1003F0000295017505810305010930093109381598
:1004000081257F750895038106C0C005010906A1F5
:10041000018502050719E029E715002501750195F9
:100420000881029501750881039506750815002558
:10043000650507190029658100C08D06B40D2F15CB
:1004400072265228C82ED906331511241FBECFEFAD
:10045000DAE0DEBFCDBF11E0A0E0B1E0EEEBFCE6FC
:1004600002C005900D92A63FB107D9F727E0A6EF8D
:10047000B1E001C01D92A730B207E1F714E0C6E475
:10048000D4E004C02297FE010E94CF33CA33D107C3
:10049000C9F70E9496280C9452360C940000CF9213
:1004A000DF92EF92FF920F931F93E82FF92F05C071
:1004B000015011092109310961F1908196239417A6
:1004C000B9F305C0015011092109310911F19081D9
:1004D00096239413F7CFC12CD12CE12CF12C0AC018
:1004E0008FEFC81AD80AE80AF80A0C151D052E0560
:1004F0003F0579F080818623841791F36C2D7D2D43
:100500008E2D9F2D1F910F91FF90EF90DF90CF9038
:10051000089560E070E080E090E01F910F91FF90FF
:10052000EF90DF90CF90089561E08DE00E94EB2482
:1005300061E08DE00E9424256CE271E080E090E0B3
:100540000E945D2360E08DE00E94242540E052EC93
:1005500061E070E08AEF95E00E946C2664EF71E044
:1005600080E090E00E945D236A9A729A64E670E0EF
:1005700080E090E00E945D236A9A729826E040E055
:1005800052EC61E070E08AE496E00E9472278FE00E
:1005900093E00C94C11820917C02FC01222319F0F5
:1005A000EC5EFD4F02C0E85BFD4F80810895209115
:1005B0007C02FC01222319F0EC5EFD4F02C0E85BD7
:1005C000FD4F608308958AEF95E00E94EB288AE44E
:1005D00096E00C94EB28CF93DF93EC010E94CB02C2
:1005E00080938402CE0101960E94CB028093850203
:1005F0008091840290918502DF91CF9108950F93AD
:100600001F93CF93DF93EC010E94CB0206E812E028
:10061000F8018083CE0101960E94CB02809387026D
:10062000CE0102960E94CB0280938802CE010396EF
:100630000E94CB0280938902F801608171818281DE
:100640009381DF91CF911F910F910895EFEFF1E02A
:1006500020E030E0419151914817590791F0452B26
:1006600041F4F901EE0FFF1FE150FE4F91838083AB
:1006700008C02F5F3F4F2830310561F780E090E0E0
:100680000895C9010895AF92BF92CF92DF92EF9281
:10069000FF920F931F93CF93DF93CDB7DEB7E6970B
:1006A0000FB6F894DEBF0FBECDBF8C0186E090E0A0
:1006B0000E94CB02D82EE82EF12C0C30110509F443
:1006C000E4C14CF50830110509F4E8C1F4F4033035
:1006D000110509F463C20530110509F00DC386E068
:1006E00090E00E94EB028C0169E085E893E00E94B3
:1006F0005C1CB80185E893E00E94061588E090E054
:100700000E94EB028C016AE02AC00A30110509F14F
:100710000CF42BC2FAC10132110509F4B8C26CF411
:100720000E31110509F479C20032110509F481C2B4
:100730000431110509F0E0C248C208321105C9F0C0
:100740000233110509F4C6C20232110509F0D4C200
:100750007DC287E090E00E94EB028C016D2D85E860
:1007600093E00E945C1CB80185E893E00E940615A6
:10077000C3C287E090E00E94EB028C0189E090E028
:100780000E94EB025C0181E0E816F10409F0BBC0B5
:1007900061E0CE0101960E94E91E8B819C81AD81B2
:1007A000BE818093A3029093A402A093A502B0936C
:1007B000A6028F818093A70288859985AA85BB852B
:1007C0008093A8029093A902A093AA02B093AB02CF
:1007D0008C859D85AE85BF858093AC029093AD02DC
:1007E000A093AE02B093AF0288899989AA89BB8988
:1007F0008093B0029093B102A093B202B093B3027F
:100800008C899D89AE89BF898093B4029093B5028B
:10081000A093B602B093B702888D998DAA8DBB8D37
:100820008093B8029093B902A093BA02B093BB022E
:100830008C8D9D8DAE8DBF8D8093BC029093BD023B
:10084000A093BE02B093BF0288A199A1AAA1BBA1A7
:100850008093C0029093C102A093C202B093C302DE
:100860008CA19DA1AEA1BFA18093C4029093C502AB
:10087000A093C602B093C70288A599A5AAA5BBA557
:100880008093C8029093C902A093CA02B093CB028E
:100890008CA59DA5AEA5BFA58093CC029093CD025B
:1008A000A093CE02B093CF0288A999A9AAA9BBA907
:1008B0008093D0029093D102A093D202B093D3023E
:1008C0008CA98093D4028DA98093D502A5016627B7
:1008D00057FD6095762F81EA92E00E94ED20B801E5
:1008E000882777FD8095982F0E943B306B017C0113
:1008F000AB01BC0181EA92E00E940421B701A6018C
:1009000081EA92E0BFC082E0E816F10409F0F4C188
:1009100062E0CE0101960E94E91E8B819C81AD812F
:10092000BE818093D8029093D902A093DA02B0934B
:10093000DB028F818093DC0288859985AA85BB853F
:100940008093DD029093DE02A093DF02B093E00279
:100950008C859D85AE85BF858093E1029093E202F0
:10096000A093E302B093E40288899989AA89BB899C
:100970008093E5029093E602A093E702B093E80229
:100980008C899D89AE89BF898093E9029093EA02A0
:10099000A093EB02B093EC02888D998DAA8DBB8D4C
:1009A0008093ED029093EE02A093EF02B093F002D9
:1009B0008C8D9D8DAE8DBF8D8093F1029093F20250
:1009C000A093F302B093F40288A199A1AAA1BBA1BC
:1009D0008093F5029093F602A093F702B093F80289
:1009E0008CA19DA1AEA1BFA18093F9029093FA02C0
:1009F000A093FB02B093FC0288A599A5AAA5BBA56C
:100A00008093FD029093FE02A093FF02B093000337
:100A10008CA59DA5AEA5BFA580930103909302036D
:100A2000A0930303B0930403C8A8D9A8EAA8FBA81D
:100A3000C0920503D0920603E0920703F0920803E8
:100A40008CA9809309038DA980930A03A5016627C9
:100A500057FD6095762F86ED92E00E94ED20B8015B
:100A6000882777FD8095982F0E943B306B017C0191
:100A7000AB01BC0186ED92E00E940421B701A60102
:100A800086ED92E00E945F2137C187E090E00E94EE
:100A9000EB0289E090E00E94EB022EC187E090E03B
:100AA0000E94CB02482F88E090E04EAB0E94CB0220
:100AB000E82E89E090E00E94CB02182F8AE090E0B7
:100AC0000E94CB02F82E8BE090E00E94CB02082F10
:100AD0004EA96D2D85E693E00E94851CEE2049F01D
:100AE0006FEF6E0D2F2D412F85E693E00E94031DC1
:100AF00007C0202F4F2D612F85E693E00E94541DE3
:100B000085E693E00E94811DF7C087E090E00E9497
:100B1000CB029701220F331FF901EE5DFE4F8130AA
:100B200011F4008101C0018110E088E090E00E9492
:100B3000CB02D82EC8010E942603FC01EE0FFF1F36
:100B4000E80FF91FE557FC4F20813181428129834D
:100B50003A834B8384EB8D1508F4CEC0B801CE01E7
:100B600001960E94490C6D2DAFC086E593E00E946E
:100B7000081C282F30E02E153F0529F06D2D86E545
:100B800093E00E94F81387E090E00E94FF02AB011F
:100B9000BC0186E593E00E941A14AEC082E593E0A2
:100BA0000E94081C282F30E02E153F0529F06D2DDE
:100BB00082E593E00E945C1C87E090E00E94CB02FB
:100BC00061E081111BC060E019C082E593E00E94E2
:100BD000081C282F30E02E153F0529F06D2D82E5E9
:100BE00093E00E945C1C87E090E00E94CB02282FDB
:100BF00030E0223031053CF4682F617082E593E0EB
:100C00000E94301C79C061E02230310509F460E0B7
:100C100082E593E00E94401C6FC061E00E94EB24DB
:100C200087E090E00E94CB02682F8D2D0E94242542
:100C300063C061E00E94EB2487E090E00E94CB0259
:100C4000682F70E08D2D0E94172456C061E00E942D
:100C5000EB2487E090E00E94EB026C0189E090E0D9
:100C60000E94EB021816190664F48C01222717FD66
:100C70002095322FA601B7018DE992E00E949114D0
:100C80003BC0B7018DE992E00E94F81435C087E0BF
:100C900090E00E94CB02182F853B70F5C7010E949F
:100CA0002603FC01EE0FFF1FE80FF91FE557FC4F6D
:100CB00020813181428129833A834B83B701CE0160
:100CC00001960E94490C612F70E0CE0101960E94AE
:100CD000820C12C00E942E230E94393020E030E0A6
:100CE0004AE754E40E94A02F6093FA017093FB013D
:100CF0008093FC019093FD01E6960FB6F894DEBF59
:100D00000FBECDBFDF91CF911F910F91FF90EF905C
:100D1000DF90CF90BF90AF900895CF93DF93CBE853
:100D2000D3E0CE010E94AF0B239683E0C33AD807ED
:100D3000C1F785E893E00E94031582E793E00E94E3
:100D4000FB2185E693E00E94F81C80E693E00E9478
:100D5000872286E593E00E94621282E593E00E947A
:100D6000EF1B8FE093E00E9461158BE093E00E94FF
:100D70008E1A81EA92E00E94DB1E86ED92E00E94CC
:100D8000DB1E8DE992E00E948B1486E992E00E94BE
:100D9000411980E992E00E9437158AE892E00E94AA
:100DA0004C156BE471E08EE792E0DF91CF910C94EB
:100DB000482D8EE792E00E94DA2C85E693E00C94B1
:100DC000951DCF93C82F682F8AEF95E00E94AF251D
:100DD0006C2F8AE496E0CF910C940D278FEF0E9440
:100DE000E10685E50C94E1068FEF0E94E10685E5BA
:100DF0000E94E1060C94E302CF93C82F81E00E9489
:100E0000E1068C2FCF910C94E106EF92FF920F93A5
:100E10001F93CF93DF937C01FC01C4810C2F1581BC
:100E200084E00E94E1068C2F0E94E106C0E0D0E041
:100E3000C017D10744F4BE01C7010E948F2D0E9444
:100E4000E1062196F5CFDF91CF911F910F91FF9091
:100E5000EF900895FF920F931F93CF93DF931F920C
:100E6000CDB7DEB78B01F82E82E099830E94E106B0
:100E7000A8016F2D9981792F4093860250938702A4
:100E80006093880270938902802F0E94E10680910E
:100E900087020E94E106809188020E94E10680910B
:100EA00089020F90DF91CF911F910F91FF900C94C9
:100EB000E106CF92DF92EF92FF926B017C0183E01B
:100EC0000E94E106C701B6010E940830862F262F36
:100ED000372F30938502209384020E94E10680918F
:100EE0008502FF90EF90DF90CF900C94E106CF92B7
:100EF000DF92EF92FF920F931F93CF93DF93CDB7C3
:100F0000DEB727970FB6F894DEBF0FBECDBF7C01CA
:100F100086E090E00E94CB02D82E082F10E083E3F9
:100F2000E816F10408F046C2F701EA5AFF4F0C94A4
:100F3000CD3380E693E00E94081C90E08017910773
:100F400029F06D2D80E693E00E945C1C60E971E061
:100F500080E693E00E94CF221CC287E090E00E94CE
:100F6000CB02F82E82E793E00E94081C282F30E085
:100F70002017310709F010C282E793E00E940B1C92
:100F80008F110AC282E793E00E94192202C282E511
:100F900093E00E94081C90E08017910761F06D2D8E
:100FA00082E593E00E945C1C82E593E00E94821C33
:100FB00060E00E94EB2482E593E00E94541C90C103
:100FC00087E090E00E94CB02F82E8BE093E00E9435
:100FD000081C282F30E02017310729F06D2D8BE0F9
:100FE00093E00E945C1C6F2D8BE093E00E94911AAD
:100FF00077C180915003909151030097F1F04F9683
:101000000E94081C90E08017910731F10091500375
:10101000109151030115110581F085EA91E0F80165
:1010200091838083C80182599F4F0E94DA2CC801A6
:101030000E943011C8010E94AB288BE790E00E940B
:10104000A9288C016D2D0E94241A1093510300933E
:101050005003C8010E94391A8091500390915103A6
:101060000E94641A682F809310028FEF860F8E3FC4
:1010700008F47FC060E070E0CB018BC182E593E0B3
:101080000E94081C90E08017910709F46CC06D2D38
:1010900082E593E00E945C1C82E593E00E94821C42
:1010A00060E05FC082E593E00E94081C90E080173A
:1010B000910799F06D2D82E593E00E945C1C82E51A
:1010C00093E00E947F1C60E00E94EB2482E593E0A5
:1010D0000E94821C60E00E94EB2460E082E593E0C5
:1010E0000E940E1C182F60E082E593E00E941F1CF6
:1010F000612F70E0660F771F680F711D882777FDDD
:101100008095982FF2C087E090E00E94CB02C82E15
:10111000E82EF12C82E593E00E94081C282F30E095
:101120002017310709F03FC182E593E00E940B1CB4
:10113000282F30E02E153F0509F035C182E593E0F8
:10114000EA94EF2859F40E947F1C62E00E94EB248D
:1011500060E082E593E00E940E1C0AC00E94821C9F
:1011600062E00E94EB2460E082E593E00E941F1C95
:10117000682F70E080E090E00E9439300AC187E07B
:1011800090E00E94CB02F82E86E992E00E94081CB3
:10119000282F30E02017310729F06D2D86E992E0E5
:1011A0000E945C1C86E992E00E9444196F2D86E93A
:1011B00092E00E941D1A0E94FC06FCC080E992E0A9
:1011C0000E94081C90E080179107A9F06D2D80E91E
:1011D00092E00E945C1C80E992E00E947F1C482FF4
:1011E00080E992E04F830E94821C4F81682F80E942
:1011F00092E00E943A1580E992E00E944A1521C0CF
:101200008AE892E00E94081C90E080179107A9F0FC
:101210006D2D8AE892E00E945C1C8AE892E00E94B0
:101220007F1C482F8AE892E04F830E94821C4F81E6
:10123000682F8AE892E00E944F158AE892E00E94A7
:101240005F15BC01882777FD8095982F0E943B3061
:1012500063C087E090E00E94CB02082F10E08FE08F
:1012600093E00E94D1150130110529F48FE093E03D
:101270000E946E158EC00230110529F48FE093E0B4
:101280000E94741586C00330110509F093C08FE0E9
:1012900093E00E947A157DC06EE772E0CE01019660
:1012A0000E94752DCE0101960E940507CE01019680
:1012B0000E94DA2C7FC060E08D2D0E94EB248D2DE2
:1012C0000E945A250DC0F801EE0FFF1FE65FFE4F8A
:1012D000108160E0812F0E94EB24812F0E94E62381
:1012E000BC01882777FD8095982F0E943B3051C024
:1012F00087E090E00E94EB028C0160E08D2D0E945F
:10130000EB249801442737FD4095542F61E08D2D43
:101310000E9483250E9439300E9459074BC087E004
:1013200090E00E94CB02182F61E08D2D0E94EB24EB
:1013300060E08D2D0E94242582E090E00E948523AC
:1013400061E08D2D0E9424258AE090E00E94852393
:1013500060E08D2D0E94242560E0812F0E94EB2407
:1013600020E335E740E050E061E0812F0E948325D3
:101370000E94393020E030E048E652E40E94A02F7D
:1013800008C06091F6017091F7018091F801909189
:10139000F9010E942A070EC04F2D6D2D82E793E0C0
:1013A0000E940622EFCD4C2D6D2D82E593E00E9428
:1013B0006C1CC4CE27960FB6F894DEBF0FBECDBF0F
:1013C000DF91CF911F910F91FF90EF90DF90CF9021
:1013D00008950F931F93CF93DF931092110283E030
:1013E00090E00E94CB02082F84E090E00E94CB02A4
:1013F000182F85E090E00E94CB02C82FD0E0123079
:10140000B9F088F4113009F049C00E94EE06802F2F
:101410000E94E106CE010E947707DF91CF911F91D4
:101420000F910C94E302143039F0153089F136C075
:10143000CE010E9443032CC069E085E893E00E943E
:101440005C1C60E070E085E893E00E9406156AE0AD
:1014500085E893E00E945C1C60E070E085E893E022
:101460000E94061561E085E893E00E945C1C60E044
:1014700070E085E893E00E94061562E085E893E05D
:101480000E945C1C60E070E085E893E00E94061515
:10149000DF91CF911F910F910C94F406DF91CF91C2
:1014A0001F910F91089510927D028AEF95E00E949E
:1014B000D925181619065CF481E080937D021092FC
:1014C0007C028AEF95E00E94E92580930F028AE46E
:1014D00096E00E948F26181619065CF481E080932E
:1014E0007D0280937C028AE496E00E94A826809385
:1014F0000F0208950E942E230E94393020E030E030
:101500004AE754E40E94A02F2091FA013091FB0198
:101510004091FC015091FD010E94D52E6093F6018F
:101520007093F7018093F8019093F9018091500333
:1015300090915103009711F00E94691A0E94530A7A
:1015400081EA92E00E94D92186ED92E00E94D921A1
:1015500080917D02882309F445C060910F0280913B
:101560001102653561F481110AC08091FE018F3F3F
:10157000D9F481E0809313028093110215C0609327
:10158000FE01882389F080911302823019F4609360
:10159000120207C0833028F090911202915090936C
:1015A000120290E00E94D702809113028F5F843371
:1015B00018F48093130204C01092130210921102C7
:1015C00080911102882371F08091120281110AC06A
:1015D00080911302843030F0109211020E94E909C8
:1015E0001092130208951F920F920FB60F921124BA
:1015F0002F933F934F935F936F937F938F939F931B
:10160000AF93BF93EF93FF938091A40387FF05C02F
:1016100010928500109284001AC02091A4033327F1
:1016200027FD30958091A30390E0281739077CF4BB
:101630008091A403992787FD9095FC01EE0FFF1F71
:10164000E80FF91FEB55FC4F808186FD15C0809196
:10165000A4038F5F8093A4032091A403332727FD65
:1016600030958091A30390E028173907BCF480914E
:10167000A4038C305CF112C08091A403992787FDEC
:101680009095FC01EE0FFF1FE80FF91FEB55FC4F83
:10169000808160E08F730E942425D9CF80918400DF
:1016A00090918500049680349C4918F480E49CE96C
:1016B00005C08091840090918500049690938900E4
:1016C000809388008FEF8093A40338C0209184001A
:1016D000309185008091A403992787FD9095FC01A6
:1016E000EE0FFF1FE80FF91FEB55FC4F8181928130
:1016F000820F931F90938900809388008091A403A8
:10170000992787FD9095FC01EE0FFF1FE80FF91F49
:10171000EB55FC4F808186FF11C08091A40399276F
:1017200087FD9095FC01EE0FFF1FE80FF91FEB55A9
:10173000FC4F808161E08F730E942425FF91EF911F
:10174000BF91AF919F918F917F916F915F914F91D9
:101750003F912F910F900FBE0F901F9018952091E1
:10176000A3032C30A0F431E0320F3093A303FC012B
:101770002083822F90E0FC01EE0FFF1FE80FF91F7E
:10178000EB55FC4F88EB9BE09283818308952FEF0C
:10179000FC0120830895DF92EF92FF920F931F9335
:1017A000CF93DF93EC01D62E7A01890188818C30AA
:1017B00008F066C061E08D2D0E94EB248881A82F7F
:1017C000B0E0FD01EE0FFF1FEA0FFB1FEB55FC4FD2
:1017D0002D2D2F739081907C922B908360E272E08C
:1017E0006E197F0977FF02C06D5F7F4F7595679512
:1017F00075956795698340E659E0401B510B57FF8B
:1018000002C04D5F5F4F55954795559547954A8363
:101810006CE00E9458339CE0899FB001112420E0C5
:1018200030E0A901460F571FFA01EE0FFF1FE40F2A
:10183000F51FEB55FC4F908196FD16C02F5F3F4F73
:101840002C30310571F781110FC01092800082E0B9
:10185000809381001092850010928400B19A80914B
:101860006F00826080936F00888190E0FC01EE0F32
:10187000FF1FE80FF91FEB55FC4F808180648083C8
:101880008881DF91CF911F910F91FF90EF90DF90B2
:10189000089520E639E040E252E00C94CB0BFC01C5
:1018A00080818C3070F5918128E830E0291B310966
:1018B00097FD3395220F331F220F331F62177307D3
:1018C0007CF0928128E532E0291B310997FD3395A0
:1018D000220F331F220F331F621773070CF49B0173
:1018E00022503109220F331F4FB7F89490E0FC01CA
:1018F000EE0FFF1FE80FF91FEB55FC4F32832183DA
:101900004FBF08954F925F926F927F92AF92BF92B6
:10191000CF92DF92EF92FF920F931F93CF93DF93BB
:10192000EC01603282E078070CF040C077FD06C021
:10193000653B71052CF064EB70E002C060E070E084
:10194000898128E830E0281B310987FD3395220F73
:10195000331F220F331F5901CC24B7FCC094DC2C59
:10196000882777FD8095982F2A8148E552E0421B11
:10197000510927FD5395440F551F440F551F2A0148
:10198000662457FC6094762C7F926F925F924F9200
:1019900014EBE12EF12C00E010E020E030E0A90192
:1019A0000E94932C0F900F900F900F90CE01DF911B
:1019B000CF911F910F91FF90EF90DF90CF90BF904C
:1019C000AF907F906F905F904F900C944F0C8091F0
:1019D000F90390E02091FA03821B91090895209168
:1019E000FA038091F903281750F4E22FF0E0E55054
:1019F000FC4F808190E02F5F2093FA0308958FEFD2
:101A00009FEF0895E091FA038091F903E81730F40D
:101A1000F0E0E550FC4F808190E008958FEF9FEF5C
:101A200008950895CF92DF92EF92FF920F931F9344
:101A3000CF93DF937C01CB018A012091D503222330
:101A400089F0EB016B01C40ED51ECC15DD0569F0E4
:101A50006991D701ED91FC910190F081E02DC701D2
:101A60000995F3CF642F0E946D0EC801DF91CF91CD
:101A70001F910F91FF90EF90DF90CF900895CF933B
:101A8000DF931F92CDB7DEB769832091D503222360
:101A9000D1F02091D603203240F021E030E0FC016B
:101AA0003383228380E090E015C08091D703E82F34
:101AB000F0E0E852FC4F998190838F5F8093D703C9
:101AC0008093D60305C061E0CE0101960E946D0EA1
:101AD00081E090E00F90DF91CF910895FC01138297
:101AE000128248EE53E060E070E0448355836683E1
:101AF000778387E591E09183808308951092FA03BC
:101B00001092F9031092D7031092D6030C94B80DDB
:101B1000862F413208F040E26BEF73E00E94D60D51
:101B20001092FA038093F903089581E08093D5031E
:101B30006093F8031092D7031092D60308950C9483
:101B4000950D0F93062F21E04091D60368ED73E0C9
:101B50008091F8030E941A0E1092D7031092D603B8
:101B60001092D5030F91089589EC93E00C946E0DBB
:101B70001092880481E0809386041092850461E0CD
:101B800082E00E94242561E083E00E942425E9EBA5
:101B9000F0E080818E7F808380818D7F808388E4E8
:101BA0008093B80085E48093BC000895413208F02A
:101BB0003FC0909188049111FCCF91E090938804EC
:101BC000209386042FEF20931B0410926004240FAF
:101BD00020935F049093870490918704880F892B4A
:101BE0008093870480918504813041F410928504AC
:101BF000809187048093BB0085EC01C085EE8093C3
:101C0000BC00809188048130E1F3809160048417E6
:101C100010F44091600421E634E0FB01D9018A2FE1
:101C2000821B841718F48D918193F9CF842F089526
:101C300080E008950F93413208F046C090918804E7
:101C40009111FCCF92E090938804009386049FEF5B
:101C500090931B041092600440935F04FB0161E6C3
:101C600074E0DB019A2F961B941718F491919D93C1
:101C7000F9CF1092870490918704880F892B809365
:101C8000870480918504813041F41092850480910D
:101C900087048093BB0085EC01C085EE8093BC0077
:101CA000222321F0809188048230E1F380911B048B
:101CB0008F3F61F080911B04803251F080911B04B2
:101CC000803341F483E007C081E005C080E003C0B9
:101CD00082E001C084E00F910895613298F4209170
:101CE0008804243089F460933D04FC018FE394E080
:101CF000DC012A2F281B261718F421912D93F9CFE8
:101D000080E0089581E0089582E0089585ED809354
:101D1000BC008091BC0084FDFCCF10928804089523
:101D200085EC8093BC001092880408951F920F9256
:101D30000FB60F9211242F933F934F935F936F939E
:101D40007F938F939F93AF93BF93EF93FF93809174
:101D5000B900887F803609F49CC068F5883209F4A0
:101D60005BC090F4803109F454C038F4882309F43E
:101D7000F5C0883009F44DC0F5C0883109F44CC075
:101D8000803209F45DC0EEC0803409F468C048F4C4
:101D9000803309F455C0883309F0E4C080931B04F4
:101DA000A8C0803509F44FC0883509F45DC0883477
:101DB00009F0D8C0D5C0883909F4C6C0A8F488375E
:101DC00009F467C038F4883609F463C0803709F431
:101DD00060C0C8C0883809F4B7C0803909F45FC052
:101DE000803809F0BFC05BC0803B09F485C038F47F
:101DF000803A09F466C0883A09F47EC0B3C0803CDA
:101E000009F4A6C0883C09F4A3C0883B09F489C042
:101E1000A9C08091870410C09091600480915F04F4
:101E2000981770F5E091600481E08E0F8093600454
:101E3000F0E0EF59FB4F80818093BB0085EC85C0BB
:101E400080931B048DC0E091600481E08E0F80932D
:101E500060048091BB00F0E0EF59FB4F80839091CC
:101E6000600480915F046DC0E091600481E08E0F9A
:101E7000809360048091BB00F0E0EF59FB4F8083BA
:101E80008091860481116CC081E08093850484EA8E
:101E900060C083E08093880410921C04CFCF8091AF
:101EA0001C04803208F050C0E0911C0481E08E0FC9
:101EB00080931C048091BB00F0E0E35EFB4F8083C5
:101EC000BDCF80911C04803230F4E0911C04F0E01E
:101ED000E35EFB4F10820E94860E60911C0470E04E
:101EE000E0918104F09182048DE194E009951092D3
:101EF0001C040E94900E36C084E0809388041092E7
:101F00003E0410923D04E0918304F091840409950D
:101F100080913D04811105C081E080933D041092C1
:101F20003F04E0913E0481E08E0F80933E04F0E098
:101F3000E15CFB4F80818093BB0090913E048091D7
:101F40003D04981708F47ACF85E88093BC000AC056
:101F500085EC8093BC001092880404C010921B048E
:101F60000E94860EFF91EF91BF91AF919F918F914B
:101F70007F916F915F914F913F912F910F900FBE85
:101F80000F901F9018952091CB043091CC04281706
:101F90003907B9F49091890480918A04981789F0DF
:101FA000E0918904F0E0E557FB4F8081209189049E
:101FB00030E02F5F3F4F2F7333272093890490E049
:101FC00008958FEF9FEF08951F93CF93DF93DC0168
:101FD0005C968D919C915D97009749F481E090E02B
:101FE00013969C938E93129780E090E03BC051969D
:101FF000ED91FC91529750962C915097322F30953D
:102000001FB75E964C915E9741FB772770F941FDB3
:102010006095F8944081772311F0422B01C043234F
:102020004083EC012197F1F748E0508160FF02C046
:10203000522B01C053235083EC012197F1F7669591
:10204000415099F78081772311F0832301C0822BBF
:1020500080831FBF5C968D919C915D970197F1F7EE
:1020600081E090E0DF91CF911F9108952091CB0402
:102070003091CC042817390781F49091890480911C
:102080008A04981751F0E0918904F0E0E557FB4F7E
:102090008081992787FD909508958FEF9FEF089590
:1020A0002091CB043091CC042817390771F480912A
:1020B0008A042091890490E0805C9F4F821B9109E3
:1020C00060E470E00E947833089580E090E0089525
:1020D0002091CB043091CC042817390739F48FB7FD
:1020E000F89410928A04109289048FBF0895E091A9
:1020F000CB04F091CC04E817F90769F4A389B489FB
:102100009C918589809589238C931092CC041092A0
:10211000CB0481E0089580E00895CF93DF93EC0134
:102120008A8D9B8D892BF1F08091CB049091CC040A
:102130008C179D07B9F0009711F00E9477108E8DD3
:102140008E7F8E8F10928A0410928904D093CC04D3
:10215000C093CB04EB89FC8980819D89892B808386
:1021600081E001C080E0DF91CF9108951F920F922E
:102170000FB60F9211242F933F934F935F936F935A
:102180007F938F939F93AF93BF93EF93FF93E091D0
:10219000CB04F091CC04309709F451C0868DA6850C
:1021A000B785958581FF04C08C91892329F447C0A8
:1021B0008C91892309F043C0A389B4899C918589B6
:1021C000809589238C93868997890197F1F7208DD3
:1021D000318DA685B785758558E040E0C901019726
:1021E000F1F7842F90E095958795482F6C916723A0
:1021F00009F04068515091F7868D81FD409580919E
:102200008A0490E001968F739927209189042817FA
:1022100049F0A0918A04B0E0A557BB4F4C9380933E
:102220008A0403C0868D8160868F828D938D01978D
:10223000F1F7A389B4898C919589892B8C93FF91AF
:10224000EF91BF91AF919F918F917F916F915F912E
:102250004F913F912F910F900FBE0F901F901895A7
:1022600027E631E0FC01318320830C9477101F9323
:10227000CF93DF93EC01162F6E8D6695617081E030
:102280006827812F0E94242561E0812F0E94EB2482
:10229000812F90E0FC01E65BFD4FE491E88BFC01AF
:1022A000E859FD4FE491F0E0EE0FFF1FEC56FD4FB3
:1022B000859194919A8B898BDF91CF911F9108958D
:1022C0001F93CF93DF93EC01162F60E0812F0E94C4
:1022D000EB248E8D81FD04C061E0812F0E942425B6
:1022E0001C87812F90E0FC01E65BFD4FE491ED87B8
:1022F000FC01E859FD4FE491F0E0EE0FFF1FEA57B3
:10230000FD4F859194919F878E87DF91CF911F918B
:102310000895FF920F931F93CF93DF93EC01F62E56
:10232000522F1B821A8208EE13E020E030E00C836B
:102330001D832E833F8387E691E0998388831F8ADC
:102340001E8A198E188E1B8E1A8E1D8E1C8E8E8DD7
:102350008E7F50FB81F98E8F642FCE010E94371142
:102360006F2DCE01DF91CF911F910F91FF900C94B3
:102370006011CF93DF93EC019A01AB011B8E1A8E93
:10238000198E188E1F8A1E8A60E079E08DE390E036
:102390000E94AE33C9012430310520F0B9016350E9
:1023A000710902C061E070E07D8F6C8FEC85F8EF01
:1023B000FE0FF43048F062EF6E0F643028F066EEE6
:1023C0006E0F633008F06FC0B90176956795643180
:1023D000710518F06351710902C061E070E07F8BF4
:1023E0006E8B069718F0C901059702C081E090E056
:1023F000998F888FC901880F991F820F931F969517
:102400008795969587958D30910510F00C9702C0B1
:1024100081E090E09B8F8A8FF43058F082EF8E0F2E
:10242000843038F0EA51E33008F042C0A8E6B0E06A
:1024300041C0A8E6B0E0E8E6F0E0808181608C93DE
:102440002C8538EF320F343040F082EF820F843029
:1024500020F086EE820F833018F48BE690E002C005
:1024600080E090E09C8B8B8B343010F4245009C0BA
:102470002E3069F02F3069F0203169F0213169F098
:10248000265181E001C0880F2A95EAF707C088E04D
:1024900005C082E003C084E001C081E08D8B8C8D9B
:1024A0009D8D0197F1F7CE01DF91CF910C948D10A6
:1024B000A0E0B0E0E33008F4BECFE0E0F0E0BDCF54
:1024C0000C9477100C94EF1B0F931F93CF93DF9313
:1024D000EC01062F18E060E088850E94242500FFAB
:1024E00002C061E001C060E089850E942425069554
:1024F00061E088850E942425115069F760E0888595
:102500000E94242561E089850E94242561E0888558
:102510000E94242560E089850E94EB2418EC8985BF
:102520000E945A25892B59F01150C9F761E089851D
:102530000E94EB2460E089850E942425EFCF61E0B2
:102540008985DF91CF911F910F910C94EB24CF934C
:10255000DF93EC0161E088850E94242561E0898594
:102560000E94242560E089850E94242560E08885FA
:10257000DF91CF910C942425CF93DF93EC0160E0A1
:1025800088850E94242560E089850E94242561E0D9
:1025900088850E94242561E08985DF91CF910C9484
:1025A0002425CF92DF92FF920F931F93CF93DF9357
:1025B0001F92CDB7DEB76C01F62E79830E94A71269
:1025C00060E4C6010E946412C6010E94BC12C601EA
:1025D0000E94A712F6016581C6010E9464120F2DA8
:1025E0007981172F84E0F82EF80161918F01C601DF
:1025F0000E946412FA94C1F7C6010E94BC12C6017F
:102600000E94A712F6016681C6010E946412C601EB
:102610000F90DF91CF911F910F91FF90DF90CF909E
:102620000C94BC124F925F926F927F928F929F9206
:10263000AF92BF92CF92DF92EF92FF920F931F93D0
:10264000CF93DF9300D000D0CDB7DEB76A017B0116
:10265000890137FD48C0B9016F5F7F4F882777FD3B
:102660008095982F0E943B309B01AC0160E070E0A8
:1026700080E291E40E9416324B015C019B01AC01A7
:10268000C701B6010E94A02F0E9476302B013C01A9
:10269000B801882777FD8095982F0E943B309B01D9
:1026A000AC0160E070E080E291E40E941632698340
:1026B0007A838B839C83A5019401C301B2010E949C
:1026C000B3319B01AC01C701B6010E94D52E29810F
:1026D0003A814B815C810E94A02F0E9476300E943B
:1026E0000830CB011FC088249924821A930AA12C98
:1026F000B12C20E030E040E251E4C701B6010E9475
:10270000B3316B017C018FEFA81AB80AA814B90481
:1027100084F3C701B6010E940830CB016AE070E083
:102720000E9478330F900F900F900F90DF91CF9110
:102730001F910F91FF90EF90DF90CF90BF90AF90DF
:102740009F908F907F906F905F904F900895DB01E6
:1027500080E090E22C91223208F09C93EC91F0E022
:10276000E250FE4FE491ED938F5F843099F7089526
:10277000EF92FF920F931F93CF93DF9300D000D07F
:10278000CDB7DEB78C01DB01FE013196CE01059697
:102790007F012D912193E817F907D9F7B701C801F7
:1027A0000E94A713B701C8010E94D1120F900F9089
:1027B0000F900F90DF91CF911F910F91FF90EF90AD
:1027C0000895CF93DF9300D000D0CDB7DEB720E2DD
:1027D00029832A832B832C83BE016F5F7F4F0E9446
:1027E000B8130F900F900F900F90DF91CF91089535
:1027F000CF93DF93EC016A83E62FF0E0EE0FFF1F2B
:10280000EE5DFE4F818189839081988388879987C7
:1028100061E00E94EB2461E089850E94EB2480E462
:102820008C8380EC8D838AE88E83CE01DF91CF91FB
:102830000C94E1138F929F92AF92BF92CF92DF924E
:10284000EF92FF920F931F93CF93DF9300D000D0AE
:10285000CDB7DEB75C016A017B0119821A821B8247
:102860001C8220E030E0A901C701B6010E949C2F24
:1028700087FF09C0F7FAF094F7F8F09481E28983B2
:102880009924939401C0912C03E010E0812C9801CD
:10289000B701A601C5010E941213181619062CF0E3
:1028A000002319F08820B9F00CC001110AC0E1E042
:1028B000F0E0EC0FFD1FE90DF11D20E1280F208352
:1028C00007C0E1E0F0E0EC0FFD1FE90DF11D808392
:1028D00093948824839483E0891530F00150110982
:1028E0000C3F8FEF180799F6BE016F5F7F4FC50150
:1028F0000E94B8130F900F900F900F90DF91CF911F
:102900001F910F91FF90EF90DF90CF90BF90AF900D
:102910009F908F9008950E94EF1B88E08093CD04D4
:1029200008954F925F926F927F928F929F92AF9293
:10293000BF92CF92DF92EF92FF920F931F93CF93AC
:10294000DF93762E680179016093CD049A0140E00F
:1029500050E060E472E48FE090E00E94AE33E90161
:10296000590137FF03C08FEFA81AB80A85011595E2
:10297000079561E0872D0E94EB24A8EEB3E0A70144
:1029800096010E94E2332B013C01C12CD12C76012F
:102990004E01AA2497FCA094BA2CC414D504E604D2
:1029A000F704A8F461E08091CD040E942425C801B9
:1029B0000E94852360E08091CD040E942425C801F7
:1029C0000E948523C80CD91CEA1CFB1CE6CFDF91B2
:1029D000CF911F910F91FF90EF90DF90CF90BF901C
:1029E000AF909F908F907F906F905F904F900895E1
:1029F000862F6093CD0461E00E94EB2460E080911B
:102A0000CD040C94242560E00C94F81B0F931F93C5
:102A1000CF93DF938C016F3F710519F014F06FEFC6
:102A200070E0EB0161308FEF780714F4C1E0DFEF65
:102A3000D7FD06C061E0C8010E94401CBE0108C06D
:102A400060E0C8010E94401C662777276C1B7D0B45
:102A5000C801DF91CF911F910F910C94581C8EECFF
:102A600094E00C9417198EEC94E00C94401960E0FB
:102A70000C94F81BCF93DF93EC016C834D838C8116
:102A800060E00E94EB248D8188838C818983DF91B3
:102A9000CF9108950C94501C60E00C94F81BCF93D8
:102AA000DF93EC016C834D838C8160E00E94EB240A
:102AB0008D8188838C818983DF91CF9108950C94D7
:102AC000501CCF93DF93EC0160E00E94F81BC05CC8
:102AD000DF4F88E68883DF91CF910895FC01608500
:102AE0007185828593850895FC0164857585868549
:102AF00097850895FC016089718982899389089579
:102B0000EF92FF920F931F93CF93DF93C62F8A010B
:102B1000E22E68E689EC93E00E94950D6C2F89EC1B
:102B200093E00E943F0D813001F560E089EC93E075
:102B30000E94A10D81112EC081E090E00E948523AA
:102B400021E04E2D68E689EC93E00E94880DE801B3
:102B500000E010E0F12C89EC93E00E94E70C892B57
:102B600031F00E151F0574F002C08FEF13C081E025
:102B700090E00E94852381E00E151F0509F480E096
:102B8000819508C00F5F1F4F89EC93E00E94EF0C06
:102B90008993E1CFDF91CF911F910F91FF90EF903B
:102BA00008954F925F926F927F928F929F92AF9211
:102BB000BF92CF92DF92EF92FF920F931F93CF932A
:102BC000DF93CDB7DEB72C970FB6F894DEBF0FBEFC
:102BD000CDBF8C01AC014E5C5F4F2EE06BE30E94D9
:102BE00080158111C5C1F801A2A8B12CBA2CAA2464
:102BF00083A9A82AB1A2A0A2E4A8F12CFE2CEE245D
:102C000085A9E82AF3A2E2A286A8912C982C882410
:102C100087A9882A95A284A24480558066807780FF
:102C200062AD70E0762F662783AD682B882777FD2D
:102C30008095982F0E943B30F80126A137A140A52E
:102C400051A50E94D52EA30192010E94A02FF80148
:102C5000648B758B868B978B64AD70E0762F6627BF
:102C600085AD682B882777FD8095982F0E943B3093
:102C7000F80122A533A544A555A50E94D52EA30190
:102C800092010E94A02FF801608F718F828F938F25
:102C900066AD70E0762F662787AD682B882777FDB5
:102CA0008095982F0E943B30F80126A537A540A9B2
:102CB00051A90E94D52EA30192010E94A02FF801D4
:102CC000648F758F868F978FB701882777FD8095E2
:102CD000982F0E943B306B017C01B401882777FD5F
:102CE0008095982F0E943B309B01AC010E94B3312C
:102CF0002B013C01A7019601C701B6010E94B33127
:102D0000A30192010E94D62E0E9466329B01AC0163
:102D1000B501882777FD8095982F29873A874B87BB
:102D20005C870E943B304B015C0129853A854B85CD
:102D30005C850E94492F20E030E044E353E40E9488
:102D4000B3312AED3FE049E450E40E94A02F6983AB
:102D50007A838B839C83A5019401C501B4010E94F1
:102D6000B331A30192010E94D62E0E9466329B01CC
:102D7000AC01C701B6010E94492F20E030E044E3D6
:102D800053E40E94B3312AED3FE049E450E40E944D
:102D9000A02F6D837E838F8398870E942E23C090FF
:102DA000E905D090EA05E090EB05F090EC056C1990
:102DB0007D098E099F090E94393020E030E04AE702
:102DC00054E40E94A02F6B017C010E942E2360938B
:102DD000E9057093EA058093EB059093EC05F80103
:102DE00084A195A11816190644F5208D318D428DC8
:102DF000538DC701B6010E94B3319B01AC01F801AC
:102E000060857185828593850E94D52EF801608743
:102E10007187828793872489358946895789C701B5
:102E2000B6010E94B3319B01AC01F8016485758540
:102E3000868597850E94D62E28C0F801208D318D79
:102E4000428D538DC701B6010E94B3319B01AC0185
:102E5000F80160857185828593850E94D62EF801E0
:102E60006087718782879387248935894689578946
:102E7000C701B6010E94B3319B01AC01F801648522
:102E80007585868597850E94D52EF801648775879C
:102E900086879787F801248D358D468D578DC7011C
:102EA000B6010E94B3319B01AC01F80160897189C0
:102EB000828993890E94D62EF801608B718B828B58
:102EC000938B20E030E040E05FE3C701B6010E9451
:102ED000D62E9B01AC0160E070E080E09FE30E9491
:102EE000A02F6B017C019B01AC0160E070E080E8E9
:102EF0009FE30E94D52E4B015C01F80120853185AE
:102F000042855385C701B6010E94B3312B013C01B4
:102F1000A501940169817A818B819C810E94B331E2
:102F20009B01AC01C301B2010E94D62EF80160875B
:102F30007187828793872485358546855785C701A4
:102F4000B6010E94B3316B017C01A50194016D8132
:102F50007E818F8198850E94B3319B01AC01C701AE
:102F6000B6010E94D62EF8016487758786879787F9
:102F70002C960FB6F894DEBF0FBECDBFDF91CF9178
:102F80001F910F91FF90EF90DF90CF90BF90AF9087
:102F90009F908F907F906F905F904F9008952F92A9
:102FA0003F924F925F926F927F928F929F92AF92D9
:102FB000BF92CF92DF92EF92FF920F931F93CF9326
:102FC000DF9300D000D0CDB7DEB71C0104EF11E0D5
:102FD000812C912C5401412C512C320119821A82DE
:102FE0001B821C827C0122E3E20EF11C26E0A70179
:102FF00063E4C1010E948015F10182A990E0982F3D
:10300000882723A9822BAA2797FDA095BA2F29816B
:103010003A814B815C81280F391F4A1F5B1F29832E
:103020003A834B835C8384A990E0982F882725A955
:10303000822BAA2797FDA095BA2F480E591E6A1E0B
:103040007B1E86A990E0982F882727A9822BAA2784
:1030500097FDA095BA2F880E991EAA1EBB1E01507F
:10306000110921F664EFC62EDD24D394E12CF12C56
:1030700069817A818B819C81A70196010E94AE3380
:10308000CA01B9010E943B30F10166A377A380A772
:1030900091A7C301B201A70196010E94AE33CA01F4
:1030A000B9010E943B30F10162A773A784A795A7DD
:1030B000C501B401A70196010E94AE33CA01B9014E
:1030C0000E943B30F10166A777A780AB91AB0F90D0
:1030D0000F900F900F90DF91CF911F910F91FF9064
:1030E000EF90DF90CF90BF90AF909F908F907F90A8
:1030F0006F905F904F903F902F900895EF92FF92C6
:103100001F93CF93DF931F92CDB7DEB7162F7A01AF
:1031100068E670E089EC93E029830E949F0D612F9F
:1031200089EC93E00E943F0D2981813091F4422F78
:1031300050E0B70189EC93E00E94120D61E089EC48
:1031400093E00F90DF91CF911F91FF90EF900C943F
:10315000A10D8FEF0F90DF91CF911F91FF90EF9016
:103160000895CF93DF931F92CDB7DEB7498321E057
:10317000AE014F5F5F4F0E947E180F90DF91CF919D
:103180000895CF93DF93EC0140E050E063E872E4F0
:103190004C835D836E837F83188619861A861B860F
:1031A0001C861D861E861F86188A198A1A8A1B8A03
:1031B0001C8A1D8A1E8A1F8A188E198E1A8E1B8ED3
:1031C0001C8E1D8E1E8E1F8E19A218A21BA21AA263
:1031D0001DA21CA21EA21FA218A619A61AA61BA6F3
:1031E0001CA61DA61EA61FA618AA19AA89EC93E064
:1031F0000E947E0D60E273E080E090E00E945D231B
:1032000040E06BE670E0CE010E94B11841E06AE157
:1032100070E0CE010E94B11848E06BE170E0CE0191
:103220000E94B118CE01DF91CF910C94CF1721E00D
:1032300030E0FC0131832083EE5FFE4F108211826B
:103240001282138234961082118212821382349673
:10325000108231961082319610821182128213826E
:103260003496118210823296108231961082118229
:103270001282138234961082118212821382089570
:10328000089560E00C94F81B4F925F926F927F92CA
:103290008F929F92AF92BF92CF92DF92EF92FF9266
:1032A0000F931F93CF93DF9300D000D01F92CDB721
:1032B000DEB78C01CE0101966C0185E0F60111921A
:1032C0008A95E9F760E0C8010E94401C64E170E063
:1032D00080E090E00E945D2361E0C8010E94401CF4
:1032E00088E290E00E94852360E0C8010E94401CB3
:1032F0000E942E234B015C0160E0C8010E941F1C4C
:1033000081110EC00E942E23681979098A099B0930
:10331000633071058105910578F3F80114821582F7
:103320000E942E234B015C0160E0C8010E941F1C1B
:10333000882359F00E942E23681979098A099B096C
:10334000633071058105910578F3E12CF12C0E9421
:103350002E234B015C0160E0C8010E941F1C8111FB
:103360000BC00E942E23681979098A099B096330D2
:1033700071058105910578F30E943A234B015C01A8
:103380000E942E232B013C0160E0C8010E941F1CFB
:10339000882359F00E942E2364197509860997091C
:1033A000633071058105910578F30E943A2368190D
:1033B00079098A099B09F70123E0F595E7952A9594
:1033C000E1F7693271058105910530F0EC0DFD1DC5
:1033D0008081880F816004C0EC0DFD1D8081880F05
:1033E0008083FFEFEF1AFF0A88E2E816F10409F084
:1033F000AECF59814B81842F90E0850F911D2D8197
:1034000030E08217930719F4F801548345830F9035
:103410000F900F900F900F90DF91CF911F910F9110
:10342000FF90EF90DF90CF90BF90AF909F908F90E4
:103430007F906F905F904F900895FC01611102C0E2
:103440008481089585810895CF93DF93EC010E94D4
:10345000A11D87E791E09983888388A1FE01E85840
:10346000FF4F80838F8DC758DF4F8883DF91CF91C7
:103470000895CF93DF93EC0140E855E260E070E0FF
:103480000E94DE1D60E08F8DDF91CF910C94EB24C4
:103490001F93CF93DF93EC018BA1882319F0CE010A
:1034A0000E941B1E60E0CE014F960E940E1C182F3A
:1034B0008BA1882319F0CE010E94391A81E081275F
:1034C000DF91CF911F91089586589F4FFC01808115
:1034D0000895CF93DF93EC010E94481A8823A1F04E
:1034E000CE010E94961E181619068CF4E881F98107
:1034F0000680F781E02DCE0109958F3F91053CF4C0
:10350000C658DF4F888303C0C658DF4F1882DF914B
:10351000CF9108950E94751E9927089560E00C943C
:10352000F81B613049F40E94501C8A5E9140209142
:10353000EF053091F0050AC0623059F40E94541C26
:103540008A5E91402091ED053091EE05820F931F28
:10355000089580E090E00895089570E0FB01E65B37
:10356000FD4FE491DC01EC93FB01E859FD4FE49140
:10357000F0E0EE0FFF1FEA57FD4F25913491FC015B
:103580003283218308951F93CF93DF93FC01108131
:10359000C181D2819981812F8095892389838A81F4
:1035A000812B8A838AE090E00E9485239881912371
:1035B00081E009F480E0DF91CF911F910895FF929F
:1035C0000F931F93CF93DF93FC011081C181D281B0
:1035D000F8948981F12EF0948F2189838A81812B3F
:1035E0008A8378940DE7015041F182E090E00E94D7
:1035F000852388818123B9F3F8948A818F218A8376
:103600008981812B8983789480EE91E00E948523C3
:10361000F89489818F2189838A81812B8A8386E42A
:1036200090E00E9485238881812301E009F000E079
:1036300078948AE991E00E948523802FDF91CF91D1
:103640001F910F91FF9008951F93CF93DF93FC017B
:103650001081C181D281912F909560FF12C0F894A2
:103660008A8189238A838981812B89838AE090E0FA
:103670000E9485238A81812B8A83789487E390E056
:1036800011C0F8948A8189238A838981812B898357
:1036900081E490E00E9485238A81812B8A8378943B
:1036A00085E090E0DF91CF911F910C9485230F93DB
:1036B0001F93CF93DF93FC011081C181D281F894D5
:1036C0008981812B89838A81012F009580238A83B8
:1036D00083E090E00E9485238981802389838A8109
:1036E000812B8A838AE090E00E948523C8817894A8
:1036F00085E390E00E9485231C2381E009F480E0AB
:10370000DF91CF911F910F910895CF92DF92EF92A9
:10371000FF920F931F93CF93DF931F92CDB7DEB726
:103720006C01E62E08E010E0FF24F39461E09F2D89
:103730009E2109F460E0C60149830E94241BFF0C0E
:103740000150110949810115110581F741111DC071
:10375000F894D6011196ED91FC91129791818C917C
:103760008095892381831196ED91FC911297828136
:103770009C91892B82831196ED91FC9112979281F5
:103780008C9180958923828378940F90DF91CF91DB
:103790001F910F91FF90EF90DF90CF900895EF92DF
:1037A000FF920F931F93CF93DF938C01C8E0D0E07B
:1037B000F12CEE24E394C8010E94571B8111FE28CE
:1037C000EE0C2197C1F78F2DDF91CF911F910F91B3
:1037D000FF90EF90089540E06CEC0C94851BFC0189
:1037E0008091220180838091230181831282089538
:1037F000DC01E62FF0E0EE0FFF1FEE5DFE4F808153
:103800008C93818111968C93119712966C930895E5
:10381000FC0182810895FC0183810895CF93DF9399
:10382000EC0188810E94EB2488810E945A2521E0C6
:10383000892B09F420E0822FDF91CF910895CF9357
:10384000DF93EC0189810E94EB2489810E945A2533
:1038500021E0892B09F420E0822FDF91CF91089598
:103860001F93CF93DF93EC01162F61E088810E94B4
:10387000EB24612F8881DF91CF911F910C94242537
:103880001F93CF93DF93EC01162F61E089810E9493
:10389000EB24612F8981DF91CF911F910C94242516
:1038A000FC0180810C94E623FC0181810C94E623C9
:1038B000FC0180810C941724DC01E62FF0E0EE0F70
:1038C000FF1FEE5DFE4F80818C93818111968C935A
:1038D000119712966C930895DC01E62FF0E0EE0F3D
:1038E000FF1FEE5DFE4F80818C93818111968C933A
:1038F000119712966C93129713964C930895FC01AE
:1039000080810895FC0181810895DC0112966C93F9
:103910001297E62FF0E0EE0FFF1FEE5DFE4F918154
:1039200011969C93119780818C934230D9F4292F62
:1039300030E0F901E65BFD4FE4911C96EC931C9797
:10394000F901E859FD4FE491F0E0EE0FFF1FEC564E
:10395000FD4F2591349119963C932E93189761E071
:10396000892F19C0282F30E0F901E65BFD4FE49163
:103970001C96EC931C97F901E859FD4FE491F0E097
:10398000EE0FFF1FEC56FD4F2591349119963C9395
:103990002E93189761E00C94EB24CF93DF93EC0106
:1039A000262F30E03D832C8323E0629FC001112449
:1039B0000E94ED339F838E83892B21F483E891E06D
:1039C0000E94EE3580E090E04C815D819A01220FEB
:1039D000331F240F351F8217930738F4EE81FF81C0
:1039E000E80FF91F10820196EFCFDF91CF91089574
:1039F000CF93DF93EC010E94EF1B60E2CE01DF91D9
:103A0000CF910C94CD1C0F93FC01A62FB0E08481C4
:103A10009581A817B907B8F4862F880F860F90E014
:103A2000A681B781A80FB91F2C93A681B781A80FD3
:103A3000B91F11964C930680F781E02DE80FF91F0E
:103A4000028381E001C080E00F910895CF92DF9260
:103A5000EF92FF920F931F93CF93DF937C01142F6C
:103A6000D22EC02E611113C0C0E0D0E0F7018481D6
:103A70009581C817D90748F40C2D2D2D412F6C2F97
:103A8000C7010E94031D2196F1CF81E004C061505F
:103A90000E94031D80E0DF91CF911F910F91FF9055
:103AA000EF90DF90CF9008950F93022F242F462F91
:103AB00060E00E94261D0F9108950F931F93D80177
:103AC0003FB7F8949C91822F80958923292BFB0185
:103AD000460F571FE417F50781F0919168E02C938A
:103AE00000C097FF8C93990F00C000C000C008F47D
:103AF0008C9300C06A9599F7EDCF3FBF1F910F914E
:103B000008950F931F93FC01008511852481358151
:103B1000A901440F551F420F531F668177812485E9
:103B20000E945D1D1F910F910895CF93DF93EC01CB
:103B30008E819F810E9485341F821E82DF91CF91EA
:103B40000895FF920F931F93CF93DF93EC01F62E0E
:103B50008C01015E1F4FC8010E94F81BEF2DF0E0A1
:103B6000EE0FFF1FEE5DFE4F20E040816181CE0130
:103B70000E94891185EA91E09983888369ED71E05B
:103B8000CE0182599F4F0E94482D1DA21BA21CA24C
:103B900088A1FE01EA58FF4F80838F8D3196808384
:103BA000C8010E94081C91E0843009F090E09BA3BA
:103BB000DF91CF911F910F91FF900895CF92DF92E7
:103BC000EF92FF92CF93DF93EC016A017B0160E4F7
:103BD00072E48FE090E0A70196010E94AE333FA30C
:103BE0002EA38BA18823E1F08DA1882361F0B7017A
:103BF000A6018AEF95E0DF91CF91FF90EF90DF90E3
:103C0000CF900C946C2626E0B701A6018AE496E0DA
:103C1000DF91CF91FF90EF90DF90CF900C947227BF
:103C2000B701A601CE01DF91CF91FF90EF90DF9019
:103C3000CF900C94B911FC0123A1222321F08AE436
:103C400096E00C94D4270C946012CF92DF92EF92FE
:103C5000FF920F931F93CF93DF93FC01C6A1D7A1CF
:103C600023976C01F6E7CF0ED11CF60180810E94EC
:103C70005A25892BF1F400E010E0E12CF12CCE0163
:103C80000E948523F60180810E945A25002E02C0E1
:103C9000880F991F0A94E2F7E82AF92A0F5F1F4F4D
:103CA0000830110561F7CE010E948523C7019927CD
:103CB00002C08FEF9FEFDF91CF911F910F91FF9087
:103CC000EF90DF90CF900895FC0123A1222359F0BB
:103CD00085A1882321F08AEF95E00C94AF258AE432
:103CE00096E00C940D270C94E40FFC0184A188232A
:103CF00059F080A591A52FEF3FEF31A720A797FF9F
:103D000014C0CF010C94251E83A1882359F085A1EE
:103D1000882321F08AEF95E00C94E9258AE496E067
:103D20000C94A826CF010C94C30F0895CF93DF9372
:103D3000EC018CA1882371F0CE010E94251E88A77A
:103D400099A7892F8095881F8827881F90E0DF9189
:103D5000CF9108958BA1882379F08DA1882331F02C
:103D60008AEF95E0DF91CF910C94D9258AE496E013
:103D7000DF91CF910C948F26CE01DF91CF910C94DF
:103D80005010CF93DF93EC018E81813011F460E00D
:103D900001C061E08A810E94242561E08B810E943C
:103DA000242581E090E00E94852360E08B81DF91F3
:103DB000CF910C942425CF93DF93EC0160E0029621
:103DC0000E94F81B85EB91E099838883DF91CF9166
:103DD0000895CF93DF93EC0102960E94F81B85EBC8
:103DE00091E0998388831F82188619861A861B861C
:103DF0001C861D861E861F8A188E198E1A8E0E949A
:103E00003A236F8F78A389A39AA31F86188A198AE9
:103E10001A8A81E08E831F82188619861A861B866D
:103E20001C861D861E861BA21CA21DA21EA21B8E06
:103E30001C8E1D8E1E8E61E08A810E94EB2461E043
:103E40008B81DF91CF910C94EB240F931F93CF9331
:103E5000DF93EC014B8D5C8D6D8D7E8D452B462B5C
:103E6000472B11F480E035C00E943A230F8D18A132
:103E700029A13AA1601B710B820B930B0B8D1C8D3A
:103E80002D8D3E8D061717072807390758F78E81A5
:103E90004F81588569857A85813029F44F5F5F4F5E
:103EA0006F4F7F4F04C041505109610971094F8321
:103EB000588769877A87E881F9810190F081E02D40
:103EC000CE0109950E943A236F8F78A389A39AA304
:103ED00081E0DF91CF911F910F9108952F923F9232
:103EE0004F925F926F927F928F929F92AF92BF920A
:103EF000CF92DF92EF92FF920F931F93CF93DF93B6
:103F000000D000D000D0CDB7DEB79E838D83FC01FA
:103F1000C384D484E584F68487819085A185B285A5
:103F2000C81AD90AEA0AFB0A6785708981899289C9
:103F30009B01AC010E94B3314B015C01ED81FE811C
:103F40006789708D818D928D9B01AC010E94D62E68
:103F50009B01AC01C501B4010E94A02F0E94083052
:103F6000C114D104E104F104A9F4623071058105A2
:103F700091050CF082C0ED81FE81138E148E158E9A
:103F8000168E1786108A118A128A13A214A215A2FD
:103F900016A20AC1ED81FE8103A114A125A136A1BB
:103FA0001C141D041E041F040CF510161106120625
:103FB00013064CF46C157D058E059F056CF5268166
:103FC00021115BC029C0011511052105310509F436
:103FD00054C06C157D058E059F050CF04EC0ED811B
:103FE000FE818681813009F048C03CC01016110660
:103FF000120613060CF50027112798010C191D094C
:104000002E093F0960177107820793072CF4ED8191
:10401000FE812681213089F59B01AC0188279927F3
:10402000DC01821B930BA40BB50BED81FE8183A3F6
:1040300094A3A5A3B6A321C001151105210531053F
:10404000E1F08824992454018C189D08AE08BF081B
:10405000681579058A059B0584F4ED81FE818681CA
:1040600081110BC030952095109501951F4F2F4F52
:104070003F4F03A314A325A336A3ED81FE8183A0A4
:1040800094A0A5A0B6A081149104A104B10499F450
:1040900087A190A5A1A5B2A583A794A7A5A7B6A718
:1040A00081E01C141D041E041F040CF080E0ED814F
:1040B000FE81868342C0ED81FE81C3A4D4A4E5A421
:1040C000F6A4A7019601C701B6010E94D62E2B01C6
:1040D0003C01C501B4010E943B3020E030E040E8E3
:1040E00050E40E94B33120E030E040E85FE30E94FA
:1040F000D62E9B01AC01C301B2010E94A02F9B01EF
:10410000AC01C701B6010E94D52E1B012C01ED8127
:10411000FE8167A470A801A912A99301A8010E94B9
:104120006331181614F431018201A301B801ED8145
:10413000FE8143A754A765A776A7FFEF8F1A9F0AB2
:10414000AF0ABF0AED81FE8183A294A2A5A2B6A206
:1041500023A534A545A556A5CA01B90129833A83EB
:104160004B835C830E940D30ED81FE81638F748FE1
:10417000858F968F29813A814B815C8160E074E262
:1041800084E799E40E94A02FED81FE816787708B00
:10419000818B928B2681211107C0DC01CB01B058A5
:1041A0008787908BA18BB28B26960FB6F894DEBFD3
:1041B0000FBECDBFDF91CF911F910F91FF90EF9078
:1041C000DF90CF90BF90AF909F908F907F906F9037
:1041D0005F904F903F902F9008950F931F93FC0195
:1041E00003851485258536850417150726073707A7
:1041F00041F043875487658776871F910F910C9410
:104200006E1F1F910F910895CF92DF92EF92FF9250
:10421000CF93DF93EC016A017B019A01AB016B89BB
:104220007C898D899E890E949C2F882309F440C037
:10423000CB8ADC8AED8AFE8AA701960160E074E2EF
:1042400084E799E40E94A02F6FA778AB89AB9AAB63
:104250008BA19CA1ADA1BEA1181619061A061B06BA
:104260003CF56F85788989899A899B01AC010E9408
:10427000B3316B017C016F89788D898D9A8D9B019B
:10428000AC010E94D62E9B01AC01C701B6010E9471
:10429000A02F0E9408306BA37CA38DA39EA3CE0108
:1042A000DF91CF91FF90EF90DF90CF900C946E1F35
:1042B000DF91CF91FF90EF90DF90CF9008956F92B4
:1042C0007F928F929F92AF92BF92CF92DF92EF92A6
:1042D000FF920F931F93CF93DF93EC013A018B0171
:1042E0002F85388949895A89B301C8010E949C2FBA
:1042F000882309F44FC0CB88DC88ED88FE8846010E
:104300005701B7FAB094B7F8B094A5019401B3017E
:10431000C8010E949C2F87FD0BC0A7019601B30125
:10432000C8010E94633118162CF43601870102C0BF
:104330003401850120E030E0A901B301C8010E94E9
:104340009C2F811105C01B8E1C8E1D8E1E8E1CC0C5
:104350009301A80160E074E284E799E40E94A02F31
:104360009F770E940D306B8F7C8F8D8F9E8FFF24E7
:10437000F39420E030E0A901B301C8010E94633149
:1043800018160CF0F12CFE82C301D8018F87988B90
:10439000A98BBA8BDF91CF911F910F91FF90EF9076
:1043A000DF90CF90BF90AF909F908F907F906F9055
:1043B00008950F931F93FC01038514852585368589
:1043C00047815085618572850417150726073707D1
:1043D00071F040175107620773071CF421E0268330
:1043E00002C0FC0116821F910F910C94251F80E0E2
:1043F0001F910F910895CF93DF93EC010E94EF1B63
:10440000CE010496DF91CF910C94AC1A1F93CF93F9
:10441000DF93EC01142F0E946C1C123011F469819F
:1044200001C06881CE010496DF91CF911F910C9459
:10443000AD1ACF92DF92EF92FF920F931F93CF931B
:10444000DF93CDB7DEB72C970FB6F894DEBF0FBE63
:10445000CDBF8C010C5F1F4FC8010E94DF1AC8013D
:104460000E94EB1B40E064E4C8010E94851B0E948F
:104470002E236B017C01C8010E94C31A81110BC05D
:104480000E942E236C197D098E099F096E3E724091
:104490008105910580F3C8010E94DF1AC8010E94BE
:1044A000EB1B40E06EEBC8010E94851BCE0101961C
:1044B0007C016E0196E0C90ED11CC8010E94CF1B81
:1044C000F70181937F01EC15FD05B9F76A8170E072
:1044D000762F66278981682B882777FD8095982F0E
:1044E0000E943B3020E030E040E85DE30E94B331C1
:1044F0002C960FB6F894DEBF0FBECDBFDF91CF91E3
:104500001F910F91FF90EF90DF90CF90089560E0A2
:104510000C94F81BCF92DF92EF92FF92CF93DF9330
:1045200000D000D0CDB7DEB77C019A01AB0160E0CE
:1045300029833A834B835C830E94401C82E090E095
:104540000E94852361E0C7010E94401C8AE090E040
:104550000E94852360E0C7010E94401C60E0F701D3
:1045600081810E94EB2429813A814B815C8161E049
:10457000F70181810E9483256B017C0184E690E034
:104580000E948523C701B6010F900F900F900F90E6
:10459000DF91CF91FF90EF90DF90CF90089527E3C8
:1045A000269FA001279F500D112448535F4F60E0C4
:1045B00070E00E948A220E943B3020E030E048E612
:1045C00052E40E94A02F08951F920F920FB60F92EF
:1045D00011242F933F938F939F93AF93BF93809119
:1045E000F2059091F305A091F405B091F505309195
:1045F000F10523E0230F2D3720F40196A11DB11DF5
:1046000005C026E8230F0296A11DB11D2093F105D8
:104610008093F2059093F305A093F405B093F5050C
:104620008091F6059091F705A091F805B091F905F4
:104630000196A11DB11D8093F6059093F705A093F7
:10464000F805B093F905BF91AF919F918F913F917C
:104650002F910F900FBE0F901F9018952FB7F894C1
:104660006091F2057091F3058091F4059091F50544
:104670002FBF08953FB7F8948091F6059091F70504
:10468000A091F805B091F90526B5A89B05C02F3F6C
:1046900019F00196A11DB11D3FBF6627782F892F04
:1046A0009A2F620F711D811D911D42E0660F771FC9
:1046B000881F991F4A95D1F70895CF92DF92EF9204
:1046C000FF92CF93DF936B017C010E943A23EB01B1
:1046D000C114D104E104F10489F00E94912D0E94DB
:1046E0003A236C1B7D0B683E734090F381E0C81A3F
:1046F000D108E108F108C851DC4FEACFDF91CF9132
:10470000FF90EF90DF90CF9008958230910538F0C0
:10471000880F991F880F991F05970197F1F7089542
:10472000789484B5826084BD84B5816084BD85B58C
:10473000826085BD85B5816085BDEEE6F0E0808153
:1047400081608083E1E8F0E0108280818260808374
:10475000808181608083E0E8F0E0808181608083F7
:10476000E1E9F0E0808182608083808181608083E4
:10477000E0E9F0E0808181608083E1ECF0E080811D
:104780008460808380818260808380818160808377
:10479000E3ECF0E0808181608083E0ECF0E08081F8
:1047A00082608083E2ECF0E0808181608083EAE7D0
:1047B000F0E080818460808380818260808380815A
:1047C000816080838081806880830895823108F0D1
:1047D0008251E82FF0E0E05EFD4FE49180917B0094
:1047E000E3FB222720F930E095E0220F331F9A9552
:1047F000E1F78F7D822B80937B00E77080914001F1
:1048000020E4829FC0011124E82BE0937C0080917A
:104810007A00806480937A0080917A0086FDFCCFD4
:10482000809178002091790090E0922B08951F9359
:10483000CF93DF93182FEB0161E00E94EB242097C8
:1048400011F460E004C0CF3FD10539F461E0812F5D
:10485000DF91CF911F910C942425E12FF0E0E45DCE
:10486000FD4F449150E0FA013197EF30F10508F027
:104870006CC0E757FF4F0C94CD3384B5806884BD7E
:10488000C7BD68C084B5806284BDC8BD63C0809167
:104890008000806880938000D0938900C093880056
:1048A00059C080918000806280938000D0938B00FB
:1048B000C0938A004FC08091800088608093800000
:1048C000D0938D00C0938C0045C08091900080688B
:1048D00080939000D0939900C09398003BC0809142
:1048E0009000806280939000D0939B00C0939A00C8
:1048F00031C080919000886080939000D0939D009B
:10490000C0939C0027C08091C00080688093C00045
:104910008091C0008F7B8093C000C093CF001AC0ED
:104920008091C00080628093C000C093D00012C00C
:104930008091C20088608093C2008091C2008B7F0A
:104940008093C200C093D20005C0C038D1050CF0DE
:104950007DCF77CFDF91CF911F91089590E0FC013B
:104960003197EF30F105B0F5E856FF4F0C94CD3399
:10497000809180008F7703C0809180008F7D80932D
:104980008000089580918000877FF9CF84B58F776C
:1049900002C084B58F7D84BD0895809190008F778B
:1049A00007C0809190008F7D03C080919000877F29
:1049B0008093900008958091C0008F7703C080910C
:1049C000C0008F7D8093C00008958091C200877FD2
:1049D0008093C2000895CF93DF9390E0FC01E65BE3
:1049E000FD4F2491FC01E859FD4F8491882349F142
:1049F00090E0880F991FFC01EE55FD4FA591B491F1
:104A00008C569D4FFC01C591D4919FB7611108C090
:104A1000F8948C91209582238C93888182230AC0FC
:104A2000623051F4F8948C91322F309583238C931B
:104A30008881822B888304C0F8948C91822B8C937C
:104A40009FBFDF91CF9108950F931F93CF93DF9373
:104A50001F92CDB7DEB7282F30E0F901E45DFD4F9E
:104A60008491F901E65BFD4F1491F901E859FD4F7E
:104A700004910023C9F0882321F069830E94AE24A9
:104A80006981E02FF0E0EE0FFF1FEC56FD4FA5917E
:104A9000B4919FB7F8948C91611103C01095812354
:104AA00001C0812B8C939FBF0F90DF91CF911F91FD
:104AB0000F910895CF93DF93282F30E0F901E45D43
:104AC000FD4F8491F901E65BFD4FD491F901E8595E
:104AD000FD4FC491CC2391F081110E94AE24EC2FA4
:104AE000F0E0EE0FFF1FEA57FD4FA591B4912C9116
:104AF0002D2381E090E021F480E002C080E090E08E
:104B0000DF91CF9108950F931F93762F90E0FC01D2
:104B1000E65BFD4F6491FC01E859FD4FE491711192
:104B2000762FF0E0EE0FFF1FEA57FD4F859194912D
:104B300089019A013F70472F0E944F02611571054C
:104B40008105910531F06F5F7F4F8F4F9F4F9F70B1
:104B500003C060E070E0CB011F910F910895CF93E7
:104B6000DF931F92CDB7DEB76983DC01ED91FC9135
:104B70000280F381E02D41E050E0BE016F5F7F4F86
:104B800009950F90DF91CF910895CF93DF93EC01BA
:104B90008C859D8597FF05C082E00E94C0299D8776
:104BA0008C878C859D85DF91CF91089583E00C944F
:104BB000152CFC018485958597FD06C082E00E9436
:104BC000682990E00196089582E00E94682990E0AB
:104BD0000895FC018485958597FD05C02FEF3FEF73
:104BE00035872487089582E00C94C029CF93DF9302
:104BF000EC0180914801882331F083E00E94F12983
:104C00001816190634F081E090E09B838A8380E0D7
:104C100090E0DF91CF910895FC0120812E5F2083E9
:104C200042E450E060EB72E080E80C948C2AFC01D6
:104C300081819081913A59F4813209F03CC047E07A
:104C400050E061E471E080E00E948C2A43C0913220
:104C500091F5803239F467E070E081E491E00E94E0
:104C6000BD2A06C0823209F035C082818093480196
:104C70008091410190914201A0914301B091440182
:104C8000803B9440A105B105C1F48091480180FDAD
:104C900014C087E797E790930108809300082BE002
:104CA00088E190E00FB6F894A895809360000FBE5D
:104CB000209360000FC080E0089588E10FB6F8945B
:104CC00080936000109260000FBEA89510920108BA
:104CD0001092000881E008952FEF3FEFFC01358727
:104CE000248708951092FD051092FC0588EE93E04C
:104CF000A0E0B0E08093FE059093FF05A09300062E
:104D0000B09301068BEB91E09093FB058093FA053D
:104D10008FEF9FEF90930706809306060895FC019E
:104D2000818D228D90E0805C9F4F821B91098F7353
:104D300099270895FC01918D828D981731F0828D0D
:104D4000E80FF11D858D90E008958FEF9FEF089596
:104D5000FC01918D828D981761F0828DDF01A80F83
:104D6000B11D5D968C91928D9F5F9F73928F90E0A5
:104D700008958FEF9FEF089588E498E2892B49F01A
:104D800080E090E0892B29F00E94482881110C9442
:104D900000000895FC01848DDF01A80FB11DA35A06
:104DA000BF4F2C91848D90E001968F739927848F4B
:104DB000A689B7892C93A089B1898C9180648C9342
:104DC000938D848D981306C00288F389E02D80812D
:104DD0008F7D80830895CF93DF93EC01888D8823A6
:104DE000C9F0EA89FB89808185FD05C0A889B98958
:104DF0008C9186FD0FC00FB607FCF5CF808185FF33
:104E0000F2CFA889B9898C9185FFEDCFCE010E94A0
:104E1000CA26E7CFDF91CF910895CF92DF92FF921C
:104E20000F931F93CF93DF931F92CDB7DEB76C0123
:104E300081E0D60158968C9358975B969C915B972E
:104E40005C968C915C97981307C05096ED91FC91FD
:104E50005197808185FD2EC0F601038D10E00F5F14
:104E60001F4F0F731127F02EF601848DF81211C019
:104E70000FB607FCF9CFD6015096ED91FC915197F2
:104E8000808185FFF1CFC60169830E94CA266981AE
:104E9000EBCF838DE80FF11DE35AFF4F6083D601FE
:104EA0005B960C935B975296ED91FC9153978081A2
:104EB00080620CC0D6015696ED91FC9157976083A5
:104EC0005096ED91FC91519780818064808381E0C0
:104ED00090E00F90DF91CF911F910F91FF90DF90A5
:104EE000CF900895BF92CF92DF92EF92FF92CF932F
:104EF000DF93EC016A017B01B22EE889F98982E037
:104F00008083411581EE580761057105A1F060E0CD
:104F100079E08DE390E0A70196010E948C33215047
:104F2000310941095109569547953795279521151E
:104F300080E1380798F0E889F989108260E874E820
:104F40008EE190E0A70196010E948C332150310937
:104F5000410951095695479537952795EC85FD856B
:104F60003083EE85FF852083188EEC89FD89B08221
:104F7000EA89FB89808180618083EA89FB8980815D
:104F800088608083EA89FB89808180688083EA89E0
:104F9000FB8980818F7D8083DF91CF91FF90EF909F
:104FA000DF90CF90BF900895FC01938D848D98136E
:104FB000FCCFA289B3898C918F7E8C93A289B3890F
:104FC0008C91877F8C93A289B3898C918F778C93F6
:104FD000A289B3898C918F7D8C93828D818F089566
:104FE0001F920F920FB60F9211242F938F939F93BE
:104FF000EF93FF93E0915A06F0915B068081E09178
:105000006006F091610682FD12C090818091630676
:105010008F5F8F7320916406821751F0E0916306D1
:10502000F0E0E65BF94F958F8093630601C08081C5
:10503000FF91EF919F918F912F910F900FBE0F9045
:105040001F9018951F920F920FB60F9211242F9355
:105050003F934F935F936F937F938F939F93AF9300
:10506000BF93EF93FF938AE496E00E94CA26FF91D4
:10507000EF91BF91AF919F918F917F916F915F91D0
:105080004F913F912F910F900FBE0F901F90189549
:105090008AE496E00E948F2621E0892B09F420E023
:1050A000822F089510924D0610924C0688EE93E0E0
:1050B000A0E0B0E080934E0690934F06A093500678
:1050C000B09351068BEC91E090934B0680934A0687
:1050D0008DEC90E090935706809356068CEC90E010
:1050E000909359068093580688EC90E090935B0665
:1050F00080935A0689EC90E090935D0680935C065D
:105100008AEC90E090935F0680935E068EEC90E0D0
:105110009093610680936006109263061092640675
:105120001092650610926606089508950E949023D5
:105130000E94952887EE96E00E94752C0E949402AA
:10514000CCEBD6E20E947A0A2097E1F30E94BC26BB
:10515000F9CF0C94ED330C948534CF92DF92EF921B
:10516000FF920F931F93CF93DF936C017A01EB01B2
:10517000E60EF71E00E010E0CE15DF0561F0699144
:10518000D601ED91FC910190F081E02DC6010995C9
:10519000080F191FF1CFC801DF91CF911F910F9117
:1051A000FF90EF90DF90CF9008956115710581F029
:1051B000DB010D900020E9F7AD0141505109461B7C
:1051C000570BDC01ED91FC910280F381E02D0994F5
:1051D00080E090E0089567ED71E00C94D52840914F
:1051E000EB065091EC062091E9063091EA06421751
:1051F0005307B4F49091E8009570E1F39091E800C2
:1052000092FD19C08093F1008091EB069091EC061D
:1052100001968F739927892B19F48EEF8093E800FC
:105220008091EB069091EC0601969093EC068093AA
:10523000EB0681E0089580E00895CF92DF92FF921F
:105240000F931F93CF93DF931F92CDB7DEB7082F35
:10525000162F862F880F8E5F99830E94EF2883E098
:105260000E94EF28F02EC02E9981D92E8C2D8F19F7
:10527000811778F4F60184910E94EF28082F80E0CE
:105280000E94EF288023FFEFCF1ADF0A8111EECFB3
:1052900001C081E00F90DF91CF911F910F91FF909E
:1052A000DF90CF900895615030F02091F100FC0123
:1052B00020830196F8CF289884E68093EE0608951F
:1052C0002FB7FC012083F89467706093E90008957C
:1052D000CF93DF931F92CDB7DEB7682FCE01019633
:1052E0000E9460298091F20099819FBF0F90DF9109
:1052F000CF910895FF920F931F93CF93DF9300D028
:10530000CDB7DEB7F62E8A019091ED06992311F004
:1053100057FF03C08FEF9FEF2BC0682FCE01019680
:105320007A830E9460298091F20090E0A8017A813E
:10533000801791070CF4AC01EF2DF72FF40E84E6E3
:10534000FE1639F028988093EE069091F100919323
:10535000F7CF4115510521F08091F200882321F00B
:1053600089818FBFCA0104C08BE68093E800F8CF23
:105370000F900F90DF91CF911F910F91FF900895A3
:10538000CF93DF931F92CDB7DEB741E050E0BE016F
:105390006F5F7F4F0E947A29019719F4898190E00D
:1053A00002C08FEF9FEF0F90DF91CF910895CF93C1
:1053B000DF931F92CDB7DEB7682FCE0101960E9412
:1053C00060299091E800892F807295FF04C0909128
:1053D000F20080E4891B99819FBF0F90DF91CF91EC
:1053E00008956F927F928F929F92AF92BF92CF92C9
:1053F000DF92EF92FF920F931F93CF93DF931F9251
:10540000CDB7DEB7782E7B01C42EB52E8091ED0688
:10541000882369F0042F152F8AEFD82E872D8072EC
:10542000982E9AE3A92E872D8074882E11C08FEFB5
:105430009FEF57C0872D0E94D729682E81110CC07D
:10544000DA94A9F361E070E080E090E00E945D23CF
:105450000115110579F73BC0282F30E0021713071B
:105460000CF4602E672DCE0101960E946029809178
:10547000E80085FF29C0262D30E0021B130B992080
:1054800039F06A948FEF6816B1F01092F100F9CFFD
:10549000F701862D77FE07C0815058F094919093C4
:1054A000F1003196F9CF815020F091919093F10065
:1054B000FACFE20EF31E8091E80085FF0FC00115C0
:1054C000110511F481100AC089818FBFC1CF5D9889
:1054D00084E68093EF068C2D9B2D03C0A092E800FC
:1054E000F3CF0F90DF91CF911F910F91FF90EF902D
:1054F000DF90CF90BF90AF909F908F907F906F90F4
:1055000008951092E9001092EC061092EB06909329
:10551000EA068093E9060895CF92DF92FF920F93F7
:105520001F93CF93DF9300D0CDB7DEB7F82E8A015B
:105530006B0101151105B1F0F601F7FE02C084916F
:1055400001C0808149835A830E94EF2801501109CC
:10555000FFEFCF1ADF0A49815A818111EACF8FEF1D
:105560009FEF01C0CA010F900F90DF91CF911F9163
:105570000F91FF90DF90CF9008951F93CF93DF930B
:105580001F92CDB7DEB7162F2091E80022FFFCCF87
:10559000612F79830E9453298BEF8093E800812F3C
:1055A0007981972F0F90DF91CF911F910895CF931D
:1055B000DF931F92CDB7DEB71982CE0101960E940C
:1055C0000C26CE0101960E94B02D898190E00F90AB
:1055D000DF91CF9108951F920F920FB60F92112471
:1055E000EF92FF920F931F932F933F934F935F93ED
:1055F0006F937F938F939F93AF93BF93EF93FF939B
:10560000CF93DF93CDB7DEB76297DEBFCDBF1092E9
:10561000E9008091E80083FFEBC068E0CE010A96C4
:105620000E94532982EF8093E8009A8597FF05C076
:105630008091E80080FFFCCF03C08EEF8093E800EC
:10564000892F807609F0B9C08B85811105C0109231
:10565000F1001092F100C5C0282F2D7F213009F4F0
:10566000C0C0853049F48091E80080FFFCCF8C8574
:1056700080688093E300B5C0863009F076C02D8540
:10568000E888F988223071F580E090E02A8B0E944A
:10569000812A0E94D72A99E08E010F5F1F4FF801DF
:1056A000392F11923A95E9F799832A892A8391E053
:1056B0009E8390E898879AEF99872091EB06309126
:1056C000EC06275F3F4F3C832B838D83C7010E94ED
:1056D000812A49E050E0B80180E00E948C2A0E94B3
:1056E000D72A7FC0C7012A8B0E94812A2A892232A9
:1056F00041F482E290E00E94BB2D892B09F071C039
:1057000074C0213069F488899989089711F420932D
:10571000E8068091E806811118C069E073E01AC0BC
:10572000233009F062C08C85882391F0823021F407
:1057300060E187E293E006C0813009F056C06BE07B
:105740008BE193E00E941D294AC067EF72E002C01E
:1057500068E373E06115710509F447C0FB014491EA
:1057600050E080E80E948C2A3CC0873009F43DC09C
:10577000883021F481E08093F10033C0893089F5CD
:10578000937099F5E3EFF2E081E021E096E38093F6
:10579000E9002093EB0034913093EC009093ED00FE
:1057A0008F5F3196853099F78EE78093EA001092EB
:1057B000EA008C858093ED0614C0888999890E943F
:1057C000812A8E85811105C0CE010A960E94172676
:1057D00006C0823051F4CE010A960E94E32D882340
:1057E00021F08EEF8093E80003C081E28093EB000C
:1057F00062960FB6F894DEBF0FBECDBFDF91CF919A
:10580000FF91EF91BF91AF919F918F917F916F9198
:105810005F914F913F912F911F910F91FF90EF90CA
:105820000F900FBE0F901F9018958093E900809104
:10583000F200882319F08AE38093E80008951F920C
:105840000F920FB60F9211242F933F934F935F93B4
:105850006F937F938F939F93AF93BF93EF93FF9338
:105860008091E1001092E10083FF0FC01092E900E7
:1058700091E09093EB001092EC0092E39093ED0096
:105880001092ED0698E09093F00082FF1DC083E037
:105890000E94152C8091EF06882339F08091EF0645
:1058A00081508093EF06882369F08091EE0688236B
:1058B00059F08091EE0681508093EE06811104C06C
:1058C000289A02C05D9AF1CFFF91EF91BF91AF91FD
:1058D0009F918F917F916F915F914F913F912F9108
:1058E0000F900FBE0F901F9018951092ED0681E05B
:1058F0008093D70080EA8093D80082E189BD09B403
:1059000000FEFDCF61E070E080E090E00E945D234A
:1059100080E98093D8008CE08093E2001092E00050
:10592000559A209A08954F925F926F927F92AF920C
:10593000BF92CF92DF92EF92FF920F931F93CF937C
:10594000DF93CDB7DEB729013A01621B730B840BDD
:10595000950B29893A894B895C892A193B094C099D
:105960005D09298B3A8B4B8B5C8B9B01AC01698960
:105970007A898B899C890E944833E418F5080609C6
:105980001709A80197010E94AE332A0D3B1D4C1D3B
:105990005D1DCA01B901DF91CF911F910F91FF9059
:1059A000EF90DF90CF90BF90AF907F906F905F901F
:1059B0004F900895FC01808191810C948534CF93A0
:1059C000DF93EC0188819981009711F00E94853462
:1059D000198218821D821C821B821A82DF91CF914C
:1059E00008950F931F93CF93DF93EC018B016F5FAB
:1059F0007F4F888199810E941435009731F09983F7
:105A000088831B830A8381E001C080E0DF91CF910E
:105A10001F910F910895CF93DF93EC0188819981B5
:105A2000892B29F08A819B818617970760F4CE0124
:105A30000E94F12C882341F08C819D81892B19F4DF
:105A4000E881F981108281E0DF91CF910895EF9292
:105A5000FF920F931F93CF93DF93EC017B018A0199
:105A6000BA010E940B2D811104C0CE010E94DF2CCF
:105A700007C01D830C83B701888199810E94E73597
:105A8000CE01DF91CF911F910F91FF90EF9008957C
:105A9000FC01118210821382128215821482611518
:105AA000710559F0FB0101900020E9F7AF01415069
:105AB0005109461B570B0C94272D0895CF93DF9364
:105AC000EC01FB018617970761F060817181611518
:105AD000710529F0448155810E94272D02C00E9442
