:100000000C9403010C942B010C942B010C94E60F1F
:100010000C94E60F0C94E60F0C942B010C94F91E33
:100020000C942B010C942B010C942B010C941D0AA5
:100030000C942B010C942B010C942B010C942B0190
:100040000C94A2270C942B010C94532B0C94852B0D
:100050000C942B010C942B010C942B010C942B0170
:100060000C94C60D0C942B017108BE06D206EC064A
:10007000EC0605074E08EC06FF08FF08FF08FF081E
:10008000FF08FF08FF0863071E077707FF08FF0840
:10009000FF08A807FF08E40703082508FF08FF0872
:1000A000FF08FF0880088808FF08FF08FF089D0870
:1000B000B408FF08FF08FF08FF08FF08FF08FF0853
:1000C000FF08FF08FF08FF08FF08FF08E608084AC6
:1000D000D73B3BCE016E84BCBFFDC12F3D6C74315C
:1000E0009ABD56833DDA3D00C77F11BED9E4BB4CB3
:1000F0003E916BAAAABE000000803F07634236B75C
:100100009BD8A71A39685618AEBAAB558C1D3CB7A8
:10011000CC5763BD6DEDFD753EF6177231BF000023
:1001200000803F08000000BE922449123EABAAAAFC
:100130002ABECDCCCC4C3E00000080BEABAAAAAA01
:100140003E00000000BF000000803F0000000000F3
:10015000084178D3BB4387D1133D190E3CC3BD4240
:1001600082AD2B3E68EC8276BED98FE1A93E4C80F1
:10017000EFFFBE01C4FF7F3F0000000000003F060C
:100180005B4F666D7D077F6F777C395E7971BF86C7
:10019000DBCFE6EDFD87FFEFF7FCB9DEF9F10040BC
:1001A0000000000800020100000304070000000036
:1001B0000000000001020408102040800102040831
:1001C00010200102040810200404040404040404A0
:1001D0000202020202020303030303030000000001
:1001E00023002600290000000000250028002B0025
:1001F00000000000240027002A00B005E40CDD14F4
:10020000B52B0606E11411241FBECFEFD8E0DEBFE8
:10021000CDBF11E0A0E0B1E0EEEAF9E602C0059042
:100220000D92AE3BB107D9F727E0AEEBB1E001C0CC
:100230001D92A335B207E1F711E0C2E0D2E004C09D
:100240002297FE010E944732CA3FD107C9F70E9498
:10025000F92B0C94CA340C940000CF92DF92EF92E9
:10026000FF920F931F93E82FF92F05C0015011093A
:100270002109310961F1908196239417B9F305C0E2
:10028000015011092109310911F19081962394132C
:10029000F7CFC12CD12CE12CF12C0AC08FEFC81A5A
:1002A000D80AE80AF80A0C151D052E053F0579F055
:1002B00080818623841791F36C2D7D2D8E2D9F2DAB
:1002C0001F910F91FF90EF90DF90CF90089560E025
:1002D00070E080E090E01F910F91FF90EF90DF9031
:1002E000CF900895CF93DF93CDB7DEB72A970FB69F
:1002F000F894DEBF0FBECDBF61E08DE00E942E29D5
:1003000061E08DE00E9467296CE271E080E090E09E
:100310000E941B2860E08DE00E94672926E040E0F3
:1003200052EC61E070E08CEA96E00E94D52A64EF1E
:1003300071E080E090E00E941B2861E083E10E9470
:100340002E2961E083E10E94672964E670E080E085
:1003500090E00E941B2861E083E10E942E2960E06A
:1003600083E10E94672961E0CE0101960E94C114D9
:100370008AE0FE013196ACE4B2E001900D928A95DC
:10038000E1F762E0CE0101960E94C1148AE0FE010D
:100390003196A6E5B2E001900D928A95E1F78CE4E2
:1003A00092E00E94A21586E592E00E94A21564EFF9
:1003B00071E080E090E00E941B2840E050E0BA012C
:1003C0008CE492E00E94AE1540E050E0BA0186E570
:1003D00092E00E94AE1580E593E00E949A1A2A9658
:1003E0000FB6F894DEBF0FBECDBFDF91CF91089559
:1003F00020914402FC01222319F0E452FE4F02C076
:10040000E05FFD4F8081089520914402FC0122238A
:1004100019F0E452FE4F02C0E05FFD4F6083089583
:100420008CEA96E00C944A2CCF93DF93EC010E9467
:10043000F80180936002CE0101960E94F80180933A
:1004400061028091600290916102DF91CF910895E5
:100450000F931F93CF93DF93EC010E94F80102E604
:1004600012E0F8018083CE0101960E94F80180938A
:100470006302CE0102960E94F80180936402CE01CD
:1004800003960E94F80180936502F80160817181F2
:1004900082819381DF91CF911F910F910895FC018B
:1004A000DB0112964D915D916D917C911597428380
:1004B00053836483758316968C911697868317965B
:1004C0004D915D916D917C911A974783508761871B
:1004D00072871B964D915D916D917C911E9743871C
:1004E0005487658776871F964D915D916D917C91BC
:1004F00052974787508B618B728B53964D915D91CC
:100500006D917C915697438B548B658B768B579668
:100510004D915D916D917C915A97478B508F618F72
:10052000728F5B964D915D916D917C915E97438F3B
:10053000548F658F768F5F964D915D916D917C9113
:100540009297478F50A361A372A393964D915D91AB
:100550006D917C91969743A354A365A376A3979638
:100560004D915D916D917C919A9747A350A761A79A
:1005700072A79B964D915D916D917C919E9743A73B
:1005800054A765A776A79F964D915D916D917C913B
:10059000D29747A750AB61AB72ABD3968C91D397F0
:1005A00083ABD4968C9184ABCF010895E7ECF1E056
:1005B00020E030E0419151914817590791F0452BC7
:1005C00041F4F901EE0FFF1FE953FE4F9183808341
:1005D00008C02F5F3F4F2830310561F780E090E081
:1005E0000895C9010895AF92BF92CF92DF92EF9222
:1005F000FF920F931F93CF93DF93CDB7DEB7E697AC
:100600000FB6F894DEBF0FBECDBF8C0186E090E040
:100610000E94F801D82EE82EF12C0C30110509F4B7
:1006200019C14CF50830110509F45BC1F4F403302D
:10063000110509F4D6C10530110509F080C286E024
:1006400090E00E9414028C0169E084EC93E00E9427
:100650005721B80184EC93E00E940F1488E090E0E9
:100660000E9414028C016AE02AC00A30110509F1C7
:100670000CF49EC16DC10132110509F42BC26CF45A
:100680000E31110509F4ECC10032110509F4F4C171
:100690000431110509F053C2BBC108321105C9F07C
:1006A0000233110509F439C20232110509F047C2BB
:1006B000F0C187E090E00E9414028C016D2D84EC63
:1006C00093E00E945721B80184EC93E00E940F143C
:1006D00036C287E090E00E9414028C0189E090E02D
:1006E0000E9414026C0181E0E816F10449F561E012
:1006F000CE0101960E94B423BE016F5F7F4F88E751
:1007000092E00E944F02A601662757FD6095762F62
:1007100088E792E00E94B825B801882777FD809588
:10072000982F0E94B32E6B017C01AB01BC0188E7BE
:1007300092E00E94CF25B701A60188E792E02CC085
:1007400082E0E816F10459F562E0CE0101960E94BC
:10075000B423BE016F5F7F4F8DEA92E00E944F028B
:10076000A601662757FD6095762F8DEA92E00E94DC
:10077000B825B801882777FD8095982F0E94B32E61
:100780006B017C01AB01BC018DEA92E00E94CF2598
:10079000B701A6018DEA92E00E942A26D0C189E025
:1007A000E816F10449F569E0CE0101960E94B423F0
:1007B000BE016F5F7F4F82EE92E00E944F02A60162
:1007C000662757FD6095762F82EE92E00E94B8254D
:1007D000B801882777FD8095982F0E94B32E6B0172
:1007E0007C01AB01BC0182EE92E00E94CF25B701F3
:1007F000A60182EE92E0D0CF8AE0E816F10409F07B
:100800009EC16AE0CE0101960E94B423BE016F5FD3
:100810007F4F87E193E00E944F02A601662757FDB4
:100820006095762F87E193E00E94B825B80188276C
:1008300077FD8095982F0E94B32E6B017C01AB0150
:10084000BC0187E193E00E94CF25B701A60187E1B3
:1008500093E0A2CF87E090E00E94F801082F10E01B
:1008600088E090E00E9414027C018AE090E00E94FF
:1008700014025C0101301105B9F4B701882777FD36
:100880008095982F0E94B32E6B017C01B5018827BB
:1008900077FD8095982F0E94B32EAB01BC01970184
:1008A00086018CE492E01AC00230110509F047C1BC
:1008B000B701882777FD8095982F0E94B32E6B0192
:1008C0007C01B501882777FD8095982F0E94B32E73
:1008D000AB01BC019701860186E592E00E944316B8
:1008E0002EC187E090E00E94F801482F88E090E058
:1008F0004EAB0E94F801E82E89E090E00E94F801DA
:10090000182F8AE090E00E94F801F82E8BE090E02A
:100910000E94F801082F4EA96D2D85EA93E00E94F0
:100920008021EE2049F06FEF6E0D2F2D412F85EACB
:1009300093E00E94FE2107C0202F4F2D612F85EAF2
:1009400093E00E944F2285EA93E00E947C22F7C048
:1009500087E090E00E94F8019701220F331FF90110
:10096000E65EFE4F813011F4008101C0018110E08C
:1009700088E090E00E94F801D82EC8010E94D602BB
:10098000FC01EE0FFF1FE80FF91FE853FC4F208119
:100990003181428129833A834B8384EB8D1508F49E
:1009A000CEC0B801CE0101960E94730B6D2DAFC071
:1009B00087E993E00E940321282F30E02E153F05A0
:1009C00029F06D2D87E993E00E940F1387E090E0F6
:1009D0000E942802AB01BC0187E993E00E94311319
:1009E000AEC083E993E00E940321282F30E02E154A
:1009F0003F0529F06D2D83E993E00E94572187E0A0
:100A000090E00E94F80161E081111BC060E019C014
:100A100083E993E00E940321282F30E02E153F0543
:100A200029F06D2D83E993E00E94572187E090E043
:100A30000E94F801282F30E0223031053CF4682F65
:100A4000617083E993E00E942B2179C061E022303C
:100A5000310509F460E083E993E00E943B216FC017
:100A600061E00E942E2987E090E00E94F801682F43
:100A70008D2D0E94672963C061E00E942E2987E0C6
:100A800090E00E94F801682F70E08D2D0E94A6284A
:100A900056C061E00E942E2987E090E00E94140277
:100AA0006C0189E090E00E9414021816190664F4A3
:100AB0008C01222717FD2095322FA601B70184E76C
:100AC00092E00E94A8133BC0B70184E792E00E9425
:100AD000061435C087E090E00E94F801182F853B8E
:100AE00070F5C7010E94D602FC01EE0FFF1FE80F50
:100AF000F91FE853FC4F20813181428129833A83D9
:100B00004B83B701CE0101960E94730B612F70E0F9
:100B1000CE0101960E94AC0B12C00E94EC270E94ED
:100B2000B12E20E030E04AE754E40E94182E609392
:100B3000C2017093C3018093C4019093C501E696EE
:100B40000FB6F894DEBF0FBECDBFDF91CF911F91DE
:100B50000F91FF90EF90DF90CF90BF90AF900895EE
:100B6000CF93DF93C8ECD3E0CE010E94D90A23963D
:100B700083E0C03ED807C1F784EC93E00E940C14D8
:100B800082EB93E00E94C62685EA93E00E94F3215F
:100B900081EA93E00E94522787E993E00E9479114D
:100BA00083E993E00E94DE2080E593E00E943A17FB
:100BB0008CE493E00E947D1FC8E7D2E0CE010E9442
:100BC000A623E59683E0CC34D807C1F784E792E00A
:100BD0000E94A2138EE692E00E94AF1D8AE692E088
:100BE0000E94061786E692E00E9420178CE492E0AD
:100BF0000E94D11486E592E00E94D11461E371E075
:100C000086E492E0DF91CF910C94032D86E492E08C
:100C10000E94952C85EA93E00C949022682F8CEA30
:100C200096E00C94702A8FEF0E940E0685E50C94D6
:100C30000E068FEF0E940E0685E50E940E060C94AC
:100C40001002CF93C82F81E00E940E068C2FCF9107
:100C50000C940E06EF92FF920F931F93CF93DF93A6
:100C60007C01FC01C4810C2F158184E00E940E06DA
:100C70008C2F0E940E06C0E0D0E0C017D10744F4CC
:100C8000BE01C7010E944A2D0E940E062196F5CF93
:100C9000DF91CF911F910F91FF90EF900895FF92F8
:100CA0000F931F93CF93DF931F92CDB7DEB78B01C6
:100CB000F82E82E099830E940E06A8016F2D99817B
:100CC000792F4093620250936302609364027093A1
:100CD0006502802F0E940E06809163020E940E061C
:100CE000809164020E940E06809165020F90DF9150
:100CF000CF911F910F91FF900C940E06CF92DF922F
:100D0000EF92FF926B017C0183E00E940E06C70107
:100D1000B6010E94802E862F262F372F3093610236
:100D2000209360020E940E0680916102FF90EF9076
:100D3000DF90CF900C940E06CF92DF92EF92FF924D
:100D40000F931F93CF93DF93CDB7DEB727970FB6DF
:100D5000F894DEBF0FBECDBF7C0186E090E00E941C
:100D6000F801D82E082F10E083E3E816F10408F00C
:100D700046C2F701EC5CFF4F0C94453281EA93E0E8
:100D80000E94032190E08017910729F06D2D81EAE0
:100D900093E00E94572160E971E081EA93E00E94AC
:100DA0008D271CC287E090E00E94F801F82E82EBAC
:100DB00093E00E940321282F30E02017310709F02B
:100DC00010C282EB93E00E9406218F110AC282EBCF
:100DD00093E00E94E42602C283E993E00E9403218B
:100DE00090E08017910761F06D2D83E993E00E94F8
:100DF000572183E993E00E947D2160E00E942E2923
:100E000083E993E00E944F2190C187E090E00E9427
:100E1000F801F82E8CE493E00E940321282F30E0A3
:100E20002017310729F06D2D8CE493E00E945721A3
:100E30006F2D8CE493E00E94801F77C18091910315
:100E4000909192030097F1F04F960E94032190E059
:100E50008017910731F100919103109192030115D0
:100E6000110581F08BE891E0F80191838083C8013E
:100E700082599F4F0E94952CC8010E946010C801A2
:100E80000E940A2C87E790E00E94082C8C016D2DAF
:100E90000E94921E1093920300939103C8010E9436
:100EA000A41E80919103909192030E94CF1E682FFF
:100EB0008093D8018FEF860F8E3F08F47FC060E0EB
:100EC00070E0CB018BC183E993E00E94032190E0A5
:100ED0008017910709F46CC06D2D83E993E00E949F
:100EE000572183E993E00E947D2160E05FC083E9A0
:100EF00093E00E94032190E08017910799F06D2DF7
:100F000083E993E00E94572183E993E00E947A21CC
:100F100060E00E942E2983E993E00E947D2160E039
:100F20000E942E2960E083E993E00E940921182F96
:100F300060E083E993E00E941A21612F70E0660F60
:100F4000771F680F711D882777FD8095982FF2C055
:100F500087E090E00E94F801C82EE82EF12C83E98A
:100F600093E00E940321282F30E02017310709F079
:100F70003FC183E993E00E940621282F30E02E151F
:100F80003F0509F035C183E993E0EA94EF2859F46D
:100F90000E947A2162E00E942E2960E083E993E0BA
:100FA0000E9409210AC00E947D2162E00E942E2930
:100FB00060E083E993E00E941A21682F70E080E0EE
:100FC00090E00E94B12E0AC187E090E00E94F801F3
:100FD000F82E8EE692E00E940321282F30E02017A1
:100FE000310729F06D2D8EE692E00E9457218EE6A2
:100FF00092E00E94B21D6F2D8EE692E00E948B1E41
:101000000E942106FCC08AE692E00E94032190E043
:1010100080179107A9F06D2D8AE692E00E94572172
:101020008AE692E00E947A21482F8AE692E04F8376
:101030000E947D214F81682F8AE692E00E94091765
:101040008AE692E00E941E1721C086E692E00E9486
:10105000032190E080179107A9F06D2D86E692E0BC
:101060000E94572186E692E00E947A21482F86E668
:1010700092E04F830E947D214F81682F86E692E0A7
:101080000E94231786E692E00E943817BC01882749
:1010900077FD8095982F0E94B32E63C087E090E083
:1010A0000E94F801082F10E080E593E00E94AA1743
:1010B0000130110529F480E593E00E9447178EC0A6
:1010C0000230110529F480E593E00E944D1786C097
:1010D0000330110509F093C080E593E00E94531797
:1010E0007DC066E472E0CE0101960E94302DCE01F3
:1010F00001960E942A06CE0101960E94952C7FC07F
:1011000060E08D2D0E942E298D2D0E949D290DC0FD
:10111000F801EE0FFF1FE65FFE4F108160E0812FA8
:101120000E942E29812F0E948928BC01882777FDE3
:101130008095982F0E94B32E51C087E090E00E94C6
:1011400014028C0160E08D2D0E942E299801442705
:1011500037FD4095542F61E08D2D0E94C6290E94D5
:10116000B12E0E947E064BC087E090E00E94F801FD
:10117000182F61E08D2D0E942E2960E08D2D0E9498
:10118000672982E090E00E94432861E08D2D0E9453
:1011900067298AE090E00E94432860E08D2D0E943C
:1011A000672960E0812F0E942E2920E335E740E087
:1011B00050E061E0812F0E94C6290E94B12E20E0FC
:1011C00030E048E652E40E94182E08C06091BE014B
:1011D0007091BF018091C0019091C1010E944F06A2
:1011E0000EC04F2D6D2D82EB93E00E94D126EFCDE6
:1011F0004C2D6D2D83E993E00E946721C4CE279684
:101200000FB6F894DEBF0FBECDBFDF91CF911F9117
:101210000F91FF90EF90DF90CF9008950F931F9361
:10122000CF93DF931092D90183E090E00E94F80100
:10123000082F84E090E00E94F801182F85E090E0EC
:101240000E94F801C82FD0E01230C1F088F41130AC
:1012500009F058C00E941306802F0E940E06CE018E
:101260000E949C06DF91CF911F910F910C94100268
:10127000143041F0153009F43FC044C0CE010E9443
:10128000F3023AC069E084EC93E00E94572160E0E9
:1012900070E084EC93E00E940F146AE084EC93E029
:1012A0000E94572160E070E084EC93E00E940F14EC
:1012B00061E084EC93E00E94572160E070E084ECF0
:1012C00093E00E940F1462E084EC93E00E945721A7
:1012D00060E070E084EC93E00E940F1440E050E086
:1012E000BA018CE492E00E94AE1540E050E0BA01F1
:1012F00086E592E00E94AE15DF91CF911F910F918C
:101300000C941906DF91CF911F910F9108951092BF
:1013100045028CEA96E00E94F229181619065CF440
:1013200081E080934502109244028CEA96E00E948C
:101330000B2A8093D70108950E94EC270E94B12EBA
:1013400020E030E04AE754E40E94182E2091C201C8
:101350003091C3014091C4015091C5010E944D2DAF
:101360006093BE017093BF018093C0019093C1014F
:101370008091910390919203009711F00E94D41EE6
:101380000E94870988E792E00E94A4268DEA92E0F5
:101390000E94A42682EE92E00E94A42687E193E0B8
:1013A0000E94A42680914502882309F445C06091DB
:1013B000D7018091D901653561F481110AC080910E
:1013C000C6018F3FD9F481E08093DB018093D9017E
:1013D00015C06093C601882389F08091DB018230BB
:1013E00019F46093DA0107C0833028F09091DA0194
:1013F00091509093DA0190E00E9404028091DB0109
:101400008F5F843318F48093DB0104C01092DB01FA
:101410001092D9018091D901882371F08091DA016D
:1014200081110AC08091DB01843030F01092D90123
:101430000E940E091092DB0108951F920F920FB6C1
:101440000F9211242F933F934F935F936F937F934A
:101450008F939F93AF93BF93EF93FF938091E1039B
:1014600087FF05C010928500109284001AC0209159
:10147000E103332727FD30958091E00390E02817A2
:1014800039077CF48091E103992787FD9095FC0151
:10149000EE0FFF1FE80FF91FEE51FC4F808186FD14
:1014A00015C08091E1038F5F8093E1032091E103F8
:1014B000332727FD30958091E00390E02817390706
:1014C000BCF48091E1038C305CF112C08091E103A7
:1014D000992787FD9095FC01EE0FFF1FE80FF91F7C
:1014E000EE51FC4F808160E08F730E946729D9CF55
:1014F0008091840090918500049680349C4918F472
:1015000080E49CE905C08091840090918500049658
:1015100090938900809388008FEF8093E10338C017
:1015200020918400309185008091E103992787FD07
:101530009095FC01EE0FFF1FE80FF91FEE51FC4FD5
:1015400081819281820F931F9093890080938800FC
:101550008091E103992787FD9095FC01EE0FFF1F15
:10156000E80FF91FEE51FC4F808186FF11C080917A
:10157000E103992787FD9095FC01EE0FFF1FE80F0F
:10158000F91FEE51FC4F808161E08F730E94672943
:10159000FF91EF91BF91AF919F918F917F916F914B
:1015A0005F914F913F912F910F900FBE0F901F9021
:1015B00018952091E0032C30A0F431E0320F3093E5
:1015C000E003FC012083822F90E0FC01EE0FFF1F5F
:1015D000E80FF91FEE51FC4F88EB9BE0928381836B
:1015E00008952FEFFC0120830895DF92EF92FF9280
:1015F0000F931F93CF93DF93EC01D62E7A018901CD
:1016000088818C3008F066C061E08D2D0E942E2903
:101610008881A82FB0E0FD01EE0FFF1FEA0FFB1F2E
:10162000EE51FC4F2D2D2F739081907C922B908347
:1016300060E272E06E197F0977FF02C06D5F7F4F35
:101640007595679575956795698340E659E0401BE8
:10165000510B57FF02C04D5F5F4F5595479555950C
:1016600047954A836CE00E94D0319CE0899FB0018D
:10167000112420E030E0A901460F571FFA01EE0FB8
:10168000FF1FE40FF51FEE51FC4F908196FD16C031
:101690002F5F3F4F2C30310571F781110FC0109231
:1016A000800082E080938100109285001092840077
:1016B000B19A80916F00826080936F00888190E082
:1016C000FC01EE0FFF1FE80FF91FEE51FC4F808168
:1016D000806480838881DF91CF911F910F91FF906B
:1016E000EF90DF90089520E639E040E252E00C945C
:1016F000F50AFC0180818C3070F5918128E830E09A
:10170000291B310997FD3395220F331F220F331FF9
:10171000621773077CF0928128E532E0291B3109BA
:1017200097FD3395220F331F220F331F6217730764
:101730000CF49B0122503109220F331F4FB7F8944C
:1017400090E0FC01EE0FFF1FE80FF91FEE51FC4F78
:10175000328321834FBF08954F925F926F927F92A1
:10176000AF92BF92CF92DF92EF92FF920F931F93AF
:10177000CF93DF93EC01603282E078070CF040C039
:1017800077FD06C0653B71052CF064EB70E002C08C
:1017900060E070E0898128E830E0281B310987FD8E
:1017A0003395220F331F220F331F5901CC24B7FC6E
:1017B000C094DC2C882777FD8095982F2A8148E5F6
:1017C00052E0421B510927FD5395440F551F440F0A
:1017D000551F2A01662457FC6094762C7F926F92E5
:1017E0005F924F9214EBE12EF12C00E010E020E02C
:1017F00030E0A9010E944E2C0F900F900F900F9097
:10180000CE01DF91CF911F910F91FF90EF90DF906C
:10181000CF90BF90AF907F906F905F904F900C945F
:10182000790B8091360490E020913704821B910956
:1018300008952091370480913604281750F4E22F40
:10184000F0E0E85CFB4F808190E02F5F209337044D
:1018500008958FEF9FEF0895E0913704809136044B
:10186000E81730F4F0E0E85CFB4F808190E00895E9
:101870008FEF9FEF08950895CF92DF92EF92FF923E
:101880000F931F93CF93DF937C01CB018A012091AB
:101890001204222389F0EB016B01C40ED51ECC1576
:1018A000DD0569F06991D701ED91FC910190F0811E
:1018B000E02DC7010995F3CF642F0E949D0DC8014B
:1018C000DF91CF911F910F91FF90EF90DF90CF901C
:1018D0000895CF93DF931F92CDB7DEB76983209130
:1018E00012042223D1F020911304203240F021E091
:1018F00030E0FC013383228380E090E015C08091CA
:101900001404E82FF0E0EB5EFB4F998190838F5F2A
:10191000809314048093130405C061E0CE01019606
:101920000E949D0D81E090E00F90DF91CF9108958E
:10193000FC011382128248EE53E060E070E04483C1
:101940005583668377838DE391E091838083089547
:10195000109237041092360410921404109213045B
:101960000C94E80C862F413208F040E268E374E002
:101970000E94060D1092370480933604089521E0EA
:101980000C94B20C81E080931204609335041092A1
:1019900014041092130408950C94C20C0F93062F94
:1019A00021E04091130465E174E0809135040E94C8
:1019B0004A0D1092140410921304109212040F9105
:1019C000089561E00C94CE0C86E094E00C94980CA1
:1019D0001092C50481E08093C3041092C20461E0B8
:1019E00082E10E94672961E083E10E946729E9EBB7
:1019F000F0E080818E7F808380818D7F808388E48A
:101A00008093B80085E48093BC000895413208F0CB
:101A10003FC09091C5049111FCCF91E09093C50413
:101A20002093C3042FEF2093580410929D04240F99
:101A300020939C049093C4049091C404880F892B34
:101A40008093C4048091C204813041F41092C20496
:101A50008091C4048093BB0085EC01C085EE809327
:101A6000BC008091C5048130E1F380919D0484170E
:101A700010F440919D042EE934E0FB01D9018A2F36
:101A8000821B841718F48D918193F9CF842F0895C8
:101A900080E008950F93413208F046C09091C5044C
:101AA0009111FCCF92E09093C5040093C3049FEF83
:101AB0009093580410929D0440939C04FB016EE99E
:101AC00074E0DB019A2F961B941718F491919D9363
:101AD000F9CF1092C4049091C404880F892B80938D
:101AE000C4048091C204813041F41092C2048091F8
:101AF000C4048093BB0085EC01C085EE8093BC00DC
:101B0000222321F08091C5048230E1F380915804B2
:101B10008F3F61F080915804803251F080915804D9
:101B2000803341F483E007C081E005C080E003C05A
:101B300082E001C084E00F910895613298F4209111
:101B4000C504243089F460937A04FC018CE794E0A6
:101B5000DC012A2F281B261718F421912D93F9CF89
:101B600080E0089581E0089582E0089585ED8093F6
:101B7000BC008091BC0084FDFCCF1092C504089588
:101B800085EC8093BC001092C50408951F920F92BB
:101B90000FB60F9211242F933F934F935F936F9340
:101BA0007F938F939F93AF93BF93EF93FF93809116
:101BB000B900887F803609F49CC068F5883209F442
:101BC0005BC090F4803109F454C038F4882309F4E0
:101BD000F5C0883009F44DC0F5C0883109F44CC017
:101BE000803209F45DC0EEC0803409F468C048F466
:101BF000803309F455C0883309F0E4C08093580459
:101C0000A8C0803509F44FC0883509F45DC0883418
:101C100009F0D8C0D5C0883909F4C6C0A8F48837FF
:101C200009F467C038F4883609F463C0803709F4D2
:101C300060C0C8C0883809F4B7C0803909F45FC0F3
:101C4000803809F0BFC05BC0803B09F485C038F420
:101C5000803A09F466C0883A09F47EC0B3C0803C7B
:101C600009F4A6C0883C09F4A3C0883B09F489C0E4
:101C7000A9C08091C40410C090919D0480919C04DF
:101C8000981770F5E0919D0481E08E0F80939D047C
:101C9000F0E0E256FB4F80818093BB0085EC85C06D
:101CA000809358048DC0E0919D0481E08E0F809355
:101CB0009D048091BB00F0E0E256FB4F8083909141
:101CC0009D0480919C046DC0E0919D0481E08E0F85
:101CD00080939D048091BB00F0E0E256FB4F80832F
:101CE0008091C30481116CC081E08093C20484EAB6
:101CF00060C083E08093C50410925904CFCF8091D7
:101D00005904803208F050C0E091590481E08E0FF0
:101D1000809359048091BB00F0E0E65AFB4F80832A
:101D2000BDCF80915904803230F4E0915904F0E045
:101D3000E65AFB4F10820E94B60D6091590470E084
:101D4000E091BE04F091BF048AE594E009951092F9
:101D500059040E94C00D36C084E08093C5041092DF
:101D60007B0410927A04E091C004F091C1040995BB
:101D700080917A04811105C081E080937A041092E9
:101D80007C04E0917B0481E08E0F80937B04F0E083
:101D9000E458FB4F80818093BB0090917B0480913D
:101DA0007A04981708F47ACF85E88093BC000AC0BB
:101DB00085EC8093BC001092C50404C010925804B6
:101DC0000E94B60DFF91EF91BF91AF919F918F91BE
:101DD0007F916F915F914F913F912F910F900FBE27
:101DE0000F901F901895209108053091090528172C
:101DF0003907B9F49091C6048091C704981789F007
:101E0000E091C604F0E0E853FB4F80812091C604C6
:101E100030E02F5F3F4F2F7333272093C60490E0AD
:101E200008958FEF9FEF08951F93CF93DF93DC0109
:101E30005C968D919C915D97009749F481E090E0CC
:101E400013969C938E93129780E090E03BC051963E
:101E5000ED91FC91529750962C915097322F3095DE
:101E60001FB75E964C915E9741FB772770F941FD55
:101E70006095F8944081772311F0422B01C04323F1
:101E80004083EC012197F1F748E0508160FF02C0E8
:101E9000522B01C053235083EC012197F1F7669533
:101EA000415099F78081772311F0832301C0822B61
:101EB00080831FBF5C968D919C915D970197F1F790
:101EC00081E090E0DF91CF911F9108952091080566
:101ED000309109052817390781F49091C604809143
:101EE000C704981751F0E091C604F0E0E853FB4FA7
:101EF0008081992787FD909508958FEF9FEF089532
:101F000020910805309109052817390771F480914F
:101F1000C7042091C60490E0805C9F4F821B91090A
:101F200060E470E00E94F031089580E090E0089550
:101F300020910805309109052817390739F48FB722
:101F4000F8941092C7041092C6048FBF0895E091D0
:101F50000805F0910905E817F90769F4A389B48920
:101F60009C918589809589238C9310920905109204
:101F7000080581E0089580E00895CF93DF93EC0198
:101F80008A8D9B8D892BF1F0809108059091090530
:101F90008C179D07B9F0009711F00E94A70F8E8D46
:101FA0008E7F8E8F1092C7041092C604D0930905BD
:101FB000C0930805EB89FC8980819D89892B8083EA
:101FC00081E001C080E0DF91CF9108951F920F92D0
:101FD0000FB60F9211242F933F934F935F936F93FC
:101FE0007F938F939F93AF93BF93EF93FF93E09172
:101FF0000805F0910905309709F451C0868DA68532
:10200000B785958581FF04C08C91892329F447C049
:102010008C91892309F043C0A389B4899C91858957
:10202000809589238C93868997890197F1F7208D74
:10203000318DA685B785758558E040E0C9010197C7
:10204000F1F7842F90E095958795482F6C91672341
:1020500009F04068515091F7868D81FD409580913F
:10206000C70490E001968F7399272091C604281722
:1020700049F0A091C704B0E0A853BB4F4C938093A4
:10208000C70403C0868D8160868F828D938D0197F2
:10209000F1F7A389B4898C919589892B8C93FF9151
:1020A000EF91BF91AF919F918F917F916F915F91D0
:1020B0004F913F912F910F900FBE0F901F90189549
:1020C0002DE431E0FC01318320830C94A70F1F9392
:1020D000CF93DF93EC01162F6E8D6695617081E0D2
:1020E0006827812F0E94672961E0812F0E942E2995
:1020F000812F90E0FC01EC54FE4FE491E88BFC0151
:10210000E853FE4FE491F0E0EE0FFF1FEA51FE4F5F
:10211000859194919A8B898BDF91CF911F9108952E
:102120001F93CF93DF93EC01162F60E0812F0E9465
:102130002E298E8D81FD04C061E0812F0E946729C8
:102140001C87812F90E0FC01EC54FE4FE491ED8759
:10215000FC01E853FE4FE491F0E0EE0FFF1FE45264
:10216000FE4F859194919F878E87DF91CF911F912C
:102170000895FF920F931F93CF93DF93EC01F62EF8
:10218000522F1B821A8208EE13E020E030E00C830D
:102190001D832E833F838DE491E0998388831F8A7A
:1021A0001E8A198E188E1B8E1A8E1D8E1C8E8E8D79
:1021B0008E7F50FB81F98E8F642FCE010E946710B5
:1021C0006F2DCE01DF91CF911F910F91FF900C9455
:1021D0009010CF93DF93EC019A01AB011B8E1A8E06
:1021E000198E188E1F8A1E8A60E079E08DE390E0D8
:1021F0000E942632C9012430310520F0B901635014
:10220000710902C061E070E07D8F6C8FEC85E63172
:1022100008F068C0B901769567956431710518F0CA
:102220006351710902C061E070E07F8B6E8B06978D
:1022300018F0C901059702C081E090E0998F888F5E
:10224000C901880F991F820F931F969587959695C0
:1022500087958D30910510F00C9702C081E090E0D9
:102260009B8F8A8F20916800E83050F091E0EE302B
:1022700008F490E081E001C0880F9A95EAF701C068
:1022800084E0822B809368002C85283038F02E3033
:1022900040F0263148F48CE690E008C08DE690E0EE
:1022A00005C08BE690E002C080E090E09C8B8B8BB9
:1022B000283030F481E001C0880F2A95EAF70DC07C
:1022C000822F90E02E3010F4089701C00E9791E015
:1022D00001C0990F8A95EAF7892F8D8B8C8D9D8D82
:1022E0000197F1F7CE01DF91CF910C94BD0F0C94C3
:1022F000A70F0C94DE200F931F93CF93DF93EC0175
:10230000062F18E060E088850E94672900FF02C060
:1023100061E001C060E089850E946729069561E05F
:1023200088850E946729115069F760E088850E94BE
:10233000672961E089850E94672961E088850E949C
:10234000672960E089850E942E2918EC89850E9402
:102350009D29892B59F01150C9F761E089850E94A8
:102360002E2960E089850E946729EFCF61E0898589
:10237000DF91CF911F910F910C942E29CF93DF9372
:10238000EC0161E088850E94672961E089850E94EF
:10239000672960E089850E94672960E08885DF9170
:1023A000CF910C946729CF93DF93EC0160E088858F
:1023B0000E94672960E089850E94672961E088851D
:1023C0000E94672961E08985DF91CF910C9467298C
:1023D000CF92DF92FF920F931F93CF93DF931F92C1
:1023E000CDB7DEB76C01F62E79830E94BE1160E492
:1023F000C6010E947B11C6010E94D311C6010E9432
:10240000BE11F6016581C6010E947B110F2D7981F5
:10241000172F84E0F82EF80161918F01C6010E9408
:102420007B11FA94C1F7C6010E94D311C6010E9424
:10243000BE11F6016681C6010E947B11C6010F9094
:10244000DF91CF911F910F91FF90DF90CF900C946F
:10245000D3114F925F926F927F928F929F92AF9221
:10246000BF92CF92DF92EF92FF920F931F93CF9381
:10247000DF9300D000D0CDB7DEB76A017B018901C0
:1024800037FD48C0B9016F5F7F4F882777FD809582
:10249000982F0E94B32E9B01AC0160E070E080E2B7
:1024A00091E40E9449304B015C019B01AC01C701E2
:1024B000B6010E94182E0E94EE2E2B013C01B8019D
:1024C000882777FD8095982F0E94B32E9B01AC0141
:1024D00060E070E080E291E40E94493069837A8391
:1024E0008B839C83A5019401C301B2010E94E62F56
:1024F0009B01AC01C701B6010E944D2D29813A8193
:102500004B815C810E94182E0E94EE2E0E94802E2C
:10251000CB011FC088249924821A930AA12CB12CC4
:1025200020E030E040E251E4C701B6010E94E62F0E
:102530006B017C018FEFA81AB80AA814B90484F3C0
:10254000C701B6010E94802ECB016AE070E00E94B4
:10255000F0310F900F900F900F90DF91CF911F915E
:102560000F91FF90EF90DF90CF90BF90AF909F9032
:102570008F907F906F905F904F900895DB0180E087
:1025800090E22C91223208F09C93EC91F0E0E2581A
:10259000FE4FE491ED938F5F843099F70895EF92A9
:1025A000FF920F931F93CF93DF9300D000D0CDB74E
:1025B000DEB78C01DB01FE013196CE0105967F016D
:1025C0002D912193E817F907D9F7B701C8010E94A7
:1025D000BE12B701C8010E94E8110F900F900F9032
:1025E0000F90DF91CF911F910F91FF90EF90089581
:1025F000CF93DF9300D000D0CDB7DEB720E22983A0
:102600002A832B832C83BE016F5F7F4F0E94CF12E2
:102610000F900F900F900F90DF91CF910895CF936F
:10262000DF93EC016A83E62FF0E0EE0FFF1FE65E1A
:10263000FE4F81818983908198838887998761E0A3
:102640000E942E2961E089850E942E2980E48C83D6
:1026500080EC8D838AE88E83CE01DF91CF910C943C
:10266000F8128F929F92AF92BF92CF92DF92EF9229
:10267000FF920F931F93CF93DF9300D000D0CDB77D
:10268000DEB75C016A017B0119821A821B821C82FF
:1026900020E030E0A901C701B6010E94142E87FF97
:1026A00009C0F7FAF094F7F8F09481E2898399244D
:1026B000939401C0912C03E010E0812C9801B701A4
:1026C000A601C5010E942912181619062CF0002334
:1026D00019F08820B9F00CC001110AC0E1E0F0E067
:1026E000EC0FFD1FE90DF11D20E1280F208307C02D
:1026F000E1E0F0E0EC0FFD1FE90DF11D8083939404
:102700008824839483E0891530F0015011090C3F2F
:102710008FEF180799F6BE016F5F7F4FC5010E94CA
:10272000CF120F900F900F900F90DF91CF911F91CC
:102730000F91FF90EF90DF90CF90BF90AF909F9060
:102740008F9008950E94DE2088E080930A05089506
:102750004F925F926F927F928F929F92AF92BF92B1
:10276000CF92DF92EF92FF920F931F93CF93DF935D
:102770006801790160930A059A0140E050E060E445
:1027800072E48FE090E00E942632F901E90137FD02
:102790002196D595C795A8EEB3E0A70196010E94B2
:1027A0005A324B015C01C12CD12C76012F016624D9
:1027B00057FC6094762CC814D904EA04FB04A8F4EE
:1027C00061E080910A050E946729CE010E9443289A
:1027D00060E080910A050E946729CE010E9443288B
:1027E000C40CD51CE61CF71CE6CFDF91CF911F91DE
:1027F0000F91FF90EF90DF90CF90BF90AF909F90A0
:102800008F907F906F905F904F900895862F609388
:102810000A0560E00C94672960E00C94E7200F93B0
:102820001F93CF93DF938C016F3F710519F014F064
:102830006FEF70E0EB0161308FEF780714F4C1E0C7
:10284000DFEFD7FD06C061E0C8010E943B21BE0159
:1028500008C060E0C8010E943B21662777276C1BF7
:102860007D0BC801DF91CF911F910F910C945321E3
:102870004F925F926F927F928F929F92AF92BF9290
:10288000CF92DF92EF92FF920F931F93CF93DF933C
:1028900000D000D0CDB7DEB7FC01C982DA82EB826E
:1028A000FC8295EA90832183C2828A8183838B8113
:1028B00084838C81858346015701CF0106963801B8
:1028C000C12CD12C7601C814D904EA04FB0461F0B0
:1028D000D3012D913D01DC012D93CD01BFEFCB1A2A
:1028E000DB0AEB0AFB0AEFCF2401350126E0420E9A
:1028F000511C611C711CD801C12CD12C760180E0C7
:10290000C814D904EA04FB0441F09D9189279FEF84
:10291000C91AD90AE90AF90AF3CFDF01A40DB51DD6
:102920008C9397018601085F1F4F2F4F3F4FA7E001
:10293000CA0ED11CE11CF11CEC0DFD1D8AE5808343
:10294000401751076207730728F460E070E080E0E9
:1029500090E002C0B801C9010F900F900F900F9046
:10296000DF91CF911F910F91FF90EF90DF90CF906B
:10297000BF90AF909F908F907F906F905F904F909F
:1029800008951F93CF93DF93EC01162F60E00E9410
:10299000E72011501C8389E08D83DF91CF911F9137
:1029A0000895CF93DF93EC0160E00E94E7201C8242
:1029B00089E08D83DF91CF9108958BE095E00C94B1
:1029C000F01A8BE095E00C94191BAF92BF92CF9256
:1029D000DF92EF92FF920F931F93CF93DF93EC015F
:1029E0006B017A0159016D8186E094E00E94C20C6E
:1029F000A501B60186E094E00E943C0C86E094E0DC
:102A00000E94E10C82E090E00E9443286D8170E01A
:102A1000A80186E094E00E94BF0C82E090E00E9452
:102A20004328C0E086E094E00E94110C892B51F00D
:102A300086E094E00E94190CF701EC0FF11D8083F1
:102A4000CF5FF0CFDF91CF911F910F91FF90EF906B
:102A5000DF90CF90BF90AF9008956F927F928F924A
:102A60009F92AF92BF92CF92DF92EF92FF920F931D
:102A70001F93CF93DF93CDB7DEB768970FB6F89467
:102A8000DEBF0FBECDBF3C018AE04E012BE0820EBF
:102A9000911CF401282F11922A95E9F7FE01319635
:102AA0005F0111928A95E9F7F30184818F8B87E0AA
:102AB000888F82E0C82ED12CE12CF12C8E01095E8A
:102AC0001F4F21E04AE050E060E070E0C4010E9446
:102AD00038140AE010E02AE030E0A501B401C30197
:102AE0000E94E5142AE030E040E050E0B5018BE0C0
:102AF00095E00E94521B1E8A1D8A22E030E040E0D1
:102B000050E0BE016B5E7F4F8BE095E00E94651D3B
:102B100081E09E89911101C080E068960FB6F8941B
:102B2000DEBF0FBECDBFDF91CF911F910F91FF9000
:102B3000EF90DF90CF90BF90AF909F908F907F905D
:102B40006F900895CF93DF93EC0186E094E00E94AC
:102B5000A80CCE01DF91CF910C942D156F927F922E
:102B60008F929F92AF92BF92CF92DF92EF92FF929D
:102B70000F931F93CF93DF93CDB7DEB76E970FB64A
:102B8000F894DEBF0FBECDBF3C016A017B0120E09F
:102B900030E04FE753E4C701B6010E94DB2F18165F
:102BA0008CF020E030E04FE753ECC701B6010E9403
:102BB000142E87FF0DC0C12CD12C5FE7E52E53ECFE
:102BC000F52E06C0C12CD12C6FE7E62E63E4F62E5D
:102BD000CE0101964C018EE0F40111928A95E9F73D
:102BE0005E01FFE0AF0EB11C8AE0F50111928A95FB
:102BF000E9F78E01075E1F4F86E0F80111928A9572
:102C0000E9F7F3018481898F85E08A8FCB8EDC8E92
:102C1000ED8EFE8E46E0C42ED12CE12CF12C21E06D
:102C20004EE050E060E070E0C4010E9438140AE019
:102C300010E02EE030E0A501B401C3010E94E514CC
:102C40002AE030E040E050E0B5018BE095E00E94E2
:102C5000521B8BE095E00E94F61B80E06E960FB64B
:102C6000F894DEBF0FBECDBFDF91CF911F910F91C2
:102C7000FF90EF90DF90CF90BF90AF909F908F909C
:102C80007F906F9008952F923F924F925F926F9234
:102C90007F928F929F92AF92BF92CF92DF92EF92EC
:102CA000FF920F931F93CF93DF93CDB7DEB7A89713
:102CB0000FB6F894DEBF0FBECDBF4C011A012B0139
:102CC0006801790120E030E04FE753E4C701B60125
:102CD0000E94DB2F18168CF020E030E04FE753EC19
:102CE000C701B6010E94142E87FF0DC0C12CD12C44
:102CF000EFE7EE2EE3ECFE2E06C0C12CD12CFFE751
:102D0000EF2EF3E4FF2E20E030E0A901C201B10173
:102D10000E94142E811106C0B701A601C4010E94B1
:102D2000AE155BC0CE0101963C0182E1F301119228
:102D30008A95E9F78AE05E01FDE1AF0EB11CF5016D
:102D4000982F11929A95E9F78E010D5E1F4FF801A9
:102D500011928A95E9F7F40184818B8B81E18C8B48
:102D60002D8A3E8A4F8A588EC98EDA8EEB8EFC8E63
:102D70007AE0C72ED12CE12CF12C21E042E150E089
:102D800060E070E0C3010E9438140AE010E022E124
:102D900030E0A501B301C4010E94E5142AE030E04F
:102DA00040E050E0B5018BE095E00E94521B8BE0C3
:102DB00095E00E94F61B18A61FA222E030E040E03A
:102DC00050E0BE01695D7F4F8BE095E00E94651D7C
:102DD00081E098A5911101C080E0A8960FB6F89403
:102DE000DEBF0FBECDBFDF91CF911F910F91FF903E
:102DF000EF90DF90CF90BF90AF909F908F907F909B
:102E00006F905F904F903F902F90089560E00C94EA
:102E1000E720CF93DF93EC016093270640932606CB
:102E20008091270660E00E942E29809126068883E3
:102E3000809127068983DF91CF9108950C944B21CF
:102E400060E00C94E720CF93DF93EC0160932906B8
:102E5000409328068091290660E00E942E298091E7
:102E600028068883809129068983DF91CF91089570
:102E70000C944B21CF93DF93EC0160E00E94E7209C
:102E8000C05CDF4F88E68883DF91CF910895FC0115
:102E900060857185828593850895FC0164857585BB
:102EA000868597850895FC01608971898289938957
:102EB0000895EF92FF920F931F93CF93DF93C62F46
:102EC0008A01E22E68E686E094E00E94C20C6C2F34
:102ED00086E094E00E94690C813001F560E086E0B4
:102EE00094E00E94CE0C81112EC081E090E00E94FF
:102EF000432821E04E2D68E686E094E00E94B20C63
:102F0000E80100E010E0F12C86E094E00E94110C52
:102F1000892B31F00E151F0574F002C08FEF13C01E
:102F200081E090E00E94432881E00E151F0509F41E
:102F300080E0819508C00F5F1F4F86E094E00E94FB
:102F4000190C8993E1CFDF91CF911F910F91FF90E1
:102F5000EF9008954F925F926F927F928F929F921F
:102F6000AF92BF92CF92DF92EF92FF920F931F9397
:102F7000CF93DF93CDB7DEB72C970FB6F894DEBFB3
:102F80000FBECDBF8C01AC014E5C5F4F2EE06BE3FA
:102F90000E9459178111C5C1F801A2A8B12CBA2C01
:102FA000AA2483A9A82AB1A2A0A2E4A8F12CFE2CED
:102FB000EE2485A9E82AF3A2E2A286A8912C982CF7
:102FC000882487A9882A95A284A244805580668097
:102FD000778062AD70E0762F662783AD682B8827F7
:102FE00077FD8095982F0E94B32EF80126A137A176
:102FF00040A551A50E944D2DA30192010E94182EBB
:10300000F801648B758B868B978B64AD70E0762F9F
:10301000662785AD682B882777FD8095982F0E94BD
:10302000B32EF80122A533A544A555A50E944D2D28
:10303000A30192010E94182EF801608F718F828F78
:10304000938F66AD70E0762F662787AD682B882753
:1030500077FD8095982F0E94B32EF80126A537A5FD
:1030600040A951A90E944D2DA30192010E94182E42
:10307000F801648F758F868F978FB701882777FD4A
:103080008095982F0E94B32E6B017C01B401882794
:1030900077FD8095982F0E94B32E9B01AC010E9472
:1030A000E62F2B013C01A7019601C701B6010E9442
:1030B000E62FA30192010E944E2D0E9499309B01A0
:1030C000AC01B501882777FD8095982F29873A872D
:1030D0004B875C870E94B32E4B015C0129853A85A2
:1030E0004B855C850E94C12D20E030E044E353E431
:1030F0000E94E62F2AED3FE049E450E40E94182E9A
:1031000069837A838B839C83A5019401C501B401F3
:103110000E94E62FA30192010E944E2D0E94993039
:103120009B01AC01C701B6010E94C12D20E030E037
:1031300044E353E40E94E62F2AED3FE049E450E4E3
:103140000E94182E6D837E838F8398870E94EC27C0
:10315000C0902A06D0902B06E0902C06F0902D0609
:103160006C197D098E099F090E94B12E20E030E084
:103170004AE754E40E94182E6B017C010E94EC2760
:1031800060932A0670932B0680932C0690932D064D
:10319000F80184A195A11816190644F5208D318DEA
:1031A000428D538DC701B6010E94E62F9B01AC01F1
:1031B000F80160857185828593850E944D2DF80107
:1031C00060877187828793872489358946895789E3
:1031D000C701B6010E94E62F9B01AC01F80164858E
:1031E0007585868597850E944E2D28C0F801208D13
:1031F000318D428D538DC701B6010E94E62F9B0190
:10320000AC01F80160857185828593850E944E2D01
:10321000F801608771878287938724893589468979
:103220005789C701B6010E94E62F9B01AC01F80146
:1032300064857585868597850E944D2DF801648784
:10324000758786879787F801248D358D468D578D34
:10325000C701B6010E94E62F9B01AC01F80160890D
:103260007189828993890E944E2DF801608B718B40
:10327000828B938B20E030E040E05FE3C701B60132
:103280000E944E2D9B01AC0160E070E080E09FE366
:103290000E94182E6B017C019B01AC0160E070E084
:1032A00080E89FE30E944D2D4B015C01F8012085D1
:1032B000318542855385C701B6010E94E62F2B0157
:1032C0003C01A501940169817A818B819C810E94D6
:1032D000E62F9B01AC01C301B2010E944E2DF80103
:1032E00060877187828793872485358546855785D2
:1032F000C701B6010E94E62F6B017C01A501940174
:103300006D817E818F8198850E94E62F9B01AC01A3
:10331000C701B6010E944E2DF80164877587868724
:1033200097872C960FB6F894DEBF0FBECDBFDF9106
:10333000CF911F910F91FF90EF90DF90CF90BF90B2
:10334000AF909F908F907F906F905F904F90089577
:103350002F923F924F925F926F927F928F929F92A5
:10336000AF92BF92CF92DF92EF92FF920F931F9393
:10337000CF93DF9300D000D0CDB7DEB71C0104EFB0
:1033800011E0812C912C5401412C512C32011982D5
:103390001A821B821C827C0122E3E20EF11C26E0D1
:1033A000A70163E4C1010E945917F10182A990E0CD
:1033B000982F882723A9822BAA2797FDA095BA2F9B
:1033C00029813A814B815C81280F391F4A1F5B1F7D
:1033D00029833A834B835C8384A990E0982F8827C4
:1033E00025A9822BAA2797FDA095BA2F480E591E12
:1033F0006A1E7B1E86A990E0982F882727A9822B1A
:10340000AA2797FDA095BA2F880E991EAA1EBB1E4B
:103410000150110921F664EFC62EDD24D394E12C6E
:10342000F12C69817A818B819C81A70196010E9490
:103430002632CA01B9010E94B32EF10166A377A317
:1034400080A791A7C301B201A70196010E9426326D
:10345000CA01B9010E94B32EF10162A773A784A724
:1034600095A7C501B401A70196010E942632CA01A1
:10347000B9010E94B32EF10166A777A780AB91AB8B
:103480000F900F900F900F90DF91CF911F910F91A0
:10349000FF90EF90DF90CF90BF90AF909F908F9074
:1034A0007F906F905F904F903F902F900895EF9294
:1034B000FF921F93CF93DF931F92CDB7DEB7162FE6
:1034C0007A0168E670E086E094E029830E94CC0CE3
:1034D000612F86E094E00E94690C2981813091F48B
:1034E000422F50E0B70186E094E00E943C0C61E07E
:1034F00086E094E00F90DF91CF911F91FF90EF90C5
:103500000C94CE0C8FEF0F90DF91CF911F91FF9015
:10351000EF900895CF93DF931F92CDB7DEB7498325
:1035200021E0AE014F5F5F4F0E94571A0F90DF916D
:10353000CF910895CF93DF93EC0140E050E063E832
:1035400072E44C835D836E837F83188619861A86A6
:103550001B861C861D861E861F86188A198A1A8A53
:103560001B8A1C8A1D8A1E8A1F8A188E198E1A8E23
:103570001B8E1C8E1D8E1E8E1F8E19A218A21BA2C2
:103580001AA21DA21CA21EA21FA218A619A61AA644
:103590001BA61CA61DA61EA61FA618AA19AA86E071
:1035A00094E00E94A80C60E273E080E090E00E944A
:1035B0001B2840E06BE670E0CE010E948A1A41E0D1
:1035C0006AE170E0CE010E948A1A48E06BE170E087
:1035D000CE010E948A1ACE01DF91CF910C94A819D6
:1035E00021E030E0FC0131832083EE5FFE4F10824A
:1035F00011821282138234961082118212821382F7
:103600003496108231961082319610821182128285
:103610001382349611821082329610823196108273
:1036200011821282138234961082118212821382C6
:1036300008950895CF92DF92EF92FF920F931F9318
:10364000CF93C62FFC01EE5FFE4F008111812281D6
:103650003381B901A8014F5F5F4F6F4F7F4F5527EF
:1036600066277727DC01AA5FBE4FCD90DD90ED90F5
:10367000FC904C155D056E057F0559F0DC01A00F2F
:10368000B11F1296CC93408351836283738381E090
:1036900001C080E0CF911F910F91FF90EF90DF90DC
:1036A000CF900895AF92BF92CF92DF92EF92FF92A8
:1036B0000F931F93CF93DF9300D000D0CDB7DEB729
:1036C0005C01FC01EE5FFE4FC080D180E280F380A0
:1036D0008FEFC80ED11CE11CF11C349680819181C2
:1036E000A281B381C81AD90AEA0AFB0ADD24EE24B2
:1036F000FF24C216D306E406F50628F08B01C12C80
:10370000D12C760102C080E019C0C216D306E406AF
:10371000F506A1F0F80161918F01C50129833A8373
:103720004B835C830E941A1BFFEFCF1ADF0AEF0A5C
:10373000FF0A5C814B813A812981E7CF0F900F907E
:103740000F900F90DF91CF911F910F91FF90EF900D
:10375000DF90CF90BF90AF9008950F931F93CF93BA
:10376000DF93DB01FC01EA5FFE4F40815181628102
:103770007381EC01CE5FDE4F088119812A813B8184
:103780000417150726073707A9F0EC01C40FD51F4A
:103790008A818C9380819181A281B3810196A11D40
:1037A000B11D9927AA27BB2780839183A283B38366
:1037B00081E001C080E0DF91CF911F910F910895CA
:1037C0000F931F93FC0100E010E0980180E00417C4
:1037D00015072607370739F0919189270F5F1F4F8B
:1037E0002F4F3F4FF4CF1F910F9108952F923F928B
:1037F0004F925F926F927F928F929F92AF92BF9201
:10380000CF92DF92EF92FF920F931F93CF93DF93AC
:1038100000D000D000D0CDB7DEB78C0119827C017A
:103820008DEEE81A8EEFF80A18019EEE291A9EEF27
:10383000390A4801A0EF8A1AAEEF9A0A5801B4EF8C
:10384000AB1ABEEFBB0A6801E9EECE1AEEEFDE0A54
:10385000C801855F9E4F9B838A83D801A65FBE4FB8
:10386000BD83AC83BE016F5F7F4FC8010E94AD1B5B
:10387000F801882309F40FC180819181833091057B
:10388000F9F064F48130910591F0029759F789813C
:10389000EA81FB81808383E090E00EC08530910552
:1038A00009F48FC07CF1069709F4C7C0DBCF89818A
:1038B000853AC1F682E090E0D8018D939C93D2CFF7
:1038C000F70180819181800F911FFC01E45FFE4F21
:1038D00029812083F70180819181A281B3810196A2
:1038E000A11DB11D80839183A283B3830497A10599
:1038F000B10509F0B7CF108211821282138284E0E1
:1039000090E05BC0D6014D905D906D907C9041142D
:1039100051046104710459F5F50180819181A281FE
:10392000B3818F3F9105A105B10539F030F081E0F9
:1039300090E0D8018D939C9364C001960E946532FB
:10394000D4018D939C93892B91F481E090E0F80150
:1039500091838083D6011D921D921D921C92139714
:10396000F7011082118212821382D50189C08981E8
:10397000D401ED91FC91E40DF51D8083F601808169
:103980009181A281B3810196A11DB11D8083918394
:10399000A283B383F50140815181628173818417D1
:1039A0009507A607B70709F05DCFD6011D921D92B6
:1039B0001D921C92139785E090E0F801918380831B
:1039C00051CF2981D1012C93F40160807180D50100
:1039D0004D915D916D917C91C3012E830E94E01BFE
:1039E0002E81281721F181E090E0F80191838083F6
:1039F0006114710431F0C3010E94FD32D4011D92A3
:103A00001C92F6011082118212821382D7011D923C
:103A10001D921D921C921397F50110821182128241
:103A20001382AA81BB811C92F10110821BCFE6E0B8
:103A3000F0E0D801ED93FC9315CF89818A3589F0A8
:103A4000D4018D919C91009729F00E94FD32F401E0
:103A500011821082D5011D921D921D921C92139706
:103A600004C081E0EC81FD81808381E090E0D80199
:103A70008D939C93F6011082118212821382D701DA
:103A80001D921D921D921C921397EA81FB81108258
:103A9000D1011C92E7CE808126960FB6F894DEBF46
:103AA0000FBECDBFDF91CF911F910F91FF90EF908F
:103AB000DF90CF90BF90AF909F908F907F906F904E
:103AC0005F904F903F902F900895BF92CF92DF92DA
:103AD000EF92FF920F931F93CF93DF93EC01CB01F3
:103AE0008E01045F1E4FF801C080D180E280F38018
:103AF000C216D306E406F50618F4BC2C5D2D02C0F0
:103B0000B22E532F7E01F0EFEF1AFEEFFF0AF701FE
:103B10006081718161157105B9F00097A9F04B2D95
:103B20000E945634F701808191810E94FD32F70195
:103B300011821082F8011082118212821382C65FF4
:103B4000DE4F18828B2D01C080E0DF91CF911F9155
:103B50000F91FF90EF90DF90CF90BF90089560E0BD
:103B60000C94E7204F925F926F927F928F929F9278
:103B7000AF92BF92CF92DF92EF92FF920F931F937B
:103B8000CF93DF9300D000D01F92CDB7DEB78C016A
:103B9000CE0101966C0185E0F60111928A95E9F754
:103BA00060E0C8010E943B2164E170E080E090E0A9
:103BB0000E941B2861E0C8010E943B2188E290E03E
:103BC0000E94432860E0C8010E943B210E94EC272C
:103BD0004B015C0160E0C8010E941A2181110EC0F6
:103BE0000E94EC27681979098A099B0963307105DD
:103BF0008105910578F3F801148215820E94EC2763
:103C00004B015C0160E0C8010E941A21882359F031
:103C10000E94EC27681979098A099B0963307105AC
:103C20008105910578F3E12CF12C0E94EC274B01E2
:103C30005C0160E0C8010E941A2181110BC00E9442
:103C4000EC27681979098A099B0963307105810598
:103C5000910578F30E94F8274B015C010E94EC2744
:103C60002B013C0160E0C8010E941A21882359F011
:103C70000E94EC276419750986099709633071055C
:103C80008105910578F30E94F827681979098A0956
:103C90009B09F70123E0F595E7952A95E1F769324D
:103CA00071058105910530F0EC0DFD1D8081880FB7
:103CB000816004C0EC0DFD1D8081880F8083FFEFC3
:103CC000EF1AFF0A88E2E816F10409F0AECF598135
:103CD0004B81842F90E0850F911D2D8130E082175C
:103CE000930719F4F801548345830F900F900F90B8
:103CF0000F900F90DF91CF911F910F91FF90EF9058
:103D0000DF90CF90BF90AF909F908F907F906F90FB
:103D10005F904F900895FC01611102C08481089565
:103D200085810895CF93DF93EC010E949C228DE55D
:103D300091E09983888388A180932F068F8D80934B
:103D40002E06DF91CF910895CF93DF93EC0140E8E9
:103D500055E260E070E00E94D72260E08F8DDF9135
:103D6000CF910C942E291F93CF93DF93EC018BA15D
:103D7000882319F0CE010E94052360E0CE014F9602
:103D80000E940921182F8BA1882319F0CE010E94CF
:103D9000A41E81E08127DF91CF911F9108958A5859
:103DA0009F4FFC0180810895CF93DF93EC010E9427
:103DB000B31E8823A1F0CE010E946A2318161906AB
:103DC0008CF4E881F9810680F781E02DCE01099518
:103DD0008F3F91053CF4CA58DF4F888303C0CA580F
:103DE000DF4F1882DF91CF9108950E9450239927C9
:103DF00008951F920F920FB60F9211242F933F93A5
:103E00004F935F936F937F938F939F93AF93BF93E2
:103E1000EF93FF9382E00E949D2920913606309116
:103E200037062F5F3F4F3093370620933606909129
:103E30009C06943618F095E09093310690913106E7
:103E4000933071F018F4923031F046C09430F9F0AC
:103E50009530E1F141C081113FC010929C0627C00E
:103E60008130D1F5E0919C068E0F80939C06F0E0A6
:103E70008091360690913706E05DF94F8087109269
:103E800037061092360684E08093310625C08111F2
:103E900014C0E0919C0681E08E0F80939C06F0E0B8
:103EA0008091360690913706E05DF94F8087109239
:103EB00037061092360683E0E7CF80913606909160
:103EC00037068536910540F085E0DECF811104C0CC
:103ED0001092370610923606FF91EF91BF91AF9185
:103EE0009F918F917F916F915F914F913F912F9112
:103EF0000F900FBE0F901F90189560E00C94E72074
:103F0000613049F40E944B218A5E914020919F06C6
:103F10003091A0060AC0623059F40E944F218A5E97
:103F2000914020919D0630919E06820F931F089527
:103F300080E090E00895089570E0FB01EC54FE4F9E
:103F4000E491DC01EC93FB01E853FE4FE491F0E0D7
:103F5000EE0FFF1FE452FE4F25913491FC01328396
:103F6000218308951F93CF93DF93FC011081C181BA
:103F7000D2819981812F8095892389838A81812BA0
:103F80008A838AE090E00E9443289881912381E00F
:103F900009F480E0DF91CF911F910895FF920F9374
:103FA0001F93CF93DF93FC011081C181D281F894DC
:103FB0008981F12EF0948F2189838A81812B8A83D4
:103FC00078940DE7015041F182E090E00E9443288F
:103FD00088818123B9F3F8948A818F218A8389812A
:103FE000812B8983789480EE91E00E944328F89495
:103FF00089818F2189838A81812B8A8386E490E05D
:104000000E9443288881812301E009F000E0789430
:104010008AE991E00E944328802FDF91CF911F9180
:104020000F91FF9008951F93CF93DF93FC011081B0
:10403000C181D281912F909560FF12C0F8948A813E
:1040400089238A838981812B89838AE090E00E9479
:1040500043288A81812B8A83789487E390E011C07A
:10406000F8948A8189238A838981812B898381E4D9
:1040700090E00E9443288A81812B8A83789485E08E
:1040800090E0DF91CF911F910C9443280F931F93E1
:10409000CF93DF93FC011081C181D281F894898193
:1040A000812B89838A81012F009580238A8383E075
:1040B00090E00E9443288981802389838A81812B13
:1040C0008A838AE090E00E944328C881789485E33F
:1040D00090E00E9443281C2381E009F480E0DF91F6
:1040E000CF911F910F910895CF92DF92EF92FF929F
:1040F0000F931F93CF93DF931F92CDB7DEB76C0161
:10410000E62E08E010E0FF24F39461E09F2D9E214D
:1041100009F460E0C60149830E941320FF0C01509E
:10412000110949810115110581F741111DC0F8944C
:10413000D6011196ED91FC91129791818C91809509
:10414000892381831196ED91FC91129782819C9134
:10415000892B82831196ED91FC91129792818C911B
:1041600080958923828378940F90DF91CF911F915E
:104170000F91FF90EF90DF90CF900895EF92FF9214
:104180000F931F93CF93DF938C01C8E0D0E0F12C05
:10419000EE24E394C8010E9446208111FE28EE0C13
:1041A0002197C1F78F2DDF91CF911F910F91FF9034
:1041B000EF90089540E06CEC0C947420FC01809129
:1041C0001A01808380911B01818312820895DC0192
:1041D000E62FF0E0EE0FFF1FE65EFE4F80818C932E
:1041E000818111968C93119712966C9381E0809344
:1041F00080008BE08093810083E08093B00084E0B6
:104200008093B1000895FC0182810895FC018381AF
:104210000895CF93DF93EC0188810E942E29888135
:104220000E949D2921E0892B09F420E0822FDF9153
:10423000CF910895CF93DF93EC0189810E942E29BD
:1042400089810E949D2921E0892B09F420E0822F99
:10425000DF91CF9108951F93CF93DF93EC01162F39
:1042600061E088810E942E29612F8881DF91CF91A2
:104270001F910C9467291F93CF93DF93EC01162FA6
:1042800061E089810E942E29612F8981DF91CF9180
:104290001F910C946729FC0180810C948928FC01F2
:1042A00081810C948928FC0180810C94A628DC0172
:1042B000E62FF0E0EE0FFF1FE65EFE4F80818C934D
:1042C000818111968C93119712966C930895DC015D
:1042D000E62FF0E0EE0FFF1FE65EFE4F80818C932D
:1042E000818111968C93119712966C931297139665
:1042F0004C930895FC0180810895FC01818108950B
:10430000DC0112966C931297E62FF0E0EE0FFF1F80
:10431000E65EFE4F918111969C93119780818C935C
:104320004230D9F4292F30E0F901EC54FE4FE491EA
:104330001C96EC931C97F901E853FE4FE491F0E0D2
:10434000EE0FFF1FEA51FE4F2591349119963C93D1
:104350002E93189761E0892F19C0282F30E0F901BA
:10436000EC54FE4FE4911C96EC931C97F901E85332
:10437000FE4FE491F0E0EE0FFF1FEA51FE4F259152
:10438000349119963C932E93189761E00C942E2942
:10439000CF93DF93EC01262F30E03D832C8323E085
:1043A000629FC00111240E9465329F838E83892BF6
:1043B00021F489E691E00E94663480E090E04C812F
:1043C0005D819A01220F331F240F351F8217930737
:1043D00038F4EE81FF81E80FF91F10820196EFCFCC
:1043E000DF91CF910895CF93DF93EC010E94DE20FF
:1043F00060E2CE01DF91CF910C94C8210F93FC01B4
:10440000A62FB0E084819581A817B907B8F4862F4C
:10441000880F860F90E0A681B781A80FB91F2C9353
:10442000A681B781A80FB91F11964C930680F7811A
:10443000E02DE80FF91F028381E001C080E00F91B9
:104440000895CF92DF92EF92FF920F931F93CF9335
:10445000DF937C01142FD22EC02E611113C0C0E057
:10446000D0E0F70184819581C817D90748F40C2D55
:104470002D2D412F6C2FC7010E94FE212196F1CFD7
:1044800081E004C061500E94FE2180E0DF91CF9165
:104490001F910F91FF90EF90DF90CF9008950F93B1
:1044A000022F242F462F60E00E9421220F910895B1
:1044B0000F931F93D8013FB7F8949C91822F80955A
:1044C0008923292BFB01460F571FE417F50781F0BD
:1044D000919168E02C9300C097FF8C93990F00C0D6
:1044E00000C000C008F48C9300C06A9599F7EDCF26
:1044F0003FBF1F910F9108950F931F93FC010085FB
:10450000118524813581A901440F551F420F531F86
:104510006681778124850E9458221F910F9108950A
:10452000CF93DF93EC018E819F810E94FD321F8229
:104530001E82DF91CF910895FF920F931F93CF9327
:10454000DF93EC01F62E8C01015E1F4FC8010E9423
:10455000E720EF2DF0E0EE0FFF1FE65EFE4F20E0BC
:1045600040816181CE010E94B9108BE891E099836E
:1045700088836FEA71E0CE0182599F4F0E94032D1C
:104580001DA21BA21CA288A18093A2068F8D8093DE
:10459000A106C8010E94032191E0853009F090E056
:1045A0009BA3DF91CF911F910F91FF900895CF9220
:1045B000DF92EF92FF92CF93DF93EC016A017B01D0
:1045C00060E472E48FE090E0A70196010E94263239
:1045D0003FA32EA38BA1882369F026E0B701A60193
:1045E0008CEA96E0DF91CF91FF90EF90DF90CF9033
:1045F0000C94D52AB701A601CE01DF91CF91FF908F
:10460000EF90DF90CF900C94E910FC0123A12223BE
:1046100021F08CEA96E00C94372B0C947711EF92F2
:10462000FF920F931F93CF93DF93FC01C6A1D7A1F5
:1046300023978091A2060E949D29892BF1F400E026
:1046400010E0E12CF12CCE010E9443288091A206BB
:104650000E949D29002E02C0880F991F0A94E2F73C
:10466000E82AF92A0F5F1F4F0830110561F7CE01C4
:104670000E944328C701992702C08FEF9FEFDF9167
:10468000CF911F910F91FF90EF900895FC0123A10E
:10469000222321F08CEA96E00C94702A0C94140FDB
:1046A000FC0124A1222351F020A531A54FEF5FEF9B
:1046B00051A740A737FF0CC00C940F23FC0123A186
:1046C000222321F08CEA96E00C940B2A0C94F30E32
:1046D000C9010895CF93DF93EC018CA1882371F079
:1046E000CE010E940F2388A799A7892F8095881F44
:1046F0008827881F90E0DF91CF9108958BA18823B0
:1047000031F08CEA96E0DF91CF910C94F229CE0142
:10471000DF91CF910C94800FCF93DF93EC018E81CA
:10472000813011F460E001C061E08A810E94672954
:1047300061E08B810E94672981E090E00E9443281C
:1047400060E08B81DF91CF910C946729CF93DF9349
:10475000EC0160E002960E94E7208BE991E09983EA
:104760008883DF91CF910895CF93DF93EC01029678
:104770000E94E7208BE991E0998388831F82188645
:1047800019861A861B861C861D861E861F8A188E11
:10479000198E1A8E0E94F8276F8F78A389A39AA387
:1047A0001F86188A198A1A8A81E08E831F821886CA
:1047B00019861A861B861C861D861E861BA21CA2B5
:1047C0001DA21EA21B8E1C8E1D8E1E8E61E08A8174
:1047D0000E942E2961E08B81DF91CF910C942E29CC
:1047E0000F931F93CF93DF93EC014B8D5C8D6D8DF9
:1047F0007E8D452B462B472B11F480E035C00E945F
:10480000F8270F8D18A129A13AA1601B710B820B0B
:10481000930B0B8D1C8D2D8D3E8D061717072807CA
:10482000390758F78E814F81588569857A8581309F
:1048300029F44F5F5F4F6F4F7F4F04C041505109C4
:10484000610971094F83588769877A87E881F981FF
:104850000190F081E02DCE0109950E94F8276F8F1D
:1048600078A389A39AA381E0DF91CF911F910F9143
:1048700008952F923F924F925F926F927F928F9204
:104880009F92AF92BF92CF92DF92EF92FF920F93DF
:104890001F93CF93DF9300D000D000D0CDB7DEB709
:1048A0009E838D83FC01C384D484E584F684878150
:1048B0009085A185B285C81AD90AEA0AFB0A6785DC
:1048C0007089818992899B01AC010E94E62F4B017E
:1048D0005C01ED81FE816789708D818D928D9B01D8
:1048E000AC010E944E2D9B01AC01C501B4010E9498
:1048F000182E0E94802EC114D104E104F104A9F401
:1049000062307105810591050CF082C0ED81FE8158
:10491000138E148E158E168E1786108A118A128A9F
:1049200013A214A215A216A20AC1ED81FE8103A151
:1049300014A125A136A11C141D041E041F040CF58E
:1049400010161106120613064CF46C157D058E0523
:104950009F056CF5268121115BC029C00115110549
:104960002105310509F454C06C157D058E059F05A0
:104970000CF04EC0ED81FE818681813009F048C087
:104980003CC010161106120613060CF5002711275D
:1049900098010C191D092E093F096017710782073C
:1049A00093072CF4ED81FE812681213089F59B014E
:1049B000AC0188279927DC01821B930BA40BB50B54
:1049C000ED81FE8183A394A3A5A3B6A321C0011505
:1049D000110521053105E1F08824992454018C1832
:1049E0009D08AE08BF08681579058A059B0584F403
:1049F000ED81FE81868181110BC030952095109547
:104A000001951F4F2F4F3F4F03A314A325A336A398
:104A1000ED81FE8183A094A0A5A0B6A0811491048D
:104A2000A104B10499F487A190A5A1A5B2A583A77B
:104A300094A7A5A7B6A781E01C141D041E041F049B
:104A40000CF080E0ED81FE81868342C0ED81FE8125
:104A5000C3A4D4A4E5A4F6A4A7019601C701B60196
:104A60000E944E2D2B013C01C501B4010E94B32EC2
:104A700020E030E040E850E40E94E62F20E030E003
:104A800040E85FE30E944E2D9B01AC01C301B201DF
:104A90000E94182E9B01AC01C701B6010E944D2D4A
:104AA0001B012C01ED81FE8167A470A801A912A948
:104AB0009301A8010E94DB2F181614F43101820122
:104AC000A301B801ED81FE8143A754A765A776A78E
:104AD000FFEF8F1A9F0AAF0ABF0AED81FE8183A202
:104AE00094A2A5A2B6A223A534A545A556A5CA01A0
:104AF000B90129833A834B835C830E94852EED8123
:104B0000FE81638F748F858F968F29813A814B81C7
:104B10005C8160E074E284E799E40E94182EED81E4
:104B2000FE816787708B818B928B2681211107C054
:104B3000DC01CB01B0588787908BA18BB28B269676
:104B40000FB6F894DEBF0FBECDBFDF91CF911F919E
:104B50000F91FF90EF90DF90CF90BF90AF909F901C
:104B60008F907F906F905F904F903F902F9008951F
:104B70000F931F93FC010385148525853685041743
:104B800015072607370741F04387548765877687DF
:104B90001F910F910C9439241F910F910895CF927A
:104BA000DF92EF92FF92CF93DF93EC016A017B01DA
:104BB0009A01AB016B897C898D899E890E94142E94
:104BC000882309F440C0CB8ADC8AED8AFE8AA701DB
:104BD000960160E074E284E799E40E94182E6FA7C2
:104BE00078AB89AB9AAB8BA19CA1ADA1BEA11816E5
:104BF00019061A061B063CF56F85788989899A89FA
:104C00009B01AC010E94E62F6B017C016F89788DBE
:104C1000898D9A8D9B01AC010E944E2D9B01AC01A8
:104C2000C701B6010E94182E0E94802E6BA37CA3A0
:104C30008DA39EA3CE01DF91CF91FF90EF90DF90E7
:104C4000CF900C943924DF91CF91FF90EF90DF90BB
:104C5000CF9008956F927F928F929F92AF92BF9262
:104C6000CF92DF92EF92FF920F931F93CF93DF9338
:104C7000EC013A018B012F85388949895A89B301A2
:104C8000C8010E94142E882309F44FC0CB88DC8809
:104C9000ED88FE8846015701B7FAB094B7F8B09492
:104CA000A5019401B301C8010E94142E87FD0BC019
:104CB000A7019601B301C8010E94DB2F18162CF43E
:104CC0003601870102C03401850120E030E0A901EE
:104CD000B301C8010E94142E811105C01B8E1C8EC9
:104CE0001D8E1E8E1CC09301A80160E074E284E753
:104CF00099E40E94182E9F770E94852E6B8F7C8FDF
:104D00008D8F9E8FFF24F39420E030E0A901B30142
:104D1000C8010E94DB2F18160CF0F12CFE82C30193
:104D2000D8018F87988BA98BBA8BDF91CF911F9178
:104D30000F91FF90EF90DF90CF90BF90AF909F903A
:104D40008F907F906F9008950F931F93FC010385C0
:104D500014852585368547815085618572850417C0
:104D600015072607370771F04017510762077307C9
:104D70001CF421E0268302C0FC0116821F910F91D2
:104D80000C94F02380E01F910F910895CF93DF934F
:104D9000EC010E94DE20CE010496DF91CF910C94AD
:104DA0009B1F1F93CF93DF93EC01142F0E94672169
:104DB000123011F4698101C06881CE010496DF913F
:104DC000CF911F910C949C1FCF92DF92EF92FF9294
:104DD0000F931F93CF93DF93CDB7DEB72C970FB60A
:104DE000F894DEBF0FBECDBF8C010C5F1F4FC80112
:104DF0000E94CE1FC8010E94DA2040E064E4C8018E
:104E00000E9474200E94EC276B017C01C8010E9463
:104E1000B21F81110BC00E94EC276C197D098E090D
:104E20009F096E3E72408105910580F3C8010E9482
:104E3000CE1FC8010E94DA2040E06EEBC8010E943C
:104E40007420CE0101967C016E0196E0C90ED11C42
:104E5000C8010E94BE20F70181937F01EC15FD057A
:104E6000B9F76A8170E0762F66278981682B8827D9
:104E700077FD8095982F0E94B32E20E030E040E827
:104E80005DE30E94E62F2C960FB6F894DEBF0FBEAE
:104E9000CDBFDF91CF911F910F91FF90EF90DF90E9
:104EA000CF90089560E00C94E7200F931F93CF9369
:104EB000DF9300D000D0CDB7DEB78C019A01AB01F3
:104EC00060E029833A834B835C830E943B2182E02C
:104ED00090E00E94432861E0C8010E943B218AE0E3
:104EE00090E00E94432860E0C8010E943B2160E0FE
:104EF000F80181810E942E2929813A814B815C81B0
:104F000061E0F80181810F900F900F900F90DF9179
:104F1000CF911F910F910C94C62927E3269FA001E2
:104F2000279F500D112448535F4F60E070E00E94AE
:104F300055270E94B32E20E030E048E652E40E945C
:104F4000182E08951F920F920FB60F9211242F93CF
:104F50003F938F939F93AF93BF938091A4069091BB
:104F6000A506A091A606B091A7063091A30623E05E
:104F7000230F2D3720F40196A11DB11D05C026E891
:104F8000230F0296A11DB11D2093A3068093A406B2
:104F90009093A506A093A606B093A7068091A806B5
:104FA0009091A906A091AA06B091AB060196A11D09
:104FB000B11D8093A8069093A906A093AA06B0936A
:104FC000AB06BF91AF919F918F913F912F910F9021
:104FD0000FBE0F901F9018952FB7F8946091A406FC
:104FE0007091A5068091A6069091A7062FBF0895FF
:104FF0003FB7F8948091A8069091A906A091AA06BF
:10500000B091AB0626B5A89B05C02F3F19F00196BD
:10501000A11DB11D3FBF6627782F892F9A2F620FE0
:10502000711D811D911D42E0660F771F881F991F1A
:105030004A95D1F70895CF92DF92EF92FF92CF93E6
:10504000DF936B017C010E94F827EB01C114D104AE
:10505000E104F10489F00E944C2D0E94F8276C1B9A
:105060007D0B683E734090F381E0C81AD108E108D7
:10507000F108C851DC4FEACFDF91CF91FF90EF905C
:10508000DF90CF9008958230910538F0880F991FF6
:10509000880F991F05970197F1F70895789484B5C3
:1050A000826084BD84B5816084BD85B5826085BD24
:1050B00085B5816085BDEEE6F0E08081816080830A
:1050C000E1E8F0E0108280818260808380818160ED
:1050D0008083E0E8F0E0808181608083E1EBF0E0B4
:1050E000808184608083E0EBF0E080818160808358
:1050F000EAE7F0E080818460808380818260808341
:105100008081816080838081806880831092C1006B
:1051100008958E3008F08E5087702091300190E411
:10512000299F90011124822B80937C0080917A002A
:10513000806480937A0080917A0086FDFCCF809114
:1051400078002091790090E0922B08951F93CF93DF
:10515000DF93182FEB0161E00E942E29209711F4B4
:1051600060E004C0CF3FD10539F461E0812FDF91C9
:10517000CF911F910C946729E12FF0E0E056FE4F8C
:10518000E491E330F9F048F4E130B9F0E230A1F510
:1051900084B5806284BDC8BD34C0E730E9F0E83032
:1051A00019F1E43049F5809180008062809380009D
:1051B000D0938B00C0938A0024C084B5806884BDDE
:1051C000C7BD1FC080918000806880938000D0930D
:1051D0008900C093880015C08091B00080688093DA
:1051E000B000C093B3000DC08091B0008062809386
:1051F000B000C093B40005C0C038D1050CF0B5CFE5
:10520000AFCFDF91CF911F910895833081F028F4C3
:10521000813099F08230A1F008958730A9F088306C
:10522000B9F08430D1F4809180008F7D03C08091EB
:1052300080008F7780938000089584B58F7702C0B7
:1052400084B58F7D84BD08958091B0008F7703C0B1
:105250008091B0008F7D8093B0000895CF93DF934D
:1052600090E0FC01EC54FE4F2491FC01E853FE4F0A
:105270008491882349F190E0880F991FFC01E05147
:10528000FE4FA591B4918A519E4FFC01C591D491D6
:105290009FB7611108C0F8948C91209582238C935C
:1052A000888182230AC0623051F4F8948C91322FA5
:1052B000309583238C938881822B888304C0F89453
:1052C0008C91822B8C939FBFDF91CF9108950F9388
:1052D0001F93CF93DF931F92CDB7DEB7282F30E017
:1052E000F901E056FE4F8491F901EC54FE4F149100
:1052F000F901E853FE4F04910023C9F0882321F0FF
:1053000069830E9405296981E02FF0E0EE0FFF1FFD
:10531000EA51FE4FA591B4919FB7F8948C91611119
:1053200003C01095812301C0812B8C939FBF0F90E8
:10533000DF91CF911F910F910895CF93DF93282F85
:1053400030E0F901E056FE4F8491F901EC54FE4F34
:10535000D491F901E853FE4FC491CC2391F081110F
:105360000E940529EC2FF0E0EE0FFF1FE452FE4FE4
:10537000A591B4912C912D2381E090E021F480E05F
:1053800002C080E090E0DF91CF9108950F931F93CA
:10539000762F90E0FC01EC54FE4F6491FC01E85341
:1053A000FE4FE4917111762FF0E0EE0FFF1FE452F3
:1053B000FE4F8591949189019A013F70472F0E9479
:1053C0002D01611571058105910531F06F5F7F4FEA
:1053D0008F4F9F4F9F7003C060E070E0CB011F9123
:1053E0000F910895FC01818D228D90E0805C9F4F8C
:1053F000821B91098F7399270895FC01918D828DED
:10540000981731F0828DE80FF11D858D90E0089599
:105410008FEF9FEF0895FC01918D828D981761F0B9
:10542000828DDF01A80FB11D5D968C91928D9F5FDB
:105430009F73928F90E008958FEF9FEF08958BEA0E
:105440009BE2892B49F080E090E0892B29F00E94B3
:10545000AB2B81110C9400000895FC01848DDF01B9
:10546000A80FB11DA35ABF4F2C91848D90E00196D7
:105470008F739927848FA689B7892C93A089B189C6
:105480008C9180648C93938D848D981306C00288D0
:10549000F389E02D80818F7D80830895CF93DF9302
:1054A000EC01888D8823C9F0EA89FB89808185FD1C
:1054B00005C0A889B9898C9186FD0FC00FB607FC7D
:1054C000F5CF808185FFF2CFA889B9898C9185FFBE
:1054D000EDCFCE010E942D2AE7CFDF91CF91089525
:1054E000CF92DF92FF920F931F93CF93DF931F9280
:1054F000CDB7DEB76C0181E0D60158968C935897F2
:105500005B969C915B975C968C915C97981307C017
:105510005096ED91FC915197808185FD2EC0F6014A
:10552000038D10E00F5F1F4F0F731127F02EF60150
:10553000848DF81211C00FB607FCF9CFD601509632
:10554000ED91FC915197808185FFF1CFC601698370
:105550000E942D2A6981EBCF838DE80FF11DE35A5C
:10556000FF4F6083D6015B960C935B975296ED914B
:10557000FC915397808180620CC0D6015696ED91C4
:10558000FC91579760835096ED91FC9151978081E3
:105590008064808381E090E00F90DF91CF911F9134
:1055A0000F91FF90DF90CF900895BF92CF92DF923E
:1055B000EF92FF92CF93DF93EC016A017B01B22E51
:1055C000E889F98982E08083411581EE58076105F9
:1055D0007105A1F060E079E08DE390E0A70196010C
:1055E0000E940432215031094109510956954795CD
:1055F00037952795211580E1380798F0E889F989D2
:10560000108260E874E88EE190E0A70196010E94A4
:105610000432215031094109510956954795379572
:105620002795EC85FD853083EE85FF852083188ED8
:10563000EC89FD89B082EA89FB8980818061808361
:10564000EA89FB89808188608083EA89FB8980817F
:1056500080688083EA89FB8980818F7D8083DF91E8
:10566000CF91FF90EF90DF90CF90BF900895FC0115
:10567000938D848D9813FCCFA289B3898C918F7EF2
:105680008C93A289B3898C91877F8C93A289B389EB
:105690008C918F778C93A289B3898C918F7D8C9319
:1056A000828D818F08951F920F920FB60F92112451
:1056B0002F938F939F93EF93FF93E091BC06F0910C
:1056C000BD068081E091C206F091C30682FD12C042
:1056D00090818091C5068F5F8F732091C6068217D7
:1056E00051F0E091C506F0E0E455F94F958F8093B5
:1056F000C50601C08081FF91EF919F918F912F91FD
:105700000F900FBE0F901F9018951F920F920FB61B
:105710000F9211242F933F934F935F936F937F9337
:105720008F939F93AF93BF93EF93FF938CEA96E091
:105730000E942D2AFF91EF91BF91AF919F918F9180
:105740007F916F915F914F913F912F910F900FBE7D
:105750000F901F9018958CEA96E00E94F22921E0A4
:10576000892B09F420E0822F08951092AF06109241
:10577000AE0688EE93E0A0E0B0E08093B006909390
:10578000B106A093B206B093B30681EA91E090937C
:10579000AD068093AC0685EC90E09093B9068093BB
:1057A000B80684EC90E09093BB068093BA0680EC38
:1057B00090E09093BD068093BC0681EC90E09093BE
:1057C000BF068093BE0682EC90E09093C106809362
:1057D000C00686EC90E09093C3068093C2061092B8
:1057E000C5061092C6061092C7061092C806089504
:1057F00008950E944E280E94F82B0E947201CFE16A
:10580000DAE20E949C092097E1F30E941F2AF9CF57
:105810000C9465320C94FD32CF92DF92EF92FF929E
:105820000F931F93CF93DF936C017A01EB01E60E88
:10583000F71E00E010E0CE15DF0561F06991D6019A
:10584000ED91FC910190F081E02DC6010995080FC2
:10585000191FF1CFC801DF91CF911F910F91FF90D8
:10586000EF90DF90CF9008956115710581F0DB0115
:105870000D900020E9F7AD0141505109461B570B2F
:10588000DC01ED91FC910280F381E02D099480E030
:1058900090E008956DEA71E00C94342C4F925F9281
:1058A0006F927F92AF92BF92CF92DF92EF92FF9270
:1058B0000F931F93CF93DF93CDB7DEB729013A0142
:1058C000621B730B840B950B29893A894B895C8980
:1058D0002A193B094C095D09298B3A8B4B8B5C8B50
:1058E0009B01AC0169897A898B899C890E94C031AE
:1058F000E418F50806091709A80197010E94263245
:105900002A0D3B1D4C1D5D1DCA01B901DF91CF91D0
:105910001F910F91FF90EF90DF90CF90BF90AF90CD
:105920007F906F905F904F900895FC0180819181EE
:105930000C94FD32CF93DF93EC018881998100971D
:1059400011F00E94FD32198218821D821C821B8276
:105950001A82DF91CF9108950F931F93CF93DF9316
:10596000EC018B016F5F7F4F888199810E948C339E
:10597000009731F0998388831B830A8381E001C0FB
:1059800080E0DF91CF911F910F910895CF93DF9326
:10599000EC0188819981892B29F08A819B81861766
:1059A000970760F4CE010E94AC2C882341F08C81D3
:1059B0009D81892B19F4E881F981108281E0DF91C2
:1059C000CF910895EF92FF920F931F93CF93DF93A0
:1059D000EC017B018A01BA010E94C62C811104C02E
:1059E000CE010E949A2C07C01D830C83B7018881C9
:1059F00099810E945F34CE01DF91CF911F910F9169
:105A0000FF90EF900895FC011182108213821282A0
:105A1000158214826115710559F0FB010190002077
:105A2000E9F7AF0141505109461B570B0C94E22C8A
:105A30000895CF93DF93EC01FB018617970761F080
:105A4000608171816115710529F0448155810E9441
:105A5000E22C02C00E949A2CCE01DF91CF910895D2
:105A6000FC011182108213821282158214820C941E
:105A7000192DFC01248135816217730748F4808158
:105A80009181009729F0FC01E60FF71F80810895AE
:105A900080E008950C94392D08955058BB27AA270B
:105AA0000ED038C229D230F02ED220F031F49F3FF0
:105AB00011F41EF4F9C10EF4E095E7FBC6C1E92F1D
:105AC0003AD280F3BA17620773078407950718F074
:105AD00071F49EF569C20EF4E0950B2EBA2FA02D3D
