:100000000C9403010C942B010C942B010C94E60F1F
:100010000C94E60F0C94E60F0C942B010C94001F2B
:100020000C942B010C942B010C942B010C941D0AA5
:100030000C942B010C942B010C942B010C942B0190
:100040000C94E5270C942B010C94962B0C94C82B44
:100050000C942B010C942B010C942B010C942B0170
:100060000C94C60D0C942B017108BE06D206EC064A
:10007000EC0605074E08EC06FF08FF08FF08FF081E
:10008000FF08FF08FF0863071E077707FF08FF0840
:10009000FF08A807FF08E40703082508FF08FF0872
:1000A000FF08FF0880088808FF08FF08FF089D0870
:1000B000B408FF08FF08FF08FF08FF08FF08FF0853
:1000C000FF08FF08FF08FF08FF08FF08E608084AC6
:1000D000D73B3BCE016E84BCBFFDC12F3D6C74315C
:1000E0009ABD56833DDA3D00C77F11BED9E4BB4CB3
:1000F0003E916BAAAABE000000803F08000000BE2F
:10010000922449123EABAAAA2ABECDCCCC4C3E00CA
:10011000000080BEABAAAAAA3E00000000BF0000FB
:1001200000803F0000000000084178D3BB4387D126
:10013000133D190E3CC3BD4282AD2B3E68EC827666
:10014000BED98FE1A93E4C80EFFFBE01C4FF7F3FC7
:10015000000000000007634236B79BD8A71A396831
:100160005618AEBAAB558C1D3CB7CC5763BD6DED80
:10017000FD753EF6177231BF000000803F003F065C
:100180005B4F666D7D077F6F777C395E7971BF86C7
:10019000DBCFE6EDFD87FFEFF7FCB9DEF9F10040BC
:1001A0000000000800020100000304070000000036
:1001B0000000000001020408102040800102040831
:1001C00010200102040810200404040404040404A0
:1001D0000202020202020303030303030000000001
:1001E00023002600290000000000250028002B0025
:1001F00000000000240027002A00B005E40CEB14E6
:10020000F82B0606EF1411241FBECFEFD8E0DEBF97
:10021000CDBF11E0A0E0B1E0E4E3FAE602C0059052
:100220000D92A83CB107D9F727E0A8ECB1E001C0D6
:100230001D92AE35B207E1F711E0C2E0D2E004C092
:100240002297FE010E948A32CA3FD107C9F70E9455
:100250003C2C0C940D350C940000CF92DF92EF9261
:10026000FF920F931F93E82FF92F05C0015011093A
:100270002109310961F1908196239417B9F305C0E2
:10028000015011092109310911F19081962394132C
:10029000F7CFC12CD12CE12CF12C0AC08FEFC81A5A
:1002A000D80AE80AF80A0C151D052E053F0579F055
:1002B00080818623841791F36C2D7D2D8E2D9F2DAB
:1002C0001F910F91FF90EF90DF90CF90089560E025
:1002D00070E080E090E01F910F91FF90EF90DF9031
:1002E000CF900895CF93DF93CDB7DEB72A970FB69F
:1002F000F894DEBF0FBECDBF61E08DE00E94712992
:1003000061E08DE00E94AA296CE271E080E090E05B
:100310000E945E2860E08DE00E94AA2926E040E06D
:1003200052EC61E070E087EB96E00E94182B64EFDE
:1003300071E080E090E00E945E2861E083E10E942D
:10034000712961E083E10E94AA2964E670E080E0FF
:1003500090E00E945E2861E083E10E94712960E0E4
:1003600083E10E94AA2961E0CE0101960E94CF1488
:100370008AE0FE013196A6E5B2E001900D928A95E1
:10038000E1F762E0CE0101960E94CF148AE0FE01FF
:100390003196A0E6B2E001900D928A95E1F786E5EC
:1003A00092E00E94B01580E692E00E94B01564EFE2
:1003B00071E080E090E00E945E2840E050E0BA01E9
:1003C00086E592E00E94BC1540E050E0BA0180E66C
:1003D00092E00E94BC158FE593E00E949E1A2A9637
:1003E0000FB6F894DEBF0FBECDBFDF91CF91089559
:1003F00020914E02FC01222319F0EA51FE4F02C067
:10040000E65EFD4F8081089520914E02FC0122237B
:1004100019F0EA51FE4F02C0E65EFD4F6083089579
:1004200087EB96E00C948D2CCF93DF93EC010E9428
:10043000F80180936A02CE0101960E94F801809330
:100440006B0280916A0290916B02DF91CF910895C7
:100450000F931F93CF93DF93EC010E94F8010CE6FA
:1004600012E0F8018083CE0101960E94F80180938A
:100470006D02CE0102960E94F80180936E02CE01B9
:1004800003960E94F80180936F02F80160817181E8
:1004900082819381DF91CF911F910F910895FC018B
:1004A000DB0112964D915D916D917C911597428380
:1004B00053836483758316968C911697868317965B
:1004C0004D915D916D917C911A974783508761871B
:1004D00072871B964D915D916D917C911E9743871C
:1004E0005487658776871F964D915D916D917C91BC
:1004F00052974787508B618B728B53964D915D91CC
:100500006D917C915697438B548B658B768B579668
:100510004D915D916D917C915A97478B508F618F72
:10052000728F5B964D915D916D917C915E97438F3B
:10053000548F658F768F5F964D915D916D917C9113
:100540009297478F50A361A372A393964D915D91AB
:100550006D917C91969743A354A365A376A3979638
:100560004D915D916D917C919A9747A350A761A79A
:1005700072A79B964D915D916D917C919E9743A73B
:1005800054A765A776A79F964D915D916D917C913B
:10059000D29747A750AB61AB72ABD3968C91D397F0
:1005A00083ABD4968C9184ABCF010895E1EDF1E05B
:1005B00020E030E0419151914817590791F0452BC7
:1005C00041F4F901EE0FFF1FEF52FE4F918380833C
:1005D00008C02F5F3F4F2830310561F780E090E081
:1005E0000895C9010895AF92BF92CF92DF92EF9222
:1005F000FF920F931F93CF93DF93CDB7DEB7E697AC
:100600000FB6F894DEBF0FBECDBF8C0186E090E040
:100610000E94F801D82EE82EF12C0C30110509F4B7
:1006200019C14CF50830110509F45BC1F4F403302D
:10063000110509F4D6C10530110509F080C286E024
:1006400090E00E9414028C0169E085ED93E00E9425
:100650008321B80185ED93E00E941D1488E090E0AD
:100660000E9414028C016AE02AC00A30110509F1C7
:100670000CF49EC16DC10132110509F42BC26CF45A
:100680000E31110509F4ECC10032110509F4F4C171
:100690000431110509F053C2BBC108321105C9F07C
:1006A0000233110509F439C20232110509F047C2BB
:1006B000F0C187E090E00E9414028C016D2D85ED61
:1006C00093E00E948321B80185ED93E00E941D1400
:1006D00036C287E090E00E9414028C0189E090E02D
:1006E0000E9414026C0181E0E816F10449F561E012
:1006F000CE0101960E94EA23BE016F5F7F4F87E81B
:1007000092E00E944F02A601662757FD6095762F62
:1007100087E892E00E94EE25B801882777FD809552
:10072000982F0E94F62E6B017C01AB01BC0187E87B
:1007300092E00E940526B701A60187E892E02CC04E
:1007400082E0E816F10459F562E0CE0101960E94BC
:10075000EA23BE016F5F7F4F8CEB92E00E944F0255
:10076000A601662757FD6095762F8CEB92E00E94DC
:10077000EE25B801882777FD8095982F0E94F62EE8
:100780006B017C01AB01BC018CEB92E00E94052661
:10079000B701A6018CEB92E00E946026D0C189E0EF
:1007A000E816F10449F569E0CE0101960E94EA23BA
:1007B000BE016F5F7F4F81EF92E00E944F02A60162
:1007C000662757FD6095762F81EF92E00E94EE2517
:1007D000B801882777FD8095982F0E94F62E6B012F
:1007E0007C01AB01BC0181EF92E00E940526B701BC
:1007F000A60181EF92E0D0CF8AE0E816F10409F07B
:100800009EC16AE0CE0101960E94EA23BE016F5F9D
:100810007F4F86E293E00E944F02A601662757FDB4
:100820006095762F86E293E00E94EE25B801882736
:1008300077FD8095982F0E94F62E6B017C01AB010D
:10084000BC0186E293E00E940526B701A60186E27C
:1008500093E0A2CF87E090E00E94F801082F10E01B
:1008600088E090E00E9414027C018AE090E00E94FF
:1008700014025C0101301105B9F4B701882777FD36
:100880008095982F0E94F62E6B017C01B501882778
:1008900077FD8095982F0E94F62EAB01BC01970141
:1008A000860186E592E01AC00230110509F047C1C1
:1008B000B701882777FD8095982F0E94F62E6B014F
:1008C0007C01B501882777FD8095982F0E94F62E30
:1008D000AB01BC019701860180E692E00E945116AF
:1008E0002EC187E090E00E94F801482F88E090E058
:1008F0004EAB0E94F801E82E89E090E00E94F801DA
:10090000182F8AE090E00E94F801F82E8BE090E02A
:100910000E94F801082F4EA96D2D85EB93E00E94EF
:10092000AC21EE2049F06FEF6E0D2F2D412F85EB9E
:1009300093E00E942A2207C0202F4F2D612F85EBC4
:1009400093E00E947B2285EB93E00E94A822F7C0EF
:1009500087E090E00E94F8019701220F331FF90110
:10096000E65EFE4F813011F4008101C0018110E08C
:1009700088E090E00E94F801D82EC8010E94D602BB
:10098000FC01EE0FFF1FE80FF91FE552FC4F20811D
:100990003181428129833A834B8384EB8D1508F49E
:1009A000CEC0B801CE0101960E94730B6D2DAFC071
:1009B00086EA93E00E942F21282F30E02E153F0574
:1009C00029F06D2D86EA93E00E940F1387E090E0F6
:1009D0000E942802AB01BC0186EA93E00E94311319
:1009E000AEC082EA93E00E942F21282F30E02E151E
:1009F0003F0529F06D2D82EA93E00E94832187E074
:100A000090E00E94F80161E081111BC060E019C014
:100A100082EA93E00E942F21282F30E02E153F0517
:100A200029F06D2D82EA93E00E94832187E090E017
:100A30000E94F801282F30E0223031053CF4682F65
:100A4000617082EA93E00E94572179C061E0223010
:100A5000310509F460E082EA93E00E9467216FC0EB
:100A600061E00E94712987E090E00E94F801682F00
:100A70008D2D0E94AA2963C061E00E94712987E040
:100A800090E00E94F801682F70E08D2D0E94E92807
:100A900056C061E00E94712987E090E00E94140234
:100AA0006C0189E090E00E9414021816190664F4A3
:100AB0008C01222717FD2095322FA601B70183E86C
:100AC00092E00E94A8133BC0B70183E892E00E9425
:100AD0000F1435C087E090E00E94F801182F853B85
:100AE00070F5C7010E94D602FC01EE0FFF1FE80F50
:100AF000F91FE552FC4F20813181428129833A83DD
:100B00004B83B701CE0101960E94730B612F70E0F9
:100B1000CE0101960E94AC0B12C00E942F280E94A9
:100B2000F42E20E030E04AE754E40E945B2E60930C
:100B3000CC017093CD018093CE019093CF01E696C6
:100B40000FB6F894DEBF0FBECDBFDF91CF911F91DE
:100B50000F91FF90EF90DF90CF90BF90AF900895EE
:100B6000CF93DF93CBEDD3E0CE010E94D90A239639
:100B700083E0C33FD807C1F785ED93E00E941A14C4
:100B800082EC93E00E94FC2685EB93E00E941F22FA
:100B900080EB93E00E94882786EA93E00E94791117
:100BA00082EA93E00E9416218FE593E00E943E17AF
:100BB0008BE593E00E94B51FC7E8D2E0CE010E940A
:100BC000DC23E59683E0CB35D807C1F783E892E0D4
:100BD0000E94A2138CE792E00E94B31D86E792E088
:100BE0000E94141780E792E00E94291786E592E0A0
:100BF0000E94DF1480E692E00E94DF1469E371E056
:100C000080E592E0DF91CF910C94462D80E592E053
:100C10000E94D82C85EB93E00C94BC22682F87EBC4
:100C200096E00C94B32A8FEF0E940E0685E50C9493
:100C30000E068FEF0E940E0685E50E940E060C94AC
:100C40001002CF93C82F81E00E940E068C2FCF9107
:100C50000C940E06EF92FF920F931F93CF93DF93A6
:100C60007C01FC01C4810C2F158184E00E940E06DA
:100C70008C2F0E940E06C0E0D0E0C017D10744F4CC
:100C8000BE01C7010E948D2D0E940E062196F5CF50
:100C9000DF91CF911F910F91FF90EF900895FF92F8
:100CA0000F931F93CF93DF931F92CDB7DEB78B01C6
:100CB000F82E82E099830E940E06A8016F2D99817B
:100CC000792F40936C0250936D0260936E02709383
:100CD0006F02802F0E940E0680916D020E940E0608
:100CE00080916E020E940E0680916F020F90DF913C
:100CF000CF911F910F91FF900C940E06CF92DF922F
:100D0000EF92FF926B017C0183E00E940E06C70107
:100D1000B6010E94C32E862F262F372F30936B02E9
:100D200020936A020E940E0680916B02FF90EF9062
:100D3000DF90CF900C940E06CF92DF92EF92FF924D
:100D40000F931F93CF93DF93CDB7DEB727970FB6DF
:100D5000F894DEBF0FBECDBF7C0186E090E00E941C
:100D6000F801D82E082F10E083E3E816F10408F00C
:100D700046C2F701EC5CFF4F0C94883280EB93E0A5
:100D80000E942F2190E08017910729F06D2D80EBB4
:100D900093E00E94832160E971E080EB93E00E9480
:100DA000D0271CC287E090E00E94F801F82E82EC68
:100DB00093E00E942F21282F30E02017310709F0FF
:100DC00010C282EC93E00E9432218F110AC282ECA1
:100DD00093E00E941A2702C282EA93E00E942F2128
:100DE00090E08017910761F06D2D82EA93E00E94F8
:100DF000832182EA93E00E94A92160E00E94712988
:100E000082EA93E00E947B2190C187E090E00E94FB
:100E1000F801F82E8BE593E00E942F21282F30E077
:100E20002017310729F06D2D8BE593E00E94832177
:100E30006F2D8BE593E00E94B81F77C18091A003CE
:100E40009091A1030097F1F04F960E942F2190E01E
:100E50008017910731F10091A0031091A1030115B2
:100E6000110581F085E991E0F80191838083C80143
:100E700082599F4F0E94D82CC8010E946010C8015F
:100E80000E944D2C8BE790E00E944B2C8C016D2D25
:100E90000E94961E1093A1030093A003C8010E9414
:100EA000AB1E8091A0039091A1030E94D61E682FD3
:100EB0008093E2018FEF860F8E3F08F47FC060E0E1
:100EC00070E0CB018BC182EA93E00E942F2190E079
:100ED0008017910709F46CC06D2D82EA93E00E949F
:100EE000832182EA93E00E94A92160E05FC082EA48
:100EF00093E00E942F2190E08017910799F06D2DCB
:100F000082EA93E00E94832182EA93E00E94A62174
:100F100060E00E94712982EA93E00E94A92160E0CA
:100F20000E94712960E082EA93E00E943521182F27
:100F300060E082EA93E00E944621612F70E0660F34
:100F4000771F680F711D882777FD8095982FF2C055
:100F500087E090E00E94F801C82EE82EF12C82EA8A
:100F600093E00E942F21282F30E02017310709F04D
:100F70003FC182EA93E00E943221282F30E02E15F3
:100F80003F0509F035C182EA93E0EA94EF2859F46D
:100F90000E94A62162E00E94712960E082EA93E04B
:100FA0000E9435210AC00E94A92162E00E94712995
:100FB00060E082EA93E00E944621682F70E080E0C2
:100FC00090E00E94F42E0AC187E090E00E94F801B0
:100FD000F82E8CE792E00E942F21282F30E0201776
:100FE000310729F06D2D8CE792E00E9483218CE778
:100FF00092E00E94B61D6F2D8CE792E00E948F1E3A
:101000000E942106FCC086E792E00E942F2190E01A
:1010100080179107A9F06D2D86E792E00E94832149
:1010200086E792E00E94A621482F86E792E04F8350
:101030000E94A9214F81682F86E792E00E9417172E
:1010400086E792E00E94271721C080E792E00E9485
:101050002F2190E080179107A9F06D2D80E792E095
:101060000E94832180E792E00E94A621482F80E71A
:1010700092E04F830E94A9214F81682F80E792E080
:101080000E942C1780E792E00E943C17BC01882741
:1010900077FD8095982F0E94F62E63C087E090E040
:1010A0000E94F801082F10E08FE593E00E94AE1730
:1010B0000130110529F48FE593E00E944B178EC093
:1010C0000230110529F48FE593E00E94511786C084
:1010D0000330110509F093C08FE593E00E94571784
:1010E0007DC060E572E0CE0101960E94732DCE01B5
:1010F00001960E942A06CE0101960E94D82C7FC03C
:1011000060E08D2D0E9471298D2D0E94E0290DC077
:10111000F801EE0FFF1FE65FFE4F108160E0812FA8
:101120000E947129812F0E94CC28BC01882777FD5D
:101130008095982F0E94F62E51C087E090E00E9483
:1011400014028C0160E08D2D0E94712998014427C2
:1011500037FD4095542F61E08D2D0E94092A0E9491
:10116000F42E0E947E064BC087E090E00E94F801BA
:10117000182F61E08D2D0E94712960E08D2D0E9455
:10118000AA2982E090E00E94862861E08D2D0E94CD
:10119000AA298AE090E00E94862860E08D2D0E94B6
:1011A000AA2960E0812F0E94712920E335E740E001
:1011B00050E061E0812F0E94092A0E94F42E20E075
:1011C00030E048E652E40E945B2E08C06091C801FE
:1011D0007091C9018091CA019091CB010E944F0684
:1011E0000EC04F2D6D2D82EC93E00E940727EFCDAE
:1011F0004C2D6D2D82EA93E00E949321C4CE279658
:101200000FB6F894DEBF0FBECDBFDF91CF911F9117
:101210000F91FF90EF90DF90CF9008950F931F9361
:10122000CF93DF931092E30183E090E00E94F801F6
:10123000082F84E090E00E94F801182F85E090E0EC
:101240000E94F801C82FD0E01230C1F088F41130AC
:1012500009F058C00E941306802F0E940E06CE018E
:101260000E949C06DF91CF911F910F910C94100268
:10127000143041F0153009F43FC044C0CE010E9443
:10128000F3023AC069E085ED93E00E94832160E0BB
:1012900070E085ED93E00E941D146AE085ED93E017
:1012A0000E94832160E070E085ED93E00E941D14B0
:1012B00061E085ED93E00E94832160E070E085EDC0
:1012C00093E00E941D1462E085ED93E00E9483216B
:1012D00060E070E085ED93E00E941D1440E050E076
:1012E000BA0186E592E00E94BC1540E050E0BA01E8
:1012F00080E692E00E94BC15DF91CF911F910F9183
:101300000C941906DF91CF911F910F9108951092BF
:101310004F0287EB96E00E94352A181619065CF4F6
:1013200081E080934F0210924E0287EB96E00E947C
:101330004E2A8093E10108950E942F280E94F42EE6
:1013400020E030E04AE754E40E945B2E2091CC017B
:101350003091CD014091CE015091CF010E94902D4E
:101360006093C8017093C9018093CA019093CB0127
:101370008091A0039091A103009711F00E94DB1EC1
:101380000E94870987E892E00E94DA268CEB92E0BF
:101390000E94DA2681EF92E00E94DA2686E293E04C
:1013A0000E94DA2680914F02882309F445C060919B
:1013B000E1018091E301653561F481110AC08091FA
:1013C000D0018F3FD9F481E08093E5018093E30160
:1013D00015C06093D001882389F08091E5018230A7
:1013E00019F46093E40107C0833028F09091E40180
:1013F00091509093E40190E00E9404028091E501F5
:101400008F5F843318F48093E50104C01092E501E6
:101410001092E3018091E301882371F08091E4014F
:1014200081110AC08091E501843030F01092E3010F
:101430000E940E091092E50108951F920F920FB6B7
:101440000F9211242F933F934F935F936F937F934A
:101450008F939F93AF93BF93EF93FF938091F40388
:1014600087FF05C010928500109284001AC0209159
:10147000F403332727FD30958091F30390E028177C
:1014800039077CF48091F403992787FD9095FC013E
:10149000EE0FFF1FE80FF91FEB50FC4F808186FD18
:1014A00015C08091F4038F5F8093F4032091F403BF
:1014B000332727FD30958091F30390E028173907F3
:1014C000BCF48091F4038C305CF112C08091F40381
:1014D000992787FD9095FC01EE0FFF1FE80FF91F7C
:1014E000EB50FC4F808160E08F730E94AA29D9CF16
:1014F0008091840090918500049680349C4918F472
:1015000080E49CE905C08091840090918500049658
:1015100090938900809388008FEF8093F40338C004
:1015200020918400309185008091F403992787FDF4
:101530009095FC01EE0FFF1FE80FF91FEB50FC4FD9
:1015400081819281820F931F9093890080938800FC
:101550008091F403992787FD9095FC01EE0FFF1F02
:10156000E80FF91FEB50FC4F808186FF11C080917E
:10157000F403992787FD9095FC01EE0FFF1FE80FFC
:10158000F91FEB50FC4F808161E08F730E94AA2904
:10159000FF91EF91BF91AF919F918F917F916F914B
:1015A0005F914F913F912F910F900FBE0F901F9021
:1015B00018952091F3032C30A0F431E0320F3093D2
:1015C000F303FC012083822F90E0FC01EE0FFF1F4C
:1015D000E80FF91FEB50FC4F88EB9BE0928381836F
:1015E00008952FEFFC0120830895DF92EF92FF9280
:1015F0000F931F93CF93DF93EC01D62E7A018901CD
:1016000088818C3008F066C061E08D2D0E947129C0
:101610008881A82FB0E0FD01EE0FFF1FEA0FFB1F2E
:10162000EB50FC4F2D2D2F739081907C922B90834B
:1016300060E272E06E197F0977FF02C06D5F7F4F35
:101640007595679575956795698340E659E0401BE8
:10165000510B57FF02C04D5F5F4F5595479555950C
:1016600047954A836CE00E9413329CE0899FB00149
:10167000112420E030E0A901460F571FFA01EE0FB8
:10168000FF1FE40FF51FEB50FC4F908196FD16C035
:101690002F5F3F4F2C30310571F781110FC0109231
:1016A000800082E080938100109285001092840077
:1016B000B19A80916F00826080936F00888190E082
:1016C000FC01EE0FFF1FE80FF91FEB50FC4F80816C
:1016D000806480838881DF91CF911F910F91FF906B
:1016E000EF90DF90089520E639E040E252E00C945C
:1016F000F50AFC0180818C3070F5918128E830E09A
:10170000291B310997FD3395220F331F220F331FF9
:10171000621773077CF0928128E532E0291B3109BA
:1017200097FD3395220F331F220F331F6217730764
:101730000CF49B0122503109220F331F4FB7F8944C
:1017400090E0FC01EE0FFF1FE80FF91FEB50FC4F7C
:10175000328321834FBF08954F925F926F927F92A1
:10176000AF92BF92CF92DF92EF92FF920F931F93AF
:10177000CF93DF93EC01603282E078070CF040C039
:1017800077FD06C0653B71052CF064EB70E002C08C
:1017900060E070E0898128E830E0281B310987FD8E
:1017A0003395220F331F220F331F5901CC24B7FC6E
:1017B000C094DC2C882777FD8095982F2A8148E5F6
:1017C00052E0421B510927FD5395440F551F440F0A
:1017D000551F2A01662457FC6094762C7F926F92E5
:1017E0005F924F9214EBE12EF12C00E010E020E02C
:1017F00030E0A9010E94912C0F900F900F900F9054
:10180000CE01DF91CF911F910F91FF90EF90DF906C
:10181000CF90BF90AF907F906F905F904F900C945F
:10182000790B8091490490E020914A04821B910930
:10183000089520914A0480914904281750F4E22F1A
:10184000F0E0E55BFB4F808190E02F5F20934A043E
:1018500008958FEF9FEF0895E0914A048091490425
:10186000E81730F4F0E0E55BFB4F808190E00895ED
:101870008FEF9FEF08950895CF92DF92EF92FF923E
:101880000F931F93CF93DF937C01CB018A012091AB
:101890002504222389F0EB016B01C40ED51ECC1563
:1018A000DD0569F06991D701ED91FC910190F0811E
:1018B000E02DC7010995F3CF642F0E949D0DC8014B
:1018C000DF91CF911F910F91FF90EF90DF90CF901C
:1018D0000895CF93DF931F92CDB7DEB76983209130
:1018E00025042223D1F020912604203240F021E06B
:1018F00030E0FC013383228380E090E015C08091CA
:101900002704E82FF0E0E85DFB4F998190838F5F1B
:10191000809327048093260405C061E0CE010196E0
:101920000E949D0D81E090E00F90DF91CF9108958E
:10193000FC011382128248EE53E060E070E04483C1
:1019400055836683778387E491E09183808308954C
:1019500010924A041092490410922704109226040F
:101960000C94E80C862F413208F040E26BE474E0FE
:101970000E94060D10924A0480934904089521E0C4
:101980000C94B20C81E0809325046093480410927B
:1019900027041092260408950C94C20C0F93062F6E
:1019A00021E04091260468E274E0809148040E949E
:1019B0004A0D1092270410922604109225040F91CC
:1019C000089561E00C94CE0C89E194E00C94980C9D
:1019D0001092D80481E08093D6041092D50461E07F
:1019E00082E10E94AA2961E083E10E94AA29E9EB31
:1019F000F0E080818E7F808380818D7F808388E48A
:101A00008093B80085E48093BC000895413208F0CB
:101A10003FC09091D8049111FCCF91E09093D804ED
:101A20002093D6042FEF20936B041092B004240F60
:101A30002093AF049093D7049091D704880F892BFB
:101A40008093D7048091D504813041F41092D5045D
:101A50008091D7048093BB0085EC01C085EE809314
:101A6000BC008091D8048130E1F38091B0048417E8
:101A700010F44091B00421EB34E0FB01D9018A2F2E
:101A8000821B841718F48D918193F9CF842F0895C8
:101A900080E008950F93413208F046C09091D80439
:101AA0009111FCCF92E09093D8040093D6049FEF5D
:101AB00090936B041092B0044093AF04FB0161EB70
:101AC00074E0DB019A2F961B941718F491919D9363
:101AD000F9CF1092D7049091D704880F892B809367
:101AE000D7048091D504813041F41092D5048091BF
:101AF000D7048093BB0085EC01C085EE8093BC00C9
:101B0000222321F08091D8048230E1F380916B048C
:101B10008F3F61F080916B04803251F080916B04B3
:101B2000803341F483E007C081E005C080E003C05A
:101B300082E001C084E00F910895613298F4209111
:101B4000D804243089F460938D04FC018FE894E07C
:101B5000DC012A2F281B261718F421912D93F9CF89
:101B600080E0089581E0089582E0089585ED8093F6
:101B7000BC008091BC0084FDFCCF1092D804089575
:101B800085EC8093BC001092D80408951F920F92A8
:101B90000FB60F9211242F933F934F935F936F9340
:101BA0007F938F939F93AF93BF93EF93FF93809116
:101BB000B900887F803609F49CC068F5883209F442
:101BC0005BC090F4803109F454C038F4882309F4E0
:101BD000F5C0883009F44DC0F5C0883109F44CC017
:101BE000803209F45DC0EEC0803409F468C048F466
:101BF000803309F455C0883309F0E4C080936B0446
:101C0000A8C0803509F44FC0883509F45DC0883418
:101C100009F0D8C0D5C0883909F4C6C0A8F48837FF
:101C200009F467C038F4883609F463C0803709F4D2
:101C300060C0C8C0883809F4B7C0803909F45FC0F3
:101C4000803809F0BFC05BC0803B09F485C038F420
:101C5000803A09F466C0883A09F47EC0B3C0803C7B
:101C600009F4A6C0883C09F4A3C0883B09F489C0E4
:101C7000A9C08091D70410C09091B0048091AF04A6
:101C8000981770F5E091B00481E08E0F8093B00456
:101C9000F0E0EF54FB4F80818093BB0085EC85C062
:101CA00080936B048DC0E091B00481E08E0F80932F
:101CB000B0048091BB00F0E0EF54FB4F8083909123
:101CC000B0048091AF046DC0E091B00481E08E0F4C
:101CD0008093B0048091BB00F0E0EF54FB4F808311
:101CE0008091D60481116CC081E08093D50484EA90
:101CF00060C083E08093D80410926C04CFCF8091B1
:101D00006C04803208F050C0E0916C0481E08E0FCA
:101D100080936C048091BB00F0E0E359FB4F80831B
:101D2000BDCF80916C04803230F4E0916C04F0E01F
:101D3000E359FB4F10820E94B60D60916C0470E075
:101D4000E091D104F091D2048DE694E009951092CF
:101D50006C040E94C00D36C084E08093D8041092B9
:101D60008E0410928D04E091D304F091D40409956F
:101D700080918D04811105C081E080938D041092C3
:101D80008F04E0918E0481E08E0F80938E04F0E04A
:101D9000E157FB4F80818093BB0090918E0480912E
:101DA0008D04981708F47ACF85E88093BC000AC0A8
:101DB00085EC8093BC001092D80404C010926B0490
:101DC0000E94B60DFF91EF91BF91AF919F918F91BE
:101DD0007F916F915F914F913F912F910F900FBE27
:101DE0000F901F90189520911B0530911C05281706
:101DF0003907B9F49091D9048091DA04981789F0E1
:101E0000E091D904F0E0E552FB4F80812091D904A4
:101E100030E02F5F3F4F2F7333272093D90490E09A
:101E200008958FEF9FEF08951F93CF93DF93DC0109
:101E30005C968D919C915D97009749F481E090E0CC
:101E400013969C938E93129780E090E03BC051963E
:101E5000ED91FC91529750962C915097322F3095DE
:101E60001FB75E964C915E9741FB772770F941FD55
:101E70006095F8944081772311F0422B01C04323F1
:101E80004083EC012197F1F748E0508160FF02C0E8
:101E9000522B01C053235083EC012197F1F7669533
:101EA000415099F78081772311F0832301C0822B61
:101EB00080831FBF5C968D919C915D970197F1F790
:101EC00081E090E0DF91CF911F91089520911B0553
:101ED00030911C052817390781F49091D90480911D
:101EE000DA04981751F0E091D904F0E0E552FB4F85
:101EF0008081992787FD909508958FEF9FEF089532
:101F000020911B0530911C052817390771F4809129
:101F1000DA042091D90490E0805C9F4F821B9109E4
:101F200060E470E00E943332089580E090E008950C
:101F300020911B0530911C052817390739F48FB7FC
:101F4000F8941092DA041092D9048FBF0895E091AA
:101F50001B05F0911C05E817F90769F4A389B489FA
:101F60009C918589809589238C9310921C051092F1
:101F70001B0581E0089580E00895CF93DF93EC0185
:101F80008A8D9B8D892BF1F080911B0590911C050A
:101F90008C179D07B9F0009711F00E94A70F8E8D46
:101FA0008E7F8E8F1092DA041092D904D0931C0584
:101FB000C0931B05EB89FC8980819D89892B8083D7
:101FC00081E001C080E0DF91CF9108951F920F92D0
:101FD0000FB60F9211242F933F934F935F936F93FC
:101FE0007F938F939F93AF93BF93EF93FF93E09172
:101FF0001B05F0911C05309709F451C0868DA6850C
:10200000B785958581FF04C08C91892329F447C049
:102010008C91892309F043C0A389B4899C91858957
:10202000809589238C93868997890197F1F7208D74
:10203000318DA685B785758558E040E0C9010197C7
:10204000F1F7842F90E095958795482F6C91672341
:1020500009F04068515091F7868D81FD409580913F
:10206000DA0490E001968F7399272091D9042817FC
:1020700049F0A091DA04B0E0A552BB4F4C93809395
:10208000DA0403C0868D8160868F828D938D0197DF
:10209000F1F7A389B4898C919589892B8C93FF9151
:1020A000EF91BF91AF919F918F917F916F915F91D0
:1020B0004F913F912F910F900FBE0F901F90189549
:1020C00027E531E0FC01318320830C94A70F1F9397
:1020D000CF93DF93EC01162F6E8D6695617081E0D2
:1020E0006827812F0E94AA2961E0812F0E9471290F
:1020F000812F90E0FC01EC54FE4FE491E88BFC0151
:10210000E853FE4FE491F0E0EE0FFF1FEA51FE4F5F
:10211000859194919A8B898BDF91CF911F9108952E
:102120001F93CF93DF93EC01162F60E0812F0E9465
:1021300071298E8D81FD04C061E0812F0E94AA2942
:102140001C87812F90E0FC01EC54FE4FE491ED8759
:10215000FC01E853FE4FE491F0E0EE0FFF1FE45264
:10216000FE4F859194919F878E87DF91CF911F912C
:102170000895FF920F931F93CF93DF93EC01F62EF8
:10218000522F1B821A8208EE13E020E030E00C830D
:102190001D832E833F8387E591E0998388831F8A7F
:1021A0001E8A198E188E1B8E1A8E1D8E1C8E8E8D79
:1021B0008E7F50FB81F98E8F642FCE010E946710B5
:1021C0006F2DCE01DF91CF911F910F91FF900C9455
:1021D0009010CF93DF93EC019A01AB011B8E1A8E06
:1021E000198E188E1F8A1E8A60E079E08DE390E0D8
:1021F0000E946932C9012430310520F0B9016350D1
:10220000710902C061E070E07D8F6C8FEC85E63172
:1022100008F068C0B901769567956431710518F0CA
:102220006351710902C061E070E07F8B6E8B06978D
:1022300018F0C901059702C081E090E0998F888F5E
:10224000C901880F991F820F931F969587959695C0
:1022500087958D30910510F00C9702C081E090E0D9
:102260009B8F8A8F20916800E83050F091E0EE302B
:1022700008F490E081E001C0880F9A95EAF701C068
:1022800084E0822B809368002C85283038F02E3033
:1022900040F0263148F48CE690E008C08DE690E0EE
:1022A00005C08BE690E002C080E090E09C8B8B8BB9
:1022B000283030F481E001C0880F2A95EAF70DC07C
:1022C000822F90E02E3010F4089701C00E9791E015
:1022D00001C0990F8A95EAF7892F8D8B8C8D9D8D82
:1022E0000197F1F7CE01DF91CF910C94BD0F0C94C3
:1022F000A70F0C9416210F931F93CF93DF93EC013C
:10230000062F18E060E088850E94AA2900FF02C01D
:1023100061E001C060E089850E94AA29069561E01C
:1023200088850E94AA29115069F760E088850E947B
:10233000AA2961E089850E94AA2961E088850E9416
:10234000AA2960E089850E94712918EC89850E947C
:10235000E029892B59F01150C9F761E089850E9465
:10236000712960E089850E94AA29EFCF61E0898503
:10237000DF91CF911F910F910C947129CF93DF932F
:10238000EC0161E088850E94AA2961E089850E94AC
:10239000AA2960E089850E94AA2960E08885DF91EA
:1023A000CF910C94AA29CF93DF93EC0160E088854C
:1023B0000E94AA2960E089850E94AA2961E0888597
:1023C0000E94AA2961E08985DF91CF910C94AA2906
:1023D000CF92DF92FF920F931F93CF93DF931F92C1
:1023E000CDB7DEB76C01F62E79830E94BE1160E492
:1023F000C6010E947B11C6010E94D311C6010E9432
:10240000BE11F6016581C6010E947B110F2D7981F5
:10241000172F84E0F82EF80161918F01C6010E9408
:102420007B11FA94C1F7C6010E94D311C6010E9424
:10243000BE11F6016681C6010E947B11C6010F9094
:10244000DF91CF911F910F91FF90DF90CF900C946F
:10245000D3114F925F926F927F928F929F92AF9221
:10246000BF92CF92DF92EF92FF920F931F93CF9381
:10247000DF9300D000D0CDB7DEB76A017B018901C0
:1024800037FD48C0B9016F5F7F4F882777FD809582
:10249000982F0E94F62E9B01AC0160E070E080E274
:1024A00091E40E94D1304B015C019B01AC01C7015A
:1024B000B6010E945B2E0E94312F2B013C01B80116
:1024C000882777FD8095982F0E94F62E9B01AC01FE
:1024D00060E070E080E291E40E94D13069837A8309
:1024E0008B839C83A5019401C301B2010E946E30CD
:1024F0009B01AC01C701B6010E94902D29813A8150
:102500004B815C810E945B2E0E94312F0E94C32E62
:10251000CB011FC088249924821A930AA12CB12CC4
:1025200020E030E040E251E4C701B6010E946E3085
:102530006B017C018FEFA81AB80AA814B90484F3C0
:10254000C701B6010E94C32ECB016AE070E00E9471
:1025500033320F900F900F900F90DF91CF911F911A
:102560000F91FF90EF90DF90CF90BF90AF909F9032
:102570008F907F906F905F904F900895DB0180E087
:1025800090E22C91223208F09C93EC91F0E0E2581A
:10259000FE4FE491ED938F5F843099F70895EF92A9
:1025A000FF920F931F93CF93DF9300D000D0CDB74E
:1025B000DEB78C01DB01FE013196CE0105967F016D
:1025C0002D912193E817F907D9F7B701C8010E94A7
:1025D000BE12B701C8010E94E8110F900F900F9032
:1025E0000F90DF91CF911F910F91FF90EF90089581
:1025F000CF93DF9300D000D0CDB7DEB720E22983A0
:102600002A832B832C83BE016F5F7F4F0E94CF12E2
:102610000F900F900F900F90DF91CF910895CF936F
:10262000DF93EC016A83E62FF0E0EE0FFF1FE65E1A
:10263000FE4F81818983908198838887998761E0A3
:102640000E94712961E089850E94712980E48C8350
:1026500080EC8D838AE88E83CE01DF91CF910C943C
:10266000F8128F929F92AF92BF92CF92DF92EF9229
:10267000FF920F931F93CF93DF9300D000D0CDB77D
:10268000DEB75C016A017B0119821A821B821C82FF
:1026900020E030E0A901C701B6010E94572E87FF54
:1026A00009C0F7FAF094F7F8F09481E2898399244D
:1026B000939401C0912C03E010E0812C9801B701A4
:1026C000A601C5010E942912181619062CF0002334
:1026D00019F08820B9F00CC001110AC0E1E0F0E067
:1026E000EC0FFD1FE90DF11D20E1280F208307C02D
:1026F000E1E0F0E0EC0FFD1FE90DF11D8083939404
:102700008824839483E0891530F0015011090C3F2F
:102710008FEF180799F6BE016F5F7F4FC5010E94CA
:10272000CF120F900F900F900F90DF91CF911F91CC
:102730000F91FF90EF90DF90CF90BF90AF909F9060
:102740008F9008950E94162188E080931D050895BA
:102750004F925F926F927F928F929F92AF92BF92B1
:10276000CF92DF92EF92FF920F931F93CF93DF935D
:10277000762E6801790160931D059A0140E050E0D2
:1027800060E472E48FE090E00E946932E90159014F
:1027900037FF03C08FEFA81AB80A85011595079572
:1027A00061E0872D0E947129A8EEB3E0A701960190
:1027B0000E949D322B013C01C12CD12C76014E018F
:1027C000AA2497FCA094BA2CC414D504E604F704F8
:1027D000A8F461E080911D050E94AA29C8010E9409
:1027E000862860E080911D050E94AA29C8010E94E8
:1027F0008628C80CD91CEA1CFB1CE6CFDF91CF91C0
:102800001F910F91FF90EF90DF90CF90BF90AF900E
:102810009F908F907F906F905F904F900895862F3C
:1028200060931D0561E00E94712960E080911D05A3
:102830000C94AA2960E00C941F210F931F93CF934F
:10284000DF938C016F3F710519F014F06FEF70E0AA
:10285000EB0161308FEF780714F4C1E0DFEFD7FDB3
:1028600006C061E0C8010E946721BE0108C060E0A7
:10287000C8010E946721662777276C1B7D0BC80162
:10288000DF91CF911F910F910C947F214F925F9216
:102890006F927F928F929F92AF92BF92CF92DF9270
:1028A000EF92FF920F931F93CF93DF9300D000D04E
:1028B000CDB7DEB7FC01C982DA82EB82FC8295EAF1
:1028C00090832183C2828A8183838B8184838C81DC
:1028D000858346015701CF0106963801C12CD12CC2
:1028E0007601C814D904EA04FB0461F0D3012D91E8
:1028F0003D01DC012D93CD01BFEFCB1ADB0AEB0AC2
:10290000FB0AEFCF2401350126E0420E511C611C69
:10291000711CD801C12CD12C760180E0C814D904D7
:10292000EA04FB0441F09D9189279FEFC91AD90A57
:10293000E90AF90AF3CFDF01A40DB51D8C939701C5
:102940008601085F1F4F2F4F3F4FA7E0CA0ED11CD3
:10295000E11CF11CEC0DFD1D8AE580834017510739
:102960006207730728F460E070E080E090E002C046
:10297000B801C9010F900F900F900F90DF91CF9188
:102980001F910F91FF90EF90DF90CF90BF90AF908D
:102990009F908F907F906F905F904F9008951F93BE
:1029A000CF93DF93EC01162F60E00E941F2111509E
:1029B0001C8389E08D83DF91CF911F910895CF9380
:1029C000DF93EC0160E00E941F211C8289E08D836F
:1029D000DF91CF9108958EE195E00C94F41A8EE189
:1029E00095E00C941D1BAF92BF92CF92DF92EF92B5
:1029F000FF920F931F93CF93DF93EC016B017A014A
:102A000059016D8189E194E00E94C20CA501B601D3
:102A100089E194E00E943C0C89E194E00E94E10C81
:102A200082E090E00E9486286D8170E0A80189E133
:102A300094E00E94BF0C82E090E00E948628C0E0F3
:102A400089E194E00E94110C892B51F089E194E016
:102A50000E94190CF701EC0FF11D8083CF5FF0CFBE
:102A6000DF91CF911F910F91FF90EF90DF90CF906A
:102A7000BF90AF9008956F927F928F929F92AF9286
:102A8000BF92CF92DF92EF92FF920F931F93CF935B
:102A9000DF93CDB7DEB768970FB6F894DEBF0FBEF1
:102AA000CDBF3C018AE04E012BE0820E911CF40167
:102AB000282F11922A95E9F7FE0131965F011192B4
:102AC0008A95E9F7F30184818F8B87E0888F82E014
:102AD000C82ED12CE12CF12C8E01095E1F4F21E074
:102AE0004AE050E060E070E0C4010E9446140AE051
:102AF00010E02AE030E0A501B401C3010E94F31404
:102B00002AE030E040E050E0B5018EE195E00E941F
:102B1000561B1E8A1D8A22E030E040E050E0BE01D4
:102B20006B5E7F4F8EE195E00E94691D81E09E897A
:102B3000911101C080E068960FB6F894DEBF0FBE19
:102B4000CDBFDF91CF911F910F91FF90EF90DF905C
:102B5000CF90BF90AF909F908F907F906F9008958F
:102B6000CF93DF93EC0189E194E00E94A80CCE01A1
:102B7000DF91CF910C943B156F927F928F929F9231
:102B8000AF92BF92CF92DF92EF92FF920F931F937B
:102B9000CF93DF93CDB7DEB76E970FB6F894DEBF55
:102BA0000FBECDBF3C016A017B0120E030E048E46C
:102BB00053E4C701B6010E941E3018168CF020E0C5
:102BC00030E048E453ECC701B6010E94572E87FF5E
:102BD0000DC0C12CD12C58E4E52E53ECF52E06C0C7
:102BE000C12CD12C68E4E62E63E4F62ECE010196CA
:102BF0004C018EE0F40111928A95E9F75E01FFE045
:102C0000AF0EB11C8AE0F50111928A95E9F78E01A9
:102C1000075E1F4F86E0F80111928A95E9F7F301EC
:102C20008481898F85E08A8FCB8EDC8EED8EFE8E3F
:102C300046E0C42ED12CE12CF12C21E04EE050E0F6
:102C400060E070E0C4010E9446140AE010E02EE04B
:102C500030E0A501B401C3010E94F3142AE030E082
:102C600040E050E0B5018EE195E00E94561B8EE1F8
:102C700095E00E94FA1B80E06E960FB6F894DEBFD6
:102C80000FBECDBFDF91CF911F910F91FF90EF90BD
:102C9000DF90CF90BF90AF909F908F907F906F907C
:102CA00008952F923F924F925F926F927F928F92F0
:102CB0009F92AF92BF92CF92DF92EF92FF920F93CB
:102CC0001F93CF93DF93CDB7DEB7A8970FB6F894D5
:102CD000DEBF0FBECDBF4C011A012B016801790187
:102CE00020E030E048E453E4C701B6010E941E3002
:102CF00018168CF020E030E048E453ECC701B60130
:102D00000E94572E87FF0DC0C12CD12CE8E4EE2E77
:102D1000E3ECFE2E06C0C12CD12CF8E4EF2EF3E438
:102D2000FF2E20E030E0A901C201B1010E94572E20
:102D3000811106C0B701A601C4010E94BC155BC089
:102D4000CE0101963C0182E1F30111928A95E9F7E7
:102D50008AE05E01FDE1AF0EB11CF501982F1192E2
:102D60009A95E9F78E010D5E1F4FF80111928A9531
:102D7000E9F7F40184818B8B81E18C8B2D8A3E8A6B
:102D80004F8A588EC98EDA8EEB8EFC8E7AE0C72E73
:102D9000D12CE12CF12C21E042E150E060E070E028
:102DA000C3010E9446140AE010E022E130E0A501D0
:102DB000B301C4010E94F3142AE030E040E050E087
:102DC000B5018EE195E00E94561B8EE195E00E94D0
:102DD000FA1B18A61FA222E030E040E050E0BE013E
:102DE000695D7F4F8EE195E00E94691D81E098A5A5
:102DF000911101C080E0A8960FB6F894DEBF0FBE17
:102E0000CDBFDF91CF911F910F91FF90EF90DF9099
:102E1000CF90BF90AF909F908F907F906F905F907A
:102E20004F903F902F90089560E00C941F21CF9316
:102E3000DF93EC016C834D838C8160E00E947129EB
:102E40008D8188838C818983DF91CF9108950C9443
:102E5000772160E00C941F21CF93DF93EC016C830A
:102E60004D838C8160E00E9471298D8188838C81E3
:102E70008983DF91CF9108950C947721CF93DF93CD
:102E8000EC0160E00E941F21C05CDF4F88E6888370
:102E9000DF91CF910895FC016085718582859385CE
:102EA0000895FC0164857585868597850895FC01E4
:102EB00060897189828993890895EF92FF920F93B7
:102EC0001F93CF93DF93C62F8A01E22E68E689E134
:102ED00094E00E94C20C6C2F89E194E00E94690C7E
:102EE000813001F560E089E194E00E94CE0C81110F
:102EF0002EC081E090E00E94862821E04E2D68E6F9
:102F000089E194E00E94B20CE80100E010E0F12CAD
:102F100089E194E00E94110C892B31F00E151F05F8
:102F200074F002C08FEF13C081E090E00E94862809
:102F300081E00E151F0509F480E0819508C00F5F40
:102F40001F4F89E194E00E94190C8993E1CFDF9132
:102F5000CF911F910F91FF90EF9008954F925F9244
:102F60006F927F928F929F92AF92BF92CF92DF9299
:102F7000EF92FF920F931F93CF93DF93CDB7DEB7FE
:102F80002C970FB6F894DEBF0FBECDBF8C01AC01FD
:102F90004E5C5F4F2EE06BE30E945D178111C5C14F
:102FA000F801A2A8B12CBA2CAA2483A9A82AB1A2FC
:102FB000A0A2E4A8F12CFE2CEE2485A9E82AF3A215
:102FC000E2A286A8912C982C882487A9882A95A209
:102FD00084A2448055806680778062AD70E0762F51
:102FE000662783AD682B882777FD8095982F0E94F0
:102FF000F62EF80126A137A140A551A50E94902DDB
:10300000A30192010E945B2EF801648B758B868B65
:10301000978B64AD70E0762F662785AD682B882787
:1030200077FD8095982F0E94F62EF80122A533A5F2
:1030300044A555A50E94902DA30192010E945B2EEC
:10304000F801608F718F828F938F66AD70E0762F5D
:10305000662787AD682B882777FD8095982F0E947B
:10306000F62EF80126A537A540A951A90E94902D5A
:10307000A30192010E945B2EF801648F758F868FE9
:10308000978FB701882777FD8095982F0E94F62E9D
:103090006B017C01B401882777FD8095982F0E94F1
:1030A000F62E9B01AC010E946E302B013C01A70162
:1030B0009601C701B6010E946E30A30192010E94E1
:1030C000912D0E9421319B01AC01B501882777FD2C
:1030D0008095982F29873A874B875C870E94F62E28
:1030E0004B015C0129853A854B855C850E94042E45
:1030F00020E030E044E353E40E946E302AED3FE0EC
:1031000049E450E40E945B2E69837A838B839C831D
:10311000A5019401C501B4010E946E30A301920182
:103120000E94912D0E9421319B01AC01C701B60183
:103130000E94042E20E030E044E353E40E946E300D
:103140002AED3FE049E450E40E945B2E6D837E83CC
:103150008F8398870E942F28C0903906D0903A0616
:10316000E0903B06F0903C066C197D098E099F09A2
:103170000E94F42E20E030E04AE754E40E945B2EE7
:103180006B017C010E942F286093390670933A06E8
:1031900080933B0690933C06F80184A195A11816F4
:1031A000190644F5208D318D428D538DC701B6012E
:1031B0000E946E309B01AC01F801608571858285AB
:1031C00093850E94902DF80160877187828793878D
:1031D0002489358946895789C701B6010E946E3016
:1031E0009B01AC01F80164857585868597850E94F1
:1031F000912D28C0F801208D318D428D538DC7014E
:10320000B6010E946E309B01AC01F80160857185AA
:10321000828593850E94912DF8016087718782874E
:1032200093872489358946895789C701B6010E9449
:103230006E309B01AC01F8016485758586859785A4
:103240000E94902DF8016487758786879787F8011B
:10325000248D358D468D578DC701B6010E946E3085
:103260009B01AC01F80160897189828993890E9470
:10327000912DF801608B718B828B938B20E030E075
:1032800040E05FE3C701B6010E94912D9B01AC01B4
:1032900060E070E080E09FE30E945B2E6B017C01A8
:1032A0009B01AC0160E070E080E89FE30E94902DFC
:1032B0004B015C01F8012085318542855385C701AA
:1032C000B6010E946E302B013C01A5019401698179
:1032D0007A818B819C810E946E309B01AC01C3017D
:1032E000B2010E94912DF8016087718782879387D0
:1032F0002485358546855785C701B6010E946E3005
:103300006B017C01A50194016D817E818F8198857F
:103310000E946E309B01AC01C701B6010E94912D45
:10332000F80164877587868797872C960FB6F8947F
:10333000DEBF0FBECDBFDF91CF911F910F91FF90E8
:10334000EF90DF90CF90BF90AF909F908F907F9045
:103350006F905F904F9008952F923F924F925F929F
:103360006F927F928F929F92AF92BF92CF92DF9295
:10337000EF92FF920F931F93CF93DF9300D000D073
:10338000CDB7DEB71C0104EF11E0812C912C540164
:10339000412C512C320119821A821B821C827C0121
:1033A00022E3E20EF11C26E0A70163E4C1010E94C2
:1033B0005D17F10182A990E0982F882723A9822B1D
:1033C000AA2797FDA095BA2F29813A814B815C816C
:1033D000280F391F4A1F5B1F29833A834B835C8365
:1033E00084A990E0982F882725A9822BAA2797FDEA
:1033F000A095BA2F480E591E6A1E7B1E86A990E022
:10340000982F882727A9822BAA2797FDA095BA2F46
:10341000880E991EAA1EBB1E0150110921F664EFE9
:10342000C62EDD24D394E12CF12C69817A818B8125
:103430009C81A70196010E946932CA01B9010E94CC
:10344000F62EF10166A377A380A791A7C301B2016D
:10345000A70196010E946932CA01B9010E94F62EA5
:10346000F10162A773A784A795A7C501B401A701BD
:1034700096010E946932CA01B9010E94F62EF1013B
:1034800066A777A780AB91AB0F900F900F900F902E
:10349000DF91CF911F910F91FF90EF90DF90CF9030
:1034A000BF90AF909F908F907F906F905F904F9064
:1034B0003F902F900895EF92FF921F93CF93DF9349
:1034C0001F92CDB7DEB7162F7A0168E670E089E16A
:1034D00094E029830E94CC0C612F89E194E00E9442
:1034E000690C2981813091F4422F50E0B70189E1C4
:1034F00094E00E943C0C61E089E194E00F90DF9140
:10350000CF911F91FF90EF900C94CE0C8FEF0F9006
:10351000DF91CF911F91FF90EF900895CF93DF93AC
:103520001F92CDB7DEB7498321E0AE014F5F5F4FF9
:103530000E945B1A0F90DF91CF910895CF93DF9394
:10354000EC0140E050E063E872E44C835D836E83FD
:103550007F83188619861A861B861C861D861E8602
:103560001F86188A198A1A8A1B8A1C8A1D8A1E8A33
:103570001F8A188E198E1A8E1B8E1C8E1D8E1E8E03
:103580001F8E19A218A21BA21AA21DA21CA21EA263
:103590001FA218A619A61AA61BA61CA61DA61EA623
:1035A0001FA618AA19AA89E194E00E94A80C60E25B
:1035B00073E080E090E00E945E2840E06BE670E0FF
:1035C000CE010E948E1A41E06AE170E0CE010E94B5
:1035D0008E1A48E06BE170E0CE010E948E1ACE0197
:1035E000DF91CF910C94AC1921E030E0FC013183E4
:1035F0002083EE5FFE4F1082118212821382349676
:1036000010821182128213823496108231961082B7
:1036100031961082118212821382349611821082A6
:103620003296108231961082118212821382349661
:10363000108211821282138208950895CF92DF9230
:10364000EF92FF920F931F93CF93C62FFC01EE5F73
:10365000FE4F0081118122813381B901A8014F5FA2
:103660005F4F6F4F7F4F552766277727DC01AA5F93
:10367000BE4FCD90DD90ED90FC904C155D056E0534
:103680007F0559F0DC01A00FB11F1296CC93408347
:1036900051836283738381E001C080E0CF911F91E9
:1036A0000F91FF90EF90DF90CF900895AF92BF926F
:1036B000CF92DF92EF92FF920F931F93CF93DF93FE
:1036C00000D000D0CDB7DEB75C01FC01EE5FFE4F4D
:1036D000C080D180E280F3808FEFC80ED11CE11C46
:1036E000F11C349680819181A281B381C81AD90AD4
:1036F000EA0AFB0ADD24EE24FF24C216D306E40600
:10370000F50628F08B01C12CD12C760102C080E097
:1037100019C0C216D306E406F506A1F0F8016191BE
:103720008F01C50129833A834B835C830E941E1B52
:10373000FFEFCF1ADF0AEF0AFF0A5C814B813A8163
:103740002981E7CF0F900F900F900F90DF91CF91CD
:103750001F910F91FF90EF90DF90CF90BF90AF90AF
:1037600008950F931F93CF93DF93DB01FC01EA5F72
:10377000FE4F4081518162817381EC01CE5FDE4F4B
:10378000088119812A813B8104171507260737070D
:10379000A9F0EC01C40FD51F8A818C93808191819F
:1037A000A281B3810196A11DB11D9927AA27BB272C
:1037B00080839183A283B38381E001C080E0DF91A5
:1037C000CF911F910F9108950F931F93FC0100E07B
:1037D00010E0980180E0041715072607370739F035
:1037E000919189270F5F1F4F2F4F3F4FF4CF1F91AC
:1037F0000F9108952F923F924F925F926F927F9216
:103800008F929F92AF92BF92CF92DF92EF92FF92F0
:103810000F931F93CF93DF9300D000D000D0CDB78C
:10382000DEB78C0119827C018DEEE81A8EEFF80A62
:1038300018019EEE291A9EEF390A4801A0EF8A1A54
:10384000AEEF9A0A5801B4EFAB1ABEEFBB0A68019B
:10385000E9EECE1AEEEFDE0AC801855F9E4F9B832C
:103860008A83D801A65FBE4FBD83AC83BE016F5F64
:103870007F4FC8010E94B11BF801882309F40FC1D2
:103880008081918183309105F9F064F48130910554
:1038900091F0029759F78981EA81FB81808383E067
:1038A00090E00EC08530910509F48FC07CF1069739
:1038B00009F4C7C0DBCF8981853AC1F682E090E088
:1038C000D8018D939C93D2CFF70180819181800F95
:1038D000911FFC01E45FFE4F29812083F701808165
:1038E0009181A281B3810196A11DB11D8083918335
:1038F000A283B3830497A105B10509F0B7CF108265
:1039000011821282138284E090E05BC0D6014D9058
:103910005D906D907C90411451046104710459F5DF
:10392000F50180819181A281B3818F3F9105A1052D
:10393000B10539F030F081E090E0D8018D939C938F
:1039400064C001960E94A832D4018D939C93892B68
:1039500091F481E090E0F80191838083D6011D927B
:103960001D921D921C921397F701108211821282F0
:103970001382D50189C08981D401ED91FC91E40DB8
:10398000F51D8083F60180819181A281B38101962A
:10399000A11DB11D80839183A283B383F501408172
:1039A00051816281738184179507A607B70709F0D3
:1039B0005DCFD6011D921D921D921C92139785E03A
:1039C00090E0F8019183808351CF2981D1012C931C
:1039D000F40160807180D5014D915D916D917C9174
:1039E000C3012E830E94E41B2E81281721F181E060
:1039F00090E0F801918380836114710431F0C30178
:103A00000E944033D4011D921C92F6011082118253
:103A100012821382D7011D921D921D921C92139740
:103A2000F5011082118212821382AA81BB811C923D
:103A3000F10110821BCFE6E0F0E0D801ED93FC939A
:103A400015CF89818A3589F0D4018D919C91009799
:103A500029F00E944033F40111821082D5011D9299
:103A60001D921D921C92139704C081E0EC81FD8190
:103A7000808381E090E0D8018D939C93F6011082C1
:103A8000118212821382D7011D921D921D921C92E7
:103A90001397EA81FB811082D1011C92E7CE8081CD
:103AA00026960FB6F894DEBF0FBECDBFDF91CF9143
:103AB0001F910F91FF90EF90DF90CF90BF90AF904C
:103AC0009F908F907F906F905F904F903F902F903E
:103AD0000895BF92CF92DF92EF92FF920F931F93C0
:103AE000CF93DF93EC01CB018E01045F1E4FF801F1
:103AF000C080D180E280F380C216D306E406F506CA
:103B000018F4BC2C5D2D02C0B22E532F7E01F0EFB5
:103B1000EF1AFEEFFF0AF7016081718161157105EF
:103B2000B9F00097A9F04B2D0E949934F7018081DC
:103B300091810E944033F70111821082F8011082B6
:103B4000118212821382C65FDE4F18828B2D01C054
:103B500080E0DF91CF911F910F91FF90EF90DF9068
:103B6000CF90BF90089560E00C941F214F925F9218
:103B70006F927F928F929F92AF92BF92CF92DF927D
:103B8000EF92FF920F931F93CF93DF9300D000D05B
:103B90001F92CDB7DEB78C01CE0101966C0185E096
:103BA000F60111928A95E9F760E0C8010E94672149
:103BB00064E170E080E090E00E945E2861E0C8016E
:103BC0000E94672188E290E00E94862860E0C80198
:103BD0000E9467210E942F284B015C0160E0C80110
:103BE0000E94462181110EC00E942F286819790970
:103BF0008A099B09633071058105910578F3F80105
:103C0000148215820E942F284B015C0160E0C801DC
:103C10000E944621882359F00E942F2868197909AB
:103C20008A099B09633071058105910578F3E12CC0
:103C3000F12C0E942F284B015C0160E0C8010E941A
:103C4000462181110BC00E942F28681979098A0921
:103C50009B09633071058105910578F30E943B282B
:103C60004B015C010E942F282B013C0160E0C80140
:103C70000E944621882359F00E942F286419750953
:103C800086099709633071058105910578F30E94D3
:103C90003B28681979098A099B09F70123E0F59502
:103CA000E7952A95E1F7693271058105910530F0B4
:103CB000EC0DFD1D8081880F816004C0EC0DFD1DA1
:103CC0008081880F8083FFEFEF1AFF0A88E2E816F1
:103CD000F10409F0AECF59814B81842F90E0850F1C
:103CE000911D2D8130E08217930719F4F801548358
:103CF00045830F900F900F900F900F90DF91CF9111
:103D00001F910F91FF90EF90DF90CF90BF90AF90F9
:103D10009F908F907F906F905F904F900895FC01DF
:103D2000611102C08481089585810895CF93DF9346
:103D3000EC010E94C82287E691E09983888388A1DC
:103D4000FE01E858FF4F80838F8DC758DF4F88836F
:103D5000DF91CF910895CF93DF93EC0140E855E2D6
:103D600060E070E00E94052360E08F8DDF91CF91CD
:103D70000C9471291F93CF93DF93EC018BA18823BF
:103D800019F0CE010E94332360E0CE014F960E94CD
:103D90003521182F8BA1882319F0CE010E94AB1E6C
:103DA00081E08127DF91CF911F91089586589F4F21
:103DB000FC0180810895CF93DF93EC010E94BA1E2D
:103DC0008823A1F0CE010E94A023181619068CF4B6
:103DD000E881F9810680F781E02DCE0109958F3FBA
:103DE00091053CF4C658DF4F888303C0C658DF4FA7
:103DF0001882DF91CF9108950E9486239927089514
:103E00001F920F920FB60F9211240F931F932F93AF
:103E10003F934F935F936F937F938F939F93AF9352
:103E2000BF93CF93EF93FF9382E00E94E029C82FC6
:103E300020914306309144062F5F3F4F3093440654
:103E4000209343068091A906843618F085E080937C
:103E50003E0690913E06933079F018F4923039F096
:103E600070C0943011F1953009F44AC06AC0C11194
:103E700068C01092A90629C0C13009F062C0E09163
:103E8000A90681E08E0F8093A906F0E08091430699
:103E900090914406E35CF94F80871092440610929B
:103EA000430684E080933E064CC0C11114C0E091EB
:103EB000A90681E08E0F8093A906F0E08091430669
:103EC00090914406E35CF94F80871092440610926B
:103ED000430683E0E7CF8091430690914406853600
:103EE000910578F185E080933E060E942F2860932B
:103EF0003F0670934006809341069093420621C08E
:103F00000E942F2800913F06109140062091410603
:103F100030914206601B710B820B930B693C71055B
:103F20008105910540F01092A90610924406109266
:103F3000430682E0B7CFC11104C01092440610922C
:103F40004306FF91EF91CF91BF91AF919F918F91D8
:103F50007F916F915F914F913F912F911F910F91A1
:103F60000F900FBE0F901F90189560E00C941F21CA
:103F7000613049F40E9477218A5E91402091AC061D
:103F80003091AD060AC0623059F40E947B218A5EEE
:103F900091402091AA063091AB06820F931F08959D
:103FA00080E090E00895089570E0FB01EC54FE4F2E
:103FB000E491DC01EC93FB01E853FE4FE491F0E067
:103FC000EE0FFF1FE452FE4F25913491FC01328326
:103FD000218308951F93CF93DF93FC011081C1814A
:103FE000D2819981812F8095892389838A81812B30
:103FF0008A838AE090E00E9486289881912381E05C
:1040000009F480E0DF91CF911F910895FF920F9303
:104010001F93CF93DF93FC011081C181D281F8946B
:104020008981F12EF0948F2189838A81812B8A8363
:1040300078940DE7015041F182E090E00E948628DB
:1040400088818123B9F3F8948A818F218A838981B9
:10405000812B8983789480EE91E00E948628F894E1
:1040600089818F2189838A81812B8A8386E490E0EC
:104070000E9486288881812301E009F000E078947D
:104080008AE991E00E948628802FDF91CF911F91CD
:104090000F91FF9008951F93CF93DF93FC01108140
:1040A000C181D281912F909560FF12C0F8948A81CE
:1040B00089238A838981812B89838AE090E00E9409
:1040C00086288A81812B8A83789487E390E011C0C7
:1040D000F8948A8189238A838981812B898381E469
:1040E00090E00E9486288A81812B8A83789485E0DB
:1040F00090E0DF91CF911F910C9486280F931F932E
:10410000CF93DF93FC011081C181D281F894898122
:10411000812B89838A81012F009580238A8383E004
:1041200090E00E9486288981802389838A81812B5F
:104130008A838AE090E00E948628C881789485E38B
:1041400090E00E9486281C2381E009F480E0DF9142
:10415000CF911F910F910895CF92DF92EF92FF922E
:104160000F931F93CF93DF931F92CDB7DEB76C01F0
:10417000E62E08E010E0FF24F39461E09F2D9E21DD
:1041800009F460E0C60149830E944B20FF0C0150F6
:10419000110949810115110581F741111DC0F894DC
:1041A000D6011196ED91FC91129791818C91809599
:1041B000892381831196ED91FC91129782819C91C4
:1041C000892B82831196ED91FC91129792818C91AB
:1041D00080958923828378940F90DF91CF911F91EE
:1041E0000F91FF90EF90DF90CF900895EF92FF92A4
:1041F0000F931F93CF93DF938C01C8E0D0E0F12C95
:10420000EE24E394C8010E947E208111FE28EE0C6A
:104210002197C1F78F2DDF91CF911F910F91FF90C3
:10422000EF90089540E06CEC0C94AC20FC01809180
:104230001A01808380911B01818312820895DC0121
:10424000E62FF0E0EE0FFF1FE65EFE4F80818C93BD
:10425000818111968C93119712966C930895FC01AD
:1042600082810895FC0183810895CF93DF93EC014F
:1042700088810E94712988810E94E02921E0892B90
:1042800009F420E0822FDF91CF910895CF93DF933F
:10429000EC0189810E94712989810E94E02921E035
:1042A000892B09F420E0822FDF91CF9108951F938D
:1042B000CF93DF93EC01162F61E088810E94712972
:1042C000612F8881DF91CF911F910C94AA291F93B0
:1042D000CF93DF93EC01162F61E089810E94712951
:1042E000612F8981DF91CF911F910C94AA29FC0144
:1042F00080810C94CC28FC0181810C94CC28FC0199
:1043000080810C94E928DC01E62FF0E0EE0FFF1F1E
:10431000E65EFE4F80818C93818111968C9311977C
:1043200012966C930895DC01E62FF0E0EE0FFF1F6C
:10433000E65EFE4F80818C93818111968C9311975C
:1043400012966C93129713964C930895FC018081FA
:104350000895FC0181810895DC0112966C931297F7
:10436000E62FF0E0EE0FFF1FE65EFE4F9181119603
:104370009C93119780818C934230D9F4292F30E09F
:10438000F901EC54FE4FE4911C96EC931C97F90153
:10439000E853FE4FE491F0E0EE0FFF1FEA51FE4FAD
:1043A0002591349119963C932E93189761E0892FAB
:1043B00019C0282F30E0F901EC54FE4FE4911C960F
:1043C000EC931C97F901E853FE4FE491F0E0EE0FF7
:1043D000FF1FEA51FE4F2591349119963C932E937D
:1043E000189761E00C947129CF93DF93EC01262F8D
:1043F00030E03D832C8323E0629FC00111240E94A2
:10440000A8329F838E83892B21F483E791E00E9459
:10441000A93480E090E04C815D819A01220F331F26
:10442000240F351F8217930738F4EE81FF81E80FC0
:10443000F91F10820196EFCFDF91CF910895CF93AE
:10444000DF93EC010E94162160E2CE01DF91CF9153
:104450000C94F4210F93FC01A62FB0E08481958188
:10446000A817B907B8F4862F880F860F90E0A681A9
:10447000B781A80FB91F2C93A681B781A80FB91FC8
:1044800011964C930680F781E02DE80FF91F028307
:1044900081E001C080E00F910895CF92DF92EF920A
:1044A000FF920F931F93CF93DF937C01142FD22E93
:1044B000C02E611113C0C0E0D0E0F7018481958166
:1044C000C817D90748F40C2D2D2D412F6C2FC7018B
:1044D0000E942A222196F1CF81E004C061500E94FF
:1044E0002A2280E0DF91CF911F910F91FF90EF90F2
:1044F000DF90CF9008950F93022F242F462F60E076
:104500000E944D220F9108950F931F93D8013FB73A
:10451000F8949C91822F80958923292BFB01460FCB
:10452000571FE417F50781F0919168E02C9300C0C4
:1045300097FF8C93990F00C000C000C008F48C93C3
:1045400000C06A9599F7EDCF3FBF1F910F91089575
:104550000F931F93FC010085118524813581A901EA
:10456000440F551F420F531F6681778124850E9497
:1045700084221F910F910895CF93DF93EC018E81D8
:104580009F810E9440331F821E82DF91CF91089548
:10459000FF920F931F93CF93DF93EC01F62E8C01C4
:1045A000015E1F4FC8010E941F21EF2DF0E0EE0FAA
:1045B000FF1FE65EFE4F20E040816181CE010E9438
:1045C000B91085E991E09983888369EB71E0CE01A8
:1045D00082599F4F0E94462D1DA21BA21CA288A19A
:1045E000FE01EA58FF4F80838F8D31968083C8018A
:1045F0000E942F2191E0853009F090E09BA3DF918C
:10460000CF911F910F91FF900895CF92DF92EF927B
:10461000FF92CF93DF93EC016A017B0160E472E4C7
:104620008FE090E0A70196010E9469323FA32EA37C
:104630008BA1882369F026E0B701A60187EB96E0FD
:10464000DF91CF91FF90EF90DF90CF900C94182BDB
:10465000B701A601CE01DF91CF91FF90EF90DF90DF
:10466000CF900C94E910FC0123A1222321F087EBC9
:1046700096E00C947A2B0C947711CF92DF92EF9204
:10468000FF920F931F93CF93DF93FC01C6A1D7A195
:1046900023976C01F6E7CF0ED11CF60180810E94B2
:1046A000E029892BF1F400E010E0E12CF12CCE019F
:1046B0000E948628F60180810E94E029002E02C017
:1046C000880F991F0A94E2F7E82AF92A0F5F1F4F13
:1046D0000830110561F7CE010E948628C70199278D
:1046E00002C08FEF9FEFDF91CF911F910F91FF904D
:1046F000EF90DF90CF900895FC0123A1222321F0B9
:1047000087EB96E00C94B32A0C94140FFC0124A1BF
:10471000222351F020A531A54FEF5FEF51A740A70D
:1047200037FF0CC00C943D23FC0123A1222321F070
:1047300087EB96E00C944E2A0C94F30EC901089571
:10474000CF93DF93EC018CA1882371F0CE010E94FE
:104750003D2388A799A7892F8095881F8827881FC0
:1047600090E0DF91CF9108958BA1882331F087EB02
:1047700096E0DF91CF910C94352ACE01DF91CF9155
:104780000C94800FCF93DF93EC018E81813011F474
:1047900060E001C061E08A810E94AA2961E08B810A
:1047A0000E94AA2981E090E00E94862860E08B8127
:1047B000DF91CF910C94AA29CF93DF93EC0160E0B5
:1047C00002960E941F2185EA91E099838883DF91F8
:1047D000CF910895CF93DF93EC0102960E941F21A1
:1047E00085EA91E0998388831F82188619861A8644
:1047F0001B861C861D861E861F8A188E198E1A8E91
:104800000E943B286F8F78A389A39AA31F86188ADA
:10481000198A1A8A81E08E831F82188619861A8661
:104820001B861C861D861E861BA21CA21DA21EA204
:104830001B8E1C8E1D8E1E8E61E08A810E94712946
:1048400061E08B81DF91CF910C9471290F931F93BD
:10485000CF93DF93EC014B8D5C8D6D8D7E8D452B61
:10486000462B472B11F480E035C00E943B280F8D6A
:1048700018A129A13AA1601B710B820B930B0B8D20
:104880001C8D2D8D3E8D061717072807390758F701
:104890008E814F81588569857A85813029F44F5FF3
:1048A0005F4F6F4F7F4F04C041505109610971093B
:1048B0004F83588769877A87E881F9810190F08171
:1048C000E02DCE0109950E943B286F8F78A389A324
:1048D0009AA381E0DF91CF911F910F9108952F92BC
:1048E0003F924F925F926F927F928F929F92AF9280
:1048F000BF92CF92DF92EF92FF920F931F93CF93CD
:10490000DF9300D000D000D0CDB7DEB79E838D837B
:10491000FC01C384D484E584F68487819085A185D5
:10492000B285C81AD90AEA0AFB0A678570898189A3
:1049300092899B01AC010E946E304B015C01ED81BC
:10494000FE816789708D818D928D9B01AC010E94E3
:10495000912D9B01AC01C501B4010E945B2E0E9408
:10496000C32EC114D104E104F104A9F4623071052D
:10497000810591050CF082C0ED81FE81138E148EAD
:10498000158E168E1786108A118A128A13A214A207
:1049900015A216A20AC1ED81FE8103A114A125A1D1
:1049A00036A11C141D041E041F040CF5101611065C
:1049B000120613064CF46C157D058E059F056CF5EB
:1049C000268121115BC029C0011511052105310582
:1049D00009F454C06C157D058E059F050CF04EC082
:1049E000ED81FE818681813009F048C03CC01016FF
:1049F0001106120613060CF50027112798010C1951
:104A00001D092E093F0960177107820793072CF4CF
:104A1000ED81FE812681213089F59B01AC0188273B
:104A20009927DC01821B930BA40BB50BED81FE8152
:104A300083A394A3A5A3B6A321C001151105210545
:104A40003105E1F08824992454018C189D08AE08A2
:104A5000BF08681579058A059B0584F4ED81FE8100
:104A6000868181110BC030952095109501951F4FBF
:104A70002F4F3F4F03A314A325A336A3ED81FE813F
:104A800083A094A0A5A0B6A081149104A104B104B0
:104A900099F487A190A5A1A5B2A583A794A7A5A7DE
:104AA000B6A781E01C141D041E041F040CF080E056
:104AB000ED81FE81868342C0ED81FE81C3A4D4A432
:104AC000E5A4F6A4A7019601C701B6010E94912DA5
:104AD0002B013C01C501B4010E94F62E20E030E01C
:104AE00040E850E40E946E3020E030E040E85FE3B0
:104AF0000E94912D9B01AC01C301B2010E945B2E6B
:104B00009B01AC01C701B6010E94902D1B012C0135
:104B1000ED81FE8167A470A801A912A99301A801E3
:104B20000E941E30181614F431018201A301B8014D
:104B3000ED81FE8143A754A765A776A7FFEF8F1AE3
:104B40009F0AAF0ABF0AED81FE8183A294A2A5A2AB
:104B5000B6A223A534A545A556A5CA01B901298346
:104B60003A834B835C830E94C82EED81FE81638F64
:104B7000748F858F968F29813A814B815C8160E0AB
:104B800074E284E799E40E945B2EED81FE816787E1
:104B9000708B818B928B2681211107C0DC01CB01A8
:104BA000B0588787908BA18BB28B26960FB6F8945E
:104BB000DEBF0FBECDBFDF91CF911F910F91FF9050
:104BC000EF90DF90CF90BF90AF909F908F907F90AD
:104BD0006F905F904F903F902F9008950F931F9389
:104BE000FC010385148525853685041715072607DE
:104BF000370741F043875487658776871F910F9168
:104C00000C946F241F910F910895CF92DF92EF9231
:104C1000FF92CF93DF93EC016A017B019A01AB0114
:104C20006B897C898D899E890E94572E882309F47F
:104C300040C0CB8ADC8AED8AFE8AA701960160E03B
:104C400074E284E799E40E945B2E6FA778AB89AB8E
:104C50009AAB8BA19CA1ADA1BEA1181619061A068C
:104C60001B063CF56F85788989899A899B01AC017F
:104C70000E946E306B017C016F89788D898D9A8DD1
:104C80009B01AC010E94912D9B01AC01C701B601B3
:104C90000E945B2E0E94C32E6BA37CA38DA39EA3B8
:104CA000CE01DF91CF91FF90EF90DF90CF900C94E9
:104CB0006F24DF91CF91FF90EF90DF90CF90089518
:104CC0006F927F928F929F92AF92BF92CF92DF921C
:104CD000EF92FF920F931F93CF93DF93EC013A0172
:104CE0008B012F85388949895A89B301C8010E94EF
:104CF000572E882309F44FC0CB88DC88ED88FE88C6
:104D000046015701B7FAB094B7F8B094A5019401E1
:104D1000B301C8010E94572E87FD0BC0A701960161
:104D2000B301C8010E941E3018162CF43601870109
:104D300002C03401850120E030E0A901B301C801BF
:104D40000E94572E811105C01B8E1C8E1D8E1E8E3B
:104D50001CC09301A80160E074E284E799E40E941A
:104D60005B2E9F770E94C82E6B8F7C8F8D8F9E8FBE
:104D7000FF24F39420E030E0A901B301C8010E94B0
:104D80001E3018160CF0F12CFE82C301D8018F875B
:104D9000988BA98BBA8BDF91CF911F910F91FF90C8
:104DA000EF90DF90CF90BF90AF909F908F907F90CB
:104DB0006F9008950F931F93FC010385148525853B
:104DC000368547815085618572850417150726074A
:104DD000370771F040175107620773071CF421E091
:104DE000268302C0FC0116821F910F910C94262489
:104DF00080E01F910F910895CF93DF93EC010E9403
:104E00001621CE010496DF91CF910C94D31F1F93EE
:104E1000CF93DF93EC01142F0E949321123011F4F1
:104E2000698101C06881CE010496DF91CF911F9105
:104E30000C94D41FCF92DF92EF92FF920F931F93A7
:104E4000CF93DF93CDB7DEB72C970FB6F894DEBFC4
:104E50000FBECDBF8C010C5F1F4FC8010E94062002
:104E6000C8010E94122140E064E4C8010E94AC2005
:104E70000E942F286B017C01C8010E94EA1F81114A
:104E80000BC00E942F286C197D098E099F096E3E68
:104E900072408105910580F3C8010E940620C80177
:104EA0000E94122140E06EEBC8010E94AC20CE01AE
:104EB00001967C016E0196E0C90ED11CC8010E94CA
:104EC000F620F70181937F01EC15FD05B9F76A81A2
:104ED00070E0762F66278981682B882777FD80957B
:104EE000982F0E94F62E20E030E040E85DE30E941B
:104EF0006E302C960FB6F894DEBF0FBECDBFDF919B
:104F0000CF911F910F91FF90EF90DF90CF90089578
:104F100060E00C941F21CF92DF92EF92FF92CF932B
:104F2000DF9300D000D0CDB7DEB77C019A01AB0192
:104F300060E029833A834B835C830E94672182E08F
:104F400090E00E94862861E0C7010E9467218AE004
:104F500090E00E94862860E0C7010E94672160E01F
:104F6000F70181810E94712929813A814B815C81FD
:104F700061E0F70181810E94092A6B017C0184E6CE
:104F800090E00E948628C701B6010F900F900F9005
:104F90000F90DF91CF91FF90EF90DF90CF90089529
:104FA00027E3269FA001279F500D112448535F4FF0
:104FB00060E070E00E948B270E94F62E20E030E037
:104FC00048E652E40E945B2E08951F920F920FB69E
:104FD0000F9211242F933F938F939F93AF93BF937F
:104FE0008091AF069091B006A091B106B091B20643
:104FF0003091AE0623E0230F2D3720F40196A11D3A
:10500000B11D05C026E8230F0296A11DB11D2093F6
:10501000AE068093AF069093B006A093B106B0930E
:10502000B2068091B3069091B406A091B506B091F6
:10503000B6060196A11DB11D8093B3069093B406E8
:10504000A093B506B093B606BF91AF919F918F9193
:105050003F912F910F900FBE0F901F9018952FB773
:10506000F8946091AF067091B0068091B10690916E
:10507000B2062FBF08953FB7F8948091B306909180
:10508000B406A091B506B091B60626B5A89B05C09A
:105090002F3F19F00196A11DB11D3FBF6627782F44
:1050A000892F9A2F620F711D811D911D42E0660F9D
:1050B000771F881F991F4A95D1F70895CF92DF92E5
:1050C000EF92FF92CF93DF936B017C010E943B280C
:1050D000EB01C114D104E104F10489F00E948F2D89
:1050E0000E943B286C1B7D0B683E734090F381E06F
:1050F000C81AD108E108F108C851DC4FEACFDF91A6
:10510000CF91FF90EF90DF90CF900895823091057E
:1051100038F0880F991F880F991F05970197F1F7AD
:105120000895789484B5826084BD84B5816084BD1F
:1051300085B5826085BD85B5816085BDEEE6F0E010
:10514000808181608083E1E8F0E01082808182606C
:105150008083808181608083E0E8F0E080818160ED
:105160008083E1EBF0E0808184608083E0EBF0E01D
:10517000808181608083EAE7F0E0808184608083C1
:10518000808182608083808181608083808180686B
:1051900080831092C10008958E3008F08E50877081
:1051A0002091380190E4299F90011124822B809353
:1051B0007C0080917A00806480937A0080917A00EC
:1051C00086FDFCCF809178002091790090E0922BB1
:1051D00008951F93CF93DF93182FEB0161E00E9496
:1051E0007129209711F460E004C0CF3FD10539F454
:1051F00061E0812FDF91CF911F910C94AA29E12FBB
:10520000F0E0E056FE4FE491E330F9F048F4E1308D
:10521000B9F0E230A1F584B5806284BDC8BD34C068
:10522000E730E9F0E83019F1E43049F58091800089
:10523000806280938000D0938B00C0938A0024C04A
:1052400084B5806884BDC7BD1FC080918000806820
:1052500080938000D0938900C093880015C080910E
:10526000B00080688093B000C093B3000DC08091FF
:10527000B00080628093B000C093B40005C0C03815
:10528000D1050CF0B5CFAFCFDF91CF911F9108952D
:10529000833081F028F4813099F08230A1F00895B4
:1052A0008730A9F08830B9F08430D1F48091800043
:1052B0008F7D03C0809180008F7780938000089558
:1052C00084B58F7702C084B58F7D84BD08958091A9
:1052D000B0008F7703C08091B0008F7D8093B000C5
:1052E0000895CF93DF9390E0FC01EC54FE4F24919E
:1052F000FC01E853FE4F8491882349F190E0880F28
:10530000991FFC01E051FE4FA591B4918A519E4F27
:10531000FC01C591D4919FB7611108C0F8948C919C
:10532000209582238C93888182230AC0623051F4B5
:10533000F8948C91322F309583238C938881822B23
:10534000888304C0F8948C91822B8C939FBFDF914B
:10535000CF9108950F931F93CF93DF931F92CDB7F3
:10536000DEB7282F30E0F901E056FE4F8491F901B5
:10537000EC54FE4F1491F901E853FE4F04910023C1
:10538000C9F0882321F069830E9448296981E02FB0
:10539000F0E0EE0FFF1FEA51FE4FA591B4919FB7C9
:1053A000F8948C91611103C01095812301C0812B69
:1053B0008C939FBF0F90DF91CF911F910F91089514
:1053C000CF93DF93282F30E0F901E056FE4F849110
:1053D000F901EC54FE4FD491F901E853FE4FC4910A
:1053E000CC2391F081110E944829EC2FF0E0EE0FC0
:1053F000FF1FE452FE4FA591B4912C912D2381E023
:1054000090E021F480E002C080E090E0DF91CF9155
:1054100008950F931F93762F90E0FC01EC54FE4FFC
:105420006491FC01E853FE4FE4917111762FF0E096
:10543000EE0FFF1FE452FE4F8591949189019A016E
:105440003F70472F0E942D0161157105810591055F
:1054500031F06F5F7F4F8F4F9F4F9F7003C060E0B1
:1054600070E0CB011F910F910895FC01818D228D79
:1054700090E0805C9F4F821B91098F73992708955C
:10548000FC01918D828D981731F0828DE80FF11D0E
:10549000858D90E008958FEF9FEF0895FC01918D29
:1054A000828D981761F0828DDF01A80FB11D5D9686
:1054B0008C91928D9F5F9F73928F90E008958FEFF4
:1054C0009FEF08958EEE9BE2892B49F080E090E0FB
:1054D000892B29F00E94EE2B81110C940000089575
:1054E000FC01848DDF01A80FB11DA35ABF4F2C9181
:1054F000848D90E001968F739927848FA689B78950
:105500002C93A089B1898C9180648C93938D848D28
:10551000981306C00288F389E02D80818F7D8083F7
:105520000895CF93DF93EC01888D8823C9F0EA8931
:10553000FB89808185FD05C0A889B9898C9186FD8C
:105540000FC00FB607FCF5CF808185FFF2CFA88989
:10555000B9898C9185FFEDCFCE010E94702AE7CFEB
:10556000DF91CF910895CF92DF92FF920F931F9317
:10557000CF93DF931F92CDB7DEB76C0181E0D601E8
:1055800058968C9358975B969C915B975C968C9100
:105590005C97981307C05096ED91FC9151978081CC
:1055A00085FD2EC0F601038D10E00F5F1F4F0F73B6
:1055B0001127F02EF601848DF81211C00FB607FCEA
:1055C000F9CFD6015096ED91FC915197808185FFDE
:1055D000F1CFC60169830E94702A6981EBCF838D68
:1055E000E80FF11DE35AFF4F6083D6015B960C93E1
:1055F0005B975296ED91FC915397808180620CC02D
:10560000D6015696ED91FC91579760835096ED9197
:10561000FC91519780818064808381E090E00F90BD
:10562000DF91CF911F910F91FF90DF90CF90089560
:10563000BF92CF92DF92EF92FF92CF93DF93EC0174
:105640006A017B01B22EE889F98982E080834115E5
:1056500081EE580761057105A1F060E079E08DE306
:1056600090E0A70196010E9447322150310941097B
:1056700051095695479537952795211580E13807AB
:1056800098F0E889F989108260E874E88EE190E08A
:10569000A70196010E944732215031094109510961
:1056A0005695479537952795EC85FD853083EE8592
:1056B000FF852083188EEC89FD89B082EA89FB89F9
:1056C000808180618083EA89FB8980818860808312
:1056D000EA89FB89808180688083EA89FB898081EF
:1056E0008F7D8083DF91CF91FF90EF90DF90CF90FF
:1056F000BF900895FC01938D848D9813FCCFA289EF
:10570000B3898C918F7E8C93A289B3898C91877F8A
:105710008C93A289B3898C918F778C93A289B3895A
:105720008C918F7D8C93828D818F08951F920F9223
:105730000FB60F9211242F938F939F93EF93FF93A4
:10574000E091C706F091C8068081E091CD06F09106
:10575000CE0682FD12C090818091D0068F5F8F733C
:105760002091D106821751F0E091D006F0E0E95483
:10577000F94F958F8093D00601C08081FF91EF9102
:105780009F918F912F910F900FBE0F901F901895A2
:105790001F920F920FB60F9211242F933F934F93A6
:1057A0005F936F937F938F939F93AF93BF93EF9389
:1057B000FF9387EB96E00E94702AFF91EF91BF91D3
:1057C000AF919F918F917F916F915F914F913F9199
:1057D0002F910F900FBE0F901F90189587EB96E0BA
:1057E0000E94352A21E0892B09F420E0822F0895B8
:1057F0001092BA061092B90688EE93E0A0E0B0E0ED
:105800008093BB069093BC06A093BD06B093BE06E2
:105810008BEA91E09093B8068093B70685EC90E010
:105820009093C4068093C30684EC90E09093C606E0
:105830008093C50680EC90E09093C8068093C706DD
:1058400081EC90E09093CA068093C90682EC90E0C8
:105850009093CC068093CB0686EC90E09093CE0696
:105860008093CD061092D0061092D1061092D206E7
:105870001092D306089508950E9491280E943B2C0F
:105880000E947201C2E6DAE20E949C092097E1F3CD
:105890000E94622AF9CF0C94A8320C944033CF9224
:1058A000DF92EF92FF920F931F93CF93DF936C01E0
:1058B0007A01EB01E60EF71E00E010E0CE15DF05E1
:1058C00061F06991D601ED91FC910190F081E02D9C
:1058D000C6010995080F191FF1CFC801DF91CF91BB
:1058E0001F910F91FF90EF90DF90CF900895611579
:1058F000710581F0DB010D900020E9F7AD01415009
:105900005109461B570BDC01ED91FC910280F3819C
:10591000E02D099480E090E0089567EB71E00C942D
:10592000772C4F925F926F927F92AF92BF92CF92FD
:10593000DF92EF92FF920F931F93CF93DF93CDB738
:10594000DEB729013A01621B730B840B950B298981
:105950003A894B895C892A193B094C095D09298BD5
:105960003A8B4B8B5C8B9B01AC0169897A898B8963
:105970009C890E940332E418F50806091709A8015A
:1059800097010E9469322A0D3B1D4C1D5D1DCA0105
:10599000B901DF91CF911F910F91FF90EF90DF90B0
:1059A000CF90BF90AF907F906F905F904F90089591
:1059B000FC01808191810C944033CF93DF93EC0103
:1059C00088819981009711F00E94403319821882D2
:1059D0001D821C821B821A82DF91CF9108950F9342
:1059E0001F93CF93DF93EC018B016F5F7F4F888113
:1059F00099810E94CF33009731F0998388831B836C
:105A00000A8381E001C080E0DF91CF911F910F9167
:105A10000895CF93DF93EC0188819981892B29F038
:105A20008A819B818617970760F4CE010E94EF2C34
:105A3000882341F08C819D81892B19F4E881F981BB
:105A4000108281E0DF91CF910895EF92FF920F9342
:105A50001F93CF93DF93EC017B018A01BA010E946F
:105A6000092D811104C0CE010E94DD2C07C01D83C9
:105A70000C83B701888199810E94A234CE01DF9105
:105A8000CF911F910F91FF90EF900895FC0111822B
:105A9000108213821282158214826115710559F0E9
:105AA000FB0101900020E9F7AF0141505109461B6D
:105AB000570B0C94252D0895CF93DF93EC01FB0138
:105AC0008617970761F0608171816115710529F072
:105AD000448155810E94252D02C00E94DD2CCE01FB
