:100000000C9466000C948E000C948E000C94E20507
:100010000C94E2050C94E2050C948E000C9496016D
:100020000C948E000C948E000C948E000C9443045F
:100030000C948E000C948E000C948E000C948E0008
:100040000C9473070C948E000C94720A0C94A40AFE
:100050000C948E000C948E000C948E000C948E00E8
:100060000C948E000C948E00000000080002010029
:100070000003040700000000000000000102040863
:100080001020408001020408102001020408102002
:10009000040404040404040402020202020203032E
:1000A00003030303000000002300260029000000D2
:1000B0000000250028002B0000000000240027007D
:1000C0002A0051016401D40A5601680111241FBE9F
:1000D000CFEFD8E0DEBFCDBF11E0A0E0B1E0E0E3BC
:1000E000FEE102C005900D92A63BB107D9F725E0CD
:1000F000A6EBB1E001C01D92A531B207E1F710E017
:10010000C8ECD0E004C02297FE010E94CF0CC23C94
:10011000D107C9F70E94540C0C940B0F0C940000EB
:1001200026E040E855E260E070E084E794E00E9459
:10013000100A40E855E260E070E080EC91E00E9437
:10014000900362E370E080E090E00E94EC076CE2D4
:1001500071E084E794E00C945B0B80EC91E00E94EA
:10016000930280EC91E00E946C029093BF01809317
:10017000BE0180EC91E00E9479029093BD018093D2
:10018000BC0180EC91E00E9486029093BB018093B9
:10019000BA0180EC91E00E9426039093B90180930C
:1001A000B80180EC91E00E9433039093B7018093F3
:1001B000B60164EF71E080E090E00E94EC0766E336
:1001C00071E084E794E00E94550B6091B801709152
:1001D000B9014AE050E084E794E00E94C90B68E46A
:1001E00071E084E794E00E94550B6BE371E084E7D3
:1001F00094E00E94550B6091BE017091BF014AE0EE
:1002000050E084E794E00E94C90B62E471E084E767
:1002100094E00E94550B6AE471E084E794E00E9448
:10022000550B6091BC017091BD014AE050E084E73C
:1002300094E00E94C90B62E471E084E794E00E94BC
:10024000550B61E571E084E794E00E94550B6091E5
:10025000BA017091BB014AE050E084E794E00E944B
:10026000C90B67E571E084E794E00E94550B68E4F0
:1002700071E084E794E00E94550B6EE571E084E73D
:1002800094E00E94550B6091B6017091B7014AE06D
:1002900050E084E794E00E94C90B84E794E00C945A
:1002A000570B63E080EC91E00C944B0289E791E0FE
:1002B0009093C1018093C0018EE292E00E94CF0B27
:1002C00080EC91E00C945C0689E792E00C946C0160
:1002D00089E792E00C94950121E030E0FC01318344
:1002E0002083EE5FFE4F10821182128213823496B9
:1002F00010821182128213823496108231961082FB
:1003000031961082118212821382349611821082E9
:1003100032961082319610821182128213823496A4
:100320001082118212821382089508951F920F92F3
:100330000FB60F9211240F931F932F933F934F9358
:100340005F936F937F938F939F93AF93BF93CF935D
:10035000EF93FF9382E00E940409C82F20919A0333
:1003600030919B032F5F3F4F30939B0320939A0361
:1003700080910004843618F085E080939503909175
:100380009503933079F018F4923039F070C09430BE
:1003900011F1953009F44AC06AC0C11168C01092C9
:1003A000000429C0C13009F062C0E091000481E07E
:1003B0008E0F80930004F0E080919A0390919B034C
:1003C000EC56FC4F808710929B0310929A0384E0B6
:1003D000809395034CC0C11114C0E091000481E0EA
:1003E0008E0F80930004F0E080919A0390919B031C
:1003F000EC56FC4F808710929B0310929A0383E087
:10040000E7CF80919A0390919B038536910578F10F
:1004100085E0809395030E94BD07609396037093D7
:100420009703809398039093990321C00E94BD077E
:1004300000919603109197032091980330919903AE
:10044000601B710B820B930B693C71058105910553
:1004500040F01092000410929B0310929A0382E0E5
:10046000B7CFC11104C010929B0310929A03FF9161
:10047000EF91CF91BF91AF919F918F917F916F91AC
:100480005F914F913F912F911F910F910F900FBE50
:100490000F901F901895CF93DF93EC010E945303A8
:1004A00089E691E099838883FE01E854FF4F10822A
:1004B000E054F1098FE1DF01982F1D929A95E9F739
:1004C0007F96DF011D928A95E9F7CA54DF4F1982A2
:1004D0001882DF91CF910895FC01E558FF4F2081EC
:1004E00030E0322F222731968081A901482BCA01A2
:1004F0000895FC01E358FF4F208130E0322F22277E
:1005000031968081A901482BCA010895FC01E15868
:10051000FF4F208130E0322F222731968081A901C0
:10052000482BCA0108957F928F929F92AF92BF92FB
:10053000CF92DF92EF92FF920F931F93CF93DF93AF
:10054000EC013FE6832E912C8C0108541F4F772439
:1005500073948A549F4F7C016E0194EBC90ED11C99
:100560005E01E5EBAE0EB11CE881F9810480F581F6
:10057000E02DCE010995892B09F45AC0E881F98153
:100580000680F781E02DCE010995F801908199232D
:10059000C9F1F701208131812C0F3D1FF901E95686
:1005A000FF4F8083F7018081918101969183808341
:1005B000808191814F97C4F280E090E0FE01E80FC6
:1005C000F91FE856FF4F2081820E911C01968C3155
:1005D0009105A1F7F601808190E0982F8827F50119
:1005E0002081822B88169906C9F4CE012FE1FC01E7
:1005F000E956FF4F30817F973083215001962111BA
:10060000F6CF0CC08D3369F4F8018081882331F076
:1006100080817082F70111821082A6CFF8011082CA
:10062000F9CF823309F0A0CFF801808170829CCF8E
:10063000DF91CF911F910F91FF90EF90DF90CF90BE
:10064000BF90AF909F908F907F900895FC01E758E6
:10065000FF4F208130E0322F222731968081A9017F
:10066000482BCA010895FC01EB56FF4F208130E072
:10067000322F222731968081A901482BCA01089583
:10068000DC01E62FF0E0EE0FFF1FE65FFE4F8081FA
:100690008C93818111968C93119712966C93089587
:1006A000FC0182810895FF920F931F93CF93DF93F4
:1006B000EC01F62E8C01015E1F4FC8010E94400321
:1006C000EF2DF0E0EE0FFF1FE65FFE4F20E04081D0
:1006D0006181CE010E94B50689E791E09983888304
:1006E00069E471E0CE0182599F4F0E943D0C1DA22A
:1006F0001BA21CA288A1FE01EA58FF4F80838F8DA8
:1007000031968083C8010E94500391E0853009F042
:1007100090E09BA3DF91CF911F910F91FF900895DF
:10072000CF92DF92EF92FF92CF93DF93EC016A01B9
:100730007B0160E472E48FE090E0A70196010E94E3
:10074000AE0C3FA32EA38BA1882369F026E0B7014E
:10075000A60184E794E0DF91CF91FF90EF90DF90C6
:10076000CF900C94100AB701A601CE01DF91CF9172
:10077000FF90EF90DF90CF900C94E506CF92DF9240
:10078000EF92FF920F931F93CF93DF93FC01C6A1CB
:10079000D7A123976C01F6E7CF0ED11CF60180811B
:1007A0000E940409892BF1F400E010E0E12CF12C07
:1007B000CE010E942608F60180810E940409002EC5
:1007C00002C0880F991F0A94E2F7E82AF92A0F5FFE
:1007D0001F4F0830110561F7CE010E942608C7019E
:1007E000992702C08FEF9FEFDF91CF911F910F915B
:1007F000FF90EF90DF90CF900895FC0123A122237A
:1008000021F084E794E00C94AB090C942005FC01E2
:1008100024A1222351F020A531A54FEF5FEF51A76E
:1008200040A737FF0CC00C94BE03FC0123A1222378
:1008300021F084E794E00C9446090C94FF04C9016C
:100840000895CF93DF93EC018CA1882371F0CE0142
:100850000E94BE0388A799A7892F8095881F8827A3
:10086000881F90E0DF91CF9108958BA1882331F00C
:1008700084E794E0DF91CF910C942D09CE01DF91B4
:10088000CF910C948B051F920F920FB60F921124EB
:100890002F933F934F935F936F937F938F939F9388
:1008A000AF93BF93EF93FF938091020487FF05C03E
:1008B00010928500109284001AC020910204332700
:1008C00027FD30958091010490E0281739077CF4CA
:1008D00080910204992787FD9095FC01EE0FFF1F80
:1008E000E80FF91FED5FFB4F808187FD15C08091F8
:1008F00002048F5F8093020420910204332727FDB6
:1009000030958091010490E028173907BCF480915C
:1009100002048C305CF112C080910204992787FD9B
:100920009095FC01EE0FFF1FE80FF91FED5FFB4FE5
:10093000808160E08F770E94CE08D9CF80918400BB
:1009400090918500049680349C4918F480E49CE9D9
:1009500005C0809184009091850004969093890051
:10096000809388008FEF8093020438C02091840028
:100970003091850080910204992787FD9095FC01B4
:10098000EE0FFF1FE80FF91FED5FFB4F8181928192
:10099000820F931F909389008093880080910204B6
:1009A000992787FD9095FC01EE0FFF1FE80FF91FB7
:1009B000ED5FFB4F808187FF11C080910204992772
:1009C00087FD9095FC01EE0FFF1FE80FF91FED5F0B
:1009D000FB4F808161E08F770E94CE08FF91EF91FD
:1009E000BF91AF919F918F917F916F915F914F9147
:1009F0003F912F910F900FBE0F901F90189520914F
:100A0000690430916A0428173907B9F490912704D2
:100A100080912804981789F0E0912704F0E0E75DC1
:100A2000FB4F80812091270430E02F5F3F4F2F73D1
:100A300033272093270490E008958FEF9FEF0895C8
:100A40001F93CF93DF93DC015C968D919C915D9712
:100A5000009749F481E090E013969C938E9312974F
:100A600080E090E03BC05196ED91FC9152975096FA
:100A70002C915097322F30951FB75E964C915E9710
:100A800041FB772770F941FD6095F8944081772309
:100A900011F0422B01C043234083EC012197F1F771
:100AA00048E0508160FF02C0522B01C053235083A5
:100AB000EC012197F1F76695415099F780817723F2
:100AC00011F0832301C0822B80831FBF5C968D9120
:100AD0009C915D970197F1F781E090E0DF91CF91D4
:100AE0001F91089508952091690430916A04281790
:100AF000390771F49091270480912804981741F0E8
:100B0000E0912704F0E0E75DFB4F808190E00895DD
:100B10008FEF9FEF08952091690430916A042817A0
:100B2000390771F4809128042091270490E0805CBB
:100B30009F4F821B910960E470E00E94780C089539
:100B400080E090E00895E0916904F0916A04E8176C
:100B5000F90769F4A389B4899C91858980958923D3
:100B60008C9310926A041092690481E0089580E0E9
:100B70000895CF93DF93EC018A8D9B8D892BF1F043
:100B80008091690490916A048C179D07B9F00097D1
:100B900011F00E94A3058E8D8E7F8E8F10922804F7
:100BA00010922704D0936A04C0936904EB89FC89EE
:100BB00080819D89892B808381E001C080E0DF9165
:100BC000CF9108951F920F920FB60F9211242F9379
:100BD0003F934F935F936F937F938F939F93AF93C5
:100BE000BF93EF93FF93E0916904F0916A0430970B
:100BF00009F451C0868DA685B785958581FF04C00F
:100C00008C91892329F447C08C91892309F043C032
:100C1000A389B4899C918589809589238C93868941
:100C200097890197F1F7208D318DA685B785758558
:100C300058E040E0C9010197F1F7842F90E09595C5
:100C40008795482F6C91672309F04068515091F7C0
:100C5000868D81FD40958091280490E001968F73E8
:100C6000992720912704281749F0A0912804B0E083
:100C7000A75DBB4F4C938093280403C0868D816091
:100C8000868F828D938D0197F1F7A389B4898C911A
:100C90009589892B8C93FF91EF91BF91AF919F9193
:100CA0008F917F916F915F914F913F912F910F9015
:100CB0000FBE0F901F90189529E831E0FC01318399
:100CC00020830C94A3051F93CF93DF93EC01162F81
:100CD0006E8D6695617081E06827812F0E94CE0835
:100CE00061E0812F0E949508812F90E0FC01E4587B
:100CF000FF4FE491E88BFC01E057FF4FE491F0E0F7
:100D0000EE0FFF1FE255FF4F859194919A8B898BCF
:100D1000DF91CF911F9108951F93CF93DF93EC0143
:100D2000162F60E0812F0E9495088E8D81FD04C0F2
:100D300061E0812F0E94CE081C87812F90E0FC018A
:100D4000E458FF4FE491ED87FC01E057FF4FE49139
:100D5000F0E0EE0FFF1FEC55FF4F859194919F87B8
:100D60008E87DF91CF911F910895FF920F931F936C
:100D7000CF93DF93EC01F62E522F1B821A8208EEDE
:100D800013E020E030E00C831D832E833F8389E84D
:100D900091E0998388831F8A1E8A198E188E1B8E74
:100DA0001A8E1D8E1C8E8E8D8E7F50FB81F98E8F3C
:100DB000642FCE010E9463066F2DCE01DF91CF918B
:100DC0001F910F91FF900C948C06CF93DF93EC0151
:100DD0009A01AB011B8E1A8E198E188E1F8A1E8ADD
:100DE00060E079E08DE390E00E94AE0CC901243010
:100DF000310520F0B9016350710902C061E070E073
:100E00007D8F6C8FEC85E63108F068C0B90176956E
:100E100067956431710518F06351710902C061E092
:100E200070E07F8B6E8B069718F0C901059702C0A2
:100E300081E090E0998F888FC901880F991F820FF8
:100E4000931F96958795969587958D30910510F00F
:100E50000C9702C081E090E09B8F8A8F2091680000
:100E6000E83050F091E0EE3008F490E081E001C00D
:100E7000880F9A95EAF701C084E0822B809368007E
:100E80002C85283038F02E3040F0263148F48CE69E
:100E900090E008C08DE690E005C08BE690E002C0CF
:100EA00080E090E09C8B8B8B283030F481E001C097
:100EB000880F2A95EAF70DC0822F90E02E3010F4AB
:100EC000089701C00E9791E001C0990F8A95EAF743
:100ED000892F8D8B8C8D9D8D0197F1F7CE01DF9140
:100EE000CF910C94B9051F920F920FB60F92112457
:100EF0002F933F938F939F93AF93BF9380916C04F5
:100F000090916D04A0916E04B0916F0430916B04C8
:100F100023E0230F2D3720F40196A11DB11D05C03C
:100F200026E8230F0296A11DB11D20936B04809328
:100F30006C0490936D04A0936E04B0936F04809141
:100F4000700490917104A0917204B09173040196A1
:100F5000A11DB11D8093700490937104A09372043D
:100F6000B0937304BF91AF919F918F913F912F9157
:100F70000F900FBE0F901F9018952FB7F8946091A7
:100F80006C0470916D0480916E0490916F042FBF7A
:100F900008953FB7F8948091700490917104A091E6
:100FA0007204B091730426B5A89B05C02F3F19F0B9
:100FB0000196A11DB11D3FBF6627782F892F9A2F5B
:100FC000620F711D811D911D42E0660F771F881F02
:100FD000991F4A95D1F708958F929F92AF92BF9231
:100FE000CF92DF92EF92FF926B017C010E94C907C2
:100FF0004B015C01C114D104E104F104F1F00E9441
:10100000630C0E94C907681979098A099B09683E1F
:1010100073408105910570F321E0C21AD108E108FF
:10102000F10888EE880E83E0981EA11CB11CC11443
:10103000D104E104F10429F7DDCFFF90EF90DF90B8
:10104000CF90BF90AF909F908F9008958230910580
:1010500038F0880F991F880F991F05970197F1F7AE
:101060000895789484B5826084BD84B5816084BD20
:1010700085B5826085BD85B5816085BDEEE6F0E011
:10108000808181608083E1E8F0E01082808182606D
:101090008083808181608083E0E8F0E080818160EE
:1010A0008083E1EBF0E0808184608083E0EBF0E01E
:1010B000808181608083EAE7F0E0808184608083C2
:1010C000808182608083808181608083808180686C
:1010D00080831092C1000895833081F028F481301C
:1010E00099F08230A1F008958730A9F08830B9F0E6
:1010F0008430D1F4809180008F7D03C08091800086
:101100008F7780938000089584B58F7702C084B56F
:101110008F7D84BD08958091B0008F7703C080914A
:10112000B0008F7D8093B0000895CF93DF9390E05F
:10113000FC01E458FF4F2491FC01E057FF4F8491DC
:10114000882349F190E0880F991FFC01E854FF4F74
:10115000A591B49182559F4FFC01C591D4919FB741
:10116000611108C0F8948C91209582238C9388811A
:1011700082230AC0623051F4F8948C91322F30955A
:1011800083238C938881822B888304C0F8948C916C
:10119000822B8C939FBFDF91CF9108950F931F9364
:1011A000CF93DF931F92CDB7DEB7282F30E0F90140
:1011B000E859FF4F8491F901E458FF4F1491F90168
:1011C000E057FF4F04910023C9F0882321F0698381
:1011D0000E946C086981E02FF0E0EE0FFF1FE255DE
:1011E000FF4FA591B4919FB7F8948C91611103C002
:1011F0001095812301C0812B8C939FBF0F90DF91AD
:10120000CF911F910F910895CF93DF93282F30E056
:10121000F901E859FF4F8491F901E458FF4FD49147
:10122000F901E057FF4FC491CC2391F081110E9446
:101230006C08EC2FF0E0EE0FFF1FEC55FF4FA5916F
:10124000B4912C912D2381E090E021F480E002C044
:1012500080E090E0DF91CF910895FC01818D228D97
:1012600090E0805C9F4F821B91098F7399270895AE
:10127000FC01918D828D981731F0828DE80FF11D60
:10128000858D90E008958FEF9FEF0895FC01918D7B
:10129000828D981761F0828DDF01A80FB11D5D96D8
:1012A0008C91928D9F5F9F73928F90E008958FEF46
:1012B0009FEF08958AEC9AE0892B49F080E090E056
:1012C000892B29F00E94CA0A81110C94000008950C
:1012D000FC01848DDF01A80FB11DA35ABF4F2C91D3
:1012E000848D90E001968F739927848FA689B789A2
:1012F0002C93A089B1898C9180648C93938D848D7B
:10130000981306C00288F389E02D80818F7D808349
:101310000895CF93DF93EC01888D8823C9F0EA8983
:10132000FB89808185FD05C0A889B9898C9186FDDE
:101330000FC00FB607FCF5CF808185FFF2CFA889DB
:10134000B9898C9185FFEDCFCE010E946809E7CF66
:10135000DF91CF910895CF92DF92FF920F931F9369
:10136000CF93DF931F92CDB7DEB76C0181E0D6013A
:1013700058968C9358975B969C915B975C968C9152
:101380005C97981307C05096ED91FC91519780811E
:1013900085FD2EC0F601038D10E00F5F1F4F0F7308
:1013A0001127F02EF601848DF81211C00FB607FC3C
:1013B000F9CFD6015096ED91FC915197808185FF30
:1013C000F1CFC60169830E9468096981EBCF838DE3
:1013D000E80FF11DE35AFF4F6083D6015B960C9333
:1013E0005B975296ED91FC915397808180620CC07F
:1013F000D6015696ED91FC91579760835096ED91EA
:10140000FC91519780818064808381E090E00F900F
:10141000DF91CF911F910F91FF90DF90CF900895B2
:10142000BF92CF92DF92EF92FF92CF93DF93EC01C6
:101430006A017B01B22EE889F98982E08083411537
:1014400081EE580761057105A1F060E079E08DE358
:1014500090E0A70196010E948C0C215031094109AE
:1014600051095695479537952795211580E13807FD
:1014700098F0E889F989108260E874E88EE190E0DC
:10148000A70196010E948C0C215031094109510994
:101490005695479537952795EC85FD853083EE85E4
:1014A000FF852083188EEC89FD89B082EA89FB894B
:1014B000808180618083EA89FB8980818860808364
:1014C000EA89FB89808180688083EA89FB89808141
:1014D0008F7D8083DF91CF91FF90EF90DF90CF9051
:1014E000BF9008951F920F920FB60F9211242F9361
:1014F0008F939F93EF93FF93E0918404F091850481
:101500008081E0918A04F0918B0482FD12C0908169
:1015100080918D048F5F8F7320918E04821751F01C
:10152000E0918D04F0E0EC58FB4F958F80938D0493
:1015300001C08081FF91EF919F918F912F910F902A
:101540000FBE0F901F9018951F920F920FB60F921B
:1015500011242F933F934F935F936F937F938F93B8
:101560009F93AF93BF93EF93FF9384E794E00E9420
:101570006809FF91EF91BF91AF919F918F917F91FA
:101580006F915F914F913F912F910F900FBE0F90F0
:101590001F90189584E794E00E942D0921E0892B83
:1015A00009F420E0822F08951092770410927604B7
:1015B00088EE93E0A0E0B0E0809378049093790403
:1015C000A0937A04B0937B0489E991E09093750429
:1015D0008093740485EC90E0909381048093800460
:1015E00084EC90E0909383048093820480EC90E0FC
:1015F000909385048093840481EC90E09093870419
:101600008093860482EC90E0909389048093880410
:1016100086EC90E090938B0480938A0410928D0462
:1016200010928E0410928F04109290040895CF921D
:10163000DF92EF92FF920F931F93CF93DF937C0182
:101640006A01EB0100E010E00C151D0571F06991D5
:10165000D701ED91FC910190F081E02DC701099532
:10166000892B19F00F5F1F4FEFCFC801DF91CF918A
:101670001F910F91FF90EF90DF90CF90089561152B
:10168000710581F0DB010D900020E9F7AD014150BB
:101690005109461B570BDC01ED91FC910280F3814F
:1016A000E02D099480E090E008950C943F0B65EAEA
:1016B00071E00C943F0B0F931F93CF93DF93EC01DA
:1016C0000E943F0B8C01CE010E94570B800F911F8F
:1016D000DF91CF911F910F9108958F929F92AF92BA
:1016E000BF92DF92EF92FF920F931F93CF93DF93FE
:1016F000CDB7DEB7A1970FB6F894DEBF0FBECDBF52
:101700007C01F42FD52ECB0119A2223008F42AE057
:101710008E010F5D1F4F822E912CA12CB12C6F2FAB
:101720007D2DA50194010E948C0CF22FD32ECA01AD
:10173000015011096A3014F4E0E301C0E7E3E60F59
:10174000D801EC93232B242B252B49F7B801C70193
:101750000E943F0BA1960FB6F894DEBF0FBECDBF1F
:10176000DF91CF911F910F91FF90EF90DF90BF908D
:10177000AF909F908F9008952115310541F4DC01C1
:10178000ED91FC910190F081E02D642F09940C946F
:101790006D0B9A01AB0160E070E00C94BC0BFC0196
:1017A000808191810C946B0DCF93DF93EC01888144
:1017B0009981009711F00E946B0D198218821D8289
:1017C0001C821B821A82DF91CF9108950F931F9381
:1017D000CF93DF93EC018B016F5F7F4F88819981FD
:1017E0000E94FA0D009731F0998388831B830A8346
:1017F00081E001C080E0DF91CF911F910F910895AA
:10180000CF93DF93EC0188819981892B29F08A811C
:101810009B818617970760F4CE010E94E60B882310
:1018200041F08C819D81892B19F4E881F981108226
:1018300081E0DF91CF910895EF92FF920F931F9374
:10184000CF93DF93EC017B018A01BA010E94000C67
:10185000811104C0CE010E94D40B07C01D830C83EC
:10186000B701888199810E94CD0ECE01DF91CF9181
:101870001F910F91FF90EF900895FC01118210824B
:1018800013821282158214826115710559F0FB01D1
:1018900001900020E9F7AF0141505109461B570B59
:1018A0000C941C0C089508950E9431080E94530C5A
:1018B0000E949000CAE5D9E00E94AD002097E1F3B4
:1018C0000E945A09F9CF0895AA1BBB1B51E107C01A
:1018D000AA1FBB1FA617B70710F0A61BB70B881FC0
:1018E000991F5A95A9F780959095BC01CD0108954F
:1018F00097FB072E16F4009407D077FD09D00E94BD
:10190000640C07FC05D03EF4909581959F4F089597
:10191000709561957F4F0895A1E21A2EAA1BBB1BFB
:10192000FD010DC0AA1FBB1FEE1FFF1FA217B307AB
:10193000E407F50720F0A21BB30BE40BF50B661FC1
:10194000771F881F991F1A9469F760957095809585
:1019500090959B01AC01BD01CF010895052E97FB29
:101960001EF400940E94C50C57FD07D00E948C0CF9
:1019700007FC03D04EF40C94C50C5095409530955F
:1019800021953F4F4F4F5F4F0895909580957095EB
:1019900061957F4F8F4F9F4F0895EE0FFF1F05906A
:1019A000F491E02D0994CF93DF938230910510F4E8
:1019B00082E090E0E0911305F091140520E030E022
:1019C000A0E0B0E0309739F14081518148175907C4
:1019D000B8F04817590771F482819381109729F064
:1019E00013969C938E9312972CC09093140580931A
:1019F000130527C02115310531F04217530718F0A0
:101A0000A901DB0101C0EF019A01BD01DF010280E4
:101A1000F381E02DD7CF21153105F9F0281B390BC3
:101A20002430310580F48A819B816115710521F094
:101A3000FB019383828304C0909314058093130564
:101A4000FE01329644C0FE01E20FF31F8193919391
:101A500022503109398328833AC0209111053091F1
:101A60001205232B41F420910201309103013093A0
:101A700012052093110520910001309101012115DB
:101A8000310541F42DB73EB7409104015091050155
:101A9000241B350BE0911105F0911205E217F307B5
:101AA000A0F42E1B3F0B2817390778F0AC014E5FCE
:101AB0005F4F2417350748F04E0F5F1F50931205F4
:101AC000409311058193919302C0E0E0F0E0CF01D3
:101AD000DF91CF910895CF93DF93009709F487C0EA
:101AE000FC01329713821282C0911305D091140524
:101AF000209781F420813181280F391F80911105B1
:101B0000909112058217930779F5F0931205E093EF
:101B100011056DC0DE0120E030E0AE17BF0750F4C4
:101B200012964D915C9113979D014115510509F154
:101B3000DA01F3CFB383A28340815181840F951FD3
:101B40008A179B0771F48D919C911197840F951FB3
:101B500002969183808312968D919C911397938323
:101B600082832115310529F4F0931405E0931305C0
:101B70003EC0D9011396FC93EE9312974D915D915F
:101B8000A40FB51FEA17FB0779F480819181840FB8
:101B9000951F0296D90111969C938E938281938111
:101BA00013969C938E931297E0E0F0E08A819B81DC
:101BB000009719F0FE01EC01F9CFCE0102962881C1
:101BC0003981820F931F209111053091120528173A
:101BD000390769F4309729F410921405109213050F
:101BE00002C013821282D0931205C0931105DF91B7
:101BF000CF910895A0E0B0E0E0E0FEE00C94D80EB4
:101C0000EC01CB01209719F40E94D30CB8C0FE015F
:101C1000E60FF71F9E0122503109E217F30708F47F
:101C2000ACC0D9010D911C91119706171707B8F098
:101C30000530110508F49FC0A8014450510946170A
:101C4000570708F498C002501109061B170B01939F
:101C500011936D937C93CF010E946B0D8CC05B013F
:101C6000A01AB10A4E01800E911EA0911305B091E9
:101C70001405612C712C60E070E0109709F449C0E4
:101C8000A815B905C9F5ED90FC901197670142E0E0
:101C9000C40ED11CCA14DB0478F147018A189B08D2
:101CA000640142E0C40ED11C1296BC9012971396A8
:101CB000AC91B5E0CB16D10440F0B282A3839182FF
:101CC0008082D9018D939C9309C00E5F1F4F0E0D2A
:101CD0001F1DF90111830083EB2DFA2F611571058A
:101CE00031F0DB011396FC93EE93129744C0F0930E
:101CF0001405E09313053FC06D917C911197661612
:101D0000770608F43B01BD0112960D90BC91A02D01
:101D1000B4CF609111057091120568157905E9F449
:101D200068167906D0F440910001509101014115E7
:101D3000510541F44DB75EB7609104017091050102
:101D4000461B570BE417F507C0F4F0931205E09318
:101D50001105F901918380830EC00E94D30C7C0190
:101D6000009759F0A801BE010E94C40ECE010E9446
:101D70006B0DC70104C0CE0102C080E090E0CDB77A
:101D8000DEB7EEE00C94F40EFB01DC0102C0019022
:101D90000D9241505040D8F70895FB01DC010190AD
:101DA0000D920020E1F708952F923F924F925F929B
:101DB0006F927F928F929F92AF92BF92CF92DF925B
:101DC000EF92FF920F931F93CF93DF93CDB7DEB7C0
:101DD000CA1BDB0B0FB6F894DEBF0FBECDBF099454
:101DE0002A88398848885F846E847D848C849B84AB
:101DF000AA84B984C884DF80EE80FD800C811B81B9
:101E0000AA81B981CE0FD11D0FB6F894DEBF0FBEE7
:101E1000CDBFED01089510E0C8ECD0E004C0FE0194
:101E20000E94CF0C2296CC3CD107C9F7F894FFCF83
:101E30000000150580000100000000000B0A0309E6
:101E40000C0D080200001011140F150E06070504F2
:101E500000000000000000000000000073657475C1
:101E6000702E2E2E21006C656E3D00506D312E308F
:101E70003D0075672F6D5E330900506D322E353D84
:101E800000506D31303D0075672F6D5E3300636823
:101E900065636B3D0000000000FD03170B21040784
:101EA000047305720500000000FD03170B210407F1
:101EB0000473057205000000002005170B8B05FF59
:101EC000047305720500000000AB09170B2D0946CD
:101ED00009380989090D0A006E616E00696E660095
:061EE0006F7666002E0083
:107E0000112484B714BE81FFF0D085E080938100F7
:107E100082E08093C00088E18093C10086E0809377
:107E2000C20080E18093C4008EE0C9D0259A86E02C
:107E300020E33CEF91E0309385002093840096BBD3
:107E4000B09BFECF1D9AA8958150A9F7CC24DD24C4
:107E500088248394B5E0AB2EA1E19A2EF3E0BF2EE7
:107E6000A2D0813461F49FD0082FAFD0023811F036
:107E7000013811F484E001C083E08DD089C08234E0
:107E800011F484E103C0853419F485E0A6D080C0E4
:107E9000853579F488D0E82EFF2485D0082F10E0AE
:107EA000102F00270E291F29000F111F8ED06801E7
:107EB0006FC0863521F484E090D080E0DECF843638
:107EC00009F040C070D06FD0082F6DD080E0C81688
:107ED00080E7D80618F4F601B7BEE895C0E0D1E017
:107EE00062D089930C17E1F7F0E0CF16F0E7DF06D8
:107EF00018F0F601B7BEE89568D007B600FCFDCFD4
:107F0000A601A0E0B1E02C9130E011968C91119780
:107F100090E0982F8827822B932B1296FA010C0160
:107F200087BEE89511244E5F5F4FF1E0A038BF0790
:107F300051F7F601A7BEE89507B600FCFDCF97BE46
:107F4000E89526C08437B1F42ED02DD0F82E2BD052
:107F50003CD0F601EF2C8F010F5F1F4F84911BD097
:107F6000EA94F801C1F70894C11CD11CFA94CF0C13
:107F7000D11C0EC0853739F428D08EE10CD085E9AC
:107F80000AD08FE07ACF813511F488E018D01DD067
:107F900080E101D065CF982F8091C00085FFFCCF94
:107FA0009093C60008958091C00087FFFCCF809118
:107FB000C00084FD01C0A8958091C6000895E0E648
:107FC000F0E098E1908380830895EDDF803219F02E
:107FD00088E0F5DFFFCF84E1DECF1F93182FE3DFCA
:107FE0001150E9F7F2DF1F91089580E0E8DFEE27F6
:047FF000FF270994CA
:027FFE00040479
:0400000300007E007B
:00000001FF
