:100000000C941D020C9445020C9445020C9445027C
:100010000C9445020C9445020C9445020C94FE1C71
:100020000C9445020C9445020C9445020C94820AEF
:100030000C9445020C9445020C9445020C94450224
:100040000C9473270C9445020C94082B0C943A2BB7
:100050000C9445020C9445020C9445020C94450204
:100060000C94250E0C944502FE081E073207480723
:1000700048076107F1084807430943094309430951
:10008000430976079207CA074309DE07BF074309FA
:1000900043090F0843098608A208C50862084309F6
:1000A000430943090D091509430943094309480850
:1000B00043094309430943094309430943094309E0
:1000C0004309430943094309430943092A09084AE3
:1000D000D73B3BCE016E84BCBFFDC12F3D6C74315C
:1000E0009ABD56833DDA3D00C77F11BED9E4BB4CB3
:1000F0003E916BAAAABE000000803F08000000BE2F
:10010000922449123EABAAAA2ABECDCCCC4C3E00CA
:10011000000080BEABAAAAAA3E00000000BF0000FB
:1001200000803F0000000000084178D3BB4387D126
:10013000133D190E3CC3BD4282AD2B3E68EC827666
:10014000BED98FE1A93E4C80EFFFBE01C4FF7F3FC7
:10015000000000000007634236B79BD8A71A396831
:100160005618AEBAAB558C1D3CB7CC5763BD6DED80
:10017000FD753EF6177231BF000000803F000E0093
:100180000F001000110012001300140015003F06AC
:100190005B4F666D7D077F6F777C395E7971BF86B7
:1001A000DBCFE6EDFD87FFEFF7FCB9DEF9F10040AC
:1001B0007C447C00007C5C547454547C70107C74CF
:1001C000545C7C545C40407C7C547C74547C2000A7
:1001D000000000000030007C82827C00310042FE82
:1001E0000200003200468A92620033004492926C10
:1001F0000034001C64FE04003500F292928C00363C
:10020000007C92924C003700C08E90E00038006C69
:1002100092926C0039006492927C006100042A2A58
:100220001E006200FE12120C0063000C121212007B
:1002300064000C1212FE0065001C2A2A18006600D9
:10024000103E50500067000815151E006800FE1093
:100250001E00006900002E0000006A0002012E004E
:10026000006B00FE081412006C0000FE0200006D1E
:10027000001E100E100E6E001E10100E006F000CEF
:1002800012120C0070001F12120C0071000C1212DE
:100290001F0072001E0810100073001229251200A2
:1002A0007400103E12000075001C02021E00761839
:1002B00004020418007718061C0618007800120CB7
:1002C0000C120079001805051E007A0012161A1289
:1002D0000041007E88887E004200FE92926C0043BE
:1002E000007C828244004400FE82827C004500FE45
:1002F000929282004600FE9090800047007C82929D
:100300005C004800FE1010FE00490082FE820000E2
:100310004A000C0202FC004B00FE1028C6004C00F4
:10032000FE020202004D00FE403040FE4E00FE4044
:100330003008FE4F007C8282827C5000FE909060EC
:100340000051007C828A847A5200FE9894620053A5
:10035000006492924C00540080FE8080005500FCA6
:100360000202FC005600F00C020CF05700FE0438AC
:1003700004FE5800C63838C60059C0201E20C000F0
:100380005A00869AB2C2002C00010E0C00002E000A
:100390000006060000257254781E2A4E2100007ABD
:1003A0000000003F00204A3000002D001010101007
:1003B000002B08083E0808002F00020C3040002ADD
:1003C0002214081422003A0000140000004000002B
:1003D0000000000000000008000201000003040704
:1003E000000000000000000001020408102040800E
:1003F000010204081020010204081020040404046F
:1004000004040404020202020202030303030303BE
:100410000000000023002600290000000000250045
:1004200028002B0000000000240027002A00C0053F
:10043000430DF6176A2B1806FA1711241FBECFEFCB
:10044000D8E0DEBFCDBF12E0A0E0B1E0E0EBFDE61A
:1004500002C005900D92A63AB107D9F727E0A6EAA7
:10046000B2E001C01D92AF38B207E1F714E0C6E375
:10047000D4E004C02297FE010E943234CE32D1076C
:10048000C9F70E94AE2B0C94CB360C940000CF928F
:10049000DF92EF92FF920F931F93E82FF92F05C081
:1004A000015011092109310961F1908196239417B6
:1004B000B9F305C0015011092109310911F19081E9
:1004C00096239413F7CFC12CD12CE12CF12C0AC028
:1004D0008FEFC81AD80AE80AF80A0C151D052E0570
:1004E0003F0579F080818623841791F36C2D7D2D53
:1004F0008E2D9F2D1F910F91FF90EF90DF90CF9049
:10050000089560E070E080E090E01F910F91FF900F
:10051000EF90DF90CF90089580EE93E00C94E4117B
:1005200061E08DE00E94FF2861E08DE00E943829A3
:100530006CE271E080E090E00E94EC2760E08DE0EA
:100540000E94382926E040E052EC61E070E088EE3D
:1005500096E00E94A62A64EF71E080E090E00E949D
:10056000EC2722E330E040E050E064EF71E080EE01
:1005700093E00E94811162E370E080E090E00E94CD
:10058000EC270E948C028CEB93E00E94B31D6DE07F
:1005900087E294E00E94722520E040E060E087E27C
:1005A00094E00E943D2687E294E00E946A268BE751
:1005B00093E00E949B1B69E271E088EE96E00E9446
:1005C000092C6EE273E088EE96E00C94162C88EE0F
:1005D00096E00C94122CFC01E750FD4F8081809333
:1005E00034038181809335038091340390913503E6
:1005F0000895AEE3B3E0FC01E750FD4F80818C939A
:10060000818180933F038281809340038381809323
:1006100041036D917D918D919C910895E6EBF2E0FF
:1006200020E030E087509D4F2617370744F4DC0167
:10063000A20FB31F4C9141932F5F3F4FF5CFFB01AA
:10064000EA54FD4F108286EB92E00895E6EAF2E06C
:1006500020E030E087509D4F261737075CF42031AB
:10066000310541F0DC01A20FB31F4C9141932F5F84
:100670003F4FF2CF86EA92E00895E5EEF2E020E007
:1006800030E0419151914817590791F0452B41F4C1
:10069000F901EE0FFF1FEB51FD4F9183808308C0DE
:1006A0002F5F3F4F2830310561F780E090E00895DB
:1006B000C9010895BF92CF92DF92EF92FF920F93FC
:1006C0001F93CF93DF93CDB7DEB72E970FB6F89475
:1006D000DEBF0FBECDBFD090FF020D2D10E08D30DC
:1006E000910509F47EC184F58830910509F461C053
:1006F00014F58330910509F45FC1059709F030C204
:1007000086E090E00E94EB028C0169E086E494E0D0
:100710000E940125B80186E494E00E94CD1788E08C
:1007200090E00E94EB028C016AE086E494E00E9473
:100730000125B80139C08A30910519F10CF484C043
:100740000B9709F45CC00CC28132910509F4DBC13E
:1007500064F48E31910509F4A4C18032910509F445
:10076000AAC1449709F0FCC178C18932910509F406
:1007700083C08233910509F4E1C1829709F0F0C189
:10078000A6C187E090E00E94EB027C0186E494E041
:100790000E94AD2490E08017910729F06D2D86E42A
:1007A00094E00E940125B70186E494E00E94CD17F1
:1007B000D7C1E090010310910203F0900303009170
:1007C0000403409100036D2D87E294E00E942A25E6
:1007D000EE2049F06FEF6E0D2F2D412F87E294E050
:1007E0000E94EC2507C0202F4F2D612F87E294E057
:1007F0000E943D2687E294E00E946A26B1C1809162
:100800000003000F111FF801E65FFE4F813011F465
:10081000E08001C0E180D090010384EB8D1508F4E5
:100820009FC1F12CC7010E943D038C01000F111FD5
:10083000080F191F065B1B4FB701C8010E94D80B98
:100840006D2D70E0C80177C189E194E00E94AD246C
:1008500090E08017910729F06D2D89E194E00E94C6
:10086000E81087E090E00E94F902AB01BC0189E149
:1008700094E00E940A1174C184EE93E00E94AD24BA
:10088000282F30E02017310729F06D2D84EE93E0FA
:100890000E9422208091000390E08130910579F53B
:1008A000D0900103B09002038AE090E00E94EB0236
:1008B0008C018CE090E00E94EB02C82E609107034F
:1008C00070E08FE090E00E940E037C0184EE93E0E4
:1008D0000E94012061E0B11001C060E084EE93E06D
:1008E0000E944B206D2D84EE93E00E94172097010B
:1008F0004C2DB80184EE93E00E94452231C1823034
:10090000910579F5E0900103209102038AE090E0DF
:100910002D870E94EB02F82E8CE090E00E94EB0203
:10092000482FE09107036E2F70E08FE090E04E8734
:100930000E9426038C0184EE93E00E94012061E076
:1009400084EE93E00E944B206E2D84EE93E00E9493
:1009500017202D854E856F2D84EE93E00E944E204A
:10096000FFC0039709F0FCC0F0900103009102035F
:100970008AE090E00E94EB02182F8CE090E00E9449
:10098000EB02482F84EE93E04E870E94012061E045
:1009900084EE93E00E944B206F2D84EE93E00E9442
:1009A000172021E04E85011101C020E0612F84EE67
:1009B00093E00E948022D4C085E194E00E94AD249F
:1009C000282F30E02017310729F06D2D85E194E0C4
:1009D0000E94012561E080910003811154C060E014
:1009E00052C069E972E0CE0107960E94932E0091F1
:1009F000FB0210E0035011096FEFC62E62E0D62E05
:100A0000E12CF12CE016F1065CF4F60161916F0126
:100A1000CE0107960E940D2FFFEFEF1AFF0AF2CFCB
:100A2000BE01695F7F4FCE0101960E94C02EBE01BC
:100A30006F5F7F4F8CEB93E00E94131FCE010196F6
:100A40000E94252E69E972E0CE0107960E94C92E08
:100A5000CE0107960E94252E83C085E194E00E9476
:100A6000AD24282F30E02017310729F06D2D85E1C6
:100A700094E00E94012560910003862F90E082306F
:100A8000910534F4617085E194E00E94D52468C03A
:100A900061E0029709F460E085E194E00E94E524BA
:100AA0005FC061E08D2D0E94FF28609100038D2DB5
:100AB0000E94382955C061E08D2D0E94FF282091A9
:100AC0000003622F70E08D2D0E94772849C086E0D8
:100AD00090E00E94EB028C0188E090E00E94EB0223
:100AE000101611065CF49C01442737FD4095542FE5
:100AF000B80180EE93E00E94811132C080EE93E055
:100B00000E94E4112DC0D090000384EB8D1540F1BC
:100B1000C8010E943D037C01EE0CFF1CE80EF91E8B
:100B2000F701E65BFB4F7F01B801CF010E94D80BB4
:100B30006D2D70E0C7010E94110C12C00E94BD27EC
:100B40000E94983020E030E04AE754E40E94FF2FF2
:100B50006093D4027093D5028093D6029093D7020B
:100B60002E960FB6F894DEBF0FBECDBFDF91CF91AA
:100B70001F910F91FF90EF90DF90CF90BF9008955D
:100B8000CF93DF93CAE4D4E0CE010E943E0B2396BC
:100B900084E0C236D807C1F786E494E00E94CA1701
:100BA00084E394E00E948A264EE160E087E294E0CC
:100BB0000E94BA2583E294E00E94162789E194E01E
:100BC0000E94520F85E194E00E94942484EE93E009
:100BD0000E94CC1F80EE93E00E947B118CEB93E08F
:100BE0000E94C61D8BE793E00E94321887E793E0CE
:100BF0000E94521F80E593E00E94EE118AE493E088
:100C00000E941B1C86E493E00E94FE1782E493E09E
:100C10000E94181863E371E08EE293E00E94932E25
:100C200069E972E088ED92E0DF91CF910C94932E08
:100C300088ED92E00E94252E8EE293E00E94252E00
:100C400086ED93E00E94252E80ED93E00E94252EF4
:100C500087E294E00C947E26682F88EE96E00C9450
:100C6000412A8FEF0E942C0685E50C942C068FEF0D
:100C70000E942C0685E50E942C060C94E702CF9377
:100C8000C82F81E00E942C068C2FCF910C942C064B
:100C9000EF92FF920F931F93CF93DF937C01FC01A0
:100CA000C4810C2F158184E00E942C068C2F0E9499
:100CB0002C06C0E0D0E0C017D10744F4BE01C70144
:100CC0000E94312F0E942C062196F5CFDF91CF9103
:100CD0001F910F91FF90EF900895FF920F931F9334
:100CE000CF93DF931F92CDB7DEB78B01F82E82E052
:100CF00099830E942C06A8016F2D9981792F40932A
:100D00003E0350933F036093400370934103802F51
:100D10000E942C0680913F030E942C068091400384
:100D20000E942C06809141030F90DF91CF911F917B
:100D30000F91FF900C942C06CF92DF92EF92FF92CE
:100D40006B017C0183E00E942C06C701B6010E9462
:100D50006730862F262F372F3093350320933403A7
:100D60000E942C06809135030E942C068091360348
:100D70000E942C0680913703FF90EF90DF90CF9078
:100D80000C942C06FF920F931F93CF93DF931F9227
:100D9000CDB7DEB78B01F82E85E099830E942C0633
:100DA000A8016F2D9981792F409336035093370313
:100DB0006093380370933903802F0E942C06809132
:100DC00037030E942C06809138030E942C068091E4
:100DD00039030E942C0680913A030E942C068091D0
:100DE0003B030E942C0680913C030E942C068091BC
:100DF0003D030F90DF91CF911F910F91FF900C94C5
:100E00002C06CF92DF92EF92FF920F931F93CF9316
:100E1000DF93CDB7DEB727970FB6F894DEBF0FBECE
:100E2000CDBFD090FF020D2D10E08333910508F067
:100E30002AC2FC01EC5CFF4F0C94303483E294E056
:100E40000E94AD2490E08017910729F06D2D83E278
:100E500094E00E94012560E573EC83E294E00E9437
:100E60005E2700C2F090000384E394E00E94AD246A
:100E700090E08017910709F0F8C184E394E00E94A4
:100E8000B0248F11F2C184E394E00E94A826EAC145
:100E900085E194E00E94AD2490E08017910761F015
:100EA0006D2D85E194E00E94012585E194E00E948A
:100EB000272560E00E94FF2885E194E00E94F92444
:100EC000C1C1F090000387E793E00E94AD2490E059
:100ED0008017910729F06D2D87E793E00E94012587
:100EE0006F2D87E793E00E94551FACC18091DE0211
:100EF000882309F4C8C168ED72E0CE0101960E9412
:100F0000C02ECE0101960E944806CE0101960E9495
:100F1000252E1092DE0269E972E088ED92E00E94CF
:100F2000C92EB1C1109100030E94BD270E949830C4
:100F300020E030E04AE754E40E94FF2F2091CC02E9
:100F40003091CD024091CE025091CF020E94342FB9
:100F50002DEC3CEC4CE45EE30E94C23118165CF0D0
:100F60004091DF02552747FD5095212F30E081E069
:100F70004217530709F080E00E943F0606C08091A7
:100F8000DF020E943F061092DF021092E1021092EF
:100F9000E00279C185E194E00E94AD2490E08017E1
:100FA000910709F469C06D2D85E194E00E94012547
:100FB00085E194E00E94272560E05CC085E194E033
:100FC0000E94AD2490E08017910799F06D2D85E186
:100FD00094E00E94012585E194E00E94242560E0D0
:100FE0000E94FF2885E194E00E94272560E00E948E
:100FF000FF2860E085E194E00E94B324182F60E0B0
:1010000085E194E00E94C424612F70E0660F771F91
:10101000680F711D882777FD8095982F18C1C090A3
:101020000003EC2CF12C85E194E00E94AD2490E0CB
:101030008017910709F020C185E194E00E94B02457
:1010400090E08E159F0509F017C1EA94EF2869F426
:1010500085E194E00E94242562E00E94FF2860E080
:1010600085E194E00E94B3240CC085E194E00E94E5
:10107000272562E00E94FF2860E085E194E00E945D
:10108000C424682F70E080E090E00E949830EAC0AD
:10109000F801EE0FFF1FE258FE4F0491F09000039D
:1010A00060E0802F0E94FF28802F0E945A2811E0C4
:1010B0000B970CF010E0812F8F250E943F061093B4
:1010C000CB02E1C080E593E00E94AD2490E0801760
:1010D0009107A9F06D2D80E593E00E94012580E540
:1010E00093E00E942725482F80E593E04F830E94DC
:1010F00024254F81682F80E593E00E94AF1680E59C
:1011000093E00E94B8160E94C206BDC0F090000392
:101110008AE493E00E94AD24282F30E020173107A5
:1011200029F06D2D8AE493E00E9401258AE493E082
:101130000E941E1C6F2D8AE493E00E94F71C0E94FF
:101140003F06A1C086E493E00E94AD24282F30E042
:1011500020173107A9F06D2D86E493E00E94012548
:1011600086E493E00E942425482F86E493E04F8391
:101170000E9427254F81682F86E493E00E94011882
:1011800086E493E00E94161822C082E493E00E9455
:10119000AD24282F30E020173107A9F06D2D82E40F
:1011A00093E00E94012582E493E00E942425482FC9
:1011B00082E493E04F830E9427254F81682F82E4C9
:1011C00093E00E941B1882E493E00E943018BC0157
:1011D000882777FD8095982F0E949A300E949C0660
:1011E00052C0609100038BE793E06F830E94AB18BD
:1011F0006F818BE793E00E943F1834C06EE273E08A
:10120000CE0101960E94C02ECE0101960E94480692
:10121000CE0101960E94252E36C060E08D2D0E94E1
:10122000FF288D2D0E946E290DC0F801EE0FFF1FC3
:10123000E258FE4F049160E0802F0E94FF28802F2B
:101240000E945A28BC01882777FD8095982F0E941C
:101250009A3008C06091D0027091D1028091D20280
:101260009091D3020E946D060EC04F2D6D2D84E328
:1012700094E00E94952607CE4C2D6D2D85E194E0DB
:101280000E941125E2CE27960FB6F894DEBF0FBE5E
:10129000CDBFDF91CF911F910F91FF90EF90DF9025
:1012A000CF9008950F931F93CF93DF931F92CDB7E5
:1012B000DEB71092F6028091FC020091FE0210E06F
:1012C0009091FD029230C1F090F49130C1F5898384
:1012D0000E94310689810E942C06C8010E940107E4
:1012E0000F90DF91CF911F910F910C94E7029430F2
:1012F00039F09530E9F023C0C8010E945A0318C0A4
:1013000069E086E494E00E94012560E070E086E4F4
:1013100094E00E94CD176AE086E494E00E940125E3
:1013200060E070E086E494E00E94CD170E948C0299
:101330000F90DF91CF911F910F910C9437060F9072
:10134000DF91CF911F910F91089510922D0388EE98
:1013500096E00E94C329181619064CF481E0809388
:101360002D0388EE96E00E94DC298093F502089513
:101370000E94BD270E94983020E030E04AE754E404
:101380000E94FF2F2091D4023091D5024091D602C5
:101390005091D7020E94342F6093D0027093D102F3
:1013A0008093D2029093D3028CEB93E00E945D1E57
:1013B000892B09F443C08091BF038093DF020E9410
:1013C000BD270E94983020E030E04AE754E40E94B4
:1013D000FF2F6093CC027093CD028093CE02909346
:1013E000CF0281E08093CA026091DF026A3011F07F
:1013F0006D3041F41092E1021092E00281E080939E
:10140000DE022EC088ED92E00E940D2F8091E00256
:101410009091E1020196813491052CF49093E102C0
:101420008093E0021DC01092E1021092E00269E98F
:1014300072E088ED92E00E94C92E12C08091E20213
:101440009091E30201969093E3028093E20220914F
:10145000DF0212164CF48938934134F01092DF0207
:101460001092E3021092E2020E94A50980912D03DE
:10147000882309F446C08091F5029091F6028535E3
:1014800061F491110AC08091E4028F3FE1F481E0A0
:101490008093F8028093F60216C08093E4029923A9
:1014A00091F0E091F802E23019F48093F70207C05E
:1014B000E33028F09091F70291509093F702F0E01A
:1014C000E750FD4F80838091F8028F5F843318F4DA
:1014D0008093F80204C01092F8021092F6028091F4
:1014E000F602882371F08091F70281110AC0809181
:1014F000F802843030F01092F6020E9452091092E5
:10150000F80208951F920F920FB60F9211242F9395
:101510003F934F935F936F937F938F939F93AF937B
:10152000BF93EF93FF938091630487FF05C01092F0
:101530008500109284001AC020916304332727FD90
:1015400030958091620490E0281739077CF48091EF
:101550006304992787FD9095FC01EE0FFF1FE80FAC
:10156000F91FEC59FB4F808186FD15C08091630403
:101570008F5F8093630420916304332727FD3095A8
:101580008091620490E028173907BCF480916304CD
:101590008C305CF112C080916304992787FD90958F
:1015A000FC01EE0FFF1FE80FF91FEC59FB4F808184
:1015B00060E08F730E943829D9CF80918400909188
:1015C0008500049680349C4918F480E49CE905C0A9
:1015D0008091840090918500049690938900809377
:1015E00088008FEF8093630438C02091840030918D
:1015F000850080916304992787FD9095FC01EE0F8B
:10160000FF1FE80FF91FEC59FB4F81819281820F78
:10161000931F909389008093880080916304992799
:1016200087FD9095FC01EE0FFF1FE80FF91FEC59A5
:10163000FB4F808186FF11C080916304992787FD4D
:101640009095FC01EE0FFF1FE80FF91FEC59FB4FBF
:10165000808161E08F730E943829FF91EF91BF91E3
:10166000AF919F918F917F916F915F914F913F913A
:101670002F910F900FBE0F901F901895209162042C
:101680002C30A0F431E0320F30936204FC0120834F
:10169000822F90E0FC01EE0FFF1FE80FF91FEC59BD
:1016A000FB4F88EB9BE09283818308952FEFFC0131
:1016B00020830895DF92EF92FF920F931F93CF93B1
:1016C000DF93EC01D62E7A01890188818C3008F0F5
:1016D00066C061E08D2D0E94FF288881A82FB0E0B0
:1016E000FD01EE0FFF1FEA0FFB1FEC59FB4F2D2DE5
:1016F0002F739081907C922B908360E272E06E1940
:101700007F0977FF02C06D5F7F4F7595679575956F
:101710006795698340E659E0401B510B57FF02C0B3
:101720004D5F5F4F55954795559547954A836CE0BA
:101730000E94BB339CE0899FB001112420E030E07F
:10174000A901460F571FFA01EE0FFF1FE40FF51F07
:10175000EC59FB4F908196FD16C02F5F3F4F2C3008
:10176000310571F781110FC01092800082E08093E3
:1017700081001092850010928400B19A80916F00D0
:10178000826080936F00888190E0FC01EE0FFF1F64
:10179000E80FF91FEC59FB4F8081806480838881BA
:1017A000DF91CF911F910F91FF90EF90DF900895FF
:1017B00020E639E040E252E00C945A0BFC018081B3
:1017C0008C3070F5918128E830E0291B310997FDB4
:1017D0003395220F331F220F331F621773077CF0DC
:1017E000928128E532E0291B310997FD3395220FBC
:1017F000331F220F331F621773070CF49B01225013
:101800003109220F331F4FB7F89490E0FC01EE0F1F
:10181000FF1FE80FF91FEC59FB4F328321834FBFA5
:1018200008954F925F926F927F92AF92BF92CF9244
:10183000DF92EF92FF920F931F93CF93DF93EC0110
:10184000603282E078070CF040C077FD06C0653B4F
:1018500071052CF064EB70E002C060E070E08981FB
:1018600028E830E0281B310987FD3395220F331F0C
:10187000220F331F5901CC24B7FCC094DC2C8827DD
:1018800077FD8095982F2A8148E552E0421B510947
:1018900027FD5395440F551F440F551F2A016624F9
:1018A00057FC6094762C7F926F925F924F9214EB6C
:1018B000E12EF12C00E010E020E030E0A9010E94D0
:1018C000DE2D0F900F900F900F90CE01DF91CF91F2
:1018D0001F910F91FF90EF90DF90CF90BF90AF904E
:1018E0007F906F905F904F900C94DE0B8091B804C6
:1018F00090E02091B904821B910908952091B904C8
:101900008091B804281750F4E22FF0E0E654FB4F22
:10191000808190E02F5F2093B90408958FEF9FEFAF
:101920000895E091B9048091B804E81730F4F0E02C
:10193000E654FB4F808190E008958FEF9FEF08956C
:101940000895CF92DF92EF92FF920F931F93CF9360
:10195000DF937C01CB018A0120919404222389F03A
:10196000EB016B01C40ED51ECC15DD0569F0699144
:10197000D701ED91FC910190F081E02DC70109950F
:10198000F3CF642F0E94FC0DC801DF91CF911F910E
:101990000F91FF90EF90DF90CF900895CF93DF935A
:1019A0001F92CDB7DEB76983209194042223D1F032
:1019B00020919504203240F021E030E0FC01338397
:1019C000228380E090E015C080919604E82FF0E03B
:1019D000E956FB4F998190838F5F809396048093A3
:1019E000950405C061E0CE0101960E94FC0D81E0E6
:1019F00090E00F90DF91CF910895FC011382128245
:101A000048EE53E060E070E044835583668377835B
:101A100081E491E09183808308951092B90410923B
:101A2000B80410929604109295040C94470D862FDA
:101A3000413208F040E26AEB74E00E94650D1092BA
:101A4000B9048093B804089581E08093940460936E
:101A5000B704109296041092950408950C94240DE6
:101A60000F93062F21E04091950467E974E080917F
:101A7000B7040E94A90D109296041092950410923A
:101A800094040F91089588E894E00C94FD0C109252
:101A9000470581E0809345051092440561E082E1AD
:101AA0000E94382961E083E10E943829E9EBF0E0E7
:101AB00080818E7F808380818D7F808388E4809386
:101AC000B80085E48093BC000895413208F03FC01F
:101AD000909147059111FCCF91E090934705209399
:101AE00045052FEF2093DA0410921F05240F209351
:101AF0001E059093460590914605880F892B80938B
:101B0000460580914405813041F41092440580914E
:101B100046058093BB0085EC01C085EE8093BC0038
:101B2000809147058130E1F380911F05841710F4FF
:101B300040911F0520E235E0FB01D9018A2F821B6D
:101B4000841718F48D918193F9CF842F089580E044
:101B500008950F93413208F046C0909147059111C6
:101B6000FCCF92E090934705009345059FEF90933B
:101B7000DA0410921F0540931E05FB0160E275E038
:101B8000DB019A2F961B941718F491919D93F9CF2E
:101B90001092460590914605880F892B8093460543
:101BA00080914405813041F41092440580914605AE
:101BB0008093BB0085EC01C085EE8093BC0022239E
:101BC00021F0809147058230E1F38091DA048F3F64
:101BD00061F08091DA04803251F08091DA04803330
:101BE00041F483E007C081E005C080E003C082E0EB
:101BF00001C084E00F910895613298F42091470567
:101C0000243089F46093FC04FC018EEF94E0DC0145
:101C10002A2F281B261718F421912D93F9CF80E045
:101C2000089581E0089582E0089585ED8093BC00D9
:101C30008091BC0084FDFCCF10924705089585EC8F
:101C40008093BC001092470508951F920F920FB623
:101C50000F9211242F933F934F935F936F937F9332
:101C60008F939F93AF93BF93EF93FF938091B900AE
:101C7000887F803609F49CC068F5883209F45BC01F
:101C800090F4803109F454C038F4882309F4F5C085
:101C9000883009F44DC0F5C0883109F44CC0803259
:101CA00009F45DC0EEC0803409F468C048F48033A4
:101CB00009F455C0883309F0E4C08093DA04A8C061
:101CC000803509F44FC0883509F45DC0883409F0C7
:101CD000D8C0D5C0883909F4C6C0A8F4883709F43B
:101CE00067C038F4883609F463C0803709F460C0EF
:101CF000C8C0883809F4B7C0803909F45FC080389B
:101D000009F0BFC05BC0803B09F485C038F4803A5D
:101D100009F466C0883A09F47EC0B3C0803C09F477
:101D2000A6C0883C09F4A3C0883B09F489C0A9C0B7
:101D30008091460510C090911F0580911E0598174F
:101D400070F5E0911F0581E08E0F80931F05F0E094
:101D5000E05EFA4F80818093BB0085EC85C0809364
:101D6000DA048DC0E0911F0581E08E0F80931F057E
:101D70008091BB00F0E0E05EFA4F808390911F05F8
:101D800080911E056DC0E0911F0581E08E0F80934C
:101D90001F058091BB00F0E0E05EFA4F80838091E8
:101DA000450581116CC081E08093440584EA60C0E0
:101DB00083E0809347051092DB04CFCF8091DB0452
:101DC000803208F050C0E091DB0481E08E0F8093F8
:101DD000DB048091BB00F0E0E452FB4F8083BDCF79
:101DE0008091DB04803230F4E091DB04F0E0E452D7
:101DF000FB4F10820E94150E6091DB0470E0E091B1
:101E00004005F09141058CED94E009951092DB04BA
:101E10000E941F0E36C084E0809347051092FD0497
:101E20001092FC04E0914205F091430509958091E0
:101E3000FC04811105C081E08093FC041092FE0433
:101E4000E091FD0481E08E0F8093FD04F0E0E2500C
:101E5000FB4F80818093BB009091FD048091FC0436
:101E6000981708F47ACF85E88093BC000AC085EC07
:101E70008093BC001092470504C01092DA040E94BF
:101E8000150EFF91EF91BF91AF919F918F917F912F
:101E90006F915F914F913F912F910F900FBE0F90D7
:101EA0001F9018950C9494240F931F93CF93DF9356
:101EB000EC01062F18E060E088850E94382900FFB9
:101EC00002C061E001C060E089850E943829069562
:101ED00061E088850E943829115069F760E08885A3
:101EE0000E94382961E089850E94382961E088854F
:101EF0000E94382960E089850E94FF2818EC8985B6
:101F00000E946E29892B59F01150C9F761E089852B
:101F10000E94FF2860E089850E943829EFCF61E0A8
:101F20008985DF91CF911F910F910C94FF28CF935A
:101F3000DF93EC0161E088850E94382961E08985A2
:101F40000E94382960E089850E94382960E08885F0
:101F5000DF91CF910C943829CF93DF93EC0160E0AF
:101F600088850E94382960E089850E94382961E0CF
:101F700088850E94382961E08985DF91CF910C9492
:101F80003829CF92DF92FF920F931F93CF93DF9365
:101F90001F92CDB7DEB76C01F62E79830E94970FA2
:101FA00060E4C6010E94540FC6010E94AC0FC60136
:101FB0000E94970FF6016581C6010E94540F0F2DF4
:101FC0007981172F84E0F82EF80161918F01C60105
:101FD0000E94540FFA94C1F7C6010E94AC0FC601CB
:101FE0000E94970FF6016681C6010E94540FC60138
:101FF0000F90DF91CF911F910F91FF90DF90CF90C5
:102000000C94AC0F4F925F926F927F928F929F923F
:10201000AF92BF92CF92DF92EF92FF920F931F93F6
:10202000CF93DF9300D000D0CDB7DEB76A017B013C
:10203000890137FD48C0B9016F5F7F4F882777FD61
:102040008095982F0E949A309B01AC0160E070E06F
:1020500080E291E40E9475324B015C019B01AC016E
:10206000C701B6010E94FF2F0E94D5302B013C0111
:10207000B801882777FD8095982F0E949A309B01A0
:10208000AC0160E070E080E291E40E947532698307
:102090007A838B839C83A5019401C301B2010E94C2
:1020A00012329B01AC01C701B6010E94342F298175
:1020B0003A814B815C810E94FF2F0E94D5300E94A3
:1020C0006730CB011FC088249924821A930AA12C5F
:1020D000B12C20E030E040E251E4C701B6010E949B
:1020E00012326B017C018FEFA81AB80AA814B90448
:1020F00084F3C701B6010E946730CB016AE070E04B
:102100000E94DB330F900F900F900F90DF91CF91D3
:102110001F910F91FF90EF90DF90CF90BF90AF9005
:102120009F908F907F906F905F904F900895DB010C
:1021300080E090E22C91223208F09C93EC91F0E048
:10214000E257FE4FE491ED938F5F843099F7089545
:10215000EF92FF920F931F93CF93DF9300D000D0A5
:10216000CDB7DEB78C01DB01FE013196CE010596BD
:102170007F012D912193E817F907D9F7B701C8011D
:102180000E949710B701C8010E94C10F0F900F90D5
:102190000F900F90DF91CF911F910F91FF90EF90D3
:1021A0000895CF93DF9300D000D0CDB7DEB720E203
:1021B00029832A832B832C83BE016F5F7F4F0E946C
:1021C000A8100F900F900F900F90DF91CF9108956E
:1021D000CF93DF93EC016A83E62FF0E0EE0FFF1F51
:1021E000E65FFE4F818189839081988388879987F4
:1021F00061E00E94FF2861E089850E94FF2880E459
:102200008C8380EC8D838AE88E83CE01DF91CF9121
:102210000C94D1108F929F92AF92BF92CF92DF9287
:10222000EF92FF920F931F93CF93DF9300D000D0D4
:10223000CDB7DEB75C016A017B0119821A821B826D
:102240001C8220E030E0A901C701B6010E94FB2FEB
:1022500087FF09C0F7FAF094F7F8F09481E28983D8
:102260009924939401C0912C03E010E0812C9801F3
:10227000B701A601C5010E940210181619062CF01C
:10228000002319F08820B9F00CC001110AC0E1E068
:10229000F0E0EC0FFD1FE90DF11D20E1280F208378
:1022A00007C0E1E0F0E0EC0FFD1FE90DF11D8083B8
:1022B00093948824839483E0891530F001501109A8
:1022C0000C3F8FEF180799F6BE016F5F7F4FC50176
:1022D0000E94A8100F900F900F900F90DF91CF9158
:1022E0001F910F91FF90EF90DF90CF90BF90AF9034
:1022F0009F908F9008950E94942488E080934805D1
:1023000008954F925F926F927F928F929F92AF92B9
:10231000BF92CF92DF92EF92FF920F931F93CF93D2
:10232000DF9369017A019B0140E050E060E472E4D0
:102330008FE090E00E941134E901890137FF02C06B
:102340000F5F1F4F1595079561E0809148050E942A
:10235000FF28A8EEB3E0A70196010E9445344B0187
:102360005C01C12CD12C76012E01662457FC6094AF
:10237000762CC814D904EA04FB04A8F461E0809127
:1023800048050E943829C8010E94142860E0809105
:1023900048050E943829C8010E941428C40CD51C85
:1023A000E61CF71CE6CFDF91CF911F910F91FF90B4
:1023B000EF90DF90CF90BF90AF909F908F907F90E5
:1023C0006F905F904F90089561E0809148050E9462
:1023D000FF2860E0809148050C943829CF93DF9363
:1023E000EC0160E00E949D248EE18B871C82DF91CE
:1023F000CF910895AF92BF92CF92DF92EF92FF926A
:102400000F931F93CF93DF93CDB7DEB76A970FB6C5
:10241000F894DEBF0FBECDBF8C01CE0101967C01CA
:10242000C12CD12C5C01C6010E947E36F70181933C
:102430007F01FFEFCF1ADF0A8AE1C816D10499F7AE
:102440002D813E814F81588569817A818B819C8164
:102450000E94352F29853A854B855C850E94352F52
:102460002D853E854F8558890E94352F29893A89C7
:102470004B895C890E94352F2D893E894F89588D63
:102480000E94352F6B017C01698D70E080E090E047
:102490000E949A309B01AC01C701B6010E94352F02
:1024A00020E030E04AE253E40E94352F0E946C3075
:1024B0008A8D681312C06DE471E088EE96E00E9488
:1024C000282C8AE1F501D8011D9601900D928A957C
:1024D000E1F781E0F801848308C066E671E088EEE8
:1024E00096E00E94282CF80114826A960FB6F894A0
:1024F000DEBF0FBECDBFDF91CF911F910F91FF9037
:10250000EF90DF90CF90BF90AF900895CF92DF9281
:10251000EF92FF920F931F93CF93DF938C01EB0108
:102520002C813D814E815F81688179818A819B8187
:102530000E94352F288539854A855B850E94352F75
:102540002C853D854E855F850E94352F28893989E8
:102550004A895B890E94352F2C893D894E895F8984
:102560000E94352F6B017C01688D70E080E090E067
:102570000E949A309B01AC01C701B6010E94352F21
:1025800020E030E04AE253E40E94352F0E946C3094
:10259000698FE12CF12C6991C7010E9486368FEF7B
:1025A000E81AF80AEAE1EE16F104A9F781E0F80169
:1025B000848360E871E088EE96E0DF91CF911F910F
:1025C0000F91FF90EF90DF90CF900C94282CEF921A
:1025D000FF921F93CF93DF931F92CDB7DEB7162FD5
:1025E0007A01FC01638588E894E029830E94240D28
:1025F000612F88E894E00E94CE0C2981813091F40B
:10260000422F50E0B70188E894E00E94A10C61E0FD
:1026100088E894E00F90DF91CF911F91FF90EF90A9
:102620000C94300D8FEF0F90DF91CF911F91FF90A1
:10263000EF900895CF93DF931F92CDB7DEB7498314
:1026400021E0AE014F5F5F4F0E94E7120F90DF91D4
:10265000CF910895EF92FF920F931F93CF93DF9343
:10266000EC01F62E8A01E22E6B8588E894E00E9448
:10267000240D6F2D88E894E00E94CE0C813001F586
:1026800060E088E894E00E94300D81112EC081E066
:1026900090E00E94142821E04E2D6B8588E894E09C
:1026A0000E94170DE80100E010E0F12C88E894E0AA
:1026B0000E94760C892B31F00E151F0574F002C0B4
:1026C0008FEF13C081E090E00E94142881E00E1586
:1026D0001F0509F480E0819508C00F5F1F4F88E84F
:1026E00094E00E947E0C8993E1CFDF91CF911F91FE
:1026F0000F91FF90EF900895CF93DF93EC01AC0121
:102700004B5F5F4F23E06AE00E942A1381110AC0E9
:102710008D81883439F48E81843321F481E09F8166
:10272000933309F080E0DF91CF910895CF92DF924B
:10273000EF92FF920F931F93CF93DF93EC016B0106
:102740008A0179010E94E113AE014B5F5F4F26E0E1
:1027500063E0CE010E942A13882321F0992787FD88
:10276000909526C08C85813031F441E062E070E0C4
:10277000CE010E941A138D8190E0982F88272E8118
:10278000822BF60191838083898590E0982F88279A
:102790002A85822BF801918380838F8190E0982F86
:1027A00088272885822BF7019183808380E090E041
:1027B000DF91CF911F910F91FF90EF90DF90CF901D
:1027C00008952F923F924F925F926F927F928F92D5
:1027D0009F92AF92BF92CF92DF92EF92FF920F93B0
:1027E0001F93CF93DF93CDB7DEB76C970FB6F894F6
:1027F000DEBF0FBECDBF8C0162E00E94B324811109
:102800006EC26AE070E080E090E00E94EC2762E037
:10281000C8010E94B324811162C2C8010E947C13C6
:10282000811107C06FE971E088EE96E00E94282CC4
:1028300056C269EB71E088EE96E00E94282C0E9457
:10284000BD276B017C01712CBB24B39462E0C801ED
:102850000E94B32481111BC00E94BD276C197D0901
:102860008E099F09693C71058105910578F30E94E5
:10287000BD276B017C017B24672DC8010E94E524E4
:1028800061ED71E088EE96E00E94282CDFCF6BEEC0
:1028900071E088EE96E00E94282C64E670E080E00B
:1028A00090E00E94EC270E94BD274B015C012FEFB6
:1028B0003FE7388B2F8740E050E85E874D878FEFEA
:1028C0009FE79C878B87E0E0F0E8FA87E987388705
:1028D0002F83212C50E8352E662463940E94BD2757
:1028E0006C197D098E099F09693C71058105910567
:1028F00048F00E94BD276B017C017624672DC8013A
:102900000E94E5240E94BD27681979098A099B095C
:102910006B30710581059105E0F19E012F5F3F4FFE
:10292000AE014D5F5F4FBE016B5F7F4FC8010E94DC
:1029300096138D819E814F815885841795072CF0C1
:102940002816390624F41C0102C098878F838B81D6
:102950009C81EB85FC858E179F0744F029853A857D
:10296000281739072CF49A87898702C09C878B87A0
:1029700089819A814F8558898417950744F0ED85A0
:10298000FE85E817F9072CF49E878D8702C0988B87
:102990008F8762E0C8010E94B32481119FCF60E05D
:1029A000C8010E94E524B101882777FD8095982F02
:1029B0000E949A306B017C012F813885B9018827EC
:1029C00077FD8095982F0E949A30698B7A8B8B8B3C
:1029D0009C8B9B01AC01C701B6010E94352F90581A
:1029E00020E030E040E05FE30E941232F8016587AA
:1029F00076878787908B29853A85B901882777FD67
:102A00008095982F0E949A302B013C014B855C8564
:102A1000BA01882777FD8095982F0E949A306D8B98
:102A20007E8B8F8B988F9B01AC01C301B2010E94FA
:102A3000352F905820E030E040E05FE30E941232F2
:102A4000F801618B728B838B948B2D853E85B90148
:102A5000882777FD8095982F0E949A304B015C0162
:102A60004F855889BA01882777FD8095982F0E9455
:102A70009A30698F7A8F8B8F9C8F9B01AC01C50137
:102A8000B4010E94352F905820E030E040E05FE331
:102A90000E941232F801658B768B878B908F80E0D5
:102AA00090E0A0E8BFE3818F928FA38FB48F298934
:102AB0003A894B895C89C701B6010E94342F6B01AA
:102AC0007C012D893E894F89588DC301B2010E9436
:102AD000342FA70196010E94FF2FF801658F768F92
:102AE000878F90A3298D3A8D4B8D5C8DC501B401E4
:102AF0000E94342FA70196010E94FF2FF80161A3C5
:102B000072A383A394A32F813885221A330A37FE38
:102B100003C031942194310889859A854B855C8561
:102B2000841B950B97FF03C09195819591092D8585
:102B30003E85EF85F8892E1B3F0B37FF03C031958B
:102B400021953109821593052CF02215330514F0D7
:102B500081E009C0281639062CF02817390714F02F
:102B600082E001C083E0F80185A361E072E088EEB5
:102B700096E00E94282C6EE172E088EE96E00E94BA
:102B8000092CF801458556856785708921E030E07C
:102B900088EE96E00E94DC2D6FE472E088EE96E00D
:102BA0000E94282C6CE272E088EE96E00E94092CCC
:102BB000F801418952896389748921E030E088EE07
:102BC00096E00E94DC2D6FE472E088EE96E00E94B1
:102BD000282C6AE372E088EE96E00E94092CF80146
:102BE000458956896789708D21E030E088EE96E04E
:102BF0000E94DC2D6FE472E088EE96E00E94282CA3
:102C000068E472E088EE96E00E94092CF801418D9C
:102C1000528D638D748D21E030E088EE96E00E9445
:102C2000DC2D6FE472E088EE96E00E94282C61E5CE
:102C300072E088EE96E00E94092CF801458D568DD1
:102C4000678D70A121E030E088EE96E00E94DC2DD7
:102C50006FE472E088EE96E00E94282C6AE572E04C
:102C600088EE96E00E94092CF80141A152A163A1CF
:102C700074A121E030E088EE96E00E94DC2D6FE444
:102C800072E088EE96E00E94282C63E672E088EEFF
:102C900096E00E94092C4AE050E0F80165A188EE18
:102CA00096E00E94EA2C6FE472E088EE96E00E94C3
:102CB000282CB801635F7F4FC8010E94861261E033
:102CC000C8010E94E52462E0C8010E94B324882361
:102CD000D1F364E670E080E090E00E94EC276C960F
:102CE0000FB6F894DEBF0FBECDBFDF91CF911F911D
:102CF0000F91FF90EF90DF90CF90BF90AF909F909B
:102D00008F907F906F905F904F903F902F9008959D
:102D1000CF93DF93EC0188E894E00E940D0D61E011
:102D2000CE010E94E52440E760E070E0CE010E9401
:102D30001A1340E261E070E0CE010E941A1381E0B4
:102D40008C8741E062E070E0CE010E941A13CE0150
:102D50000E94FA11CE01DF91CF910C94E1136093A0
:102D60004A0540934905FC01608341830C94881611
:102D70002F923F924F925F926F927F928F929F928B
:102D8000AF92BF92CF92DF92EF92FF920F931F9379
:102D9000CF93DF93CDB7DEB762970FB6F894DEBF5F
:102DA0000FBECDBF8C010E94E1139E012F5F3F4FEC
:102DB000AE014D5F5F4FBE016B5F7F4FC8010E9448
:102DC0009613882349F0682F772767FD7095872F22
:102DD000972F0E949A30C5C0F80184812D803E80D3
:102DE0002B813C8138872F83882309F478C0458460
:102DF000568467847088818C928CA38CB48CB901C2
:102E0000882777FD8095982F0E949A30F8012189B4
:102E10003289438954890E94352FF801258D368DDA
:102E2000478D50A10E9412320E9467306F837887CD
:102E300089879A8769817A81882777FD8095982F7D
:102E40000E949A30F801258936894789508D0E9461
:102E5000352FF80121A132A143A154A10E941232C1
:102E60000E9467306B877C878D879E87F80115A14C
:102E7000113041F42B853C85B901882777FD809579
:102E8000982F32C0B101882777FD8095982F0E9436
:102E90009A30A30192010E94352FA50194010E944E
:102EA00012320E9467304B015C01123089F42B858D
:102EB0003C85B901882777FD8095982F0E949A302C
:102EC0009B01AC01B401882777FD8095982F17C02E
:102ED000133019F5882777FD8095982F05C0B1012B
:102EE000882777FD8095982F0E949A309B01AC012E
:102EF000EF81F885BF01882777FD8095982F2F8770
:102F0000388B498B5A8B0E949A302F853889498992
:102F10005A890E94A82F6B017C0120E030E0A901B2
:102F2000C701B6010E94FB2F87FF0DC02BED3FE0CC
:102F300049EC50E4C701B6010E94352F20E030E093
:102F400044E353E406C020E030E044E353E4C70127
:102F5000B6010E9412322BED3FE049E450E40E949A
:102F6000FF2F62960FB6F894DEBF0FBECDBFDF9184
:102F7000CF911F910F91FF90EF90DF90CF90BF9076
:102F8000AF909F908F907F906F905F904F903F9009
:102F90002F90089560E00C949D240F931F93CF937E
:102FA000DF938C016F3F710519F014F06FEF70E043
:102FB000EB0161308FEF780714F4C1E0DFEFD7FD4C
:102FC00006C061E0C8010E94E524BE0108C060E0BF
:102FD000C8010E94E524662777276C1B7D0BC8017A
:102FE000DF91CF911F910F910C94FD248BE495E01C
:102FF0000C94F11B8BE495E00C941A1C60E00C948B
:103000009D24CF93DF93EC0160936706409366069F
:103010008091670660E00E94FF28809166068883A1
:10302000809167068983DF91CF9108950C94F524F0
:1030300060E00C949D24CF93DF93EC0160936906CC
:10304000409368068091690660E00E94FF288091A5
:1030500068068883809169068983DF91CF910895FE
:103060000C94F524CF93DF93EC0160E00E949D2443
:10307000C05CDF4F88E68883DF91CF910895FC0123
:10308000613029F430852185928583850DC06230B9
:1030900029F4348525859685878506C0633029F413
:1030A0003089218992898389AC01632F722F852F02
:1030B000942F0895EF92FF920F931F93CF93DF9376
:1030C000C62F8A01E22E68E688E894E00E94240D6B
:1030D0006C2F88E894E00E94CE0C813001F560E00E
:1030E00088E894E00E94300D81112EC081E090E0CC
:1030F0000E94142821E04E2D68E688E894E00E94A2
:10310000170DE80100E010E0F12C88E894E00E943F
:10311000760C892B31F00E151F0574F002C08FEF6D
:1031200013C081E090E00E94142881E00E151F0575
:1031300009F480E0819508C00F5F1F4F88E894E094
:103140000E947E0C8993E1CFDF91CF911F910F9167
:10315000FF90EF9008954F925F926F927F928F92BF
:103160009F92AF92BF92CF92DF92EF92FF920F9316
:103170001F93CF93DF93CDB7DEB72C970FB6F8949C
:10318000DEBF0FBECDBF8C01AC014E5C5F4F2EE0A9
:103190006BE30E945A188111C5C1F801A2A8B12C95
:1031A000BA2CAA2483A9A82AB1A2A0A2E4A8F12C2F
:1031B000FE2CEE2485A9E82AF3A2E2A286A8912C8F
:1031C000982C882487A9882A95A284A244805580B7
:1031D0006680778062AD70E0762F662783AD682BBE
:1031E000882777FD8095982F0E949A30F80126A1B4
:1031F00037A140A551A50E94342FA30192010E943E
:10320000FF2FF801648B758B868B978B64AD70E014
:10321000762F662785AD682B882777FD8095982FB8
:103220000E949A30F80122A533A544A555A50E9415
:10323000342FA30192010E94FF2FF801608F718F3C
:10324000828F938F66AD70E0762F662787AD682BEF
:10325000882777FD8095982F0E949A30F80126A53F
:1032600037A540A951A90E94342FA30192010E94C1
:10327000FF2FF801648F758F868F978FB70188278E
:1032800077FD8095982F0E949A306B017C01B401E4
:10329000882777FD8095982F0E949A309B01AC017A
:1032A0000E9412322B013C01A7019601C701B60111
:1032B0000E941232A30192010E94352F0E94C53252
:1032C0009B01AC01B501882777FD8095982F298750
:1032D0003A874B875C870E949A304B015C012985B5
:1032E0003A854B855C850E94A82F20E030E044E3BE
:1032F00053E40E9412322AED3FE049E450E40E9478
:10330000FF2F69837A838B839C83A5019401C50178
:10331000B4010E941232A30192010E94352F0E9433
:10332000C5329B01AC01C701B6010E94A82F20E065
:1033300030E044E353E40E9412322AED3FE049E4D6
:1033400050E40E94FF2F6D837E838F8398870E94B5
:10335000BD27C0906A06D0906B06E0906C06F09096
:103360006D066C197D098E099F090E94983020E036
:1033700030E04AE754E40E94FF2F6B017C010E9479
:10338000BD2760936A0670936B0680936C069093DA
:103390006D06F80184A195A11816190644F5208D33
:1033A000318D428D538DC701B6010E9412329B01AF
:1033B000AC01F80160857185828593850E94342F68
:1033C000F8016087718782879387248935894689C8
:1033D0005789C701B6010E9412329B01AC01F80166
:1033E00064857585868597850E94352F28C0F801EC
:1033F000208D318D428D538DC701B6010E9412324E
:103400009B01AC01F80160857185828593850E94DE
:10341000352FF801608771878287938724893589E2
:1034200046895789C701B6010E9412329B01AC013F
:10343000F80164857585868597850E94342FF8018B
:103440006487758786879787F801248D358D468D2B
:10345000578DC701B6010E9412329B01AC01F801E1
:1034600060897189828993890E94352FF801608B68
:10347000718B828B938B20E030E040E05FE3C701EB
:10348000B6010E94352F9B01AC0160E070E080E046
:103490009FE30E94FF2F6B017C019B01AC0160E068
:1034A00070E080E89FE30E94342F4B015C01F8013B
:1034B0002085318542855385C701B6010E941232AD
:1034C0002B013C01A501940169817A818B819C814A
:1034D0000E9412329B01AC01C301B2010E94352F40
:1034E000F8016087718782879387248535854685B3
:1034F0005785C701B6010E9412326B017C01A501FC
:1035000094016D817E818F8198850E9412329B018A
:10351000AC01C701B6010E94352FF8016487758799
:10352000868797872C960FB6F894DEBF0FBECDBF67
:10353000DF91CF911F910F91FF90EF90DF90CF908F
:10354000BF90AF909F908F907F906F905F904F90C3
:1035500008952F923F924F925F926F927F928F9237
:103560009F92AF92BF92CF92DF92EF92FF920F9312
:103570001F93CF93DF9300D000D0CDB7DEB71C01EF
:1035800004EF11E0812C912C5401412C512C32017B
:1035900019821A821B821C827C0122E3E20EF11C3A
:1035A00026E0A70163E4C1010E945A18F10182A933
:1035B00090E0982F882723A9822BAA2797FDA09512
:1035C000BA2F29813A814B815C81280F391F4A1F0C
:1035D0005B1F29833A834B835C8384A990E0982FF7
:1035E000882725A9822BAA2797FDA095BA2F480ED8
:1035F000591E6A1E7B1E86A990E0982F882727A94E
:10360000822BAA2797FDA095BA2F880E991EAA1E75
:10361000BB1E0150110921F664EFC62EDD24D394A0
:10362000E12CF12C69817A818B819C81A701960123
:103630000E941134CA01B9010E949A30F10166A3B7
:1036400077A380A791A7C301B201A70196010E94A9
:103650001134CA01B9010E949A30F10162A773A71F
:1036600084A795A7C501B401A70196010E94113452
:10367000CA01B9010E949A30F10166A777A780AB11
:1036800091AB0F900F900F900F90DF91CF911F9102
:103690000F91FF90EF90DF90CF90BF90AF909F90F1
:1036A0008F907F906F905F904F903F902F900895F4
:1036B000EF92FF921F93CF93DF931F92CDB7DEB7A8
:1036C000162F7A0168E670E088E894E029830E946A
:1036D0002E0D612F88E894E00E94CE0C2981813064
:1036E00091F4422F50E0B70188E894E00E94A10CC9
:1036F00061E088E894E00F90DF91CF911F91FF90F7
:10370000EF900C94300D8FEF0F90DF91CF911F91C0
:10371000FF90EF900895CF93DF931F92CDB7DEB760
:10372000498321E0AE014F5F5F4F0E94581B0F900D
:10373000DF91CF910895CF93DF93EC0140E050E00B
:1037400063E872E44C835D836E837F8318861986F9
:103750001A861B861C861D861E861F86188A198A55
:103760001A8A1B8A1C8A1D8A1E8A1F8A188E198E25
:103770001A8E1B8E1C8E1D8E1E8E1F8E19A218A2D5
:103780001BA21AA21DA21CA21EA21FA218A619A645
:103790001AA61BA61CA61DA61EA61FA618AA19AA15
:1037A00088E894E00E940D0D60E273E080E090E014
:1037B0000E94EC2740E06BE670E0CE010E948B1B7C
:1037C00041E06AE170E0CE010E948B1B48E06BE1B2
:1037D00070E0CE010E948B1BCE01DF91CF910C9443
:1037E000A91A21E030E0FC0131832083EE5FFE4F17
:1037F00010821182128213823496108211821282F8
:103800001382349610823196108231961082118282
:10381000128213823496118210823296108231966F
:1038200010821182128213823496108211821282C7
:1038300013820895089560E00C949D244F925F9246
:103840006F927F928F929F92AF92BF92CF92DF92B0
:10385000EF92FF920F931F93CF93DF9300D000D08E
:103860001F92CDB7DEB78C01CE0101966C0185E0C9
:10387000F60111928A95E9F760E0C8010E94E524FB
:1038800064E170E080E090E00E94EC2761E0C80114
:103890000E94E52488E290E00E94142860E0C801BC
:1038A0000E94E5240E94BD274B015C0160E0C80135
:1038B0000E94C42481110EC00E94BD276819790995
:1038C0008A099B09633071058105910578F3F80138
:1038D000148215820E94BD274B015C0160E0C80183
:1038E0000E94C424882359F00E94BD2768197909D1
:1038F0008A099B09633071058105910578F3E12CF4
:10390000F12C0E94BD274B015C0160E0C8010E94C0
:10391000C42481110BC00E94BD27681979098A0946
:103920009B09633071058105910578F30E94C927D1
:103930004B015C010E94BD272B013C0160E0C801E6
:103940000E94C424882359F00E94BD276419750978
:1039500086099709633071058105910578F30E9406
:10396000C927681979098A099B09F70123E0F595A8
:10397000E7952A95E1F7693271058105910530F0E7
:10398000EC0DFD1D8081880F816004C0EC0DFD1DD4
:103990008081880F8083FFEFEF1AFF0A88E2E81624
:1039A000F10409F0AECF59814B81842F90E0850F4F
:1039B000911D2D8130E08217930719F4F80154838B
:1039C00045830F900F900F900F900F90DF91CF9144
:1039D0001F910F91FF90EF90DF90CF90BF90AF902D
:1039E0009F908F907F906F905F904F900895FC0113
:1039F000611102C084810895858108951F920F92FC
:103A00000FB60F9211240F931F932F933F934F9351
:103A10005F936F937F938F939F93AF93BF93CF9356
:103A2000EF93FF9382E00E946E29C82F20917406C5
:103A3000309175062F5F3F4F3093750620937406C3
:103A40008091DA06843618F085E080936F069091B5
:103A50006F06933079F018F4923039F070C09430DA
:103A600011F1953009F44AC06AC0C11168C01092C2
:103A7000DA0629C0C13009F062C0E091DA0681E0BF
:103A80008E0F8093DA06F0E08091740690917506AF
:103A9000E259F94F8087109275061092740684E0FF
:103AA00080936F064CC0C11114C0E091DA0681E02A
:103AB0008E0F8093DA06F0E080917406909175067F
:103AC000E259F94F8087109275061092740683E0D0
:103AD000E7CF80917406909175068536910578F14F
:103AE00085E080936F060E94BD27609370067093F7
:103AF0007106809372069093730621C00E94BD27C1
:103B00000091700610917106209172063091730633
:103B1000601B710B820B930B693C7105810591054C
:103B200040F01092DA06109275061092740682E048
:103B3000B7CFC11104C01092750610927406FF91A0
:103B4000EF91CF91BF91AF919F918F917F916F91A5
:103B50005F914F913F912F911F910F910F900FBE49
:103B60000F901F901895F89482E08093B000809396
:103B7000B10094E69093B3001092B200809370006D
:103B800078941092DA0680936F0608950F931F932E
:103B9000CF93DF93EC018C010C5E1F4F69E972E05B
:103BA000C8010E94932E69E972E0CE014A960E94F4
:103BB000932E60E082E00E94FF2882E080936E06F0
:103BC00018A219A21AA21BA21B861A861C861A8A80
:103BD00069E972E0C8010E94C92E1B8ACE010E94C9
:103BE000B31D61E083E00E94FF2860E083E0DF9185
:103BF000CF911F910F910C9438291F93CF93DF938E
:103C0000FC01A681B7818C9186588D3558F480854A
:103C1000918583309105A1F411968C911197815271
:103C2000893118F080E090E044C012968C91885061
:103C30008730C0F7158281E0808381E090E039C051
:103C4000833491057CF311968C91119783548F32B4
:103C500048F782E090E040E050E0BA019D012F5F1C
:103C60003F4FEC01CA0FDB1FC881C850C730D0F6E8
:103C7000E901C80FD91F18811751133180F47695C7
:103C8000679557954795706802968234910549F774
:103C900080E285834183528363837483CCCFC88160
:103CA000C850C73008F0BECF7695679557954795B1
:103CB000EBCFDF91CF911F9108950F931F93CF9377
:103CC000DF93EC0186E796E09F838E838091DA068E
:103CD00090E09987888780916F06853081F4CE01C6
:103CE0000E94FD1D8C01CE010115110529F00E94D5
:103CF000B31D01E010E005C00E94B31D02C000E04A
:103D000010E0C801DF91CF911F910F910895CB0171
:103D1000E0EBF0E02081206220830C941428CB019A
:103D2000E0EBF0E020812F7D20830C94142810928A
:103D30007000262F30E040E050E060E47FE180E05A
:103D400090E00E94113481E08093B00089E080937C
:103D5000B1002093B3008BEA289F212D11242695D2
:103D60002093B4000895F89482E08093B00080938B
:103D7000B10094E69093B3001092B200809370006B
:103D8000789480936F061092DA0680916E0660E058
:103D90000C94FF28AF92BF92CF92DF92EF92FF92E6
:103DA0000F931F93CF93DF93EC016A017B015901BD
:103DB00066E20E94971E68E273E2CE010E94871EAF
:103DC00064E971E1CE010E948F1E00E010E060E323
:103DD00072E0CE010A151B05ACF4C0FE05C00E94BE
:103DE000871E60E476E004C00E94871E60E372E0F4
:103DF000CE010E948F1EF694E794D794C7940F5F6C
:103E00001F4FE5CF0E94871E60E070E0CE01DF917A
:103E1000CF911F910F91FF90EF90DF90CF90BF90C7
:103E2000AF900C948F1EEF92FF920F931F93CF933E
:103E3000DF937C018B016AE0C8010E940D2FC0E076
:103E4000D0E0F80184819581C817D90710F5BE012B
:103E5000C8010E94312F482F409550E060E070E08B
:103E6000762F652F542F4427480F511D611D711D5A
:103E7000BA01552744274F6F20E230E0C7010E9466
:103E8000CA1E64E170E080E090E00E94EC27219679
:103E9000D8CFC701DF91CF911F910F91FF90EF9085
:103EA0000C94B31E60E00C949D24613049F40E9490
:103EB000F5248A5E91402091DD063091DE060AC02D
:103EC000623059F40E94F9248A5E91402091DB0609
:103ED0003091DC06820F931F089580E090E00895F2
:103EE000CF92DF92EF92FF920F931F93CF93DF93C6
:103EF000EC01162FF42EE52ED22E106C61E08C8191
:103F00000E94382960E08D810E94382908E060E035
:103F10008C810E943829612F61708D810E9438291F
:103F200061E08C810E9438291695015081F7CF2CD1
:103F30000F2D1E2D802F8C198D15B0F4F801E190F6
:103F40008F0188E0F82E60E08C810E9438296E2D68
:103F500060788D810E94382961E08C810E94382927
:103F6000EE0CFA9481F7E6CF60E08C810E9438294C
:103F700060E08D810E94382961E08C810E9438299F
:103F800061E08D81DF91CF911F910F91FF90EF90B4
:103F9000DF90CF900C9438290C9494240F931F93A6
:103FA000CF93DF93EC01162F61E08C810E943829BA
:103FB00060E08D810E94382908E060E08C810E94D9
:103FC0003829612F61708D810E94382961E08C81D0
:103FD0000E9438291695015081F760E08C810E947B
:103FE000382960E08D810E94382961E08C810E942F
:103FF000382961E08D81DF91CF911F910F910C9451
:10400000382920E030E0FC01E20FF31F10862F5F1B
:104010003F4F20313105B9F721E0FC01268317829B
:10402000AC01485F5F4F20E160E00C94701F693085
:1040300018F4662321F001C068E061506860606890
:104040000C94CE1FCF93DF93EC01E62FF0E0EE0F40
:10405000FF1FE65FFE4F80818C8391819D8361E02D
:104060000E94FF2861E08D810E94FF2861E08C8121
:104070000E94382961E08D810E94382960E4CE01D8
:104080000E94CE1F65E0CE010E941720CE01DF9175
:10409000CF910C940120FC01668308958F929F922A
:1040A000AF92BF92CF92DF92EF92FF920F931F9346
:1040B000CF93DF9360310CF085C048300CF082C0A4
:1040C000222309F47FC0FC013681A42FBB27A7FD62
:1040D000B095E8E0F0E0EA1BFB0B5FEF01C0550F85
:1040E000EA95EAF74801C0E0D0E0772767FD7095D0
:1040F0006C01C60ED71EAA24BB24AA1ABB0A3323FE
:1041000079F1C21778F58E01060F171F17FD1AC037
:104110007601EC0EFD1EF70130853523F401008198
:10412000141644F410E00A2E02C0159507950A945F
:10413000E2F705C00A2C01C0000F0A94EAF7032B2E
:10414000F70100872196FFEF8F1A9F0ADACF8E01C1
:10415000060F171F17FF19C02196FFEF8F1A9F0A2E
:10416000C217A8F3AC01485F5F4F20E160E0DF9128
:10417000CF911F910F91FF90EF90DF90CF90BF9064
:10418000AF909F908F900C94701F7601EC0EFD1EE7
:10419000F70130853523F401008110E0009510957A
:1041A00014163CF40A2E02C0159507950A94E2F7FE
:1041B00005C00A2C01C0000F0A94EAF7032BF7018F
:1041C0000087CACFDF91CF911F910F91FF90EF90A1
:1041D000DF90CF90BF90AF909F908F9008958F9277
:1041E0009F92AF92BF92CF92DF92EF92FF920F9386
:1041F0001F93CF93DF93EC01088D198D10161106D4
:104200000CF073C080E090E0F82E8017910751F019
:1042100001968131910509F4E7C0FE01E80FF91F0D
:104220001782F2CF40E1841709F4DEC00B8D1C8D9C
:10423000E12C67E0D62E70E2C72E4E2D50E04017DD
:1042400051070CF049C0B12CDE01A40FB51F5D96DB
:104250002B2D30E0D29EC001D39E900D11248253AD
:104260009E4FFC016491603441F1FC016491EC913A
:10427000FF27E7FDF09570E0E617F707E1F4D29E1F
:10428000B001D39E700D112420E030E061537E4FC9
:10429000FB01E20FF31FE491DE01AF0DB11D189693
:1042A000EC93F394FFE0FF1540F02F5F3F4F263073
:1042B000310571F702C0B394CBCFFC0184918034F7
:1042C00029F4FE01E40FF51FC58EEA94E394FFE0A4
:1042D000FF1508F0B2CF88C0FE01EF0DF11D10866A
:1042E000F39440E1F412F8CF7FC0EB8CFC8C2AEF02
:1042F000A7012403C001259F900D11240817190759
:1043000059F480E090E0FE01E80FF91F1086019655
:1043100080319105C1F768C022273327201B310B5C
:10432000C90166E070E00E94DB33398F288F9B0162
:1043300090E047E0B42E50E2A52E2E153F050CF07C
:104340004BC0912CDE01A20FB31F5D96692D70E06A
:10435000B69EA001B79E500D112442535E4FFA0144
:10436000D490F0E4DF1631F1FA018490CC90DD2492
:10437000C7FCD094E82DF0E0CE16DF06C1F4B69E5F
:10438000D001B79EB00D1124FD01E80FF11D87FD8E
:10439000FA95E153FE4F6491FE01E90FF11D60872C
:1043A0009F5F903130F48F5F863071F702C0939435
:1043B000CDCF80E0FA014491403431F4FE01E20FA8
:1043C000F31FA58E215031092F5F3F4F903108F424
:1043D000B4CF198F088F08C0FE01E90FF11D1086B8
:1043E0009F5F9031C9F7F5CF4A8D552747FD50950E
:1043F00027E030E0241B350B80E090E037FD12C051
:10440000FE01E80FF91F4085022E01C0440F0A94F7
:10441000EAF7408701968031910591F78E818823D4
:10442000A1F01FC047505109FE01E80FF91F208578
:1044300030E0042E02C0359527950A94E2F72087D4
:1044400001968031910581F7E9CF80E090E0FE018F
:10445000E80FF91F2085209520870196803191056E
:10446000B1F7AE01485F5F4F20E160E0CE01DF9120
:10447000CF911F910F91FF90EF90DF90CF90BF9061
:10448000AF909F908F900C94701F0F931F93FC011F
:1044900081E08783148E138E038D148DD901A00FB4
:1044A000B11F8C91DF01A00FB11F882319F00331D8
:1044B000110564F05D961C922AEF2003C001219F34
:1044C000900D11246817790774F007C05D968C93DE
:1044D0000F5F1F4F148F038FDFCFCB016131710549
:1044E00014F080E190E0918F808F40310CF04FE02C
:1044F00047FD4FEF428FCF011F910F910C94EF209A
:10450000CF93DF93DC01362F862F6AE00E94BB3306
:10451000C82FD0E0FE01EE0FFF1FEC0FFD1FE0558E
:10452000FE4FE4911896EC931897FE01EE0FFF1FD3
:10453000EC0FFD1FEF54FE4FE4911996EC93199781
:10454000FE01EE0FFF1FEC0FFD1FEE54FE4FE49136
:104550001A96EC931A971B961C921B97832F0E9416
:10456000BB33692F70E0FB01EE0FFF1FE60FF71F53
:10457000E055FE4FE4911C96EC931C97FB01EE0F67
:10458000FF1FE60FF71FEF54FE4FE4911D96EC93CB
:104590001D97FB01EE0FFF1FE60FF71FEE54FE4FB6
:1045A000E4911E96EC931E97842F6AE00E94BB3321
:1045B000682F70E0FB01EE0FFF1FE60FF71FE055BD
:1045C000FE4FE4915196EC935197FB01EE0FFF1FC4
:1045D000E60FF71FEF54FE4FE4915296EC9352977B
:1045E000FB01EE0FFF1FE60FF71FEE54FE4FE491A5
:1045F0005396EC93539754961C925497842F6AE0E9
:104600000E94BB33892F90E0FC01EE0FFF1FE80FE3
:10461000F91FE055FE4FE4915596EC935597FC0138
:10462000EE0FFF1FE80FF91FEF54FE4FE49156966F
:10463000EC935697FC01EE0FFF1FE80FF91FEE54A5
:10464000FE4FE4915796EC935797222341F088E26E
:104650001F968C931F9750968C93509706C01F9669
:104660001C921F9750961C92509716968C911697F5
:10467000882351F0AD01485F5F4F20E160E0CD013C
:10468000DF91CF910C94701F80E090E0FD01E80F66
:10469000F91F208520952087019680319105B1F77B
:1046A000E9CF089570E0FB01E851FC4FE491DC0193
:1046B000EC93FB01E450FC4FE491F0E0EE0FFF1FA0
:1046C000E05FFB4F25913491FC01328321830895F3
:1046D0001F93CF93DF93FC011081C181D281998117
:1046E000812F8095892389838A81812B8A838AE01F
:1046F00090E00E9414289881912381E009F480E0E1
:10470000DF91CF911F910895FF920F931F93CF9345
:10471000DF93FC011081C181D281F8948981F12E4F
:10472000F0948F2189838A81812B8A8378940DE785
:10473000015041F182E090E00E9414288881812399
:10474000B9F3F8948A818F218A838981812B8983A7
:10475000789480EE91E00E941428F89489818F214A
:1047600089838A81812B8A8386E490E00E941428C1
:104770008881812301E009F000E078948AE991E0E2
:104780000E941428802FDF91CF911F910F91FF90ED
:1047900008951F93CF93DF93FC011081C181D281D3
:1047A000912F909560FF12C0F8948A8189238A83A3
:1047B0008981812B89838AE090E00E9414288A8174
:1047C000812B8A83789487E390E011C0F8948A81E2
:1047D00089238A838981812B898381E490E00E94E7
:1047E00014288A81812B8A83789485E090E0DF9178
:1047F000CF911F910C9414280F931F93CF93DF93A5
:10480000FC011081C181D281F8948981812B898337
:104810008A81012F009580238A8383E090E00E94A3
:1048200014288981802389838A81812B8A838AE065
:1048300090E00E941428C881789485E390E00E945B
:1048400014281C2381E009F480E0DF91CF911F91AF
:104850000F910895CF92DF92EF92FF920F931F93E3
:10486000CF93DF931F92CDB7DEB76C01E62E08E041
:1048700010E0FF24F39461E09F2D9E2109F460E095
:10488000C60149830E94C923FF0C015011094981C7
:104890000115110581F741111DC0F894D60111963B
:1048A000ED91FC91129791818C9180958923818360
:1048B0001196ED91FC91129782819C91892B8283B4
:1048C0001196ED91FC91129792818C91809589239C
:1048D000828378940F90DF91CF911F910F91FF9079
:1048E000EF90DF90CF900895EF92FF920F931F9378
:1048F000CF93DF938C01C8E0D0E0F12CEE24E39459
:10490000C8010E94FC238111FE28EE0C2197C1F7FB
:104910008F2DDF91CF911F910F91FF90EF90089510
:1049200040E06CEC0C942A24FC0180910A01808305
:1049300080910B01818312820895DC01E62FF0E063
:10494000EE0FFF1FE65FFE4F80818C9381811196F1
:104950008C93119712966C930895FC0182810895AF
:10496000FC0183810895CF93DF93EC0188810E943D
:10497000FF2888810E946E2921E0892B09F420E01C
:10498000822FDF91CF910895CF93DF93EC0189813E
:104990000E94FF2889810E946E2921E0892B09F459
:1049A00020E0822FDF91CF9108951F93CF93DF9363
:1049B000EC01162F61E088810E94FF28612F888119
:1049C000DF91CF911F910C9438291F93CF93DF93E0
:1049D000EC01162F61E089810E94FF28612F8981F7
:1049E000DF91CF911F910C943829FC0180810C94A8
:1049F0005A28FC0181810C945A28FC0180810C9476
:104A00007728DC01E62FF0E0EE0FFF1FE65FFE4F98
:104A100080818C93818111968C93119712966C935F
:104A20000895DC01E62FF0E0EE0FFF1FE65FFE4F7A
:104A300080818C93818111968C93119712966C933F
:104A4000129713964C930895FC0180810895FC0100
:104A500081810895DC0112966C931297E62FF0E0A5
:104A6000EE0FFF1FE65FFE4F918111969C93119709
:104A700080818C934230D9F4292F30E0F901E8513C
:104A8000FC4FE4911C96EC931C97F901E450FC4F09
:104A9000E491F0E0EE0FFF1FE65EFB4F25913491AD
:104AA00019963C932E93189761E0892F19C0282FEF
:104AB00030E0F901E851FC4FE4911C96EC931C970F
:104AC000F901E450FC4FE491F0E0EE0FFF1FE65EC9
:104AD000FB4F2591349119963C932E93189761E0E2
:104AE0000C94FF28DC01862F262F30E0F901E851D5
:104AF000FC4FE4911C96EC931C97F901E450FC4F99
:104B0000E491F0E0EE0FFF1FE65EFB4F259134913C
:104B100019963C932E93189761E00C94FF28CF933D
:104B2000DF93EC01262F30E03D832C8323E0629F4E
:104B3000C00111240E9450349F838E83892B21F45D
:104B40008BE692E00E94513680E090E04C815D81DE
:104B50009A01220F331F240F351F8217930738F451
:104B6000EE81FF81E80FF91F10820196EFCFDF91F0
:104B7000CF9108950F931F93CF93DF931F92CDB7DB
:104B8000DEB78C0149830E949D24D80111968C9137
:104B9000282F30E0F901E851FC4FE491D8011C9630
:104BA000EC93F901E450FC4FE491F0E0EE0FFF1FAD
:104BB000E65EFB4F25913491F8013187208761E053
:104BC0000E94FF284981642FC8010F90DF91CF9187
:104BD0001F910F910C948F250F93FC01A62FB0E02D
:104BE00084819581A817B907B8F4862F880F860F9E
:104BF00090E0A681B781A80FB91F2C93A681B78139
:104C0000A80FB91F11964C930680F781E02DE80F8D
:104C1000F91F028381E001C080E00F910895CF92D7
:104C2000DF92EF92FF920F931F93CF93DF937C015C
:104C3000142FD22EC02E611113C0C0E0D0E0F701B6
:104C400084819581C817D90748F40C2D2D2D412F4B
:104C50006C2FC7010E94EC252196F1CF81E004C0A2
:104C600061500E94EC2580E0DF91CF911F910F9160
:104C7000FF90EF90DF90CF9008950F93022F242F95
:104C8000462F60E00E940F260F9108950F931F9307
:104C9000D8013FB7F8949C91822F80958923292BC6
:104CA000FB01460F571FE417F50781F0919168E06B
:104CB0002C9300C097FF8C93990F00C000C000C0D8
:104CC00008F48C9300C06A9599F7EDCF3FBF1F9110
:104CD0000F9108950F931F93FC0100851185248186
:104CE0003581A901440F551F420F531F66817781FB
:104CF00024850E9446261F910F910895CF93DF933C
:104D0000EC018E819F810E94E8341F821E82DF9118
:104D1000CF910895CF93DF93EC010E949424CE01AC
:104D20000496DF91CF910C9451231F93CF93DF937F
:104D3000EC01142F0E941125123011F4698101C079
:104D40006881CE010496DF91CF911F910C9452237C
:104D5000CF92DF92EF92FF920F931F93CF93DF9347
:104D6000CDB7DEB72C970FB6F894DEBF0FBECDBF20
:104D70008C010C5F1F4FC8010E948423C8010E9450
:104D8000902440E064E4C8010E942A240E94BD27C8
:104D90006B017C01C8010E94682381110BC00E9435
:104DA000BD276C197D098E099F096E3E72408105F1
:104DB000910580F3C8010E948423C8010E949024B9
:104DC00040E06EEBC8010E942A24CE0101967C01CE
:104DD0006E0196E0C90ED11CC8010E947424F7012F
:104DE00081937F01EC15FD05B9F76A8170E0762F9C
:104DF00066278981682B882777FD8095982F0E94E8
:104E00009A3020E030E040E85DE30E9412322C96B8
:104E10000FB6F894DEBF0FBECDBFDF91CF911F91CB
:104E20000F91FF90EF90DF90CF90089560E00C9489
:104E30009D24CF92DF92EF92FF92CF93DF9300D029
:104E400000D0CDB7DEB77C019A01AB0160E02983C9
:104E50003A834B835C830E94E52482E090E00E94C9
:104E6000142861E0C7010E94E5248AE090E00E94D6
:104E7000142860E0C7010E94E52460E0F701818109
:104E80000E94FF2829813A814B815C8161E0F70112
:104E900081810E9497296B017C0184E690E00E9449
:104EA0001428C701B6010F900F900F900F90DF915B
:104EB000CF91FF90EF90DF90CF90089527E3269F4A
:104EC000A001279F500D112448535F4F60E070E010
:104ED0000E9419270E949A3020E030E048E652E410
:104EE0000E94FF2F08951F920F920FB60F92112468
:104EF0002F933F938F939F93AF93BF938091E0063F
:104F00009091E106A091E206B091E3063091DF06B0
:104F100023E0230F2D3720F40196A11DB11D05C0FC
:104F200026E8230F0296A11DB11D2093DF06809372
:104F3000E0069093E106A093E206B093E306809129
:104F4000E4069091E506A091E606B091E706019689
:104F5000A11DB11D8093E4069093E506A093E6069B
:104F6000B093E706BF91AF919F918F913F912F91A1
:104F70000F900FBE0F901F9018952FB7F894609167
:104F8000E0067091E1068091E2069091E3062FBF62
:104F900008953FB7F8948091E4069091E506A091BA
:104FA000E606B091E70626B5A89B05C02F3F19F08D
:104FB0000196A11DB11D3FBF6627782F892F9A2F1B
:104FC000620F711D811D911D42E0660F771F881FC2
:104FD000991F4A95D1F70895CF92DF92EF92FF92F1
:104FE000CF93DF936B017C010E94C927EB01C114B1
:104FF000D104E104F10489F00E94332F0E94C927F3
:105000006C1B7D0B683E734090F381E0C81AD10899
:10501000E108F108C851DC4FEACFDF91CF91FF9052
:10502000EF90DF90CF9008958230910538F0880F8F
:10503000991F880F991F05970197F1F708957894A4
:1050400084B5826084BD84B5816084BD85B582608D
:1050500085BD85B5816085BDEEE6F0E0808181602B
:105060008083E1E8F0E0108280818260808380812B
:1050700081608083E0E8F0E0808181608083E1EB03
:10508000F0E0808184608083E0EBF0E080818160EB
:105090008083EAE7F0E080818460808380818260A1
:1050A000808380818160808380818068808310928A
:1050B000C10008958E3008F08E508770209128012D
:1050C00090E4299F90011124822B80937C00809191
:1050D0007A00806480937A0080917A0086FDFCCF0C
:1050E000809178002091790090E0922B08951F9391
:1050F000CF93DF93182FEB0161E00E94FF282097E8
:1051000011F460E004C0CF3FD10539F461E0812F94
:10511000DF91CF911F910C943829E12FF0E0EC52F0
:10512000FC4FE491E330F9F048F4E130B9F0E230BB
:10513000A1F584B5806284BDC8BD34C0E730E9F014
:10514000E83019F1E43049F5809180008062809365
:105150008000D0938B00C0938A0024C084B58068FF
:1051600084BDC7BD1FC0809180008068809380008F
:10517000D0938900C093880015C08091B0008068EA
:105180008093B000C093B3000DC08091B0008062E6
:105190008093B000C093B40005C0C038D1050CF0B6
:1051A000B5CFAFCFDF91CF911F910895833081F0BC
:1051B00028F4813099F08230A1F008958730A9F069
:1051C0008830B9F08430D1F4809180008F7D03C0A5
:1051D000809180008F7780938000089584B58F77C9
:1051E00002C084B58F7D84BD08958091B0008F7713
:1051F00003C08091B0008F7D8093B0000895CF935D
:10520000DF9390E0FC01E851FC4F2491FC01E45055
:10521000FC4F8491882349F190E0880F991FFC018D
:10522000EC5DFB4FA591B491865E9B4FFC01C5914F
:10523000D4919FB7611108C0F8948C912095822376
:105240008C93888182230AC0623051F4F8948C9147
:10525000322F309583238C938881822B888304C0DE
:10526000F8948C91822B8C939FBFDF91CF910895FE
:105270000F931F93CF93DF931F92CDB7DEB7282FE5
:1052800030E0F901EC52FC4F8491F901E851FC4FF8
:105290001491F901E450FC4F04910023C9F08823D4
:1052A00021F069830E94D6286981E02FF0E0EE0F9B
:1052B000FF1FE65EFB4FA591B4919FB7F8948C91C8
:1052C000611103C01095812301C0812B8C939FBF76
:1052D0000F90DF91CF911F910F910895CF93DF939E
:1052E000282F30E0F901EC52FC4F8491F901E8518C
:1052F000FC4FD491F901E450FC4FC491CC2391F0C0
:1053000081110E94D628EC2FF0E0EE0FFF1FE05F26
:10531000FB4FA591B4912C912D2381E090E021F4D5
:1053200080E002C080E090E0DF91CF9108950F937C
:105330001F93762F90E0FC01E851FC4F6491FC0133
:10534000E450FC4FE4917111762FF0E0EE0FFF1F57
:10535000E05FFB4F8591949189019A013F70472F3F
:105360000E944702611571058105910531F06F5F5B
:105370007F4F8F4F9F4F9F7003C060E070E0CB0165
:105380001F910F910895FC01818D228D90E0805C2A
:105390009F4F821B91098F7399270895FC01918D6E
:1053A000828D981731F0828DE80FF11D858D90E088
:1053B00008958FEF9FEF0895FC01918D828D9817CE
:1053C00061F0828DDF01A80FB11D5D968C91928DE9
:1053D0009F5F9F73928F90E008958FEF9FEF0895E6
:1053E00080E69BE2892B49F080E090E0892B29F050
:1053F0000E94602B81110C9400000895FC01848DA3
:10540000DF01A80FB11DA35ABF4F2C91848D90E0EE
:1054100001968F739927848FA689B7892C93A089C9
:10542000B1898C9180648C93938D848D981306C080
:105430000288F389E02D80818F7D80830895CF934A
:10544000DF93EC01888D8823C9F0EA89FB8980818C
:1054500085FD05C0A889B9898C9186FD0FC00FB65E
:1054600007FCF5CF808185FFF2CFA889B9898C919F
:1054700085FFEDCFCE010E94FE29E7CFDF91CF91CE
:105480000895CF92DF92FF920F931F93CF93DF93F4
:105490001F92CDB7DEB76C0181E0D60158968C9390
:1054A00058975B969C915B975C968C915C97981350
:1054B00007C05096ED91FC915197808185FD2EC0DB
:1054C000F601038D10E00F5F1F4F0F731127F02EB1
:1054D000F601848DF81211C00FB607FCF9CFD60182
:1054E0005096ED91FC915197808185FFF1CFC601D7
:1054F00069830E94FE296981EBCF838DE80FF11D3E
:10550000E35AFF4F6083D6015B960C935B975296EC
:10551000ED91FC915397808180620CC0D601569624
:10552000ED91FC91579760835096ED91FC915197C6
:1055300080818064808381E090E00F90DF91CF9143
:105540001F910F91FF90DF90CF900895BF92CF925F
:10555000DF92EF92FF92CF93DF93EC016A017B0120
:10556000B22EE889F98982E08083411581EE5807DF
:1055700061057105A1F060E079E08DE390E0A7019D
:1055800096010E94EF332150310941095109569586
:10559000479537952795211580E1380798F0E889D8
:1055A000F989108260E874E88EE190E0A701960125
:1055B0000E94EF3321503109410951095695479511
:1055C00037952795EC85FD853083EE85FF85208313
:1055D000188EEC89FD89B082EA89FB89808180611F
:1055E0008083EA89FB89808188608083EA89FB89DE
:1055F000808180688083EA89FB8980818F7D8083B8
:10560000DF91CF91FF90EF90DF90CF90BF90089502
:105610001F920F920FB60F9211242F938F939F9387
:10562000EF93FF93E091F806F091F9068081E09105
:10563000FE06F091FF0682FD12C090818091010765
:105640008F5F8F7320910207821751F0E09101075D
:10565000F0E0E851F94F958F8093010701C08081F8
:10566000FF91EF919F918F912F910F900FBE0F900F
:105670001F9018951F920F920FB60F9211242F931F
:105680003F934F935F936F937F938F939F93AF93CA
:10569000BF93EF93FF9388EE96E00E94FE29FF915F
:1056A000EF91BF91AF919F918F917F916F915F919A
:1056B0004F913F912F910F900FBE0F901F90189513
:1056C00088EE96E00E94C32921E0892B09F420E0AE
:1056D000822F08951092EB061092EA0688EE93E06E
:1056E000A0E0B0E08093EC069093ED06A093EE0668
:1056F000B093EF068BE892E09093E9068093E8067A
:1057000085EC90E09093F5068093F40684EC90E0AD
:105710009093F7068093F60680EC90E09093F9065C
:105720008093F80681EC90E09093FB068093FA0654
:1057300082EC90E09093FD068093FC0686EC90E06E
:105740009093FF068093FE061092010710920207C5
:105750001092030710920407089508950E941F28CD
:105760000E94AD2B0E949002C0EFD9E20E94B809BE
:105770002097E1F30E94F029F9CFCF92DF92EF92C8
:10578000FF920F931F93CF93DF936C017A01EB018C
:10579000E60EF71E00E010E0CE15DF0561F069911E
:1057A000D601ED91FC910190F081E02DC6010995A3
:1057B000080F191FF1CFC801DF91CF911F910F91F1
:1057C000FF90EF90DF90CF9008956115710581F003
:1057D000DB010D900020E9F7AD0141505109461B56
:1057E000570BDC01ED91FC910280F381E02D0994CF
:1057F00080E090E00895DC01ED91FC91DB011496CE
:105800004D915C9115976D917C910280F381E02D13
:1058100009940C94E52BDC01ED91FC910190F08151
:10582000E02D099467E972E00C94E52B0F931F9328
:10583000CF93DF93EC010E94FB2B8C01CE010E94E1
:10584000122C800F911FDF91CF911F910F9108951E
:105850000F931F93CF93DF93EC010E94E52B8C01F4
:10586000CE010E94122C800F911FDF91CF911F91CA
:105870000F9108958F929F92AF92BF92CF92DF9235
:10588000EF92FF920F931F93CF93DF93CDB7DEB7C5
:10589000A1970FB6F894DEBF0FBECDBF7C01C42E1A
:1058A000E52FCB01D22E19A221E02D1510F02AE010
:1058B000D22E8E010F5D1F4F8D2C912CA12CB12C5F
:1058C0006C2D7E2FA50194010E94EF338C2DD29E6A
:1058D00080191124015011098A3014F4805D01C02F
:1058E000895CF8018083211531054105510521F0BE
:1058F000C22EE32FCA01E4CFB801C7010E94E52BF5
:10590000A1960FB6F894DEBF0FBECDBFDF91CF9149
:105910001F910F91FF90EF90DF90CF90BF90AF90CD
:105920009F908F900895CF92DF92EF92FF920F9306
:105930001F93CF93DF93EC016A017B0121153105A1
:1059400079F4E881F9810190F081E02D642FDF91F5
:10595000CF911F910F91FF90EF90DF90CF9009941E
:105960002A303105E9F477FF1AC06DE20E940B2C52
:105970008C0144275527BA014C195D096E097F092E
:105980002AE0CE010E943A2C800F911FDF91CF9127
:105990001F910F91FF90EF90DF90CF9008952AE034
:1059A000B701A601CE01DF91CF911F910F91FF901A
:1059B000EF90DF90CF900C943A2C2115310541F4F3
:1059C000DC01ED91FC910190F081E02D642F0994B0
:1059D0000C943A2C9A01462F50E060E070E00C9451
:1059E000DD2C4F925F926F927F928F929F92AF9237
:1059F000BF92CF92DF92EF92FF920F931F93CF93BC
:105A0000DF93EC016A017B01B22E9A01AB01C70161
:105A1000B6010E940633882319F06AE972E027C0B4
:105A200026013701E89477F82FEF3FEF4FE75FE764
:105A3000C301B2010E94063381110DC02FEF3FEF69
:105A40004FE75FE7C301B2010E94FB2F18161CF459
:105A50006EE972E00CC02FEF3FEF4FE75FE4C70144
:105A6000B6010E94C2311816ACF462EA72E0CE01AF
:105A7000DF91CF911F910F91FF90EF90DF90CF902A
:105A8000BF90AF909F908F907F906F905F904F905E
:105A90000C94E52B2FEF3FEF4FE75FECC701B6010A
:105AA0000E94FB2F87FDE1CF20E030E0A901C70174
:105AB000B6010E94FB2F87FF0AC06DE2CE010E9453
:105AC0000B2C8C01F7FAF094F7F8F09402C000E088
:105AD00010E0A12C60E070E080E09FE3AB1441F0A7
