:100000000C9425020C944D020C944D020C944D025C
:100010000C944D020C944D020C944D020C944D0224
:100020000C944D020C94B6100C941C2C0C94E82AE1
:100030000C944D020C944D020C944D020C944D0204
:100040000C944D020C94F30A0C944D020C944D0246
:100050000C944D020C944D020C944D020C94E12230
:100060000C944D020C94ED270C941F280C944D0217
:100070000C944D020C944D020C944D020C944D02C4
:100080000C944D020C944D020C944D020C944D02B4
:100090000C94960E0C944D020C944D020C944D024F
:1000A0000C944D020C944D020C944D024C0999078E
:1000B000AD07C707C707E0072909C707DA09DA0943
:1000C000DA09DA09DA09DA09DA093E08F907520821
:1000D000DA09DA09DA098308DA09BF08DE08000953
:1000E000DA09DA09DA09DA095B096309DA09DA09EE
:1000F000DA0978098F09DA09DA09DA09DA09DA0995
:10010000DA09DA09DA09DA09DA09DA09DA09DA09D7
:10011000C1093A243F2444244E245824A224A22472
:10012000A22462246C24762480248D24A224952485
:10013000C324C624B524B924BF24E724E724E72434
:10014000CA24CE24D224D824DC24E724E224084A7A
:10015000D73B3BCE016E84BCBFFDC12F3D6C7431DB
:100160009ABD56833DDA3D00C77F11BED9E4BB4C32
:100170003E916BAAAABE000000803F08000000BEAE
:10018000922449123EABAAAA2ABECDCCCC4C3E004A
:10019000000080BEABAAAAAA3E00000000BF00007B
:1001A00000803F0000000000084178D3BB4387D1A6
:1001B000133D190E3CC3BD4282AD2B3E68EC8276E6
:1001C000BED98FE1A93E4C80EFFFBE01C4FF7F3F47
:1001D000000000000007634236B79BD8A71A3968B1
:1001E0005618AEBAAB558C1D3CB7CC5763BD6DED00
:1001F000FD753EF6177231BF000000803F003F06DC
:100200005B4F666D7D077F6F777C395E7971BF8646
:10021000DBCFE6EDFD87FFEFF7FCB9DEF9F100403B
:10022000070605040100080A0B0C0D090000000276
:1002300000090F0000030401000C00000000000092
:10024000000000000000000000000408020110404F
:10025000804010204080408008020401804020102F
:10026000020110801020404004040404040304052B
:100270000202020204030202020206060606060643
:1002800004040202020400000000230026002900EA
:100290002C002F0000000000250028002B002E005D
:1002A000310000000000240027002A002D0030004B
:1002B000080B000202020100090400000102020012
:1002C0000005240010010524010101042402060593
:1002D0002406000107058103100040090401000203
:1002E0000A000000070502024000000705830240E3
:1002F000000000C18081C1120100020200004041E3
:1003000023368000010102000112010002000000FA
:100310004041233680000101020001417264756989
:100320006E6F204C4C430041726475696E6F204CB7
:10033000656F6E6172646F000403090400000000C1
:10034000000000002A2B2800000000000000000030
:100350000000000000000000000000002C9EB4A07F
:10036000A1A2A434A6A7A5AE362D3738271E1F207C
:10037000212223242526B333B62EB7B89F84858641
:100380008788898A8B8C8D8E8F9091929394959685
:100390009798999A9B9C9D2F3130A3AD3504050603
:1003A0000708090A0B0C0D0E0F1011121314151665
:1003B0001718191A1B1C1DAFB1B0B50009040200B3
:1003C0000103000000092101010001226500070569
:1003D000840340000105010902A1010901A1008572
:1003E00001050919012903150025019503750181EE
:1003F0000295017505810305010930093109381598
:1004000081257F750895038106C0C005010906A1F5
:10041000018502050719E029E715002501750195F9
:100420000881029501750881039506750815002558
:10043000650507190029658100C08D06B40D2F15CB
:100440006F264F28C52ED906331511241FBECFEFB6
:10045000DAE0DEBFCDBF11E0A0E0B1E0E8EBFCE602
:1004600002C005900D92A63FB107D9F727E0A6EF8D
:10047000B1E001C01D92A630B207E1F714E0C6E476
:10048000D4E004C02297FE010E94CC33CA33D107C6
:10049000C9F70E9493280C944F360C940000CF9219
:1004A000DF92EF92FF920F931F93E82FF92F05C071
:1004B000015011092109310961F1908196239417A6
:1004C000B9F305C0015011092109310911F19081D9
:1004D00096239413F7CFC12CD12CE12CF12C0AC018
:1004E0008FEFC81AD80AE80AF80A0C151D052E0560
:1004F0003F0579F080818623841791F36C2D7D2D43
:100500008E2D9F2D1F910F91FF90EF90DF90CF9038
:10051000089560E070E080E090E01F910F91FF90FF
:10052000EF90DF90CF90089561E08DE00E94E82485
:1005300061E08DE00E9421256CE271E080E090E0B6
:100540000E945A2360E08DE00E94212540E052EC99
:1005500061E070E089EF95E00E94692664EF71E048
:1005600080E090E00E945A236A9A729A64E670E0F2
:1005700080E090E00E945A236A9A729826E040E058
:1005800052EC61E070E089E496E00E946F278AE017
:1005900093E00C94CB1820917C02FC01222319F0EB
:1005A000EC5EFD4F02C0E85BFD4F80810895209115
:1005B0007C02FC01222319F0EC5EFD4F02C0E85BD7
:1005C000FD4F6083089589EF95E00E94E82889E453
:1005D00096E00C94E828CF93DF93EC010E94CB02C5
:1005E00080938402CE0101960E94CB028093850203
:1005F0008091840290918502DF91CF9108950F93AD
:100600001F93CF93DF93EC010E94CB0206E812E028
:10061000F8018083CE0101960E94CB02809387026D
:10062000CE0102960E94CB0280938802CE010396EF
:100630000E94CB0280938902F801608171818281DE
:100640009381DF91CF911F910F910895EFEFF1E02A
:1006500020E030E0419151914817590791F0452B26
:1006600041F4F901EE0FFF1FE150FE4F91838083AB
:1006700008C02F5F3F4F2830310561F780E090E0E0
:100680000895C9010895AF92BF92CF92DF92EF9281
:10069000FF920F931F93CF93DF93CDB7DEB7E6970B
:1006A0000FB6F894DEBF0FBECDBF8C0186E090E0A0
:1006B0000E94CB02D82EE82EF12C0C30110509F443
:1006C000E4C14CF50830110509F4E8C1F4F4033035
:1006D000110509F463C20530110509F00DC386E068
:1006E00090E00E94EB028C0169E08EE793E00E94AB
:1006F000631CB8018EE793E00E94061588E090E045
:100700000E94EB028C016AE02AC00A30110509F14F
:100710000CF42BC2FAC10132110509F4B8C26CF411
:100720000E31110509F479C20032110509F481C2B4
:100730000431110509F0E0C248C208321105C9F0C0
:100740000233110509F4C6C20232110509F0D4C200
:100750007DC287E090E00E94EB028C016D2D8EE758
:1007600093E00E94631CB8018EE793E00E94061597
:10077000C3C287E090E00E94EB028C0189E090E028
:100780000E94EB025C0181E0E816F10409F0BBC0B5
:1007900061E0CE0101960E94E61E8B819C81AD81B5
:1007A000BE8180939E0290939F02A093A002B0937B
:1007B000A1028F818093A20288859985AA85BB8535
:1007C0008093A3029093A402A093A502B093A602E3
:1007D0008C859D85AE85BF858093A7029093A802E6
:1007E000A093A902B093AA0288899989AA89BB8992
:1007F0008093AB029093AC02A093AD02B093AE0293
:100800008C899D89AE89BF898093AF029093B00295
:10081000A093B102B093B202888D998DAA8DBB8D41
:100820008093B3029093B402A093B502B093B60242
:100830008C8D9D8DAE8DBF8D8093B7029093B80245
:10084000A093B902B093BA0288A199A1AAA1BBA1B1
:100850008093BB029093BC02A093BD02B093BE02F2
:100860008CA19DA1AEA1BFA18093BF029093C002B5
:10087000A093C102B093C20288A599A5AAA5BBA561
:100880008093C3029093C402A093C502B093C602A2
:100890008CA59DA5AEA5BFA58093C7029093C80265
:1008A000A093C902B093CA0288A999A9AAA9BBA911
:1008B0008093CB029093CC02A093CD02B093CE0252
:1008C0008CA98093CF028DA98093D002A5016627C1
:1008D00057FD6095762F8CE992E00E94EA20B801DE
:1008E000882777FD8095982F0E9438306B017C0116
:1008F000AB01BC018CE992E00E940121B701A60185
:100900008CE992E0BFC082E0E816F10409F0F4C17E
:1009100062E0CE0101960E94E61E8B819C81AD8132
:10092000BE818093D3029093D402A093D502B0935A
:10093000D6028F818093D70288859985AA85BB8549
:100940008093D8029093D902A093DA02B093DB028D
:100950008C859D85AE85BF858093DC029093DD02FA
:10096000A093DE02B093DF0288899989AA89BB89A6
:100970008093E0029093E102A093E202B093E3023D
:100980008C899D89AE89BF898093E4029093E502AA
:10099000A093E602B093E702888D998DAA8DBB8D56
:1009A0008093E8029093E902A093EA02B093EB02ED
:1009B0008C8D9D8DAE8DBF8D8093EC029093ED025A
:1009C000A093EE02B093EF0288A199A1AAA1BBA1C6
:1009D0008093F0029093F102A093F202B093F3029D
:1009E0008CA19DA1AEA1BFA18093F4029093F502CA
:1009F000A093F602B093F70288A599A5AAA5BBA576
:100A00008093F8029093F902A093FA02B093FB024C
:100A10008CA59DA5AEA5BFA58093FC029093FD0279
:100A2000A093FE02B093FF02C8A8D9A8EAA8FBA829
:100A3000C0920003D0920103E0920203F0920303FC
:100A40008CA9809304038DA980930503A5016627D3
:100A500057FD6095762F81ED92E00E94EA20B80163
:100A6000882777FD8095982F0E9438306B017C0194
:100A7000AB01BC0181ED92E00E940121B701A6010A
:100A800081ED92E00E945C2137C187E090E00E94F6
:100A9000EB0289E090E00E94EB022EC187E090E03B
:100AA0000E94CB02482F88E090E04EAB0E94CB0220
:100AB000E82E89E090E00E94CB02182F8AE090E0B7
:100AC0000E94CB02F82E8BE090E00E94CB02082F10
:100AD0004EA96D2D8FE593E00E948C1CEE2049F00D
:100AE0006FEF6E0D2F2D412F8FE593E00E940A1DB1
:100AF00007C0202F4F2D612F8FE593E00E945B1DD3
:100B00008FE593E00E94881DF7C087E090E00E9487
:100B1000CB029701220F331FF901EE5DFE4F8130AA
:100B200011F4008101C0018110E088E090E00E9492
:100B3000CB02D82EC8010E942603FC01EE0FFF1F36
:100B4000E80FF91FEE57FC4F208131814281298344
:100B50003A834B8384EB8D1508F4CEC0B801CE01E7
:100B600001960E94490C6D2DAFC081E593E00E9473
:100B70000F1C282F30E02E153F0529F06D2D81E543
:100B800093E00E94F81387E090E00E94FF02AB011F
:100B9000BC0181E593E00E941A14AEC08DE493E09D
:100BA0000E940F1C282F30E02E153F0529F06D2DD7
:100BB0008DE493E00E94631C87E090E00E94CB02EA
:100BC00061E081111BC060E019C08DE493E00E94D8
:100BD0000F1C282F30E02E153F0529F06D2D8DE4D8
:100BE00093E00E94631C87E090E00E94CB02282FD4
:100BF00030E0223031053CF4682F61708DE493E0E1
:100C00000E94371C79C061E02230310509F460E0B0
:100C10008DE493E00E94471C6FC061E00E94E824CD
:100C200087E090E00E94CB02682F8D2D0E94212545
:100C300063C061E00E94E82487E090E00E94CB025C
:100C4000682F70E08D2D0E94142456C061E00E9430
:100C5000E82487E090E00E94EB026C0189E090E0DC
:100C60000E94EB021816190664F48C01222717FD66
:100C70002095322FA601B70188E992E00E949114D5
:100C80003BC0B70188E992E00E94F81435C087E0C4
:100C900090E00E94CB02182F853B70F5C7010E949F
:100CA0002603FC01EE0FFF1FE80FF91FEE57FC4F64
:100CB00020813181428129833A834B83B701CE0160
:100CC00001960E94490C612F70E0CE0101960E94AE
:100CD000820C12C00E942B230E94363020E030E0AC
:100CE0004AE754E40E949D2F6093FA017093FB0140
:100CF0008093FC019093FD01E6960FB6F894DEBF59
:100D00000FBECDBFDF91CF911F910F91FF90EF905C
:100D1000DF90CF90BF90AF900895CF93DF93C2E85C
:100D2000D3E0CE010E94AF0B239683E0CA39D807E7
:100D3000C1F78EE793E00E9403158CE693E00E94D2
:100D4000F8218FE593E00E94FF1C8BE593E00E9461
:100D5000842281E593E00E9462128DE493E00E9478
:100D6000F61B8AE093E00E946B1586E093E00E94F8
:100D7000951A8CE992E00E94D81E81ED92E00E94C3
:100D8000D81E88E992E00E948B1482E992E00E94CA
:100D90004B198EE892E00E9437158AE892E00E9493
:100DA00051156BE471E08EE792E0DF91CF910C94E6
:100DB000452D8EE792E00E94D72C8FE593E00C94AE
:100DC0009C1DCF93C82F682F89EF95E00E94AC251A
:100DD0006C2F89E496E0CF910C940A278FEF0E9444
:100DE000E10685E50C94E1068FEF0E94E10685E5BA
:100DF0000E94E1060C94E302CF93C82F81E00E9489
:100E0000E1068C2FCF910C94E106EF92FF920F93A5
:100E10001F93CF93DF937C01FC01C4810C2F1581BC
:100E200084E00E94E1068C2F0E94E106C0E0D0E041
:100E3000C017D10744F4BE01C7010E948C2D0E9447
:100E4000E1062196F5CFDF91CF911F910F91FF9091
:100E5000EF900895FF920F931F93CF93DF931F920C
:100E6000CDB7DEB78B01F82E82E099830E94E106B0
:100E7000A8016F2D9981792F4093860250938702A4
:100E80006093880270938902802F0E94E10680910E
:100E900087020E94E106809188020E94E10680910B
:100EA00089020F90DF91CF911F910F91FF900C94C9
:100EB000E106CF92DF92EF92FF926B017C0183E01B
:100EC0000E94E106C701B6010E940530862F262F39
:100ED000372F30938502209384020E94E10680918F
:100EE0008502FF90EF90DF90CF900C94E106CF92B7
:100EF000DF92EF92FF920F931F93CF93DF93CDB7C3
:100F0000DEB727970FB6F894DEBF0FBECDBF7C01CA
:100F100086E090E00E94CB02D82E082F10E083E3F9
:100F2000E816F10408F046C2F701EA5AFF4F0C94A4
:100F3000CA338BE593E00E940F1C90E08017910765
:100F400029F06D2D8BE593E00E94631C60E971E050
:100F50008BE593E00E94CC221CC287E090E00E94C7
:100F6000CB02F82E8CE693E00E940F1C282F30E075
:100F70002017310709F010C28CE693E00E94121C82
:100F80008F110AC28CE693E00E94162202C28DE401
:100F900093E00E940F1C90E08017910761F06D2D87
:100FA0008DE493E00E94631C8DE493E00E94891C11
:100FB00060E00E94E8248DE493E00E945B1C90C1F5
:100FC00087E090E00E94CB02F82E86E093E00E943A
:100FD0000F1C282F30E02017310729F06D2D86E0F7
:100FE00093E00E94631C6F2D86E093E00E94981AA4
:100FF00077C180914B0390914C030097F1F04F968D
:101000000E940F1C90E08017910731F100914B0373
:1010100010914C030115110581F085EA91E0F8016A
:1010200091838083C80182599F4F0E94D72CC801A9
:101030000E943011C8010E94A82887E790E00E9412
:10104000A6288C016D2D0E942E1A10934C0300933C
:101050004B03C8010E94401A80914B0390914C03AE
:101060000E946B1A682F809310028FEF860F8E3FBD
:1010700008F47FC060E070E0CB018BC18DE493E0A9
:101080000E940F1C90E08017910709F46CC06D2D31
:101090008DE493E00E94631C8DE493E00E94891C20
:1010A00060E05FC08DE493E00E940F1C90E0801729
:1010B000910799F06D2D8DE493E00E94631C8DE4FF
:1010C00093E00E94861C60E00E94E8248DE493E097
:1010D0000E94891C60E00E94E82460E08DE493E0B7
:1010E0000E94151C182F60E08DE493E00E94261CDE
:1010F000612F70E0660F771F680F711D882777FDDD
:101100008095982FF2C087E090E00E94CB02C82E15
:10111000E82EF12C8DE493E00E940F1C282F30E084
:101120002017310709F03FC18DE493E00E94121CA3
:10113000282F30E02E153F0509F035C18DE493E0EE
:10114000EA94EF2859F40E94861C62E00E94E82489
:1011500060E08DE493E00E94151C0AC00E94891C87
:1011600062E00E94E82460E08DE493E00E94261C87
:10117000682F70E080E090E00E9436300AC187E07E
:1011800090E00E94CB02F82E82E992E00E940F1CB0
:10119000282F30E02017310729F06D2D82E992E0E9
:1011A0000E94631C82E992E00E944E196F2D82E931
:1011B00092E00E94271A0E94FC06FCC08EE892E092
:1011C0000E940F1C90E080179107A9F06D2D8EE80A
:1011D00092E00E94631C8EE892E00E94861C482FD9
:1011E0008EE892E04F830E94891C4F81682F8EE821
:1011F00092E00E943A158EE892E00E944F1521C0BD
:101200008AE892E00E940F1C90E080179107A9F0F5
:101210006D2D8AE892E00E94631C8AE892E00E94A9
:10122000861C482F8AE892E04F830E94891C4F81D8
:10123000682F8AE892E00E9454158AE892E00E94A2
:101240006915BC01882777FD8095982F0E9438305A
:1012500063C087E090E00E94CB02082F10E08AE094
:1012600093E00E94DB150130110529F48AE093E038
:101270000E9478158EC00230110529F48AE093E0AF
:101280000E947E1586C00330110509F093C08AE0E4
:1012900093E00E9484157DC06EE772E0CE01019656
:1012A0000E94722DCE0101960E940507CE01019683
:1012B0000E94D72C7FC060E08D2D0E94E8248D2DE8
:1012C0000E9457250DC0F801EE0FFF1FE65FFE4F8D
:1012D000108160E0812F0E94E824812F0E94E32387
:1012E000BC01882777FD8095982F0E94383051C027
:1012F00087E090E00E94EB028C0160E08D2D0E945F
:10130000E8249801442737FD4095542F61E08D2D46
:101310000E9480250E9436300E9459074BC087E00A
:1013200090E00E94CB02182F61E08D2D0E94E824EE
:1013300060E08D2D0E94212582E090E00E948223B2
:1013400061E08D2D0E9421258AE090E00E94822399
:1013500060E08D2D0E94212560E0812F0E94E8240D
:1013600020E335E740E050E061E0812F0E948025D6
:101370000E94363020E030E048E652E40E949D2F83
:1013800008C06091F6017091F7018091F801909189
:10139000F9010E942A070EC04F2D6D2D8CE693E0B7
:1013A0000E940322EFCD4C2D6D2D8DE493E00E9421
:1013B000731CC4CE27960FB6F894DEBF0FBECDBF08
:1013C000DF91CF911F910F91FF90EF90DF90CF9021
:1013D00008950F931F93CF93DF931092110283E030
:1013E00090E00E94CB02082F84E090E00E94CB02A4
:1013F000182F85E090E00E94CB02C82FD0E0123079
:10140000B9F088F4113009F049C00E94EE06802F2F
:101410000E94E106CE010E947707DF91CF911F91D4
:101420000F910C94E302143039F0153089F136C075
:10143000CE010E9443032CC069E08EE793E00E9436
:10144000631C60E070E08EE793E00E9406156AE09E
:101450008EE793E00E94631C60E070E08EE793E00B
:101460000E94061561E08EE793E00E94631C60E035
:1014700070E08EE793E00E94061562E08EE793E04D
:101480000E94631C60E070E08EE793E00E94061506
:10149000DF91CF911F910F910C94F406DF91CF91C2
:1014A0001F910F91089510927D0289EF95E00E949F
:1014B000D625181619065CF481E080937D021092FF
:1014C0007C0289EF95E00E94E62580930F0289E473
:1014D00096E00E948C26181619065CF481E0809331
:1014E0007D0280937C0289E496E00E94A526809389
:1014F0000F0208950E942B230E94363020E030E036
:101500004AE754E40E949D2F2091FA013091FB019B
:101510004091FC015091FD010E94D22E6093F60192
:101520007093F7018093F8019093F90180914B0338
:1015300090914C03009711F00E94701A0E94530A78
:101540008CE992E00E94D62181ED92E00E94D621A2
:1015500080917D02882309F445C060910F0280913B
:101560001102653561F481110AC08091FE018F3F3F
:10157000D9F481E0809313028093110215C0609327
:10158000FE01882389F080911302823019F4609360
:10159000120207C0833028F090911202915090936C
:1015A000120290E00E94D702809113028F5F843371
:1015B00018F48093130204C01092130210921102C7
:1015C00080911102882371F08091120281110AC06A
:1015D00080911302843030F0109211020E94E909C8
:1015E0001092130208951F920F920FB60F921124BA
:1015F0002F933F934F935F936F937F938F939F931B
:10160000AF93BF93EF93FF9380919B0387FF05C038
:1016100010928500109284001AC020919B033327FA
:1016200027FD309580919A0390E0281739077CF4C4
:1016300080919B03992787FD9095FC01EE0FFF1F7A
:10164000E80FF91FE456FC4F808186FD15C080919C
:101650009B038F5F80939B0320919B03332727FD80
:10166000309580919A0390E028173907BCF4809157
:101670009B038C305CF112C080919B03992787FDFE
:101680009095FC01EE0FFF1FE80FF91FE456FC4F89
:10169000808160E08F730E942125D9CF80918400E2
:1016A00090918500049680349C4918F480E49CE96C
:1016B00005C08091840090918500049690938900E4
:1016C000809388008FEF80939B0338C02091840023
:1016D0003091850080919B03992787FD9095FC01AF
:1016E000EE0FFF1FE80FF91FE456FC4F8181928136
:1016F000820F931F909389008093880080919B03B1
:10170000992787FD9095FC01EE0FFF1FE80FF91F49
:10171000E456FC4F808186FF11C080919B0399277E
:1017200087FD9095FC01EE0FFF1FE80FF91FE456AF
:10173000FC4F808161E08F730E942125FF91EF9122
:10174000BF91AF919F918F917F916F915F914F91D9
:101750003F912F910F900FBE0F901F9018952091E1
:101760009A032C30A0F431E0320F30939A03FC013D
:101770002083822F90E0FC01EE0FFF1FE80FF91F7E
:10178000E456FC4F88EB9BE09283818308952FEF12
:10179000FC0120830895DF92EF92FF920F931F9335
:1017A000CF93DF93EC01D62E7A01890188818C30AA
:1017B00008F066C061E08D2D0E94E8248881A82F82
:1017C000B0E0FD01EE0FFF1FEA0FFB1FE456FC4FD8
:1017D0002D2D2F739081907C922B908360E272E08C
:1017E0006E197F0977FF02C06D5F7F4F7595679512
:1017F00075956795698340E659E0401B510B57FF8B
:1018000002C04D5F5F4F55954795559547954A8363
:101810006CE00E9455339CE0899FB001112420E0C8
:1018200030E0A901460F571FFA01EE0FFF1FE40F2A
:10183000F51FE456FC4F908196FD16C02F5F3F4F79
:101840002C30310571F781110FC01092800082E0B9
:10185000809381001092850010928400B19A80914B
:101860006F00826080936F00888190E0FC01EE0F32
:10187000FF1FE80FF91FE456FC4F808180648083CE
:101880008881DF91CF911F910F91FF90EF90DF90B2
:10189000089520E639E040E252E00C94CB0BFC01C5
:1018A00080818C3070F5918128E830E0291B310966
:1018B00097FD3395220F331F220F331F62177307D3
:1018C0007CF0928128E532E0291B310997FD3395A0
:1018D000220F331F220F331F621773070CF49B0173
:1018E00022503109220F331F4FB7F89490E0FC01CA
:1018F000EE0FFF1FE80FF91FE456FC4F32832183E0
:101900004FBF08954F925F926F927F92AF92BF92B6
:10191000CF92DF92EF92FF920F931F93CF93DF93BB
:10192000EC01603282E078070CF040C077FD06C021
:10193000653B71052CF064EB70E002C060E070E084
:10194000898128E830E0281B310987FD3395220F73
:10195000331F220F331F5901CC24B7FCC094DC2C59
:10196000882777FD8095982F2A8148E552E0421B11
:10197000510927FD5395440F551F440F551F2A0148
:10198000662457FC6094762C7F926F925F924F9200
:1019900014EBE12EF12C00E010E020E030E0A90192
:1019A0000E94902C0F900F900F900F90CE01DF911E
:1019B000CF911F910F91FF90EF90DF90CF90BF904C
:1019C000AF907F906F905F904F900C944F0C8091F0
:1019D000F00390E02091F103821B9109089520917A
:1019E000F1038091F003281750F4E22FF0E0EE505D
:1019F000FC4F808190E02F5F2093F10308958FEFDB
:101A00009FEF0895E091F1038091F003E81730F41F
:101A1000F0E0EE50FC4F808190E008958FEF9FEF53
:101A200008950895CF92DF92EF92FF920F931F9344
:101A3000CF93DF937C01CB018A012091CC03222339
:101A400089F0EB016B01C40ED51ECC15DD0569F0E4
:101A50006991D701ED91FC910190F081E02DC701D2
:101A60000995F3CF642F0E946D0EC801DF91CF91CD
:101A70001F910F91FF90EF90DF90CF900895CF933B
:101A8000DF931F92CDB7DEB769832091CC03222369
:101A9000D1F02091CD03203240F021E030E0FC0174
:101AA0003383228380E090E015C08091CE03E82F3D
:101AB000F0E0E153FC4F998190838F5F8093CE03D8
:101AC0008093CD0305C061E0CE0101960E946D0EAA
:101AD00081E090E00F90DF91CF910895FC01138297
:101AE000128248EE53E060E070E0448355836683E1
:101AF000778387E591E09183808308951092F103C5
:101B00001092F0031092CE031092CD030C94B80DF6
:101B1000862F413208F040E262EF73E00E94D60D5A
:101B20001092F1038093F003089581E08093CC0339
:101B30006093EF031092CE031092CD0308950C949E
:101B4000950D0F93062F21E04091CD036FEC73E0CC
:101B50008091EF030E941A0E1092CE031092CD03D3
:101B60001092CC030F91089580EC93E00C946E0DCD
:101B700010927F0481E080937D0410927C0461E0E8
:101B800082E00E94212561E083E00E942125E9EBAB
:101B9000F0E080818E7F808380818D7F808388E4E8
:101BA0008093B80085E48093BC000895413208F02A
:101BB0003FC090917F049111FCCF91E090937F04FE
:101BC00020937D042FEF2093120410925704240FCA
:101BD0002093560490937E0490917E04880F892B65
:101BE00080937E0480917C04813041F410927C04C7
:101BF00080917E048093BB0085EC01C085EE8093CC
:101C0000BC0080917F048130E1F3809157048417F8
:101C100010F44091570428E534E0FB01D9018A2FE4
:101C2000821B841718F48D918193F9CF842F089526
:101C300080E008950F93413208F046C090917F04F0
:101C40009111FCCF92E090937F0400937D049FEF6D
:101C5000909312041092570440935604FB0168E5D8
:101C600074E0DB019A2F961B941718F491919D93C1
:101C7000F9CF10927E0490917E04880F892B809377
:101C80007E0480917C04813041F410927C04809128
:101C90007E048093BB0085EC01C085EE8093BC0080
:101CA000222321F080917F048230E1F3809112049D
:101CB0008F3F61F080911204803251F080911204C4
:101CC000803341F483E007C081E005C080E003C0B9
:101CD00082E001C084E00F910895613298F4209170
:101CE0007F04243089F460933404FC0186E394E09B
:101CF000DC012A2F281B261718F421912D93F9CFE8
:101D000080E0089581E0089582E0089585ED809354
:101D1000BC008091BC0084FDFCCF10927F0408952C
:101D200085EC8093BC0010927F0408951F920F925F
:101D30000FB60F9211242F933F934F935F936F939E
:101D40007F938F939F93AF93BF93EF93FF93809174
:101D5000B900887F803609F49CC068F5883209F4A0
:101D60005BC090F4803109F454C038F4882309F43E
:101D7000F5C0883009F44DC0F5C0883109F44CC075
:101D8000803209F45DC0EEC0803409F468C048F4C4
:101D9000803309F455C0883309F0E4C080931204FD
:101DA000A8C0803509F44FC0883509F45DC0883477
:101DB00009F0D8C0D5C0883909F4C6C0A8F488375E
:101DC00009F467C038F4883609F463C0803709F431
:101DD00060C0C8C0883809F4B7C0803909F45FC052
:101DE000803809F0BFC05BC0803B09F485C038F47F
:101DF000803A09F466C0883A09F47EC0B3C0803CDA
:101E000009F4A6C0883C09F4A3C0883B09F489C042
:101E1000A9C080917E0410C090915704809156040F
:101E2000981770F5E091570481E08E0F8093570466
:101E3000F0E0E85AFB4F80818093BB0085EC85C0C1
:101E4000809312048DC0E091570481E08E0F80933F
:101E500057048091BB00F0E0E85AFB4F80839091DB
:101E60005704809156046DC0E091570481E08E0FB5
:101E7000809357048091BB00F0E0E85AFB4F8083C9
:101E800080917D0481116CC081E080937C0484EAA0
:101E900060C083E080937F0410921304CFCF8091C1
:101EA0001304803208F050C0E091130481E08E0FDB
:101EB000809313048091BB00F0E0EC5EFB4F8083C5
:101EC000BDCF80911304803230F4E0911304F0E030
:101ED000EC5EFB4F10820E94860E6091130470E04E
:101EE000E0917804F091790484E194E009951092EE
:101EF00013040E94900E36C084E080937F041092F9
:101F0000350410923404E0917A04F0917B04099531
:101F100080913404811105C081E0809334041092D3
:101F20003604E091350481E08E0F80933504F0E0B3
:101F3000EA5CFB4F80818093BB00909135048091D7
:101F40003404981708F47ACF85E88093BC000AC05F
:101F500085EC8093BC0010927F0404C010921204A0
:101F60000E94860EFF91EF91BF91AF919F918F914B
:101F70007F916F915F914F913F912F910F900FBE85
:101F80000F901F9018952091C2043091C304281718
:101F90003907B9F49091800480918104981789F0F1
:101FA000E0918004F0E0EE57FB4F808120918004A7
:101FB00030E02F5F3F4F2F7333272093800490E052
:101FC00008958FEF9FEF08951F93CF93DF93DC0168
:101FD0005C968D919C915D97009749F481E090E02B
:101FE00013969C938E93129780E090E03BC051969D
:101FF000ED91FC91529750962C915097322F30953D
:102000001FB75E964C915E9741FB772770F941FDB3
:102010006095F8944081772311F0422B01C043234F
:102020004083EC012197F1F748E0508160FF02C046
:10203000522B01C053235083EC012197F1F7669591
:10204000415099F78081772311F0832301C0822BBF
:1020500080831FBF5C968D919C915D970197F1F7EE
:1020600081E090E0DF91CF911F9108952091C2040B
:102070003091C3042817390781F49091800480912E
:102080008104981751F0E0918004F0E0EE57FB4F87
:102090008081992787FD909508958FEF9FEF089590
:1020A0002091C2043091C3042817390771F480913C
:1020B00081042091800490E0805C9F4F821B9109F5
:1020C00060E470E00E947533089580E090E0089528
:1020D0002091C2043091C3042817390739F48FB70F
:1020E000F89410928104109280048FBF0895E091BB
:1020F000C204F091C304E817F90769F4A389B4890D
:102100009C918589809589238C931092C3041092A9
:10211000C20481E0089580E00895CF93DF93EC013D
:102120008A8D9B8D892BF1F08091C2049091C3041C
:102130008C179D07B9F0009711F00E9477108E8DD3
:102140008E7F8E8F1092810410928004D093C304EE
:10215000C093C204EB89FC8980819D89892B80838F
:1021600081E001C080E0DF91CF9108951F920F922E
:102170000FB60F9211242F933F934F935F936F935A
:102180007F938F939F93AF93BF93EF93FF93E091D0
:10219000C204F091C304309709F451C0868DA6851E
:1021A000B785958581FF04C08C91892329F447C0A8
:1021B0008C91892309F043C0A389B4899C918589B6
:1021C000809589238C93868997890197F1F7208DD3
:1021D000318DA685B785758558E040E0C901019726
:1021E000F1F7842F90E095958795482F6C916723A0
:1021F00009F04068515091F7868D81FD409580919E
:10220000810490E001968F7399272091800428170C
:1022100049F0A0918104B0E0AE57BB4F4C9380933E
:10222000810403C0868D8160868F828D938D019796
:10223000F1F7A389B4898C919589892B8C93FF91AF
:10224000EF91BF91AF919F918F917F916F915F912E
:102250004F913F912F910F900FBE0F901F901895A7
:1022600027E631E0FC01318320830C9477101F9323
:10227000CF93DF93EC01162F6E8D6695617081E030
:102280006827812F0E94212561E0812F0E94E82488
:10229000812F90E0FC01E65BFD4FE491E88BFC01AF
:1022A000E859FD4FE491F0E0EE0FFF1FEC56FD4FB3
:1022B000859194919A8B898BDF91CF911F9108958D
:1022C0001F93CF93DF93EC01162F60E0812F0E94C4
:1022D000E8248E8D81FD04C061E0812F0E942125BC
:1022E0001C87812F90E0FC01E65BFD4FE491ED87B8
:1022F000FC01E859FD4FE491F0E0EE0FFF1FEA57B3
:10230000FD4F859194919F878E87DF91CF911F918B
:102310000895FF920F931F93CF93DF93EC01F62E56
:10232000522F1B821A8208EE13E020E030E00C836B
:102330001D832E833F8387E691E0998388831F8ADC
:102340001E8A198E188E1B8E1A8E1D8E1C8E8E8DD7
:102350008E7F50FB81F98E8F642FCE010E94371142
:102360006F2DCE01DF91CF911F910F91FF900C94B3
:102370006011CF93DF93EC019A01AB011B8E1A8E93
:10238000198E188E1F8A1E8A60E079E08DE390E036
:102390000E94AB33C9012430310520F0B9016350EC
:1023A000710902C061E070E07D8F6C8FEC85F8EF01
:1023B000FE0FF43048F062EF6E0F643028F066EEE6
:1023C0006E0F633008F06FC0B90176956795643180
:1023D000710518F06351710902C061E070E07F8BF4
:1023E0006E8B069718F0C901059702C081E090E056
:1023F000998F888FC901880F991F820F931F969517
:102400008795969587958D30910510F00C9702C0B1
:1024100081E090E09B8F8A8FF43058F082EF8E0F2E
:10242000843038F0EA51E33008F042C0A8E6B0E06A
:1024300041C0A8E6B0E0E8E6F0E0808181608C93DE
:102440002C8538EF320F343040F082EF820F843029
:1024500020F086EE820F833018F48BE690E002C005
:1024600080E090E09C8B8B8B343010F4245009C0BA
:102470002E3069F02F3069F0203169F0213169F098
:10248000265181E001C0880F2A95EAF707C088E04D
:1024900005C082E003C084E001C081E08D8B8C8D9B
:1024A0009D8D0197F1F7CE01DF91CF910C948D10A6
:1024B000A0E0B0E0E33008F4BECFE0E0F0E0BDCF54
:1024C0000C9477100C94F61B0F931F93CF93DF930C
:1024D000EC01062F18E060E088850E94212500FFAE
:1024E00002C061E001C060E089850E942125069557
:1024F00061E088850E942125115069F760E0888598
:102500000E94212561E089850E94212561E088855E
:102510000E94212560E089850E94E82418EC8985C5
:102520000E945725892B59F01150C9F761E0898520
:102530000E94E82460E089850E942125EFCF61E0B8
:102540008985DF91CF911F910F910C94E824CF934F
:10255000DF93EC0161E088850E94212561E0898597
:102560000E94212560E089850E94212560E0888500
:10257000DF91CF910C942125CF93DF93EC0160E0A4
:1025800088850E94212560E089850E94212561E0DF
:1025900088850E94212561E08985DF91CF910C9487
:1025A0002125CF92DF92FF920F931F93CF93DF935A
:1025B0001F92CDB7DEB76C01F62E79830E94A71269
:1025C00060E4C6010E946412C6010E94BC12C601EA
:1025D0000E94A712F6016581C6010E9464120F2DA8
:1025E0007981172F84E0F82EF80161918F01C601DF
:1025F0000E946412FA94C1F7C6010E94BC12C6017F
:102600000E94A712F6016681C6010E946412C601EB
:102610000F90DF91CF911F910F91FF90DF90CF909E
:102620000C94BC124F925F926F927F928F929F9206
:10263000AF92BF92CF92DF92EF92FF920F931F93D0
:10264000CF93DF9300D000D0CDB7DEB76A017B0116
:10265000890137FD48C0B9016F5F7F4F882777FD3B
:102660008095982F0E9438309B01AC0160E070E0AB
:1026700080E291E40E9413324B015C019B01AC01AA
:10268000C701B6010E949D2F0E9473302B013C01AF
:10269000B801882777FD8095982F0E9438309B01DC
:1026A000AC0160E070E080E291E40E941332698343
:1026B0007A838B839C83A5019401C301B2010E949C
:1026C000B0319B01AC01C701B6010E94D22E298115
:1026D0003A814B815C810E949D2F0E9473300E9441
:1026E0000530CB011FC088249924821A930AA12C9B
:1026F000B12C20E030E040E251E4C701B6010E9475
:10270000B0316B017C018FEFA81AB80AA814B90484
:1027100084F3C701B6010E940530CB016AE070E086
:102720000E9475330F900F900F900F90DF91CF9113
:102730001F910F91FF90EF90DF90CF90BF90AF90DF
:102740009F908F907F906F905F904F900895DB01E6
:1027500080E090E22C91223208F09C93EC91F0E022
:10276000E250FE4FE491ED938F5F843099F7089526
:10277000EF92FF920F931F93CF93DF9300D000D07F
:10278000CDB7DEB78C01DB01FE013196CE01059697
:102790007F012D912193E817F907D9F7B701C801F7
:1027A0000E94A713B701C8010E94D1120F900F9089
:1027B0000F900F90DF91CF911F910F91FF90EF90AD
:1027C0000895CF93DF9300D000D0CDB7DEB720E2DD
:1027D00029832A832B832C83BE016F5F7F4F0E9446
:1027E000B8130F900F900F900F90DF91CF91089535
:1027F000CF93DF93EC016A83E62FF0E0EE0FFF1F2B
:10280000EE5DFE4F818189839081988388879987C7
:1028100061E00E94E82461E089850E94E82480E468
:102820008C8380EC8D838AE88E83CE01DF91CF91FB
:102830000C94E1138F929F92AF92BF92CF92DF924E
:10284000EF92FF920F931F93CF93DF9300D000D0AE
:10285000CDB7DEB75C016A017B0119821A821B8247
:102860001C8220E030E0A901C701B6010E94992F27
:1028700087FF09C0F7FAF094F7F8F09481E28983B2
:102880009924939401C0912C03E010E0812C9801CD
:10289000B701A601C5010E941213181619062CF0E3
:1028A000002319F08820B9F00CC001110AC0E1E042
:1028B000F0E0EC0FFD1FE90DF11D20E1280F208352
:1028C00007C0E1E0F0E0EC0FFD1FE90DF11D808392
:1028D00093948824839483E0891530F00150110982
:1028E0000C3F8FEF180799F6BE016F5F7F4FC50150
:1028F0000E94B8130F900F900F900F90DF91CF911F
:102900001F910F91FF90EF90DF90CF90BF90AF900D
:102910009F908F9008950E94F61B88E08093C404D6
:1029200008954F925F926F927F928F929F92AF9293
:10293000BF92CF92DF92EF92FF920F931F93CF93AC
:10294000DF93762E680179016093C4049A0140E018
:1029500050E060E472E48FE090E00E94AB33E90164
:10296000590137FF03C08FEFA81AB80A85011595E2
:10297000079561E0872D0E94E824A8EEB3E0A70147
:1029800096010E94DF332B013C01C12CD12C760132
:102990004E01AA2497FCA094BA2CC414D504E604D2
:1029A000F704A8F461E08091C4040E942125C801C5
:1029B0000E94822360E08091C4040E942125C80106
:1029C0000E948223C80CD91CEA1CFB1CE6CFDF91B5
:1029D000CF911F910F91FF90EF90DF90CF90BF901C
:1029E000AF909F908F907F906F905F904F900895E1
:1029F000862F6093C40461E00E94E82460E0809127
:102A0000C4040C94212560E00C94FF1B0F931F93CA
:102A1000CF93DF938C016F3F710519F014F06FEFC6
:102A200070E0EB0161308FEF780714F4C1E0DFEF65
:102A3000D7FD06C061E0C8010E94471CBE0108C066
:102A400060E0C8010E94471C662777276C1B7D0B3E
:102A5000C801DF91CF911F910F910C945F1C85EC01
:102A600094E00C94211985EC94E00C944A1960E0F0
:102A70000C94FF1BCF93DF93EC016093E10540932F
:102A8000E0058091E10560E00E94E8248091E00586
:102A900088838091E1058983DF91CF9108950C941B
:102AA000571C60E00C94FF1BCF93DF93EC01609305
:102AB000E3054093E2058091E30560E00E94E8248D
:102AC0008091E20588838091E3058983DF91CF912E
:102AD00008950C94571CCF93DF93EC0160E00E94A3
:102AE000FF1BC05CDF4F88E68883DF91CF9108959C
:102AF000FC0160857185828593850895FC0164855C
:102B00007585868597850895FC016089718982891C
:102B100093890895EF92FF920F931F93CF93DF93C2
:102B2000C62F8A01E22E68E680EC93E00E94950DA4
:102B30006C2F80EC93E00E943F0D813001F560E046
:102B400080EC93E00E94A10D81112EC081E090E005
:102B50000E94822321E04E2D68E680EC93E00E94E3
:102B6000880DE80100E010E0F12C80EC93E00E9479
:102B7000E70C892B31F00E151F0574F002C08FEFA2
:102B800013C081E090E00E94822381E00E151F05B2
:102B900009F480E0819508C00F5F1F4F80EC93E03F
:102BA0000E94EF0C8993E1CFDF91CF911F910F919C
:102BB000FF90EF9008954F925F926F927F928F9265
:102BC0009F92AF92BF92CF92DF92EF92FF920F93BC
:102BD0001F93CF93DF93CDB7DEB72C970FB6F89442
:102BE000DEBF0FBECDBF8C01AC014E5C5F4F2EE04F
:102BF0006BE30E948A158111C5C1F801A2A8B12C0E
:102C0000BA2CAA2483A9A82AB1A2A0A2E4A8F12CD4
:102C1000FE2CEE2485A9E82AF3A2E2A286A8912C34
:102C2000982C882487A9882A95A284A2448055805C
:102C30006680778062AD70E0762F662783AD682B63
:102C4000882777FD8095982F0E943830F80126A1BB
:102C500037A140A551A50E94D22EA30192010E9446
:102C60009D2FF801648B758B868B978B64AD70E01C
:102C7000762F662785AD682B882777FD8095982F5E
:102C80000E943830F80122A533A544A555A50E941D
:102C9000D22EA30192010E949D2FF801608F718FA7
:102CA000828F938F66AD70E0762F662787AD682B95
:102CB000882777FD8095982F0E943830F80126A547
:102CC00037A540A951A90E94D22EA30192010E94CA
:102CD0009D2FF801648F758F868F978FB701882796
:102CE00077FD8095982F0E9438306B017C01B401EC
:102CF000882777FD8095982F0E9438309B01AC0182
:102D00000E94B0312B013C01A7019601C701B60119
:102D10000E94B031A30192010E94D32E0E9463321F
:102D20009B01AC01B501882777FD8095982F2987F5
:102D30003A874B875C870E9438304B015C012985BC
:102D40003A854B855C850E94462F20E030E044E3C5
:102D500053E40E94B0312AED3FE049E450E40E9480
:102D60009D2F69837A838B839C83A5019401C50180
:102D7000B4010E94B031A30192010E94D32E0E949F
:102D800063329B01AC01C701B6010E94462F20E0CF
:102D900030E044E353E40E94B0312AED3FE049E4DF
:102DA00050E40E949D2F6D837E838F8398870E94BD
:102DB0002B23C090E405D090E505E090E605F09067
:102DC000E7056C197D098E099F090E94363020E0C5
:102DD00030E04AE754E40E949D2F6B017C010E9481
:102DE0002B236093E4057093E5058093E6059093AB
:102DF000E705F80184A195A11816190644F5208D60
:102E0000318D428D538DC701B6010E94B0319B01B7
:102E1000AC01F80160857185828593850E94D22E70
:102E2000F80160877187828793872489358946896D
:102E30005789C701B6010E94B0319B01AC01F8016E
:102E400064857585868597850E94D32E28C0F801F4
:102E5000208D318D428D538DC701B6010E94B03156
:102E60009B01AC01F80160857185828593850E9484
:102E7000D32EF801608771878287938724893589EB
:102E800046895789C701B6010E94B0319B01AC0148
:102E9000F80164857585868597850E94D22EF80194
:102EA0006487758786879787F801248D358D468DD1
:102EB000578DC701B6010E94B0319B01AC01F801EA
:102EC00060897189828993890E94D32EF801608B71
:102ED000718B828B938B20E030E040E05FE3C70191
:102EE000B6010E94D32E9B01AC0160E070E080E04F
:102EF0009FE30E949D2F6B017C019B01AC0160E070
:102F000070E080E89FE30E94D22E4B015C01F80143
:102F10002085318542855385C701B6010E94B031B5
:102F20002B013C01A501940169817A818B819C81EF
:102F30000E94B0319B01AC01C301B2010E94D32EAB
:102F4000F801608771878287938724853585468558
:102F50005785C701B6010E94B0316B017C01A50104
:102F600094016D817E818F8198850E94B0319B0193
:102F7000AC01C701B6010E94D32EF80164877587A2
:102F8000868797872C960FB6F894DEBF0FBECDBF0D
:102F9000DF91CF911F910F91FF90EF90DF90CF9035
:102FA000BF90AF909F908F907F906F905F904F9069
:102FB00008952F923F924F925F926F927F928F92DD
:102FC0009F92AF92BF92CF92DF92EF92FF920F93B8
:102FD0001F93CF93DF9300D000D0CDB7DEB71C0195
:102FE00004EF11E0812C912C5401412C512C320121
:102FF00019821A821B821C827C0122E3E20EF11CE0
:1030000026E0A70163E4C1010E948A15F10182A9AB
:1030100090E0982F882723A9822BAA2797FDA095B7
:10302000BA2F29813A814B815C81280F391F4A1FB1
:103030005B1F29833A834B835C8384A990E0982F9C
:10304000882725A9822BAA2797FDA095BA2F480E7D
:10305000591E6A1E7B1E86A990E0982F882727A9F3
:10306000822BAA2797FDA095BA2F880E991EAA1E1B
:10307000BB1E0150110921F664EFC62EDD24D39446
:10308000E12CF12C69817A818B819C81A7019601C9
:103090000E94AB33CA01B9010E943830F10166A326
:1030A00077A380A791A7C301B201A70196010E944F
:1030B000AB33CA01B9010E943830F10162A773A78E
:1030C00084A795A7C501B401A70196010E94AB335F
:1030D000CA01B9010E943830F10166A777A780AB19
:1030E00091AB0F900F900F900F90DF91CF911F91A8
:1030F0000F91FF90EF90DF90CF90BF90AF909F9097
:103100008F907F906F905F904F903F902F90089599
:10311000EF92FF921F93CF93DF931F92CDB7DEB74D
:10312000162F7A0168E670E080EC93E029830E9414
:103130009F0D612F80EC93E00E943F0D298181302B
:1031400091F4422F50E0B70180EC93E00E94120D01
:1031500061E080EC93E00F90DF91CF911F91FF90A1
:10316000EF900C94A10D8FEF0F90DF91CF911F91F5
:10317000FF90EF900895CF93DF931F92CDB7DEB706
:10318000498321E0AE014F5F5F4F0E9488180F9086
:10319000DF91CF910895CF93DF93EC0140E050E0B1
:1031A00063E872E44C835D836E837F83188619869F
:1031B0001A861B861C861D861E861F86188A198AFB
:1031C0001A8A1B8A1C8A1D8A1E8A1F8A188E198ECB
:1031D0001A8E1B8E1C8E1D8E1E8E1F8E19A218A27B
:1031E0001BA21AA21DA21CA21EA21FA218A619A6EB
:1031F0001AA61BA61CA61DA61EA61FA618AA19AABB
:1032000080EC93E00E947E0D60E273E080E090E04D
:103210000E945A2340E06BE670E0CE010E94BB188A
:1032200041E06AE170E0CE010E94BB1848E06BE12A
:1032300070E0CE010E94BB18CE01DF91CF910C94BB
:10324000D91721E030E0FC0131832083EE5FFE4F8F
:10325000108211821282138234961082118212829D
:103260001382349610823196108231961082118228
:103270001282138234961182108232961082319615
:10328000108211821282138234961082118212826D
:1032900013820895089560E00C94FF1B4F925F9293
:1032A0006F927F928F929F92AF92BF92CF92DF9256
:1032B000EF92FF920F931F93CF93DF9300D000D034
:1032C0001F92CDB7DEB78C01CE0101966C0185E06F
:1032D000F60111928A95E9F760E0C8010E94471C47
:1032E00064E170E080E090E00E945A2361E0C80150
:1032F0000E94471C88E290E00E94822360E0C8019F
:103300000E94471C0E942B234B015C0160E0C80116
:103310000E94261C81110EC00E942B236819790976
:103320008A099B09633071058105910578F3F801DD
:10333000148215820E942B234B015C0160E0C801BE
:103340000E94261C882359F00E942B2368197909B2
:103350008A099B09633071058105910578F3E12C99
:10336000F12C0E942B234B015C0160E0C8010E94FC
:10337000261C81110BC00E942B23681979098A0928
:103380009B09633071058105910578F30E9437230D
:103390004B015C010E942B232B013C0160E0C80122
:1033A0000E94261C882359F00E942B23641975095A
:1033B00086099709633071058105910578F30E94AC
:1033C0003723681979098A099B09F70123E0F595E4
:1033D000E7952A95E1F7693271058105910530F08D
:1033E000EC0DFD1D8081880F816004C0EC0DFD1D7A
:1033F0008081880F8083FFEFEF1AFF0A88E2E816CA
:10340000F10409F0AECF59814B81842F90E0850FF4
:10341000911D2D8130E08217930719F4F801548330
:1034200045830F900F900F900F900F90DF91CF91E9
:103430001F910F91FF90EF90DF90CF90BF90AF90D2
:103440009F908F907F906F905F904F900895FC01B8
:10345000611102C08481089585810895CF93DF931F
:10346000EC010E94A81D87E791E09983888388A1D9
:103470008093E9058F8D8093E805DF91CF910895C2
:10348000CF93DF93EC0140E855E260E070E00E94EA
:10349000E31D60E08F8DDF91CF910C94E8241F93A2
:1034A000CF93DF93EC018BA1882319F0CE010E940A
:1034B000201E60E0CE014F960E94151C182F8BA194
:1034C000882319F0CE010E94401A81E08127DF9104
:1034D000CF911F9108958A589F4FFC0180810895D4
:1034E000CF93DF93EC010E944F1A8823A1F0CE0105
:1034F0000E94931E181619068CF4E881F981068043
:10350000F781E02DCE0109958F3F91053CF4CA5813
:10351000DF4F888303C0CA58DF4F1882DF91CF91F5
:1035200008950E94721E9927089560E00C94FF1B75
:10353000613049F40E94571C8A5E91402091EC054D
:103540003091ED050AC0623059F40E945B1C8A5E1E
:1035500091402091EA053091EB05820F931F089569
:1035600080E090E00895089570E0FB01E65BFD4F78
:10357000E491DC01EC93FB01E859FD4FE491F0E0AC
:10358000EE0FFF1FEA57FD4F25913491FC01328366
:10359000218308951F93CF93DF93FC011081C18194
:1035A000D2819981812F8095892389838A81812B7A
:1035B0008A838AE090E00E9482239881912381E0AF
:1035C00009F480E0DF91CF911F910895FF920F934E
:1035D0001F93CF93DF93FC011081C181D281F894B6
:1035E0008981F12EF0948F2189838A81812B8A83AE
:1035F00078940DE7015041F182E090E00E9482232F
:1036000088818123B9F3F8948A818F218A83898103
:10361000812B8983789480EE91E00E948223F89434
:1036200089818F2189838A81812B8A8386E490E036
:103630000E9482238881812301E009F000E07894D0
:103640008AE991E00E948223802FDF91CF911F9120
:103650000F91FF9008951F93CF93DF93FC0110818A
:10366000C181D281912F909560FF12C0F8948A8118
:1036700089238A838981812B89838AE090E00E9453
:1036800082238A81812B8A83789487E390E011C01A
:10369000F8948A8189238A838981812B898381E4B3
:1036A00090E00E9482238A81812B8A83789485E02E
:1036B00090E0DF91CF911F910C9482230F931F9381
:1036C000CF93DF93FC011081C181D281F89489816D
:1036D000812B89838A81012F009580238A8383E04F
:1036E00090E00E9482238981802389838A81812BB3
:1036F0008A838AE090E00E948223C881789485E3DF
:1037000090E00E9482231C2381E009F480E0DF9195
:10371000CF911F910F910895CF92DF92EF92FF9278
:103720000F931F93CF93DF931F92CDB7DEB76C013A
:10373000E62E08E010E0FF24F39461E09F2D9E2127
:1037400009F460E0C60149830E942B1BFF0C015065
:10375000110949810115110581F741111DC0F89426
:10376000D6011196ED91FC91129791818C918095E3
:10377000892381831196ED91FC91129782819C910E
:10378000892B82831196ED91FC91129792818C91F5
:1037900080958923828378940F90DF91CF911F9138
:1037A0000F91FF90EF90DF90CF900895EF92FF92EE
:1037B0000F931F93CF93DF938C01C8E0D0E0F12CDF
:1037C000EE24E394C8010E945E1B8111FE28EE0CDA
:1037D0002197C1F78F2DDF91CF911F910F91FF900E
:1037E000EF90089540E06CEC0C948C1BFC018091F0
:1037F0002201808380912301818312820895DC015C
:10380000E62FF0E0EE0FFF1FEE5DFE4F80818C9300
:10381000818111968C93119712966C930895FC01F7
:1038200082810895FC0183810895CF93DF93EC0199
:1038300088810E94E82488810E94572521E0892BF5
:1038400009F420E0822FDF91CF910895CF93DF9389
:10385000EC0189810E94E82489810E94572521E09A
:10386000892B09F420E0822FDF91CF9108951F93D7
:10387000CF93DF93EC01162F61E088810E94E8244A
:10388000612F8881DF91CF911F910C9421251F9387
:10389000CF93DF93EC01162F61E089810E94E82429
:1038A000612F8981DF91CF911F910C942125FC011B
:1038B00080810C94E323FC0181810C94E323FC01BF
:1038C00080810C941424DC01E62FF0E0EE0FFF1F42
:1038D000EE5DFE4F80818C93818111968C931197C0
:1038E00012966C930895DC01E62FF0E0EE0FFF1FB7
:1038F000EE5DFE4F80818C93818111968C931197A0
:1039000012966C93129713964C930895FC01808144
:103910000895FC0181810895DC0112966C93129741
:10392000E62FF0E0EE0FFF1FEE5DFE4F9181119646
:103930009C93119780818C934230D9F4292F30E0E9
:10394000F901E65BFD4FE4911C96EC931C97F9019D
:10395000E859FD4FE491F0E0EE0FFF1FEC56FD4FEC
:103960002591349119963C932E93189761E0892FF5
:1039700019C0282F30E0F901E65BFD4FE4911C9659
:10398000EC931C97F901E859FD4FE491F0E0EE0F3C
:10399000FF1FEC56FD4F2591349119963C932E93C1
:1039A000189761E00C94E824CF93DF93EC01262F65
:1039B00030E03D832C8323E0629FC00111240E94EC
:1039C000EA339F838E83892B21F483E891E00E9460
:1039D000EB3580E090E04C815D819A01220F331F2E
:1039E000240F351F8217930738F4EE81FF81E80F0B
:1039F000F91F10820196EFCFDF91CF910895CF93F9
:103A0000DF93EC010E94F61B60E2CE01DF91CF91C3
:103A10000C94D41C0F93FC01A62FB0E084819581F7
:103A2000A817B907B8F4862F880F860F90E0A681F3
:103A3000B781A80FB91F2C93A681B781A80FB91F12
:103A400011964C930680F781E02DE80FF91F028351
:103A500081E001C080E00F910895CF92DF92EF9254
:103A6000FF920F931F93CF93DF937C01142FD22EDD
:103A7000C02E611113C0C0E0D0E0F70184819581B0
:103A8000C817D90748F40C2D2D2D412F6C2FC701D5
:103A90000E940A1D2196F1CF81E004C061500E946E
:103AA0000A1D80E0DF91CF911F910F91FF90EF9061
:103AB000DF90CF9008950F93022F242F462F60E0C0
:103AC0000E942D1D0F9108950F931F93D8013FB7AA
:103AD000F8949C91822F80958923292BFB01460F16
:103AE000571FE417F50781F0919168E02C9300C00F
:103AF00097FF8C93990F00C000C000C008F48C930E
:103B000000C06A9599F7EDCF3FBF1F910F910895BF
:103B10000F931F93FC010085118524813581A90134
:103B2000440F551F420F531F6681778124850E94E1
:103B3000641D1F910F910895CF93DF93EC018E8147
:103B40009F810E9482341F821E82DF91CF9108954F
:103B5000FF920F931F93CF93DF93EC01F62E8C010E
:103B6000015E1F4FC8010E94FF1BEF2DF0E0EE0F1A
:103B7000FF1FEE5DFE4F20E040816181CE010E947B
:103B8000891185EA91E09983888369ED71E0CE011E
:103B900082599F4F0E94452D1DA21BA21CA288A1E5
:103BA0008093EF058F8D8093EE05C8010E940F1C56
:103BB00091E0843009F090E09BA3DF91CF911F91B9
:103BC0000F91FF900895CF92DF92EF92FF92CF93E3
:103BD000DF93EC016A017B0160E472E48FE090E026
:103BE000A70196010E94AB333FA32EA38BA188238C
:103BF000E1F08DA1882361F0B701A60189EF95E07E
:103C0000DF91CF91FF90EF90DF90CF900C946926D9
:103C100026E0B701A60189E496E0DF91CF91FF90FD
:103C2000EF90DF90CF900C946F27B701A601CE01E3
:103C3000DF91CF91FF90EF90DF90CF900C94B9116E
:103C4000FC0123A1222321F089E496E00C94D127E2
:103C50000C946012EF92FF920F931F93CF93DF9318
:103C6000FC01C6A1D7A123978091EF050E9457259B
:103C7000892BF1F400E010E0E12CF12CCE010E9440
:103C800082238091EF050E945725002E02C0880FE5
:103C9000991F0A94E2F7E82AF92A0F5F1F4F0830AC
:103CA000110561F7CE010E948223C701992702C046
:103CB0008FEF9FEFDF91CF911F910F91FF90EF90CA
:103CC0000895FC0123A1222359F085A1882321F026
:103CD00089EF95E00C94AC2589E496E00C940A27D2
:103CE0000C94E40FFC0184A1882359F080A591A5D0
:103CF0002FEF3FEF31A720A797FF14C0CF010C94FF
:103D00002A1E83A1882359F085A1882321F089EFF9
:103D100095E00C94E62589E496E00C94A526CF0165
:103D20000C94C30F0895CF93DF93EC018CA18823EB
:103D300071F0CE010E942A1E88A799A7892F80952D
:103D4000881F8827881F90E0DF91CF9108958BA16D
:103D5000882379F08DA1882331F089EF95E0DF91F8
:103D6000CF910C94D62589E496E0DF91CF910C9405
:103D70008C26CE01DF91CF910C945010CF93DF931E
:103D8000EC018E81813011F460E001C061E08A8134
:103D90000E94212561E08B810E94212581E090E035
:103DA0000E94822360E08B81DF91CF910C942125CA
:103DB000CF93DF93EC0160E002960E94FF1B85EB3E
:103DC00091E099838883DF91CF910895CF93DF931A
:103DD000EC0102960E94FF1B85EB91E0998388839A
:103DE0001F82188619861A861B861C861D861E86CB
:103DF0001F8A188E198E1A8E0E9437236F8F78A310
:103E000089A39AA31F86188A198A1A8A81E08E8349
:103E10001F82188619861A861B861C861D861E869A
:103E20001BA21CA21DA21EA21B8E1C8E1D8E1E8EEE
:103E300061E08A810E94E82461E08B81DF91CF916B
:103E40000C94E8240F931F93CF93DF93EC014B8DD9
:103E50005C8D6D8D7E8D452B462B472B11F480E0BC
:103E600035C00E9437230F8D18A129A13AA1601BEC
:103E7000710B820B930B0B8D1C8D2D8D3E8D0617B8
:103E800017072807390758F78E814F8158856985AC
:103E90007A85813029F44F5F5F4F6F4F7F4F04C0A9
:103EA00041505109610971094F83588769877A87A1
:103EB000E881F9810190F081E02DCE0109950E9401
:103EC00037236F8F78A389A39AA381E0DF91CF91E5
:103ED0001F910F9108952F923F924F925F926F9290
:103EE0007F928F929F92AF92BF92CF92DF92EF928A
:103EF000FF920F931F93CF93DF9300D000D000D099
:103F0000CDB7DEB79E838D83FC01C384D484E58462
:103F1000F68487819085A185B285C81AD90AEA0AF4
:103F2000FB0A67857089818992899B01AC010E9497
:103F3000B0314B015C01ED81FE816789708D818D0F
:103F4000928D9B01AC010E94D32E9B01AC01C50157
:103F5000B4010E949D2F0E940530C114D104E104D8
:103F6000F104A9F462307105810591050CF082C05D
:103F7000ED81FE81138E148E158E168E1786108A93
:103F8000118A128A13A214A215A216A20AC1ED81E7
:103F9000FE8103A114A125A136A11C141D041E0439
:103FA0001F040CF510161106120613064CF46C15BE
:103FB0007D058E059F056CF5268121115BC029C00A
:103FC000011511052105310509F454C06C157D0555
:103FD0008E059F050CF04EC0ED81FE8186818130FB
:103FE00009F048C03CC010161106120613060CF565
:103FF0000027112798010C191D092E093F09601788
:104000007107820793072CF4ED81FE812681213010
:1040100089F59B01AC0188279927DC01821B930B52
:10402000A40BB50BED81FE8183A394A3A5A3B6A336
:1040300021C00115110521053105E1F088249924DD
:1040400054018C189D08AE08BF08681579058A05CB
:104050009B0584F4ED81FE81868181110BC0309532
:104060002095109501951F4F2F4F3F4F03A314A389
:1040700025A336A3ED81FE8183A094A0A5A0B6A0C0
:1040800081149104A104B10499F487A190A5A1A57C
:10409000B2A583A794A7A5A7B6A781E01C141D0409
:1040A0001E041F040CF080E0ED81FE81868342C077
:1040B000ED81FE81C3A4D4A4E5A4F6A4A7019601D2
:1040C000C701B6010E94D32E2B013C01C501B401EA
:1040D0000E94383020E030E040E850E40E94B031E7
:1040E00020E030E040E85FE30E94D32E9B01AC016A
:1040F000C301B2010E949D2F9B01AC01C701B60113
:104100000E94D22E1B012C01ED81FE8167A470A8B4
:1041100001A912A99301A8010E946031181614F494
:1041200031018201A301B801ED81FE8143A754A7AB
:1041300065A776A7FFEF8F1A9F0AAF0ABF0AED8126
:10414000FE8183A294A2A5A2B6A223A534A545A56B
:1041500056A5CA01B90129833A834B835C830E9427
:104160000A30ED81FE81638F748F858F968F298150
:104170003A814B815C8160E074E284E799E40E94BB
:104180009D2FED81FE816787708B818B928B2681BD
:10419000211107C0DC01CB01B0588787908BA18B20
:1041A000B28B26960FB6F894DEBF0FBECDBFDF915F
:1041B000CF911F910F91FF90EF90DF90CF90BF9024
:1041C000AF909F908F907F906F905F904F903F90B7
:1041D0002F9008950F931F93FC0103851485258567
:1041E0003685041715072607370741F0438754879C
:1041F000658776871F910F910C946B1F1F910F910C
:104200000895CF92DF92EF92FF92CF93DF93EC016C
:104210006A017B019A01AB016B897C898D899E893A
:104220000E94992F882309F440C0CB8ADC8AED8A4A
:10423000FE8AA701960160E074E284E799E40E9497
:104240009D2F6FA778AB89AB9AAB8BA19CA1ADA139
:10425000BEA1181619061A061B063CF56F8578894B
:1042600089899A899B01AC010E94B0316B017C0164
:104270006F89788D898D9A8D9B01AC010E94D32E18
:104280009B01AC01C701B6010E949D2F0E94053021
:104290006BA37CA38DA39EA3CE01DF91CF91FF9052
:1042A000EF90DF90CF900C946B1FDF91CF91FF9038
:1042B000EF90DF90CF9008956F927F928F929F92B0
:1042C000AF92BF92CF92DF92EF92FF920F931F9324
:1042D000CF93DF93EC013A018B012F85388949890F
:1042E0005A89B301C8010E94992F882309F44FC04D
:1042F000CB88DC88ED88FE8846015701B7FAB09478
:10430000B7F8B094A5019401B301C8010E94992F98
:1043100087FD0BC0A7019601B301C8010E9460315F
:1043200018162CF43601870102C03401850120E003
:1043300030E0A901B301C8010E94992F811105C085
:104340001B8E1C8E1D8E1E8E1CC09301A80160E06A
:1043500074E284E799E40E949D2F9F770E940A30BF
:104360006B8F7C8F8D8F9E8FFF24F39420E030E045
:10437000A901B301C8010E94603118160CF0F12C9C
:10438000FE82C301D8018F87988BA98BBA8BDF91EE
:10439000CF911F910F91FF90EF90DF90CF90BF9042
:1043A000AF909F908F907F906F9008950F931F9381
:1043B000FC010385148525853685478150856185F7
:1043C0007285041715072607370771F04017510744
:1043D000620773071CF421E0268302C0FC011682E9
:1043E0001F910F910C94221F80E01F910F9108954F
:1043F000CF93DF93EC010E94F61BCE010496DF9170
:10440000CF910C94B31A1F93CF93DF93EC01142F29
:104410000E94731C123011F4698101C06881CE01C1
:104420000496DF91CF911F910C94B41ACF92DF9232
:10443000EF92FF920F931F93CF93DF93CDB7DEB729
:104440002C970FB6F894DEBF0FBECDBF8C010C5F6A
:104450001F4FC8010E94E61AC8010E94F21B40E0EB
:1044600064E4C8010E948C1B0E942B236B017C0119
:10447000C8010E94CA1A81110BC00E942B236C191B
:104480007D098E099F096E3E72408105910580F37A
:10449000C8010E94E61AC8010E94F21B40E06EEBC0
:1044A000C8010E948C1BCE0101967C016E0196E032
:1044B000C90ED11CC8010E94D61BF70181937F0150
:1044C000EC15FD05B9F76A8170E0762F66278981C2
:1044D000682B882777FD8095982F0E94383020E040
:1044E00030E040E85DE30E94B0312C960FB6F894BE
:1044F000DEBF0FBECDBFDF91CF911F910F91FF9017
:10450000EF90DF90CF90089560E00C94FF1BCF9266
:10451000DF92EF92FF92CF93DF9300D000D0CDB720
:10452000DEB77C019A01AB0160E029833A834B83BB
:104530005C830E94471C82E090E00E94822361E03D
:10454000C7010E94471C8AE090E00E94822360E03D
:10455000C7010E94471C60E0F70181810E94E824A6
:1045600029813A814B815C8161E0F70181810E9460
:1045700080256B017C0184E690E00E948223C701C4
:10458000B6010F900F900F900F90DF91CF91FF9099
:10459000EF90DF90CF90089527E3269FA001279FFB
:1045A000500D112448535F4F60E070E00E94872255
:1045B0000E94383020E030E048E652E40E949D2F0F
:1045C00008951F920F920FB60F9211242F933F93CD
:1045D0008F939F93AF93BF938091F1059091F205D4
:1045E000A091F305B091F4053091F00523E0230F7D
:1045F0002D3720F40196A11DB11D05C026E8230F1B
:104600000296A11DB11D2093F0058093F1059093B2
:10461000F205A093F305B093F4058091F505909110
:10462000F605A091F705B091F8050196A11DB11D01
:104630008093F5059093F605A093F705B093F805E0
:10464000BF91AF919F918F913F912F910F900FBE8E
:104650000F901F9018952FB7F8946091F105709105
:10466000F2058091F3059091F4052FBF08953FB7AF
:10467000F8948091F5059091F605A091F705B09119
:10468000F80526B5A89B05C02F3F19F00196A11D7E
:10469000B11D3FBF6627782F892F9A2F620F711D9A
:1046A000811D911D42E0660F771F881F991F4A9553
:1046B000D1F70895CF92DF92EF92FF92CF93DF93DD
:1046C0006B017C010E943723EB01C114D104E1048A
:1046D000F10489F00E948E2D0E9437236C1B7D0B04
:1046E000683E734090F381E0C81AD108E108F108F0
:1046F000C851DC4FEACFDF91CF91FF90EF90DF9070
:10470000CF9008958230910538F0880F991F880F57
:10471000991F05970197F1F70895789484B5826001
:1047200084BD84B5816084BD85B5826085BD85B555
:10473000816085BDEEE6F0E0808181608083E1E804
:10474000F0E010828081826080838081816080833C
:10475000E0E8F0E0808181608083E1E9F0E0808141
:1047600082608083808181608083E0E9F0E08081E5
:1047700081608083E1ECF0E08081846080838081CF
:1047800082608083808181608083E3ECF0E08081BF
:1047900081608083E0ECF0E0808182608083E2ECE5
:1047A000F0E0808181608083EAE7F0E080818460CE
:1047B000808380818260808380818160808380812A
:1047C000806880830895823108F08251E82FF0E0FC
:1047D000E05EFD4FE49180917B00E3FB222720F90E
:1047E00030E095E0220F331F9A95E1F78F7D822B01
:1047F00080937B00E7708091400120E4829FC0019C
:104800001124E82BE0937C0080917A0080648093EF
:104810007A0080917A0086FDFCCF8091780020910B
:10482000790090E0922B08951F93CF93DF93182F78
:10483000EB0161E00E94E824209711F460E004C0DD
:10484000CF3FD10539F461E0812FDF91CF911F91E6
:104850000C942125E12FF0E0E45DFD4F449150E000
:10486000FA013197EF30F10508F06CC0E757FF4FC0
:104870000C94CA3384B5806884BDC7BD68C084B554
:10488000806284BDC8BD63C08091800080688093D1
:104890008000D0938900C093880059C08091800027
:1048A000806280938000D0938B00C0938A004FC0B9
:1048B00080918000886080938000D0938D00C093A9
:1048C0008C0045C080919000806880939000D093C8
:1048D0009900C09398003BC08091900080628093C3
:1048E0009000D0939B00C0939A0031C080919000BB
:1048F000886080939000D0939D00C0939C0027C057
:104900008091C00080688093C0008091C0008F7B40
:104910008093C000C093CF001AC08091C000806215
:104920008093C000C093D00012C08091C200886004
:104930008093C2008091C2008B7F8093C200C0939D
:10494000D20005C0C038D1050CF07DCF77CFDF9104
:10495000CF911F91089590E0FC013197EF30F10560
:10496000B0F5E856FF4F0C94CA33809180008F77E2
:1049700003C0809180008F7D809380000895809196
:104980008000877FF9CF84B58F7702C084B58F7D93
:1049900084BD0895809190008F7707C0809190002A
:1049A0008F7D03C080919000877F80939000089551
:1049B0008091C0008F7703C08091C0008F7D80936D
:1049C000C00008958091C200877F8093C20008953F
:1049D000CF93DF9390E0FC01E65BFD4F2491FC0157
:1049E000E859FD4F8491882349F190E0880F991F81
:1049F000FC01EE55FD4FA591B4918C569D4FFC01E5
:104A0000C591D4919FB7611108C0F8948C912095FD
:104A100082238C93888182230AC0623051F4F894F7
:104A20008C91322F309583238C938881822B8883BD
:104A300004C0F8948C91822B8C939FBFDF91CF910F
:104A400008950F931F93CF93DF931F92CDB7DEB7D7
:104A5000282F30E0F901E45DFD4F8491F901E65B18
:104A6000FD4F1491F901E859FD4F04910023C9F05D
:104A7000882321F069830E94AB246981E02FF0E054
:104A8000EE0FFF1FEC56FD4FA591B4919FB7F89420
:104A90008C91611103C01095812301C0812B8C93EF
:104AA0009FBF0F90DF91CF911F910F910895CF93EA
:104AB000DF93282F30E0F901E45DFD4F8491F90187
:104AC000E65BFD4FD491F901E859FD4FC491CC2329
:104AD00091F081110E94AB24EC2FF0E0EE0FFF1F4C
:104AE000EA57FD4FA591B4912C912D2381E090E0E0
:104AF00021F480E002C080E090E0DF91CF91089542
:104B00000F931F93762F90E0FC01E65BFD4F6491BD
:104B1000FC01E859FD4FE4917111762FF0E0EE0FA2
:104B2000FF1FEA57FD4F8591949189019A013F70CB
:104B3000472F0E944F02611571058105910531F0E3
:104B40006F5F7F4F8F4F9F4F9F7003C060E070E09B
:104B5000CB011F910F910895CF93DF931F92CDB793
:104B6000DEB76983DC01ED91FC910280F381E02DD9
:104B700041E050E0BE016F5F7F4F09950F90DF91DC
:104B8000CF910895CF93DF93EC018C859D8597FF9E
:104B900005C082E00E94BD299D878C878C859D85FC
:104BA000DF91CF91089583E00C94122CFC01848551
:104BB000958597FD06C082E00E94652990E00196E8
:104BC000089582E00E94652990E00895FC018485A3
:104BD000958597FD05C02FEF3FEF35872487089512
:104BE00082E00C94BD29CF93DF93EC0180914801C2
:104BF000882331F083E00E94EE291816190634F05C
:104C000081E090E09B838A8380E090E0DF91CF9108
:104C10000895FC0120812E5F208342E450E060EB88
:104C200072E080E80C94892AFC0181819081913A9C
:104C300059F4813209F03CC047E050E061E471E092
:104C400080E00E94892A43C0913291F5803239F484
:104C500067E070E081E491E00E94BA2A06C08232E7
:104C600009F035C082818093480180914101909183
:104C70004201A0914301B0914401803B9440A105C1
:104C8000B105C1F48091480180FD14C087E797E722
:104C900090930108809300082BE088E190E00FB624
:104CA000F894A895809360000FBE209360000FC019
:104CB00080E0089588E10FB6F89480936000109228
:104CC00060000FBEA895109201081092000881E0C4
:104CD00008952FEF3FEFFC01358724870895109248
:104CE000FC051092FB0588EE93E0A0E0B0E0809315
:104CF000FD059093FE05A093FF05B09300068BEB96
:104D000091E09093FA058093F9058FEF9FEF9093D0
:104D10000606809305060895FC01818D228D90E0A2
:104D2000805C9F4F821B91098F7399270895FC0126
:104D3000918D828D981731F0828DE80FF11D858D50
:104D400090E008958FEF9FEF0895FC01918D828D83
:104D5000981761F0828DDF01A80FB11D5D968C91CF
:104D6000928D9F5F9F73928F90E008958FEF9FEFDA
:104D7000089585E498E2892B49F080E090E0892B42
:104D800029F00E94452881110C9400000895FC012F
:104D9000848DDF01A80FB11DA35ABF4F2C91848DC4
:104DA00090E001968F739927848FA689B7892C93F9
:104DB000A089B1898C9180648C93938D848D981394
:104DC00006C00288F389E02D80818F7D808308955D
:104DD000CF93DF93EC01888D8823C9F0EA89FB89A2
:104DE000808185FD05C0A889B9898C9186FD0FC099
:104DF0000FB607FCF5CF808185FFF2CFA889B9896E
:104E00008C9185FFEDCFCE010E94C726E7CFDF91C1
:104E1000CF910895CF92DF92FF920F931F93CF937C
:104E2000DF931F92CDB7DEB76C0181E0D6015896B3
:104E30008C9358975B969C915B975C968C915C9752
:104E4000981307C05096ED91FC915197808185FD94
:104E50002EC0F601038D10E00F5F1F4F0F73112757
:104E6000F02EF601848DF81211C00FB607FCF9CFB1
:104E7000D6015096ED91FC915197808185FFF1CF3D
:104E8000C60169830E94C7266981EBCF838DE80F35
:104E9000F11DE35AFF4F6083D6015B960C935B973D
:104EA0005296ED91FC915397808180620CC0D6019F
:104EB0005696ED91FC91579760835096ED91FC9139
:104EC000519780818064808381E090E00F90DF9132
:104ED000CF911F910F91FF90DF90CF900895BF92D7
:104EE000CF92DF92EF92FF92CF93DF93EC016A01B2
:104EF0007B01B22EE889F98982E08083411581EE39
:104F0000580761057105A1F060E079E08DE390E05C
:104F1000A70196010E9489332150310941095109A5
:104F20005695479537952795211580E1380798F0D4
:104F3000E889F989108260E874E88EE190E0A701C1
:104F400096010E9489332150310941095109569532
:104F5000479537952795EC85FD853083EE85FF8550
:104F60002083188EEC89FD89B082EA89FB898081D3
:104F700080618083EA89FB89808188608083EA89F7
:104F8000FB89808180688083EA89FB8980818F7DAD
:104F90008083DF91CF91FF90EF90DF90CF90BF9013
:104FA0000895FC01938D848D9813FCCFA289B38959
:104FB0008C918F7E8C93A289B3898C91877F8C93FF
:104FC000A289B3898C918F778C93A289B3898C91B4
:104FD0008F7D8C93828D818F08951F920F920FB6D3
:104FE0000F9211242F938F939F93EF93FF93E09150
:104FF0005906F0915A068081E0915F06F0916006B3
:1050000082FD12C09081809162068F5F8F73209124
:105010006306821751F0E0916206F0E0E75BF94F1A
:10502000958F8093620601C08081FF91EF919F91DF
:105030008F912F910F900FBE0F901F9018951F9278
:105040000F920FB60F9211242F933F934F935F93BC
:105050006F937F938F939F93AF93BF93EF93FF9340
:1050600089E496E00E94C726FF91EF91BF91AF912E
:105070009F918F917F916F915F914F913F912F9170
:105080000F900FBE0F901F90189589E496E00E9434
:105090008C2621E0892B09F420E0822F08951092BC
:1050A0004C0610924B0688EE93E0A0E0B0E08093AF
:1050B0004D0690934E06A0934F06B09350068BEC8E
:1050C00091E090934A06809349068DEC90E090938E
:1050D0005606809355068CEC90E09093580680938A
:1050E000570688EC90E090935A068093590689EC15
:1050F00090E090935C0680935B068AEC90E090933E
:105100005E0680935D068EEC90E09093600680933F
:105110005F06109262061092630610926406109267
:105120006506089508950E948D230E94922886EEB8
:1051300096E00E94722C0E949402C9EBD6E20E9473
:105140007A0A2097E1F30E94B926F9CF0C94EA334A
:105150000C948234CF92DF92EF92FF920F931F93C1
:10516000CF93DF936C017A01EB01E60EF71E00E0AE
:1051700010E0CE15DF0561F06991D601ED91FC914B
:105180000190F081E02DC6010995080F191FF1CF9C
:10519000C801DF91CF911F910F91FF90EF90DF90A9
:1051A000CF9008956115710581F0DB010D9000200D
:1051B000E9F7AD0141505109461B570BDC01ED9158
:1051C000FC910280F381E02D099480E090E0089545
:1051D00067ED71E00C94D2284091EA065091EB06FD
:1051E0002091E8063091E90642175307B4F49091F4
:1051F000E8009570E1F39091E80092FD19C080936A
:10520000F1008091EA069091EB0601968F73992741
:10521000892B19F48EEF8093E8008091EA06909133
:10522000EB0601969093EB068093EA0681E00895E1
:1052300080E00895CF92DF92FF920F931F93CF9358
:10524000DF931F92CDB7DEB7082F162F862F880F5A
:105250008E5F99830E94EC2883E00E94EC28F02E58
:10526000C02E9981D92E8C2D8F19811778F4F601D3
:1052700084910E94EC28082F80E00E94EC28802373
:10528000FFEFCF1ADF0A8111EECF01C081E00F904E
:10529000DF91CF911F910F91FF90DF90CF900895F4
:1052A000615030F02091F100FC0120830196F8CF8D
:1052B000289884E68093ED0608952FB7FC0120839B
:1052C000F89467706093E9000895CF93DF931F927D
:1052D000CDB7DEB7682FCE0101960E945D2980917F
:1052E000F20099819FBF0F90DF91CF910895FF92B7
:1052F0000F931F93CF93DF9300D0CDB7DEB7F62E79
:105300008A019091EC06992311F057FF03C08FEFAB
:105310009FEF2BC0682FCE0101967A830E945D29F2
:105320008091F20090E0A8017A81801791070CF437
:10533000AC01EF2DF72FF40E84E6FE1639F0289815
:105340008093ED069091F1009193F7CF41155105AF
:1053500021F08091F200882321F089818FBFCA015A
:1053600004C08BE68093E800F8CF0F900F90DF9198
:10537000CF911F910F91FF900895CF93DF931F92CC
:10538000CDB7DEB741E050E0BE016F5F7F4F0E94B6
:105390007729019719F4898190E002C08FEF9FEF80
:1053A0000F90DF91CF910895CF93DF931F92CDB7E8
:1053B000DEB7682FCE0101960E945D299091E8002A
:1053C000892F807295FF04C09091F20080E4891BC0
:1053D00099819FBF0F90DF91CF9108956F927F9237
:1053E0008F929F92AF92BF92CF92DF92EF92FF92F5
:1053F0000F931F93CF93DF931F92CDB7DEB7782E15
:105400007B01C42EB52E8091EC06882369F0042F11
:10541000152F8AEFD82E872D8072982E9AE3A92E09
:10542000872D8074882E11C08FEF9FEF57C0872D76
:105430000E94D429682E81110CC0DA94A9F361E08E
:1054400070E080E090E00E945A230115110579F781
:105450003BC0282F30E0021713070CF4602E672D95
:10546000CE0101960E945D298091E80085FF29C048
:10547000262D30E0021B130B992039F06A948FEF30
:105480006816B1F01092F100F9CFF701862D77FE82
:1054900007C0815058F094919093F1003196F9CF64
:1054A000815020F091919093F100FACFE20EF31E1B
:1054B0008091E80085FF0FC00115110511F48110DE
:1054C0000AC089818FBFC1CF5D9884E68093EE06C4
:1054D0008C2D9B2D03C0A092E800F3CF0F90DF919D
:1054E000CF911F910F91FF90EF90DF90CF90BF90E1
:1054F000AF909F908F907F906F9008951092E900E9
:105500001092EB061092EA069093E9068093E80663
:105510000895CF92DF92FF920F931F93CF93DF9363
:1055200000D0CDB7DEB7F82E8A016B010115110549
:10553000B1F0F601F7FE02C0849101C08081498379
:105540005A830E94EC2801501109FFEFCF1ADF0A9D
:1055500049815A818111EACF8FEF9FEF01C0CA01C3
:105560000F900F90DF91CF911F910F91FF90DF90DF
:10557000CF9008951F93CF93DF931F92CDB7DEB7DF
:10558000162F2091E80022FFFCCF612F79830E9423
:1055900050298BEF8093E800812F7981972F0F900E
:1055A000DF91CF911F910895CF93DF931F92CDB7D5
:1055B000DEB71982CE0101960E940926CE0101961E
:1055C0000E94AD2D898190E00F90DF91CF910895D9
:1055D0001F920F920FB60F921124EF92FF920F932A
:1055E0001F932F933F934F935F936F937F938F936B
:1055F0009F93AF93BF93EF93FF93CF93DF93CDB779
:10560000DEB76297DEBFCDBF1092E9008091E8005F
:1056100083FFEBC068E0CE010A960E94502982EF1A
:105620008093E8009A8597FF05C08091E80080FF8D
:10563000FCCF03C08EEF8093E800892F807609F0BD
:10564000B9C08B85811105C01092F1001092F10054
:10565000C5C0282F2D7F213009F4C0C0853049F402
:105660008091E80080FFFCCF8C8580688093E30008
:10567000B5C0863009F076C02D85E888F9882230DB
:1056800071F580E090E02A8B0E947E2A0E94D42A45
:1056900099E08E010F5F1F4FF801392F11923A9553
:1056A000E9F799832A892A8391E09E8390E8988775
:1056B0009AEF99872091EA063091EB06275F3F4FDA
:1056C0003C832B838D83C7010E947E2A49E050E0F2
:1056D000B80180E00E94892A0E94D42A7FC0C701B5
:1056E0002A8B0E947E2A2A89223241F482E290E0AB
:1056F0000E94B82D892B09F071C074C0213069F463
:1057000088899989089711F42093E7068091E70624
:10571000811118C069E073E01AC0233009F062C03B
:105720008C85882391F0823021F460E187E293E058
:1057300006C0813009F056C06BE08BE193E00E9417
:105740001A294AC067EF72E002C068E373E061158E
:10575000710509F447C0FB01449150E080E80E94C4
:10576000892A3CC0873009F43DC0883021F481E0AB
:105770008093F10033C0893089F5937099F5E3EF98
:10578000F2E081E021E096E38093E9002093EB00D2
:1057900034913093EC009093ED008F5F319685301B
:1057A00099F78EE78093EA001092EA008C85809347
:1057B000EC0614C0888999890E947E2A8E85811101
:1057C00005C0CE010A960E94142606C0823051F40C
:1057D000CE010A960E94E02D882321F08EEF80935F
:1057E000E80003C081E28093EB0062960FB6F89464
:1057F000DEBF0FBECDBFDF91CF91FF91EF91BF9183
:10580000AF919F918F917F916F915F914F913F9158
:105810002F911F910F91FF90EF900F900FBE0F905F
:105820001F9018958093E9008091F200882319F069
:105830008AE38093E80008951F920F920FB60F92AB
:1058400011242F933F934F935F936F937F938F9385
:105850009F93AF93BF93EF93FF938091E1001092DA
:10586000E10083FF0FC01092E90091E09093EB00FC
:105870001092EC0092E39093ED001092EC0698E009
:105880009093F00082FF1DC083E00E94122C809153
:10589000EE06882339F08091EE0681508093EE0663
:1058A000882369F08091ED06882359F08091ED06F8
:1058B00081508093ED06811104C0289A02C05D9A40
:1058C000F1CFFF91EF91BF91AF919F918F917F9118
:1058D0006F915F914F913F912F910F900FBE0F905D
:1058E0001F9018951092EC0681E08093D70080EA13
:1058F0008093D80082E189BD09B400FEFDCF61E04C
:1059000070E080E090E00E945A2380E98093D80004
:105910008CE08093E2001092E000559A209A08955E
:105920004F925F926F927F92AF92BF92CF92DF922F
:10593000EF92FF920F931F93CF93DF93CDB7DEB714
:1059400029013A01621B730B840B950B29893A8953
:105950004B895C892A193B094C095D09298B3A8BD3
:105960004B8B5C8B9B01AC0169897A898B899C8903
:105970000E944533E418F50806091709A8019701A4
:105980000E94AB332A0D3B1D4C1D5D1DCA01B901A0
:10599000DF91CF911F910F91FF90EF90DF90CF900B
:1059A000BF90AF907F906F905F904F900895FC01F3
:1059B000808191810C948234CF93DF93EC018881B4
:1059C0009981009711F00E948234198218821D82F9
:1059D0001C821B821A82DF91CF9108950F931F932F
:1059E000CF93DF93EC018B016F5F7F4F88819981AB
:1059F0000E941135009731F0998388831B830A83B5
:105A000081E001C080E0DF91CF911F910F91089557
:105A1000CF93DF93EC0188819981892B29F08A81CA
:105A20009B818617970760F4CE010E94EE2C882395
:105A300041F08C819D81892B19F4E881F9811082D4
:105A400081E0DF91CF910895EF92FF920F931F9322
:105A5000CF93DF93EC017B018A01BA010E94082DEC
:105A6000811104C0CE010E94DC2C07C01D830C8371
:105A7000B701888199810E94E435CE01DF91CF91F1
:105A80001F910F91FF90EF900895FC0111821082F9
:105A900013821282158214826115710559F0FB017F
:105AA00001900020E9F7AF0141505109461B570B07
:105AB0000C94242D0895CF93DF93EC01FB018617FE
:105AC000970761F0608171816115710529F044814A
:105AD00055810E94242D02C00E94DC2CCE01DF9152
