:100000000C9403010C942B010C942B010C94E60F1F
:100010000C94E60F0C94E60F0C942B010C94071F24
:100020000C942B010C942B010C942B010C941D0AA5
:100030000C942B010C942B010C942B010C942B0190
:100040000C94E2270C942B010C94932B0C94C52B4D
:100050000C942B010C942B010C942B010C942B0170
:100060000C94C60D0C942B017108BE06D206EC064A
:10007000EC0605074E08EC06FF08FF08FF08FF081E
:10008000FF08FF08FF0863071E077707FF08FF0840
:10009000FF08A807FF08E40703082508FF08FF0872
:1000A000FF08FF0880088808FF08FF08FF089D0870
:1000B000B408FF08FF08FF08FF08FF08FF08FF0853
:1000C000FF08FF08FF08FF08FF08FF08E608084AC6
:1000D000D73B3BCE016E84BCBFFDC12F3D6C74315C
:1000E0009ABD56833DDA3D00C77F11BED9E4BB4CB3
:1000F0003E916BAAAABE000000803F08000000BE2F
:10010000922449123EABAAAA2ABECDCCCC4C3E00CA
:10011000000080BEABAAAAAA3E00000000BF0000FB
:1001200000803F0000000000084178D3BB4387D126
:10013000133D190E3CC3BD4282AD2B3E68EC827666
:10014000BED98FE1A93E4C80EFFFBE01C4FF7F3FC7
:10015000000000000007634236B79BD8A71A396831
:100160005618AEBAAB558C1D3CB7CC5763BD6DED80
:10017000FD753EF6177231BF000000803F003F065C
:100180005B4F666D7D077F6F777C395E7971BF86C7
:10019000DBCFE6EDFD87FFEFF7FCB9DEF9F10040BC
:1001A0000000000800020100000304070000000036
:1001B0000000000001020408102040800102040831
:1001C00010200102040810200404040404040404A0
:1001D0000202020202020303030303030000000001
:1001E00023002600290000000000250028002B0025
:1001F00000000000240027002A00B005E40CEB14E6
:10020000F52B0606EF1411241FBECFEFD8E0DEBF9A
:10021000CDBF11E0A0E0B1E0EEE2FAE602C0059049
:100220000D92A83CB107D9F727E0A8ECB1E001C0D6
:100230001D92AD35B207E1F711E0C2E0D2E004C093
:100240002297FE010E948732CA3FD107C9F70E9458
:10025000392C0C940A350C940000CF92DF92EF9267
:10026000FF920F931F93E82FF92F05C0015011093A
:100270002109310961F1908196239417B9F305C0E2
:10028000015011092109310911F19081962394132C
:10029000F7CFC12CD12CE12CF12C0AC08FEFC81A5A
:1002A000D80AE80AF80A0C151D052E053F0579F055
:1002B00080818623841791F36C2D7D2D8E2D9F2DAB
:1002C0001F910F91FF90EF90DF90CF90089560E025
:1002D00070E080E090E01F910F91FF90EF90DF9031
:1002E000CF900895CF93DF93CDB7DEB72A970FB69F
:1002F000F894DEBF0FBECDBF61E08DE00E946E2995
:1003000061E08DE00E94A7296CE271E080E090E05E
:100310000E945B2860E08DE00E94A72926E040E073
:1003200052EC61E070E086EB96E00E94152B64EFE2
:1003300071E080E090E00E945B2861E083E10E9430
:100340006E2961E083E10E94A72964E670E080E005
:1003500090E00E945B2861E083E10E946E2960E0EA
:1003600083E10E94A72961E0CE0101960E94CF148B
:100370008AE0FE013196A6E5B2E001900D928A95E1
:10038000E1F762E0CE0101960E94CF148AE0FE01FF
:100390003196A0E6B2E001900D928A95E1F786E5EC
:1003A00092E00E94B01580E692E00E94B01564EFE2
:1003B00071E080E090E00E945B2840E050E0BA01EC
:1003C00086E592E00E94BC1540E050E0BA0180E66C
:1003D00092E00E94BC158AE593E00E94A81A2A9632
:1003E0000FB6F894DEBF0FBECDBFDF91CF91089559
:1003F00020914E02FC01222319F0EA51FE4F02C067
:10040000E65EFD4F8081089520914E02FC0122237B
:1004100019F0EA51FE4F02C0E65EFD4F6083089579
:1004200086EB96E00C948A2CCF93DF93EC010E942C
:10043000F80180936A02CE0101960E94F801809330
:100440006B0280916A0290916B02DF91CF910895C7
:100450000F931F93CF93DF93EC010E94F8010CE6FA
:1004600012E0F8018083CE0101960E94F80180938A
:100470006D02CE0102960E94F80180936E02CE01B9
:1004800003960E94F80180936F02F80160817181E8
:1004900082819381DF91CF911F910F910895FC018B
:1004A000DB0112964D915D916D917C911597428380
:1004B00053836483758316968C911697868317965B
:1004C0004D915D916D917C911A974783508761871B
:1004D00072871B964D915D916D917C911E9743871C
:1004E0005487658776871F964D915D916D917C91BC
:1004F00052974787508B618B728B53964D915D91CC
:100500006D917C915697438B548B658B768B579668
:100510004D915D916D917C915A97478B508F618F72
:10052000728F5B964D915D916D917C915E97438F3B
:10053000548F658F768F5F964D915D916D917C9113
:100540009297478F50A361A372A393964D915D91AB
:100550006D917C91969743A354A365A376A3979638
:100560004D915D916D917C919A9747A350A761A79A
:1005700072A79B964D915D916D917C919E9743A73B
:1005800054A765A776A79F964D915D916D917C913B
:10059000D29747A750AB61AB72ABD3968C91D397F0
:1005A00083ABD4968C9184ABCF010895E1EDF1E05B
:1005B00020E030E0419151914817590791F0452BC7
:1005C00041F4F901EE0FFF1FEF52FE4F918380833C
:1005D00008C02F5F3F4F2830310561F780E090E081
:1005E0000895C9010895AF92BF92CF92DF92EF9222
:1005F000FF920F931F93CF93DF93CDB7DEB7E697AC
:100600000FB6F894DEBF0FBECDBF8C0186E090E040
:100610000E94F801D82EE82EF12C0C30110509F4B7
:1006200019C14CF50830110509F45BC1F4F403302D
:10063000110509F4D6C10530110509F080C286E024
:1006400090E00E9414028C0169E08EEC93E00E941D
:100650008A21B8018EEC93E00E941D1488E090E09E
:100660000E9414028C016AE02AC00A30110509F1C7
:100670000CF49EC16DC10132110509F42BC26CF45A
:100680000E31110509F4ECC10032110509F4F4C171
:100690000431110509F053C2BBC108321105C9F07C
:1006A0000233110509F439C20232110509F047C2BB
:1006B000F0C187E090E00E9414028C016D2D8EEC59
:1006C00093E00E948A21B8018EEC93E00E941D14F1
:1006D00036C287E090E00E9414028C0189E090E02D
:1006E0000E9414026C0181E0E816F10449F561E012
:1006F000CE0101960E94E723BE016F5F7F4F82E823
:1007000092E00E944F02A601662757FD6095762F62
:1007100082E892E00E94EB25B801882777FD80955A
:10072000982F0E94F32E6B017C01AB01BC0182E883
:1007300092E00E940226B701A60182E892E02CC056
:1007400082E0E816F10459F562E0CE0101960E94BC
:10075000E723BE016F5F7F4F87EB92E00E944F025D
:10076000A601662757FD6095762F87EB92E00E94E1
:10077000EB25B801882777FD8095982F0E94F32EEE
:100780006B017C01AB01BC0187EB92E00E94022669
:10079000B701A60187EB92E00E945D26D0C189E0F7
:1007A000E816F10449F569E0CE0101960E94E723BD
:1007B000BE016F5F7F4F8CEE92E00E944F02A60158
:1007C000662757FD6095762F8CEE92E00E94EB2510
:1007D000B801882777FD8095982F0E94F32E6B0132
:1007E0007C01AB01BC018CEE92E00E940226B701B5
:1007F000A6018CEE92E0D0CF8AE0E816F10409F071
:100800009EC16AE0CE0101960E94E723BE016F5FA0
:100810007F4F81E293E00E944F02A601662757FDB9
:100820006095762F81E293E00E94EB25B80188273E
:1008300077FD8095982F0E94F32E6B017C01AB0110
:10084000BC0181E293E00E940226B701A60181E289
:1008500093E0A2CF87E090E00E94F801082F10E01B
:1008600088E090E00E9414027C018AE090E00E94FF
:1008700014025C0101301105B9F4B701882777FD36
:100880008095982F0E94F32E6B017C01B50188277B
:1008900077FD8095982F0E94F32EAB01BC01970144
:1008A000860186E592E01AC00230110509F047C1C1
:1008B000B701882777FD8095982F0E94F32E6B0152
:1008C0007C01B501882777FD8095982F0E94F32E33
:1008D000AB01BC019701860180E692E00E945116AF
:1008E0002EC187E090E00E94F801482F88E090E058
:1008F0004EAB0E94F801E82E89E090E00E94F801DA
:10090000182F8AE090E00E94F801F82E8BE090E02A
:100910000E94F801082F4EA96D2D8FEA93E00E94E6
:10092000B321EE2049F06FEF6E0D2F2D412F8FEA8E
:1009300093E00E94312207C0202F4F2D612F8FEAB4
:1009400093E00E9482228FEA93E00E94AF22F7C0D8
:1009500087E090E00E94F8019701220F331FF90110
:10096000E65EFE4F813011F4008101C0018110E08C
:1009700088E090E00E94F801D82EC8010E94D602BB
:10098000FC01EE0FFF1FE80FF91FEE52FC4F208114
:100990003181428129833A834B8384EB8D1508F49E
:1009A000CEC0B801CE0101960E94730B6D2DAFC071
:1009B00081EA93E00E943621282F30E02E153F0572
:1009C00029F06D2D81EA93E00E940F1387E090E0FB
:1009D0000E942802AB01BC0181EA93E00E9431131E
:1009E000AEC08DE993E00E943621282F30E02E150D
:1009F0003F0529F06D2D8DE993E00E948A2187E063
:100A000090E00E94F80161E081111BC060E019C014
:100A10008DE993E00E943621282F30E02E153F0506
:100A200029F06D2D8DE993E00E948A2187E090E006
:100A30000E94F801282F30E0223031053CF4682F65
:100A400061708DE993E00E945E2179C061E02230FF
:100A5000310509F460E08DE993E00E946E216FC0DA
:100A600061E00E946E2987E090E00E94F801682F03
:100A70008D2D0E94A72963C061E00E946E2987E046
:100A800090E00E94F801682F70E08D2D0E94E6280A
:100A900056C061E00E946E2987E090E00E94140237
:100AA0006C0189E090E00E9414021816190664F4A3
:100AB0008C01222717FD2095322FA601B7018EE762
:100AC00092E00E94A8133BC0B7018EE792E00E941B
:100AD0000F1435C087E090E00E94F801182F853B85
:100AE00070F5C7010E94D602FC01EE0FFF1FE80F50
:100AF000F91FEE52FC4F20813181428129833A83D4
:100B00004B83B701CE0101960E94730B612F70E0F9
:100B1000CE0101960E94AC0B12C00E942C280E94AC
:100B2000F12E20E030E04AE754E40E94582E609312
:100B3000CC017093CD018093CE019093CF01E696C6
:100B40000FB6F894DEBF0FBECDBFDF91CF911F91DE
:100B50000F91FF90EF90DF90CF90BF90AF900895EE
:100B6000CF93DF93C2EDD3E0CE010E94D90A239642
:100B700083E0CA3ED807C1F78EEC93E00E941A14B6
:100B80008CEB93E00E94F9268FEA93E00E942622E4
:100B90008BEA93E00E94852781EA93E00E94791115
:100BA0008DE993E00E941D218AE593E00E94481799
:100BB00086E593E00E94BC1FC2E8D2E0CE010E940D
:100BC000D923E59683E0C635D807C1F78EE792E0D2
:100BD0000E94A21388E792E00E94BD1D84E792E084
:100BE0000E94141780E792E00E942E1786E592E09B
:100BF0000E94DF1480E692E00E94DF1469E371E056
:100C000080E592E0DF91CF910C94432D80E592E056
:100C10000E94D52C8FEA93E00C94C322682F86EBB8
:100C200096E00C94B02A8FEF0E940E0685E50C9496
:100C30000E068FEF0E940E0685E50E940E060C94AC
:100C40001002CF93C82F81E00E940E068C2FCF9107
:100C50000C940E06EF92FF920F931F93CF93DF93A6
:100C60007C01FC01C4810C2F158184E00E940E06DA
:100C70008C2F0E940E06C0E0D0E0C017D10744F4CC
:100C8000BE01C7010E948A2D0E940E062196F5CF53
:100C9000DF91CF911F910F91FF90EF900895FF92F8
:100CA0000F931F93CF93DF931F92CDB7DEB78B01C6
:100CB000F82E82E099830E940E06A8016F2D99817B
:100CC000792F40936C0250936D0260936E02709383
:100CD0006F02802F0E940E0680916D020E940E0608
:100CE00080916E020E940E0680916F020F90DF913C
:100CF000CF911F910F91FF900C940E06CF92DF922F
:100D0000EF92FF926B017C0183E00E940E06C70107
:100D1000B6010E94C02E862F262F372F30936B02EC
:100D200020936A020E940E0680916B02FF90EF9062
:100D3000DF90CF900C940E06CF92DF92EF92FF924D
:100D40000F931F93CF93DF93CDB7DEB727970FB6DF
:100D5000F894DEBF0FBECDBF7C0186E090E00E941C
:100D6000F801D82E082F10E083E3E816F10408F00C
:100D700046C2F701EC5CFF4F0C9485328BEA93E09E
:100D80000E94362190E08017910729F06D2D8BEAA3
:100D900093E00E948A2160E971E08BEA93E00E946F
:100DA000CD271CC287E090E00E94F801F82E8CEB62
:100DB00093E00E943621282F30E02017310709F0F8
:100DC00010C28CEB93E00E9439218F110AC28CEB88
:100DD00093E00E94172702C28DE993E00E9436211A
:100DE00090E08017910761F06D2D8DE993E00E94EE
:100DF0008A218DE993E00E94B02160E00E946E2973
:100E00008DE993E00E94822190C187E090E00E94EA
:100E1000F801F82E86E593E00E943621282F30E075
:100E20002017310729F06D2D86E593E00E948A2175
:100E30006F2D86E593E00E94BF1F77C180919B03D1
:100E400090919C030097F1F04F960E94362190E01C
:100E50008017910731F100919B0310919C030115BC
:100E6000110581F085E991E0F80191838083C80143
:100E700082599F4F0E94D52CC8010E946010C80162
:100E80000E944A2C87E790E00E94482C8C016D2D2F
:100E90000E94A01E10939C0300939B03C8010E9414
:100EA000B21E80919B0390919C030E94DD1E682FCF
:100EB0008093E2018FEF860F8E3F08F47FC060E0E1
:100EC00070E0CB018BC18DE993E00E94362190E068
:100ED0008017910709F46CC06D2D8DE993E00E9495
:100EE0008A218DE993E00E94B02160E05FC08DE926
:100EF00093E00E94362190E08017910799F06D2DC4
:100F00008DE993E00E948A218DE993E00E94AD2152
:100F100060E00E946E298DE993E00E94B02160E0BC
:100F20000E946E2960E08DE993E00E943C21182F19
:100F300060E08DE993E00E944D21612F70E0660F23
:100F4000771F680F711D882777FD8095982FF2C055
:100F500087E090E00E94F801C82EE82EF12C8DE980
:100F600093E00E943621282F30E02017310709F046
:100F70003FC18DE993E00E943921282F30E02E15E2
:100F80003F0509F035C18DE993E0EA94EF2859F463
:100F90000E94AD2162E00E946E2960E08DE993E03D
:100FA0000E943C210AC00E94B02162E00E946E298A
:100FB00060E08DE993E00E944D21682F70E080E0B1
:100FC00090E00E94F12E0AC187E090E00E94F801B3
:100FD000F82E88E792E00E943621282F30E0201773
:100FE000310729F06D2D88E792E00E948A2188E779
:100FF00092E00E94C01D6F2D88E792E00E94991E2A
:101000000E942106FCC084E792E00E94362190E015
:1010100080179107A9F06D2D84E792E00E948A2144
:1010200084E792E00E94AD21482F84E792E04F834D
:101030000E94B0214F81682F84E792E00E94171729
:1010400084E792E00E942C1721C080E792E00E9482
:10105000362190E080179107A9F06D2D80E792E08E
:101060000E948A2180E792E00E94AD21482F80E70C
:1010700092E04F830E94B0214F81682F80E792E079
:101080000E94311780E792E00E944617BC01882732
:1010900077FD8095982F0E94F32E63C087E090E043
:1010A0000E94F801082F10E08AE593E00E94B8172B
:1010B0000130110529F48AE593E00E9455178EC08E
:1010C0000230110529F48AE593E00E945B1786C07F
:1010D0000330110509F093C08AE593E00E9461177F
:1010E0007DC060E572E0CE0101960E94702DCE01B8
:1010F00001960E942A06CE0101960E94D52C7FC03F
:1011000060E08D2D0E946E298D2D0E94DD290DC07D
:10111000F801EE0FFF1FE65FFE4F108160E0812FA8
:101120000E946E29812F0E94C928BC01882777FD63
:101130008095982F0E94F32E51C087E090E00E9486
:1011400014028C0160E08D2D0E946E2998014427C5
:1011500037FD4095542F61E08D2D0E94062A0E9494
:10116000F12E0E947E064BC087E090E00E94F801BD
:10117000182F61E08D2D0E946E2960E08D2D0E9458
:10118000A72982E090E00E94832861E08D2D0E94D3
:10119000A7298AE090E00E94832860E08D2D0E94BC
:1011A000A72960E0812F0E946E2920E335E740E007
:1011B00050E061E0812F0E94062A0E94F12E20E07B
:1011C00030E048E652E40E94582E08C06091C80101
:1011D0007091C9018091CA019091CB010E944F0684
:1011E0000EC04F2D6D2D8CEB93E00E940427EFCDA8
:1011F0004C2D6D2D8DE993E00E949A21C4CE279647
:101200000FB6F894DEBF0FBECDBFDF91CF911F9117
:101210000F91FF90EF90DF90CF9008950F931F9361
:10122000CF93DF931092E30183E090E00E94F801F6
:10123000082F84E090E00E94F801182F85E090E0EC
:101240000E94F801C82FD0E01230C1F088F41130AC
:1012500009F058C00E941306802F0E940E06CE018E
:101260000E949C06DF91CF911F910F910C94100268
:10127000143041F0153009F43FC044C0CE010E9443
:10128000F3023AC069E08EEC93E00E948A2160E0AC
:1012900070E08EEC93E00E941D146AE08EEC93E007
:1012A0000E948A2160E070E08EEC93E00E941D14A1
:1012B00061E08EEC93E00E948A2160E070E08EECA9
:1012C00093E00E941D1462E08EEC93E00E948A215C
:1012D00060E070E08EEC93E00E941D1440E050E06E
:1012E000BA0186E592E00E94BC1540E050E0BA01E8
:1012F00080E692E00E94BC15DF91CF911F910F9183
:101300000C941906DF91CF911F910F9108951092BF
:101310004F0286EB96E00E94322A181619065CF4FA
:1013200081E080934F0210924E0286EB96E00E947D
:101330004B2A8093E10108950E942C280E94F12EEF
:1013400020E030E04AE754E40E94582E2091CC017E
:101350003091CD014091CE015091CF010E948D2D51
:101360006093C8017093C9018093CA019093CB0127
:1013700080919B0390919C03009711F00E94E21EC4
:101380000E94870982E892E00E94D72687EB92E0CC
:101390000E94D7268CEE92E00E94D72681E293E04D
:1013A0000E94D72680914F02882309F445C060919E
:1013B000E1018091E301653561F481110AC08091FA
:1013C000D0018F3FD9F481E08093E5018093E30160
:1013D00015C06093D001882389F08091E5018230A7
:1013E00019F46093E40107C0833028F09091E40180
:1013F00091509093E40190E00E9404028091E501F5
:101400008F5F843318F48093E50104C01092E501E6
:101410001092E3018091E301882371F08091E4014F
:1014200081110AC08091E501843030F01092E3010F
:101430000E940E091092E50108951F920F920FB6B7
:101440000F9211242F933F934F935F936F937F934A
:101450008F939F93AF93BF93EF93FF938091EB0391
:1014600087FF05C010928500109284001AC0209159
:10147000EB03332727FD30958091EA0390E028178E
:1014800039077CF48091EB03992787FD9095FC0147
:10149000EE0FFF1FE80FF91FE451FC4F808186FD1E
:1014A00015C08091EB038F5F8093EB032091EB03DA
:1014B000332727FD30958091EA0390E028173907FC
:1014C000BCF48091EB038C305CF112C08091EB0393
:1014D000992787FD9095FC01EE0FFF1FE80FF91F7C
:1014E000E451FC4F808160E08F730E94A729D9CF1F
:1014F0008091840090918500049680349C4918F472
:1015000080E49CE905C08091840090918500049658
:1015100090938900809388008FEF8093EB0338C00D
:1015200020918400309185008091EB03992787FDFD
:101530009095FC01EE0FFF1FE80FF91FE451FC4FDF
:1015400081819281820F931F9093890080938800FC
:101550008091EB03992787FD9095FC01EE0FFF1F0B
:10156000E80FF91FE451FC4F808186FF11C0809184
:10157000EB03992787FD9095FC01EE0FFF1FE80F05
:10158000F91FE451FC4F808161E08F730E94A7290D
:10159000FF91EF91BF91AF919F918F917F916F914B
:1015A0005F914F913F912F910F900FBE0F901F9021
:1015B00018952091EA032C30A0F431E0320F3093DB
:1015C000EA03FC012083822F90E0FC01EE0FFF1F55
:1015D000E80FF91FE451FC4F88EB9BE09283818375
:1015E00008952FEFFC0120830895DF92EF92FF9280
:1015F0000F931F93CF93DF93EC01D62E7A018901CD
:1016000088818C3008F066C061E08D2D0E946E29C3
:101610008881A82FB0E0FD01EE0FFF1FEA0FFB1F2E
:10162000E451FC4F2D2D2F739081907C922B908351
:1016300060E272E06E197F0977FF02C06D5F7F4F35
:101640007595679575956795698340E659E0401BE8
:10165000510B57FF02C04D5F5F4F5595479555950C
:1016600047954A836CE00E9410329CE0899FB0014C
:10167000112420E030E0A901460F571FFA01EE0FB8
:10168000FF1FE40FF51FE451FC4F908196FD16C03B
:101690002F5F3F4F2C30310571F781110FC0109231
:1016A000800082E080938100109285001092840077
:1016B000B19A80916F00826080936F00888190E082
:1016C000FC01EE0FFF1FE80FF91FE451FC4F808172
:1016D000806480838881DF91CF911F910F91FF906B
:1016E000EF90DF90089520E639E040E252E00C945C
:1016F000F50AFC0180818C3070F5918128E830E09A
:10170000291B310997FD3395220F331F220F331FF9
:10171000621773077CF0928128E532E0291B3109BA
:1017200097FD3395220F331F220F331F6217730764
:101730000CF49B0122503109220F331F4FB7F8944C
:1017400090E0FC01EE0FFF1FE80FF91FE451FC4F82
:10175000328321834FBF08954F925F926F927F92A1
:10176000AF92BF92CF92DF92EF92FF920F931F93AF
:10177000CF93DF93EC01603282E078070CF040C039
:1017800077FD06C0653B71052CF064EB70E002C08C
:1017900060E070E0898128E830E0281B310987FD8E
:1017A0003395220F331F220F331F5901CC24B7FC6E
:1017B000C094DC2C882777FD8095982F2A8148E5F6
:1017C00052E0421B510927FD5395440F551F440F0A
:1017D000551F2A01662457FC6094762C7F926F92E5
:1017E0005F924F9214EBE12EF12C00E010E020E02C
:1017F00030E0A9010E948E2C0F900F900F900F9057
:10180000CE01DF91CF911F910F91FF90EF90DF906C
:10181000CF90BF90AF907F906F905F904F900C945F
:10182000790B8091400490E020914104821B910942
:1018300008952091410480914004281750F4E22F2C
:10184000F0E0EE5BFB4F808190E02F5F209341043E
:1018500008958FEF9FEF0895E09141048091400437
:10186000E81730F4F0E0EE5BFB4F808190E00895E4
:101870008FEF9FEF08950895CF92DF92EF92FF923E
:101880000F931F93CF93DF937C01CB018A012091AB
:101890001C04222389F0EB016B01C40ED51ECC156C
:1018A000DD0569F06991D701ED91FC910190F0811E
:1018B000E02DC7010995F3CF642F0E949D0DC8014B
:1018C000DF91CF911F910F91FF90EF90DF90CF901C
:1018D0000895CF93DF931F92CDB7DEB76983209130
:1018E0001C042223D1F020911D04203240F021E07D
:1018F00030E0FC013383228380E090E015C08091CA
:101900001E04E82FF0E0E15EFB4F998190838F5F2A
:1019100080931E0480931D0405C061E0CE010196F2
:101920000E949D0D81E090E00F90DF91CF9108958E
:10193000FC011382128248EE53E060E070E04483C1
:1019400055836683778387E491E09183808308954C
:10195000109241041092400410921E0410921D0433
:101960000C94E80C862F413208F040E262E474E007
:101970000E94060D1092410480934004089521E0D6
:101980000C94B20C81E080931C0460933F0410928D
:101990001E0410921D0408950C94C20C0F93062F80
:1019A00021E040911D046FE174E080913F040E94AA
:1019B0004A0D10921E0410921D0410921C040F91E7
:1019C000089561E00C94CE0C80E194E00C94980CA6
:1019D0001092CF0481E08093CD041092CC0461E09A
:1019E00082E10E94A72961E083E10E94A729E9EB37
:1019F000F0E080818E7F808380818D7F808388E48A
:101A00008093B80085E48093BC000895413208F0CB
:101A10003FC09091CF049111FCCF91E09093CF04FF
:101A20002093CD042FEF209362041092A704240F7B
:101A30002093A6049093CE049091CE04880F892B16
:101A40008093CE048091CC04813041F41092CC0478
:101A50008091CE048093BB0085EC01C085EE80931D
:101A6000BC008091CF048130E1F38091A7048417FA
:101A700010F44091A70428EA34E0FB01D9018A2F31
:101A8000821B841718F48D918193F9CF842F0895C8
:101A900080E008950F93413208F046C09091CF0442
:101AA0009111FCCF92E09093CF040093CD049FEF6F
:101AB000909362041092A7044093A604FB0168EA85
:101AC00074E0DB019A2F961B941718F491919D9363
:101AD000F9CF1092CE049091CE04880F892B809379
:101AE000CE048091CC04813041F41092CC048091DA
:101AF000CE048093BB0085EC01C085EE8093BC00D2
:101B0000222321F08091CF048230E1F3809162049E
:101B10008F3F61F080916204803251F080916204C5
:101B2000803341F483E007C081E005C080E003C05A
:101B300082E001C084E00F910895613298F4209111
:101B4000CF04243089F460938404FC0186E894E097
:101B5000DC012A2F281B261718F421912D93F9CF89
:101B600080E0089581E0089582E0089585ED8093F6
:101B7000BC008091BC0084FDFCCF1092CF0408957E
:101B800085EC8093BC001092CF0408951F920F92B1
:101B90000FB60F9211242F933F934F935F936F9340
:101BA0007F938F939F93AF93BF93EF93FF93809116
:101BB000B900887F803609F49CC068F5883209F442
:101BC0005BC090F4803109F454C038F4882309F4E0
:101BD000F5C0883009F44DC0F5C0883109F44CC017
:101BE000803209F45DC0EEC0803409F468C048F466
:101BF000803309F455C0883309F0E4C0809362044F
:101C0000A8C0803509F44FC0883509F45DC0883418
:101C100009F0D8C0D5C0883909F4C6C0A8F48837FF
:101C200009F467C038F4883609F463C0803709F4D2
:101C300060C0C8C0883809F4B7C0803909F45FC0F3
:101C4000803809F0BFC05BC0803B09F485C038F420
:101C5000803A09F466C0883A09F47EC0B3C0803C7B
:101C600009F4A6C0883C09F4A3C0883B09F489C0E4
:101C7000A9C08091CE0410C09091A7048091A604C1
:101C8000981770F5E091A70481E08E0F8093A70468
:101C9000F0E0E855FB4F80818093BB0085EC85C068
:101CA000809362048DC0E091A70481E08E0F809341
:101CB000A7048091BB00F0E0E855FB4F8083909132
:101CC000A7048091A6046DC0E091A70481E08E0F67
:101CD0008093A7048091BB00F0E0E855FB4F808320
:101CE0008091CD0481116CC081E08093CC0484EAA2
:101CF00060C083E08093CF0410926304CFCF8091C3
:101D00006304803208F050C0E091630481E08E0FDC
:101D1000809363048091BB00F0E0EC59FB4F80831B
:101D2000BDCF80916304803230F4E0916304F0E031
:101D3000EC59FB4F10820E94B60D6091630470E075
:101D4000E091C804F091C90484E694E009951092EA
:101D500063040E94C00D36C084E08093CF041092CB
:101D6000850410928404E091CA04F091CB04099593
:101D700080918404811105C081E0809384041092D5
:101D80008604E091850481E08E0F80938504F0E065
:101D9000EA57FB4F80818093BB009091850480912E
:101DA0008404981708F47ACF85E88093BC000AC0B1
:101DB00085EC8093BC001092CF0404C010926204A2
:101DC0000E94B60DFF91EF91BF91AF919F918F91BE
:101DD0007F916F915F914F913F912F910F900FBE27
:101DE0000F901F9018952091120530911305281718
:101DF0003907B9F49091D0048091D104981789F0F3
:101E0000E091D004F0E0EE52FB4F80812091D004AD
:101E100030E02F5F3F4F2F7333272093D00490E0A3
:101E200008958FEF9FEF08951F93CF93DF93DC0109
:101E30005C968D919C915D97009749F481E090E0CC
:101E400013969C938E93129780E090E03BC051963E
:101E5000ED91FC91529750962C915097322F3095DE
:101E60001FB75E964C915E9741FB772770F941FD55
:101E70006095F8944081772311F0422B01C04323F1
:101E80004083EC012197F1F748E0508160FF02C0E8
:101E9000522B01C053235083EC012197F1F7669533
:101EA000415099F78081772311F0832301C0822B61
:101EB00080831FBF5C968D919C915D970197F1F790
:101EC00081E090E0DF91CF911F910895209112055C
:101ED000309113052817390781F49091D00480912F
:101EE000D104981751F0E091D004F0E0EE52FB4F8E
:101EF0008081992787FD909508958FEF9FEF089532
:101F000020911205309113052817390771F480913B
:101F1000D1042091D00490E0805C9F4F821B9109F6
:101F200060E470E00E943032089580E090E008950F
:101F300020911205309113052817390739F48FB70E
:101F4000F8941092D1041092D0048FBF0895E091BC
:101F50001205F0911305E817F90769F4A389B4890C
:101F60009C918589809589238C93109213051092FA
:101F7000120581E0089580E00895CF93DF93EC018E
:101F80008A8D9B8D892BF1F080911205909113051C
:101F90008C179D07B9F0009711F00E94A70F8E8D46
:101FA0008E7F8E8F1092D1041092D004D09313059F
:101FB000C0931205EB89FC8980819D89892B8083E0
:101FC00081E001C080E0DF91CF9108951F920F92D0
:101FD0000FB60F9211242F933F934F935F936F93FC
:101FE0007F938F939F93AF93BF93EF93FF93E09172
:101FF0001205F0911305309709F451C0868DA6851E
:10200000B785958581FF04C08C91892329F447C049
:102010008C91892309F043C0A389B4899C91858957
:10202000809589238C93868997890197F1F7208D74
:10203000318DA685B785758558E040E0C9010197C7
:10204000F1F7842F90E095958795482F6C91672341
:1020500009F04068515091F7868D81FD409580913F
:10206000D10490E001968F7399272091D00428170E
:1020700049F0A091D104B0E0AE52BB4F4C93809395
:10208000D10403C0868D8160868F828D938D0197E8
:10209000F1F7A389B4898C919589892B8C93FF9151
:1020A000EF91BF91AF919F918F917F916F915F91D0
:1020B0004F913F912F910F900FBE0F901F90189549
:1020C00027E531E0FC01318320830C94A70F1F9397
:1020D000CF93DF93EC01162F6E8D6695617081E0D2
:1020E0006827812F0E94A72961E0812F0E946E2915
:1020F000812F90E0FC01EC54FE4FE491E88BFC0151
:10210000E853FE4FE491F0E0EE0FFF1FEA51FE4F5F
:10211000859194919A8B898BDF91CF911F9108952E
:102120001F93CF93DF93EC01162F60E0812F0E9465
:102130006E298E8D81FD04C061E0812F0E94A72948
:102140001C87812F90E0FC01EC54FE4FE491ED8759
:10215000FC01E853FE4FE491F0E0EE0FFF1FE45264
:10216000FE4F859194919F878E87DF91CF911F912C
:102170000895FF920F931F93CF93DF93EC01F62EF8
:10218000522F1B821A8208EE13E020E030E00C830D
:102190001D832E833F8387E591E0998388831F8A7F
:1021A0001E8A198E188E1B8E1A8E1D8E1C8E8E8D79
:1021B0008E7F50FB81F98E8F642FCE010E946710B5
:1021C0006F2DCE01DF91CF911F910F91FF900C9455
:1021D0009010CF93DF93EC019A01AB011B8E1A8E06
:1021E000198E188E1F8A1E8A60E079E08DE390E0D8
:1021F0000E946632C9012430310520F0B9016350D4
:10220000710902C061E070E07D8F6C8FEC85E63172
:1022100008F068C0B901769567956431710518F0CA
:102220006351710902C061E070E07F8B6E8B06978D
:1022300018F0C901059702C081E090E0998F888F5E
:10224000C901880F991F820F931F969587959695C0
:1022500087958D30910510F00C9702C081E090E0D9
:102260009B8F8A8F20916800E83050F091E0EE302B
:1022700008F490E081E001C0880F9A95EAF701C068
:1022800084E0822B809368002C85283038F02E3033
:1022900040F0263148F48CE690E008C08DE690E0EE
:1022A00005C08BE690E002C080E090E09C8B8B8BB9
:1022B000283030F481E001C0880F2A95EAF70DC07C
:1022C000822F90E02E3010F4089701C00E9791E015
:1022D00001C0990F8A95EAF7892F8D8B8C8D9D8D82
:1022E0000197F1F7CE01DF91CF910C94BD0F0C94C3
:1022F000A70F0C941D210F931F93CF93DF93EC0135
:10230000062F18E060E088850E94A72900FF02C020
:1023100061E001C060E089850E94A729069561E01F
:1023200088850E94A729115069F760E088850E947E
:10233000A72961E089850E94A72961E088850E941C
:10234000A72960E089850E946E2918EC89850E9482
:10235000DD29892B59F01150C9F761E089850E9468
:102360006E2960E089850E94A729EFCF61E0898509
:10237000DF91CF911F910F910C946E29CF93DF9332
:10238000EC0161E088850E94A72961E089850E94AF
:10239000A72960E089850E94A72960E08885DF91F0
:1023A000CF910C94A729CF93DF93EC0160E088854F
:1023B0000E94A72960E089850E94A72961E088859D
:1023C0000E94A72961E08985DF91CF910C94A7290C
:1023D000CF92DF92FF920F931F93CF93DF931F92C1
:1023E000CDB7DEB76C01F62E79830E94BE1160E492
:1023F000C6010E947B11C6010E94D311C6010E9432
:10240000BE11F6016581C6010E947B110F2D7981F5
:10241000172F84E0F82EF80161918F01C6010E9408
:102420007B11FA94C1F7C6010E94D311C6010E9424
:10243000BE11F6016681C6010E947B11C6010F9094
:10244000DF91CF911F910F91FF90DF90CF900C946F
:10245000D3114F925F926F927F928F929F92AF9221
:10246000BF92CF92DF92EF92FF920F931F93CF9381
:10247000DF9300D000D0CDB7DEB76A017B018901C0
:1024800037FD48C0B9016F5F7F4F882777FD809582
:10249000982F0E94F32E9B01AC0160E070E080E277
:1024A00091E40E94CE304B015C019B01AC01C7015D
:1024B000B6010E94582E0E942E2F2B013C01B8011C
:1024C000882777FD8095982F0E94F32E9B01AC0101
:1024D00060E070E080E291E40E94CE3069837A830C
:1024E0008B839C83A5019401C301B2010E946B30D0
:1024F0009B01AC01C701B6010E948D2D29813A8153
:102500004B815C810E94582E0E942E2F0E94C02E6B
:10251000CB011FC088249924821A930AA12CB12CC4
:1025200020E030E040E251E4C701B6010E946B3088
:102530006B017C018FEFA81AB80AA814B90484F3C0
:10254000C701B6010E94C02ECB016AE070E00E9474
:1025500030320F900F900F900F90DF91CF911F911D
:102560000F91FF90EF90DF90CF90BF90AF909F9032
:102570008F907F906F905F904F900895DB0180E087
:1025800090E22C91223208F09C93EC91F0E0E2581A
:10259000FE4FE491ED938F5F843099F70895EF92A9
:1025A000FF920F931F93CF93DF9300D000D0CDB74E
:1025B000DEB78C01DB01FE013196CE0105967F016D
:1025C0002D912193E817F907D9F7B701C8010E94A7
:1025D000BE12B701C8010E94E8110F900F900F9032
:1025E0000F90DF91CF911F910F91FF90EF90089581
:1025F000CF93DF9300D000D0CDB7DEB720E22983A0
:102600002A832B832C83BE016F5F7F4F0E94CF12E2
:102610000F900F900F900F90DF91CF910895CF936F
:10262000DF93EC016A83E62FF0E0EE0FFF1FE65E1A
:10263000FE4F81818983908198838887998761E0A3
:102640000E946E2961E089850E946E2980E48C8356
:1026500080EC8D838AE88E83CE01DF91CF910C943C
:10266000F8128F929F92AF92BF92CF92DF92EF9229
:10267000FF920F931F93CF93DF9300D000D0CDB77D
:10268000DEB75C016A017B0119821A821B821C82FF
:1026900020E030E0A901C701B6010E94542E87FF57
:1026A00009C0F7FAF094F7F8F09481E2898399244D
:1026B000939401C0912C03E010E0812C9801B701A4
:1026C000A601C5010E942912181619062CF0002334
:1026D00019F08820B9F00CC001110AC0E1E0F0E067
:1026E000EC0FFD1FE90DF11D20E1280F208307C02D
:1026F000E1E0F0E0EC0FFD1FE90DF11D8083939404
:102700008824839483E0891530F0015011090C3F2F
:102710008FEF180799F6BE016F5F7F4FC5010E94CA
:10272000CF120F900F900F900F90DF91CF911F91CC
:102730000F91FF90EF90DF90CF90BF90AF909F9060
:102740008F9008950E941D2188E0809314050895BC
:102750004F925F926F927F928F929F92AF92BF92B1
:10276000CF92DF92EF92FF920F931F93CF93DF935D
:10277000762E68017901609314059A0140E050E0DB
:1027800060E472E48FE090E00E946632E901590152
:1027900037FF03C08FEFA81AB80A85011595079572
:1027A00061E0872D0E946E29A8EEB3E0A701960193
:1027B0000E949A322B013C01C12CD12C76014E0192
:1027C000AA2497FCA094BA2CC414D504E604F704F8
:1027D000A8F461E0809114050E94A729C8010E9415
:1027E000832860E0809114050E94A729C8010E94F7
:1027F0008328C80CD91CEA1CFB1CE6CFDF91CF91C3
:102800001F910F91FF90EF90DF90CF90BF90AF900E
:102810009F908F907F906F905F904F900895862F3C
:102820006093140561E00E946E2960E080911405B8
:102830000C94A72960E00C9426210F931F93CF934B
:10284000DF938C016F3F710519F014F06FEF70E0AA
:10285000EB0161308FEF780714F4C1E0DFEFD7FDB3
:1028600006C061E0C8010E946E21BE0108C060E0A0
:10287000C8010E946E21662777276C1B7D0BC8015B
:10288000DF91CF911F910F910C9486214F925F920F
:102890006F927F928F929F92AF92BF92CF92DF9270
:1028A000EF92FF920F931F93CF93DF9300D000D04E
:1028B000CDB7DEB7FC01C982DA82EB82FC8295EAF1
:1028C00090832183C2828A8183838B8184838C81DC
:1028D000858346015701CF0106963801C12CD12CC2
:1028E0007601C814D904EA04FB0461F0D3012D91E8
:1028F0003D01DC012D93CD01BFEFCB1ADB0AEB0AC2
:10290000FB0AEFCF2401350126E0420E511C611C69
:10291000711CD801C12CD12C760180E0C814D904D7
:10292000EA04FB0441F09D9189279FEFC91AD90A57
:10293000E90AF90AF3CFDF01A40DB51D8C939701C5
:102940008601085F1F4F2F4F3F4FA7E0CA0ED11CD3
:10295000E11CF11CEC0DFD1D8AE580834017510739
:102960006207730728F460E070E080E090E002C046
:10297000B801C9010F900F900F900F90DF91CF9188
:102980001F910F91FF90EF90DF90CF90BF90AF908D
:102990009F908F907F906F905F904F9008951F93BE
:1029A000CF93DF93EC01162F60E00E942621115097
:1029B0001C8389E08D83DF91CF911F910895CF9380
:1029C000DF93EC0160E00E9426211C8289E08D8368
:1029D000DF91CF91089585E195E00C94FE1A85E191
:1029E00095E00C94271BAF92BF92CF92DF92EF92AB
:1029F000FF920F931F93CF93DF93EC016B017A014A
:102A000059016D8180E194E00E94C20CA501B601DC
:102A100080E194E00E943C0C80E194E00E94E10C93
:102A200082E090E00E9483286D8170E0A80180E13F
:102A300094E00E94BF0C82E090E00E948328C0E0F6
:102A400080E194E00E94110C892B51F080E194E028
:102A50000E94190CF701EC0FF11D8083CF5FF0CFBE
:102A6000DF91CF911F910F91FF90EF90DF90CF906A
:102A7000BF90AF9008956F927F928F929F92AF9286
:102A8000BF92CF92DF92EF92FF920F931F93CF935B
:102A9000DF93CDB7DEB768970FB6F894DEBF0FBEF1
:102AA000CDBF3C018AE04E012BE0820E911CF40167
:102AB000282F11922A95E9F7FE0131965F011192B4
:102AC0008A95E9F7F30184818F8B87E0888F82E014
:102AD000C82ED12CE12CF12C8E01095E1F4F21E074
:102AE0004AE050E060E070E0C4010E9446140AE051
:102AF00010E02AE030E0A501B401C3010E94F31404
:102B00002AE030E040E050E0B50185E195E00E9428
:102B1000601B1E8A1D8A22E030E040E050E0BE01CA
:102B20006B5E7F4F85E195E00E94731D81E09E8979
:102B3000911101C080E068960FB6F894DEBF0FBE19
:102B4000CDBFDF91CF911F910F91FF90EF90DF905C
:102B5000CF90BF90AF909F908F907F906F9008958F
:102B6000CF93DF93EC0180E194E00E94A80CCE01AA
:102B7000DF91CF910C943B156F927F928F929F9231
:102B8000AF92BF92CF92DF92EF92FF920F931F937B
:102B9000CF93DF93CDB7DEB76E970FB6F894DEBF55
:102BA0000FBECDBF3C016A017B0120E030E048E46C
:102BB00053E4C701B6010E941B3018168CF020E0C8
:102BC00030E048E453ECC701B6010E94542E87FF61
:102BD0000DC0C12CD12C58E4E52E53ECF52E06C0C7
:102BE000C12CD12C68E4E62E63E4F62ECE010196CA
:102BF0004C018EE0F40111928A95E9F75E01FFE045
:102C0000AF0EB11C8AE0F50111928A95E9F78E01A9
:102C1000075E1F4F86E0F80111928A95E9F7F301EC
:102C20008481898F85E08A8FCB8EDC8EED8EFE8E3F
:102C300046E0C42ED12CE12CF12C21E04EE050E0F6
:102C400060E070E0C4010E9446140AE010E02EE04B
:102C500030E0A501B401C3010E94F3142AE030E082
:102C600040E050E0B50185E195E00E94601B85E100
:102C700095E00E94041C80E06E960FB6F894DEBFCB
:102C80000FBECDBFDF91CF911F910F91FF90EF90BD
:102C9000DF90CF90BF90AF909F908F907F906F907C
:102CA00008952F923F924F925F926F927F928F92F0
:102CB0009F92AF92BF92CF92DF92EF92FF920F93CB
:102CC0001F93CF93DF93CDB7DEB7A8970FB6F894D5
:102CD000DEBF0FBECDBF4C011A012B016801790187
:102CE00020E030E048E453E4C701B6010E941B3005
:102CF00018168CF020E030E048E453ECC701B60130
:102D00000E94542E87FF0DC0C12CD12CE8E4EE2E7A
:102D1000E3ECFE2E06C0C12CD12CF8E4EF2EF3E438
:102D2000FF2E20E030E0A901C201B1010E94542E23
:102D3000811106C0B701A601C4010E94BC155BC089
:102D4000CE0101963C0182E1F30111928A95E9F7E7
:102D50008AE05E01FDE1AF0EB11CF501982F1192E2
:102D60009A95E9F78E010D5E1F4FF80111928A9531
:102D7000E9F7F40184818B8B81E18C8B2D8A3E8A6B
:102D80004F8A588EC98EDA8EEB8EFC8E7AE0C72E73
:102D9000D12CE12CF12C21E042E150E060E070E028
:102DA000C3010E9446140AE010E022E130E0A501D0
:102DB000B301C4010E94F3142AE030E040E050E087
:102DC000B50185E195E00E94601B85E195E00E94D8
:102DD000041C18A61FA222E030E040E050E0BE0133
:102DE000695D7F4F85E195E00E94731D81E098A5A4
:102DF000911101C080E0A8960FB6F894DEBF0FBE17
:102E0000CDBFDF91CF911F910F91FF90EF90DF9099
:102E1000CF90BF90AF909F908F907F906F905F907A
:102E20004F903F902F90089560E00C942621CF930F
:102E3000DF93EC01609331064093300680913106B8
:102E400060E00E946E29809130068883809131066F
:102E50008983DF91CF9108950C947E2160E00C94DA
:102E60002621CF93DF93EC01609333064093320623
:102E70008091330660E00E946E298091320688833B
:102E8000809133068983DF91CF9108950C947E2140
:102E9000CF93DF93EC0160E00E942621C05CDF4FFE
:102EA00088E68883DF91CF910895FC016085718564
:102EB000828593850895FC0164857585868597854F
:102EC0000895FC0160897189828993890895EF9240
:102ED000FF920F931F93CF93DF93C62F8A01E22EA9
:102EE00068E680E194E00E94C20C6C2F80E194E0DF
:102EF0000E94690C813001F560E080E194E00E945D
:102F0000CE0C81112EC081E090E00E94832821E048
:102F10004E2D68E680E194E00E94B20CE80100E0EA
:102F200010E0F12C80E194E00E94110C892B31F02B
:102F30000E151F0574F002C08FEF13C081E090E002
:102F40000E94832881E00E151F0509F480E0819519
:102F500008C00F5F1F4F80E194E00E94190C899315
:102F6000E1CFDF91CF911F910F91FF90EF900895E6
:102F70004F925F926F927F928F929F92AF92BF9289
:102F8000CF92DF92EF92FF920F931F93CF93DF9335
:102F9000CDB7DEB72C970FB6F894DEBF0FBECDBF0E
:102FA0008C01AC014E5C5F4F2EE06BE30E94671713
:102FB0008111C5C1F801A2A8B12CBA2CAA2483A9F9
:102FC000A82AB1A2A0A2E4A8F12CFE2CEE2485A987
:102FD000E82AF3A2E2A286A8912C982C882487A93B
:102FE000882A95A284A2448055806680778062AD4D
:102FF00070E0762F662783AD682B882777FD809554
:10300000982F0E94F32EF80126A137A140A551A5C3
:103010000E948D2DA30192010E94582EF801648B0D
:10302000758B868B978B64AD70E0762F662785ADA8
:10303000682B882777FD8095982F0E94F32EF80142
:1030400022A533A544A555A50E948D2DA30192016B
:103050000E94582EF801608F718F828F938F66AD1A
:1030600070E0762F662787AD682B882777FD8095DF
:10307000982F0E94F32EF80126A537A540A951A943
:103080000E948D2DA30192010E94582EF801648F99
:10309000758F868F978FB701882777FD8095982F3A
:1030A0000E94F32E6B017C01B401882777FD809587
:1030B000982F0E94F32E9B01AC010E946B302B01D4
:1030C0003C01A7019601C701B6010E946B30A30124
:1030D00092010E948E2D0E941E319B01AC01B50110
:1030E000882777FD8095982F29873A874B875C87BB
:1030F0000E94F32E4B015C0129853A854B855C8546
:103100000E94012E20E030E044E353E40E946B3043
:103110002AED3FE049E450E40E94582E69837A8307
:103120008B839C83A5019401C501B4010E946B307F
:10313000A30192010E948E2D0E941E319B01AC01C1
:10314000C701B6010E94012E20E030E044E353E4C1
:103150000E946B302AED3FE049E450E40E94582E73
:103160006D837E838F8398870E942C28C0903406BD
:10317000D0903506E0903606F09037066C197D0940
:103180008E099F090E94F12E20E030E04AE754E4C6
:103190000E94582E6B017C010E942C2860933406FB
:1031A000709335068093360690933706F80184A114
:1031B00095A11816190644F5208D318D428D538D39
:1031C000C701B6010E946B309B01AC01F80160851C
:1031D0007185828593850E948D2DF80160877187A6
:1031E000828793872489358946895789C701B60123
:1031F0000E946B309B01AC01F80164857585868562
:1032000097850E948E2D28C0F801208D318D428D2A
:10321000538DC701B6010E946B309B01AC01F801D0
:1032200060857185828593850E948E2DF801608767
:103230007187828793872489358946895789C70191
:10324000B6010E946B309B01AC01F8016485758565
:10325000868597850E948D2DF801648775878687FE
:103260009787F801248D358D468D578DC701B6019E
:103270000E946B309B01AC01F801608971898289E1
:1032800093890E948E2DF801608B718B828B938BBA
:1032900020E030E040E05FE3C701B6010E948E2DE0
:1032A0009B01AC0160E070E080E09FE30E94582E3B
:1032B0006B017C019B01AC0160E070E080E89FE362
:1032C0000E948D2D4B015C01F801208531854285DE
:1032D0005385C701B6010E946B302B013C01A5014B
:1032E000940169817A818B819C810E946B309B0162
:1032F000AC01C301B2010E948E2DF8016087718775
:10330000828793872485358546855785C701B60111
:103310000E946B306B017C01A50194016D817E815F
:103320008F8198850E946B309B01AC01C701B6016B
:103330000E948E2DF80164877587868797872C9663
:103340000FB6F894DEBF0FBECDBFDF91CF911F91B6
:103350000F91FF90EF90DF90CF90BF90AF909F9034
:103360008F907F906F905F904F9008952F923F9233
:103370004F925F926F927F928F929F92AF92BF9285
:10338000CF92DF92EF92FF920F931F93CF93DF9331
:1033900000D000D0CDB7DEB71C0104EF11E0812CC6
:1033A000912C5401412C512C320119821A821B821A
:1033B0001C827C0122E3E20EF11C26E0A70163E4FB
:1033C000C1010E946717F10182A990E0982F882718
:1033D00023A9822BAA2797FDA095BA2F29813A818C
:1033E0004B815C81280F391F4A1F5B1F29833A8359
:1033F0004B835C8384A990E0982F882725A9822B92
:10340000AA2797FDA095BA2F480E591E6A1E7B1E4B
:1034100086A990E0982F882727A9822BAA2797FDB5
:10342000A095BA2F880E991EAA1EBB1E0150110925
:1034300021F664EFC62EDD24D394E12CF12C6981B2
:103440007A818B819C81A70196010E946632CA0114
:10345000B9010E94F32EF10166A377A380A791A77B
:10346000C301B201A70196010E946632CA01B901E7
:103470000E94F32EF10162A773A784A795A7C50147
:10348000B401A70196010E946632CA01B9010E94E7
:10349000F32EF10166A777A780AB91AB0F900F9049
:1034A0000F900F90DF91CF911F910F91FF90EF90B0
:1034B000DF90CF90BF90AF909F908F907F906F9054
:1034C0005F904F903F902F900895EF92FF921F933F
:1034D000CF93DF931F92CDB7DEB7162F7A0168E640
:1034E00070E080E194E029830E94CC0C612F80E1A0
:1034F00094E00E94690C2981813091F4422F50E0C0
:10350000B70180E194E00E943C0C61E080E194E02E
:103510000F90DF91CF911F91FF90EF900C94CE0C04
:103520008FEF0F90DF91CF911F91FF90EF90089553
:10353000CF93DF931F92CDB7DEB7498321E0AE0171
:103540004F5F5F4F0E94651A0F90DF91CF910895F2
:10355000CF93DF93EC0140E050E063E872E44C83EA
:103560005D836E837F83188619861A861B861C8668
:103570001D861E861F86188A198A1A8A1B8A1C8A2B
:103580001D8A1E8A1F8A188E198E1A8E1B8E1C8EFB
:103590001D8E1E8E1F8E19A218A21BA21AA21DA27A
:1035A0001CA21EA21FA218A619A61AA61BA61CA61C
:1035B0001DA61EA61FA618AA19AA80E194E00E94C3
:1035C000A80C60E273E080E090E00E945B2840E09D
:1035D0006BE670E0CE010E94981A41E06AE170E06B
:1035E000CE010E94981A48E06BE170E0CE010E9483
:1035F000981ACE01DF91CF910C94B61921E030E0FA
:10360000FC0131832083EE5FFE4F10821182128213
:1036100013823496108211821282138234961082A1
:103620003196108231961082118212821382349662
:10363000118210823296108231961082118212828B
:103640001382349610821182128213820895089593
:10365000CF92DF92EF92FF920F931F93CF93C62FDB
:10366000FC01EE5FFE4F0081118122813381B9019F
:10367000A8014F5F5F4F6F4F7F4F55276627772712
:10368000DC01AA5FBE4FCD90DD90ED90FC904C1513
:103690005D056E057F0559F0DC01A00FB11F129684
:1036A000CC93408351836283738381E001C080E0C7
:1036B000CF911F910F91FF90EF90DF90CF900895E1
:1036C000AF92BF92CF92DF92EF92FF920F931F9330
:1036D000CF93DF9300D000D0CDB7DEB75C01FC0103
:1036E000EE5FFE4FC080D180E280F3808FEFC80E86
:1036F000D11CE11CF11C349680819181A281B3819F
:10370000C81AD90AEA0AFB0ADD24EE24FF24C216ED
:10371000D306E406F50628F08B01C12CD12C7601E6
:1037200002C080E019C0C216D306E406F506A1F077
:10373000F80161918F01C50129833A834B835C8332
:103740000E94281BFFEFCF1ADF0AEF0AFF0A5C81F5
:103750004B813A812981E7CF0F900F900F900F9006
:10376000DF91CF911F910F91FF90EF90DF90CF905D
:10377000BF90AF9008950F931F93CF93DF93DB011A
:10378000FC01EA5FFE4F4081518162817381EC014F
:10379000CE5FDE4F088119812A813B81041715070E
:1037A00026073707A9F0EC01C40FD51F8A818C9337
:1037B00080819181A281B3810196A11DB11D9927BC
:1037C000AA27BB2780839183A283B38381E001C0B2
:1037D00080E0DF91CF911F910F9108950F931F9378
:1037E000FC0100E010E0980180E0041715072607AF
:1037F000370739F0919189270F5F1F4F2F4F3F4FA8
:10380000F4CF1F910F9108952F923F924F925F92A4
:103810006F927F928F929F92AF92BF92CF92DF92E0
:10382000EF92FF920F931F93CF93DF9300D000D0BE
:1038300000D0CDB7DEB78C0119827C018DEEE81A7D
:103840008EEFF80A18019EEE291A9EEF390A4801F8
:10385000A0EF8A1AAEEF9A0A5801B4EFAB1ABEEF86
:10386000BB0A6801E9EECE1AEEEFDE0AC801855FF9
:103870009E4F9B838A83D801A65FBE4FBD83AC83D6
:10388000BE016F5F7F4FC8010E94BB1BF8018823F8
:1038900009F40FC18081918183309105F9F064F4BE
:1038A0008130910591F0029759F78981EA81FB8176
:1038B000808383E090E00EC08530910509F48FC0CD
:1038C0007CF1069709F4C7C0DBCF8981853AC1F640
:1038D00082E090E0D8018D939C93D2CFF701808154
:1038E0009181800F911FFC01E45FFE4F29812083AD
:1038F000F70180819181A281B3810196A11DB11D43
:1039000080839183A283B3830497A105B10509F055
:10391000B7CF108211821282138284E090E05BC0E4
:10392000D6014D905D906D907C90411451046104DE
:10393000710459F5F50180819181A281B3818F3F96
:103940009105A105B10539F030F081E090E0D80192
:103950008D939C9364C001960E94A532D4018D93EF
:103960009C93892B91F481E090E0F801918380830E
:10397000D6011D921D921D921C921397F701108281
:10398000118212821382D50189C08981D401ED91FF
:10399000FC91E40DF51D8083F60180819181A28167
:1039A000B3810196A11DB11D80839183A283B3834E
:1039B000F501408151816281738184179507A607C3
:1039C000B70709F05DCFD6011D921D921D921C9282
:1039D000139785E090E0F8019183808351CF29818E
:1039E000D1012C93F40160807180D5014D915D91DE
:1039F0006D917C91C3012E830E94EE1B2E812817AE
:103A000021F181E090E0F8019183808361147104D9
:103A100031F0C3010E943D33D4011D921C92F60186
:103A20001082118212821382D7011D921D921D9263
:103A30001C921397F5011082118212821382AA81BF
:103A4000BB811C92F10110821BCFE6E0F0E0D801AF
:103A5000ED93FC9315CF89818A3589F0D4018D913E
:103A60009C91009729F00E943D33F401118210824D
:103A7000D5011D921D921D921C92139704C081E0E6
:103A8000EC81FD81808381E090E0D8018D939C934F
:103A9000F6011082118212821382D7011D921D92AB
:103AA0001D921C921397EA81FB811082D1011C9216
:103AB000E7CE808126960FB6F894DEBF0FBECDBF4D
:103AC000DF91CF911F910F91FF90EF90DF90CF90FA
:103AD000BF90AF909F908F907F906F905F904F902E
:103AE0003F902F900895BF92CF92DF92EF92FF9276
:103AF0000F931F93CF93DF93EC01CB018E01045FF3
:103B00001E4FF801C080D180E280F380C216D30638
:103B1000E406F50618F4BC2C5D2D02C0B22E532F1E
:103B20007E01F0EFEF1AFEEFFF0AF701608171816D
:103B300061157105B9F00097A9F04B2D0E949634DC
:103B4000F701808191810E943D33F701118210823B
:103B5000F8011082118212821382C65FDE4F188232
:103B60008B2D01C080E0DF91CF911F910F91FF90CD
:103B7000EF90DF90CF90BF90089560E00C942621E5
:103B80004F925F926F927F928F929F92AF92BF926D
:103B9000CF92DF92EF92FF920F931F93CF93DF9319
:103BA00000D000D01F92CDB7DEB78C01CE010196B8
:103BB0006C0185E0F60111928A95E9F760E0C80191
:103BC0000E946E2164E170E080E090E00E945B283A
:103BD00061E0C8010E946E2188E290E00E94832883
:103BE00060E0C8010E946E210E942C284B015C01FC
:103BF00060E0C8010E944D2181110EC00E942C2856
:103C0000681979098A099B09633071058105910555
:103C100078F3F801148215820E942C284B015C0174
:103C200060E0C8010E944D21882359F00E942C2891
:103C3000681979098A099B09633071058105910525
:103C400078F3E12CF12C0E942C284B015C0160E000
:103C5000C8010E944D2181110BC00E942C286819B7
:103C600079098A099B09633071058105910578F30B
:103C70000E9438284B015C010E942C282B013C013A
:103C800060E0C8010E944D21882359F00E942C2831
:103C900064197509860997096330710581059105D5
:103CA00078F30E943828681979098A099B09F70175
:103CB00023E0F595E7952A95E1F7693271058105CD
:103CC000910530F0EC0DFD1D8081880F816004C0EE
:103CD000EC0DFD1D8081880F8083FFEFEF1AFF0A36
:103CE00088E2E816F10409F0AECF59814B81842FA8
:103CF00090E0850F911D2D8130E08217930719F414
:103D0000F801548345830F900F900F900F900F9000
:103D1000DF91CF911F910F91FF90EF90DF90CF90A7
:103D2000BF90AF909F908F907F906F905F904F90DB
:103D30000895FC01611102C0848108958581089570
:103D4000CF93DF93EC010E94CF2287E691E0998325
:103D5000888388A1809339068F8D80933806DF9100
:103D6000CF910895CF93DF93EC0140E855E260E0F6
:103D700070E00E940A2360E08F8DDF91CF910C9458
:103D80006E291F93CF93DF93EC018BA1882319F049
:103D9000CE010E94382360E0CE014F960E943C2164
:103DA000182F8BA1882319F0CE010E94B21E81E04A
:103DB0008127DF91CF911F9108958A589F4FFC0171
:103DC00080810895CF93DF93EC010E94C11E882368
:103DD000A1F0CE010E949D23181619068CF4E881EB
:103DE000F9810680F781E02DCE0109958F3F91057D
:103DF0003CF4CA58DF4F888303C0CA58DF4F18828B
:103E0000DF91CF9108950E948323992708951F92EF
:103E10000F920FB60F9211240F931F932F933F937E
:103E20004F935F936F937F938F939F93AF93BF93C2
:103E3000CF93EF93FF9382E00E94DD29C82F20915A
:103E40004006309141062F5F3F4F3093410620934B
:103E500040068091A606843618F085E080933B06E4
:103E600090913B06933079F018F4923039F070C09D
:103E7000943011F1953009F44AC06AC0C11168C08C
:103E80001092A60629C0C13009F062C0E091A606D2
:103E900081E08E0F8093A606F0E08091400690911D
:103EA0004106E65CF94F8087109241061092400669
:103EB00084E080933B064CC0C11114C0E091A6067B
:103EC00081E08E0F8093A606F0E0809140069091ED
:103ED0004106E65CF94F8087109241061092400639
:103EE00083E0E7CF809140069091410685369105A9
:103EF00078F185E080933B060E942C2860933C0675
:103F000070933D0680933E0690933F0621C00E9429
:103F10002C2800913C0610913D0620913E063091E0
:103F20003F06601B710B820B930B693C7105810589
:103F3000910540F01092A60610924106109240069C
:103F400082E0B7CFC11104C0109241061092400622
:103F5000FF91EF91CF91BF91AF919F918F917F9101
:103F60006F915F914F913F912F911F910F910F9002
:103F70000FBE0F901F90189560E00C9426216130C1
:103F800049F40E947E218A5E91402091A9063091D9
:103F9000AA060AC0623059F40E9482218A5E9140CA
:103FA0002091A7063091A806820F931F089580E004
:103FB00090E00895089570E0FB01EC54FE4FE49109
:103FC000DC01EC93FB01E853FE4FE491F0E0EE0FCF
:103FD000FF1FE452FE4F25913491FC01328321836F
:103FE00008951F93CF93DF93FC011081C181D2818B
:103FF0009981812F8095892389838A81812B8A8366
:104000008AE090E00E9483289881912381E009F45E
:1040100080E0DF91CF911F910895FF920F931F933E
:10402000CF93DF93FC011081C181D281F894898103
:10403000F12EF0948F2189838A81812B8A83789451
:104040000DE7015041F182E090E00E9483288881D1
:104050008123B9F3F8948A818F218A838981812B06
:104060008983789480EE91E00E948328F894898176
:104070008F2189838A81812B8A8386E490E00E9444
:1040800083288881812301E009F000E078948AE99F
:1040900091E00E948328802FDF91CF911F910F9193
:1040A000FF9008951F93CF93DF93FC011081C1818E
:1040B000D281912F909560FF12C0F8948A81892354
:1040C0008A838981812B89838AE090E00E948328FA
:1040D0008A81812B8A83789487E390E011C0F894D9
:1040E0008A8189238A838981812B898381E490E075
:1040F0000E9483288A81812B8A83789485E090E0CE
:10410000DF91CF911F910C9483280F931F93CF932E
:10411000DF93FC011081C181D281F8948981812BC8
:1041200089838A81012F009580238A8383E090E030
:104130000E9483288981802389838A81812B8A83B5
:104140008AE090E00E948328C881789485E390E01B
:104150000E9483281C2381E009F480E0DF91CF9145
:104160001F910F910895CF92DF92EF92FF920F93DC
:104170001F93CF93DF931F92CDB7DEB76C01E62E6E
:1041800008E010E0FF24F39461E09F2D9E2109F4E4
:1041900060E0C60149830E945220FF0C01501109C2
:1041A00049810115110581F741111DC0F894D6010F
:1041B0001196ED91FC91129791818C9180958923B4
:1041C00081831196ED91FC91129782819C91892BAC
:1041D00082831196ED91FC91129792818C9180953A
:1041E0008923828378940F90DF91CF911F910F9153
:1041F000FF90EF90DF90CF900895EF92FF920F9392
:104200001F93CF93DF938C01C8E0D0E0F12CEE2414
:10421000E394C8010E9485208111FE28EE0C2197AD
:10422000C1F78F2DDF91CF911F910F91FF90EF90EC
:10423000089540E06CEC0C94B320FC0180911A01CD
:10424000808380911B01818312820895DC01E62F17
:10425000F0E0EE0FFF1FE65EFE4F80818C938181C0
:1042600011968C93119712966C930895FC0182819C
:104270000895FC0183810895CF93DF93EC01888139
:104280000E946E2988810E94DD2921E0892B09F492
:1042900020E0822FDF91CF910895CF93DF93EC013F
:1042A00089810E946E2989810E94DD2921E0892B64
:1042B00009F420E0822FDF91CF9108951F93CF93CF
:1042C000DF93EC01162F61E088810E946E29612F37
:1042D0008881DF91CF911F910C94A7291F93CF93D1
:1042E000DF93EC01162F61E089810E946E29612F16
:1042F0008981DF91CF911F910C94A729FC018081C6
:104300000C94C928FC0181810C94C928FC0180818E
:104310000C94E628DC01E62FF0E0EE0FFF1FE65ECE
:10432000FE4F80818C93818111968C931197129608
:104330006C930895DC01E62FF0E0EE0FFF1FE65EC0
:10434000FE4F80818C93818111968C9311971296E8
:104350006C93129713964C930895FC0180810895F5
:10436000FC0181810895DC0112966C931297E62F6F
:10437000F0E0EE0FFF1FE65EFE4F918111969C93D9
:10438000119780818C934230D9F4292F30E0F901C4
:10439000EC54FE4FE4911C96EC931C97F901E85302
:1043A000FE4FE491F0E0EE0FFF1FEA51FE4F259122
:1043B000349119963C932E93189761E0892F19C078
:1043C000282F30E0F901EC54FE4FE4911C96EC9359
:1043D0001C97F901E853FE4FE491F0E0EE0FFF1F48
:1043E000EA51FE4F2591349119963C932E931897DC
:1043F00061E00C946E29CF93DF93EC01262F30E01F
:104400003D832C8323E0629FC00111240E94A532CA
:104410009F838E83892B21F483E791E00E94A63449
:1044200080E090E04C815D819A01220F331F240FC0
:10443000351F8217930738F4EE81FF81E80FF91FCB
:1044400010820196EFCFDF91CF910895CF93DF9344
:10445000EC010E941D2160E2CE01DF91CF910C940E
:10446000FB210F93FC01A62FB0E084819581A81752
:10447000B907B8F4862F880F860F90E0A681B78120
:10448000A80FB91F2C93A681B781A80FB91F119649
:104490004C930680F781E02DE80FF91F028381E03D
:1044A00001C080E00F910895CF92DF92EF92FF92CA
:1044B0000F931F93CF93DF937C01142FD22EC02E26
:1044C000611113C0C0E0D0E0F70184819581C81765
:1044D000D90748F40C2D2D2D412F6C2FC7010E94B8
:1044E00031222196F1CF81E004C061500E94312237
:1044F00080E0DF91CF911F910F91FF90EF90DF90BF
:10450000CF9008950F93022F242F462F60E00E9432
:1045100054220F9108950F931F93D8013FB7F89439
:104520009C91822F80958923292BFB01460F571FD1
:10453000E417F50781F0919168E02C9300C097FF94
:104540008C93990F00C000C000C008F48C9300C089
:104550006A9599F7EDCF3FBF1F910F9108950F9383
:104560001F93FC010085118524813581A901440F29
:10457000551F420F531F6681778124850E948B222D
:104580001F910F910895CF93DF93EC018E819F814E
:104590000E943D331F821E82DF91CF910895FF92CA
:1045A0000F931F93CF93DF93EC01F62E8C01015EE6
:1045B0001F4FC8010E942621EF2DF0E0EE0FFF1FD4
:1045C000E65EFE4F20E040816181CE010E94B9107D
:1045D00085E991E09983888369EB71E0CE01825986
:1045E0009F4F0E94432D1DA21BA21CA288A1809355
:1045F000AC068F8D8093AB06C8010E94362191E0F6
:10460000853009F090E09BA3DF91CF911F910F912E
:10461000FF900895CF92DF92EF92FF92CF93DF93B6
:10462000EC016A017B0160E472E48FE090E0A70195
:1046300096010E9466323FA32EA38BA1882369F0C6
:1046400026E0B701A60186EB96E0DF91CF91FF90BF
:10465000EF90DF90CF900C94152BB701A601CE01FF
:10466000DF91CF91FF90EF90DF90CF900C94E91005
:10467000FC0123A1222321F086EB96E00C94772BFA
:104680000C947711EF92FF920F931F93CF93DF93C8
:10469000FC01C6A1D7A123978091AC060E94DD2919
:1046A000892BF1F400E010E0E12CF12CCE010E9406
:1046B00083288091AC060E94DD29002E02C0880F5D
:1046C000991F0A94E2F7E82AF92A0F5F1F4F083072
:1046D000110561F7CE010E948328C701992702C006
:1046E0008FEF9FEFDF91CF911F910F91FF90EF9090
:1046F0000895FC0123A1222321F086EB96E00C947F
:10470000B02A0C94140FFC0124A1222351F020A5FF
:1047100031A54FEF5FEF51A740A737FF0CC00C94B6
:104720004223FC0123A1222321F086EB96E00C9486
:104730004B2A0C94F30EC9010895CF93DF93EC013B
:104740008CA1882371F0CE010E94422388A799A7EB
:10475000892F8095881F8827881F90E0DF91CF914F
:1047600008958BA1882331F086EB96E0DF91CF91FD
:104770000C94322ACE01DF91CF910C94800FCF930D
:10478000DF93EC018E81813011F460E001C061E0C3
:104790008A810E94A72961E08B810E94A72981E07C
:1047A00090E00E94832860E08B81DF91CF910C9490
:1047B000A729CF93DF93EC0160E002960E942621A7
:1047C00085EA91E099838883DF91CF910895CF9313
:1047D000DF93EC0102960E94262185EA91E09983FD
:1047E00088831F82188619861A861B861C861D865A
:1047F0001E861F8A188E198E1A8E0E9438286F8F77
:1048000078A389A39AA31F86188A198A1A8A81E035
:104810008E831F82188619861A861B861C861D8623
:104820001E861BA21CA21DA21EA21B8E1C8E1D8EEC
:104830001E8E61E08A810E946E2961E08B81DF918A
:10484000CF910C946E290F931F93CF93DF93EC01BC
:104850004B8D5C8D6D8D7E8D452B462B472B11F43A
:1048600080E035C00E9438280F8D18A129A13AA1F7
:10487000601B710B820B930B0B8D1C8D2D8D3E8D50
:10488000061717072807390758F78E814F81588573
:1048900069857A85813029F44F5F5F4F6F4F7F4F75
:1048A00004C041505109610971094F8358876987D4
:1048B0007A87E881F9810190F081E02DCE01099598
:1048C0000E9438286F8F78A389A39AA381E0DF9193
:1048D000CF911F910F9108952F923F924F925F9227
:1048E0006F927F928F929F92AF92BF92CF92DF9200
:1048F000EF92FF920F931F93CF93DF9300D000D0DE
:1049000000D0CDB7DEB79E838D83FC01C384D484F1
:10491000E584F68487819085A185B285C81AD90A75
:10492000EA0AFB0A67857089818992899B01AC013B
:104930000E946B304B015C01ED81FE816789708DB7
:10494000818D928D9B01AC010E948E2D9B01AC014B
:10495000C501B4010E94582E0E94C02EC114D1047A
:10496000E104F104A9F462307105810591050CF0B0
:1049700082C0ED81FE81138E148E158E168E1786E1
:10498000108A118A128A13A214A215A216A20AC1B1
:10499000ED81FE8103A114A125A136A11C141D04E3
:1049A0001E041F040CF510161106120613064CF413
:1049B0006C157D058E059F056CF5268121115BC068
:1049C00029C0011511052105310509F454C06C15E4
:1049D0007D058E059F050CF04EC0ED81FE81868120
:1049E000813009F048C03CC01016110612061306AB
:1049F0000CF50027112798010C191D092E093F09F4
:104A000060177107820793072CF4ED81FE812681E0
:104A1000213089F59B01AC0188279927DC01821B95
:104A2000930BA40BB50BED81FE8183A394A3A5A3E7
:104A3000B6A321C00115110521053105E1F0882437
:104A4000992454018C189D08AE08BF086815790593
:104A50008A059B0584F4ED81FE81868181110BC05E
:104A600030952095109501951F4F2F4F3F4F03A371
:104A700014A325A336A3ED81FE8183A094A0A5A055
:104A8000B6A081149104A104B10499F487A190A562
:104A9000A1A5B2A583A794A7A5A7B6A781E01C14DA
:104AA0001D041E041F040CF080E0ED81FE8186834E
:104AB00042C0ED81FE81C3A4D4A4E5A4F6A4A7015D
:104AC0009601C701B6010E948E2D2B013C01C50144
:104AD000B4010E94F32E20E030E040E850E40E9450
:104AE0006B3020E030E040E85FE30E948E2D9B01B8
:104AF000AC01C301B2010E94582E9B01AC01C70159
:104B0000B6010E948D2D1B012C01ED81FE8167A451
:104B100070A801A912A99301A8010E941B301816C0
:104B200014F431018201A301B801ED81FE8143A794
:104B300054A765A776A7FFEF8F1A9F0AAF0ABF0A8F
:104B4000ED81FE8183A294A2A5A2B6A223A534A5DD
:104B500045A556A5CA01B90129833A834B835C83D5
:104B60000E94C52EED81FE81638F748F858F968F95
:104B700029813A814B815C8160E074E284E799E4A9
:104B80000E94582EED81FE816787708B818B928BFE
:104B90002681211107C0DC01CB01B0588787908B9B
:104BA000A18BB28B26960FB6F894DEBF0FBECDBF99
:104BB000DF91CF911F910F91FF90EF90DF90CF90F9
:104BC000BF90AF909F908F907F906F905F904F902D
:104BD0003F902F9008950F931F93FC010385148538
:104BE00025853685041715072607370741F04387C3
:104BF0005487658776871F910F910C946C241F91C1
:104C00000F910895CF92DF92EF92FF92CF93DF93AF
:104C1000EC016A017B019A01AB016B897C898D896A
:104C20009E890E94542E882309F440C0CB8ADC8AD6
:104C3000ED8AFE8AA701960160E074E284E799E4B8
:104C40000E94582E6FA778AB89AB9AAB8BA19CA121
:104C5000ADA1BEA1181619061A061B063CF56F85F4
:104C6000788989899A899B01AC010E946B306B011C
:104C70007C016F89788D898D9A8D9B01AC010E9492
:104C80008E2D9B01AC01C701B6010E94582E0E94D7
:104C9000C02E6BA37CA38DA39EA3CE01DF91CF91E9
:104CA000FF90EF90DF90CF900C946C24DF91CF9128
:104CB000FF90EF90DF90CF9008956F927F928F9248
:104CC0009F92AF92BF92CF92DF92EF92FF920F939B
:104CD0001F93CF93DF93EC013A018B012F85388925
:104CE00049895A89B301C8010E94542E882309F4C6
:104CF0004FC0CB88DC88ED88FE8846015701B7FAA3
:104D0000B094B7F8B094A5019401B301C8010E9412
:104D1000542E87FD0BC0A7019601B301C8010E9464
:104D20001B3018162CF43601870102C034018501AE
:104D300020E030E0A901B301C8010E94542E811186
:104D400005C01B8E1C8E1D8E1E8E1CC09301A801DB
:104D500060E074E284E799E40E94582E9F770E94F5
:104D6000C52E6B8F7C8F8D8F9E8FFF24F39420E058
:104D700030E0A901B301C8010E941B3018160CF0E5
:104D8000F12CFE82C301D8018F87988BA98BBA8B37
:104D9000DF91CF911F910F91FF90EF90DF90CF9017
:104DA000BF90AF909F908F907F906F9008950F93DA
:104DB0001F93FC0103851485258536854781508521
:104DC00061857285041715072607370771F04017AC
:104DD0005107620773071CF421E0268302C0FC011F
:104DE00016821F910F910C94232480E01F910F9144
:104DF0000895CF93DF93EC010E941D21CE0104960C
:104E0000DF91CF910C94DA1F1F93CF93DF93EC01C6
:104E1000142F0E949A21123011F4698101C0688117
:104E2000CE010496DF91CF911F910C94DB1FCF929E
:104E3000DF92EF92FF920F931F93CF93DF93CDB743
:104E4000DEB72C970FB6F894DEBF0FBECDBF8C0136
:104E50000C5F1F4FC8010E940D20C8010E9419213C
:104E600040E064E4C8010E94B3200E942C286B013A
:104E70007C01C8010E94F11F81110BC00E942C28E7
:104E80006C197D098E099F096E3E7240810591055E
:104E900080F3C8010E940D20C8010E94192140E042
:104EA0006EEBC8010E94B320CE0101967C016E0119
:104EB00096E0C90ED11CC8010E94FD20F701819324
:104EC0007F01EC15FD05B9F76A8170E0762F662742
:104ED0008981682B882777FD8095982F0E94F32E73
:104EE00020E030E040E85DE30E946B302C960FB686
:104EF000F894DEBF0FBECDBFDF91CF911F910F9110
:104F0000FF90EF90DF90CF90089560E00C94262101
:104F1000CF92DF92EF92FF92CF93DF9300D000D039
:104F2000CDB7DEB77C019A01AB0160E029833A83FB
:104F30004B835C830E946E2182E090E00E94832874
:104F400061E0C7010E946E218AE090E00E94832800
:104F500060E0C7010E946E2160E0F70181810E943C
:104F60006E2929813A814B815C8161E0F701818161
:104F70000E94062A6B017C0184E690E00E9483284F
:104F8000C701B6010F900F900F900F90DF91CF9156
:104F9000FF90EF90DF90CF90089527E3269FA00128
:104FA000279F500D112448535F4F60E070E00E942E
:104FB00088270E94F32E20E030E048E652E40E9469
:104FC000582E08951F920F920FB60F9211242F930F
:104FD0003F938F939F93AF93BF938091AE06909131
:104FE000AF06A091B006B091B1063091AD0623E0B6
:104FF000230F2D3720F40196A11DB11D05C026E811
:10500000230F0296A11DB11D2093AD068093AE061D
:105010009093AF06A093B006B093B1068091B2060C
:105020009091B306A091B406B091B5060196A11D6A
:10503000B11D8093B2069093B306A093B406B093CB
:10504000B506BF91AF919F918F913F912F910F9096
:105050000FBE0F901F9018952FB7F8946091AE0671
:105060007091AF068091B0069091B1062FBF089560
:105070003FB7F8948091B2069091B306A091B40620
:10508000B091B50626B5A89B05C02F3F19F0019633
:10509000A11DB11D3FBF6627782F892F9A2F620F60
:1050A000711D811D911D42E0660F771F881F991F9A
:1050B0004A95D1F70895CF92DF92EF92FF92CF9366
:1050C000DF936B017C010E943828EB01C114D104ED
:1050D000E104F10489F00E948C2D0E9438286C1B99
:1050E0007D0B683E734090F381E0C81AD108E10857
:1050F000F108C851DC4FEACFDF91CF91FF90EF90DC
:10510000DF90CF9008958230910538F0880F991F75
:10511000880F991F05970197F1F70895789484B542
:10512000826084BD84B5816084BD85B5826085BDA3
:1051300085B5816085BDEEE6F0E080818160808389
:10514000E1E8F0E01082808182608083808181606C
:105150008083E0E8F0E0808181608083E1EBF0E033
:10516000808184608083E0EBF0E0808181608083D7
:10517000EAE7F0E0808184608083808182608083C0
:105180008081816080838081806880831092C100EB
:1051900008958E3008F08E5087702091380190E489
:1051A000299F90011124822B80937C0080917A00AA
:1051B000806480937A0080917A0086FDFCCF809194
:1051C00078002091790090E0922B08951F93CF935F
:1051D000DF93182FEB0161E00E946E29209711F4F4
:1051E00060E004C0CF3FD10539F461E0812FDF9149
:1051F000CF911F910C94A729E12FF0E0E056FE4FCC
:10520000E491E330F9F048F4E130B9F0E230A1F58F
:1052100084B5806284BDC8BD34C0E730E9F0E830B1
:1052200019F1E43049F5809180008062809380001C
:10523000D0938B00C0938A0024C084B5806884BD5D
:10524000C7BD1FC080918000806880938000D0938C
:105250008900C093880015C08091B0008068809359
:10526000B000C093B3000DC08091B0008062809305
:10527000B000C093B40005C0C038D1050CF0B5CF64
:10528000AFCFDF91CF911F910895833081F028F443
:10529000813099F08230A1F008958730A9F08830EC
:1052A000B9F08430D1F4809180008F7D03C080916B
:1052B00080008F7780938000089584B58F7702C037
:1052C00084B58F7D84BD08958091B0008F7703C031
:1052D0008091B0008F7D8093B0000895CF93DF93CD
:1052E00090E0FC01EC54FE4F2491FC01E853FE4F8A
:1052F0008491882349F190E0880F991FFC01E051C7
:10530000FE4FA591B4918A519E4FFC01C591D49155
:105310009FB7611108C0F8948C91209582238C93DB
:10532000888182230AC0623051F4F8948C91322F24
:10533000309583238C938881822B888304C0F894D2
:105340008C91822B8C939FBFDF91CF9108950F9307
:105350001F93CF93DF931F92CDB7DEB7282F30E096
:10536000F901E056FE4F8491F901EC54FE4F14917F
:10537000F901E853FE4F04910023C9F0882321F07E
:1053800069830E9445296981E02FF0E0EE0FFF1F3D
:10539000EA51FE4FA591B4919FB7F8948C91611199
:1053A00003C01095812301C0812B8C939FBF0F9068
:1053B000DF91CF911F910F910895CF93DF93282F05
:1053C00030E0F901E056FE4F8491F901EC54FE4FB4
:1053D000D491F901E853FE4FC491CC2391F081118F
:1053E0000E944529EC2FF0E0EE0FFF1FE452FE4F24
:1053F000A591B4912C912D2381E090E021F480E0DF
:1054000002C080E090E0DF91CF9108950F931F9349
:10541000762F90E0FC01EC54FE4F6491FC01E853C0
:10542000FE4FE4917111762FF0E0EE0FFF1FE45272
:10543000FE4F8591949189019A013F70472F0E94F8
:105440002D01611571058105910531F06F5F7F4F69
:105450008F4F9F4F9F7003C060E070E0CB011F91A2
:105460000F910895FC01818D228D90E0805C9F4F0B
:10547000821B91098F7399270895FC01918D828D6C
:10548000981731F0828DE80FF11D858D90E0089519
:105490008FEF9FEF0895FC01918D828D981761F039
:1054A000828DDF01A80FB11D5D968C91928D9F5F5B
:1054B0009F73928F90E008958FEF9FEF08958BEE8A
:1054C0009BE2892B49F080E090E0892B29F00E9433
:1054D000EB2B81110C9400000895FC01848DDF01F9
:1054E000A80FB11DA35ABF4F2C91848D90E0019657
:1054F0008F739927848FA689B7892C93A089B18946
:105500008C9180648C93938D848D981306C002884F
:10551000F389E02D80818F7D80830895CF93DF9381
:10552000EC01888D8823C9F0EA89FB89808185FD9B
:1055300005C0A889B9898C9186FD0FC00FB607FCFC
:10554000F5CF808185FFF2CFA889B9898C9185FF3D
:10555000EDCFCE010E946D2AE7CFDF91CF91089564
:10556000CF92DF92FF920F931F93CF93DF931F92FF
:10557000CDB7DEB76C0181E0D60158968C93589771
:105580005B969C915B975C968C915C97981307C097
:105590005096ED91FC915197808185FD2EC0F601CA
:1055A000038D10E00F5F1F4F0F731127F02EF601D0
:1055B000848DF81211C00FB607FCF9CFD6015096B2
:1055C000ED91FC915197808185FFF1CFC6016983F0
:1055D0000E946D2A6981EBCF838DE80FF11DE35A9C
:1055E000FF4F6083D6015B960C935B975296ED91CB
:1055F000FC915397808180620CC0D6015696ED9144
:10560000FC91579760835096ED91FC915197808162
:105610008064808381E090E00F90DF91CF911F91B3
:105620000F91FF90DF90CF900895BF92CF92DF92BD
:10563000EF92FF92CF93DF93EC016A017B01B22ED0
:10564000E889F98982E08083411581EE5807610578
:105650007105A1F060E079E08DE390E0A70196018B
:105660000E9444322150310941095109569547950C
:1056700037952795211580E1380798F0E889F98951
:10568000108260E874E88EE190E0A70196010E9424
:1056900044322150310941095109569547953795B2
:1056A0002795EC85FD853083EE85FF852083188E58
:1056B000EC89FD89B082EA89FB89808180618083E1
:1056C000EA89FB89808188608083EA89FB898081FF
:1056D00080688083EA89FB8980818F7D8083DF9168
:1056E000CF91FF90EF90DF90CF90BF900895FC0195
:1056F000938D848D9813FCCFA289B3898C918F7E72
:105700008C93A289B3898C91877F8C93A289B3896A
:105710008C918F778C93A289B3898C918F7D8C9398
:10572000828D818F08951F920F920FB60F921124D0
:105730002F938F939F93EF93FF93E091C606F09181
:10574000C7068081E091CC06F091CD0682FD12C0A3
:1057500090818091CF068F5F8F732091D006821742
:1057600051F0E091CF06F0E0EA54F94F958F809325
:10577000CF0601C08081FF91EF919F918F912F9172
:105780000F900FBE0F901F9018951F920F920FB69B
:105790000F9211242F933F934F935F936F937F93B7
:1057A0008F939F93AF93BF93EF93FF9386EB96E016
:1057B0000E946D2AFF91EF91BF91AF919F918F91C0
:1057C0007F916F915F914F913F912F910F900FBEFD
:1057D0000F901F90189586EB96E00E94322A21E0E8
:1057E000892B09F420E0822F08951092B9061092B7
:1057F000B80688EE93E0A0E0B0E08093BA069093FC
:10580000BB06A093BC06B093BD068BEA91E09093D3
:10581000B7068093B60685EC90E09093C30680931C
:10582000C20684EC90E09093C5068093C40680EC99
:1058300090E09093C7068093C60681EC90E0909329
:10584000C9068093C80682EC90E09093CB068093C3
:10585000CA0686EC90E09093CD068093CC06109219
:10586000CF061092D0061092D1061092D20608955B
:1058700008950E948E280E94382C0E947201CFE564
:10588000DAE20E949C092097E1F30E945F2AF9CF97
:105890000C94A5320C943D33CF92DF92EF92FF929D
:1058A0000F931F93CF93DF936C017A01EB01E60E08
:1058B000F71E00E010E0CE15DF0561F06991D6011A
:1058C000ED91FC910190F081E02DC6010995080F42
:1058D000191FF1CFC801DF91CF911F910F91FF9058
:1058E000EF90DF90CF9008956115710581F0DB0195
:1058F0000D900020E9F7AD0141505109461B570BAF
:10590000DC01ED91FC910280F381E02D099480E0AF
:1059100090E0089567EB71E00C94742C4F925F92C5
:105920006F927F92AF92BF92CF92DF92EF92FF92EF
:105930000F931F93CF93DF93CDB7DEB729013A01C1
:10594000621B730B840B950B29893A894B895C89FF
:105950002A193B094C095D09298B3A8B4B8B5C8BCF
:105960009B01AC0169897A898B899C890E940032EC
:10597000E418F50806091709A80197010E94663284
:105980002A0D3B1D4C1D5D1DCA01B901DF91CF9150
:105990001F910F91FF90EF90DF90CF90BF90AF904D
:1059A0007F906F905F904F900895FC01808191816E
:1059B0000C943D33CF93DF93EC018881998100975C
:1059C00011F00E943D33198218821D821C821B82B5
:1059D0001A82DF91CF9108950F931F93CF93DF9396
:1059E000EC018B016F5F7F4F888199810E94CC33DE
:1059F000009731F0998388831B830A8381E001C07B
:105A000080E0DF91CF911F910F910895CF93DF93A5
:105A1000EC0188819981892B29F08A819B818617E5
:105A2000970760F4CE010E94EC2C882341F08C8112
:105A30009D81892B19F4E881F981108281E0DF9141
:105A4000CF910895EF92FF920F931F93CF93DF931F
:105A5000EC017B018A01BA010E94062D811104C06C
:105A6000CE010E94DA2C07C01D830C83B701888108
:105A700099810E949F34CE01DF91CF911F910F91A8
:105A8000FF90EF900895FC01118210821382128220
:105A9000158214826115710559F0FB0101900020F7
:105AA000E9F7AF0141505109461B570B0C94222DC9
:105AB0000895CF93DF93EC01FB018617970761F000
:105AC000608171816115710529F0448155810E94C1
:105AD000222D02C00E94DA2CCE01DF91CF910895D1
